{
	"Qsito/carnaval.sol": {
		"CarnavalScores": {
			"abi": [
				{
					"inputs": [],
					"stateMutability": "nonpayable",
					"type": "constructor"
				},
				{
					"inputs": [
						{
							"internalType": "address",
							"name": "spender",
							"type": "address"
						},
						{
							"internalType": "uint256",
							"name": "allowance",
							"type": "uint256"
						},
						{
							"internalType": "uint256",
							"name": "needed",
							"type": "uint256"
						}
					],
					"name": "ERC20InsufficientAllowance",
					"type": "error"
				},
				{
					"inputs": [
						{
							"internalType": "address",
							"name": "sender",
							"type": "address"
						},
						{
							"internalType": "uint256",
							"name": "balance",
							"type": "uint256"
						},
						{
							"internalType": "uint256",
							"name": "needed",
							"type": "uint256"
						}
					],
					"name": "ERC20InsufficientBalance",
					"type": "error"
				},
				{
					"inputs": [
						{
							"internalType": "address",
							"name": "approver",
							"type": "address"
						}
					],
					"name": "ERC20InvalidApprover",
					"type": "error"
				},
				{
					"inputs": [
						{
							"internalType": "address",
							"name": "receiver",
							"type": "address"
						}
					],
					"name": "ERC20InvalidReceiver",
					"type": "error"
				},
				{
					"inputs": [
						{
							"internalType": "address",
							"name": "sender",
							"type": "address"
						}
					],
					"name": "ERC20InvalidSender",
					"type": "error"
				},
				{
					"inputs": [
						{
							"internalType": "address",
							"name": "spender",
							"type": "address"
						}
					],
					"name": "ERC20InvalidSpender",
					"type": "error"
				},
				{
					"anonymous": false,
					"inputs": [
						{
							"indexed": true,
							"internalType": "address",
							"name": "owner",
							"type": "address"
						},
						{
							"indexed": true,
							"internalType": "address",
							"name": "spender",
							"type": "address"
						},
						{
							"indexed": false,
							"internalType": "uint256",
							"name": "value",
							"type": "uint256"
						}
					],
					"name": "Approval",
					"type": "event"
				},
				{
					"anonymous": false,
					"inputs": [
						{
							"indexed": false,
							"internalType": "string[]",
							"name": "_nomeEscola",
							"type": "string[]"
						}
					],
					"name": "EscolasAdicionadas",
					"type": "event"
				},
				{
					"anonymous": false,
					"inputs": [
						{
							"indexed": true,
							"internalType": "address",
							"name": "jurado",
							"type": "address"
						},
						{
							"indexed": false,
							"internalType": "string",
							"name": "_nomeJurado",
							"type": "string"
						}
					],
					"name": "JuradoAdicionado",
					"type": "event"
				},
				{
					"anonymous": false,
					"inputs": [
						{
							"indexed": false,
							"internalType": "string[]",
							"name": "_nomeQuesito",
							"type": "string[]"
						}
					],
					"name": "QuesitoAdicionados",
					"type": "event"
				},
				{
					"anonymous": false,
					"inputs": [
						{
							"indexed": true,
							"internalType": "address",
							"name": "from",
							"type": "address"
						},
						{
							"indexed": true,
							"internalType": "address",
							"name": "to",
							"type": "address"
						},
						{
							"indexed": false,
							"internalType": "uint256",
							"name": "value",
							"type": "uint256"
						}
					],
					"name": "Transfer",
					"type": "event"
				},
				{
					"inputs": [
						{
							"internalType": "string",
							"name": "_nomeJurado",
							"type": "string"
						},
						{
							"internalType": "uint256",
							"name": "_quesitoId",
							"type": "uint256"
						}
					],
					"name": "addJurado",
					"outputs": [
						{
							"internalType": "uint256",
							"name": "",
							"type": "uint256"
						}
					],
					"stateMutability": "nonpayable",
					"type": "function"
				},
				{
					"inputs": [
						{
							"internalType": "address",
							"name": "owner",
							"type": "address"
						},
						{
							"internalType": "address",
							"name": "spender",
							"type": "address"
						}
					],
					"name": "allowance",
					"outputs": [
						{
							"internalType": "uint256",
							"name": "",
							"type": "uint256"
						}
					],
					"stateMutability": "view",
					"type": "function"
				},
				{
					"inputs": [
						{
							"internalType": "address",
							"name": "spender",
							"type": "address"
						},
						{
							"internalType": "uint256",
							"name": "value",
							"type": "uint256"
						}
					],
					"name": "approve",
					"outputs": [
						{
							"internalType": "bool",
							"name": "",
							"type": "bool"
						}
					],
					"stateMutability": "nonpayable",
					"type": "function"
				},
				{
					"inputs": [
						{
							"internalType": "address",
							"name": "account",
							"type": "address"
						}
					],
					"name": "balanceOf",
					"outputs": [
						{
							"internalType": "uint256",
							"name": "",
							"type": "uint256"
						}
					],
					"stateMutability": "view",
					"type": "function"
				},
				{
					"inputs": [],
					"name": "decimals",
					"outputs": [
						{
							"internalType": "uint8",
							"name": "",
							"type": "uint8"
						}
					],
					"stateMutability": "view",
					"type": "function"
				},
				{
					"inputs": [],
					"name": "getEscolas",
					"outputs": [
						{
							"internalType": "string[]",
							"name": "",
							"type": "string[]"
						}
					],
					"stateMutability": "view",
					"type": "function"
				},
				{
					"inputs": [],
					"name": "getJurados",
					"outputs": [
						{
							"components": [
								{
									"internalType": "address",
									"name": "endereco",
									"type": "address"
								},
								{
									"internalType": "string",
									"name": "nome",
									"type": "string"
								},
								{
									"internalType": "uint256",
									"name": "quesitoId",
									"type": "uint256"
								}
							],
							"internalType": "struct CarnavalScores.Jurado[]",
							"name": "",
							"type": "tuple[]"
						}
					],
					"stateMutability": "view",
					"type": "function"
				},
				{
					"inputs": [
						{
							"internalType": "uint256",
							"name": "_escolaId",
							"type": "uint256"
						},
						{
							"internalType": "uint256",
							"name": "_quesitoId",
							"type": "uint256"
						}
					],
					"name": "getNota",
					"outputs": [
						{
							"internalType": "uint256",
							"name": "",
							"type": "uint256"
						}
					],
					"stateMutability": "view",
					"type": "function"
				},
				{
					"inputs": [],
					"name": "getQuesitos",
					"outputs": [
						{
							"internalType": "string[]",
							"name": "",
							"type": "string[]"
						}
					],
					"stateMutability": "view",
					"type": "function"
				},
				{
					"inputs": [],
					"name": "limparDados",
					"outputs": [],
					"stateMutability": "nonpayable",
					"type": "function"
				},
				{
					"inputs": [],
					"name": "name",
					"outputs": [
						{
							"internalType": "string",
							"name": "",
							"type": "string"
						}
					],
					"stateMutability": "view",
					"type": "function"
				},
				{
					"inputs": [
						{
							"internalType": "uint256",
							"name": "",
							"type": "uint256"
						},
						{
							"internalType": "uint256",
							"name": "",
							"type": "uint256"
						}
					],
					"name": "notasPorEscolaQuesito",
					"outputs": [
						{
							"internalType": "uint256",
							"name": "escolaId",
							"type": "uint256"
						},
						{
							"internalType": "uint256",
							"name": "quesitoId",
							"type": "uint256"
						},
						{
							"internalType": "address",
							"name": "juradoId",
							"type": "address"
						},
						{
							"internalType": "uint256",
							"name": "nota",
							"type": "uint256"
						}
					],
					"stateMutability": "view",
					"type": "function"
				},
				{
					"inputs": [],
					"name": "owner",
					"outputs": [
						{
							"internalType": "address",
							"name": "",
							"type": "address"
						}
					],
					"stateMutability": "view",
					"type": "function"
				},
				{
					"inputs": [
						{
							"internalType": "uint256",
							"name": "_escolaId",
							"type": "uint256"
						},
						{
							"internalType": "uint256",
							"name": "_quesitoId",
							"type": "uint256"
						},
						{
							"internalType": "uint256",
							"name": "_nota",
							"type": "uint256"
						}
					],
					"name": "registrarNota",
					"outputs": [],
					"stateMutability": "nonpayable",
					"type": "function"
				},
				{
					"inputs": [],
					"name": "symbol",
					"outputs": [
						{
							"internalType": "string",
							"name": "",
							"type": "string"
						}
					],
					"stateMutability": "view",
					"type": "function"
				},
				{
					"inputs": [],
					"name": "totalSupply",
					"outputs": [
						{
							"internalType": "uint256",
							"name": "",
							"type": "uint256"
						}
					],
					"stateMutability": "view",
					"type": "function"
				},
				{
					"inputs": [
						{
							"internalType": "address",
							"name": "to",
							"type": "address"
						},
						{
							"internalType": "uint256",
							"name": "value",
							"type": "uint256"
						}
					],
					"name": "transfer",
					"outputs": [
						{
							"internalType": "bool",
							"name": "",
							"type": "bool"
						}
					],
					"stateMutability": "nonpayable",
					"type": "function"
				},
				{
					"inputs": [
						{
							"internalType": "address",
							"name": "from",
							"type": "address"
						},
						{
							"internalType": "address",
							"name": "to",
							"type": "address"
						},
						{
							"internalType": "uint256",
							"name": "value",
							"type": "uint256"
						}
					],
					"name": "transferFrom",
					"outputs": [
						{
							"internalType": "bool",
							"name": "",
							"type": "bool"
						}
					],
					"stateMutability": "nonpayable",
					"type": "function"
				}
			],
			"devdoc": {
				"errors": {
					"ERC20InsufficientAllowance(address,uint256,uint256)": [
						{
							"details": "Indicates a failure with the `spender`’s `allowance`. Used in transfers.",
							"params": {
								"allowance": "Amount of tokens a `spender` is allowed to operate with.",
								"needed": "Minimum amount required to perform a transfer.",
								"spender": "Address that may be allowed to operate on tokens without being their owner."
							}
						}
					],
					"ERC20InsufficientBalance(address,uint256,uint256)": [
						{
							"details": "Indicates an error related to the current `balance` of a `sender`. Used in transfers.",
							"params": {
								"balance": "Current balance for the interacting account.",
								"needed": "Minimum amount required to perform a transfer.",
								"sender": "Address whose tokens are being transferred."
							}
						}
					],
					"ERC20InvalidApprover(address)": [
						{
							"details": "Indicates a failure with the `approver` of a token to be approved. Used in approvals.",
							"params": {
								"approver": "Address initiating an approval operation."
							}
						}
					],
					"ERC20InvalidReceiver(address)": [
						{
							"details": "Indicates a failure with the token `receiver`. Used in transfers.",
							"params": {
								"receiver": "Address to which tokens are being transferred."
							}
						}
					],
					"ERC20InvalidSender(address)": [
						{
							"details": "Indicates a failure with the token `sender`. Used in transfers.",
							"params": {
								"sender": "Address whose tokens are being transferred."
							}
						}
					],
					"ERC20InvalidSpender(address)": [
						{
							"details": "Indicates a failure with the `spender` to be approved. Used in approvals.",
							"params": {
								"spender": "Address that may be allowed to operate on tokens without being their owner."
							}
						}
					]
				},
				"events": {
					"Approval(address,address,uint256)": {
						"details": "Emitted when the allowance of a `spender` for an `owner` is set by a call to {approve}. `value` is the new allowance."
					},
					"Transfer(address,address,uint256)": {
						"details": "Emitted when `value` tokens are moved from one account (`from`) to another (`to`). Note that `value` may be zero."
					}
				},
				"kind": "dev",
				"methods": {
					"allowance(address,address)": {
						"details": "See {IERC20-allowance}."
					},
					"approve(address,uint256)": {
						"details": "See {IERC20-approve}. NOTE: If `value` is the maximum `uint256`, the allowance is not updated on `transferFrom`. This is semantically equivalent to an infinite approval. Requirements: - `spender` cannot be the zero address."
					},
					"balanceOf(address)": {
						"details": "See {IERC20-balanceOf}."
					},
					"decimals()": {
						"details": "Returns the number of decimals used to get its user representation. For example, if `decimals` equals `2`, a balance of `505` tokens should be displayed to a user as `5.05` (`505 / 10 ** 2`). Tokens usually opt for a value of 18, imitating the relationship between Ether and Wei. This is the default value returned by this function, unless it's overridden. NOTE: This information is only used for _display_ purposes: it in no way affects any of the arithmetic of the contract, including {IERC20-balanceOf} and {IERC20-transfer}."
					},
					"name()": {
						"details": "Returns the name of the token."
					},
					"symbol()": {
						"details": "Returns the symbol of the token, usually a shorter version of the name."
					},
					"totalSupply()": {
						"details": "See {IERC20-totalSupply}."
					},
					"transfer(address,uint256)": {
						"details": "See {IERC20-transfer}. Requirements: - `to` cannot be the zero address. - the caller must have a balance of at least `value`."
					},
					"transferFrom(address,address,uint256)": {
						"details": "See {IERC20-transferFrom}. Skips emitting an {Approval} event indicating an allowance update. This is not required by the ERC. See {xref-ERC20-_approve-address-address-uint256-bool-}[_approve]. NOTE: Does not update the allowance if the current allowance is the maximum `uint256`. Requirements: - `from` and `to` cannot be the zero address. - `from` must have a balance of at least `value`. - the caller must have allowance for ``from``'s tokens of at least `value`."
					}
				},
				"version": 1
			},
			"evm": {
				"assembly": "    /* \"Qsito/carnaval.sol\":119:5676  contract CarnavalScores is ERC20 {... */\n  mstore(0x40, 0x80)\n    /* \"Qsito/carnaval.sol\":1034:1377  string[] private nomeEscolas = [\"Unidos de Padre Miguel\",\"Imperatriz Leopoldinense\",\"Unidos do Viradouro\",\"Estacoes Primeira de Mangueira\",... */\n  mload(0x40)\n  dup1\n  0x0180\n  add\n  0x40\n  mstore\n  dup1\n  mload(0x40)\n  dup1\n  0x40\n  add\n  0x40\n  mstore\n  dup1\n  0x16\n  dup2\n  mstore\n  0x20\n  add\n  0x556e69646f73206465205061647265204d696775656c00000000000000000000\n  dup2\n  mstore\n  pop\n  dup2\n  mstore\n  0x20\n  add\n  mload(0x40)\n  dup1\n  0x40\n  add\n  0x40\n  mstore\n  dup1\n  0x18\n  dup2\n  mstore\n  0x20\n  add\n  0x496d706572617472697a204c656f706f6c64696e656e73650000000000000000\n  dup2\n  mstore\n  pop\n  dup2\n  mstore\n  0x20\n  add\n  mload(0x40)\n  dup1\n  0x40\n  add\n  0x40\n  mstore\n  dup1\n  0x13\n  dup2\n  mstore\n  0x20\n  add\n  0x556e69646f7320646f2056697261646f75726f00000000000000000000000000\n  dup2\n  mstore\n  pop\n  dup2\n  mstore\n  0x20\n  add\n  mload(0x40)\n  dup1\n  0x40\n  add\n  0x40\n  mstore\n  dup1\n  0x1e\n  dup2\n  mstore\n  0x20\n  add\n  0x45737461636f6573205072696d65697261206465204d616e6775656972610000\n  dup2\n  mstore\n  pop\n  dup2\n  mstore\n  0x20\n  add\n  mload(0x40)\n  dup1\n  0x40\n  add\n  0x40\n  mstore\n  dup1\n  0x10\n  dup2\n  mstore\n  0x20\n  add\n  0x556e69646f732064612054696a75636100000000000000000000000000000000\n  dup2\n  mstore\n  pop\n  dup2\n  mstore\n  0x20\n  add\n  mload(0x40)\n  dup1\n  0x40\n  add\n  0x40\n  mstore\n  dup1\n  0x17\n  dup2\n  mstore\n  0x20\n  add\n  0x4265696a612d466c6f72206465204e696c6f706f6c6973000000000000000000\n  dup2\n  mstore\n  pop\n  dup2\n  mstore\n  0x20\n  add\n  mload(0x40)\n  dup1\n  0x40\n  add\n  0x40\n  mstore\n  dup1\n  0x17\n  dup2\n  mstore\n  0x20\n  add\n  0x41636164656d69636f7320646f2053616c67756569726f000000000000000000\n  dup2\n  mstore\n  pop\n  dup2\n  mstore\n  0x20\n  add\n  mload(0x40)\n  dup1\n  0x40\n  add\n  0x40\n  mstore\n  dup1\n  0x15\n  dup2\n  mstore\n  0x20\n  add\n  0x556e69646f732064652056696c612049736162656c0000000000000000000000\n  dup2\n  mstore\n  pop\n  dup2\n  mstore\n  0x20\n  add\n  mload(0x40)\n  dup1\n  0x60\n  add\n  0x40\n  mstore\n  dup1\n  0x25\n  dup2\n  mstore\n  0x20\n  add\n  data_873691c59648f4f39f1d7cd4543680b232b49ca01cb1e767190908a1f126a1a2\n  0x25\n  swap2\n  codecopy\n  dup2\n  mstore\n  0x20\n  add\n  mload(0x40)\n  dup1\n  0x40\n  add\n  0x40\n  mstore\n  dup1\n  0x11\n  dup2\n  mstore\n  0x20\n  add\n  0x5061726169736f20646f20547569757469000000000000000000000000000000\n  dup2\n  mstore\n  pop\n  dup2\n  mstore\n  0x20\n  add\n  mload(0x40)\n  dup1\n  0x40\n  add\n  0x40\n  mstore\n  dup1\n  0x18\n  dup2\n  mstore\n  0x20\n  add\n  0x41636164656d69636f7320646f204772616e64652052696f0000000000000000\n  dup2\n  mstore\n  pop\n  dup2\n  mstore\n  0x20\n  add\n  mload(0x40)\n  dup1\n  0x40\n  add\n  0x40\n  mstore\n  dup1\n  0x07\n  dup2\n  mstore\n  0x20\n  add\n  0x506f7274656c6100000000000000000000000000000000000000000000000000\n  dup2\n  mstore\n  pop\n  dup2\n  mstore\n  pop\n  0x0c\n  swap1\n  0x0c\n  tag_1\n  swap3\n  swap2\n  swap1\n  tag_2\n  jump\t// in\ntag_1:\n  pop\n    /* \"Qsito/carnaval.sol\":1386:1527  string[] private qsitos = [\"Samba-enredo\",\"Bateria\",\"Harmonia\",\"Evolucao\",\"Comissao de frente\",\"Alegorias\",\"Fantasia\",\"Mestre-sala\",\"Enredo\"] */\n  mload(0x40)\n  dup1\n  0x0120\n  add\n  0x40\n  mstore\n  dup1\n  mload(0x40)\n  dup1\n  0x40\n  add\n  0x40\n  mstore\n  dup1\n  0x0c\n  dup2\n  mstore\n  0x20\n  add\n  0x53616d62612d656e7265646f0000000000000000000000000000000000000000\n  dup2\n  mstore\n  pop\n  dup2\n  mstore\n  0x20\n  add\n  mload(0x40)\n  dup1\n  0x40\n  add\n  0x40\n  mstore\n  dup1\n  0x07\n  dup2\n  mstore\n  0x20\n  add\n  0x4261746572696100000000000000000000000000000000000000000000000000\n  dup2\n  mstore\n  pop\n  dup2\n  mstore\n  0x20\n  add\n  mload(0x40)\n  dup1\n  0x40\n  add\n  0x40\n  mstore\n  dup1\n  0x08\n  dup2\n  mstore\n  0x20\n  add\n  0x4861726d6f6e6961000000000000000000000000000000000000000000000000\n  dup2\n  mstore\n  pop\n  dup2\n  mstore\n  0x20\n  add\n  mload(0x40)\n  dup1\n  0x40\n  add\n  0x40\n  mstore\n  dup1\n  0x08\n  dup2\n  mstore\n  0x20\n  add\n  0x45766f6c7563616f000000000000000000000000000000000000000000000000\n  dup2\n  mstore\n  pop\n  dup2\n  mstore\n  0x20\n  add\n  mload(0x40)\n  dup1\n  0x40\n  add\n  0x40\n  mstore\n  dup1\n  0x12\n  dup2\n  mstore\n  0x20\n  add\n  0x436f6d697373616f206465206672656e74650000000000000000000000000000\n  dup2\n  mstore\n  pop\n  dup2\n  mstore\n  0x20\n  add\n  mload(0x40)\n  dup1\n  0x40\n  add\n  0x40\n  mstore\n  dup1\n  0x09\n  dup2\n  mstore\n  0x20\n  add\n  0x416c65676f726961730000000000000000000000000000000000000000000000\n  dup2\n  mstore\n  pop\n  dup2\n  mstore\n  0x20\n  add\n  mload(0x40)\n  dup1\n  0x40\n  add\n  0x40\n  mstore\n  dup1\n  0x08\n  dup2\n  mstore\n  0x20\n  add\n  0x46616e7461736961000000000000000000000000000000000000000000000000\n  dup2\n  mstore\n  pop\n  dup2\n  mstore\n  0x20\n  add\n  mload(0x40)\n  dup1\n  0x40\n  add\n  0x40\n  mstore\n  dup1\n  0x0b\n  dup2\n  mstore\n  0x20\n  add\n  0x4d65737472652d73616c61000000000000000000000000000000000000000000\n  dup2\n  mstore\n  pop\n  dup2\n  mstore\n  0x20\n  add\n  mload(0x40)\n  dup1\n  0x40\n  add\n  0x40\n  mstore\n  dup1\n  0x06\n  dup2\n  mstore\n  0x20\n  add\n  0x456e7265646f0000000000000000000000000000000000000000000000000000\n  dup2\n  mstore\n  pop\n  dup2\n  mstore\n  pop\n  0x0d\n  swap1\n  0x09\n  tag_3\n  swap3\n  swap2\n  swap1\n  tag_4\n  jump\t// in\ntag_3:\n  pop\n    /* \"Qsito/carnaval.sol\":1856:1857  0 */\n  0x00\n    /* \"Qsito/carnaval.sol\":1821:1857  uint private _currentJuradoIndex = 0 */\n  0x0e\n  sstore\n    /* \"Qsito/carnaval.sol\":1899:1900  0 */\n  0x00\n    /* \"Qsito/carnaval.sol\":1864:1900  uint private _currentEscolaIndex = 0 */\n  0x0f\n  sstore\n    /* \"Qsito/carnaval.sol\":1943:1944  0 */\n  0x00\n    /* \"Qsito/carnaval.sol\":1907:1944  uint private _currentQuesitoIndex = 0 */\n  0x10\n  sstore\n    /* \"Qsito/carnaval.sol\":1540:1686  constructor() ERC20(\"CarnavalScores\", \"CCS\") {... */\n  callvalue\n  dup1\n  iszero\n  tag_5\n  jumpi\n  revert(0x00, 0x00)\ntag_5:\n  pop\n    /* \"@openzeppelin/contracts/token/ERC20/ERC20.sol\":1601:1714  constructor(string memory name_, string memory symbol_) {... */\n  mload(0x40)\n  dup1\n  0x40\n  add\n  0x40\n  mstore\n  dup1\n  0x0e\n  dup2\n  mstore\n  0x20\n  add\n  0x4361726e6176616c53636f726573000000000000000000000000000000000000\n  dup2\n  mstore\n  pop\n  mload(0x40)\n  dup1\n  0x40\n  add\n  0x40\n  mstore\n  dup1\n  0x03\n  dup2\n  mstore\n  0x20\n  add\n  0x4343530000000000000000000000000000000000000000000000000000000000\n  dup2\n  mstore\n  pop\n    /* \"@openzeppelin/contracts/token/ERC20/ERC20.sol\":1675:1680  name_ */\n  dup2\n    /* \"@openzeppelin/contracts/token/ERC20/ERC20.sol\":1667:1672  _name */\n  0x03\n    /* \"@openzeppelin/contracts/token/ERC20/ERC20.sol\":1667:1680  _name = name_ */\n  swap1\n  dup2\n  tag_9\n  swap2\n  swap1\n  tag_10\n  jump\t// in\ntag_9:\n  pop\n    /* \"@openzeppelin/contracts/token/ERC20/ERC20.sol\":1700:1707  symbol_ */\n  dup1\n    /* \"@openzeppelin/contracts/token/ERC20/ERC20.sol\":1690:1697  _symbol */\n  0x04\n    /* \"@openzeppelin/contracts/token/ERC20/ERC20.sol\":1690:1707  _symbol = symbol_ */\n  swap1\n  dup2\n  tag_11\n  swap2\n  swap1\n  tag_10\n  jump\t// in\ntag_11:\n  pop\n    /* \"@openzeppelin/contracts/token/ERC20/ERC20.sol\":1601:1714  constructor(string memory name_, string memory symbol_) {... */\n  pop\n  pop\n    /* \"Qsito/carnaval.sol\":1604:1614  msg.sender */\n  caller\n    /* \"Qsito/carnaval.sol\":1596:1601  owner */\n  0x0b\n  0x00\n    /* \"Qsito/carnaval.sol\":1596:1614  owner = msg.sender */\n  0x0100\n  exp\n  dup2\n  sload\n  dup2\n  0xffffffffffffffffffffffffffffffffffffffff\n  mul\n  not\n  and\n  swap1\n  dup4\n  0xffffffffffffffffffffffffffffffffffffffff\n  and\n  mul\n  or\n  swap1\n  sstore\n  pop\n    /* \"Qsito/carnaval.sol\":1625:1648  addEscolas(nomeEscolas) */\n  tag_13\n    /* \"Qsito/carnaval.sol\":1636:1647  nomeEscolas */\n  0x0c\n    /* \"Qsito/carnaval.sol\":1625:1648  addEscolas(nomeEscolas) */\n  dup1\n  sload\n  dup1\n  0x20\n  mul\n  0x20\n  add\n  mload(0x40)\n  swap1\n  dup2\n  add\n  0x40\n  mstore\n  dup1\n  swap3\n  swap2\n  swap1\n  dup2\n  dup2\n  mstore\n  0x20\n  add\n  0x00\n  swap1\ntag_14:\n  dup3\n  dup3\n  lt\n  iszero\n  tag_15\n  jumpi\n  dup4\n  dup3\n  swap1\n  0x00\n  mstore\n  keccak256(0x00, 0x20)\n  add\n  dup1\n  sload\n  tag_17\n  swap1\n  tag_18\n  jump\t// in\ntag_17:\n  dup1\n  0x1f\n  add\n  0x20\n  dup1\n  swap2\n  div\n  mul\n  0x20\n  add\n  mload(0x40)\n  swap1\n  dup2\n  add\n  0x40\n  mstore\n  dup1\n  swap3\n  swap2\n  swap1\n  dup2\n  dup2\n  mstore\n  0x20\n  add\n  dup3\n  dup1\n  sload\n  tag_19\n  swap1\n  tag_18\n  jump\t// in\ntag_19:\n  dup1\n  iszero\n  tag_20\n  jumpi\n  dup1\n  0x1f\n  lt\n  tag_21\n  jumpi\n  0x0100\n  dup1\n  dup4\n  sload\n  div\n  mul\n  dup4\n  mstore\n  swap2\n  0x20\n  add\n  swap2\n  jump(tag_20)\ntag_21:\n  dup3\n  add\n  swap2\n  swap1\n  0x00\n  mstore\n  keccak256(0x00, 0x20)\n  swap1\ntag_22:\n  dup2\n  sload\n  dup2\n  mstore\n  swap1\n  0x01\n  add\n  swap1\n  0x20\n  add\n  dup1\n  dup4\n  gt\n  tag_22\n  jumpi\n  dup3\n  swap1\n  sub\n  0x1f\n  and\n  dup3\n  add\n  swap2\ntag_20:\n  pop\n  pop\n  pop\n  pop\n  pop\n  dup2\n  mstore\n  0x20\n  add\n  swap1\n  0x01\n  add\n  swap1\n  jump(tag_14)\ntag_15:\n  pop\n  pop\n  pop\n  pop\n    /* \"Qsito/carnaval.sol\":1625:1635  addEscolas */\n  shl(0x20, tag_23)\n    /* \"Qsito/carnaval.sol\":1625:1648  addEscolas(nomeEscolas) */\n  0x20\n  shr\n  jump\t// in\ntag_13:\n    /* \"Qsito/carnaval.sol\":1659:1678  addQuesitos(qsitos) */\n  tag_24\n    /* \"Qsito/carnaval.sol\":1671:1677  qsitos */\n  0x0d\n    /* \"Qsito/carnaval.sol\":1659:1678  addQuesitos(qsitos) */\n  dup1\n  sload\n  dup1\n  0x20\n  mul\n  0x20\n  add\n  mload(0x40)\n  swap1\n  dup2\n  add\n  0x40\n  mstore\n  dup1\n  swap3\n  swap2\n  swap1\n  dup2\n  dup2\n  mstore\n  0x20\n  add\n  0x00\n  swap1\ntag_25:\n  dup3\n  dup3\n  lt\n  iszero\n  tag_26\n  jumpi\n  dup4\n  dup3\n  swap1\n  0x00\n  mstore\n  keccak256(0x00, 0x20)\n  add\n  dup1\n  sload\n  tag_28\n  swap1\n  tag_18\n  jump\t// in\ntag_28:\n  dup1\n  0x1f\n  add\n  0x20\n  dup1\n  swap2\n  div\n  mul\n  0x20\n  add\n  mload(0x40)\n  swap1\n  dup2\n  add\n  0x40\n  mstore\n  dup1\n  swap3\n  swap2\n  swap1\n  dup2\n  dup2\n  mstore\n  0x20\n  add\n  dup3\n  dup1\n  sload\n  tag_29\n  swap1\n  tag_18\n  jump\t// in\ntag_29:\n  dup1\n  iszero\n  tag_30\n  jumpi\n  dup1\n  0x1f\n  lt\n  tag_31\n  jumpi\n  0x0100\n  dup1\n  dup4\n  sload\n  div\n  mul\n  dup4\n  mstore\n  swap2\n  0x20\n  add\n  swap2\n  jump(tag_30)\ntag_31:\n  dup3\n  add\n  swap2\n  swap1\n  0x00\n  mstore\n  keccak256(0x00, 0x20)\n  swap1\ntag_32:\n  dup2\n  sload\n  dup2\n  mstore\n  swap1\n  0x01\n  add\n  swap1\n  0x20\n  add\n  dup1\n  dup4\n  gt\n  tag_32\n  jumpi\n  dup3\n  swap1\n  sub\n  0x1f\n  and\n  dup3\n  add\n  swap2\ntag_30:\n  pop\n  pop\n  pop\n  pop\n  pop\n  dup2\n  mstore\n  0x20\n  add\n  swap1\n  0x01\n  add\n  swap1\n  jump(tag_25)\ntag_26:\n  pop\n  pop\n  pop\n  pop\n    /* \"Qsito/carnaval.sol\":1659:1670  addQuesitos */\n  shl(0x20, tag_33)\n    /* \"Qsito/carnaval.sol\":1659:1678  addQuesitos(qsitos) */\n  0x20\n  shr\n  jump\t// in\ntag_24:\n    /* \"Qsito/carnaval.sol\":119:5676  contract CarnavalScores is ERC20 {... */\n  jump(tag_34)\n    /* \"Qsito/carnaval.sol\":2718:3234  function addEscolas(string[] memory _nomeEscolas) private onlyOwner {... */\ntag_23:\n    /* \"Qsito/carnaval.sol\":1748:1753  owner */\n  0x0b\n  0x00\n  swap1\n  sload\n  swap1\n  0x0100\n  exp\n  swap1\n  div\n  0xffffffffffffffffffffffffffffffffffffffff\n  and\n    /* \"Qsito/carnaval.sol\":1734:1753  msg.sender == owner */\n  0xffffffffffffffffffffffffffffffffffffffff\n  and\n    /* \"Qsito/carnaval.sol\":1734:1744  msg.sender */\n  caller\n    /* \"Qsito/carnaval.sol\":1734:1753  msg.sender == owner */\n  0xffffffffffffffffffffffffffffffffffffffff\n  and\n  eq\n    /* \"Qsito/carnaval.sol\":1726:1789  require(msg.sender == owner, \"Acesso restrito ao proprietario\") */\n  tag_36\n  jumpi\n  mload(0x40)\n  0x08c379a000000000000000000000000000000000000000000000000000000000\n  dup2\n  mstore\n  0x04\n  add\n  tag_37\n  swap1\n  tag_38\n  jump\t// in\ntag_37:\n  mload(0x40)\n  dup1\n  swap2\n  sub\n  swap1\n  revert\ntag_36:\n    /* \"Qsito/carnaval.sol\":685:687  12 */\n  0x0c\n    /* \"Qsito/carnaval.sol\":2805:2813  _escolas */\n  0x06\n    /* \"Qsito/carnaval.sol\":2805:2820  _escolas.length */\n  dup1\n  sload\n  swap1\n  pop\n    /* \"Qsito/carnaval.sol\":2805:2841  _escolas.length < QUANTIDADE_ESCOLAS */\n  lt\n    /* \"Qsito/carnaval.sol\":2797:2882  require(_escolas.length < QUANTIDADE_ESCOLAS,\"Quantidade maxima de escolas atingida\") */\n  tag_40\n  jumpi\n  mload(0x40)\n  0x08c379a000000000000000000000000000000000000000000000000000000000\n  dup2\n  mstore\n  0x04\n  add\n  tag_41\n  swap1\n  tag_42\n  jump\t// in\ntag_41:\n  mload(0x40)\n  dup1\n  swap2\n  sub\n  swap1\n  revert\ntag_40:\n    /* \"Qsito/carnaval.sol\":2898:2904  uint i */\n  0x00\n    /* \"Qsito/carnaval.sol\":2907:2908  0 */\n  0x00\n    /* \"Qsito/carnaval.sol\":2898:2908  uint i = 0 */\n  swap1\n  pop\n    /* \"Qsito/carnaval.sol\":2893:3179  for (uint i = 0; i < _nomeEscolas.length; i++) {... */\ntag_43:\n    /* \"Qsito/carnaval.sol\":2914:2926  _nomeEscolas */\n  dup2\n    /* \"Qsito/carnaval.sol\":2914:2933  _nomeEscolas.length */\n  mload\n    /* \"Qsito/carnaval.sol\":2910:2911  i */\n  dup2\n    /* \"Qsito/carnaval.sol\":2910:2933  i < _nomeEscolas.length */\n  lt\n    /* \"Qsito/carnaval.sol\":2893:3179  for (uint i = 0; i < _nomeEscolas.length; i++) {... */\n  iszero\n  tag_44\n  jumpi\n    /* \"Qsito/carnaval.sol\":685:687  12 */\n  0x0c\n    /* \"Qsito/carnaval.sol\":2963:2982  _currentEscolaIndex */\n  sload(0x0f)\n    /* \"Qsito/carnaval.sol\":2963:3003  _currentEscolaIndex < QUANTIDADE_ESCOLAS */\n  lt\n    /* \"Qsito/carnaval.sol\":2955:3045  require(_currentEscolaIndex < QUANTIDADE_ESCOLAS, \"Quantidade maxima de escolas atingida\") */\n  tag_46\n  jumpi\n  mload(0x40)\n  0x08c379a000000000000000000000000000000000000000000000000000000000\n  dup2\n  mstore\n  0x04\n  add\n  tag_47\n  swap1\n  tag_42\n  jump\t// in\ntag_47:\n  mload(0x40)\n  dup1\n  swap2\n  sub\n  swap1\n  revert\ntag_46:\n    /* \"Qsito/carnaval.sol\":3060:3068  _escolas */\n  0x06\n    /* \"Qsito/carnaval.sol\":3074:3130  Escola({id: _currentEscolaIndex, nome: _nomeEscolas[i]}) */\n  mload(0x40)\n  dup1\n  0x40\n  add\n  0x40\n  mstore\n  dup1\n    /* \"Qsito/carnaval.sol\":3086:3105  _currentEscolaIndex */\n  sload(0x0f)\n    /* \"Qsito/carnaval.sol\":3074:3130  Escola({id: _currentEscolaIndex, nome: _nomeEscolas[i]}) */\n  dup2\n  mstore\n  0x20\n  add\n    /* \"Qsito/carnaval.sol\":3113:3125  _nomeEscolas */\n  dup5\n    /* \"Qsito/carnaval.sol\":3126:3127  i */\n  dup5\n    /* \"Qsito/carnaval.sol\":3113:3128  _nomeEscolas[i] */\n  dup2\n  mload\n  dup2\n  lt\n  tag_48\n  jumpi\n  tag_49\n  tag_50\n  jump\t// in\ntag_49:\ntag_48:\n  0x20\n  mul\n  0x20\n  add\n  add\n  mload\n    /* \"Qsito/carnaval.sol\":3074:3130  Escola({id: _currentEscolaIndex, nome: _nomeEscolas[i]}) */\n  dup2\n  mstore\n  pop\n    /* \"Qsito/carnaval.sol\":3060:3131  _escolas.push(Escola({id: _currentEscolaIndex, nome: _nomeEscolas[i]})) */\n  swap1\n  dup1\n  0x01\n  dup2\n  sload\n  add\n  dup1\n  dup3\n  sstore\n  dup1\n  swap2\n  pop\n  pop\n  0x01\n  swap1\n  sub\n  swap1\n  0x00\n  mstore\n  keccak256(0x00, 0x20)\n  swap1\n  0x02\n  mul\n  add\n  0x00\n  swap1\n  swap2\n  swap1\n  swap2\n  swap1\n  swap2\n  pop\n  0x00\n  dup3\n  add\n  mload\n  dup2\n  0x00\n  add\n  sstore\n  0x20\n  dup3\n  add\n  mload\n  dup2\n  0x01\n  add\n  swap1\n  dup2\n  tag_52\n  swap2\n  swap1\n  tag_10\n  jump\t// in\ntag_52:\n  pop\n  pop\n  pop\n    /* \"Qsito/carnaval.sol\":3146:3165  _currentEscolaIndex */\n  0x0f\n  0x00\n    /* \"Qsito/carnaval.sol\":3146:3167  _currentEscolaIndex++ */\n  dup2\n  sload\n  dup1\n  swap3\n  swap2\n  swap1\n  tag_53\n  swap1\n  tag_54\n  jump\t// in\ntag_53:\n  swap2\n  swap1\n  pop\n  sstore\n  pop\n    /* \"Qsito/carnaval.sol\":2935:2938  i++ */\n  dup1\n  dup1\n  0x01\n  add\n  swap2\n  pop\n  pop\n    /* \"Qsito/carnaval.sol\":2893:3179  for (uint i = 0; i < _nomeEscolas.length; i++) {... */\n  jump(tag_43)\ntag_44:\n  pop\n    /* \"Qsito/carnaval.sol\":3194:3226  EscolasAdicionadas(_nomeEscolas) */\n  0x1dcfb77c5edf55120b12aa71e216239cbc61cc7bcc656271af2d2ece9d005bdb\n    /* \"Qsito/carnaval.sol\":3213:3225  _nomeEscolas */\n  dup2\n    /* \"Qsito/carnaval.sol\":3194:3226  EscolasAdicionadas(_nomeEscolas) */\n  mload(0x40)\n  tag_55\n  swap2\n  swap1\n  tag_56\n  jump\t// in\ntag_55:\n  mload(0x40)\n  dup1\n  swap2\n  sub\n  swap1\n  log1\n    /* \"Qsito/carnaval.sol\":2718:3234  function addEscolas(string[] memory _nomeEscolas) private onlyOwner {... */\n  pop\n  jump\t// out\n    /* \"Qsito/carnaval.sol\":3267:3799  function addQuesitos(string[] memory _nomeQuesitos) private onlyOwner {... */\ntag_33:\n    /* \"Qsito/carnaval.sol\":1748:1753  owner */\n  0x0b\n  0x00\n  swap1\n  sload\n  swap1\n  0x0100\n  exp\n  swap1\n  div\n  0xffffffffffffffffffffffffffffffffffffffff\n  and\n    /* \"Qsito/carnaval.sol\":1734:1753  msg.sender == owner */\n  0xffffffffffffffffffffffffffffffffffffffff\n  and\n    /* \"Qsito/carnaval.sol\":1734:1744  msg.sender */\n  caller\n    /* \"Qsito/carnaval.sol\":1734:1753  msg.sender == owner */\n  0xffffffffffffffffffffffffffffffffffffffff\n  and\n  eq\n    /* \"Qsito/carnaval.sol\":1726:1789  require(msg.sender == owner, \"Acesso restrito ao proprietario\") */\n  tag_58\n  jumpi\n  mload(0x40)\n  0x08c379a000000000000000000000000000000000000000000000000000000000\n  dup2\n  mstore\n  0x04\n  add\n  tag_59\n  swap1\n  tag_38\n  jump\t// in\ntag_59:\n  mload(0x40)\n  dup1\n  swap2\n  sub\n  swap1\n  revert\ntag_58:\n    /* \"Qsito/carnaval.sol\":633:634  9 */\n  0x09\n    /* \"Qsito/carnaval.sol\":3356:3365  _quesitos */\n  0x07\n    /* \"Qsito/carnaval.sol\":3356:3372  _quesitos.length */\n  dup1\n  sload\n  swap1\n  pop\n    /* \"Qsito/carnaval.sol\":3356:3394  _quesitos.length < QUANTIDADE_QUESITOS */\n  lt\n    /* \"Qsito/carnaval.sol\":3348:3437  require(_quesitos.length < QUANTIDADE_QUESITOS, \"Quantidade maxima de quesitos atingida\") */\n  tag_61\n  jumpi\n  mload(0x40)\n  0x08c379a000000000000000000000000000000000000000000000000000000000\n  dup2\n  mstore\n  0x04\n  add\n  tag_62\n  swap1\n  tag_63\n  jump\t// in\ntag_62:\n  mload(0x40)\n  dup1\n  swap2\n  sub\n  swap1\n  revert\ntag_61:\n    /* \"Qsito/carnaval.sol\":3453:3459  uint i */\n  0x00\n    /* \"Qsito/carnaval.sol\":3462:3463  0 */\n  0x00\n    /* \"Qsito/carnaval.sol\":3453:3463  uint i = 0 */\n  swap1\n  pop\n    /* \"Qsito/carnaval.sol\":3448:3743  for (uint i = 0; i < _nomeQuesitos.length; i++) {... */\ntag_64:\n    /* \"Qsito/carnaval.sol\":3469:3482  _nomeQuesitos */\n  dup2\n    /* \"Qsito/carnaval.sol\":3469:3489  _nomeQuesitos.length */\n  mload\n    /* \"Qsito/carnaval.sol\":3465:3466  i */\n  dup2\n    /* \"Qsito/carnaval.sol\":3465:3489  i < _nomeQuesitos.length */\n  lt\n    /* \"Qsito/carnaval.sol\":3448:3743  for (uint i = 0; i < _nomeQuesitos.length; i++) {... */\n  iszero\n  tag_65\n  jumpi\n    /* \"Qsito/carnaval.sol\":633:634  9 */\n  0x09\n    /* \"Qsito/carnaval.sol\":3519:3539  _currentQuesitoIndex */\n  sload(0x10)\n    /* \"Qsito/carnaval.sol\":3519:3561  _currentQuesitoIndex < QUANTIDADE_QUESITOS */\n  lt\n    /* \"Qsito/carnaval.sol\":3511:3604  require(_currentQuesitoIndex < QUANTIDADE_QUESITOS, \"Quantidade maxima de quesitos atingida\") */\n  tag_67\n  jumpi\n  mload(0x40)\n  0x08c379a000000000000000000000000000000000000000000000000000000000\n  dup2\n  mstore\n  0x04\n  add\n  tag_68\n  swap1\n  tag_63\n  jump\t// in\ntag_68:\n  mload(0x40)\n  dup1\n  swap2\n  sub\n  swap1\n  revert\ntag_67:\n    /* \"Qsito/carnaval.sol\":3619:3628  _quesitos */\n  0x07\n    /* \"Qsito/carnaval.sol\":3634:3693  Quesito({id: _currentQuesitoIndex, nome: _nomeQuesitos[i]}) */\n  mload(0x40)\n  dup1\n  0x40\n  add\n  0x40\n  mstore\n  dup1\n    /* \"Qsito/carnaval.sol\":3647:3667  _currentQuesitoIndex */\n  sload(0x10)\n    /* \"Qsito/carnaval.sol\":3634:3693  Quesito({id: _currentQuesitoIndex, nome: _nomeQuesitos[i]}) */\n  dup2\n  mstore\n  0x20\n  add\n    /* \"Qsito/carnaval.sol\":3675:3688  _nomeQuesitos */\n  dup5\n    /* \"Qsito/carnaval.sol\":3689:3690  i */\n  dup5\n    /* \"Qsito/carnaval.sol\":3675:3691  _nomeQuesitos[i] */\n  dup2\n  mload\n  dup2\n  lt\n  tag_69\n  jumpi\n  tag_70\n  tag_50\n  jump\t// in\ntag_70:\ntag_69:\n  0x20\n  mul\n  0x20\n  add\n  add\n  mload\n    /* \"Qsito/carnaval.sol\":3634:3693  Quesito({id: _currentQuesitoIndex, nome: _nomeQuesitos[i]}) */\n  dup2\n  mstore\n  pop\n    /* \"Qsito/carnaval.sol\":3619:3694  _quesitos.push(Quesito({id: _currentQuesitoIndex, nome: _nomeQuesitos[i]})) */\n  swap1\n  dup1\n  0x01\n  dup2\n  sload\n  add\n  dup1\n  dup3\n  sstore\n  dup1\n  swap2\n  pop\n  pop\n  0x01\n  swap1\n  sub\n  swap1\n  0x00\n  mstore\n  keccak256(0x00, 0x20)\n  swap1\n  0x02\n  mul\n  add\n  0x00\n  swap1\n  swap2\n  swap1\n  swap2\n  swap1\n  swap2\n  pop\n  0x00\n  dup3\n  add\n  mload\n  dup2\n  0x00\n  add\n  sstore\n  0x20\n  dup3\n  add\n  mload\n  dup2\n  0x01\n  add\n  swap1\n  dup2\n  tag_72\n  swap2\n  swap1\n  tag_10\n  jump\t// in\ntag_72:\n  pop\n  pop\n  pop\n    /* \"Qsito/carnaval.sol\":3709:3729  _currentQuesitoIndex */\n  0x10\n  0x00\n    /* \"Qsito/carnaval.sol\":3709:3731  _currentQuesitoIndex++ */\n  dup2\n  sload\n  dup1\n  swap3\n  swap2\n  swap1\n  tag_73\n  swap1\n  tag_54\n  jump\t// in\ntag_73:\n  swap2\n  swap1\n  pop\n  sstore\n  pop\n    /* \"Qsito/carnaval.sol\":3491:3494  i++ */\n  dup1\n  dup1\n  0x01\n  add\n  swap2\n  pop\n  pop\n    /* \"Qsito/carnaval.sol\":3448:3743  for (uint i = 0; i < _nomeQuesitos.length; i++) {... */\n  jump(tag_64)\ntag_65:\n  pop\n    /* \"Qsito/carnaval.sol\":3758:3791  QuesitoAdicionados(_nomeQuesitos) */\n  0x25aa31c0be750cc5e6616917e1209c38b8643a142814e500d1eb8fc63270fe55\n    /* \"Qsito/carnaval.sol\":3777:3790  _nomeQuesitos */\n  dup2\n    /* \"Qsito/carnaval.sol\":3758:3791  QuesitoAdicionados(_nomeQuesitos) */\n  mload(0x40)\n  tag_74\n  swap2\n  swap1\n  tag_56\n  jump\t// in\ntag_74:\n  mload(0x40)\n  dup1\n  swap2\n  sub\n  swap1\n  log1\n    /* \"Qsito/carnaval.sol\":3267:3799  function addQuesitos(string[] memory _nomeQuesitos) private onlyOwner {... */\n  pop\n  jump\t// out\n    /* \"Qsito/carnaval.sol\":119:5676  contract CarnavalScores is ERC20 {... */\ntag_2:\n  dup3\n  dup1\n  sload\n  dup3\n  dup3\n  sstore\n  swap1\n  0x00\n  mstore\n  keccak256(0x00, 0x20)\n  swap1\n  dup2\n  add\n  swap3\n  dup3\n  iszero\n  tag_75\n  jumpi\n  swap2\n  0x20\n  mul\n  dup3\n  add\ntag_76:\n  dup3\n  dup2\n  gt\n  iszero\n  tag_77\n  jumpi\n  dup3\n  mload\n  dup3\n  swap1\n  dup2\n  tag_78\n  swap2\n  swap1\n  tag_10\n  jump\t// in\ntag_78:\n  pop\n  swap2\n  0x20\n  add\n  swap2\n  swap1\n  0x01\n  add\n  swap1\n  jump(tag_76)\ntag_77:\ntag_75:\n  pop\n  swap1\n  pop\n  tag_79\n  swap2\n  swap1\n  tag_80\n  jump\t// in\ntag_79:\n  pop\n  swap1\n  jump\t// out\ntag_4:\n  dup3\n  dup1\n  sload\n  dup3\n  dup3\n  sstore\n  swap1\n  0x00\n  mstore\n  keccak256(0x00, 0x20)\n  swap1\n  dup2\n  add\n  swap3\n  dup3\n  iszero\n  tag_81\n  jumpi\n  swap2\n  0x20\n  mul\n  dup3\n  add\ntag_82:\n  dup3\n  dup2\n  gt\n  iszero\n  tag_83\n  jumpi\n  dup3\n  mload\n  dup3\n  swap1\n  dup2\n  tag_84\n  swap2\n  swap1\n  tag_10\n  jump\t// in\ntag_84:\n  pop\n  swap2\n  0x20\n  add\n  swap2\n  swap1\n  0x01\n  add\n  swap1\n  jump(tag_82)\ntag_83:\ntag_81:\n  pop\n  swap1\n  pop\n  tag_85\n  swap2\n  swap1\n  tag_80\n  jump\t// in\ntag_85:\n  pop\n  swap1\n  jump\t// out\ntag_80:\ntag_86:\n  dup1\n  dup3\n  gt\n  iszero\n  tag_87\n  jumpi\n  0x00\n  dup2\n  dup2\n  tag_88\n  swap2\n  swap1\n  tag_89\n  jump\t// in\ntag_88:\n  pop\n  0x01\n  add\n  jump(tag_86)\ntag_87:\n  pop\n  swap1\n  jump\t// out\ntag_89:\n  pop\n  dup1\n  sload\n  tag_90\n  swap1\n  tag_18\n  jump\t// in\ntag_90:\n  0x00\n  dup3\n  sstore\n  dup1\n  0x1f\n  lt\n  tag_92\n  jumpi\n  pop\n  jump(tag_91)\ntag_92:\n  0x1f\n  add\n  0x20\n  swap1\n  div\n  swap1\n  0x00\n  mstore\n  keccak256(0x00, 0x20)\n  swap1\n  dup2\n  add\n  swap1\n  tag_93\n  swap2\n  swap1\n  tag_94\n  jump\t// in\ntag_93:\ntag_91:\n  pop\n  jump\t// out\ntag_94:\ntag_95:\n  dup1\n  dup3\n  gt\n  iszero\n  tag_96\n  jumpi\n  0x00\n  dup2\n  0x00\n  swap1\n  sstore\n  pop\n  0x01\n  add\n  jump(tag_95)\ntag_96:\n  pop\n  swap1\n  jump\t// out\n    /* \"#utility.yul\":7:106   */\ntag_97:\n    /* \"#utility.yul\":59:65   */\n  0x00\n    /* \"#utility.yul\":93:98   */\n  dup2\n    /* \"#utility.yul\":87:99   */\n  mload\n    /* \"#utility.yul\":77:99   */\n  swap1\n  pop\n    /* \"#utility.yul\":7:106   */\n  swap2\n  swap1\n  pop\n  jump\t// out\n    /* \"#utility.yul\":112:292   */\ntag_98:\n    /* \"#utility.yul\":160:237   */\n  0x4e487b7100000000000000000000000000000000000000000000000000000000\n    /* \"#utility.yul\":157:158   */\n  0x00\n    /* \"#utility.yul\":150:238   */\n  mstore\n    /* \"#utility.yul\":257:261   */\n  0x41\n    /* \"#utility.yul\":254:255   */\n  0x04\n    /* \"#utility.yul\":247:262   */\n  mstore\n    /* \"#utility.yul\":281:285   */\n  0x24\n    /* \"#utility.yul\":278:279   */\n  0x00\n    /* \"#utility.yul\":271:286   */\n  revert\n    /* \"#utility.yul\":298:478   */\ntag_99:\n    /* \"#utility.yul\":346:423   */\n  0x4e487b7100000000000000000000000000000000000000000000000000000000\n    /* \"#utility.yul\":343:344   */\n  0x00\n    /* \"#utility.yul\":336:424   */\n  mstore\n    /* \"#utility.yul\":443:447   */\n  0x22\n    /* \"#utility.yul\":440:441   */\n  0x04\n    /* \"#utility.yul\":433:448   */\n  mstore\n    /* \"#utility.yul\":467:471   */\n  0x24\n    /* \"#utility.yul\":464:465   */\n  0x00\n    /* \"#utility.yul\":457:472   */\n  revert\n    /* \"#utility.yul\":484:804   */\ntag_18:\n    /* \"#utility.yul\":528:534   */\n  0x00\n    /* \"#utility.yul\":565:566   */\n  0x02\n    /* \"#utility.yul\":559:563   */\n  dup3\n    /* \"#utility.yul\":555:567   */\n  div\n    /* \"#utility.yul\":545:567   */\n  swap1\n  pop\n    /* \"#utility.yul\":612:613   */\n  0x01\n    /* \"#utility.yul\":606:610   */\n  dup3\n    /* \"#utility.yul\":602:614   */\n  and\n    /* \"#utility.yul\":633:651   */\n  dup1\n    /* \"#utility.yul\":623:704   */\n  tag_139\n  jumpi\n    /* \"#utility.yul\":689:693   */\n  0x7f\n    /* \"#utility.yul\":681:687   */\n  dup3\n    /* \"#utility.yul\":677:694   */\n  and\n    /* \"#utility.yul\":667:694   */\n  swap2\n  pop\n    /* \"#utility.yul\":623:704   */\ntag_139:\n    /* \"#utility.yul\":751:753   */\n  0x20\n    /* \"#utility.yul\":743:749   */\n  dup3\n    /* \"#utility.yul\":740:754   */\n  lt\n    /* \"#utility.yul\":720:738   */\n  dup2\n    /* \"#utility.yul\":717:755   */\n  sub\n    /* \"#utility.yul\":714:798   */\n  tag_140\n  jumpi\n    /* \"#utility.yul\":770:788   */\n  tag_141\n  tag_99\n  jump\t// in\ntag_141:\n    /* \"#utility.yul\":714:798   */\ntag_140:\n    /* \"#utility.yul\":535:804   */\n  pop\n    /* \"#utility.yul\":484:804   */\n  swap2\n  swap1\n  pop\n  jump\t// out\n    /* \"#utility.yul\":810:951   */\ntag_100:\n    /* \"#utility.yul\":859:863   */\n  0x00\n    /* \"#utility.yul\":882:885   */\n  dup2\n    /* \"#utility.yul\":874:885   */\n  swap1\n  pop\n    /* \"#utility.yul\":905:908   */\n  dup2\n    /* \"#utility.yul\":902:903   */\n  0x00\n    /* \"#utility.yul\":895:909   */\n  mstore\n    /* \"#utility.yul\":939:943   */\n  0x20\n    /* \"#utility.yul\":936:937   */\n  0x00\n    /* \"#utility.yul\":926:944   */\n  keccak256\n    /* \"#utility.yul\":918:944   */\n  swap1\n  pop\n    /* \"#utility.yul\":810:951   */\n  swap2\n  swap1\n  pop\n  jump\t// out\n    /* \"#utility.yul\":957:1050   */\ntag_101:\n    /* \"#utility.yul\":994:1000   */\n  0x00\n    /* \"#utility.yul\":1041:1043   */\n  0x20\n    /* \"#utility.yul\":1036:1038   */\n  0x1f\n    /* \"#utility.yul\":1029:1034   */\n  dup4\n    /* \"#utility.yul\":1025:1039   */\n  add\n    /* \"#utility.yul\":1021:1044   */\n  div\n    /* \"#utility.yul\":1011:1044   */\n  swap1\n  pop\n    /* \"#utility.yul\":957:1050   */\n  swap2\n  swap1\n  pop\n  jump\t// out\n    /* \"#utility.yul\":1056:1163   */\ntag_102:\n    /* \"#utility.yul\":1100:1108   */\n  0x00\n    /* \"#utility.yul\":1150:1155   */\n  dup3\n    /* \"#utility.yul\":1144:1148   */\n  dup3\n    /* \"#utility.yul\":1140:1156   */\n  shl\n    /* \"#utility.yul\":1119:1156   */\n  swap1\n  pop\n    /* \"#utility.yul\":1056:1163   */\n  swap3\n  swap2\n  pop\n  pop\n  jump\t// out\n    /* \"#utility.yul\":1169:1562   */\ntag_103:\n    /* \"#utility.yul\":1238:1244   */\n  0x00\n    /* \"#utility.yul\":1288:1289   */\n  0x08\n    /* \"#utility.yul\":1276:1286   */\n  dup4\n    /* \"#utility.yul\":1272:1290   */\n  mul\n    /* \"#utility.yul\":1311:1408   */\n  tag_146\n    /* \"#utility.yul\":1341:1407   */\n  0xffffffffffffffffffffffffffffffffffffffffffffffffffffffffffffffff\n    /* \"#utility.yul\":1330:1339   */\n  dup3\n    /* \"#utility.yul\":1311:1408   */\n  tag_102\n  jump\t// in\ntag_146:\n    /* \"#utility.yul\":1429:1468   */\n  tag_147\n    /* \"#utility.yul\":1459:1467   */\n  dup7\n    /* \"#utility.yul\":1448:1457   */\n  dup4\n    /* \"#utility.yul\":1429:1468   */\n  tag_102\n  jump\t// in\ntag_147:\n    /* \"#utility.yul\":1417:1468   */\n  swap6\n  pop\n    /* \"#utility.yul\":1501:1505   */\n  dup1\n    /* \"#utility.yul\":1497:1506   */\n  not\n    /* \"#utility.yul\":1490:1495   */\n  dup5\n    /* \"#utility.yul\":1486:1507   */\n  and\n    /* \"#utility.yul\":1477:1507   */\n  swap4\n  pop\n    /* \"#utility.yul\":1550:1554   */\n  dup1\n    /* \"#utility.yul\":1540:1548   */\n  dup7\n    /* \"#utility.yul\":1536:1555   */\n  and\n    /* \"#utility.yul\":1529:1534   */\n  dup5\n    /* \"#utility.yul\":1526:1556   */\n  or\n    /* \"#utility.yul\":1516:1556   */\n  swap3\n  pop\n    /* \"#utility.yul\":1245:1562   */\n  pop\n  pop\n    /* \"#utility.yul\":1169:1562   */\n  swap4\n  swap3\n  pop\n  pop\n  pop\n  jump\t// out\n    /* \"#utility.yul\":1568:1645   */\ntag_104:\n    /* \"#utility.yul\":1605:1612   */\n  0x00\n    /* \"#utility.yul\":1634:1639   */\n  dup2\n    /* \"#utility.yul\":1623:1639   */\n  swap1\n  pop\n    /* \"#utility.yul\":1568:1645   */\n  swap2\n  swap1\n  pop\n  jump\t// out\n    /* \"#utility.yul\":1651:1711   */\ntag_105:\n    /* \"#utility.yul\":1679:1682   */\n  0x00\n    /* \"#utility.yul\":1700:1705   */\n  dup2\n    /* \"#utility.yul\":1693:1705   */\n  swap1\n  pop\n    /* \"#utility.yul\":1651:1711   */\n  swap2\n  swap1\n  pop\n  jump\t// out\n    /* \"#utility.yul\":1717:1859   */\ntag_106:\n    /* \"#utility.yul\":1767:1776   */\n  0x00\n    /* \"#utility.yul\":1800:1853   */\n  tag_151\n    /* \"#utility.yul\":1818:1852   */\n  tag_152\n    /* \"#utility.yul\":1827:1851   */\n  tag_153\n    /* \"#utility.yul\":1845:1850   */\n  dup5\n    /* \"#utility.yul\":1827:1851   */\n  tag_104\n  jump\t// in\ntag_153:\n    /* \"#utility.yul\":1818:1852   */\n  tag_105\n  jump\t// in\ntag_152:\n    /* \"#utility.yul\":1800:1853   */\n  tag_104\n  jump\t// in\ntag_151:\n    /* \"#utility.yul\":1787:1853   */\n  swap1\n  pop\n    /* \"#utility.yul\":1717:1859   */\n  swap2\n  swap1\n  pop\n  jump\t// out\n    /* \"#utility.yul\":1865:1940   */\ntag_107:\n    /* \"#utility.yul\":1908:1911   */\n  0x00\n    /* \"#utility.yul\":1929:1934   */\n  dup2\n    /* \"#utility.yul\":1922:1934   */\n  swap1\n  pop\n    /* \"#utility.yul\":1865:1940   */\n  swap2\n  swap1\n  pop\n  jump\t// out\n    /* \"#utility.yul\":1946:2215   */\ntag_108:\n    /* \"#utility.yul\":2056:2095   */\n  tag_156\n    /* \"#utility.yul\":2087:2094   */\n  dup4\n    /* \"#utility.yul\":2056:2095   */\n  tag_106\n  jump\t// in\ntag_156:\n    /* \"#utility.yul\":2117:2208   */\n  tag_157\n    /* \"#utility.yul\":2166:2207   */\n  tag_158\n    /* \"#utility.yul\":2190:2206   */\n  dup3\n    /* \"#utility.yul\":2166:2207   */\n  tag_107\n  jump\t// in\ntag_158:\n    /* \"#utility.yul\":2158:2164   */\n  dup5\n    /* \"#utility.yul\":2151:2155   */\n  dup5\n    /* \"#utility.yul\":2145:2156   */\n  sload\n    /* \"#utility.yul\":2117:2208   */\n  tag_103\n  jump\t// in\ntag_157:\n    /* \"#utility.yul\":2111:2115   */\n  dup3\n    /* \"#utility.yul\":2104:2209   */\n  sstore\n    /* \"#utility.yul\":2022:2215   */\n  pop\n    /* \"#utility.yul\":1946:2215   */\n  pop\n  pop\n  pop\n  jump\t// out\n    /* \"#utility.yul\":2221:2294   */\ntag_109:\n    /* \"#utility.yul\":2266:2269   */\n  0x00\n    /* \"#utility.yul\":2287:2288   */\n  0x00\n    /* \"#utility.yul\":2280:2288   */\n  swap1\n  pop\n    /* \"#utility.yul\":2221:2294   */\n  swap1\n  jump\t// out\n    /* \"#utility.yul\":2300:2489   */\ntag_110:\n    /* \"#utility.yul\":2377:2409   */\n  tag_161\n  tag_109\n  jump\t// in\ntag_161:\n    /* \"#utility.yul\":2418:2483   */\n  tag_162\n    /* \"#utility.yul\":2476:2482   */\n  dup2\n    /* \"#utility.yul\":2468:2474   */\n  dup5\n    /* \"#utility.yul\":2462:2466   */\n  dup5\n    /* \"#utility.yul\":2418:2483   */\n  tag_108\n  jump\t// in\ntag_162:\n    /* \"#utility.yul\":2353:2489   */\n  pop\n    /* \"#utility.yul\":2300:2489   */\n  pop\n  pop\n  jump\t// out\n    /* \"#utility.yul\":2495:2681   */\ntag_111:\n    /* \"#utility.yul\":2555:2675   */\ntag_164:\n    /* \"#utility.yul\":2572:2575   */\n  dup2\n    /* \"#utility.yul\":2565:2570   */\n  dup2\n    /* \"#utility.yul\":2562:2576   */\n  lt\n    /* \"#utility.yul\":2555:2675   */\n  iszero\n  tag_166\n  jumpi\n    /* \"#utility.yul\":2626:2665   */\n  tag_167\n    /* \"#utility.yul\":2663:2664   */\n  0x00\n    /* \"#utility.yul\":2656:2661   */\n  dup3\n    /* \"#utility.yul\":2626:2665   */\n  tag_110\n  jump\t// in\ntag_167:\n    /* \"#utility.yul\":2599:2600   */\n  0x01\n    /* \"#utility.yul\":2592:2597   */\n  dup2\n    /* \"#utility.yul\":2588:2601   */\n  add\n    /* \"#utility.yul\":2579:2601   */\n  swap1\n  pop\n    /* \"#utility.yul\":2555:2675   */\n  jump(tag_164)\ntag_166:\n    /* \"#utility.yul\":2495:2681   */\n  pop\n  pop\n  jump\t// out\n    /* \"#utility.yul\":2687:3230   */\ntag_112:\n    /* \"#utility.yul\":2788:2790   */\n  0x1f\n    /* \"#utility.yul\":2783:2786   */\n  dup3\n    /* \"#utility.yul\":2780:2791   */\n  gt\n    /* \"#utility.yul\":2777:3223   */\n  iszero\n  tag_169\n  jumpi\n    /* \"#utility.yul\":2822:2860   */\n  tag_170\n    /* \"#utility.yul\":2854:2859   */\n  dup2\n    /* \"#utility.yul\":2822:2860   */\n  tag_100\n  jump\t// in\ntag_170:\n    /* \"#utility.yul\":2906:2935   */\n  tag_171\n    /* \"#utility.yul\":2924:2934   */\n  dup5\n    /* \"#utility.yul\":2906:2935   */\n  tag_101\n  jump\t// in\ntag_171:\n    /* \"#utility.yul\":2896:2904   */\n  dup2\n    /* \"#utility.yul\":2892:2936   */\n  add\n    /* \"#utility.yul\":3089:3091   */\n  0x20\n    /* \"#utility.yul\":3077:3087   */\n  dup6\n    /* \"#utility.yul\":3074:3092   */\n  lt\n    /* \"#utility.yul\":3071:3120   */\n  iszero\n  tag_172\n  jumpi\n    /* \"#utility.yul\":3110:3118   */\n  dup2\n    /* \"#utility.yul\":3095:3118   */\n  swap1\n  pop\n    /* \"#utility.yul\":3071:3120   */\ntag_172:\n    /* \"#utility.yul\":3133:3213   */\n  tag_173\n    /* \"#utility.yul\":3189:3211   */\n  tag_174\n    /* \"#utility.yul\":3207:3210   */\n  dup6\n    /* \"#utility.yul\":3189:3211   */\n  tag_101\n  jump\t// in\ntag_174:\n    /* \"#utility.yul\":3179:3187   */\n  dup4\n    /* \"#utility.yul\":3175:3212   */\n  add\n    /* \"#utility.yul\":3162:3173   */\n  dup3\n    /* \"#utility.yul\":3133:3213   */\n  tag_111\n  jump\t// in\ntag_173:\n    /* \"#utility.yul\":2792:3223   */\n  pop\n  pop\n    /* \"#utility.yul\":2777:3223   */\ntag_169:\n    /* \"#utility.yul\":2687:3230   */\n  pop\n  pop\n  pop\n  jump\t// out\n    /* \"#utility.yul\":3236:3353   */\ntag_113:\n    /* \"#utility.yul\":3290:3298   */\n  0x00\n    /* \"#utility.yul\":3340:3345   */\n  dup3\n    /* \"#utility.yul\":3334:3338   */\n  dup3\n    /* \"#utility.yul\":3330:3346   */\n  shr\n    /* \"#utility.yul\":3309:3346   */\n  swap1\n  pop\n    /* \"#utility.yul\":3236:3353   */\n  swap3\n  swap2\n  pop\n  pop\n  jump\t// out\n    /* \"#utility.yul\":3359:3528   */\ntag_114:\n    /* \"#utility.yul\":3403:3409   */\n  0x00\n    /* \"#utility.yul\":3436:3487   */\n  tag_177\n    /* \"#utility.yul\":3484:3485   */\n  0x00\n    /* \"#utility.yul\":3480:3486   */\n  not\n    /* \"#utility.yul\":3472:3477   */\n  dup5\n    /* \"#utility.yul\":3469:3470   */\n  0x08\n    /* \"#utility.yul\":3465:3478   */\n  mul\n    /* \"#utility.yul\":3436:3487   */\n  tag_113\n  jump\t// in\ntag_177:\n    /* \"#utility.yul\":3432:3488   */\n  not\n    /* \"#utility.yul\":3517:3521   */\n  dup1\n    /* \"#utility.yul\":3511:3515   */\n  dup4\n    /* \"#utility.yul\":3507:3522   */\n  and\n    /* \"#utility.yul\":3497:3522   */\n  swap2\n  pop\n    /* \"#utility.yul\":3410:3528   */\n  pop\n    /* \"#utility.yul\":3359:3528   */\n  swap3\n  swap2\n  pop\n  pop\n  jump\t// out\n    /* \"#utility.yul\":3533:3828   */\ntag_115:\n    /* \"#utility.yul\":3609:3613   */\n  0x00\n    /* \"#utility.yul\":3755:3784   */\n  tag_179\n    /* \"#utility.yul\":3780:3783   */\n  dup4\n    /* \"#utility.yul\":3774:3778   */\n  dup4\n    /* \"#utility.yul\":3755:3784   */\n  tag_114\n  jump\t// in\ntag_179:\n    /* \"#utility.yul\":3747:3784   */\n  swap2\n  pop\n    /* \"#utility.yul\":3817:3820   */\n  dup3\n    /* \"#utility.yul\":3814:3815   */\n  0x02\n    /* \"#utility.yul\":3810:3821   */\n  mul\n    /* \"#utility.yul\":3804:3808   */\n  dup3\n    /* \"#utility.yul\":3801:3822   */\n  or\n    /* \"#utility.yul\":3793:3822   */\n  swap1\n  pop\n    /* \"#utility.yul\":3533:3828   */\n  swap3\n  swap2\n  pop\n  pop\n  jump\t// out\n    /* \"#utility.yul\":3833:5228   */\ntag_10:\n    /* \"#utility.yul\":3950:3987   */\n  tag_181\n    /* \"#utility.yul\":3983:3986   */\n  dup3\n    /* \"#utility.yul\":3950:3987   */\n  tag_97\n  jump\t// in\ntag_181:\n    /* \"#utility.yul\":4052:4070   */\n  0xffffffffffffffff\n    /* \"#utility.yul\":4044:4050   */\n  dup2\n    /* \"#utility.yul\":4041:4071   */\n  gt\n    /* \"#utility.yul\":4038:4094   */\n  iszero\n  tag_182\n  jumpi\n    /* \"#utility.yul\":4074:4092   */\n  tag_183\n  tag_98\n  jump\t// in\ntag_183:\n    /* \"#utility.yul\":4038:4094   */\ntag_182:\n    /* \"#utility.yul\":4118:4156   */\n  tag_184\n    /* \"#utility.yul\":4150:4154   */\n  dup3\n    /* \"#utility.yul\":4144:4155   */\n  sload\n    /* \"#utility.yul\":4118:4156   */\n  tag_18\n  jump\t// in\ntag_184:\n    /* \"#utility.yul\":4203:4270   */\n  tag_185\n    /* \"#utility.yul\":4263:4269   */\n  dup3\n    /* \"#utility.yul\":4255:4261   */\n  dup3\n    /* \"#utility.yul\":4249:4253   */\n  dup6\n    /* \"#utility.yul\":4203:4270   */\n  tag_112\n  jump\t// in\ntag_185:\n    /* \"#utility.yul\":4297:4298   */\n  0x00\n    /* \"#utility.yul\":4321:4325   */\n  0x20\n    /* \"#utility.yul\":4308:4325   */\n  swap1\n  pop\n    /* \"#utility.yul\":4353:4355   */\n  0x1f\n    /* \"#utility.yul\":4345:4351   */\n  dup4\n    /* \"#utility.yul\":4342:4356   */\n  gt\n    /* \"#utility.yul\":4370:4371   */\n  0x01\n    /* \"#utility.yul\":4365:4983   */\n  dup2\n  eq\n  tag_187\n  jumpi\n    /* \"#utility.yul\":5027:5028   */\n  0x00\n    /* \"#utility.yul\":5044:5050   */\n  dup5\n    /* \"#utility.yul\":5041:5118   */\n  iszero\n  tag_188\n  jumpi\n    /* \"#utility.yul\":5093:5102   */\n  dup3\n    /* \"#utility.yul\":5088:5091   */\n  dup8\n    /* \"#utility.yul\":5084:5103   */\n  add\n    /* \"#utility.yul\":5078:5104   */\n  mload\n    /* \"#utility.yul\":5069:5104   */\n  swap1\n  pop\n    /* \"#utility.yul\":5041:5118   */\ntag_188:\n    /* \"#utility.yul\":5144:5211   */\n  tag_189\n    /* \"#utility.yul\":5204:5210   */\n  dup6\n    /* \"#utility.yul\":5197:5202   */\n  dup3\n    /* \"#utility.yul\":5144:5211   */\n  tag_115\n  jump\t// in\ntag_189:\n    /* \"#utility.yul\":5138:5142   */\n  dup7\n    /* \"#utility.yul\":5131:5212   */\n  sstore\n    /* \"#utility.yul\":5000:5222   */\n  pop\n    /* \"#utility.yul\":4335:5222   */\n  jump(tag_186)\n    /* \"#utility.yul\":4365:4983   */\ntag_187:\n    /* \"#utility.yul\":4417:4421   */\n  0x1f\n    /* \"#utility.yul\":4413:4422   */\n  not\n    /* \"#utility.yul\":4405:4411   */\n  dup5\n    /* \"#utility.yul\":4401:4423   */\n  and\n    /* \"#utility.yul\":4451:4488   */\n  tag_190\n    /* \"#utility.yul\":4483:4487   */\n  dup7\n    /* \"#utility.yul\":4451:4488   */\n  tag_100\n  jump\t// in\ntag_190:\n    /* \"#utility.yul\":4510:4511   */\n  0x00\n    /* \"#utility.yul\":4524:4732   */\ntag_191:\n    /* \"#utility.yul\":4538:4545   */\n  dup3\n    /* \"#utility.yul\":4535:4536   */\n  dup2\n    /* \"#utility.yul\":4532:4546   */\n  lt\n    /* \"#utility.yul\":4524:4732   */\n  iszero\n  tag_193\n  jumpi\n    /* \"#utility.yul\":4617:4626   */\n  dup5\n    /* \"#utility.yul\":4612:4615   */\n  dup10\n    /* \"#utility.yul\":4608:4627   */\n  add\n    /* \"#utility.yul\":4602:4628   */\n  mload\n    /* \"#utility.yul\":4594:4600   */\n  dup3\n    /* \"#utility.yul\":4587:4629   */\n  sstore\n    /* \"#utility.yul\":4668:4669   */\n  0x01\n    /* \"#utility.yul\":4660:4666   */\n  dup3\n    /* \"#utility.yul\":4656:4670   */\n  add\n    /* \"#utility.yul\":4646:4670   */\n  swap2\n  pop\n    /* \"#utility.yul\":4715:4717   */\n  0x20\n    /* \"#utility.yul\":4704:4713   */\n  dup6\n    /* \"#utility.yul\":4700:4718   */\n  add\n    /* \"#utility.yul\":4687:4718   */\n  swap5\n  pop\n    /* \"#utility.yul\":4561:4565   */\n  0x20\n    /* \"#utility.yul\":4558:4559   */\n  dup2\n    /* \"#utility.yul\":4554:4566   */\n  add\n    /* \"#utility.yul\":4549:4566   */\n  swap1\n  pop\n    /* \"#utility.yul\":4524:4732   */\n  jump(tag_191)\ntag_193:\n    /* \"#utility.yul\":4760:4766   */\n  dup7\n    /* \"#utility.yul\":4751:4758   */\n  dup4\n    /* \"#utility.yul\":4748:4767   */\n  lt\n    /* \"#utility.yul\":4745:4924   */\n  iszero\n  tag_194\n  jumpi\n    /* \"#utility.yul\":4818:4827   */\n  dup5\n    /* \"#utility.yul\":4813:4816   */\n  dup10\n    /* \"#utility.yul\":4809:4828   */\n  add\n    /* \"#utility.yul\":4803:4829   */\n  mload\n    /* \"#utility.yul\":4861:4909   */\n  tag_195\n    /* \"#utility.yul\":4903:4907   */\n  0x1f\n    /* \"#utility.yul\":4895:4901   */\n  dup10\n    /* \"#utility.yul\":4891:4908   */\n  and\n    /* \"#utility.yul\":4880:4889   */\n  dup3\n    /* \"#utility.yul\":4861:4909   */\n  tag_114\n  jump\t// in\ntag_195:\n    /* \"#utility.yul\":4853:4859   */\n  dup4\n    /* \"#utility.yul\":4846:4910   */\n  sstore\n    /* \"#utility.yul\":4768:4924   */\n  pop\n    /* \"#utility.yul\":4745:4924   */\ntag_194:\n    /* \"#utility.yul\":4970:4971   */\n  0x01\n    /* \"#utility.yul\":4966:4967   */\n  0x02\n    /* \"#utility.yul\":4958:4964   */\n  dup9\n    /* \"#utility.yul\":4954:4968   */\n  mul\n    /* \"#utility.yul\":4950:4972   */\n  add\n    /* \"#utility.yul\":4944:4948   */\n  dup9\n    /* \"#utility.yul\":4937:4973   */\n  sstore\n    /* \"#utility.yul\":4372:4983   */\n  pop\n  pop\n  pop\n    /* \"#utility.yul\":4335:5222   */\ntag_186:\n  pop\n    /* \"#utility.yul\":3925:5228   */\n  pop\n  pop\n  pop\n    /* \"#utility.yul\":3833:5228   */\n  pop\n  pop\n  jump\t// out\n    /* \"#utility.yul\":5234:5403   */\ntag_116:\n    /* \"#utility.yul\":5318:5329   */\n  0x00\n    /* \"#utility.yul\":5352:5358   */\n  dup3\n    /* \"#utility.yul\":5347:5350   */\n  dup3\n    /* \"#utility.yul\":5340:5359   */\n  mstore\n    /* \"#utility.yul\":5392:5396   */\n  0x20\n    /* \"#utility.yul\":5387:5390   */\n  dup3\n    /* \"#utility.yul\":5383:5397   */\n  add\n    /* \"#utility.yul\":5368:5397   */\n  swap1\n  pop\n    /* \"#utility.yul\":5234:5403   */\n  swap3\n  swap2\n  pop\n  pop\n  jump\t// out\n    /* \"#utility.yul\":5409:5590   */\ntag_117:\n    /* \"#utility.yul\":5549:5582   */\n  0x41636573736f20726573747269746f20616f2070726f70726965746172696f00\n    /* \"#utility.yul\":5545:5546   */\n  0x00\n    /* \"#utility.yul\":5537:5543   */\n  dup3\n    /* \"#utility.yul\":5533:5547   */\n  add\n    /* \"#utility.yul\":5526:5583   */\n  mstore\n    /* \"#utility.yul\":5409:5590   */\n  pop\n  jump\t// out\n    /* \"#utility.yul\":5596:5962   */\ntag_118:\n    /* \"#utility.yul\":5738:5741   */\n  0x00\n    /* \"#utility.yul\":5759:5826   */\n  tag_199\n    /* \"#utility.yul\":5823:5825   */\n  0x1f\n    /* \"#utility.yul\":5818:5821   */\n  dup4\n    /* \"#utility.yul\":5759:5826   */\n  tag_116\n  jump\t// in\ntag_199:\n    /* \"#utility.yul\":5752:5826   */\n  swap2\n  pop\n    /* \"#utility.yul\":5835:5928   */\n  tag_200\n    /* \"#utility.yul\":5924:5927   */\n  dup3\n    /* \"#utility.yul\":5835:5928   */\n  tag_117\n  jump\t// in\ntag_200:\n    /* \"#utility.yul\":5953:5955   */\n  0x20\n    /* \"#utility.yul\":5948:5951   */\n  dup3\n    /* \"#utility.yul\":5944:5956   */\n  add\n    /* \"#utility.yul\":5937:5956   */\n  swap1\n  pop\n    /* \"#utility.yul\":5596:5962   */\n  swap2\n  swap1\n  pop\n  jump\t// out\n    /* \"#utility.yul\":5968:6387   */\ntag_38:\n    /* \"#utility.yul\":6134:6138   */\n  0x00\n    /* \"#utility.yul\":6172:6174   */\n  0x20\n    /* \"#utility.yul\":6161:6170   */\n  dup3\n    /* \"#utility.yul\":6157:6175   */\n  add\n    /* \"#utility.yul\":6149:6175   */\n  swap1\n  pop\n    /* \"#utility.yul\":6221:6230   */\n  dup2\n    /* \"#utility.yul\":6215:6219   */\n  dup2\n    /* \"#utility.yul\":6211:6231   */\n  sub\n    /* \"#utility.yul\":6207:6208   */\n  0x00\n    /* \"#utility.yul\":6196:6205   */\n  dup4\n    /* \"#utility.yul\":6192:6209   */\n  add\n    /* \"#utility.yul\":6185:6232   */\n  mstore\n    /* \"#utility.yul\":6249:6380   */\n  tag_202\n    /* \"#utility.yul\":6375:6379   */\n  dup2\n    /* \"#utility.yul\":6249:6380   */\n  tag_118\n  jump\t// in\ntag_202:\n    /* \"#utility.yul\":6241:6380   */\n  swap1\n  pop\n    /* \"#utility.yul\":5968:6387   */\n  swap2\n  swap1\n  pop\n  jump\t// out\n    /* \"#utility.yul\":6393:6617   */\ntag_119:\n    /* \"#utility.yul\":6533:6567   */\n  0x5175616e746964616465206d6178696d61206465206573636f6c617320617469\n    /* \"#utility.yul\":6529:6530   */\n  0x00\n    /* \"#utility.yul\":6521:6527   */\n  dup3\n    /* \"#utility.yul\":6517:6531   */\n  add\n    /* \"#utility.yul\":6510:6568   */\n  mstore\n    /* \"#utility.yul\":6602:6609   */\n  0x6e67696461000000000000000000000000000000000000000000000000000000\n    /* \"#utility.yul\":6597:6599   */\n  0x20\n    /* \"#utility.yul\":6589:6595   */\n  dup3\n    /* \"#utility.yul\":6585:6600   */\n  add\n    /* \"#utility.yul\":6578:6610   */\n  mstore\n    /* \"#utility.yul\":6393:6617   */\n  pop\n  jump\t// out\n    /* \"#utility.yul\":6623:6989   */\ntag_120:\n    /* \"#utility.yul\":6765:6768   */\n  0x00\n    /* \"#utility.yul\":6786:6853   */\n  tag_205\n    /* \"#utility.yul\":6850:6852   */\n  0x25\n    /* \"#utility.yul\":6845:6848   */\n  dup4\n    /* \"#utility.yul\":6786:6853   */\n  tag_116\n  jump\t// in\ntag_205:\n    /* \"#utility.yul\":6779:6853   */\n  swap2\n  pop\n    /* \"#utility.yul\":6862:6955   */\n  tag_206\n    /* \"#utility.yul\":6951:6954   */\n  dup3\n    /* \"#utility.yul\":6862:6955   */\n  tag_119\n  jump\t// in\ntag_206:\n    /* \"#utility.yul\":6980:6982   */\n  0x40\n    /* \"#utility.yul\":6975:6978   */\n  dup3\n    /* \"#utility.yul\":6971:6983   */\n  add\n    /* \"#utility.yul\":6964:6983   */\n  swap1\n  pop\n    /* \"#utility.yul\":6623:6989   */\n  swap2\n  swap1\n  pop\n  jump\t// out\n    /* \"#utility.yul\":6995:7414   */\ntag_42:\n    /* \"#utility.yul\":7161:7165   */\n  0x00\n    /* \"#utility.yul\":7199:7201   */\n  0x20\n    /* \"#utility.yul\":7188:7197   */\n  dup3\n    /* \"#utility.yul\":7184:7202   */\n  add\n    /* \"#utility.yul\":7176:7202   */\n  swap1\n  pop\n    /* \"#utility.yul\":7248:7257   */\n  dup2\n    /* \"#utility.yul\":7242:7246   */\n  dup2\n    /* \"#utility.yul\":7238:7258   */\n  sub\n    /* \"#utility.yul\":7234:7235   */\n  0x00\n    /* \"#utility.yul\":7223:7232   */\n  dup4\n    /* \"#utility.yul\":7219:7236   */\n  add\n    /* \"#utility.yul\":7212:7259   */\n  mstore\n    /* \"#utility.yul\":7276:7407   */\n  tag_208\n    /* \"#utility.yul\":7402:7406   */\n  dup2\n    /* \"#utility.yul\":7276:7407   */\n  tag_120\n  jump\t// in\ntag_208:\n    /* \"#utility.yul\":7268:7407   */\n  swap1\n  pop\n    /* \"#utility.yul\":6995:7414   */\n  swap2\n  swap1\n  pop\n  jump\t// out\n    /* \"#utility.yul\":7420:7600   */\ntag_50:\n    /* \"#utility.yul\":7468:7545   */\n  0x4e487b7100000000000000000000000000000000000000000000000000000000\n    /* \"#utility.yul\":7465:7466   */\n  0x00\n    /* \"#utility.yul\":7458:7546   */\n  mstore\n    /* \"#utility.yul\":7565:7569   */\n  0x32\n    /* \"#utility.yul\":7562:7563   */\n  0x04\n    /* \"#utility.yul\":7555:7570   */\n  mstore\n    /* \"#utility.yul\":7589:7593   */\n  0x24\n    /* \"#utility.yul\":7586:7587   */\n  0x00\n    /* \"#utility.yul\":7579:7594   */\n  revert\n    /* \"#utility.yul\":7606:7786   */\ntag_121:\n    /* \"#utility.yul\":7654:7731   */\n  0x4e487b7100000000000000000000000000000000000000000000000000000000\n    /* \"#utility.yul\":7651:7652   */\n  0x00\n    /* \"#utility.yul\":7644:7732   */\n  mstore\n    /* \"#utility.yul\":7751:7755   */\n  0x11\n    /* \"#utility.yul\":7748:7749   */\n  0x04\n    /* \"#utility.yul\":7741:7756   */\n  mstore\n    /* \"#utility.yul\":7775:7779   */\n  0x24\n    /* \"#utility.yul\":7772:7773   */\n  0x00\n    /* \"#utility.yul\":7765:7780   */\n  revert\n    /* \"#utility.yul\":7792:8025   */\ntag_54:\n    /* \"#utility.yul\":7831:7834   */\n  0x00\n    /* \"#utility.yul\":7854:7878   */\n  tag_212\n    /* \"#utility.yul\":7872:7877   */\n  dup3\n    /* \"#utility.yul\":7854:7878   */\n  tag_104\n  jump\t// in\ntag_212:\n    /* \"#utility.yul\":7845:7878   */\n  swap2\n  pop\n    /* \"#utility.yul\":7900:7966   */\n  0xffffffffffffffffffffffffffffffffffffffffffffffffffffffffffffffff\n    /* \"#utility.yul\":7893:7898   */\n  dup3\n    /* \"#utility.yul\":7890:7967   */\n  sub\n    /* \"#utility.yul\":7887:7990   */\n  tag_213\n  jumpi\n    /* \"#utility.yul\":7970:7988   */\n  tag_214\n  tag_121\n  jump\t// in\ntag_214:\n    /* \"#utility.yul\":7887:7990   */\ntag_213:\n    /* \"#utility.yul\":8017:8018   */\n  0x01\n    /* \"#utility.yul\":8010:8015   */\n  dup3\n    /* \"#utility.yul\":8006:8019   */\n  add\n    /* \"#utility.yul\":7999:8019   */\n  swap1\n  pop\n    /* \"#utility.yul\":7792:8025   */\n  swap2\n  swap1\n  pop\n  jump\t// out\n    /* \"#utility.yul\":8031:8155   */\ntag_122:\n    /* \"#utility.yul\":8108:8114   */\n  0x00\n    /* \"#utility.yul\":8142:8147   */\n  dup2\n    /* \"#utility.yul\":8136:8148   */\n  mload\n    /* \"#utility.yul\":8126:8148   */\n  swap1\n  pop\n    /* \"#utility.yul\":8031:8155   */\n  swap2\n  swap1\n  pop\n  jump\t// out\n    /* \"#utility.yul\":8161:8355   */\ntag_123:\n    /* \"#utility.yul\":8270:8281   */\n  0x00\n    /* \"#utility.yul\":8304:8310   */\n  dup3\n    /* \"#utility.yul\":8299:8302   */\n  dup3\n    /* \"#utility.yul\":8292:8311   */\n  mstore\n    /* \"#utility.yul\":8344:8348   */\n  0x20\n    /* \"#utility.yul\":8339:8342   */\n  dup3\n    /* \"#utility.yul\":8335:8349   */\n  add\n    /* \"#utility.yul\":8320:8349   */\n  swap1\n  pop\n    /* \"#utility.yul\":8161:8355   */\n  swap3\n  swap2\n  pop\n  pop\n  jump\t// out\n    /* \"#utility.yul\":8361:8503   */\ntag_124:\n    /* \"#utility.yul\":8438:8442   */\n  0x00\n    /* \"#utility.yul\":8461:8464   */\n  dup2\n    /* \"#utility.yul\":8453:8464   */\n  swap1\n  pop\n    /* \"#utility.yul\":8491:8495   */\n  0x20\n    /* \"#utility.yul\":8486:8489   */\n  dup3\n    /* \"#utility.yul\":8482:8496   */\n  add\n    /* \"#utility.yul\":8474:8496   */\n  swap1\n  pop\n    /* \"#utility.yul\":8361:8503   */\n  swap2\n  swap1\n  pop\n  jump\t// out\n    /* \"#utility.yul\":8509:8668   */\ntag_125:\n    /* \"#utility.yul\":8583:8594   */\n  0x00\n    /* \"#utility.yul\":8617:8623   */\n  dup3\n    /* \"#utility.yul\":8612:8615   */\n  dup3\n    /* \"#utility.yul\":8605:8624   */\n  mstore\n    /* \"#utility.yul\":8657:8661   */\n  0x20\n    /* \"#utility.yul\":8652:8655   */\n  dup3\n    /* \"#utility.yul\":8648:8662   */\n  add\n    /* \"#utility.yul\":8633:8662   */\n  swap1\n  pop\n    /* \"#utility.yul\":8509:8668   */\n  swap3\n  swap2\n  pop\n  pop\n  jump\t// out\n    /* \"#utility.yul\":8674:8813   */\ntag_126:\n    /* \"#utility.yul\":8763:8769   */\n  dup3\n    /* \"#utility.yul\":8758:8761   */\n  dup2\n    /* \"#utility.yul\":8753:8756   */\n  dup4\n    /* \"#utility.yul\":8747:8770   */\n  mcopy\n    /* \"#utility.yul\":8804:8805   */\n  0x00\n    /* \"#utility.yul\":8795:8801   */\n  dup4\n    /* \"#utility.yul\":8790:8793   */\n  dup4\n    /* \"#utility.yul\":8786:8802   */\n  add\n    /* \"#utility.yul\":8779:8806   */\n  mstore\n    /* \"#utility.yul\":8674:8813   */\n  pop\n  pop\n  pop\n  jump\t// out\n    /* \"#utility.yul\":8819:8921   */\ntag_127:\n    /* \"#utility.yul\":8860:8866   */\n  0x00\n    /* \"#utility.yul\":8911:8913   */\n  0x1f\n    /* \"#utility.yul\":8907:8914   */\n  not\n    /* \"#utility.yul\":8902:8904   */\n  0x1f\n    /* \"#utility.yul\":8895:8900   */\n  dup4\n    /* \"#utility.yul\":8891:8905   */\n  add\n    /* \"#utility.yul\":8887:8915   */\n  and\n    /* \"#utility.yul\":8877:8915   */\n  swap1\n  pop\n    /* \"#utility.yul\":8819:8921   */\n  swap2\n  swap1\n  pop\n  jump\t// out\n    /* \"#utility.yul\":8927:9284   */\ntag_128:\n    /* \"#utility.yul\":9005:9008   */\n  0x00\n    /* \"#utility.yul\":9033:9072   */\n  tag_222\n    /* \"#utility.yul\":9066:9071   */\n  dup3\n    /* \"#utility.yul\":9033:9072   */\n  tag_97\n  jump\t// in\ntag_222:\n    /* \"#utility.yul\":9088:9149   */\n  tag_223\n    /* \"#utility.yul\":9142:9148   */\n  dup2\n    /* \"#utility.yul\":9137:9140   */\n  dup6\n    /* \"#utility.yul\":9088:9149   */\n  tag_125\n  jump\t// in\ntag_223:\n    /* \"#utility.yul\":9081:9149   */\n  swap4\n  pop\n    /* \"#utility.yul\":9158:9223   */\n  tag_224\n    /* \"#utility.yul\":9216:9222   */\n  dup2\n    /* \"#utility.yul\":9211:9214   */\n  dup6\n    /* \"#utility.yul\":9204:9208   */\n  0x20\n    /* \"#utility.yul\":9197:9202   */\n  dup7\n    /* \"#utility.yul\":9193:9209   */\n  add\n    /* \"#utility.yul\":9158:9223   */\n  tag_126\n  jump\t// in\ntag_224:\n    /* \"#utility.yul\":9248:9277   */\n  tag_225\n    /* \"#utility.yul\":9270:9276   */\n  dup2\n    /* \"#utility.yul\":9248:9277   */\n  tag_127\n  jump\t// in\ntag_225:\n    /* \"#utility.yul\":9243:9246   */\n  dup5\n    /* \"#utility.yul\":9239:9278   */\n  add\n    /* \"#utility.yul\":9232:9278   */\n  swap2\n  pop\n    /* \"#utility.yul\":9009:9284   */\n  pop\n    /* \"#utility.yul\":8927:9284   */\n  swap3\n  swap2\n  pop\n  pop\n  jump\t// out\n    /* \"#utility.yul\":9290:9486   */\ntag_129:\n    /* \"#utility.yul\":9379:9389   */\n  0x00\n    /* \"#utility.yul\":9414:9480   */\n  tag_227\n    /* \"#utility.yul\":9476:9479   */\n  dup4\n    /* \"#utility.yul\":9468:9474   */\n  dup4\n    /* \"#utility.yul\":9414:9480   */\n  tag_128\n  jump\t// in\ntag_227:\n    /* \"#utility.yul\":9400:9480   */\n  swap1\n  pop\n    /* \"#utility.yul\":9290:9486   */\n  swap3\n  swap2\n  pop\n  pop\n  jump\t// out\n    /* \"#utility.yul\":9492:9615   */\ntag_130:\n    /* \"#utility.yul\":9572:9576   */\n  0x00\n    /* \"#utility.yul\":9604:9608   */\n  0x20\n    /* \"#utility.yul\":9599:9602   */\n  dup3\n    /* \"#utility.yul\":9595:9609   */\n  add\n    /* \"#utility.yul\":9587:9609   */\n  swap1\n  pop\n    /* \"#utility.yul\":9492:9615   */\n  swap2\n  swap1\n  pop\n  jump\t// out\n    /* \"#utility.yul\":9649:10640   */\ntag_131:\n    /* \"#utility.yul\":9788:9791   */\n  0x00\n    /* \"#utility.yul\":9817:9881   */\n  tag_230\n    /* \"#utility.yul\":9875:9880   */\n  dup3\n    /* \"#utility.yul\":9817:9881   */\n  tag_122\n  jump\t// in\ntag_230:\n    /* \"#utility.yul\":9897:9993   */\n  tag_231\n    /* \"#utility.yul\":9986:9992   */\n  dup2\n    /* \"#utility.yul\":9981:9984   */\n  dup6\n    /* \"#utility.yul\":9897:9993   */\n  tag_123\n  jump\t// in\ntag_231:\n    /* \"#utility.yul\":9890:9993   */\n  swap4\n  pop\n    /* \"#utility.yul\":10019:10022   */\n  dup4\n    /* \"#utility.yul\":10064:10068   */\n  0x20\n    /* \"#utility.yul\":10056:10062   */\n  dup3\n    /* \"#utility.yul\":10052:10069   */\n  mul\n    /* \"#utility.yul\":10047:10050   */\n  dup6\n    /* \"#utility.yul\":10043:10070   */\n  add\n    /* \"#utility.yul\":10094:10160   */\n  tag_232\n    /* \"#utility.yul\":10154:10159   */\n  dup6\n    /* \"#utility.yul\":10094:10160   */\n  tag_124\n  jump\t// in\ntag_232:\n    /* \"#utility.yul\":10183:10190   */\n  dup1\n    /* \"#utility.yul\":10214:10215   */\n  0x00\n    /* \"#utility.yul\":10199:10595   */\ntag_233:\n    /* \"#utility.yul\":10224:10230   */\n  dup6\n    /* \"#utility.yul\":10221:10222   */\n  dup2\n    /* \"#utility.yul\":10218:10231   */\n  lt\n    /* \"#utility.yul\":10199:10595   */\n  iszero\n  tag_235\n  jumpi\n    /* \"#utility.yul\":10295:10304   */\n  dup5\n    /* \"#utility.yul\":10289:10293   */\n  dup5\n    /* \"#utility.yul\":10285:10305   */\n  sub\n    /* \"#utility.yul\":10280:10283   */\n  dup10\n    /* \"#utility.yul\":10273:10306   */\n  mstore\n    /* \"#utility.yul\":10346:10352   */\n  dup2\n    /* \"#utility.yul\":10340:10353   */\n  mload\n    /* \"#utility.yul\":10374:10458   */\n  tag_236\n    /* \"#utility.yul\":10453:10457   */\n  dup6\n    /* \"#utility.yul\":10438:10451   */\n  dup3\n    /* \"#utility.yul\":10374:10458   */\n  tag_129\n  jump\t// in\ntag_236:\n    /* \"#utility.yul\":10366:10458   */\n  swap5\n  pop\n    /* \"#utility.yul\":10481:10551   */\n  tag_237\n    /* \"#utility.yul\":10544:10550   */\n  dup4\n    /* \"#utility.yul\":10481:10551   */\n  tag_130\n  jump\t// in\ntag_237:\n    /* \"#utility.yul\":10471:10551   */\n  swap3\n  pop\n    /* \"#utility.yul\":10580:10584   */\n  0x20\n    /* \"#utility.yul\":10575:10578   */\n  dup11\n    /* \"#utility.yul\":10571:10585   */\n  add\n    /* \"#utility.yul\":10564:10585   */\n  swap10\n  pop\n    /* \"#utility.yul\":10259:10595   */\n  pop\n    /* \"#utility.yul\":10246:10247   */\n  0x01\n    /* \"#utility.yul\":10243:10244   */\n  dup2\n    /* \"#utility.yul\":10239:10248   */\n  add\n    /* \"#utility.yul\":10234:10248   */\n  swap1\n  pop\n    /* \"#utility.yul\":10199:10595   */\n  jump(tag_233)\ntag_235:\n    /* \"#utility.yul\":10203:10217   */\n  pop\n    /* \"#utility.yul\":10611:10615   */\n  dup3\n    /* \"#utility.yul\":10604:10615   */\n  swap8\n  pop\n    /* \"#utility.yul\":10631:10634   */\n  dup8\n    /* \"#utility.yul\":10624:10634   */\n  swap6\n  pop\n    /* \"#utility.yul\":9793:10640   */\n  pop\n  pop\n  pop\n  pop\n  pop\n    /* \"#utility.yul\":9649:10640   */\n  swap3\n  swap2\n  pop\n  pop\n  jump\t// out\n    /* \"#utility.yul\":10646:11059   */\ntag_56:\n    /* \"#utility.yul\":10809:10813   */\n  0x00\n    /* \"#utility.yul\":10847:10849   */\n  0x20\n    /* \"#utility.yul\":10836:10845   */\n  dup3\n    /* \"#utility.yul\":10832:10850   */\n  add\n    /* \"#utility.yul\":10824:10850   */\n  swap1\n  pop\n    /* \"#utility.yul\":10896:10905   */\n  dup2\n    /* \"#utility.yul\":10890:10894   */\n  dup2\n    /* \"#utility.yul\":10886:10906   */\n  sub\n    /* \"#utility.yul\":10882:10883   */\n  0x00\n    /* \"#utility.yul\":10871:10880   */\n  dup4\n    /* \"#utility.yul\":10867:10884   */\n  add\n    /* \"#utility.yul\":10860:10907   */\n  mstore\n    /* \"#utility.yul\":10924:11052   */\n  tag_239\n    /* \"#utility.yul\":11047:11051   */\n  dup2\n    /* \"#utility.yul\":11038:11044   */\n  dup5\n    /* \"#utility.yul\":10924:11052   */\n  tag_131\n  jump\t// in\ntag_239:\n    /* \"#utility.yul\":10916:11052   */\n  swap1\n  pop\n    /* \"#utility.yul\":10646:11059   */\n  swap3\n  swap2\n  pop\n  pop\n  jump\t// out\n    /* \"#utility.yul\":11065:11290   */\ntag_132:\n    /* \"#utility.yul\":11205:11239   */\n  0x5175616e746964616465206d6178696d61206465207175657369746f73206174\n    /* \"#utility.yul\":11201:11202   */\n  0x00\n    /* \"#utility.yul\":11193:11199   */\n  dup3\n    /* \"#utility.yul\":11189:11203   */\n  add\n    /* \"#utility.yul\":11182:11240   */\n  mstore\n    /* \"#utility.yul\":11274:11282   */\n  0x696e676964610000000000000000000000000000000000000000000000000000\n    /* \"#utility.yul\":11269:11271   */\n  0x20\n    /* \"#utility.yul\":11261:11267   */\n  dup3\n    /* \"#utility.yul\":11257:11272   */\n  add\n    /* \"#utility.yul\":11250:11283   */\n  mstore\n    /* \"#utility.yul\":11065:11290   */\n  pop\n  jump\t// out\n    /* \"#utility.yul\":11296:11662   */\ntag_133:\n    /* \"#utility.yul\":11438:11441   */\n  0x00\n    /* \"#utility.yul\":11459:11526   */\n  tag_242\n    /* \"#utility.yul\":11523:11525   */\n  0x26\n    /* \"#utility.yul\":11518:11521   */\n  dup4\n    /* \"#utility.yul\":11459:11526   */\n  tag_116\n  jump\t// in\ntag_242:\n    /* \"#utility.yul\":11452:11526   */\n  swap2\n  pop\n    /* \"#utility.yul\":11535:11628   */\n  tag_243\n    /* \"#utility.yul\":11624:11627   */\n  dup3\n    /* \"#utility.yul\":11535:11628   */\n  tag_132\n  jump\t// in\ntag_243:\n    /* \"#utility.yul\":11653:11655   */\n  0x40\n    /* \"#utility.yul\":11648:11651   */\n  dup3\n    /* \"#utility.yul\":11644:11656   */\n  add\n    /* \"#utility.yul\":11637:11656   */\n  swap1\n  pop\n    /* \"#utility.yul\":11296:11662   */\n  swap2\n  swap1\n  pop\n  jump\t// out\n    /* \"#utility.yul\":11668:12087   */\ntag_63:\n    /* \"#utility.yul\":11834:11838   */\n  0x00\n    /* \"#utility.yul\":11872:11874   */\n  0x20\n    /* \"#utility.yul\":11861:11870   */\n  dup3\n    /* \"#utility.yul\":11857:11875   */\n  add\n    /* \"#utility.yul\":11849:11875   */\n  swap1\n  pop\n    /* \"#utility.yul\":11921:11930   */\n  dup2\n    /* \"#utility.yul\":11915:11919   */\n  dup2\n    /* \"#utility.yul\":11911:11931   */\n  sub\n    /* \"#utility.yul\":11907:11908   */\n  0x00\n    /* \"#utility.yul\":11896:11905   */\n  dup4\n    /* \"#utility.yul\":11892:11909   */\n  add\n    /* \"#utility.yul\":11885:11932   */\n  mstore\n    /* \"#utility.yul\":11949:12080   */\n  tag_245\n    /* \"#utility.yul\":12075:12079   */\n  dup2\n    /* \"#utility.yul\":11949:12080   */\n  tag_133\n  jump\t// in\ntag_245:\n    /* \"#utility.yul\":11941:12080   */\n  swap1\n  pop\n    /* \"#utility.yul\":11668:12087   */\n  swap2\n  swap1\n  pop\n  jump\t// out\n    /* \"Qsito/carnaval.sol\":119:5676  contract CarnavalScores is ERC20 {... */\ntag_34:\n  dataSize(sub_0)\n  dup1\n  dataOffset(sub_0)\n  0x00\n  codecopy\n  0x00\n  return\nstop\ndata_873691c59648f4f39f1d7cd4543680b232b49ca01cb1e767190908a1f126a1a2 4d6f63696461646520496e646570656e64656e7465206465205061647265204d696775656c\n\nsub_0: assembly {\n        /* \"Qsito/carnaval.sol\":119:5676  contract CarnavalScores is ERC20 {... */\n      mstore(0x40, 0x80)\n      callvalue\n      dup1\n      iszero\n      tag_1\n      jumpi\n      revert(0x00, 0x00)\n    tag_1:\n      pop\n      jumpi(tag_2, lt(calldatasize, 0x04))\n      shr(0xe0, calldataload(0x00))\n      dup1\n      0x8da5cb5b\n      gt\n      tag_21\n      jumpi\n      dup1\n      0xdacb31cb\n      gt\n      tag_22\n      jumpi\n      dup1\n      0xdacb31cb\n      eq\n      tag_16\n      jumpi\n      dup1\n      0xdd62ed3e\n      eq\n      tag_17\n      jumpi\n      dup1\n      0xdd7a7996\n      eq\n      tag_18\n      jumpi\n      dup1\n      0xe49a39dc\n      eq\n      tag_19\n      jumpi\n      dup1\n      0xec048210\n      eq\n      tag_20\n      jumpi\n      jump(tag_2)\n    tag_22:\n      dup1\n      0x8da5cb5b\n      eq\n      tag_12\n      jumpi\n      dup1\n      0x95d89b41\n      eq\n      tag_13\n      jumpi\n      dup1\n      0xa9059cbb\n      eq\n      tag_14\n      jumpi\n      dup1\n      0xa916b987\n      eq\n      tag_15\n      jumpi\n      jump(tag_2)\n    tag_21:\n      dup1\n      0x23b872dd\n      gt\n      tag_23\n      jumpi\n      dup1\n      0x23b872dd\n      eq\n      tag_7\n      jumpi\n      dup1\n      0x313ce567\n      eq\n      tag_8\n      jumpi\n      dup1\n      0x4d4b6681\n      eq\n      tag_9\n      jumpi\n      dup1\n      0x66885744\n      eq\n      tag_10\n      jumpi\n      dup1\n      0x70a08231\n      eq\n      tag_11\n      jumpi\n      jump(tag_2)\n    tag_23:\n      dup1\n      0x05ae501e\n      eq\n      tag_3\n      jumpi\n      dup1\n      0x06fdde03\n      eq\n      tag_4\n      jumpi\n      dup1\n      0x095ea7b3\n      eq\n      tag_5\n      jumpi\n      dup1\n      0x18160ddd\n      eq\n      tag_6\n      jumpi\n    tag_2:\n      revert(0x00, 0x00)\n        /* \"Qsito/carnaval.sol\":3828:4343  function registrarNota(uint _escolaId, uint _quesitoId, uint _nota) public {... */\n    tag_3:\n      tag_24\n      0x04\n      dup1\n      calldatasize\n      sub\n      dup2\n      add\n      swap1\n      tag_25\n      swap2\n      swap1\n      tag_26\n      jump\t// in\n    tag_25:\n      tag_27\n      jump\t// in\n    tag_24:\n      stop\n        /* \"@openzeppelin/contracts/token/ERC20/ERC20.sol\":1779:1868  function name() public view virtual returns (string memory) {... */\n    tag_4:\n      tag_28\n      tag_29\n      jump\t// in\n    tag_28:\n      mload(0x40)\n      tag_30\n      swap2\n      swap1\n      tag_31\n      jump\t// in\n    tag_30:\n      mload(0x40)\n      dup1\n      swap2\n      sub\n      swap1\n      return\n        /* \"@openzeppelin/contracts/token/ERC20/ERC20.sol\":3998:4184  function approve(address spender, uint256 value) public virtual returns (bool) {... */\n    tag_5:\n      tag_32\n      0x04\n      dup1\n      calldatasize\n      sub\n      dup2\n      add\n      swap1\n      tag_33\n      swap2\n      swap1\n      tag_34\n      jump\t// in\n    tag_33:\n      tag_35\n      jump\t// in\n    tag_32:\n      mload(0x40)\n      tag_36\n      swap2\n      swap1\n      tag_37\n      jump\t// in\n    tag_36:\n      mload(0x40)\n      dup1\n      swap2\n      sub\n      swap1\n      return\n        /* \"@openzeppelin/contracts/token/ERC20/ERC20.sol\":2849:2946  function totalSupply() public view virtual returns (uint256) {... */\n    tag_6:\n      tag_38\n      tag_39\n      jump\t// in\n    tag_38:\n      mload(0x40)\n      tag_40\n      swap2\n      swap1\n      tag_41\n      jump\t// in\n    tag_40:\n      mload(0x40)\n      dup1\n      swap2\n      sub\n      swap1\n      return\n        /* \"@openzeppelin/contracts/token/ERC20/ERC20.sol\":4776:5020  function transferFrom(address from, address to, uint256 value) public virtual returns (bool) {... */\n    tag_7:\n      tag_42\n      0x04\n      dup1\n      calldatasize\n      sub\n      dup2\n      add\n      swap1\n      tag_43\n      swap2\n      swap1\n      tag_44\n      jump\t// in\n    tag_43:\n      tag_45\n      jump\t// in\n    tag_42:\n      mload(0x40)\n      tag_46\n      swap2\n      swap1\n      tag_37\n      jump\t// in\n    tag_46:\n      mload(0x40)\n      dup1\n      swap2\n      sub\n      swap1\n      return\n        /* \"@openzeppelin/contracts/token/ERC20/ERC20.sol\":2707:2789  function decimals() public view virtual returns (uint8) {... */\n    tag_8:\n      tag_47\n      tag_48\n      jump\t// in\n    tag_47:\n      mload(0x40)\n      tag_49\n      swap2\n      swap1\n      tag_50\n      jump\t// in\n    tag_49:\n      mload(0x40)\n      dup1\n      swap2\n      sub\n      swap1\n      return\n        /* \"Qsito/carnaval.sol\":2155:2680  function addJurado(string memory _nomeJurado, uint _quesitoId) public onlyOwner returns (uint) {... */\n    tag_9:\n      tag_51\n      0x04\n      dup1\n      calldatasize\n      sub\n      dup2\n      add\n      swap1\n      tag_52\n      swap2\n      swap1\n      tag_53\n      jump\t// in\n    tag_52:\n      tag_54\n      jump\t// in\n    tag_51:\n      mload(0x40)\n      tag_55\n      swap2\n      swap1\n      tag_41\n      jump\t// in\n    tag_55:\n      mload(0x40)\n      dup1\n      swap2\n      sub\n      swap1\n      return\n        /* \"Qsito/carnaval.sol\":4399:4650  function getNota(uint _escolaId, uint _quesitoId) public view returns (uint256) {... */\n    tag_10:\n      tag_56\n      0x04\n      dup1\n      calldatasize\n      sub\n      dup2\n      add\n      swap1\n      tag_57\n      swap2\n      swap1\n      tag_58\n      jump\t// in\n    tag_57:\n      tag_59\n      jump\t// in\n    tag_56:\n      mload(0x40)\n      tag_60\n      swap2\n      swap1\n      tag_41\n      jump\t// in\n    tag_60:\n      mload(0x40)\n      dup1\n      swap2\n      sub\n      swap1\n      return\n        /* \"@openzeppelin/contracts/token/ERC20/ERC20.sol\":3004:3120  function balanceOf(address account) public view virtual returns (uint256) {... */\n    tag_11:\n      tag_61\n      0x04\n      dup1\n      calldatasize\n      sub\n      dup2\n      add\n      swap1\n      tag_62\n      swap2\n      swap1\n      tag_63\n      jump\t// in\n    tag_62:\n      tag_64\n      jump\t// in\n    tag_61:\n      mload(0x40)\n      tag_65\n      swap2\n      swap1\n      tag_41\n      jump\t// in\n    tag_65:\n      mload(0x40)\n      dup1\n      swap2\n      sub\n      swap1\n      return\n        /* \"Qsito/carnaval.sol\":1007:1027  address public owner */\n    tag_12:\n      tag_66\n      tag_67\n      jump\t// in\n    tag_66:\n      mload(0x40)\n      tag_68\n      swap2\n      swap1\n      tag_69\n      jump\t// in\n    tag_68:\n      mload(0x40)\n      dup1\n      swap2\n      sub\n      swap1\n      return\n        /* \"@openzeppelin/contracts/token/ERC20/ERC20.sol\":1981:2074  function symbol() public view virtual returns (string memory) {... */\n    tag_13:\n      tag_70\n      tag_71\n      jump\t// in\n    tag_70:\n      mload(0x40)\n      tag_72\n      swap2\n      swap1\n      tag_31\n      jump\t// in\n    tag_72:\n      mload(0x40)\n      dup1\n      swap2\n      sub\n      swap1\n      return\n        /* \"@openzeppelin/contracts/token/ERC20/ERC20.sol\":3315:3493  function transfer(address to, uint256 value) public virtual returns (bool) {... */\n    tag_14:\n      tag_73\n      0x04\n      dup1\n      calldatasize\n      sub\n      dup2\n      add\n      swap1\n      tag_74\n      swap2\n      swap1\n      tag_34\n      jump\t// in\n    tag_74:\n      tag_75\n      jump\t// in\n    tag_73:\n      mload(0x40)\n      tag_76\n      swap2\n      swap1\n      tag_37\n      jump\t// in\n    tag_76:\n      mload(0x40)\n      dup1\n      swap2\n      sub\n      swap1\n      return\n        /* \"Qsito/carnaval.sol\":886:953  mapping(uint => mapping(uint => Nota)) public notasPorEscolaQuesito */\n    tag_15:\n      tag_77\n      0x04\n      dup1\n      calldatasize\n      sub\n      dup2\n      add\n      swap1\n      tag_78\n      swap2\n      swap1\n      tag_58\n      jump\t// in\n    tag_78:\n      tag_79\n      jump\t// in\n    tag_77:\n      mload(0x40)\n      tag_80\n      swap5\n      swap4\n      swap3\n      swap2\n      swap1\n      tag_81\n      jump\t// in\n    tag_80:\n      mload(0x40)\n      dup1\n      swap2\n      sub\n      swap1\n      return\n        /* \"Qsito/carnaval.sol\":5065:5240  function getJurados() public view returns  (Jurado[] memory){... */\n    tag_16:\n      tag_82\n      tag_83\n      jump\t// in\n    tag_82:\n      mload(0x40)\n      tag_84\n      swap2\n      swap1\n      tag_85\n      jump\t// in\n    tag_84:\n      mload(0x40)\n      dup1\n      swap2\n      sub\n      swap1\n      return\n        /* \"@openzeppelin/contracts/token/ERC20/ERC20.sol\":3551:3691  function allowance(address owner, address spender) public view virtual returns (uint256) {... */\n    tag_17:\n      tag_86\n      0x04\n      dup1\n      calldatasize\n      sub\n      dup2\n      add\n      swap1\n      tag_87\n      swap2\n      swap1\n      tag_88\n      jump\t// in\n    tag_87:\n      tag_89\n      jump\t// in\n    tag_86:\n      mload(0x40)\n      tag_90\n      swap2\n      swap1\n      tag_41\n      jump\t// in\n    tag_90:\n      mload(0x40)\n      dup1\n      swap2\n      sub\n      swap1\n      return\n        /* \"Qsito/carnaval.sol\":4873:5034  function getEscolas() public view returns  (string[] memory){... */\n    tag_18:\n      tag_91\n      tag_92\n      jump\t// in\n    tag_91:\n      mload(0x40)\n      tag_93\n      swap2\n      swap1\n      tag_94\n      jump\t// in\n    tag_93:\n      mload(0x40)\n      dup1\n      swap2\n      sub\n      swap1\n      return\n        /* \"Qsito/carnaval.sol\":5278:5673  function limparDados() public onlyOwner {... */\n    tag_19:\n      tag_95\n      tag_96\n      jump\t// in\n    tag_95:\n      stop\n        /* \"Qsito/carnaval.sol\":4683:4843  function getQuesitos() public view returns  (string[] memory){... */\n    tag_20:\n      tag_97\n      tag_98\n      jump\t// in\n    tag_97:\n      mload(0x40)\n      tag_99\n      swap2\n      swap1\n      tag_94\n      jump\t// in\n    tag_99:\n      mload(0x40)\n      dup1\n      swap2\n      sub\n      swap1\n      return\n        /* \"Qsito/carnaval.sol\":3828:4343  function registrarNota(uint _escolaId, uint _quesitoId, uint _nota) public {... */\n    tag_27:\n        /* \"Qsito/carnaval.sol\":3954:3964  msg.sender */\n      caller\n        /* \"Qsito/carnaval.sol\":3922:3964  jurados[msg.sender].endereco == msg.sender */\n      0xffffffffffffffffffffffffffffffffffffffff\n      and\n        /* \"Qsito/carnaval.sol\":3922:3929  jurados */\n      0x09\n        /* \"Qsito/carnaval.sol\":3922:3941  jurados[msg.sender] */\n      0x00\n        /* \"Qsito/carnaval.sol\":3930:3940  msg.sender */\n      caller\n        /* \"Qsito/carnaval.sol\":3922:3941  jurados[msg.sender] */\n      0xffffffffffffffffffffffffffffffffffffffff\n      and\n      0xffffffffffffffffffffffffffffffffffffffff\n      and\n      dup2\n      mstore\n      0x20\n      add\n      swap1\n      dup2\n      mstore\n      0x20\n      add\n      0x00\n      keccak256\n        /* \"Qsito/carnaval.sol\":3922:3950  jurados[msg.sender].endereco */\n      0x00\n      add\n      0x00\n      swap1\n      sload\n      swap1\n      0x0100\n      exp\n      swap1\n      div\n      0xffffffffffffffffffffffffffffffffffffffff\n      and\n        /* \"Qsito/carnaval.sol\":3922:3964  jurados[msg.sender].endereco == msg.sender */\n      0xffffffffffffffffffffffffffffffffffffffff\n      and\n      eq\n        /* \"Qsito/carnaval.sol\":3914:4000  require(jurados[msg.sender].endereco == msg.sender, \"Somente jurados podem registrar\") */\n      tag_101\n      jumpi\n      mload(0x40)\n      0x08c379a000000000000000000000000000000000000000000000000000000000\n      dup2\n      mstore\n      0x04\n      add\n      tag_102\n      swap1\n      tag_103\n      jump\t// in\n    tag_102:\n      mload(0x40)\n      dup1\n      swap2\n      sub\n      swap1\n      revert\n    tag_101:\n        /* \"Qsito/carnaval.sol\":4028:4031  900 */\n      0x0384\n        /* \"Qsito/carnaval.sol\":4019:4024  _nota */\n      dup2\n        /* \"Qsito/carnaval.sol\":4019:4031  _nota >= 900 */\n      lt\n      iszero\n        /* \"Qsito/carnaval.sol\":4019:4048  _nota >= 900 && _nota <= 1000 */\n      dup1\n      iszero\n      tag_104\n      jumpi\n      pop\n        /* \"Qsito/carnaval.sol\":4044:4048  1000 */\n      0x03e8\n        /* \"Qsito/carnaval.sol\":4035:4040  _nota */\n      dup2\n        /* \"Qsito/carnaval.sol\":4035:4048  _nota <= 1000 */\n      gt\n      iszero\n        /* \"Qsito/carnaval.sol\":4019:4048  _nota >= 900 && _nota <= 1000 */\n    tag_104:\n        /* \"Qsito/carnaval.sol\":4011:4068  require(_nota >= 900 && _nota <= 1000, \"Nota impossivel\") */\n      tag_105\n      jumpi\n      mload(0x40)\n      0x08c379a000000000000000000000000000000000000000000000000000000000\n      dup2\n      mstore\n      0x04\n      add\n      tag_106\n      swap1\n      tag_107\n      jump\t// in\n    tag_106:\n      mload(0x40)\n      dup1\n      swap2\n      sub\n      swap1\n      revert\n    tag_105:\n        /* \"Qsito/carnaval.sol\":4079:4095  Nota memory nota */\n      0x00\n        /* \"Qsito/carnaval.sol\":4098:4246  Nota({... */\n      mload(0x40)\n      dup1\n      0x80\n      add\n      0x40\n      mstore\n      dup1\n        /* \"Qsito/carnaval.sol\":4128:4137  _escolaId */\n      dup6\n        /* \"Qsito/carnaval.sol\":4098:4246  Nota({... */\n      dup2\n      mstore\n      0x20\n      add\n        /* \"Qsito/carnaval.sol\":4163:4173  _quesitoId */\n      dup5\n        /* \"Qsito/carnaval.sol\":4098:4246  Nota({... */\n      dup2\n      mstore\n      0x20\n      add\n        /* \"Qsito/carnaval.sol\":4198:4208  msg.sender */\n      caller\n        /* \"Qsito/carnaval.sol\":4098:4246  Nota({... */\n      0xffffffffffffffffffffffffffffffffffffffff\n      and\n      dup2\n      mstore\n      0x20\n      add\n        /* \"Qsito/carnaval.sol\":4229:4234  _nota */\n      dup4\n        /* \"Qsito/carnaval.sol\":4098:4246  Nota({... */\n      dup2\n      mstore\n      pop\n        /* \"Qsito/carnaval.sol\":4079:4246  Nota memory nota = Nota({... */\n      swap1\n      pop\n        /* \"Qsito/carnaval.sol\":4257:4262  notas */\n      0x08\n        /* \"Qsito/carnaval.sol\":4268:4272  nota */\n      dup2\n        /* \"Qsito/carnaval.sol\":4257:4273  notas.push(nota) */\n      swap1\n      dup1\n      0x01\n      dup2\n      sload\n      add\n      dup1\n      dup3\n      sstore\n      dup1\n      swap2\n      pop\n      pop\n      0x01\n      swap1\n      sub\n      swap1\n      0x00\n      mstore\n      keccak256(0x00, 0x20)\n      swap1\n      0x04\n      mul\n      add\n      0x00\n      swap1\n      swap2\n      swap1\n      swap2\n      swap1\n      swap2\n      pop\n      0x00\n      dup3\n      add\n      mload\n      dup2\n      0x00\n      add\n      sstore\n      0x20\n      dup3\n      add\n      mload\n      dup2\n      0x01\n      add\n      sstore\n      0x40\n      dup3\n      add\n      mload\n      dup2\n      0x02\n      add\n      exp(0x0100, 0x00)\n      dup2\n      sload\n      dup2\n      0xffffffffffffffffffffffffffffffffffffffff\n      mul\n      not\n      and\n      swap1\n      dup4\n      0xffffffffffffffffffffffffffffffffffffffff\n      and\n      mul\n      or\n      swap1\n      sstore\n      pop\n      0x60\n      dup3\n      add\n      mload\n      dup2\n      0x03\n      add\n      sstore\n      pop\n      pop\n        /* \"Qsito/carnaval.sol\":4331:4335  nota */\n      dup1\n        /* \"Qsito/carnaval.sol\":4284:4305  notasPorEscolaQuesito */\n      0x0a\n        /* \"Qsito/carnaval.sol\":4284:4316  notasPorEscolaQuesito[_escolaId] */\n      0x00\n        /* \"Qsito/carnaval.sol\":4306:4315  _escolaId */\n      dup7\n        /* \"Qsito/carnaval.sol\":4284:4316  notasPorEscolaQuesito[_escolaId] */\n      dup2\n      mstore\n      0x20\n      add\n      swap1\n      dup2\n      mstore\n      0x20\n      add\n      0x00\n      keccak256\n        /* \"Qsito/carnaval.sol\":4284:4328  notasPorEscolaQuesito[_escolaId][_quesitoId] */\n      0x00\n        /* \"Qsito/carnaval.sol\":4317:4327  _quesitoId */\n      dup6\n        /* \"Qsito/carnaval.sol\":4284:4328  notasPorEscolaQuesito[_escolaId][_quesitoId] */\n      dup2\n      mstore\n      0x20\n      add\n      swap1\n      dup2\n      mstore\n      0x20\n      add\n      0x00\n      keccak256\n        /* \"Qsito/carnaval.sol\":4284:4335  notasPorEscolaQuesito[_escolaId][_quesitoId] = nota */\n      0x00\n      dup3\n      add\n      mload\n      dup2\n      0x00\n      add\n      sstore\n      0x20\n      dup3\n      add\n      mload\n      dup2\n      0x01\n      add\n      sstore\n      0x40\n      dup3\n      add\n      mload\n      dup2\n      0x02\n      add\n      exp(0x0100, 0x00)\n      dup2\n      sload\n      dup2\n      0xffffffffffffffffffffffffffffffffffffffff\n      mul\n      not\n      and\n      swap1\n      dup4\n      0xffffffffffffffffffffffffffffffffffffffff\n      and\n      mul\n      or\n      swap1\n      sstore\n      pop\n      0x60\n      dup3\n      add\n      mload\n      dup2\n      0x03\n      add\n      sstore\n      swap1\n      pop\n      pop\n        /* \"Qsito/carnaval.sol\":3903:4343  {... */\n      pop\n        /* \"Qsito/carnaval.sol\":3828:4343  function registrarNota(uint _escolaId, uint _quesitoId, uint _nota) public {... */\n      pop\n      pop\n      pop\n      jump\t// out\n        /* \"@openzeppelin/contracts/token/ERC20/ERC20.sol\":1779:1868  function name() public view virtual returns (string memory) {... */\n    tag_29:\n        /* \"@openzeppelin/contracts/token/ERC20/ERC20.sol\":1824:1837  string memory */\n      0x60\n        /* \"@openzeppelin/contracts/token/ERC20/ERC20.sol\":1856:1861  _name */\n      0x03\n        /* \"@openzeppelin/contracts/token/ERC20/ERC20.sol\":1849:1861  return _name */\n      dup1\n      sload\n      tag_110\n      swap1\n      tag_111\n      jump\t// in\n    tag_110:\n      dup1\n      0x1f\n      add\n      0x20\n      dup1\n      swap2\n      div\n      mul\n      0x20\n      add\n      mload(0x40)\n      swap1\n      dup2\n      add\n      0x40\n      mstore\n      dup1\n      swap3\n      swap2\n      swap1\n      dup2\n      dup2\n      mstore\n      0x20\n      add\n      dup3\n      dup1\n      sload\n      tag_112\n      swap1\n      tag_111\n      jump\t// in\n    tag_112:\n      dup1\n      iszero\n      tag_113\n      jumpi\n      dup1\n      0x1f\n      lt\n      tag_114\n      jumpi\n      0x0100\n      dup1\n      dup4\n      sload\n      div\n      mul\n      dup4\n      mstore\n      swap2\n      0x20\n      add\n      swap2\n      jump(tag_113)\n    tag_114:\n      dup3\n      add\n      swap2\n      swap1\n      0x00\n      mstore\n      keccak256(0x00, 0x20)\n      swap1\n    tag_115:\n      dup2\n      sload\n      dup2\n      mstore\n      swap1\n      0x01\n      add\n      swap1\n      0x20\n      add\n      dup1\n      dup4\n      gt\n      tag_115\n      jumpi\n      dup3\n      swap1\n      sub\n      0x1f\n      and\n      dup3\n      add\n      swap2\n    tag_113:\n      pop\n      pop\n      pop\n      pop\n      pop\n      swap1\n      pop\n        /* \"@openzeppelin/contracts/token/ERC20/ERC20.sol\":1779:1868  function name() public view virtual returns (string memory) {... */\n      swap1\n      jump\t// out\n        /* \"@openzeppelin/contracts/token/ERC20/ERC20.sol\":3998:4184  function approve(address spender, uint256 value) public virtual returns (bool) {... */\n    tag_35:\n        /* \"@openzeppelin/contracts/token/ERC20/ERC20.sol\":4071:4075  bool */\n      0x00\n        /* \"@openzeppelin/contracts/token/ERC20/ERC20.sol\":4087:4100  address owner */\n      0x00\n        /* \"@openzeppelin/contracts/token/ERC20/ERC20.sol\":4103:4115  _msgSender() */\n      tag_117\n        /* \"@openzeppelin/contracts/token/ERC20/ERC20.sol\":4103:4113  _msgSender */\n      tag_118\n        /* \"@openzeppelin/contracts/token/ERC20/ERC20.sol\":4103:4115  _msgSender() */\n      jump\t// in\n    tag_117:\n        /* \"@openzeppelin/contracts/token/ERC20/ERC20.sol\":4087:4115  address owner = _msgSender() */\n      swap1\n      pop\n        /* \"@openzeppelin/contracts/token/ERC20/ERC20.sol\":4125:4156  _approve(owner, spender, value) */\n      tag_119\n        /* \"@openzeppelin/contracts/token/ERC20/ERC20.sol\":4134:4139  owner */\n      dup2\n        /* \"@openzeppelin/contracts/token/ERC20/ERC20.sol\":4141:4148  spender */\n      dup6\n        /* \"@openzeppelin/contracts/token/ERC20/ERC20.sol\":4150:4155  value */\n      dup6\n        /* \"@openzeppelin/contracts/token/ERC20/ERC20.sol\":4125:4133  _approve */\n      tag_120\n        /* \"@openzeppelin/contracts/token/ERC20/ERC20.sol\":4125:4156  _approve(owner, spender, value) */\n      jump\t// in\n    tag_119:\n        /* \"@openzeppelin/contracts/token/ERC20/ERC20.sol\":4173:4177  true */\n      0x01\n        /* \"@openzeppelin/contracts/token/ERC20/ERC20.sol\":4166:4177  return true */\n      swap2\n      pop\n      pop\n        /* \"@openzeppelin/contracts/token/ERC20/ERC20.sol\":3998:4184  function approve(address spender, uint256 value) public virtual returns (bool) {... */\n      swap3\n      swap2\n      pop\n      pop\n      jump\t// out\n        /* \"@openzeppelin/contracts/token/ERC20/ERC20.sol\":2849:2946  function totalSupply() public view virtual returns (uint256) {... */\n    tag_39:\n        /* \"@openzeppelin/contracts/token/ERC20/ERC20.sol\":2901:2908  uint256 */\n      0x00\n        /* \"@openzeppelin/contracts/token/ERC20/ERC20.sol\":2927:2939  _totalSupply */\n      sload(0x02)\n        /* \"@openzeppelin/contracts/token/ERC20/ERC20.sol\":2920:2939  return _totalSupply */\n      swap1\n      pop\n        /* \"@openzeppelin/contracts/token/ERC20/ERC20.sol\":2849:2946  function totalSupply() public view virtual returns (uint256) {... */\n      swap1\n      jump\t// out\n        /* \"@openzeppelin/contracts/token/ERC20/ERC20.sol\":4776:5020  function transferFrom(address from, address to, uint256 value) public virtual returns (bool) {... */\n    tag_45:\n        /* \"@openzeppelin/contracts/token/ERC20/ERC20.sol\":4863:4867  bool */\n      0x00\n        /* \"@openzeppelin/contracts/token/ERC20/ERC20.sol\":4879:4894  address spender */\n      0x00\n        /* \"@openzeppelin/contracts/token/ERC20/ERC20.sol\":4897:4909  _msgSender() */\n      tag_123\n        /* \"@openzeppelin/contracts/token/ERC20/ERC20.sol\":4897:4907  _msgSender */\n      tag_118\n        /* \"@openzeppelin/contracts/token/ERC20/ERC20.sol\":4897:4909  _msgSender() */\n      jump\t// in\n    tag_123:\n        /* \"@openzeppelin/contracts/token/ERC20/ERC20.sol\":4879:4909  address spender = _msgSender() */\n      swap1\n      pop\n        /* \"@openzeppelin/contracts/token/ERC20/ERC20.sol\":4919:4956  _spendAllowance(from, spender, value) */\n      tag_124\n        /* \"@openzeppelin/contracts/token/ERC20/ERC20.sol\":4935:4939  from */\n      dup6\n        /* \"@openzeppelin/contracts/token/ERC20/ERC20.sol\":4941:4948  spender */\n      dup3\n        /* \"@openzeppelin/contracts/token/ERC20/ERC20.sol\":4950:4955  value */\n      dup6\n        /* \"@openzeppelin/contracts/token/ERC20/ERC20.sol\":4919:4934  _spendAllowance */\n      tag_125\n        /* \"@openzeppelin/contracts/token/ERC20/ERC20.sol\":4919:4956  _spendAllowance(from, spender, value) */\n      jump\t// in\n    tag_124:\n        /* \"@openzeppelin/contracts/token/ERC20/ERC20.sol\":4966:4992  _transfer(from, to, value) */\n      tag_126\n        /* \"@openzeppelin/contracts/token/ERC20/ERC20.sol\":4976:4980  from */\n      dup6\n        /* \"@openzeppelin/contracts/token/ERC20/ERC20.sol\":4982:4984  to */\n      dup6\n        /* \"@openzeppelin/contracts/token/ERC20/ERC20.sol\":4986:4991  value */\n      dup6\n        /* \"@openzeppelin/contracts/token/ERC20/ERC20.sol\":4966:4975  _transfer */\n      tag_127\n        /* \"@openzeppelin/contracts/token/ERC20/ERC20.sol\":4966:4992  _transfer(from, to, value) */\n      jump\t// in\n    tag_126:\n        /* \"@openzeppelin/contracts/token/ERC20/ERC20.sol\":5009:5013  true */\n      0x01\n        /* \"@openzeppelin/contracts/token/ERC20/ERC20.sol\":5002:5013  return true */\n      swap2\n      pop\n      pop\n        /* \"@openzeppelin/contracts/token/ERC20/ERC20.sol\":4776:5020  function transferFrom(address from, address to, uint256 value) public virtual returns (bool) {... */\n      swap4\n      swap3\n      pop\n      pop\n      pop\n      jump\t// out\n        /* \"@openzeppelin/contracts/token/ERC20/ERC20.sol\":2707:2789  function decimals() public view virtual returns (uint8) {... */\n    tag_48:\n        /* \"@openzeppelin/contracts/token/ERC20/ERC20.sol\":2756:2761  uint8 */\n      0x00\n        /* \"@openzeppelin/contracts/token/ERC20/ERC20.sol\":2780:2782  18 */\n      0x12\n        /* \"@openzeppelin/contracts/token/ERC20/ERC20.sol\":2773:2782  return 18 */\n      swap1\n      pop\n        /* \"@openzeppelin/contracts/token/ERC20/ERC20.sol\":2707:2789  function decimals() public view virtual returns (uint8) {... */\n      swap1\n      jump\t// out\n        /* \"Qsito/carnaval.sol\":2155:2680  function addJurado(string memory _nomeJurado, uint _quesitoId) public onlyOwner returns (uint) {... */\n    tag_54:\n        /* \"Qsito/carnaval.sol\":2244:2248  uint */\n      0x00\n        /* \"Qsito/carnaval.sol\":1748:1753  owner */\n      0x0b\n      0x00\n      swap1\n      sload\n      swap1\n      0x0100\n      exp\n      swap1\n      div\n      0xffffffffffffffffffffffffffffffffffffffff\n      and\n        /* \"Qsito/carnaval.sol\":1734:1753  msg.sender == owner */\n      0xffffffffffffffffffffffffffffffffffffffff\n      and\n        /* \"Qsito/carnaval.sol\":1734:1744  msg.sender */\n      caller\n        /* \"Qsito/carnaval.sol\":1734:1753  msg.sender == owner */\n      0xffffffffffffffffffffffffffffffffffffffff\n      and\n      eq\n        /* \"Qsito/carnaval.sol\":1726:1789  require(msg.sender == owner, \"Acesso restrito ao proprietario\") */\n      tag_130\n      jumpi\n      mload(0x40)\n      0x08c379a000000000000000000000000000000000000000000000000000000000\n      dup2\n      mstore\n      0x04\n      add\n      tag_131\n      swap1\n      tag_132\n      jump\t// in\n    tag_131:\n      mload(0x40)\n      dup1\n      swap2\n      sub\n      swap1\n      revert\n    tag_130:\n        /* \"Qsito/carnaval.sol\":579:581  36 */\n      0x24\n        /* \"Qsito/carnaval.sol\":2269:2286  quantidadeJurados */\n      0x05\n        /* \"Qsito/carnaval.sol\":2269:2293  quantidadeJurados.length */\n      dup1\n      sload\n      swap1\n      pop\n        /* \"Qsito/carnaval.sol\":2269:2314  quantidadeJurados.length < QUANTIDADE_JURADOS */\n      lt\n        /* \"Qsito/carnaval.sol\":2261:2347  require(quantidadeJurados.length < QUANTIDADE_JURADOS, \"Quantidade maxima de jurados\") */\n      tag_134\n      jumpi\n      mload(0x40)\n      0x08c379a000000000000000000000000000000000000000000000000000000000\n      dup2\n      mstore\n      0x04\n      add\n      tag_135\n      swap1\n      tag_136\n      jump\t// in\n    tag_135:\n      mload(0x40)\n      dup1\n      swap2\n      sub\n      swap1\n      revert\n    tag_134:\n        /* \"Qsito/carnaval.sol\":2380:2452  Jurado({endereco: msg.sender, nome: _nomeJurado, quesitoId: _quesitoId}) */\n      mload(0x40)\n      dup1\n      0x60\n      add\n      0x40\n      mstore\n      dup1\n        /* \"Qsito/carnaval.sol\":2398:2408  msg.sender */\n      caller\n        /* \"Qsito/carnaval.sol\":2380:2452  Jurado({endereco: msg.sender, nome: _nomeJurado, quesitoId: _quesitoId}) */\n      0xffffffffffffffffffffffffffffffffffffffff\n      and\n      dup2\n      mstore\n      0x20\n      add\n        /* \"Qsito/carnaval.sol\":2416:2427  _nomeJurado */\n      dup5\n        /* \"Qsito/carnaval.sol\":2380:2452  Jurado({endereco: msg.sender, nome: _nomeJurado, quesitoId: _quesitoId}) */\n      dup2\n      mstore\n      0x20\n      add\n        /* \"Qsito/carnaval.sol\":2440:2450  _quesitoId */\n      dup4\n        /* \"Qsito/carnaval.sol\":2380:2452  Jurado({endereco: msg.sender, nome: _nomeJurado, quesitoId: _quesitoId}) */\n      dup2\n      mstore\n      pop\n        /* \"Qsito/carnaval.sol\":2358:2365  jurados */\n      0x09\n        /* \"Qsito/carnaval.sol\":2358:2377  jurados[msg.sender] */\n      0x00\n        /* \"Qsito/carnaval.sol\":2366:2376  msg.sender */\n      caller\n        /* \"Qsito/carnaval.sol\":2358:2377  jurados[msg.sender] */\n      0xffffffffffffffffffffffffffffffffffffffff\n      and\n      0xffffffffffffffffffffffffffffffffffffffff\n      and\n      dup2\n      mstore\n      0x20\n      add\n      swap1\n      dup2\n      mstore\n      0x20\n      add\n      0x00\n      keccak256\n        /* \"Qsito/carnaval.sol\":2358:2452  jurados[msg.sender] = Jurado({endereco: msg.sender, nome: _nomeJurado, quesitoId: _quesitoId}) */\n      0x00\n      dup3\n      add\n      mload\n      dup2\n      0x00\n      add\n      exp(0x0100, 0x00)\n      dup2\n      sload\n      dup2\n      0xffffffffffffffffffffffffffffffffffffffff\n      mul\n      not\n      and\n      swap1\n      dup4\n      0xffffffffffffffffffffffffffffffffffffffff\n      and\n      mul\n      or\n      swap1\n      sstore\n      pop\n      0x20\n      dup3\n      add\n      mload\n      dup2\n      0x01\n      add\n      swap1\n      dup2\n      tag_137\n      swap2\n      swap1\n      tag_138\n      jump\t// in\n    tag_137:\n      pop\n      0x40\n      dup3\n      add\n      mload\n      dup2\n      0x02\n      add\n      sstore\n      swap1\n      pop\n      pop\n        /* \"Qsito/carnaval.sol\":2463:2480  quantidadeJurados */\n      0x05\n        /* \"Qsito/carnaval.sol\":2486:2558  Jurado({endereco: msg.sender, nome: _nomeJurado, quesitoId: _quesitoId}) */\n      mload(0x40)\n      dup1\n      0x60\n      add\n      0x40\n      mstore\n      dup1\n        /* \"Qsito/carnaval.sol\":2504:2514  msg.sender */\n      caller\n        /* \"Qsito/carnaval.sol\":2486:2558  Jurado({endereco: msg.sender, nome: _nomeJurado, quesitoId: _quesitoId}) */\n      0xffffffffffffffffffffffffffffffffffffffff\n      and\n      dup2\n      mstore\n      0x20\n      add\n        /* \"Qsito/carnaval.sol\":2522:2533  _nomeJurado */\n      dup6\n        /* \"Qsito/carnaval.sol\":2486:2558  Jurado({endereco: msg.sender, nome: _nomeJurado, quesitoId: _quesitoId}) */\n      dup2\n      mstore\n      0x20\n      add\n        /* \"Qsito/carnaval.sol\":2546:2556  _quesitoId */\n      dup5\n        /* \"Qsito/carnaval.sol\":2486:2558  Jurado({endereco: msg.sender, nome: _nomeJurado, quesitoId: _quesitoId}) */\n      dup2\n      mstore\n      pop\n        /* \"Qsito/carnaval.sol\":2463:2559  quantidadeJurados.push(Jurado({endereco: msg.sender, nome: _nomeJurado, quesitoId: _quesitoId})) */\n      swap1\n      dup1\n      0x01\n      dup2\n      sload\n      add\n      dup1\n      dup3\n      sstore\n      dup1\n      swap2\n      pop\n      pop\n      0x01\n      swap1\n      sub\n      swap1\n      0x00\n      mstore\n      keccak256(0x00, 0x20)\n      swap1\n      0x03\n      mul\n      add\n      0x00\n      swap1\n      swap2\n      swap1\n      swap2\n      swap1\n      swap2\n      pop\n      0x00\n      dup3\n      add\n      mload\n      dup2\n      0x00\n      add\n      exp(0x0100, 0x00)\n      dup2\n      sload\n      dup2\n      0xffffffffffffffffffffffffffffffffffffffff\n      mul\n      not\n      and\n      swap1\n      dup4\n      0xffffffffffffffffffffffffffffffffffffffff\n      and\n      mul\n      or\n      swap1\n      sstore\n      pop\n      0x20\n      dup3\n      add\n      mload\n      dup2\n      0x01\n      add\n      swap1\n      dup2\n      tag_140\n      swap2\n      swap1\n      tag_138\n      jump\t// in\n    tag_140:\n      pop\n      0x40\n      dup3\n      add\n      mload\n      dup2\n      0x02\n      add\n      sstore\n      pop\n      pop\n        /* \"Qsito/carnaval.sol\":2602:2612  msg.sender */\n      caller\n        /* \"Qsito/carnaval.sol\":2585:2626  JuradoAdicionado(msg.sender, _nomeJurado) */\n      0xffffffffffffffffffffffffffffffffffffffff\n      and\n      0xa1fb37ecddd4c220fd008a54a22fb96ce4db7248e0f4987e445259dc6e55188b\n        /* \"Qsito/carnaval.sol\":2614:2625  _nomeJurado */\n      dup5\n        /* \"Qsito/carnaval.sol\":2585:2626  JuradoAdicionado(msg.sender, _nomeJurado) */\n      mload(0x40)\n      tag_141\n      swap2\n      swap1\n      tag_31\n      jump\t// in\n    tag_141:\n      mload(0x40)\n      dup1\n      swap2\n      sub\n      swap1\n      log2\n        /* \"Qsito/carnaval.sol\":2671:2672  1 */\n      0x01\n        /* \"Qsito/carnaval.sol\":2644:2661  quantidadeJurados */\n      0x05\n        /* \"Qsito/carnaval.sol\":2644:2668  quantidadeJurados.length */\n      dup1\n      sload\n      swap1\n      pop\n        /* \"Qsito/carnaval.sol\":2644:2672  quantidadeJurados.length - 1 */\n      tag_142\n      swap2\n      swap1\n      tag_143\n      jump\t// in\n    tag_142:\n        /* \"Qsito/carnaval.sol\":2637:2672  return quantidadeJurados.length - 1 */\n      swap1\n      pop\n        /* \"Qsito/carnaval.sol\":2155:2680  function addJurado(string memory _nomeJurado, uint _quesitoId) public onlyOwner returns (uint) {... */\n      swap3\n      swap2\n      pop\n      pop\n      jump\t// out\n        /* \"Qsito/carnaval.sol\":4399:4650  function getNota(uint _escolaId, uint _quesitoId) public view returns (uint256) {... */\n    tag_59:\n        /* \"Qsito/carnaval.sol\":4470:4477  uint256 */\n      0x00\n        /* \"Qsito/carnaval.sol\":4550:4551  0 */\n      0x00\n        /* \"Qsito/carnaval.sol\":4498:4519  notasPorEscolaQuesito */\n      0x0a\n        /* \"Qsito/carnaval.sol\":4498:4530  notasPorEscolaQuesito[_escolaId] */\n      0x00\n        /* \"Qsito/carnaval.sol\":4520:4529  _escolaId */\n      dup6\n        /* \"Qsito/carnaval.sol\":4498:4530  notasPorEscolaQuesito[_escolaId] */\n      dup2\n      mstore\n      0x20\n      add\n      swap1\n      dup2\n      mstore\n      0x20\n      add\n      0x00\n      keccak256\n        /* \"Qsito/carnaval.sol\":4498:4542  notasPorEscolaQuesito[_escolaId][_quesitoId] */\n      0x00\n        /* \"Qsito/carnaval.sol\":4531:4541  _quesitoId */\n      dup5\n        /* \"Qsito/carnaval.sol\":4498:4542  notasPorEscolaQuesito[_escolaId][_quesitoId] */\n      dup2\n      mstore\n      0x20\n      add\n      swap1\n      dup2\n      mstore\n      0x20\n      add\n      0x00\n      keccak256\n        /* \"Qsito/carnaval.sol\":4498:4547  notasPorEscolaQuesito[_escolaId][_quesitoId].nota */\n      0x03\n      add\n      sload\n        /* \"Qsito/carnaval.sol\":4498:4551  notasPorEscolaQuesito[_escolaId][_quesitoId].nota > 0 */\n      gt\n        /* \"Qsito/carnaval.sol\":4490:4575  require(notasPorEscolaQuesito[_escolaId][_quesitoId].nota > 0, \"Nota nao encontrada\") */\n      tag_145\n      jumpi\n      mload(0x40)\n      0x08c379a000000000000000000000000000000000000000000000000000000000\n      dup2\n      mstore\n      0x04\n      add\n      tag_146\n      swap1\n      tag_147\n      jump\t// in\n    tag_146:\n      mload(0x40)\n      dup1\n      swap2\n      sub\n      swap1\n      revert\n    tag_145:\n        /* \"Qsito/carnaval.sol\":4593:4614  notasPorEscolaQuesito */\n      0x0a\n        /* \"Qsito/carnaval.sol\":4593:4625  notasPorEscolaQuesito[_escolaId] */\n      0x00\n        /* \"Qsito/carnaval.sol\":4615:4624  _escolaId */\n      dup5\n        /* \"Qsito/carnaval.sol\":4593:4625  notasPorEscolaQuesito[_escolaId] */\n      dup2\n      mstore\n      0x20\n      add\n      swap1\n      dup2\n      mstore\n      0x20\n      add\n      0x00\n      keccak256\n        /* \"Qsito/carnaval.sol\":4593:4637  notasPorEscolaQuesito[_escolaId][_quesitoId] */\n      0x00\n        /* \"Qsito/carnaval.sol\":4626:4636  _quesitoId */\n      dup4\n        /* \"Qsito/carnaval.sol\":4593:4637  notasPorEscolaQuesito[_escolaId][_quesitoId] */\n      dup2\n      mstore\n      0x20\n      add\n      swap1\n      dup2\n      mstore\n      0x20\n      add\n      0x00\n      keccak256\n        /* \"Qsito/carnaval.sol\":4593:4642  notasPorEscolaQuesito[_escolaId][_quesitoId].nota */\n      0x03\n      add\n      sload\n        /* \"Qsito/carnaval.sol\":4586:4642  return notasPorEscolaQuesito[_escolaId][_quesitoId].nota */\n      swap1\n      pop\n        /* \"Qsito/carnaval.sol\":4399:4650  function getNota(uint _escolaId, uint _quesitoId) public view returns (uint256) {... */\n      swap3\n      swap2\n      pop\n      pop\n      jump\t// out\n        /* \"@openzeppelin/contracts/token/ERC20/ERC20.sol\":3004:3120  function balanceOf(address account) public view virtual returns (uint256) {... */\n    tag_64:\n        /* \"@openzeppelin/contracts/token/ERC20/ERC20.sol\":3069:3076  uint256 */\n      0x00\n        /* \"@openzeppelin/contracts/token/ERC20/ERC20.sol\":3095:3104  _balances */\n      0x00\n        /* \"@openzeppelin/contracts/token/ERC20/ERC20.sol\":3095:3113  _balances[account] */\n      0x00\n        /* \"@openzeppelin/contracts/token/ERC20/ERC20.sol\":3105:3112  account */\n      dup4\n        /* \"@openzeppelin/contracts/token/ERC20/ERC20.sol\":3095:3113  _balances[account] */\n      0xffffffffffffffffffffffffffffffffffffffff\n      and\n      0xffffffffffffffffffffffffffffffffffffffff\n      and\n      dup2\n      mstore\n      0x20\n      add\n      swap1\n      dup2\n      mstore\n      0x20\n      add\n      0x00\n      keccak256\n      sload\n        /* \"@openzeppelin/contracts/token/ERC20/ERC20.sol\":3088:3113  return _balances[account] */\n      swap1\n      pop\n        /* \"@openzeppelin/contracts/token/ERC20/ERC20.sol\":3004:3120  function balanceOf(address account) public view virtual returns (uint256) {... */\n      swap2\n      swap1\n      pop\n      jump\t// out\n        /* \"Qsito/carnaval.sol\":1007:1027  address public owner */\n    tag_67:\n      0x0b\n      0x00\n      swap1\n      sload\n      swap1\n      0x0100\n      exp\n      swap1\n      div\n      0xffffffffffffffffffffffffffffffffffffffff\n      and\n      dup2\n      jump\t// out\n        /* \"@openzeppelin/contracts/token/ERC20/ERC20.sol\":1981:2074  function symbol() public view virtual returns (string memory) {... */\n    tag_71:\n        /* \"@openzeppelin/contracts/token/ERC20/ERC20.sol\":2028:2041  string memory */\n      0x60\n        /* \"@openzeppelin/contracts/token/ERC20/ERC20.sol\":2060:2067  _symbol */\n      0x04\n        /* \"@openzeppelin/contracts/token/ERC20/ERC20.sol\":2053:2067  return _symbol */\n      dup1\n      sload\n      tag_150\n      swap1\n      tag_111\n      jump\t// in\n    tag_150:\n      dup1\n      0x1f\n      add\n      0x20\n      dup1\n      swap2\n      div\n      mul\n      0x20\n      add\n      mload(0x40)\n      swap1\n      dup2\n      add\n      0x40\n      mstore\n      dup1\n      swap3\n      swap2\n      swap1\n      dup2\n      dup2\n      mstore\n      0x20\n      add\n      dup3\n      dup1\n      sload\n      tag_151\n      swap1\n      tag_111\n      jump\t// in\n    tag_151:\n      dup1\n      iszero\n      tag_152\n      jumpi\n      dup1\n      0x1f\n      lt\n      tag_153\n      jumpi\n      0x0100\n      dup1\n      dup4\n      sload\n      div\n      mul\n      dup4\n      mstore\n      swap2\n      0x20\n      add\n      swap2\n      jump(tag_152)\n    tag_153:\n      dup3\n      add\n      swap2\n      swap1\n      0x00\n      mstore\n      keccak256(0x00, 0x20)\n      swap1\n    tag_154:\n      dup2\n      sload\n      dup2\n      mstore\n      swap1\n      0x01\n      add\n      swap1\n      0x20\n      add\n      dup1\n      dup4\n      gt\n      tag_154\n      jumpi\n      dup3\n      swap1\n      sub\n      0x1f\n      and\n      dup3\n      add\n      swap2\n    tag_152:\n      pop\n      pop\n      pop\n      pop\n      pop\n      swap1\n      pop\n        /* \"@openzeppelin/contracts/token/ERC20/ERC20.sol\":1981:2074  function symbol() public view virtual returns (string memory) {... */\n      swap1\n      jump\t// out\n        /* \"@openzeppelin/contracts/token/ERC20/ERC20.sol\":3315:3493  function transfer(address to, uint256 value) public virtual returns (bool) {... */\n    tag_75:\n        /* \"@openzeppelin/contracts/token/ERC20/ERC20.sol\":3384:3388  bool */\n      0x00\n        /* \"@openzeppelin/contracts/token/ERC20/ERC20.sol\":3400:3413  address owner */\n      0x00\n        /* \"@openzeppelin/contracts/token/ERC20/ERC20.sol\":3416:3428  _msgSender() */\n      tag_156\n        /* \"@openzeppelin/contracts/token/ERC20/ERC20.sol\":3416:3426  _msgSender */\n      tag_118\n        /* \"@openzeppelin/contracts/token/ERC20/ERC20.sol\":3416:3428  _msgSender() */\n      jump\t// in\n    tag_156:\n        /* \"@openzeppelin/contracts/token/ERC20/ERC20.sol\":3400:3428  address owner = _msgSender() */\n      swap1\n      pop\n        /* \"@openzeppelin/contracts/token/ERC20/ERC20.sol\":3438:3465  _transfer(owner, to, value) */\n      tag_157\n        /* \"@openzeppelin/contracts/token/ERC20/ERC20.sol\":3448:3453  owner */\n      dup2\n        /* \"@openzeppelin/contracts/token/ERC20/ERC20.sol\":3455:3457  to */\n      dup6\n        /* \"@openzeppelin/contracts/token/ERC20/ERC20.sol\":3459:3464  value */\n      dup6\n        /* \"@openzeppelin/contracts/token/ERC20/ERC20.sol\":3438:3447  _transfer */\n      tag_127\n        /* \"@openzeppelin/contracts/token/ERC20/ERC20.sol\":3438:3465  _transfer(owner, to, value) */\n      jump\t// in\n    tag_157:\n        /* \"@openzeppelin/contracts/token/ERC20/ERC20.sol\":3482:3486  true */\n      0x01\n        /* \"@openzeppelin/contracts/token/ERC20/ERC20.sol\":3475:3486  return true */\n      swap2\n      pop\n      pop\n        /* \"@openzeppelin/contracts/token/ERC20/ERC20.sol\":3315:3493  function transfer(address to, uint256 value) public virtual returns (bool) {... */\n      swap3\n      swap2\n      pop\n      pop\n      jump\t// out\n        /* \"Qsito/carnaval.sol\":886:953  mapping(uint => mapping(uint => Nota)) public notasPorEscolaQuesito */\n    tag_79:\n      mstore(0x20, 0x0a)\n      dup2\n      0x00\n      mstore\n      mstore(0x20, keccak256(0x00, 0x40))\n      dup1\n      0x00\n      mstore\n      keccak256(0x00, 0x40)\n      0x00\n      swap2\n      pop\n      swap2\n      pop\n      pop\n      dup1\n      0x00\n      add\n      sload\n      swap1\n      dup1\n      0x01\n      add\n      sload\n      swap1\n      dup1\n      0x02\n      add\n      0x00\n      swap1\n      sload\n      swap1\n      0x0100\n      exp\n      swap1\n      div\n      0xffffffffffffffffffffffffffffffffffffffff\n      and\n      swap1\n      dup1\n      0x03\n      add\n      sload\n      swap1\n      pop\n      dup5\n      jump\t// out\n        /* \"Qsito/carnaval.sol\":5065:5240  function getJurados() public view returns  (Jurado[] memory){... */\n    tag_83:\n        /* \"Qsito/carnaval.sol\":5109:5124  Jurado[] memory */\n      0x60\n        /* \"Qsito/carnaval.sol\":5171:5172  0 */\n      0x00\n        /* \"Qsito/carnaval.sol\":5144:5161  quantidadeJurados */\n      0x05\n        /* \"Qsito/carnaval.sol\":5144:5168  quantidadeJurados.length */\n      dup1\n      sload\n      swap1\n      pop\n        /* \"Qsito/carnaval.sol\":5144:5172  quantidadeJurados.length > 0 */\n      gt\n        /* \"Qsito/carnaval.sol\":5136:5191  require(quantidadeJurados.length > 0, \"No judge found\") */\n      tag_159\n      jumpi\n      mload(0x40)\n      0x08c379a000000000000000000000000000000000000000000000000000000000\n      dup2\n      mstore\n      0x04\n      add\n      tag_160\n      swap1\n      tag_161\n      jump\t// in\n    tag_160:\n      mload(0x40)\n      dup1\n      swap2\n      sub\n      swap1\n      revert\n    tag_159:\n        /* \"Qsito/carnaval.sol\":5215:5232  quantidadeJurados */\n      0x05\n        /* \"Qsito/carnaval.sol\":5208:5232  return quantidadeJurados */\n      dup1\n      sload\n      dup1\n      0x20\n      mul\n      0x20\n      add\n      mload(0x40)\n      swap1\n      dup2\n      add\n      0x40\n      mstore\n      dup1\n      swap3\n      swap2\n      swap1\n      dup2\n      dup2\n      mstore\n      0x20\n      add\n      0x00\n      swap1\n    tag_162:\n      dup3\n      dup3\n      lt\n      iszero\n      tag_163\n      jumpi\n      dup4\n      dup3\n      swap1\n      0x00\n      mstore\n      keccak256(0x00, 0x20)\n      swap1\n      0x03\n      mul\n      add\n      mload(0x40)\n      dup1\n      0x60\n      add\n      0x40\n      mstore\n      swap1\n      dup2\n      0x00\n      dup3\n      add\n      0x00\n      swap1\n      sload\n      swap1\n      0x0100\n      exp\n      swap1\n      div\n      0xffffffffffffffffffffffffffffffffffffffff\n      and\n      0xffffffffffffffffffffffffffffffffffffffff\n      and\n      0xffffffffffffffffffffffffffffffffffffffff\n      and\n      dup2\n      mstore\n      0x20\n      add\n      0x01\n      dup3\n      add\n      dup1\n      sload\n      tag_165\n      swap1\n      tag_111\n      jump\t// in\n    tag_165:\n      dup1\n      0x1f\n      add\n      0x20\n      dup1\n      swap2\n      div\n      mul\n      0x20\n      add\n      mload(0x40)\n      swap1\n      dup2\n      add\n      0x40\n      mstore\n      dup1\n      swap3\n      swap2\n      swap1\n      dup2\n      dup2\n      mstore\n      0x20\n      add\n      dup3\n      dup1\n      sload\n      tag_166\n      swap1\n      tag_111\n      jump\t// in\n    tag_166:\n      dup1\n      iszero\n      tag_167\n      jumpi\n      dup1\n      0x1f\n      lt\n      tag_168\n      jumpi\n      0x0100\n      dup1\n      dup4\n      sload\n      div\n      mul\n      dup4\n      mstore\n      swap2\n      0x20\n      add\n      swap2\n      jump(tag_167)\n    tag_168:\n      dup3\n      add\n      swap2\n      swap1\n      0x00\n      mstore\n      keccak256(0x00, 0x20)\n      swap1\n    tag_169:\n      dup2\n      sload\n      dup2\n      mstore\n      swap1\n      0x01\n      add\n      swap1\n      0x20\n      add\n      dup1\n      dup4\n      gt\n      tag_169\n      jumpi\n      dup3\n      swap1\n      sub\n      0x1f\n      and\n      dup3\n      add\n      swap2\n    tag_167:\n      pop\n      pop\n      pop\n      pop\n      pop\n      dup2\n      mstore\n      0x20\n      add\n      0x02\n      dup3\n      add\n      sload\n      dup2\n      mstore\n      pop\n      pop\n      dup2\n      mstore\n      0x20\n      add\n      swap1\n      0x01\n      add\n      swap1\n      jump(tag_162)\n    tag_163:\n      pop\n      pop\n      pop\n      pop\n      swap1\n      pop\n        /* \"Qsito/carnaval.sol\":5065:5240  function getJurados() public view returns  (Jurado[] memory){... */\n      swap1\n      jump\t// out\n        /* \"@openzeppelin/contracts/token/ERC20/ERC20.sol\":3551:3691  function allowance(address owner, address spender) public view virtual returns (uint256) {... */\n    tag_89:\n        /* \"@openzeppelin/contracts/token/ERC20/ERC20.sol\":3631:3638  uint256 */\n      0x00\n        /* \"@openzeppelin/contracts/token/ERC20/ERC20.sol\":3657:3668  _allowances */\n      0x01\n        /* \"@openzeppelin/contracts/token/ERC20/ERC20.sol\":3657:3675  _allowances[owner] */\n      0x00\n        /* \"@openzeppelin/contracts/token/ERC20/ERC20.sol\":3669:3674  owner */\n      dup5\n        /* \"@openzeppelin/contracts/token/ERC20/ERC20.sol\":3657:3675  _allowances[owner] */\n      0xffffffffffffffffffffffffffffffffffffffff\n      and\n      0xffffffffffffffffffffffffffffffffffffffff\n      and\n      dup2\n      mstore\n      0x20\n      add\n      swap1\n      dup2\n      mstore\n      0x20\n      add\n      0x00\n      keccak256\n        /* \"@openzeppelin/contracts/token/ERC20/ERC20.sol\":3657:3684  _allowances[owner][spender] */\n      0x00\n        /* \"@openzeppelin/contracts/token/ERC20/ERC20.sol\":3676:3683  spender */\n      dup4\n        /* \"@openzeppelin/contracts/token/ERC20/ERC20.sol\":3657:3684  _allowances[owner][spender] */\n      0xffffffffffffffffffffffffffffffffffffffff\n      and\n      0xffffffffffffffffffffffffffffffffffffffff\n      and\n      dup2\n      mstore\n      0x20\n      add\n      swap1\n      dup2\n      mstore\n      0x20\n      add\n      0x00\n      keccak256\n      sload\n        /* \"@openzeppelin/contracts/token/ERC20/ERC20.sol\":3650:3684  return _allowances[owner][spender] */\n      swap1\n      pop\n        /* \"@openzeppelin/contracts/token/ERC20/ERC20.sol\":3551:3691  function allowance(address owner, address spender) public view virtual returns (uint256) {... */\n      swap3\n      swap2\n      pop\n      pop\n      jump\t// out\n        /* \"Qsito/carnaval.sol\":4873:5034  function getEscolas() public view returns  (string[] memory){... */\n    tag_92:\n        /* \"Qsito/carnaval.sol\":4917:4932  string[] memory */\n      0x60\n        /* \"Qsito/carnaval.sol\":4970:4971  0 */\n      0x00\n        /* \"Qsito/carnaval.sol\":4952:4960  _escolas */\n      0x06\n        /* \"Qsito/carnaval.sol\":4952:4967  _escolas.length */\n      dup1\n      sload\n      swap1\n      pop\n        /* \"Qsito/carnaval.sol\":4952:4971  _escolas.length > 0 */\n      gt\n        /* \"Qsito/carnaval.sol\":4944:4991  require(_escolas.length > 0, \"No escola found\") */\n      tag_172\n      jumpi\n      mload(0x40)\n      0x08c379a000000000000000000000000000000000000000000000000000000000\n      dup2\n      mstore\n      0x04\n      add\n      tag_173\n      swap1\n      tag_174\n      jump\t// in\n    tag_173:\n      mload(0x40)\n      dup1\n      swap2\n      sub\n      swap1\n      revert\n    tag_172:\n        /* \"Qsito/carnaval.sol\":5015:5026  nomeEscolas */\n      0x0c\n        /* \"Qsito/carnaval.sol\":5008:5026  return nomeEscolas */\n      dup1\n      sload\n      dup1\n      0x20\n      mul\n      0x20\n      add\n      mload(0x40)\n      swap1\n      dup2\n      add\n      0x40\n      mstore\n      dup1\n      swap3\n      swap2\n      swap1\n      dup2\n      dup2\n      mstore\n      0x20\n      add\n      0x00\n      swap1\n    tag_175:\n      dup3\n      dup3\n      lt\n      iszero\n      tag_176\n      jumpi\n      dup4\n      dup3\n      swap1\n      0x00\n      mstore\n      keccak256(0x00, 0x20)\n      add\n      dup1\n      sload\n      tag_178\n      swap1\n      tag_111\n      jump\t// in\n    tag_178:\n      dup1\n      0x1f\n      add\n      0x20\n      dup1\n      swap2\n      div\n      mul\n      0x20\n      add\n      mload(0x40)\n      swap1\n      dup2\n      add\n      0x40\n      mstore\n      dup1\n      swap3\n      swap2\n      swap1\n      dup2\n      dup2\n      mstore\n      0x20\n      add\n      dup3\n      dup1\n      sload\n      tag_179\n      swap1\n      tag_111\n      jump\t// in\n    tag_179:\n      dup1\n      iszero\n      tag_180\n      jumpi\n      dup1\n      0x1f\n      lt\n      tag_181\n      jumpi\n      0x0100\n      dup1\n      dup4\n      sload\n      div\n      mul\n      dup4\n      mstore\n      swap2\n      0x20\n      add\n      swap2\n      jump(tag_180)\n    tag_181:\n      dup3\n      add\n      swap2\n      swap1\n      0x00\n      mstore\n      keccak256(0x00, 0x20)\n      swap1\n    tag_182:\n      dup2\n      sload\n      dup2\n      mstore\n      swap1\n      0x01\n      add\n      swap1\n      0x20\n      add\n      dup1\n      dup4\n      gt\n      tag_182\n      jumpi\n      dup3\n      swap1\n      sub\n      0x1f\n      and\n      dup3\n      add\n      swap2\n    tag_180:\n      pop\n      pop\n      pop\n      pop\n      pop\n      dup2\n      mstore\n      0x20\n      add\n      swap1\n      0x01\n      add\n      swap1\n      jump(tag_175)\n    tag_176:\n      pop\n      pop\n      pop\n      pop\n      swap1\n      pop\n        /* \"Qsito/carnaval.sol\":4873:5034  function getEscolas() public view returns  (string[] memory){... */\n      swap1\n      jump\t// out\n        /* \"Qsito/carnaval.sol\":5278:5673  function limparDados() public onlyOwner {... */\n    tag_96:\n        /* \"Qsito/carnaval.sol\":1748:1753  owner */\n      0x0b\n      0x00\n      swap1\n      sload\n      swap1\n      0x0100\n      exp\n      swap1\n      div\n      0xffffffffffffffffffffffffffffffffffffffff\n      and\n        /* \"Qsito/carnaval.sol\":1734:1753  msg.sender == owner */\n      0xffffffffffffffffffffffffffffffffffffffff\n      and\n        /* \"Qsito/carnaval.sol\":1734:1744  msg.sender */\n      caller\n        /* \"Qsito/carnaval.sol\":1734:1753  msg.sender == owner */\n      0xffffffffffffffffffffffffffffffffffffffff\n      and\n      eq\n        /* \"Qsito/carnaval.sol\":1726:1789  require(msg.sender == owner, \"Acesso restrito ao proprietario\") */\n      tag_184\n      jumpi\n      mload(0x40)\n      0x08c379a000000000000000000000000000000000000000000000000000000000\n      dup2\n      mstore\n      0x04\n      add\n      tag_185\n      swap1\n      tag_132\n      jump\t// in\n    tag_185:\n      mload(0x40)\n      dup1\n      swap2\n      sub\n      swap1\n      revert\n    tag_184:\n        /* \"Qsito/carnaval.sol\":5336:5353  quantidadeJurados */\n      0x05\n      0x00\n        /* \"Qsito/carnaval.sol\":5329:5353  delete quantidadeJurados */\n      tag_187\n      swap2\n      swap1\n      tag_188\n      jump\t// in\n    tag_187:\n        /* \"Qsito/carnaval.sol\":5371:5379  _escolas */\n      0x06\n      0x00\n        /* \"Qsito/carnaval.sol\":5364:5379  delete _escolas */\n      tag_189\n      swap2\n      swap1\n      tag_190\n      jump\t// in\n    tag_189:\n        /* \"Qsito/carnaval.sol\":5397:5406  _quesitos */\n      0x07\n      0x00\n        /* \"Qsito/carnaval.sol\":5390:5406  delete _quesitos */\n      tag_191\n      swap2\n      swap1\n      tag_192\n      jump\t// in\n    tag_191:\n        /* \"Qsito/carnaval.sol\":5424:5429  notas */\n      0x08\n      0x00\n        /* \"Qsito/carnaval.sol\":5417:5429  delete notas */\n      tag_193\n      swap2\n      swap1\n      tag_194\n      jump\t// in\n    tag_193:\n        /* \"Qsito/carnaval.sol\":5483:5489  uint i */\n      0x00\n        /* \"Qsito/carnaval.sol\":5492:5493  0 */\n      0x00\n        /* \"Qsito/carnaval.sol\":5483:5493  uint i = 0 */\n      swap1\n      pop\n        /* \"Qsito/carnaval.sol\":5478:5666  for (uint i = 0; i < QUANTIDADE_ESCOLAS; i++) {... */\n    tag_195:\n        /* \"Qsito/carnaval.sol\":685:687  12 */\n      0x0c\n        /* \"Qsito/carnaval.sol\":5495:5496  i */\n      dup2\n        /* \"Qsito/carnaval.sol\":5495:5517  i < QUANTIDADE_ESCOLAS */\n      lt\n        /* \"Qsito/carnaval.sol\":5478:5666  for (uint i = 0; i < QUANTIDADE_ESCOLAS; i++) {... */\n      iszero\n      tag_196\n      jumpi\n        /* \"Qsito/carnaval.sol\":5544:5550  uint j */\n      0x00\n        /* \"Qsito/carnaval.sol\":5553:5554  0 */\n      0x00\n        /* \"Qsito/carnaval.sol\":5544:5554  uint j = 0 */\n      swap1\n      pop\n        /* \"Qsito/carnaval.sol\":5539:5655  for (uint j = 0; j < QUANTIDADE_QUESITOS; j++) {... */\n    tag_198:\n        /* \"Qsito/carnaval.sol\":633:634  9 */\n      0x09\n        /* \"Qsito/carnaval.sol\":5556:5557  j */\n      dup2\n        /* \"Qsito/carnaval.sol\":5556:5579  j < QUANTIDADE_QUESITOS */\n      lt\n        /* \"Qsito/carnaval.sol\":5539:5655  for (uint j = 0; j < QUANTIDADE_QUESITOS; j++) {... */\n      iszero\n      tag_199\n      jumpi\n        /* \"Qsito/carnaval.sol\":5612:5633  notasPorEscolaQuesito */\n      0x0a\n        /* \"Qsito/carnaval.sol\":5612:5636  notasPorEscolaQuesito[i] */\n      0x00\n        /* \"Qsito/carnaval.sol\":5634:5635  i */\n      dup4\n        /* \"Qsito/carnaval.sol\":5612:5636  notasPorEscolaQuesito[i] */\n      dup2\n      mstore\n      0x20\n      add\n      swap1\n      dup2\n      mstore\n      0x20\n      add\n      0x00\n      keccak256\n        /* \"Qsito/carnaval.sol\":5612:5639  notasPorEscolaQuesito[i][j] */\n      0x00\n        /* \"Qsito/carnaval.sol\":5637:5638  j */\n      dup3\n        /* \"Qsito/carnaval.sol\":5612:5639  notasPorEscolaQuesito[i][j] */\n      dup2\n      mstore\n      0x20\n      add\n      swap1\n      dup2\n      mstore\n      0x20\n      add\n      0x00\n      keccak256\n      0x00\n        /* \"Qsito/carnaval.sol\":5605:5639  delete notasPorEscolaQuesito[i][j] */\n      0x00\n      dup3\n      add\n      0x00\n      swap1\n      sstore\n      0x01\n      dup3\n      add\n      0x00\n      swap1\n      sstore\n      0x02\n      dup3\n      add\n      exp(0x0100, 0x00)\n      dup2\n      sload\n      swap1\n      0xffffffffffffffffffffffffffffffffffffffff\n      mul\n      not\n      and\n      swap1\n      sstore\n      0x03\n      dup3\n      add\n      0x00\n      swap1\n      sstore\n      pop\n      pop\n        /* \"Qsito/carnaval.sol\":5581:5584  j++ */\n      dup1\n      dup1\n      0x01\n      add\n      swap2\n      pop\n      pop\n        /* \"Qsito/carnaval.sol\":5539:5655  for (uint j = 0; j < QUANTIDADE_QUESITOS; j++) {... */\n      jump(tag_198)\n    tag_199:\n      pop\n        /* \"Qsito/carnaval.sol\":5519:5522  i++ */\n      dup1\n      dup1\n      0x01\n      add\n      swap2\n      pop\n      pop\n        /* \"Qsito/carnaval.sol\":5478:5666  for (uint i = 0; i < QUANTIDADE_ESCOLAS; i++) {... */\n      jump(tag_195)\n    tag_196:\n      pop\n        /* \"Qsito/carnaval.sol\":5278:5673  function limparDados() public onlyOwner {... */\n      jump\t// out\n        /* \"Qsito/carnaval.sol\":4683:4843  function getQuesitos() public view returns  (string[] memory){... */\n    tag_98:\n        /* \"Qsito/carnaval.sol\":4728:4743  string[] memory */\n      0x60\n        /* \"Qsito/carnaval.sol\":4782:4783  0 */\n      0x00\n        /* \"Qsito/carnaval.sol\":4763:4772  _quesitos */\n      0x07\n        /* \"Qsito/carnaval.sol\":4763:4779  _quesitos.length */\n      dup1\n      sload\n      swap1\n      pop\n        /* \"Qsito/carnaval.sol\":4763:4783  _quesitos.length > 0 */\n      gt\n        /* \"Qsito/carnaval.sol\":4755:4805  require(_quesitos.length > 0, \"No quesitos found\") */\n      tag_202\n      jumpi\n      mload(0x40)\n      0x08c379a000000000000000000000000000000000000000000000000000000000\n      dup2\n      mstore\n      0x04\n      add\n      tag_203\n      swap1\n      tag_204\n      jump\t// in\n    tag_203:\n      mload(0x40)\n      dup1\n      swap2\n      sub\n      swap1\n      revert\n    tag_202:\n        /* \"Qsito/carnaval.sol\":4829:4835  qsitos */\n      0x0d\n        /* \"Qsito/carnaval.sol\":4822:4835  return qsitos */\n      dup1\n      sload\n      dup1\n      0x20\n      mul\n      0x20\n      add\n      mload(0x40)\n      swap1\n      dup2\n      add\n      0x40\n      mstore\n      dup1\n      swap3\n      swap2\n      swap1\n      dup2\n      dup2\n      mstore\n      0x20\n      add\n      0x00\n      swap1\n    tag_205:\n      dup3\n      dup3\n      lt\n      iszero\n      tag_206\n      jumpi\n      dup4\n      dup3\n      swap1\n      0x00\n      mstore\n      keccak256(0x00, 0x20)\n      add\n      dup1\n      sload\n      tag_208\n      swap1\n      tag_111\n      jump\t// in\n    tag_208:\n      dup1\n      0x1f\n      add\n      0x20\n      dup1\n      swap2\n      div\n      mul\n      0x20\n      add\n      mload(0x40)\n      swap1\n      dup2\n      add\n      0x40\n      mstore\n      dup1\n      swap3\n      swap2\n      swap1\n      dup2\n      dup2\n      mstore\n      0x20\n      add\n      dup3\n      dup1\n      sload\n      tag_209\n      swap1\n      tag_111\n      jump\t// in\n    tag_209:\n      dup1\n      iszero\n      tag_210\n      jumpi\n      dup1\n      0x1f\n      lt\n      tag_211\n      jumpi\n      0x0100\n      dup1\n      dup4\n      sload\n      div\n      mul\n      dup4\n      mstore\n      swap2\n      0x20\n      add\n      swap2\n      jump(tag_210)\n    tag_211:\n      dup3\n      add\n      swap2\n      swap1\n      0x00\n      mstore\n      keccak256(0x00, 0x20)\n      swap1\n    tag_212:\n      dup2\n      sload\n      dup2\n      mstore\n      swap1\n      0x01\n      add\n      swap1\n      0x20\n      add\n      dup1\n      dup4\n      gt\n      tag_212\n      jumpi\n      dup3\n      swap1\n      sub\n      0x1f\n      and\n      dup3\n      add\n      swap2\n    tag_210:\n      pop\n      pop\n      pop\n      pop\n      pop\n      dup2\n      mstore\n      0x20\n      add\n      swap1\n      0x01\n      add\n      swap1\n      jump(tag_205)\n    tag_206:\n      pop\n      pop\n      pop\n      pop\n      swap1\n      pop\n        /* \"Qsito/carnaval.sol\":4683:4843  function getQuesitos() public view returns  (string[] memory){... */\n      swap1\n      jump\t// out\n        /* \"@openzeppelin/contracts/utils/Context.sol\":656:752  function _msgSender() internal view virtual returns (address) {... */\n    tag_118:\n        /* \"@openzeppelin/contracts/utils/Context.sol\":709:716  address */\n      0x00\n        /* \"@openzeppelin/contracts/utils/Context.sol\":735:745  msg.sender */\n      caller\n        /* \"@openzeppelin/contracts/utils/Context.sol\":728:745  return msg.sender */\n      swap1\n      pop\n        /* \"@openzeppelin/contracts/utils/Context.sol\":656:752  function _msgSender() internal view virtual returns (address) {... */\n      swap1\n      jump\t// out\n        /* \"@openzeppelin/contracts/token/ERC20/ERC20.sol\":8726:8854  function _approve(address owner, address spender, uint256 value) internal {... */\n    tag_120:\n        /* \"@openzeppelin/contracts/token/ERC20/ERC20.sol\":8810:8847  _approve(owner, spender, value, true) */\n      tag_215\n        /* \"@openzeppelin/contracts/token/ERC20/ERC20.sol\":8819:8824  owner */\n      dup4\n        /* \"@openzeppelin/contracts/token/ERC20/ERC20.sol\":8826:8833  spender */\n      dup4\n        /* \"@openzeppelin/contracts/token/ERC20/ERC20.sol\":8835:8840  value */\n      dup4\n        /* \"@openzeppelin/contracts/token/ERC20/ERC20.sol\":8842:8846  true */\n      0x01\n        /* \"@openzeppelin/contracts/token/ERC20/ERC20.sol\":8810:8818  _approve */\n      tag_216\n        /* \"@openzeppelin/contracts/token/ERC20/ERC20.sol\":8810:8847  _approve(owner, spender, value, true) */\n      jump\t// in\n    tag_215:\n        /* \"@openzeppelin/contracts/token/ERC20/ERC20.sol\":8726:8854  function _approve(address owner, address spender, uint256 value) internal {... */\n      pop\n      pop\n      pop\n      jump\t// out\n        /* \"@openzeppelin/contracts/token/ERC20/ERC20.sol\":10415:10892  function _spendAllowance(address owner, address spender, uint256 value) internal virtual {... */\n    tag_125:\n        /* \"@openzeppelin/contracts/token/ERC20/ERC20.sol\":10514:10538  uint256 currentAllowance */\n      0x00\n        /* \"@openzeppelin/contracts/token/ERC20/ERC20.sol\":10541:10566  allowance(owner, spender) */\n      tag_218\n        /* \"@openzeppelin/contracts/token/ERC20/ERC20.sol\":10551:10556  owner */\n      dup5\n        /* \"@openzeppelin/contracts/token/ERC20/ERC20.sol\":10558:10565  spender */\n      dup5\n        /* \"@openzeppelin/contracts/token/ERC20/ERC20.sol\":10541:10550  allowance */\n      tag_89\n        /* \"@openzeppelin/contracts/token/ERC20/ERC20.sol\":10541:10566  allowance(owner, spender) */\n      jump\t// in\n    tag_218:\n        /* \"@openzeppelin/contracts/token/ERC20/ERC20.sol\":10514:10566  uint256 currentAllowance = allowance(owner, spender) */\n      swap1\n      pop\n        /* \"@openzeppelin/contracts/token/ERC20/ERC20.sol\":10600:10617  type(uint256).max */\n      0xffffffffffffffffffffffffffffffffffffffffffffffffffffffffffffffff\n        /* \"@openzeppelin/contracts/token/ERC20/ERC20.sol\":10580:10596  currentAllowance */\n      dup2\n        /* \"@openzeppelin/contracts/token/ERC20/ERC20.sol\":10580:10617  currentAllowance != type(uint256).max */\n      eq\n        /* \"@openzeppelin/contracts/token/ERC20/ERC20.sol\":10576:10886  if (currentAllowance != type(uint256).max) {... */\n      tag_219\n      jumpi\n        /* \"@openzeppelin/contracts/token/ERC20/ERC20.sol\":10656:10661  value */\n      dup2\n        /* \"@openzeppelin/contracts/token/ERC20/ERC20.sol\":10637:10653  currentAllowance */\n      dup2\n        /* \"@openzeppelin/contracts/token/ERC20/ERC20.sol\":10637:10661  currentAllowance < value */\n      lt\n        /* \"@openzeppelin/contracts/token/ERC20/ERC20.sol\":10633:10763  if (currentAllowance < value) {... */\n      iszero\n      tag_220\n      jumpi\n        /* \"@openzeppelin/contracts/token/ERC20/ERC20.sol\":10715:10722  spender */\n      dup3\n        /* \"@openzeppelin/contracts/token/ERC20/ERC20.sol\":10724:10740  currentAllowance */\n      dup2\n        /* \"@openzeppelin/contracts/token/ERC20/ERC20.sol\":10742:10747  value */\n      dup4\n        /* \"@openzeppelin/contracts/token/ERC20/ERC20.sol\":10688:10748  ERC20InsufficientAllowance(spender, currentAllowance, value) */\n      mload(0x40)\n      0xfb8f41b200000000000000000000000000000000000000000000000000000000\n      dup2\n      mstore\n      0x04\n      add\n      tag_221\n      swap4\n      swap3\n      swap2\n      swap1\n      tag_222\n      jump\t// in\n    tag_221:\n      mload(0x40)\n      dup1\n      swap2\n      sub\n      swap1\n      revert\n        /* \"@openzeppelin/contracts/token/ERC20/ERC20.sol\":10633:10763  if (currentAllowance < value) {... */\n    tag_220:\n        /* \"@openzeppelin/contracts/token/ERC20/ERC20.sol\":10804:10861  _approve(owner, spender, currentAllowance - value, false) */\n      tag_223\n        /* \"@openzeppelin/contracts/token/ERC20/ERC20.sol\":10813:10818  owner */\n      dup5\n        /* \"@openzeppelin/contracts/token/ERC20/ERC20.sol\":10820:10827  spender */\n      dup5\n        /* \"@openzeppelin/contracts/token/ERC20/ERC20.sol\":10848:10853  value */\n      dup5\n        /* \"@openzeppelin/contracts/token/ERC20/ERC20.sol\":10829:10845  currentAllowance */\n      dup5\n        /* \"@openzeppelin/contracts/token/ERC20/ERC20.sol\":10829:10853  currentAllowance - value */\n      sub\n        /* \"@openzeppelin/contracts/token/ERC20/ERC20.sol\":10855:10860  false */\n      0x00\n        /* \"@openzeppelin/contracts/token/ERC20/ERC20.sol\":10804:10812  _approve */\n      tag_216\n        /* \"@openzeppelin/contracts/token/ERC20/ERC20.sol\":10804:10861  _approve(owner, spender, currentAllowance - value, false) */\n      jump\t// in\n    tag_223:\n        /* \"@openzeppelin/contracts/token/ERC20/ERC20.sol\":10576:10886  if (currentAllowance != type(uint256).max) {... */\n    tag_219:\n        /* \"@openzeppelin/contracts/token/ERC20/ERC20.sol\":10504:10892  {... */\n      pop\n        /* \"@openzeppelin/contracts/token/ERC20/ERC20.sol\":10415:10892  function _spendAllowance(address owner, address spender, uint256 value) internal virtual {... */\n      pop\n      pop\n      pop\n      jump\t// out\n        /* \"@openzeppelin/contracts/token/ERC20/ERC20.sol\":5393:5693  function _transfer(address from, address to, uint256 value) internal {... */\n    tag_127:\n        /* \"@openzeppelin/contracts/token/ERC20/ERC20.sol\":5492:5493  0 */\n      0x00\n        /* \"@openzeppelin/contracts/token/ERC20/ERC20.sol\":5476:5494  from == address(0) */\n      0xffffffffffffffffffffffffffffffffffffffff\n      and\n        /* \"@openzeppelin/contracts/token/ERC20/ERC20.sol\":5476:5480  from */\n      dup4\n        /* \"@openzeppelin/contracts/token/ERC20/ERC20.sol\":5476:5494  from == address(0) */\n      0xffffffffffffffffffffffffffffffffffffffff\n      and\n      sub\n        /* \"@openzeppelin/contracts/token/ERC20/ERC20.sol\":5472:5558  if (from == address(0)) {... */\n      tag_225\n      jumpi\n        /* \"@openzeppelin/contracts/token/ERC20/ERC20.sol\":5544:5545  0 */\n      0x00\n        /* \"@openzeppelin/contracts/token/ERC20/ERC20.sol\":5517:5547  ERC20InvalidSender(address(0)) */\n      mload(0x40)\n      0x96c6fd1e00000000000000000000000000000000000000000000000000000000\n      dup2\n      mstore\n      0x04\n      add\n      tag_226\n      swap2\n      swap1\n      tag_69\n      jump\t// in\n    tag_226:\n      mload(0x40)\n      dup1\n      swap2\n      sub\n      swap1\n      revert\n        /* \"@openzeppelin/contracts/token/ERC20/ERC20.sol\":5472:5558  if (from == address(0)) {... */\n    tag_225:\n        /* \"@openzeppelin/contracts/token/ERC20/ERC20.sol\":5585:5586  0 */\n      0x00\n        /* \"@openzeppelin/contracts/token/ERC20/ERC20.sol\":5571:5587  to == address(0) */\n      0xffffffffffffffffffffffffffffffffffffffff\n      and\n        /* \"@openzeppelin/contracts/token/ERC20/ERC20.sol\":5571:5573  to */\n      dup3\n        /* \"@openzeppelin/contracts/token/ERC20/ERC20.sol\":5571:5587  to == address(0) */\n      0xffffffffffffffffffffffffffffffffffffffff\n      and\n      sub\n        /* \"@openzeppelin/contracts/token/ERC20/ERC20.sol\":5567:5653  if (to == address(0)) {... */\n      tag_227\n      jumpi\n        /* \"@openzeppelin/contracts/token/ERC20/ERC20.sol\":5639:5640  0 */\n      0x00\n        /* \"@openzeppelin/contracts/token/ERC20/ERC20.sol\":5610:5642  ERC20InvalidReceiver(address(0)) */\n      mload(0x40)\n      0xec442f0500000000000000000000000000000000000000000000000000000000\n      dup2\n      mstore\n      0x04\n      add\n      tag_228\n      swap2\n      swap1\n      tag_69\n      jump\t// in\n    tag_228:\n      mload(0x40)\n      dup1\n      swap2\n      sub\n      swap1\n      revert\n        /* \"@openzeppelin/contracts/token/ERC20/ERC20.sol\":5567:5653  if (to == address(0)) {... */\n    tag_227:\n        /* \"@openzeppelin/contracts/token/ERC20/ERC20.sol\":5662:5686  _update(from, to, value) */\n      tag_229\n        /* \"@openzeppelin/contracts/token/ERC20/ERC20.sol\":5670:5674  from */\n      dup4\n        /* \"@openzeppelin/contracts/token/ERC20/ERC20.sol\":5676:5678  to */\n      dup4\n        /* \"@openzeppelin/contracts/token/ERC20/ERC20.sol\":5680:5685  value */\n      dup4\n        /* \"@openzeppelin/contracts/token/ERC20/ERC20.sol\":5662:5669  _update */\n      tag_230\n        /* \"@openzeppelin/contracts/token/ERC20/ERC20.sol\":5662:5686  _update(from, to, value) */\n      jump\t// in\n    tag_229:\n        /* \"@openzeppelin/contracts/token/ERC20/ERC20.sol\":5393:5693  function _transfer(address from, address to, uint256 value) internal {... */\n      pop\n      pop\n      pop\n      jump\t// out\n        /* \"@openzeppelin/contracts/token/ERC20/ERC20.sol\":9701:10133  function _approve(address owner, address spender, uint256 value, bool emitEvent) internal virtual {... */\n    tag_216:\n        /* \"@openzeppelin/contracts/token/ERC20/ERC20.sol\":9830:9831  0 */\n      0x00\n        /* \"@openzeppelin/contracts/token/ERC20/ERC20.sol\":9813:9832  owner == address(0) */\n      0xffffffffffffffffffffffffffffffffffffffff\n      and\n        /* \"@openzeppelin/contracts/token/ERC20/ERC20.sol\":9813:9818  owner */\n      dup5\n        /* \"@openzeppelin/contracts/token/ERC20/ERC20.sol\":9813:9832  owner == address(0) */\n      0xffffffffffffffffffffffffffffffffffffffff\n      and\n      sub\n        /* \"@openzeppelin/contracts/token/ERC20/ERC20.sol\":9809:9898  if (owner == address(0)) {... */\n      tag_232\n      jumpi\n        /* \"@openzeppelin/contracts/token/ERC20/ERC20.sol\":9884:9885  0 */\n      0x00\n        /* \"@openzeppelin/contracts/token/ERC20/ERC20.sol\":9855:9887  ERC20InvalidApprover(address(0)) */\n      mload(0x40)\n      0xe602df0500000000000000000000000000000000000000000000000000000000\n      dup2\n      mstore\n      0x04\n      add\n      tag_233\n      swap2\n      swap1\n      tag_69\n      jump\t// in\n    tag_233:\n      mload(0x40)\n      dup1\n      swap2\n      sub\n      swap1\n      revert\n        /* \"@openzeppelin/contracts/token/ERC20/ERC20.sol\":9809:9898  if (owner == address(0)) {... */\n    tag_232:\n        /* \"@openzeppelin/contracts/token/ERC20/ERC20.sol\":9930:9931  0 */\n      0x00\n        /* \"@openzeppelin/contracts/token/ERC20/ERC20.sol\":9911:9932  spender == address(0) */\n      0xffffffffffffffffffffffffffffffffffffffff\n      and\n        /* \"@openzeppelin/contracts/token/ERC20/ERC20.sol\":9911:9918  spender */\n      dup4\n        /* \"@openzeppelin/contracts/token/ERC20/ERC20.sol\":9911:9932  spender == address(0) */\n      0xffffffffffffffffffffffffffffffffffffffff\n      and\n      sub\n        /* \"@openzeppelin/contracts/token/ERC20/ERC20.sol\":9907:9997  if (spender == address(0)) {... */\n      tag_234\n      jumpi\n        /* \"@openzeppelin/contracts/token/ERC20/ERC20.sol\":9983:9984  0 */\n      0x00\n        /* \"@openzeppelin/contracts/token/ERC20/ERC20.sol\":9955:9986  ERC20InvalidSpender(address(0)) */\n      mload(0x40)\n      0x94280d6200000000000000000000000000000000000000000000000000000000\n      dup2\n      mstore\n      0x04\n      add\n      tag_235\n      swap2\n      swap1\n      tag_69\n      jump\t// in\n    tag_235:\n      mload(0x40)\n      dup1\n      swap2\n      sub\n      swap1\n      revert\n        /* \"@openzeppelin/contracts/token/ERC20/ERC20.sol\":9907:9997  if (spender == address(0)) {... */\n    tag_234:\n        /* \"@openzeppelin/contracts/token/ERC20/ERC20.sol\":10036:10041  value */\n      dup2\n        /* \"@openzeppelin/contracts/token/ERC20/ERC20.sol\":10006:10017  _allowances */\n      0x01\n        /* \"@openzeppelin/contracts/token/ERC20/ERC20.sol\":10006:10024  _allowances[owner] */\n      0x00\n        /* \"@openzeppelin/contracts/token/ERC20/ERC20.sol\":10018:10023  owner */\n      dup7\n        /* \"@openzeppelin/contracts/token/ERC20/ERC20.sol\":10006:10024  _allowances[owner] */\n      0xffffffffffffffffffffffffffffffffffffffff\n      and\n      0xffffffffffffffffffffffffffffffffffffffff\n      and\n      dup2\n      mstore\n      0x20\n      add\n      swap1\n      dup2\n      mstore\n      0x20\n      add\n      0x00\n      keccak256\n        /* \"@openzeppelin/contracts/token/ERC20/ERC20.sol\":10006:10033  _allowances[owner][spender] */\n      0x00\n        /* \"@openzeppelin/contracts/token/ERC20/ERC20.sol\":10025:10032  spender */\n      dup6\n        /* \"@openzeppelin/contracts/token/ERC20/ERC20.sol\":10006:10033  _allowances[owner][spender] */\n      0xffffffffffffffffffffffffffffffffffffffff\n      and\n      0xffffffffffffffffffffffffffffffffffffffff\n      and\n      dup2\n      mstore\n      0x20\n      add\n      swap1\n      dup2\n      mstore\n      0x20\n      add\n      0x00\n      keccak256\n        /* \"@openzeppelin/contracts/token/ERC20/ERC20.sol\":10006:10041  _allowances[owner][spender] = value */\n      dup2\n      swap1\n      sstore\n      pop\n        /* \"@openzeppelin/contracts/token/ERC20/ERC20.sol\":10055:10064  emitEvent */\n      dup1\n        /* \"@openzeppelin/contracts/token/ERC20/ERC20.sol\":10051:10127  if (emitEvent) {... */\n      iszero\n      tag_236\n      jumpi\n        /* \"@openzeppelin/contracts/token/ERC20/ERC20.sol\":10101:10108  spender */\n      dup3\n        /* \"@openzeppelin/contracts/token/ERC20/ERC20.sol\":10085:10116  Approval(owner, spender, value) */\n      0xffffffffffffffffffffffffffffffffffffffff\n      and\n        /* \"@openzeppelin/contracts/token/ERC20/ERC20.sol\":10094:10099  owner */\n      dup5\n        /* \"@openzeppelin/contracts/token/ERC20/ERC20.sol\":10085:10116  Approval(owner, spender, value) */\n      0xffffffffffffffffffffffffffffffffffffffff\n      and\n      0x8c5be1e5ebec7d5bd14f71427d1e84f3dd0314c0f7b2291e5b200ac8c7c3b925\n        /* \"@openzeppelin/contracts/token/ERC20/ERC20.sol\":10110:10115  value */\n      dup5\n        /* \"@openzeppelin/contracts/token/ERC20/ERC20.sol\":10085:10116  Approval(owner, spender, value) */\n      mload(0x40)\n      tag_237\n      swap2\n      swap1\n      tag_41\n      jump\t// in\n    tag_237:\n      mload(0x40)\n      dup1\n      swap2\n      sub\n      swap1\n      log3\n        /* \"@openzeppelin/contracts/token/ERC20/ERC20.sol\":10051:10127  if (emitEvent) {... */\n    tag_236:\n        /* \"@openzeppelin/contracts/token/ERC20/ERC20.sol\":9701:10133  function _approve(address owner, address spender, uint256 value, bool emitEvent) internal virtual {... */\n      pop\n      pop\n      pop\n      pop\n      jump\t// out\n        /* \"@openzeppelin/contracts/token/ERC20/ERC20.sol\":6008:7115  function _update(address from, address to, uint256 value) internal virtual {... */\n    tag_230:\n        /* \"@openzeppelin/contracts/token/ERC20/ERC20.sol\":6113:6114  0 */\n      0x00\n        /* \"@openzeppelin/contracts/token/ERC20/ERC20.sol\":6097:6115  from == address(0) */\n      0xffffffffffffffffffffffffffffffffffffffff\n      and\n        /* \"@openzeppelin/contracts/token/ERC20/ERC20.sol\":6097:6101  from */\n      dup4\n        /* \"@openzeppelin/contracts/token/ERC20/ERC20.sol\":6097:6115  from == address(0) */\n      0xffffffffffffffffffffffffffffffffffffffff\n      and\n      sub\n        /* \"@openzeppelin/contracts/token/ERC20/ERC20.sol\":6093:6633  if (from == address(0)) {... */\n      tag_239\n      jumpi\n        /* \"@openzeppelin/contracts/token/ERC20/ERC20.sol\":6249:6254  value */\n      dup1\n        /* \"@openzeppelin/contracts/token/ERC20/ERC20.sol\":6233:6245  _totalSupply */\n      0x02\n      0x00\n        /* \"@openzeppelin/contracts/token/ERC20/ERC20.sol\":6233:6254  _totalSupply += value */\n      dup3\n      dup3\n      sload\n      tag_240\n      swap2\n      swap1\n      tag_241\n      jump\t// in\n    tag_240:\n      swap3\n      pop\n      pop\n      dup2\n      swap1\n      sstore\n      pop\n        /* \"@openzeppelin/contracts/token/ERC20/ERC20.sol\":6093:6633  if (from == address(0)) {... */\n      jump(tag_242)\n    tag_239:\n        /* \"@openzeppelin/contracts/token/ERC20/ERC20.sol\":6285:6304  uint256 fromBalance */\n      0x00\n        /* \"@openzeppelin/contracts/token/ERC20/ERC20.sol\":6307:6316  _balances */\n      0x00\n        /* \"@openzeppelin/contracts/token/ERC20/ERC20.sol\":6307:6322  _balances[from] */\n      0x00\n        /* \"@openzeppelin/contracts/token/ERC20/ERC20.sol\":6317:6321  from */\n      dup6\n        /* \"@openzeppelin/contracts/token/ERC20/ERC20.sol\":6307:6322  _balances[from] */\n      0xffffffffffffffffffffffffffffffffffffffff\n      and\n      0xffffffffffffffffffffffffffffffffffffffff\n      and\n      dup2\n      mstore\n      0x20\n      add\n      swap1\n      dup2\n      mstore\n      0x20\n      add\n      0x00\n      keccak256\n      sload\n        /* \"@openzeppelin/contracts/token/ERC20/ERC20.sol\":6285:6322  uint256 fromBalance = _balances[from] */\n      swap1\n      pop\n        /* \"@openzeppelin/contracts/token/ERC20/ERC20.sol\":6354:6359  value */\n      dup2\n        /* \"@openzeppelin/contracts/token/ERC20/ERC20.sol\":6340:6351  fromBalance */\n      dup2\n        /* \"@openzeppelin/contracts/token/ERC20/ERC20.sol\":6340:6359  fromBalance < value */\n      lt\n        /* \"@openzeppelin/contracts/token/ERC20/ERC20.sol\":6336:6451  if (fromBalance < value) {... */\n      iszero\n      tag_243\n      jumpi\n        /* \"@openzeppelin/contracts/token/ERC20/ERC20.sol\":6411:6415  from */\n      dup4\n        /* \"@openzeppelin/contracts/token/ERC20/ERC20.sol\":6417:6428  fromBalance */\n      dup2\n        /* \"@openzeppelin/contracts/token/ERC20/ERC20.sol\":6430:6435  value */\n      dup4\n        /* \"@openzeppelin/contracts/token/ERC20/ERC20.sol\":6386:6436  ERC20InsufficientBalance(from, fromBalance, value) */\n      mload(0x40)\n      0xe450d38c00000000000000000000000000000000000000000000000000000000\n      dup2\n      mstore\n      0x04\n      add\n      tag_244\n      swap4\n      swap3\n      swap2\n      swap1\n      tag_222\n      jump\t// in\n    tag_244:\n      mload(0x40)\n      dup1\n      swap2\n      sub\n      swap1\n      revert\n        /* \"@openzeppelin/contracts/token/ERC20/ERC20.sol\":6336:6451  if (fromBalance < value) {... */\n    tag_243:\n        /* \"@openzeppelin/contracts/token/ERC20/ERC20.sol\":6603:6608  value */\n      dup2\n        /* \"@openzeppelin/contracts/token/ERC20/ERC20.sol\":6589:6600  fromBalance */\n      dup2\n        /* \"@openzeppelin/contracts/token/ERC20/ERC20.sol\":6589:6608  fromBalance - value */\n      sub\n        /* \"@openzeppelin/contracts/token/ERC20/ERC20.sol\":6571:6580  _balances */\n      0x00\n        /* \"@openzeppelin/contracts/token/ERC20/ERC20.sol\":6571:6586  _balances[from] */\n      0x00\n        /* \"@openzeppelin/contracts/token/ERC20/ERC20.sol\":6581:6585  from */\n      dup7\n        /* \"@openzeppelin/contracts/token/ERC20/ERC20.sol\":6571:6586  _balances[from] */\n      0xffffffffffffffffffffffffffffffffffffffff\n      and\n      0xffffffffffffffffffffffffffffffffffffffff\n      and\n      dup2\n      mstore\n      0x20\n      add\n      swap1\n      dup2\n      mstore\n      0x20\n      add\n      0x00\n      keccak256\n        /* \"@openzeppelin/contracts/token/ERC20/ERC20.sol\":6571:6608  _balances[from] = fromBalance - value */\n      dup2\n      swap1\n      sstore\n      pop\n        /* \"@openzeppelin/contracts/token/ERC20/ERC20.sol\":6271:6633  {... */\n      pop\n        /* \"@openzeppelin/contracts/token/ERC20/ERC20.sol\":6093:6633  if (from == address(0)) {... */\n    tag_242:\n        /* \"@openzeppelin/contracts/token/ERC20/ERC20.sol\":6661:6662  0 */\n      0x00\n        /* \"@openzeppelin/contracts/token/ERC20/ERC20.sol\":6647:6663  to == address(0) */\n      0xffffffffffffffffffffffffffffffffffffffff\n      and\n        /* \"@openzeppelin/contracts/token/ERC20/ERC20.sol\":6647:6649  to */\n      dup3\n        /* \"@openzeppelin/contracts/token/ERC20/ERC20.sol\":6647:6663  to == address(0) */\n      0xffffffffffffffffffffffffffffffffffffffff\n      and\n      sub\n        /* \"@openzeppelin/contracts/token/ERC20/ERC20.sol\":6643:7068  if (to == address(0)) {... */\n      tag_245\n      jumpi\n        /* \"@openzeppelin/contracts/token/ERC20/ERC20.sol\":6826:6831  value */\n      dup1\n        /* \"@openzeppelin/contracts/token/ERC20/ERC20.sol\":6810:6822  _totalSupply */\n      0x02\n      0x00\n        /* \"@openzeppelin/contracts/token/ERC20/ERC20.sol\":6810:6831  _totalSupply -= value */\n      dup3\n      dup3\n      sload\n      sub\n      swap3\n      pop\n      pop\n      dup2\n      swap1\n      sstore\n      pop\n        /* \"@openzeppelin/contracts/token/ERC20/ERC20.sol\":6643:7068  if (to == address(0)) {... */\n      jump(tag_246)\n    tag_245:\n        /* \"@openzeppelin/contracts/token/ERC20/ERC20.sol\":7038:7043  value */\n      dup1\n        /* \"@openzeppelin/contracts/token/ERC20/ERC20.sol\":7021:7030  _balances */\n      0x00\n        /* \"@openzeppelin/contracts/token/ERC20/ERC20.sol\":7021:7034  _balances[to] */\n      0x00\n        /* \"@openzeppelin/contracts/token/ERC20/ERC20.sol\":7031:7033  to */\n      dup5\n        /* \"@openzeppelin/contracts/token/ERC20/ERC20.sol\":7021:7034  _balances[to] */\n      0xffffffffffffffffffffffffffffffffffffffff\n      and\n      0xffffffffffffffffffffffffffffffffffffffff\n      and\n      dup2\n      mstore\n      0x20\n      add\n      swap1\n      dup2\n      mstore\n      0x20\n      add\n      0x00\n      keccak256\n      0x00\n        /* \"@openzeppelin/contracts/token/ERC20/ERC20.sol\":7021:7043  _balances[to] += value */\n      dup3\n      dup3\n      sload\n      add\n      swap3\n      pop\n      pop\n      dup2\n      swap1\n      sstore\n      pop\n        /* \"@openzeppelin/contracts/token/ERC20/ERC20.sol\":6643:7068  if (to == address(0)) {... */\n    tag_246:\n        /* \"@openzeppelin/contracts/token/ERC20/ERC20.sol\":7098:7100  to */\n      dup2\n        /* \"@openzeppelin/contracts/token/ERC20/ERC20.sol\":7083:7108  Transfer(from, to, value) */\n      0xffffffffffffffffffffffffffffffffffffffff\n      and\n        /* \"@openzeppelin/contracts/token/ERC20/ERC20.sol\":7092:7096  from */\n      dup4\n        /* \"@openzeppelin/contracts/token/ERC20/ERC20.sol\":7083:7108  Transfer(from, to, value) */\n      0xffffffffffffffffffffffffffffffffffffffff\n      and\n      0xddf252ad1be2c89b69c2b068fc378daa952ba7f163c4a11628f55a4df523b3ef\n        /* \"@openzeppelin/contracts/token/ERC20/ERC20.sol\":7102:7107  value */\n      dup4\n        /* \"@openzeppelin/contracts/token/ERC20/ERC20.sol\":7083:7108  Transfer(from, to, value) */\n      mload(0x40)\n      tag_247\n      swap2\n      swap1\n      tag_41\n      jump\t// in\n    tag_247:\n      mload(0x40)\n      dup1\n      swap2\n      sub\n      swap1\n      log3\n        /* \"@openzeppelin/contracts/token/ERC20/ERC20.sol\":6008:7115  function _update(address from, address to, uint256 value) internal virtual {... */\n      pop\n      pop\n      pop\n      jump\t// out\n    tag_188:\n      pop\n      dup1\n      sload\n      0x00\n      dup3\n      sstore\n      0x03\n      mul\n      swap1\n      0x00\n      mstore\n      keccak256(0x00, 0x20)\n      swap1\n      dup2\n      add\n      swap1\n      tag_249\n      swap2\n      swap1\n      tag_250\n      jump\t// in\n    tag_249:\n      pop\n      jump\t// out\n    tag_190:\n      pop\n      dup1\n      sload\n      0x00\n      dup3\n      sstore\n      0x02\n      mul\n      swap1\n      0x00\n      mstore\n      keccak256(0x00, 0x20)\n      swap1\n      dup2\n      add\n      swap1\n      tag_252\n      swap2\n      swap1\n      tag_253\n      jump\t// in\n    tag_252:\n      pop\n      jump\t// out\n    tag_192:\n      pop\n      dup1\n      sload\n      0x00\n      dup3\n      sstore\n      0x02\n      mul\n      swap1\n      0x00\n      mstore\n      keccak256(0x00, 0x20)\n      swap1\n      dup2\n      add\n      swap1\n      tag_255\n      swap2\n      swap1\n      tag_256\n      jump\t// in\n    tag_255:\n      pop\n      jump\t// out\n    tag_194:\n      pop\n      dup1\n      sload\n      0x00\n      dup3\n      sstore\n      0x04\n      mul\n      swap1\n      0x00\n      mstore\n      keccak256(0x00, 0x20)\n      swap1\n      dup2\n      add\n      swap1\n      tag_258\n      swap2\n      swap1\n      tag_259\n      jump\t// in\n    tag_258:\n      pop\n      jump\t// out\n    tag_250:\n    tag_260:\n      dup1\n      dup3\n      gt\n      iszero\n      tag_261\n      jumpi\n      0x00\n      0x00\n      dup3\n      add\n      exp(0x0100, 0x00)\n      dup2\n      sload\n      swap1\n      0xffffffffffffffffffffffffffffffffffffffff\n      mul\n      not\n      and\n      swap1\n      sstore\n      0x01\n      dup3\n      add\n      0x00\n      tag_262\n      swap2\n      swap1\n      tag_263\n      jump\t// in\n    tag_262:\n      0x02\n      dup3\n      add\n      0x00\n      swap1\n      sstore\n      pop\n      0x03\n      add\n      jump(tag_260)\n    tag_261:\n      pop\n      swap1\n      jump\t// out\n    tag_253:\n    tag_264:\n      dup1\n      dup3\n      gt\n      iszero\n      tag_265\n      jumpi\n      0x00\n      0x00\n      dup3\n      add\n      0x00\n      swap1\n      sstore\n      0x01\n      dup3\n      add\n      0x00\n      tag_266\n      swap2\n      swap1\n      tag_263\n      jump\t// in\n    tag_266:\n      pop\n      0x02\n      add\n      jump(tag_264)\n    tag_265:\n      pop\n      swap1\n      jump\t// out\n    tag_256:\n    tag_267:\n      dup1\n      dup3\n      gt\n      iszero\n      tag_268\n      jumpi\n      0x00\n      0x00\n      dup3\n      add\n      0x00\n      swap1\n      sstore\n      0x01\n      dup3\n      add\n      0x00\n      tag_269\n      swap2\n      swap1\n      tag_263\n      jump\t// in\n    tag_269:\n      pop\n      0x02\n      add\n      jump(tag_267)\n    tag_268:\n      pop\n      swap1\n      jump\t// out\n    tag_259:\n    tag_270:\n      dup1\n      dup3\n      gt\n      iszero\n      tag_271\n      jumpi\n      0x00\n      0x00\n      dup3\n      add\n      0x00\n      swap1\n      sstore\n      0x01\n      dup3\n      add\n      0x00\n      swap1\n      sstore\n      0x02\n      dup3\n      add\n      exp(0x0100, 0x00)\n      dup2\n      sload\n      swap1\n      0xffffffffffffffffffffffffffffffffffffffff\n      mul\n      not\n      and\n      swap1\n      sstore\n      0x03\n      dup3\n      add\n      0x00\n      swap1\n      sstore\n      pop\n      0x04\n      add\n      jump(tag_270)\n    tag_271:\n      pop\n      swap1\n      jump\t// out\n    tag_263:\n      pop\n      dup1\n      sload\n      tag_272\n      swap1\n      tag_111\n      jump\t// in\n    tag_272:\n      0x00\n      dup3\n      sstore\n      dup1\n      0x1f\n      lt\n      tag_274\n      jumpi\n      pop\n      jump(tag_273)\n    tag_274:\n      0x1f\n      add\n      0x20\n      swap1\n      div\n      swap1\n      0x00\n      mstore\n      keccak256(0x00, 0x20)\n      swap1\n      dup2\n      add\n      swap1\n      tag_275\n      swap2\n      swap1\n      tag_276\n      jump\t// in\n    tag_275:\n    tag_273:\n      pop\n      jump\t// out\n    tag_276:\n    tag_277:\n      dup1\n      dup3\n      gt\n      iszero\n      tag_278\n      jumpi\n      0x00\n      dup2\n      0x00\n      swap1\n      sstore\n      pop\n      0x01\n      add\n      jump(tag_277)\n    tag_278:\n      pop\n      swap1\n      jump\t// out\n        /* \"#utility.yul\":7:82   */\n    tag_279:\n        /* \"#utility.yul\":40:46   */\n      0x00\n        /* \"#utility.yul\":73:75   */\n      0x40\n        /* \"#utility.yul\":67:76   */\n      mload\n        /* \"#utility.yul\":57:76   */\n      swap1\n      pop\n        /* \"#utility.yul\":7:82   */\n      swap1\n      jump\t// out\n        /* \"#utility.yul\":88:205   */\n    tag_280:\n        /* \"#utility.yul\":197:198   */\n      0x00\n        /* \"#utility.yul\":194:195   */\n      0x00\n        /* \"#utility.yul\":187:199   */\n      revert\n        /* \"#utility.yul\":211:328   */\n    tag_281:\n        /* \"#utility.yul\":320:321   */\n      0x00\n        /* \"#utility.yul\":317:318   */\n      0x00\n        /* \"#utility.yul\":310:322   */\n      revert\n        /* \"#utility.yul\":334:411   */\n    tag_282:\n        /* \"#utility.yul\":371:378   */\n      0x00\n        /* \"#utility.yul\":400:405   */\n      dup2\n        /* \"#utility.yul\":389:405   */\n      swap1\n      pop\n        /* \"#utility.yul\":334:411   */\n      swap2\n      swap1\n      pop\n      jump\t// out\n        /* \"#utility.yul\":417:539   */\n    tag_283:\n        /* \"#utility.yul\":490:514   */\n      tag_365\n        /* \"#utility.yul\":508:513   */\n      dup2\n        /* \"#utility.yul\":490:514   */\n      tag_282\n      jump\t// in\n    tag_365:\n        /* \"#utility.yul\":483:488   */\n      dup2\n        /* \"#utility.yul\":480:515   */\n      eq\n        /* \"#utility.yul\":470:533   */\n      tag_366\n      jumpi\n        /* \"#utility.yul\":529:530   */\n      0x00\n        /* \"#utility.yul\":526:527   */\n      0x00\n        /* \"#utility.yul\":519:531   */\n      revert\n        /* \"#utility.yul\":470:533   */\n    tag_366:\n        /* \"#utility.yul\":417:539   */\n      pop\n      jump\t// out\n        /* \"#utility.yul\":545:684   */\n    tag_284:\n        /* \"#utility.yul\":591:596   */\n      0x00\n        /* \"#utility.yul\":629:635   */\n      dup2\n        /* \"#utility.yul\":616:636   */\n      calldataload\n        /* \"#utility.yul\":607:636   */\n      swap1\n      pop\n        /* \"#utility.yul\":645:678   */\n      tag_368\n        /* \"#utility.yul\":672:677   */\n      dup2\n        /* \"#utility.yul\":645:678   */\n      tag_283\n      jump\t// in\n    tag_368:\n        /* \"#utility.yul\":545:684   */\n      swap3\n      swap2\n      pop\n      pop\n      jump\t// out\n        /* \"#utility.yul\":690:1309   */\n    tag_26:\n        /* \"#utility.yul\":767:773   */\n      0x00\n        /* \"#utility.yul\":775:781   */\n      0x00\n        /* \"#utility.yul\":783:789   */\n      0x00\n        /* \"#utility.yul\":832:834   */\n      0x60\n        /* \"#utility.yul\":820:829   */\n      dup5\n        /* \"#utility.yul\":811:818   */\n      dup7\n        /* \"#utility.yul\":807:830   */\n      sub\n        /* \"#utility.yul\":803:835   */\n      slt\n        /* \"#utility.yul\":800:919   */\n      iszero\n      tag_370\n      jumpi\n        /* \"#utility.yul\":838:917   */\n      tag_371\n      tag_280\n      jump\t// in\n    tag_371:\n        /* \"#utility.yul\":800:919   */\n    tag_370:\n        /* \"#utility.yul\":958:959   */\n      0x00\n        /* \"#utility.yul\":983:1036   */\n      tag_372\n        /* \"#utility.yul\":1028:1035   */\n      dup7\n        /* \"#utility.yul\":1019:1025   */\n      dup3\n        /* \"#utility.yul\":1008:1017   */\n      dup8\n        /* \"#utility.yul\":1004:1026   */\n      add\n        /* \"#utility.yul\":983:1036   */\n      tag_284\n      jump\t// in\n    tag_372:\n        /* \"#utility.yul\":973:1036   */\n      swap4\n      pop\n        /* \"#utility.yul\":929:1046   */\n      pop\n        /* \"#utility.yul\":1085:1087   */\n      0x20\n        /* \"#utility.yul\":1111:1164   */\n      tag_373\n        /* \"#utility.yul\":1156:1163   */\n      dup7\n        /* \"#utility.yul\":1147:1153   */\n      dup3\n        /* \"#utility.yul\":1136:1145   */\n      dup8\n        /* \"#utility.yul\":1132:1154   */\n      add\n        /* \"#utility.yul\":1111:1164   */\n      tag_284\n      jump\t// in\n    tag_373:\n        /* \"#utility.yul\":1101:1164   */\n      swap3\n      pop\n        /* \"#utility.yul\":1056:1174   */\n      pop\n        /* \"#utility.yul\":1213:1215   */\n      0x40\n        /* \"#utility.yul\":1239:1292   */\n      tag_374\n        /* \"#utility.yul\":1284:1291   */\n      dup7\n        /* \"#utility.yul\":1275:1281   */\n      dup3\n        /* \"#utility.yul\":1264:1273   */\n      dup8\n        /* \"#utility.yul\":1260:1282   */\n      add\n        /* \"#utility.yul\":1239:1292   */\n      tag_284\n      jump\t// in\n    tag_374:\n        /* \"#utility.yul\":1229:1292   */\n      swap2\n      pop\n        /* \"#utility.yul\":1184:1302   */\n      pop\n        /* \"#utility.yul\":690:1309   */\n      swap3\n      pop\n      swap3\n      pop\n      swap3\n      jump\t// out\n        /* \"#utility.yul\":1315:1414   */\n    tag_285:\n        /* \"#utility.yul\":1367:1373   */\n      0x00\n        /* \"#utility.yul\":1401:1406   */\n      dup2\n        /* \"#utility.yul\":1395:1407   */\n      mload\n        /* \"#utility.yul\":1385:1407   */\n      swap1\n      pop\n        /* \"#utility.yul\":1315:1414   */\n      swap2\n      swap1\n      pop\n      jump\t// out\n        /* \"#utility.yul\":1420:1589   */\n    tag_286:\n        /* \"#utility.yul\":1504:1515   */\n      0x00\n        /* \"#utility.yul\":1538:1544   */\n      dup3\n        /* \"#utility.yul\":1533:1536   */\n      dup3\n        /* \"#utility.yul\":1526:1545   */\n      mstore\n        /* \"#utility.yul\":1578:1582   */\n      0x20\n        /* \"#utility.yul\":1573:1576   */\n      dup3\n        /* \"#utility.yul\":1569:1583   */\n      add\n        /* \"#utility.yul\":1554:1583   */\n      swap1\n      pop\n        /* \"#utility.yul\":1420:1589   */\n      swap3\n      swap2\n      pop\n      pop\n      jump\t// out\n        /* \"#utility.yul\":1595:1734   */\n    tag_287:\n        /* \"#utility.yul\":1684:1690   */\n      dup3\n        /* \"#utility.yul\":1679:1682   */\n      dup2\n        /* \"#utility.yul\":1674:1677   */\n      dup4\n        /* \"#utility.yul\":1668:1691   */\n      mcopy\n        /* \"#utility.yul\":1725:1726   */\n      0x00\n        /* \"#utility.yul\":1716:1722   */\n      dup4\n        /* \"#utility.yul\":1711:1714   */\n      dup4\n        /* \"#utility.yul\":1707:1723   */\n      add\n        /* \"#utility.yul\":1700:1727   */\n      mstore\n        /* \"#utility.yul\":1595:1734   */\n      pop\n      pop\n      pop\n      jump\t// out\n        /* \"#utility.yul\":1740:1842   */\n    tag_288:\n        /* \"#utility.yul\":1781:1787   */\n      0x00\n        /* \"#utility.yul\":1832:1834   */\n      0x1f\n        /* \"#utility.yul\":1828:1835   */\n      not\n        /* \"#utility.yul\":1823:1825   */\n      0x1f\n        /* \"#utility.yul\":1816:1821   */\n      dup4\n        /* \"#utility.yul\":1812:1826   */\n      add\n        /* \"#utility.yul\":1808:1836   */\n      and\n        /* \"#utility.yul\":1798:1836   */\n      swap1\n      pop\n        /* \"#utility.yul\":1740:1842   */\n      swap2\n      swap1\n      pop\n      jump\t// out\n        /* \"#utility.yul\":1848:2225   */\n    tag_289:\n        /* \"#utility.yul\":1936:1939   */\n      0x00\n        /* \"#utility.yul\":1964:2003   */\n      tag_380\n        /* \"#utility.yul\":1997:2002   */\n      dup3\n        /* \"#utility.yul\":1964:2003   */\n      tag_285\n      jump\t// in\n    tag_380:\n        /* \"#utility.yul\":2019:2090   */\n      tag_381\n        /* \"#utility.yul\":2083:2089   */\n      dup2\n        /* \"#utility.yul\":2078:2081   */\n      dup6\n        /* \"#utility.yul\":2019:2090   */\n      tag_286\n      jump\t// in\n    tag_381:\n        /* \"#utility.yul\":2012:2090   */\n      swap4\n      pop\n        /* \"#utility.yul\":2099:2164   */\n      tag_382\n        /* \"#utility.yul\":2157:2163   */\n      dup2\n        /* \"#utility.yul\":2152:2155   */\n      dup6\n        /* \"#utility.yul\":2145:2149   */\n      0x20\n        /* \"#utility.yul\":2138:2143   */\n      dup7\n        /* \"#utility.yul\":2134:2150   */\n      add\n        /* \"#utility.yul\":2099:2164   */\n      tag_287\n      jump\t// in\n    tag_382:\n        /* \"#utility.yul\":2189:2218   */\n      tag_383\n        /* \"#utility.yul\":2211:2217   */\n      dup2\n        /* \"#utility.yul\":2189:2218   */\n      tag_288\n      jump\t// in\n    tag_383:\n        /* \"#utility.yul\":2184:2187   */\n      dup5\n        /* \"#utility.yul\":2180:2219   */\n      add\n        /* \"#utility.yul\":2173:2219   */\n      swap2\n      pop\n        /* \"#utility.yul\":1940:2225   */\n      pop\n        /* \"#utility.yul\":1848:2225   */\n      swap3\n      swap2\n      pop\n      pop\n      jump\t// out\n        /* \"#utility.yul\":2231:2544   */\n    tag_31:\n        /* \"#utility.yul\":2344:2348   */\n      0x00\n        /* \"#utility.yul\":2382:2384   */\n      0x20\n        /* \"#utility.yul\":2371:2380   */\n      dup3\n        /* \"#utility.yul\":2367:2385   */\n      add\n        /* \"#utility.yul\":2359:2385   */\n      swap1\n      pop\n        /* \"#utility.yul\":2431:2440   */\n      dup2\n        /* \"#utility.yul\":2425:2429   */\n      dup2\n        /* \"#utility.yul\":2421:2441   */\n      sub\n        /* \"#utility.yul\":2417:2418   */\n      0x00\n        /* \"#utility.yul\":2406:2415   */\n      dup4\n        /* \"#utility.yul\":2402:2419   */\n      add\n        /* \"#utility.yul\":2395:2442   */\n      mstore\n        /* \"#utility.yul\":2459:2537   */\n      tag_385\n        /* \"#utility.yul\":2532:2536   */\n      dup2\n        /* \"#utility.yul\":2523:2529   */\n      dup5\n        /* \"#utility.yul\":2459:2537   */\n      tag_289\n      jump\t// in\n    tag_385:\n        /* \"#utility.yul\":2451:2537   */\n      swap1\n      pop\n        /* \"#utility.yul\":2231:2544   */\n      swap3\n      swap2\n      pop\n      pop\n      jump\t// out\n        /* \"#utility.yul\":2550:2676   */\n    tag_290:\n        /* \"#utility.yul\":2587:2594   */\n      0x00\n        /* \"#utility.yul\":2627:2669   */\n      0xffffffffffffffffffffffffffffffffffffffff\n        /* \"#utility.yul\":2620:2625   */\n      dup3\n        /* \"#utility.yul\":2616:2670   */\n      and\n        /* \"#utility.yul\":2605:2670   */\n      swap1\n      pop\n        /* \"#utility.yul\":2550:2676   */\n      swap2\n      swap1\n      pop\n      jump\t// out\n        /* \"#utility.yul\":2682:2778   */\n    tag_291:\n        /* \"#utility.yul\":2719:2726   */\n      0x00\n        /* \"#utility.yul\":2748:2772   */\n      tag_388\n        /* \"#utility.yul\":2766:2771   */\n      dup3\n        /* \"#utility.yul\":2748:2772   */\n      tag_290\n      jump\t// in\n    tag_388:\n        /* \"#utility.yul\":2737:2772   */\n      swap1\n      pop\n        /* \"#utility.yul\":2682:2778   */\n      swap2\n      swap1\n      pop\n      jump\t// out\n        /* \"#utility.yul\":2784:2906   */\n    tag_292:\n        /* \"#utility.yul\":2857:2881   */\n      tag_390\n        /* \"#utility.yul\":2875:2880   */\n      dup2\n        /* \"#utility.yul\":2857:2881   */\n      tag_291\n      jump\t// in\n    tag_390:\n        /* \"#utility.yul\":2850:2855   */\n      dup2\n        /* \"#utility.yul\":2847:2882   */\n      eq\n        /* \"#utility.yul\":2837:2900   */\n      tag_391\n      jumpi\n        /* \"#utility.yul\":2896:2897   */\n      0x00\n        /* \"#utility.yul\":2893:2894   */\n      0x00\n        /* \"#utility.yul\":2886:2898   */\n      revert\n        /* \"#utility.yul\":2837:2900   */\n    tag_391:\n        /* \"#utility.yul\":2784:2906   */\n      pop\n      jump\t// out\n        /* \"#utility.yul\":2912:3051   */\n    tag_293:\n        /* \"#utility.yul\":2958:2963   */\n      0x00\n        /* \"#utility.yul\":2996:3002   */\n      dup2\n        /* \"#utility.yul\":2983:3003   */\n      calldataload\n        /* \"#utility.yul\":2974:3003   */\n      swap1\n      pop\n        /* \"#utility.yul\":3012:3045   */\n      tag_393\n        /* \"#utility.yul\":3039:3044   */\n      dup2\n        /* \"#utility.yul\":3012:3045   */\n      tag_292\n      jump\t// in\n    tag_393:\n        /* \"#utility.yul\":2912:3051   */\n      swap3\n      swap2\n      pop\n      pop\n      jump\t// out\n        /* \"#utility.yul\":3057:3531   */\n    tag_34:\n        /* \"#utility.yul\":3125:3131   */\n      0x00\n        /* \"#utility.yul\":3133:3139   */\n      0x00\n        /* \"#utility.yul\":3182:3184   */\n      0x40\n        /* \"#utility.yul\":3170:3179   */\n      dup4\n        /* \"#utility.yul\":3161:3168   */\n      dup6\n        /* \"#utility.yul\":3157:3180   */\n      sub\n        /* \"#utility.yul\":3153:3185   */\n      slt\n        /* \"#utility.yul\":3150:3269   */\n      iszero\n      tag_395\n      jumpi\n        /* \"#utility.yul\":3188:3267   */\n      tag_396\n      tag_280\n      jump\t// in\n    tag_396:\n        /* \"#utility.yul\":3150:3269   */\n    tag_395:\n        /* \"#utility.yul\":3308:3309   */\n      0x00\n        /* \"#utility.yul\":3333:3386   */\n      tag_397\n        /* \"#utility.yul\":3378:3385   */\n      dup6\n        /* \"#utility.yul\":3369:3375   */\n      dup3\n        /* \"#utility.yul\":3358:3367   */\n      dup7\n        /* \"#utility.yul\":3354:3376   */\n      add\n        /* \"#utility.yul\":3333:3386   */\n      tag_293\n      jump\t// in\n    tag_397:\n        /* \"#utility.yul\":3323:3386   */\n      swap3\n      pop\n        /* \"#utility.yul\":3279:3396   */\n      pop\n        /* \"#utility.yul\":3435:3437   */\n      0x20\n        /* \"#utility.yul\":3461:3514   */\n      tag_398\n        /* \"#utility.yul\":3506:3513   */\n      dup6\n        /* \"#utility.yul\":3497:3503   */\n      dup3\n        /* \"#utility.yul\":3486:3495   */\n      dup7\n        /* \"#utility.yul\":3482:3504   */\n      add\n        /* \"#utility.yul\":3461:3514   */\n      tag_284\n      jump\t// in\n    tag_398:\n        /* \"#utility.yul\":3451:3514   */\n      swap2\n      pop\n        /* \"#utility.yul\":3406:3524   */\n      pop\n        /* \"#utility.yul\":3057:3531   */\n      swap3\n      pop\n      swap3\n      swap1\n      pop\n      jump\t// out\n        /* \"#utility.yul\":3537:3627   */\n    tag_294:\n        /* \"#utility.yul\":3571:3578   */\n      0x00\n        /* \"#utility.yul\":3614:3619   */\n      dup2\n        /* \"#utility.yul\":3607:3620   */\n      iszero\n        /* \"#utility.yul\":3600:3621   */\n      iszero\n        /* \"#utility.yul\":3589:3621   */\n      swap1\n      pop\n        /* \"#utility.yul\":3537:3627   */\n      swap2\n      swap1\n      pop\n      jump\t// out\n        /* \"#utility.yul\":3633:3742   */\n    tag_295:\n        /* \"#utility.yul\":3714:3735   */\n      tag_401\n        /* \"#utility.yul\":3729:3734   */\n      dup2\n        /* \"#utility.yul\":3714:3735   */\n      tag_294\n      jump\t// in\n    tag_401:\n        /* \"#utility.yul\":3709:3712   */\n      dup3\n        /* \"#utility.yul\":3702:3736   */\n      mstore\n        /* \"#utility.yul\":3633:3742   */\n      pop\n      pop\n      jump\t// out\n        /* \"#utility.yul\":3748:3958   */\n    tag_37:\n        /* \"#utility.yul\":3835:3839   */\n      0x00\n        /* \"#utility.yul\":3873:3875   */\n      0x20\n        /* \"#utility.yul\":3862:3871   */\n      dup3\n        /* \"#utility.yul\":3858:3876   */\n      add\n        /* \"#utility.yul\":3850:3876   */\n      swap1\n      pop\n        /* \"#utility.yul\":3886:3951   */\n      tag_403\n        /* \"#utility.yul\":3948:3949   */\n      0x00\n        /* \"#utility.yul\":3937:3946   */\n      dup4\n        /* \"#utility.yul\":3933:3950   */\n      add\n        /* \"#utility.yul\":3924:3930   */\n      dup5\n        /* \"#utility.yul\":3886:3951   */\n      tag_295\n      jump\t// in\n    tag_403:\n        /* \"#utility.yul\":3748:3958   */\n      swap3\n      swap2\n      pop\n      pop\n      jump\t// out\n        /* \"#utility.yul\":3964:4082   */\n    tag_296:\n        /* \"#utility.yul\":4051:4075   */\n      tag_405\n        /* \"#utility.yul\":4069:4074   */\n      dup2\n        /* \"#utility.yul\":4051:4075   */\n      tag_282\n      jump\t// in\n    tag_405:\n        /* \"#utility.yul\":4046:4049   */\n      dup3\n        /* \"#utility.yul\":4039:4076   */\n      mstore\n        /* \"#utility.yul\":3964:4082   */\n      pop\n      pop\n      jump\t// out\n        /* \"#utility.yul\":4088:4310   */\n    tag_41:\n        /* \"#utility.yul\":4181:4185   */\n      0x00\n        /* \"#utility.yul\":4219:4221   */\n      0x20\n        /* \"#utility.yul\":4208:4217   */\n      dup3\n        /* \"#utility.yul\":4204:4222   */\n      add\n        /* \"#utility.yul\":4196:4222   */\n      swap1\n      pop\n        /* \"#utility.yul\":4232:4303   */\n      tag_407\n        /* \"#utility.yul\":4300:4301   */\n      0x00\n        /* \"#utility.yul\":4289:4298   */\n      dup4\n        /* \"#utility.yul\":4285:4302   */\n      add\n        /* \"#utility.yul\":4276:4282   */\n      dup5\n        /* \"#utility.yul\":4232:4303   */\n      tag_296\n      jump\t// in\n    tag_407:\n        /* \"#utility.yul\":4088:4310   */\n      swap3\n      swap2\n      pop\n      pop\n      jump\t// out\n        /* \"#utility.yul\":4316:4935   */\n    tag_44:\n        /* \"#utility.yul\":4393:4399   */\n      0x00\n        /* \"#utility.yul\":4401:4407   */\n      0x00\n        /* \"#utility.yul\":4409:4415   */\n      0x00\n        /* \"#utility.yul\":4458:4460   */\n      0x60\n        /* \"#utility.yul\":4446:4455   */\n      dup5\n        /* \"#utility.yul\":4437:4444   */\n      dup7\n        /* \"#utility.yul\":4433:4456   */\n      sub\n        /* \"#utility.yul\":4429:4461   */\n      slt\n        /* \"#utility.yul\":4426:4545   */\n      iszero\n      tag_409\n      jumpi\n        /* \"#utility.yul\":4464:4543   */\n      tag_410\n      tag_280\n      jump\t// in\n    tag_410:\n        /* \"#utility.yul\":4426:4545   */\n    tag_409:\n        /* \"#utility.yul\":4584:4585   */\n      0x00\n        /* \"#utility.yul\":4609:4662   */\n      tag_411\n        /* \"#utility.yul\":4654:4661   */\n      dup7\n        /* \"#utility.yul\":4645:4651   */\n      dup3\n        /* \"#utility.yul\":4634:4643   */\n      dup8\n        /* \"#utility.yul\":4630:4652   */\n      add\n        /* \"#utility.yul\":4609:4662   */\n      tag_293\n      jump\t// in\n    tag_411:\n        /* \"#utility.yul\":4599:4662   */\n      swap4\n      pop\n        /* \"#utility.yul\":4555:4672   */\n      pop\n        /* \"#utility.yul\":4711:4713   */\n      0x20\n        /* \"#utility.yul\":4737:4790   */\n      tag_412\n        /* \"#utility.yul\":4782:4789   */\n      dup7\n        /* \"#utility.yul\":4773:4779   */\n      dup3\n        /* \"#utility.yul\":4762:4771   */\n      dup8\n        /* \"#utility.yul\":4758:4780   */\n      add\n        /* \"#utility.yul\":4737:4790   */\n      tag_293\n      jump\t// in\n    tag_412:\n        /* \"#utility.yul\":4727:4790   */\n      swap3\n      pop\n        /* \"#utility.yul\":4682:4800   */\n      pop\n        /* \"#utility.yul\":4839:4841   */\n      0x40\n        /* \"#utility.yul\":4865:4918   */\n      tag_413\n        /* \"#utility.yul\":4910:4917   */\n      dup7\n        /* \"#utility.yul\":4901:4907   */\n      dup3\n        /* \"#utility.yul\":4890:4899   */\n      dup8\n        /* \"#utility.yul\":4886:4908   */\n      add\n        /* \"#utility.yul\":4865:4918   */\n      tag_284\n      jump\t// in\n    tag_413:\n        /* \"#utility.yul\":4855:4918   */\n      swap2\n      pop\n        /* \"#utility.yul\":4810:4928   */\n      pop\n        /* \"#utility.yul\":4316:4935   */\n      swap3\n      pop\n      swap3\n      pop\n      swap3\n      jump\t// out\n        /* \"#utility.yul\":4941:5027   */\n    tag_297:\n        /* \"#utility.yul\":4976:4983   */\n      0x00\n        /* \"#utility.yul\":5016:5020   */\n      0xff\n        /* \"#utility.yul\":5009:5014   */\n      dup3\n        /* \"#utility.yul\":5005:5021   */\n      and\n        /* \"#utility.yul\":4994:5021   */\n      swap1\n      pop\n        /* \"#utility.yul\":4941:5027   */\n      swap2\n      swap1\n      pop\n      jump\t// out\n        /* \"#utility.yul\":5033:5145   */\n    tag_298:\n        /* \"#utility.yul\":5116:5138   */\n      tag_416\n        /* \"#utility.yul\":5132:5137   */\n      dup2\n        /* \"#utility.yul\":5116:5138   */\n      tag_297\n      jump\t// in\n    tag_416:\n        /* \"#utility.yul\":5111:5114   */\n      dup3\n        /* \"#utility.yul\":5104:5139   */\n      mstore\n        /* \"#utility.yul\":5033:5145   */\n      pop\n      pop\n      jump\t// out\n        /* \"#utility.yul\":5151:5365   */\n    tag_50:\n        /* \"#utility.yul\":5240:5244   */\n      0x00\n        /* \"#utility.yul\":5278:5280   */\n      0x20\n        /* \"#utility.yul\":5267:5276   */\n      dup3\n        /* \"#utility.yul\":5263:5281   */\n      add\n        /* \"#utility.yul\":5255:5281   */\n      swap1\n      pop\n        /* \"#utility.yul\":5291:5358   */\n      tag_418\n        /* \"#utility.yul\":5355:5356   */\n      0x00\n        /* \"#utility.yul\":5344:5353   */\n      dup4\n        /* \"#utility.yul\":5340:5357   */\n      add\n        /* \"#utility.yul\":5331:5337   */\n      dup5\n        /* \"#utility.yul\":5291:5358   */\n      tag_298\n      jump\t// in\n    tag_418:\n        /* \"#utility.yul\":5151:5365   */\n      swap3\n      swap2\n      pop\n      pop\n      jump\t// out\n        /* \"#utility.yul\":5371:5488   */\n    tag_299:\n        /* \"#utility.yul\":5480:5481   */\n      0x00\n        /* \"#utility.yul\":5477:5478   */\n      0x00\n        /* \"#utility.yul\":5470:5482   */\n      revert\n        /* \"#utility.yul\":5494:5611   */\n    tag_300:\n        /* \"#utility.yul\":5603:5604   */\n      0x00\n        /* \"#utility.yul\":5600:5601   */\n      0x00\n        /* \"#utility.yul\":5593:5605   */\n      revert\n        /* \"#utility.yul\":5617:5797   */\n    tag_301:\n        /* \"#utility.yul\":5665:5742   */\n      0x4e487b7100000000000000000000000000000000000000000000000000000000\n        /* \"#utility.yul\":5662:5663   */\n      0x00\n        /* \"#utility.yul\":5655:5743   */\n      mstore\n        /* \"#utility.yul\":5762:5766   */\n      0x41\n        /* \"#utility.yul\":5759:5760   */\n      0x04\n        /* \"#utility.yul\":5752:5767   */\n      mstore\n        /* \"#utility.yul\":5786:5790   */\n      0x24\n        /* \"#utility.yul\":5783:5784   */\n      0x00\n        /* \"#utility.yul\":5776:5791   */\n      revert\n        /* \"#utility.yul\":5803:6084   */\n    tag_302:\n        /* \"#utility.yul\":5886:5913   */\n      tag_423\n        /* \"#utility.yul\":5908:5912   */\n      dup3\n        /* \"#utility.yul\":5886:5913   */\n      tag_288\n      jump\t// in\n    tag_423:\n        /* \"#utility.yul\":5878:5884   */\n      dup2\n        /* \"#utility.yul\":5874:5914   */\n      add\n        /* \"#utility.yul\":6016:6022   */\n      dup2\n        /* \"#utility.yul\":6004:6014   */\n      dup2\n        /* \"#utility.yul\":6001:6023   */\n      lt\n        /* \"#utility.yul\":5980:5998   */\n      0xffffffffffffffff\n        /* \"#utility.yul\":5968:5978   */\n      dup3\n        /* \"#utility.yul\":5965:5999   */\n      gt\n        /* \"#utility.yul\":5962:6024   */\n      or\n        /* \"#utility.yul\":5959:6047   */\n      iszero\n      tag_424\n      jumpi\n        /* \"#utility.yul\":6027:6045   */\n      tag_425\n      tag_301\n      jump\t// in\n    tag_425:\n        /* \"#utility.yul\":5959:6047   */\n    tag_424:\n        /* \"#utility.yul\":6067:6077   */\n      dup1\n        /* \"#utility.yul\":6063:6065   */\n      0x40\n        /* \"#utility.yul\":6056:6078   */\n      mstore\n        /* \"#utility.yul\":5846:6084   */\n      pop\n        /* \"#utility.yul\":5803:6084   */\n      pop\n      pop\n      jump\t// out\n        /* \"#utility.yul\":6090:6219   */\n    tag_303:\n        /* \"#utility.yul\":6124:6130   */\n      0x00\n        /* \"#utility.yul\":6151:6171   */\n      tag_427\n      tag_279\n      jump\t// in\n    tag_427:\n        /* \"#utility.yul\":6141:6171   */\n      swap1\n      pop\n        /* \"#utility.yul\":6180:6213   */\n      tag_428\n        /* \"#utility.yul\":6208:6212   */\n      dup3\n        /* \"#utility.yul\":6200:6206   */\n      dup3\n        /* \"#utility.yul\":6180:6213   */\n      tag_302\n      jump\t// in\n    tag_428:\n        /* \"#utility.yul\":6090:6219   */\n      swap2\n      swap1\n      pop\n      jump\t// out\n        /* \"#utility.yul\":6225:6533   */\n    tag_304:\n        /* \"#utility.yul\":6287:6291   */\n      0x00\n        /* \"#utility.yul\":6377:6395   */\n      0xffffffffffffffff\n        /* \"#utility.yul\":6369:6375   */\n      dup3\n        /* \"#utility.yul\":6366:6396   */\n      gt\n        /* \"#utility.yul\":6363:6419   */\n      iszero\n      tag_430\n      jumpi\n        /* \"#utility.yul\":6399:6417   */\n      tag_431\n      tag_301\n      jump\t// in\n    tag_431:\n        /* \"#utility.yul\":6363:6419   */\n    tag_430:\n        /* \"#utility.yul\":6437:6466   */\n      tag_432\n        /* \"#utility.yul\":6459:6465   */\n      dup3\n        /* \"#utility.yul\":6437:6466   */\n      tag_288\n      jump\t// in\n    tag_432:\n        /* \"#utility.yul\":6429:6466   */\n      swap1\n      pop\n        /* \"#utility.yul\":6521:6525   */\n      0x20\n        /* \"#utility.yul\":6515:6519   */\n      dup2\n        /* \"#utility.yul\":6511:6526   */\n      add\n        /* \"#utility.yul\":6503:6526   */\n      swap1\n      pop\n        /* \"#utility.yul\":6225:6533   */\n      swap2\n      swap1\n      pop\n      jump\t// out\n        /* \"#utility.yul\":6539:6687   */\n    tag_305:\n        /* \"#utility.yul\":6637:6643   */\n      dup3\n        /* \"#utility.yul\":6632:6635   */\n      dup2\n        /* \"#utility.yul\":6627:6630   */\n      dup4\n        /* \"#utility.yul\":6614:6644   */\n      calldatacopy\n        /* \"#utility.yul\":6678:6679   */\n      0x00\n        /* \"#utility.yul\":6669:6675   */\n      dup4\n        /* \"#utility.yul\":6664:6667   */\n      dup4\n        /* \"#utility.yul\":6660:6676   */\n      add\n        /* \"#utility.yul\":6653:6680   */\n      mstore\n        /* \"#utility.yul\":6539:6687   */\n      pop\n      pop\n      pop\n      jump\t// out\n        /* \"#utility.yul\":6693:7118   */\n    tag_306:\n        /* \"#utility.yul\":6771:6776   */\n      0x00\n        /* \"#utility.yul\":6796:6862   */\n      tag_435\n        /* \"#utility.yul\":6812:6861   */\n      tag_436\n        /* \"#utility.yul\":6854:6860   */\n      dup5\n        /* \"#utility.yul\":6812:6861   */\n      tag_304\n      jump\t// in\n    tag_436:\n        /* \"#utility.yul\":6796:6862   */\n      tag_303\n      jump\t// in\n    tag_435:\n        /* \"#utility.yul\":6787:6862   */\n      swap1\n      pop\n        /* \"#utility.yul\":6885:6891   */\n      dup3\n        /* \"#utility.yul\":6878:6883   */\n      dup2\n        /* \"#utility.yul\":6871:6892   */\n      mstore\n        /* \"#utility.yul\":6923:6927   */\n      0x20\n        /* \"#utility.yul\":6916:6921   */\n      dup2\n        /* \"#utility.yul\":6912:6928   */\n      add\n        /* \"#utility.yul\":6961:6964   */\n      dup5\n        /* \"#utility.yul\":6952:6958   */\n      dup5\n        /* \"#utility.yul\":6947:6950   */\n      dup5\n        /* \"#utility.yul\":6943:6959   */\n      add\n        /* \"#utility.yul\":6940:6965   */\n      gt\n        /* \"#utility.yul\":6937:7049   */\n      iszero\n      tag_437\n      jumpi\n        /* \"#utility.yul\":6968:7047   */\n      tag_438\n      tag_300\n      jump\t// in\n    tag_438:\n        /* \"#utility.yul\":6937:7049   */\n    tag_437:\n        /* \"#utility.yul\":7058:7112   */\n      tag_439\n        /* \"#utility.yul\":7105:7111   */\n      dup5\n        /* \"#utility.yul\":7100:7103   */\n      dup3\n        /* \"#utility.yul\":7095:7098   */\n      dup6\n        /* \"#utility.yul\":7058:7112   */\n      tag_305\n      jump\t// in\n    tag_439:\n        /* \"#utility.yul\":6777:7118   */\n      pop\n        /* \"#utility.yul\":6693:7118   */\n      swap4\n      swap3\n      pop\n      pop\n      pop\n      jump\t// out\n        /* \"#utility.yul\":7138:7478   */\n    tag_307:\n        /* \"#utility.yul\":7194:7199   */\n      0x00\n        /* \"#utility.yul\":7243:7246   */\n      dup3\n        /* \"#utility.yul\":7236:7240   */\n      0x1f\n        /* \"#utility.yul\":7228:7234   */\n      dup4\n        /* \"#utility.yul\":7224:7241   */\n      add\n        /* \"#utility.yul\":7220:7247   */\n      slt\n        /* \"#utility.yul\":7210:7332   */\n      tag_441\n      jumpi\n        /* \"#utility.yul\":7251:7330   */\n      tag_442\n      tag_299\n      jump\t// in\n    tag_442:\n        /* \"#utility.yul\":7210:7332   */\n    tag_441:\n        /* \"#utility.yul\":7368:7374   */\n      dup2\n        /* \"#utility.yul\":7355:7375   */\n      calldataload\n        /* \"#utility.yul\":7393:7472   */\n      tag_443\n        /* \"#utility.yul\":7468:7471   */\n      dup5\n        /* \"#utility.yul\":7460:7466   */\n      dup3\n        /* \"#utility.yul\":7453:7457   */\n      0x20\n        /* \"#utility.yul\":7445:7451   */\n      dup7\n        /* \"#utility.yul\":7441:7458   */\n      add\n        /* \"#utility.yul\":7393:7472   */\n      tag_306\n      jump\t// in\n    tag_443:\n        /* \"#utility.yul\":7384:7472   */\n      swap2\n      pop\n        /* \"#utility.yul\":7200:7478   */\n      pop\n        /* \"#utility.yul\":7138:7478   */\n      swap3\n      swap2\n      pop\n      pop\n      jump\t// out\n        /* \"#utility.yul\":7484:8138   */\n    tag_53:\n        /* \"#utility.yul\":7562:7568   */\n      0x00\n        /* \"#utility.yul\":7570:7576   */\n      0x00\n        /* \"#utility.yul\":7619:7621   */\n      0x40\n        /* \"#utility.yul\":7607:7616   */\n      dup4\n        /* \"#utility.yul\":7598:7605   */\n      dup6\n        /* \"#utility.yul\":7594:7617   */\n      sub\n        /* \"#utility.yul\":7590:7622   */\n      slt\n        /* \"#utility.yul\":7587:7706   */\n      iszero\n      tag_445\n      jumpi\n        /* \"#utility.yul\":7625:7704   */\n      tag_446\n      tag_280\n      jump\t// in\n    tag_446:\n        /* \"#utility.yul\":7587:7706   */\n    tag_445:\n        /* \"#utility.yul\":7773:7774   */\n      0x00\n        /* \"#utility.yul\":7762:7771   */\n      dup4\n        /* \"#utility.yul\":7758:7775   */\n      add\n        /* \"#utility.yul\":7745:7776   */\n      calldataload\n        /* \"#utility.yul\":7803:7821   */\n      0xffffffffffffffff\n        /* \"#utility.yul\":7795:7801   */\n      dup2\n        /* \"#utility.yul\":7792:7822   */\n      gt\n        /* \"#utility.yul\":7789:7906   */\n      iszero\n      tag_447\n      jumpi\n        /* \"#utility.yul\":7825:7904   */\n      tag_448\n      tag_281\n      jump\t// in\n    tag_448:\n        /* \"#utility.yul\":7789:7906   */\n    tag_447:\n        /* \"#utility.yul\":7930:7993   */\n      tag_449\n        /* \"#utility.yul\":7985:7992   */\n      dup6\n        /* \"#utility.yul\":7976:7982   */\n      dup3\n        /* \"#utility.yul\":7965:7974   */\n      dup7\n        /* \"#utility.yul\":7961:7983   */\n      add\n        /* \"#utility.yul\":7930:7993   */\n      tag_307\n      jump\t// in\n    tag_449:\n        /* \"#utility.yul\":7920:7993   */\n      swap3\n      pop\n        /* \"#utility.yul\":7716:8003   */\n      pop\n        /* \"#utility.yul\":8042:8044   */\n      0x20\n        /* \"#utility.yul\":8068:8121   */\n      tag_450\n        /* \"#utility.yul\":8113:8120   */\n      dup6\n        /* \"#utility.yul\":8104:8110   */\n      dup3\n        /* \"#utility.yul\":8093:8102   */\n      dup7\n        /* \"#utility.yul\":8089:8111   */\n      add\n        /* \"#utility.yul\":8068:8121   */\n      tag_284\n      jump\t// in\n    tag_450:\n        /* \"#utility.yul\":8058:8121   */\n      swap2\n      pop\n        /* \"#utility.yul\":8013:8131   */\n      pop\n        /* \"#utility.yul\":7484:8138   */\n      swap3\n      pop\n      swap3\n      swap1\n      pop\n      jump\t// out\n        /* \"#utility.yul\":8144:8618   */\n    tag_58:\n        /* \"#utility.yul\":8212:8218   */\n      0x00\n        /* \"#utility.yul\":8220:8226   */\n      0x00\n        /* \"#utility.yul\":8269:8271   */\n      0x40\n        /* \"#utility.yul\":8257:8266   */\n      dup4\n        /* \"#utility.yul\":8248:8255   */\n      dup6\n        /* \"#utility.yul\":8244:8267   */\n      sub\n        /* \"#utility.yul\":8240:8272   */\n      slt\n        /* \"#utility.yul\":8237:8356   */\n      iszero\n      tag_452\n      jumpi\n        /* \"#utility.yul\":8275:8354   */\n      tag_453\n      tag_280\n      jump\t// in\n    tag_453:\n        /* \"#utility.yul\":8237:8356   */\n    tag_452:\n        /* \"#utility.yul\":8395:8396   */\n      0x00\n        /* \"#utility.yul\":8420:8473   */\n      tag_454\n        /* \"#utility.yul\":8465:8472   */\n      dup6\n        /* \"#utility.yul\":8456:8462   */\n      dup3\n        /* \"#utility.yul\":8445:8454   */\n      dup7\n        /* \"#utility.yul\":8441:8463   */\n      add\n        /* \"#utility.yul\":8420:8473   */\n      tag_284\n      jump\t// in\n    tag_454:\n        /* \"#utility.yul\":8410:8473   */\n      swap3\n      pop\n        /* \"#utility.yul\":8366:8483   */\n      pop\n        /* \"#utility.yul\":8522:8524   */\n      0x20\n        /* \"#utility.yul\":8548:8601   */\n      tag_455\n        /* \"#utility.yul\":8593:8600   */\n      dup6\n        /* \"#utility.yul\":8584:8590   */\n      dup3\n        /* \"#utility.yul\":8573:8582   */\n      dup7\n        /* \"#utility.yul\":8569:8591   */\n      add\n        /* \"#utility.yul\":8548:8601   */\n      tag_284\n      jump\t// in\n    tag_455:\n        /* \"#utility.yul\":8538:8601   */\n      swap2\n      pop\n        /* \"#utility.yul\":8493:8611   */\n      pop\n        /* \"#utility.yul\":8144:8618   */\n      swap3\n      pop\n      swap3\n      swap1\n      pop\n      jump\t// out\n        /* \"#utility.yul\":8624:8953   */\n    tag_63:\n        /* \"#utility.yul\":8683:8689   */\n      0x00\n        /* \"#utility.yul\":8732:8734   */\n      0x20\n        /* \"#utility.yul\":8720:8729   */\n      dup3\n        /* \"#utility.yul\":8711:8718   */\n      dup5\n        /* \"#utility.yul\":8707:8730   */\n      sub\n        /* \"#utility.yul\":8703:8735   */\n      slt\n        /* \"#utility.yul\":8700:8819   */\n      iszero\n      tag_457\n      jumpi\n        /* \"#utility.yul\":8738:8817   */\n      tag_458\n      tag_280\n      jump\t// in\n    tag_458:\n        /* \"#utility.yul\":8700:8819   */\n    tag_457:\n        /* \"#utility.yul\":8858:8859   */\n      0x00\n        /* \"#utility.yul\":8883:8936   */\n      tag_459\n        /* \"#utility.yul\":8928:8935   */\n      dup5\n        /* \"#utility.yul\":8919:8925   */\n      dup3\n        /* \"#utility.yul\":8908:8917   */\n      dup6\n        /* \"#utility.yul\":8904:8926   */\n      add\n        /* \"#utility.yul\":8883:8936   */\n      tag_293\n      jump\t// in\n    tag_459:\n        /* \"#utility.yul\":8873:8936   */\n      swap2\n      pop\n        /* \"#utility.yul\":8829:8946   */\n      pop\n        /* \"#utility.yul\":8624:8953   */\n      swap3\n      swap2\n      pop\n      pop\n      jump\t// out\n        /* \"#utility.yul\":8959:9077   */\n    tag_308:\n        /* \"#utility.yul\":9046:9070   */\n      tag_461\n        /* \"#utility.yul\":9064:9069   */\n      dup2\n        /* \"#utility.yul\":9046:9070   */\n      tag_291\n      jump\t// in\n    tag_461:\n        /* \"#utility.yul\":9041:9044   */\n      dup3\n        /* \"#utility.yul\":9034:9071   */\n      mstore\n        /* \"#utility.yul\":8959:9077   */\n      pop\n      pop\n      jump\t// out\n        /* \"#utility.yul\":9083:9305   */\n    tag_69:\n        /* \"#utility.yul\":9176:9180   */\n      0x00\n        /* \"#utility.yul\":9214:9216   */\n      0x20\n        /* \"#utility.yul\":9203:9212   */\n      dup3\n        /* \"#utility.yul\":9199:9217   */\n      add\n        /* \"#utility.yul\":9191:9217   */\n      swap1\n      pop\n        /* \"#utility.yul\":9227:9298   */\n      tag_463\n        /* \"#utility.yul\":9295:9296   */\n      0x00\n        /* \"#utility.yul\":9284:9293   */\n      dup4\n        /* \"#utility.yul\":9280:9297   */\n      add\n        /* \"#utility.yul\":9271:9277   */\n      dup5\n        /* \"#utility.yul\":9227:9298   */\n      tag_308\n      jump\t// in\n    tag_463:\n        /* \"#utility.yul\":9083:9305   */\n      swap3\n      swap2\n      pop\n      pop\n      jump\t// out\n        /* \"#utility.yul\":9311:9864   */\n    tag_81:\n        /* \"#utility.yul\":9488:9492   */\n      0x00\n        /* \"#utility.yul\":9526:9529   */\n      0x80\n        /* \"#utility.yul\":9515:9524   */\n      dup3\n        /* \"#utility.yul\":9511:9530   */\n      add\n        /* \"#utility.yul\":9503:9530   */\n      swap1\n      pop\n        /* \"#utility.yul\":9540:9611   */\n      tag_465\n        /* \"#utility.yul\":9608:9609   */\n      0x00\n        /* \"#utility.yul\":9597:9606   */\n      dup4\n        /* \"#utility.yul\":9593:9610   */\n      add\n        /* \"#utility.yul\":9584:9590   */\n      dup8\n        /* \"#utility.yul\":9540:9611   */\n      tag_296\n      jump\t// in\n    tag_465:\n        /* \"#utility.yul\":9621:9693   */\n      tag_466\n        /* \"#utility.yul\":9689:9691   */\n      0x20\n        /* \"#utility.yul\":9678:9687   */\n      dup4\n        /* \"#utility.yul\":9674:9692   */\n      add\n        /* \"#utility.yul\":9665:9671   */\n      dup7\n        /* \"#utility.yul\":9621:9693   */\n      tag_296\n      jump\t// in\n    tag_466:\n        /* \"#utility.yul\":9703:9775   */\n      tag_467\n        /* \"#utility.yul\":9771:9773   */\n      0x40\n        /* \"#utility.yul\":9760:9769   */\n      dup4\n        /* \"#utility.yul\":9756:9774   */\n      add\n        /* \"#utility.yul\":9747:9753   */\n      dup6\n        /* \"#utility.yul\":9703:9775   */\n      tag_308\n      jump\t// in\n    tag_467:\n        /* \"#utility.yul\":9785:9857   */\n      tag_468\n        /* \"#utility.yul\":9853:9855   */\n      0x60\n        /* \"#utility.yul\":9842:9851   */\n      dup4\n        /* \"#utility.yul\":9838:9856   */\n      add\n        /* \"#utility.yul\":9829:9835   */\n      dup5\n        /* \"#utility.yul\":9785:9857   */\n      tag_296\n      jump\t// in\n    tag_468:\n        /* \"#utility.yul\":9311:9864   */\n      swap6\n      swap5\n      pop\n      pop\n      pop\n      pop\n      pop\n      jump\t// out\n        /* \"#utility.yul\":9870:10007   */\n    tag_309:\n        /* \"#utility.yul\":9960:9966   */\n      0x00\n        /* \"#utility.yul\":9994:9999   */\n      dup2\n        /* \"#utility.yul\":9988:10000   */\n      mload\n        /* \"#utility.yul\":9978:10000   */\n      swap1\n      pop\n        /* \"#utility.yul\":9870:10007   */\n      swap2\n      swap1\n      pop\n      jump\t// out\n        /* \"#utility.yul\":10013:10220   */\n    tag_310:\n        /* \"#utility.yul\":10135:10146   */\n      0x00\n        /* \"#utility.yul\":10169:10175   */\n      dup3\n        /* \"#utility.yul\":10164:10167   */\n      dup3\n        /* \"#utility.yul\":10157:10176   */\n      mstore\n        /* \"#utility.yul\":10209:10213   */\n      0x20\n        /* \"#utility.yul\":10204:10207   */\n      dup3\n        /* \"#utility.yul\":10200:10214   */\n      add\n        /* \"#utility.yul\":10185:10214   */\n      swap1\n      pop\n        /* \"#utility.yul\":10013:10220   */\n      swap3\n      swap2\n      pop\n      pop\n      jump\t// out\n        /* \"#utility.yul\":10226:10381   */\n    tag_311:\n        /* \"#utility.yul\":10316:10320   */\n      0x00\n        /* \"#utility.yul\":10339:10342   */\n      dup2\n        /* \"#utility.yul\":10331:10342   */\n      swap1\n      pop\n        /* \"#utility.yul\":10369:10373   */\n      0x20\n        /* \"#utility.yul\":10364:10367   */\n      dup3\n        /* \"#utility.yul\":10360:10374   */\n      add\n        /* \"#utility.yul\":10352:10374   */\n      swap1\n      pop\n        /* \"#utility.yul\":10226:10381   */\n      swap2\n      swap1\n      pop\n      jump\t// out\n        /* \"#utility.yul\":10387:10495   */\n    tag_312:\n        /* \"#utility.yul\":10464:10488   */\n      tag_473\n        /* \"#utility.yul\":10482:10487   */\n      dup2\n        /* \"#utility.yul\":10464:10488   */\n      tag_291\n      jump\t// in\n    tag_473:\n        /* \"#utility.yul\":10459:10462   */\n      dup3\n        /* \"#utility.yul\":10452:10489   */\n      mstore\n        /* \"#utility.yul\":10387:10495   */\n      pop\n      pop\n      jump\t// out\n        /* \"#utility.yul\":10501:10660   */\n    tag_313:\n        /* \"#utility.yul\":10575:10586   */\n      0x00\n        /* \"#utility.yul\":10609:10615   */\n      dup3\n        /* \"#utility.yul\":10604:10607   */\n      dup3\n        /* \"#utility.yul\":10597:10616   */\n      mstore\n        /* \"#utility.yul\":10649:10653   */\n      0x20\n        /* \"#utility.yul\":10644:10647   */\n      dup3\n        /* \"#utility.yul\":10640:10654   */\n      add\n        /* \"#utility.yul\":10625:10654   */\n      swap1\n      pop\n        /* \"#utility.yul\":10501:10660   */\n      swap3\n      swap2\n      pop\n      pop\n      jump\t// out\n        /* \"#utility.yul\":10666:11023   */\n    tag_314:\n        /* \"#utility.yul\":10744:10747   */\n      0x00\n        /* \"#utility.yul\":10772:10811   */\n      tag_476\n        /* \"#utility.yul\":10805:10810   */\n      dup3\n        /* \"#utility.yul\":10772:10811   */\n      tag_285\n      jump\t// in\n    tag_476:\n        /* \"#utility.yul\":10827:10888   */\n      tag_477\n        /* \"#utility.yul\":10881:10887   */\n      dup2\n        /* \"#utility.yul\":10876:10879   */\n      dup6\n        /* \"#utility.yul\":10827:10888   */\n      tag_313\n      jump\t// in\n    tag_477:\n        /* \"#utility.yul\":10820:10888   */\n      swap4\n      pop\n        /* \"#utility.yul\":10897:10962   */\n      tag_478\n        /* \"#utility.yul\":10955:10961   */\n      dup2\n        /* \"#utility.yul\":10950:10953   */\n      dup6\n        /* \"#utility.yul\":10943:10947   */\n      0x20\n        /* \"#utility.yul\":10936:10941   */\n      dup7\n        /* \"#utility.yul\":10932:10948   */\n      add\n        /* \"#utility.yul\":10897:10962   */\n      tag_287\n      jump\t// in\n    tag_478:\n        /* \"#utility.yul\":10987:11016   */\n      tag_479\n        /* \"#utility.yul\":11009:11015   */\n      dup2\n        /* \"#utility.yul\":10987:11016   */\n      tag_288\n      jump\t// in\n    tag_479:\n        /* \"#utility.yul\":10982:10985   */\n      dup5\n        /* \"#utility.yul\":10978:11017   */\n      add\n        /* \"#utility.yul\":10971:11017   */\n      swap2\n      pop\n        /* \"#utility.yul\":10748:11023   */\n      pop\n        /* \"#utility.yul\":10666:11023   */\n      swap3\n      swap2\n      pop\n      pop\n      jump\t// out\n        /* \"#utility.yul\":11029:11137   */\n    tag_315:\n        /* \"#utility.yul\":11106:11130   */\n      tag_481\n        /* \"#utility.yul\":11124:11129   */\n      dup2\n        /* \"#utility.yul\":11106:11130   */\n      tag_282\n      jump\t// in\n    tag_481:\n        /* \"#utility.yul\":11101:11104   */\n      dup3\n        /* \"#utility.yul\":11094:11131   */\n      mstore\n        /* \"#utility.yul\":11029:11137   */\n      pop\n      pop\n      jump\t// out\n        /* \"#utility.yul\":11211:11986   */\n    tag_316:\n        /* \"#utility.yul\":11316:11319   */\n      0x00\n        /* \"#utility.yul\":11352:11356   */\n      0x60\n        /* \"#utility.yul\":11347:11350   */\n      dup4\n        /* \"#utility.yul\":11343:11357   */\n      add\n        /* \"#utility.yul\":11443:11447   */\n      0x00\n        /* \"#utility.yul\":11436:11441   */\n      dup4\n        /* \"#utility.yul\":11432:11448   */\n      add\n        /* \"#utility.yul\":11426:11449   */\n      mload\n        /* \"#utility.yul\":11462:11525   */\n      tag_483\n        /* \"#utility.yul\":11519:11523   */\n      0x00\n        /* \"#utility.yul\":11514:11517   */\n      dup7\n        /* \"#utility.yul\":11510:11524   */\n      add\n        /* \"#utility.yul\":11496:11508   */\n      dup3\n        /* \"#utility.yul\":11462:11525   */\n      tag_312\n      jump\t// in\n    tag_483:\n        /* \"#utility.yul\":11367:11535   */\n      pop\n        /* \"#utility.yul\":11617:11621   */\n      0x20\n        /* \"#utility.yul\":11610:11615   */\n      dup4\n        /* \"#utility.yul\":11606:11622   */\n      add\n        /* \"#utility.yul\":11600:11623   */\n      mload\n        /* \"#utility.yul\":11670:11673   */\n      dup5\n        /* \"#utility.yul\":11664:11668   */\n      dup3\n        /* \"#utility.yul\":11660:11674   */\n      sub\n        /* \"#utility.yul\":11653:11657   */\n      0x20\n        /* \"#utility.yul\":11648:11651   */\n      dup7\n        /* \"#utility.yul\":11644:11658   */\n      add\n        /* \"#utility.yul\":11637:11675   */\n      mstore\n        /* \"#utility.yul\":11696:11769   */\n      tag_484\n        /* \"#utility.yul\":11764:11768   */\n      dup3\n        /* \"#utility.yul\":11750:11762   */\n      dup3\n        /* \"#utility.yul\":11696:11769   */\n      tag_314\n      jump\t// in\n    tag_484:\n        /* \"#utility.yul\":11688:11769   */\n      swap2\n      pop\n        /* \"#utility.yul\":11545:11780   */\n      pop\n        /* \"#utility.yul\":11867:11871   */\n      0x40\n        /* \"#utility.yul\":11860:11865   */\n      dup4\n        /* \"#utility.yul\":11856:11872   */\n      add\n        /* \"#utility.yul\":11850:11873   */\n      mload\n        /* \"#utility.yul\":11886:11949   */\n      tag_485\n        /* \"#utility.yul\":11943:11947   */\n      0x40\n        /* \"#utility.yul\":11938:11941   */\n      dup7\n        /* \"#utility.yul\":11934:11948   */\n      add\n        /* \"#utility.yul\":11920:11932   */\n      dup3\n        /* \"#utility.yul\":11886:11949   */\n      tag_315\n      jump\t// in\n    tag_485:\n        /* \"#utility.yul\":11790:11959   */\n      pop\n        /* \"#utility.yul\":11976:11980   */\n      dup1\n        /* \"#utility.yul\":11969:11980   */\n      swap2\n      pop\n        /* \"#utility.yul\":11321:11986   */\n      pop\n        /* \"#utility.yul\":11211:11986   */\n      swap3\n      swap2\n      pop\n      pop\n      jump\t// out\n        /* \"#utility.yul\":11992:12240   */\n    tag_317:\n        /* \"#utility.yul\":12107:12117   */\n      0x00\n        /* \"#utility.yul\":12142:12234   */\n      tag_487\n        /* \"#utility.yul\":12230:12233   */\n      dup4\n        /* \"#utility.yul\":12222:12228   */\n      dup4\n        /* \"#utility.yul\":12142:12234   */\n      tag_316\n      jump\t// in\n    tag_487:\n        /* \"#utility.yul\":12128:12234   */\n      swap1\n      pop\n        /* \"#utility.yul\":11992:12240   */\n      swap3\n      swap2\n      pop\n      pop\n      jump\t// out\n        /* \"#utility.yul\":12246:12382   */\n    tag_318:\n        /* \"#utility.yul\":12339:12343   */\n      0x00\n        /* \"#utility.yul\":12371:12375   */\n      0x20\n        /* \"#utility.yul\":12366:12369   */\n      dup3\n        /* \"#utility.yul\":12362:12376   */\n      add\n        /* \"#utility.yul\":12354:12376   */\n      swap1\n      pop\n        /* \"#utility.yul\":12246:12382   */\n      swap2\n      swap1\n      pop\n      jump\t// out\n        /* \"#utility.yul\":12460:13555   */\n    tag_319:\n        /* \"#utility.yul\":12625:12628   */\n      0x00\n        /* \"#utility.yul\":12654:12731   */\n      tag_490\n        /* \"#utility.yul\":12725:12730   */\n      dup3\n        /* \"#utility.yul\":12654:12731   */\n      tag_309\n      jump\t// in\n    tag_490:\n        /* \"#utility.yul\":12747:12856   */\n      tag_491\n        /* \"#utility.yul\":12849:12855   */\n      dup2\n        /* \"#utility.yul\":12844:12847   */\n      dup6\n        /* \"#utility.yul\":12747:12856   */\n      tag_310\n      jump\t// in\n    tag_491:\n        /* \"#utility.yul\":12740:12856   */\n      swap4\n      pop\n        /* \"#utility.yul\":12882:12885   */\n      dup4\n        /* \"#utility.yul\":12927:12931   */\n      0x20\n        /* \"#utility.yul\":12919:12925   */\n      dup3\n        /* \"#utility.yul\":12915:12932   */\n      mul\n        /* \"#utility.yul\":12910:12913   */\n      dup6\n        /* \"#utility.yul\":12906:12933   */\n      add\n        /* \"#utility.yul\":12957:13036   */\n      tag_492\n        /* \"#utility.yul\":13030:13035   */\n      dup6\n        /* \"#utility.yul\":12957:13036   */\n      tag_311\n      jump\t// in\n    tag_492:\n        /* \"#utility.yul\":13059:13066   */\n      dup1\n        /* \"#utility.yul\":13090:13091   */\n      0x00\n        /* \"#utility.yul\":13075:13510   */\n    tag_493:\n        /* \"#utility.yul\":13100:13106   */\n      dup6\n        /* \"#utility.yul\":13097:13098   */\n      dup2\n        /* \"#utility.yul\":13094:13107   */\n      lt\n        /* \"#utility.yul\":13075:13510   */\n      iszero\n      tag_495\n      jumpi\n        /* \"#utility.yul\":13171:13180   */\n      dup5\n        /* \"#utility.yul\":13165:13169   */\n      dup5\n        /* \"#utility.yul\":13161:13181   */\n      sub\n        /* \"#utility.yul\":13156:13159   */\n      dup10\n        /* \"#utility.yul\":13149:13182   */\n      mstore\n        /* \"#utility.yul\":13222:13228   */\n      dup2\n        /* \"#utility.yul\":13216:13229   */\n      mload\n        /* \"#utility.yul\":13250:13360   */\n      tag_496\n        /* \"#utility.yul\":13355:13359   */\n      dup6\n        /* \"#utility.yul\":13340:13353   */\n      dup3\n        /* \"#utility.yul\":13250:13360   */\n      tag_317\n      jump\t// in\n    tag_496:\n        /* \"#utility.yul\":13242:13360   */\n      swap5\n      pop\n        /* \"#utility.yul\":13383:13466   */\n      tag_497\n        /* \"#utility.yul\":13459:13465   */\n      dup4\n        /* \"#utility.yul\":13383:13466   */\n      tag_318\n      jump\t// in\n    tag_497:\n        /* \"#utility.yul\":13373:13466   */\n      swap3\n      pop\n        /* \"#utility.yul\":13495:13499   */\n      0x20\n        /* \"#utility.yul\":13490:13493   */\n      dup11\n        /* \"#utility.yul\":13486:13500   */\n      add\n        /* \"#utility.yul\":13479:13500   */\n      swap10\n      pop\n        /* \"#utility.yul\":13135:13510   */\n      pop\n        /* \"#utility.yul\":13122:13123   */\n      0x01\n        /* \"#utility.yul\":13119:13120   */\n      dup2\n        /* \"#utility.yul\":13115:13124   */\n      add\n        /* \"#utility.yul\":13110:13124   */\n      swap1\n      pop\n        /* \"#utility.yul\":13075:13510   */\n      jump(tag_493)\n    tag_495:\n        /* \"#utility.yul\":13079:13093   */\n      pop\n        /* \"#utility.yul\":13526:13530   */\n      dup3\n        /* \"#utility.yul\":13519:13530   */\n      swap8\n      pop\n        /* \"#utility.yul\":13546:13549   */\n      dup8\n        /* \"#utility.yul\":13539:13549   */\n      swap6\n      pop\n        /* \"#utility.yul\":12630:13555   */\n      pop\n      pop\n      pop\n      pop\n      pop\n        /* \"#utility.yul\":12460:13555   */\n      swap3\n      swap2\n      pop\n      pop\n      jump\t// out\n        /* \"#utility.yul\":13561:14026   */\n    tag_85:\n        /* \"#utility.yul\":13750:13754   */\n      0x00\n        /* \"#utility.yul\":13788:13790   */\n      0x20\n        /* \"#utility.yul\":13777:13786   */\n      dup3\n        /* \"#utility.yul\":13773:13791   */\n      add\n        /* \"#utility.yul\":13765:13791   */\n      swap1\n      pop\n        /* \"#utility.yul\":13837:13846   */\n      dup2\n        /* \"#utility.yul\":13831:13835   */\n      dup2\n        /* \"#utility.yul\":13827:13847   */\n      sub\n        /* \"#utility.yul\":13823:13824   */\n      0x00\n        /* \"#utility.yul\":13812:13821   */\n      dup4\n        /* \"#utility.yul\":13808:13825   */\n      add\n        /* \"#utility.yul\":13801:13848   */\n      mstore\n        /* \"#utility.yul\":13865:14019   */\n      tag_499\n        /* \"#utility.yul\":14014:14018   */\n      dup2\n        /* \"#utility.yul\":14005:14011   */\n      dup5\n        /* \"#utility.yul\":13865:14019   */\n      tag_319\n      jump\t// in\n    tag_499:\n        /* \"#utility.yul\":13857:14019   */\n      swap1\n      pop\n        /* \"#utility.yul\":13561:14026   */\n      swap3\n      swap2\n      pop\n      pop\n      jump\t// out\n        /* \"#utility.yul\":14032:14506   */\n    tag_88:\n        /* \"#utility.yul\":14100:14106   */\n      0x00\n        /* \"#utility.yul\":14108:14114   */\n      0x00\n        /* \"#utility.yul\":14157:14159   */\n      0x40\n        /* \"#utility.yul\":14145:14154   */\n      dup4\n        /* \"#utility.yul\":14136:14143   */\n      dup6\n        /* \"#utility.yul\":14132:14155   */\n      sub\n        /* \"#utility.yul\":14128:14160   */\n      slt\n        /* \"#utility.yul\":14125:14244   */\n      iszero\n      tag_501\n      jumpi\n        /* \"#utility.yul\":14163:14242   */\n      tag_502\n      tag_280\n      jump\t// in\n    tag_502:\n        /* \"#utility.yul\":14125:14244   */\n    tag_501:\n        /* \"#utility.yul\":14283:14284   */\n      0x00\n        /* \"#utility.yul\":14308:14361   */\n      tag_503\n        /* \"#utility.yul\":14353:14360   */\n      dup6\n        /* \"#utility.yul\":14344:14350   */\n      dup3\n        /* \"#utility.yul\":14333:14342   */\n      dup7\n        /* \"#utility.yul\":14329:14351   */\n      add\n        /* \"#utility.yul\":14308:14361   */\n      tag_293\n      jump\t// in\n    tag_503:\n        /* \"#utility.yul\":14298:14361   */\n      swap3\n      pop\n        /* \"#utility.yul\":14254:14371   */\n      pop\n        /* \"#utility.yul\":14410:14412   */\n      0x20\n        /* \"#utility.yul\":14436:14489   */\n      tag_504\n        /* \"#utility.yul\":14481:14488   */\n      dup6\n        /* \"#utility.yul\":14472:14478   */\n      dup3\n        /* \"#utility.yul\":14461:14470   */\n      dup7\n        /* \"#utility.yul\":14457:14479   */\n      add\n        /* \"#utility.yul\":14436:14489   */\n      tag_293\n      jump\t// in\n    tag_504:\n        /* \"#utility.yul\":14426:14489   */\n      swap2\n      pop\n        /* \"#utility.yul\":14381:14499   */\n      pop\n        /* \"#utility.yul\":14032:14506   */\n      swap3\n      pop\n      swap3\n      swap1\n      pop\n      jump\t// out\n        /* \"#utility.yul\":14512:14636   */\n    tag_320:\n        /* \"#utility.yul\":14589:14595   */\n      0x00\n        /* \"#utility.yul\":14623:14628   */\n      dup2\n        /* \"#utility.yul\":14617:14629   */\n      mload\n        /* \"#utility.yul\":14607:14629   */\n      swap1\n      pop\n        /* \"#utility.yul\":14512:14636   */\n      swap2\n      swap1\n      pop\n      jump\t// out\n        /* \"#utility.yul\":14642:14836   */\n    tag_321:\n        /* \"#utility.yul\":14751:14762   */\n      0x00\n        /* \"#utility.yul\":14785:14791   */\n      dup3\n        /* \"#utility.yul\":14780:14783   */\n      dup3\n        /* \"#utility.yul\":14773:14792   */\n      mstore\n        /* \"#utility.yul\":14825:14829   */\n      0x20\n        /* \"#utility.yul\":14820:14823   */\n      dup3\n        /* \"#utility.yul\":14816:14830   */\n      add\n        /* \"#utility.yul\":14801:14830   */\n      swap1\n      pop\n        /* \"#utility.yul\":14642:14836   */\n      swap3\n      swap2\n      pop\n      pop\n      jump\t// out\n        /* \"#utility.yul\":14842:14984   */\n    tag_322:\n        /* \"#utility.yul\":14919:14923   */\n      0x00\n        /* \"#utility.yul\":14942:14945   */\n      dup2\n        /* \"#utility.yul\":14934:14945   */\n      swap1\n      pop\n        /* \"#utility.yul\":14972:14976   */\n      0x20\n        /* \"#utility.yul\":14967:14970   */\n      dup3\n        /* \"#utility.yul\":14963:14977   */\n      add\n        /* \"#utility.yul\":14955:14977   */\n      swap1\n      pop\n        /* \"#utility.yul\":14842:14984   */\n      swap2\n      swap1\n      pop\n      jump\t// out\n        /* \"#utility.yul\":14990:15186   */\n    tag_323:\n        /* \"#utility.yul\":15079:15089   */\n      0x00\n        /* \"#utility.yul\":15114:15180   */\n      tag_509\n        /* \"#utility.yul\":15176:15179   */\n      dup4\n        /* \"#utility.yul\":15168:15174   */\n      dup4\n        /* \"#utility.yul\":15114:15180   */\n      tag_314\n      jump\t// in\n    tag_509:\n        /* \"#utility.yul\":15100:15180   */\n      swap1\n      pop\n        /* \"#utility.yul\":14990:15186   */\n      swap3\n      swap2\n      pop\n      pop\n      jump\t// out\n        /* \"#utility.yul\":15192:15315   */\n    tag_324:\n        /* \"#utility.yul\":15272:15276   */\n      0x00\n        /* \"#utility.yul\":15304:15308   */\n      0x20\n        /* \"#utility.yul\":15299:15302   */\n      dup3\n        /* \"#utility.yul\":15295:15309   */\n      add\n        /* \"#utility.yul\":15287:15309   */\n      swap1\n      pop\n        /* \"#utility.yul\":15192:15315   */\n      swap2\n      swap1\n      pop\n      jump\t// out\n        /* \"#utility.yul\":15349:16340   */\n    tag_325:\n        /* \"#utility.yul\":15488:15491   */\n      0x00\n        /* \"#utility.yul\":15517:15581   */\n      tag_512\n        /* \"#utility.yul\":15575:15580   */\n      dup3\n        /* \"#utility.yul\":15517:15581   */\n      tag_320\n      jump\t// in\n    tag_512:\n        /* \"#utility.yul\":15597:15693   */\n      tag_513\n        /* \"#utility.yul\":15686:15692   */\n      dup2\n        /* \"#utility.yul\":15681:15684   */\n      dup6\n        /* \"#utility.yul\":15597:15693   */\n      tag_321\n      jump\t// in\n    tag_513:\n        /* \"#utility.yul\":15590:15693   */\n      swap4\n      pop\n        /* \"#utility.yul\":15719:15722   */\n      dup4\n        /* \"#utility.yul\":15764:15768   */\n      0x20\n        /* \"#utility.yul\":15756:15762   */\n      dup3\n        /* \"#utility.yul\":15752:15769   */\n      mul\n        /* \"#utility.yul\":15747:15750   */\n      dup6\n        /* \"#utility.yul\":15743:15770   */\n      add\n        /* \"#utility.yul\":15794:15860   */\n      tag_514\n        /* \"#utility.yul\":15854:15859   */\n      dup6\n        /* \"#utility.yul\":15794:15860   */\n      tag_322\n      jump\t// in\n    tag_514:\n        /* \"#utility.yul\":15883:15890   */\n      dup1\n        /* \"#utility.yul\":15914:15915   */\n      0x00\n        /* \"#utility.yul\":15899:16295   */\n    tag_515:\n        /* \"#utility.yul\":15924:15930   */\n      dup6\n        /* \"#utility.yul\":15921:15922   */\n      dup2\n        /* \"#utility.yul\":15918:15931   */\n      lt\n        /* \"#utility.yul\":15899:16295   */\n      iszero\n      tag_517\n      jumpi\n        /* \"#utility.yul\":15995:16004   */\n      dup5\n        /* \"#utility.yul\":15989:15993   */\n      dup5\n        /* \"#utility.yul\":15985:16005   */\n      sub\n        /* \"#utility.yul\":15980:15983   */\n      dup10\n        /* \"#utility.yul\":15973:16006   */\n      mstore\n        /* \"#utility.yul\":16046:16052   */\n      dup2\n        /* \"#utility.yul\":16040:16053   */\n      mload\n        /* \"#utility.yul\":16074:16158   */\n      tag_518\n        /* \"#utility.yul\":16153:16157   */\n      dup6\n        /* \"#utility.yul\":16138:16151   */\n      dup3\n        /* \"#utility.yul\":16074:16158   */\n      tag_323\n      jump\t// in\n    tag_518:\n        /* \"#utility.yul\":16066:16158   */\n      swap5\n      pop\n        /* \"#utility.yul\":16181:16251   */\n      tag_519\n        /* \"#utility.yul\":16244:16250   */\n      dup4\n        /* \"#utility.yul\":16181:16251   */\n      tag_324\n      jump\t// in\n    tag_519:\n        /* \"#utility.yul\":16171:16251   */\n      swap3\n      pop\n        /* \"#utility.yul\":16280:16284   */\n      0x20\n        /* \"#utility.yul\":16275:16278   */\n      dup11\n        /* \"#utility.yul\":16271:16285   */\n      add\n        /* \"#utility.yul\":16264:16285   */\n      swap10\n      pop\n        /* \"#utility.yul\":15959:16295   */\n      pop\n        /* \"#utility.yul\":15946:15947   */\n      0x01\n        /* \"#utility.yul\":15943:15944   */\n      dup2\n        /* \"#utility.yul\":15939:15948   */\n      add\n        /* \"#utility.yul\":15934:15948   */\n      swap1\n      pop\n        /* \"#utility.yul\":15899:16295   */\n      jump(tag_515)\n    tag_517:\n        /* \"#utility.yul\":15903:15917   */\n      pop\n        /* \"#utility.yul\":16311:16315   */\n      dup3\n        /* \"#utility.yul\":16304:16315   */\n      swap8\n      pop\n        /* \"#utility.yul\":16331:16334   */\n      dup8\n        /* \"#utility.yul\":16324:16334   */\n      swap6\n      pop\n        /* \"#utility.yul\":15493:16340   */\n      pop\n      pop\n      pop\n      pop\n      pop\n        /* \"#utility.yul\":15349:16340   */\n      swap3\n      swap2\n      pop\n      pop\n      jump\t// out\n        /* \"#utility.yul\":16346:16759   */\n    tag_94:\n        /* \"#utility.yul\":16509:16513   */\n      0x00\n        /* \"#utility.yul\":16547:16549   */\n      0x20\n        /* \"#utility.yul\":16536:16545   */\n      dup3\n        /* \"#utility.yul\":16532:16550   */\n      add\n        /* \"#utility.yul\":16524:16550   */\n      swap1\n      pop\n        /* \"#utility.yul\":16596:16605   */\n      dup2\n        /* \"#utility.yul\":16590:16594   */\n      dup2\n        /* \"#utility.yul\":16586:16606   */\n      sub\n        /* \"#utility.yul\":16582:16583   */\n      0x00\n        /* \"#utility.yul\":16571:16580   */\n      dup4\n        /* \"#utility.yul\":16567:16584   */\n      add\n        /* \"#utility.yul\":16560:16607   */\n      mstore\n        /* \"#utility.yul\":16624:16752   */\n      tag_521\n        /* \"#utility.yul\":16747:16751   */\n      dup2\n        /* \"#utility.yul\":16738:16744   */\n      dup5\n        /* \"#utility.yul\":16624:16752   */\n      tag_325\n      jump\t// in\n    tag_521:\n        /* \"#utility.yul\":16616:16752   */\n      swap1\n      pop\n        /* \"#utility.yul\":16346:16759   */\n      swap3\n      swap2\n      pop\n      pop\n      jump\t// out\n        /* \"#utility.yul\":16765:16946   */\n    tag_326:\n        /* \"#utility.yul\":16905:16938   */\n      0x536f6d656e7465206a757261646f7320706f64656d2072656769737472617200\n        /* \"#utility.yul\":16901:16902   */\n      0x00\n        /* \"#utility.yul\":16893:16899   */\n      dup3\n        /* \"#utility.yul\":16889:16903   */\n      add\n        /* \"#utility.yul\":16882:16939   */\n      mstore\n        /* \"#utility.yul\":16765:16946   */\n      pop\n      jump\t// out\n        /* \"#utility.yul\":16952:17318   */\n    tag_327:\n        /* \"#utility.yul\":17094:17097   */\n      0x00\n        /* \"#utility.yul\":17115:17182   */\n      tag_524\n        /* \"#utility.yul\":17179:17181   */\n      0x1f\n        /* \"#utility.yul\":17174:17177   */\n      dup4\n        /* \"#utility.yul\":17115:17182   */\n      tag_286\n      jump\t// in\n    tag_524:\n        /* \"#utility.yul\":17108:17182   */\n      swap2\n      pop\n        /* \"#utility.yul\":17191:17284   */\n      tag_525\n        /* \"#utility.yul\":17280:17283   */\n      dup3\n        /* \"#utility.yul\":17191:17284   */\n      tag_326\n      jump\t// in\n    tag_525:\n        /* \"#utility.yul\":17309:17311   */\n      0x20\n        /* \"#utility.yul\":17304:17307   */\n      dup3\n        /* \"#utility.yul\":17300:17312   */\n      add\n        /* \"#utility.yul\":17293:17312   */\n      swap1\n      pop\n        /* \"#utility.yul\":16952:17318   */\n      swap2\n      swap1\n      pop\n      jump\t// out\n        /* \"#utility.yul\":17324:17743   */\n    tag_103:\n        /* \"#utility.yul\":17490:17494   */\n      0x00\n        /* \"#utility.yul\":17528:17530   */\n      0x20\n        /* \"#utility.yul\":17517:17526   */\n      dup3\n        /* \"#utility.yul\":17513:17531   */\n      add\n        /* \"#utility.yul\":17505:17531   */\n      swap1\n      pop\n        /* \"#utility.yul\":17577:17586   */\n      dup2\n        /* \"#utility.yul\":17571:17575   */\n      dup2\n        /* \"#utility.yul\":17567:17587   */\n      sub\n        /* \"#utility.yul\":17563:17564   */\n      0x00\n        /* \"#utility.yul\":17552:17561   */\n      dup4\n        /* \"#utility.yul\":17548:17565   */\n      add\n        /* \"#utility.yul\":17541:17588   */\n      mstore\n        /* \"#utility.yul\":17605:17736   */\n      tag_527\n        /* \"#utility.yul\":17731:17735   */\n      dup2\n        /* \"#utility.yul\":17605:17736   */\n      tag_327\n      jump\t// in\n    tag_527:\n        /* \"#utility.yul\":17597:17736   */\n      swap1\n      pop\n        /* \"#utility.yul\":17324:17743   */\n      swap2\n      swap1\n      pop\n      jump\t// out\n        /* \"#utility.yul\":17749:17914   */\n    tag_328:\n        /* \"#utility.yul\":17889:17906   */\n      0x4e6f746120696d706f73736976656c0000000000000000000000000000000000\n        /* \"#utility.yul\":17885:17886   */\n      0x00\n        /* \"#utility.yul\":17877:17883   */\n      dup3\n        /* \"#utility.yul\":17873:17887   */\n      add\n        /* \"#utility.yul\":17866:17907   */\n      mstore\n        /* \"#utility.yul\":17749:17914   */\n      pop\n      jump\t// out\n        /* \"#utility.yul\":17920:18286   */\n    tag_329:\n        /* \"#utility.yul\":18062:18065   */\n      0x00\n        /* \"#utility.yul\":18083:18150   */\n      tag_530\n        /* \"#utility.yul\":18147:18149   */\n      0x0f\n        /* \"#utility.yul\":18142:18145   */\n      dup4\n        /* \"#utility.yul\":18083:18150   */\n      tag_286\n      jump\t// in\n    tag_530:\n        /* \"#utility.yul\":18076:18150   */\n      swap2\n      pop\n        /* \"#utility.yul\":18159:18252   */\n      tag_531\n        /* \"#utility.yul\":18248:18251   */\n      dup3\n        /* \"#utility.yul\":18159:18252   */\n      tag_328\n      jump\t// in\n    tag_531:\n        /* \"#utility.yul\":18277:18279   */\n      0x20\n        /* \"#utility.yul\":18272:18275   */\n      dup3\n        /* \"#utility.yul\":18268:18280   */\n      add\n        /* \"#utility.yul\":18261:18280   */\n      swap1\n      pop\n        /* \"#utility.yul\":17920:18286   */\n      swap2\n      swap1\n      pop\n      jump\t// out\n        /* \"#utility.yul\":18292:18711   */\n    tag_107:\n        /* \"#utility.yul\":18458:18462   */\n      0x00\n        /* \"#utility.yul\":18496:18498   */\n      0x20\n        /* \"#utility.yul\":18485:18494   */\n      dup3\n        /* \"#utility.yul\":18481:18499   */\n      add\n        /* \"#utility.yul\":18473:18499   */\n      swap1\n      pop\n        /* \"#utility.yul\":18545:18554   */\n      dup2\n        /* \"#utility.yul\":18539:18543   */\n      dup2\n        /* \"#utility.yul\":18535:18555   */\n      sub\n        /* \"#utility.yul\":18531:18532   */\n      0x00\n        /* \"#utility.yul\":18520:18529   */\n      dup4\n        /* \"#utility.yul\":18516:18533   */\n      add\n        /* \"#utility.yul\":18509:18556   */\n      mstore\n        /* \"#utility.yul\":18573:18704   */\n      tag_533\n        /* \"#utility.yul\":18699:18703   */\n      dup2\n        /* \"#utility.yul\":18573:18704   */\n      tag_329\n      jump\t// in\n    tag_533:\n        /* \"#utility.yul\":18565:18704   */\n      swap1\n      pop\n        /* \"#utility.yul\":18292:18711   */\n      swap2\n      swap1\n      pop\n      jump\t// out\n        /* \"#utility.yul\":18717:18897   */\n    tag_330:\n        /* \"#utility.yul\":18765:18842   */\n      0x4e487b7100000000000000000000000000000000000000000000000000000000\n        /* \"#utility.yul\":18762:18763   */\n      0x00\n        /* \"#utility.yul\":18755:18843   */\n      mstore\n        /* \"#utility.yul\":18862:18866   */\n      0x22\n        /* \"#utility.yul\":18859:18860   */\n      0x04\n        /* \"#utility.yul\":18852:18867   */\n      mstore\n        /* \"#utility.yul\":18886:18890   */\n      0x24\n        /* \"#utility.yul\":18883:18884   */\n      0x00\n        /* \"#utility.yul\":18876:18891   */\n      revert\n        /* \"#utility.yul\":18903:19223   */\n    tag_111:\n        /* \"#utility.yul\":18947:18953   */\n      0x00\n        /* \"#utility.yul\":18984:18985   */\n      0x02\n        /* \"#utility.yul\":18978:18982   */\n      dup3\n        /* \"#utility.yul\":18974:18986   */\n      div\n        /* \"#utility.yul\":18964:18986   */\n      swap1\n      pop\n        /* \"#utility.yul\":19031:19032   */\n      0x01\n        /* \"#utility.yul\":19025:19029   */\n      dup3\n        /* \"#utility.yul\":19021:19033   */\n      and\n        /* \"#utility.yul\":19052:19070   */\n      dup1\n        /* \"#utility.yul\":19042:19123   */\n      tag_536\n      jumpi\n        /* \"#utility.yul\":19108:19112   */\n      0x7f\n        /* \"#utility.yul\":19100:19106   */\n      dup3\n        /* \"#utility.yul\":19096:19113   */\n      and\n        /* \"#utility.yul\":19086:19113   */\n      swap2\n      pop\n        /* \"#utility.yul\":19042:19123   */\n    tag_536:\n        /* \"#utility.yul\":19170:19172   */\n      0x20\n        /* \"#utility.yul\":19162:19168   */\n      dup3\n        /* \"#utility.yul\":19159:19173   */\n      lt\n        /* \"#utility.yul\":19139:19157   */\n      dup2\n        /* \"#utility.yul\":19136:19174   */\n      sub\n        /* \"#utility.yul\":19133:19217   */\n      tag_537\n      jumpi\n        /* \"#utility.yul\":19189:19207   */\n      tag_538\n      tag_330\n      jump\t// in\n    tag_538:\n        /* \"#utility.yul\":19133:19217   */\n    tag_537:\n        /* \"#utility.yul\":18954:19223   */\n      pop\n        /* \"#utility.yul\":18903:19223   */\n      swap2\n      swap1\n      pop\n      jump\t// out\n        /* \"#utility.yul\":19229:19410   */\n    tag_331:\n        /* \"#utility.yul\":19369:19402   */\n      0x41636573736f20726573747269746f20616f2070726f70726965746172696f00\n        /* \"#utility.yul\":19365:19366   */\n      0x00\n        /* \"#utility.yul\":19357:19363   */\n      dup3\n        /* \"#utility.yul\":19353:19367   */\n      add\n        /* \"#utility.yul\":19346:19403   */\n      mstore\n        /* \"#utility.yul\":19229:19410   */\n      pop\n      jump\t// out\n        /* \"#utility.yul\":19416:19782   */\n    tag_332:\n        /* \"#utility.yul\":19558:19561   */\n      0x00\n        /* \"#utility.yul\":19579:19646   */\n      tag_541\n        /* \"#utility.yul\":19643:19645   */\n      0x1f\n        /* \"#utility.yul\":19638:19641   */\n      dup4\n        /* \"#utility.yul\":19579:19646   */\n      tag_286\n      jump\t// in\n    tag_541:\n        /* \"#utility.yul\":19572:19646   */\n      swap2\n      pop\n        /* \"#utility.yul\":19655:19748   */\n      tag_542\n        /* \"#utility.yul\":19744:19747   */\n      dup3\n        /* \"#utility.yul\":19655:19748   */\n      tag_331\n      jump\t// in\n    tag_542:\n        /* \"#utility.yul\":19773:19775   */\n      0x20\n        /* \"#utility.yul\":19768:19771   */\n      dup3\n        /* \"#utility.yul\":19764:19776   */\n      add\n        /* \"#utility.yul\":19757:19776   */\n      swap1\n      pop\n        /* \"#utility.yul\":19416:19782   */\n      swap2\n      swap1\n      pop\n      jump\t// out\n        /* \"#utility.yul\":19788:20207   */\n    tag_132:\n        /* \"#utility.yul\":19954:19958   */\n      0x00\n        /* \"#utility.yul\":19992:19994   */\n      0x20\n        /* \"#utility.yul\":19981:19990   */\n      dup3\n        /* \"#utility.yul\":19977:19995   */\n      add\n        /* \"#utility.yul\":19969:19995   */\n      swap1\n      pop\n        /* \"#utility.yul\":20041:20050   */\n      dup2\n        /* \"#utility.yul\":20035:20039   */\n      dup2\n        /* \"#utility.yul\":20031:20051   */\n      sub\n        /* \"#utility.yul\":20027:20028   */\n      0x00\n        /* \"#utility.yul\":20016:20025   */\n      dup4\n        /* \"#utility.yul\":20012:20029   */\n      add\n        /* \"#utility.yul\":20005:20052   */\n      mstore\n        /* \"#utility.yul\":20069:20200   */\n      tag_544\n        /* \"#utility.yul\":20195:20199   */\n      dup2\n        /* \"#utility.yul\":20069:20200   */\n      tag_332\n      jump\t// in\n    tag_544:\n        /* \"#utility.yul\":20061:20200   */\n      swap1\n      pop\n        /* \"#utility.yul\":19788:20207   */\n      swap2\n      swap1\n      pop\n      jump\t// out\n        /* \"#utility.yul\":20213:20391   */\n    tag_333:\n        /* \"#utility.yul\":20353:20383   */\n      0x5175616e746964616465206d6178696d61206465206a757261646f7300000000\n        /* \"#utility.yul\":20349:20350   */\n      0x00\n        /* \"#utility.yul\":20341:20347   */\n      dup3\n        /* \"#utility.yul\":20337:20351   */\n      add\n        /* \"#utility.yul\":20330:20384   */\n      mstore\n        /* \"#utility.yul\":20213:20391   */\n      pop\n      jump\t// out\n        /* \"#utility.yul\":20397:20763   */\n    tag_334:\n        /* \"#utility.yul\":20539:20542   */\n      0x00\n        /* \"#utility.yul\":20560:20627   */\n      tag_547\n        /* \"#utility.yul\":20624:20626   */\n      0x1c\n        /* \"#utility.yul\":20619:20622   */\n      dup4\n        /* \"#utility.yul\":20560:20627   */\n      tag_286\n      jump\t// in\n    tag_547:\n        /* \"#utility.yul\":20553:20627   */\n      swap2\n      pop\n        /* \"#utility.yul\":20636:20729   */\n      tag_548\n        /* \"#utility.yul\":20725:20728   */\n      dup3\n        /* \"#utility.yul\":20636:20729   */\n      tag_333\n      jump\t// in\n    tag_548:\n        /* \"#utility.yul\":20754:20756   */\n      0x20\n        /* \"#utility.yul\":20749:20752   */\n      dup3\n        /* \"#utility.yul\":20745:20757   */\n      add\n        /* \"#utility.yul\":20738:20757   */\n      swap1\n      pop\n        /* \"#utility.yul\":20397:20763   */\n      swap2\n      swap1\n      pop\n      jump\t// out\n        /* \"#utility.yul\":20769:21188   */\n    tag_136:\n        /* \"#utility.yul\":20935:20939   */\n      0x00\n        /* \"#utility.yul\":20973:20975   */\n      0x20\n        /* \"#utility.yul\":20962:20971   */\n      dup3\n        /* \"#utility.yul\":20958:20976   */\n      add\n        /* \"#utility.yul\":20950:20976   */\n      swap1\n      pop\n        /* \"#utility.yul\":21022:21031   */\n      dup2\n        /* \"#utility.yul\":21016:21020   */\n      dup2\n        /* \"#utility.yul\":21012:21032   */\n      sub\n        /* \"#utility.yul\":21008:21009   */\n      0x00\n        /* \"#utility.yul\":20997:21006   */\n      dup4\n        /* \"#utility.yul\":20993:21010   */\n      add\n        /* \"#utility.yul\":20986:21033   */\n      mstore\n        /* \"#utility.yul\":21050:21181   */\n      tag_550\n        /* \"#utility.yul\":21176:21180   */\n      dup2\n        /* \"#utility.yul\":21050:21181   */\n      tag_334\n      jump\t// in\n    tag_550:\n        /* \"#utility.yul\":21042:21181   */\n      swap1\n      pop\n        /* \"#utility.yul\":20769:21188   */\n      swap2\n      swap1\n      pop\n      jump\t// out\n        /* \"#utility.yul\":21194:21335   */\n    tag_335:\n        /* \"#utility.yul\":21243:21247   */\n      0x00\n        /* \"#utility.yul\":21266:21269   */\n      dup2\n        /* \"#utility.yul\":21258:21269   */\n      swap1\n      pop\n        /* \"#utility.yul\":21289:21292   */\n      dup2\n        /* \"#utility.yul\":21286:21287   */\n      0x00\n        /* \"#utility.yul\":21279:21293   */\n      mstore\n        /* \"#utility.yul\":21323:21327   */\n      0x20\n        /* \"#utility.yul\":21320:21321   */\n      0x00\n        /* \"#utility.yul\":21310:21328   */\n      keccak256\n        /* \"#utility.yul\":21302:21328   */\n      swap1\n      pop\n        /* \"#utility.yul\":21194:21335   */\n      swap2\n      swap1\n      pop\n      jump\t// out\n        /* \"#utility.yul\":21341:21434   */\n    tag_336:\n        /* \"#utility.yul\":21378:21384   */\n      0x00\n        /* \"#utility.yul\":21425:21427   */\n      0x20\n        /* \"#utility.yul\":21420:21422   */\n      0x1f\n        /* \"#utility.yul\":21413:21418   */\n      dup4\n        /* \"#utility.yul\":21409:21423   */\n      add\n        /* \"#utility.yul\":21405:21428   */\n      div\n        /* \"#utility.yul\":21395:21428   */\n      swap1\n      pop\n        /* \"#utility.yul\":21341:21434   */\n      swap2\n      swap1\n      pop\n      jump\t// out\n        /* \"#utility.yul\":21440:21547   */\n    tag_337:\n        /* \"#utility.yul\":21484:21492   */\n      0x00\n        /* \"#utility.yul\":21534:21539   */\n      dup3\n        /* \"#utility.yul\":21528:21532   */\n      dup3\n        /* \"#utility.yul\":21524:21540   */\n      shl\n        /* \"#utility.yul\":21503:21540   */\n      swap1\n      pop\n        /* \"#utility.yul\":21440:21547   */\n      swap3\n      swap2\n      pop\n      pop\n      jump\t// out\n        /* \"#utility.yul\":21553:21946   */\n    tag_338:\n        /* \"#utility.yul\":21622:21628   */\n      0x00\n        /* \"#utility.yul\":21672:21673   */\n      0x08\n        /* \"#utility.yul\":21660:21670   */\n      dup4\n        /* \"#utility.yul\":21656:21674   */\n      mul\n        /* \"#utility.yul\":21695:21792   */\n      tag_555\n        /* \"#utility.yul\":21725:21791   */\n      0xffffffffffffffffffffffffffffffffffffffffffffffffffffffffffffffff\n        /* \"#utility.yul\":21714:21723   */\n      dup3\n        /* \"#utility.yul\":21695:21792   */\n      tag_337\n      jump\t// in\n    tag_555:\n        /* \"#utility.yul\":21813:21852   */\n      tag_556\n        /* \"#utility.yul\":21843:21851   */\n      dup7\n        /* \"#utility.yul\":21832:21841   */\n      dup4\n        /* \"#utility.yul\":21813:21852   */\n      tag_337\n      jump\t// in\n    tag_556:\n        /* \"#utility.yul\":21801:21852   */\n      swap6\n      pop\n        /* \"#utility.yul\":21885:21889   */\n      dup1\n        /* \"#utility.yul\":21881:21890   */\n      not\n        /* \"#utility.yul\":21874:21879   */\n      dup5\n        /* \"#utility.yul\":21870:21891   */\n      and\n        /* \"#utility.yul\":21861:21891   */\n      swap4\n      pop\n        /* \"#utility.yul\":21934:21938   */\n      dup1\n        /* \"#utility.yul\":21924:21932   */\n      dup7\n        /* \"#utility.yul\":21920:21939   */\n      and\n        /* \"#utility.yul\":21913:21918   */\n      dup5\n        /* \"#utility.yul\":21910:21940   */\n      or\n        /* \"#utility.yul\":21900:21940   */\n      swap3\n      pop\n        /* \"#utility.yul\":21629:21946   */\n      pop\n      pop\n        /* \"#utility.yul\":21553:21946   */\n      swap4\n      swap3\n      pop\n      pop\n      pop\n      jump\t// out\n        /* \"#utility.yul\":21952:22012   */\n    tag_339:\n        /* \"#utility.yul\":21980:21983   */\n      0x00\n        /* \"#utility.yul\":22001:22006   */\n      dup2\n        /* \"#utility.yul\":21994:22006   */\n      swap1\n      pop\n        /* \"#utility.yul\":21952:22012   */\n      swap2\n      swap1\n      pop\n      jump\t// out\n        /* \"#utility.yul\":22018:22160   */\n    tag_340:\n        /* \"#utility.yul\":22068:22077   */\n      0x00\n        /* \"#utility.yul\":22101:22154   */\n      tag_559\n        /* \"#utility.yul\":22119:22153   */\n      tag_560\n        /* \"#utility.yul\":22128:22152   */\n      tag_561\n        /* \"#utility.yul\":22146:22151   */\n      dup5\n        /* \"#utility.yul\":22128:22152   */\n      tag_282\n      jump\t// in\n    tag_561:\n        /* \"#utility.yul\":22119:22153   */\n      tag_339\n      jump\t// in\n    tag_560:\n        /* \"#utility.yul\":22101:22154   */\n      tag_282\n      jump\t// in\n    tag_559:\n        /* \"#utility.yul\":22088:22154   */\n      swap1\n      pop\n        /* \"#utility.yul\":22018:22160   */\n      swap2\n      swap1\n      pop\n      jump\t// out\n        /* \"#utility.yul\":22166:22241   */\n    tag_341:\n        /* \"#utility.yul\":22209:22212   */\n      0x00\n        /* \"#utility.yul\":22230:22235   */\n      dup2\n        /* \"#utility.yul\":22223:22235   */\n      swap1\n      pop\n        /* \"#utility.yul\":22166:22241   */\n      swap2\n      swap1\n      pop\n      jump\t// out\n        /* \"#utility.yul\":22247:22516   */\n    tag_342:\n        /* \"#utility.yul\":22357:22396   */\n      tag_564\n        /* \"#utility.yul\":22388:22395   */\n      dup4\n        /* \"#utility.yul\":22357:22396   */\n      tag_340\n      jump\t// in\n    tag_564:\n        /* \"#utility.yul\":22418:22509   */\n      tag_565\n        /* \"#utility.yul\":22467:22508   */\n      tag_566\n        /* \"#utility.yul\":22491:22507   */\n      dup3\n        /* \"#utility.yul\":22467:22508   */\n      tag_341\n      jump\t// in\n    tag_566:\n        /* \"#utility.yul\":22459:22465   */\n      dup5\n        /* \"#utility.yul\":22452:22456   */\n      dup5\n        /* \"#utility.yul\":22446:22457   */\n      sload\n        /* \"#utility.yul\":22418:22509   */\n      tag_338\n      jump\t// in\n    tag_565:\n        /* \"#utility.yul\":22412:22416   */\n      dup3\n        /* \"#utility.yul\":22405:22510   */\n      sstore\n        /* \"#utility.yul\":22323:22516   */\n      pop\n        /* \"#utility.yul\":22247:22516   */\n      pop\n      pop\n      pop\n      jump\t// out\n        /* \"#utility.yul\":22522:22595   */\n    tag_343:\n        /* \"#utility.yul\":22567:22570   */\n      0x00\n        /* \"#utility.yul\":22588:22589   */\n      0x00\n        /* \"#utility.yul\":22581:22589   */\n      swap1\n      pop\n        /* \"#utility.yul\":22522:22595   */\n      swap1\n      jump\t// out\n        /* \"#utility.yul\":22601:22790   */\n    tag_344:\n        /* \"#utility.yul\":22678:22710   */\n      tag_569\n      tag_343\n      jump\t// in\n    tag_569:\n        /* \"#utility.yul\":22719:22784   */\n      tag_570\n        /* \"#utility.yul\":22777:22783   */\n      dup2\n        /* \"#utility.yul\":22769:22775   */\n      dup5\n        /* \"#utility.yul\":22763:22767   */\n      dup5\n        /* \"#utility.yul\":22719:22784   */\n      tag_342\n      jump\t// in\n    tag_570:\n        /* \"#utility.yul\":22654:22790   */\n      pop\n        /* \"#utility.yul\":22601:22790   */\n      pop\n      pop\n      jump\t// out\n        /* \"#utility.yul\":22796:22982   */\n    tag_345:\n        /* \"#utility.yul\":22856:22976   */\n    tag_572:\n        /* \"#utility.yul\":22873:22876   */\n      dup2\n        /* \"#utility.yul\":22866:22871   */\n      dup2\n        /* \"#utility.yul\":22863:22877   */\n      lt\n        /* \"#utility.yul\":22856:22976   */\n      iszero\n      tag_574\n      jumpi\n        /* \"#utility.yul\":22927:22966   */\n      tag_575\n        /* \"#utility.yul\":22964:22965   */\n      0x00\n        /* \"#utility.yul\":22957:22962   */\n      dup3\n        /* \"#utility.yul\":22927:22966   */\n      tag_344\n      jump\t// in\n    tag_575:\n        /* \"#utility.yul\":22900:22901   */\n      0x01\n        /* \"#utility.yul\":22893:22898   */\n      dup2\n        /* \"#utility.yul\":22889:22902   */\n      add\n        /* \"#utility.yul\":22880:22902   */\n      swap1\n      pop\n        /* \"#utility.yul\":22856:22976   */\n      jump(tag_572)\n    tag_574:\n        /* \"#utility.yul\":22796:22982   */\n      pop\n      pop\n      jump\t// out\n        /* \"#utility.yul\":22988:23531   */\n    tag_346:\n        /* \"#utility.yul\":23089:23091   */\n      0x1f\n        /* \"#utility.yul\":23084:23087   */\n      dup3\n        /* \"#utility.yul\":23081:23092   */\n      gt\n        /* \"#utility.yul\":23078:23524   */\n      iszero\n      tag_577\n      jumpi\n        /* \"#utility.yul\":23123:23161   */\n      tag_578\n        /* \"#utility.yul\":23155:23160   */\n      dup2\n        /* \"#utility.yul\":23123:23161   */\n      tag_335\n      jump\t// in\n    tag_578:\n        /* \"#utility.yul\":23207:23236   */\n      tag_579\n        /* \"#utility.yul\":23225:23235   */\n      dup5\n        /* \"#utility.yul\":23207:23236   */\n      tag_336\n      jump\t// in\n    tag_579:\n        /* \"#utility.yul\":23197:23205   */\n      dup2\n        /* \"#utility.yul\":23193:23237   */\n      add\n        /* \"#utility.yul\":23390:23392   */\n      0x20\n        /* \"#utility.yul\":23378:23388   */\n      dup6\n        /* \"#utility.yul\":23375:23393   */\n      lt\n        /* \"#utility.yul\":23372:23421   */\n      iszero\n      tag_580\n      jumpi\n        /* \"#utility.yul\":23411:23419   */\n      dup2\n        /* \"#utility.yul\":23396:23419   */\n      swap1\n      pop\n        /* \"#utility.yul\":23372:23421   */\n    tag_580:\n        /* \"#utility.yul\":23434:23514   */\n      tag_581\n        /* \"#utility.yul\":23490:23512   */\n      tag_582\n        /* \"#utility.yul\":23508:23511   */\n      dup6\n        /* \"#utility.yul\":23490:23512   */\n      tag_336\n      jump\t// in\n    tag_582:\n        /* \"#utility.yul\":23480:23488   */\n      dup4\n        /* \"#utility.yul\":23476:23513   */\n      add\n        /* \"#utility.yul\":23463:23474   */\n      dup3\n        /* \"#utility.yul\":23434:23514   */\n      tag_345\n      jump\t// in\n    tag_581:\n        /* \"#utility.yul\":23093:23524   */\n      pop\n      pop\n        /* \"#utility.yul\":23078:23524   */\n    tag_577:\n        /* \"#utility.yul\":22988:23531   */\n      pop\n      pop\n      pop\n      jump\t// out\n        /* \"#utility.yul\":23537:23654   */\n    tag_347:\n        /* \"#utility.yul\":23591:23599   */\n      0x00\n        /* \"#utility.yul\":23641:23646   */\n      dup3\n        /* \"#utility.yul\":23635:23639   */\n      dup3\n        /* \"#utility.yul\":23631:23647   */\n      shr\n        /* \"#utility.yul\":23610:23647   */\n      swap1\n      pop\n        /* \"#utility.yul\":23537:23654   */\n      swap3\n      swap2\n      pop\n      pop\n      jump\t// out\n        /* \"#utility.yul\":23660:23829   */\n    tag_348:\n        /* \"#utility.yul\":23704:23710   */\n      0x00\n        /* \"#utility.yul\":23737:23788   */\n      tag_585\n        /* \"#utility.yul\":23785:23786   */\n      0x00\n        /* \"#utility.yul\":23781:23787   */\n      not\n        /* \"#utility.yul\":23773:23778   */\n      dup5\n        /* \"#utility.yul\":23770:23771   */\n      0x08\n        /* \"#utility.yul\":23766:23779   */\n      mul\n        /* \"#utility.yul\":23737:23788   */\n      tag_347\n      jump\t// in\n    tag_585:\n        /* \"#utility.yul\":23733:23789   */\n      not\n        /* \"#utility.yul\":23818:23822   */\n      dup1\n        /* \"#utility.yul\":23812:23816   */\n      dup4\n        /* \"#utility.yul\":23808:23823   */\n      and\n        /* \"#utility.yul\":23798:23823   */\n      swap2\n      pop\n        /* \"#utility.yul\":23711:23829   */\n      pop\n        /* \"#utility.yul\":23660:23829   */\n      swap3\n      swap2\n      pop\n      pop\n      jump\t// out\n        /* \"#utility.yul\":23834:24129   */\n    tag_349:\n        /* \"#utility.yul\":23910:23914   */\n      0x00\n        /* \"#utility.yul\":24056:24085   */\n      tag_587\n        /* \"#utility.yul\":24081:24084   */\n      dup4\n        /* \"#utility.yul\":24075:24079   */\n      dup4\n        /* \"#utility.yul\":24056:24085   */\n      tag_348\n      jump\t// in\n    tag_587:\n        /* \"#utility.yul\":24048:24085   */\n      swap2\n      pop\n        /* \"#utility.yul\":24118:24121   */\n      dup3\n        /* \"#utility.yul\":24115:24116   */\n      0x02\n        /* \"#utility.yul\":24111:24122   */\n      mul\n        /* \"#utility.yul\":24105:24109   */\n      dup3\n        /* \"#utility.yul\":24102:24123   */\n      or\n        /* \"#utility.yul\":24094:24123   */\n      swap1\n      pop\n        /* \"#utility.yul\":23834:24129   */\n      swap3\n      swap2\n      pop\n      pop\n      jump\t// out\n        /* \"#utility.yul\":24134:25529   */\n    tag_138:\n        /* \"#utility.yul\":24251:24288   */\n      tag_589\n        /* \"#utility.yul\":24284:24287   */\n      dup3\n        /* \"#utility.yul\":24251:24288   */\n      tag_285\n      jump\t// in\n    tag_589:\n        /* \"#utility.yul\":24353:24371   */\n      0xffffffffffffffff\n        /* \"#utility.yul\":24345:24351   */\n      dup2\n        /* \"#utility.yul\":24342:24372   */\n      gt\n        /* \"#utility.yul\":24339:24395   */\n      iszero\n      tag_590\n      jumpi\n        /* \"#utility.yul\":24375:24393   */\n      tag_591\n      tag_301\n      jump\t// in\n    tag_591:\n        /* \"#utility.yul\":24339:24395   */\n    tag_590:\n        /* \"#utility.yul\":24419:24457   */\n      tag_592\n        /* \"#utility.yul\":24451:24455   */\n      dup3\n        /* \"#utility.yul\":24445:24456   */\n      sload\n        /* \"#utility.yul\":24419:24457   */\n      tag_111\n      jump\t// in\n    tag_592:\n        /* \"#utility.yul\":24504:24571   */\n      tag_593\n        /* \"#utility.yul\":24564:24570   */\n      dup3\n        /* \"#utility.yul\":24556:24562   */\n      dup3\n        /* \"#utility.yul\":24550:24554   */\n      dup6\n        /* \"#utility.yul\":24504:24571   */\n      tag_346\n      jump\t// in\n    tag_593:\n        /* \"#utility.yul\":24598:24599   */\n      0x00\n        /* \"#utility.yul\":24622:24626   */\n      0x20\n        /* \"#utility.yul\":24609:24626   */\n      swap1\n      pop\n        /* \"#utility.yul\":24654:24656   */\n      0x1f\n        /* \"#utility.yul\":24646:24652   */\n      dup4\n        /* \"#utility.yul\":24643:24657   */\n      gt\n        /* \"#utility.yul\":24671:24672   */\n      0x01\n        /* \"#utility.yul\":24666:25284   */\n      dup2\n      eq\n      tag_595\n      jumpi\n        /* \"#utility.yul\":25328:25329   */\n      0x00\n        /* \"#utility.yul\":25345:25351   */\n      dup5\n        /* \"#utility.yul\":25342:25419   */\n      iszero\n      tag_596\n      jumpi\n        /* \"#utility.yul\":25394:25403   */\n      dup3\n        /* \"#utility.yul\":25389:25392   */\n      dup8\n        /* \"#utility.yul\":25385:25404   */\n      add\n        /* \"#utility.yul\":25379:25405   */\n      mload\n        /* \"#utility.yul\":25370:25405   */\n      swap1\n      pop\n        /* \"#utility.yul\":25342:25419   */\n    tag_596:\n        /* \"#utility.yul\":25445:25512   */\n      tag_597\n        /* \"#utility.yul\":25505:25511   */\n      dup6\n        /* \"#utility.yul\":25498:25503   */\n      dup3\n        /* \"#utility.yul\":25445:25512   */\n      tag_349\n      jump\t// in\n    tag_597:\n        /* \"#utility.yul\":25439:25443   */\n      dup7\n        /* \"#utility.yul\":25432:25513   */\n      sstore\n        /* \"#utility.yul\":25301:25523   */\n      pop\n        /* \"#utility.yul\":24636:25523   */\n      jump(tag_594)\n        /* \"#utility.yul\":24666:25284   */\n    tag_595:\n        /* \"#utility.yul\":24718:24722   */\n      0x1f\n        /* \"#utility.yul\":24714:24723   */\n      not\n        /* \"#utility.yul\":24706:24712   */\n      dup5\n        /* \"#utility.yul\":24702:24724   */\n      and\n        /* \"#utility.yul\":24752:24789   */\n      tag_598\n        /* \"#utility.yul\":24784:24788   */\n      dup7\n        /* \"#utility.yul\":24752:24789   */\n      tag_335\n      jump\t// in\n    tag_598:\n        /* \"#utility.yul\":24811:24812   */\n      0x00\n        /* \"#utility.yul\":24825:25033   */\n    tag_599:\n        /* \"#utility.yul\":24839:24846   */\n      dup3\n        /* \"#utility.yul\":24836:24837   */\n      dup2\n        /* \"#utility.yul\":24833:24847   */\n      lt\n        /* \"#utility.yul\":24825:25033   */\n      iszero\n      tag_601\n      jumpi\n        /* \"#utility.yul\":24918:24927   */\n      dup5\n        /* \"#utility.yul\":24913:24916   */\n      dup10\n        /* \"#utility.yul\":24909:24928   */\n      add\n        /* \"#utility.yul\":24903:24929   */\n      mload\n        /* \"#utility.yul\":24895:24901   */\n      dup3\n        /* \"#utility.yul\":24888:24930   */\n      sstore\n        /* \"#utility.yul\":24969:24970   */\n      0x01\n        /* \"#utility.yul\":24961:24967   */\n      dup3\n        /* \"#utility.yul\":24957:24971   */\n      add\n        /* \"#utility.yul\":24947:24971   */\n      swap2\n      pop\n        /* \"#utility.yul\":25016:25018   */\n      0x20\n        /* \"#utility.yul\":25005:25014   */\n      dup6\n        /* \"#utility.yul\":25001:25019   */\n      add\n        /* \"#utility.yul\":24988:25019   */\n      swap5\n      pop\n        /* \"#utility.yul\":24862:24866   */\n      0x20\n        /* \"#utility.yul\":24859:24860   */\n      dup2\n        /* \"#utility.yul\":24855:24867   */\n      add\n        /* \"#utility.yul\":24850:24867   */\n      swap1\n      pop\n        /* \"#utility.yul\":24825:25033   */\n      jump(tag_599)\n    tag_601:\n        /* \"#utility.yul\":25061:25067   */\n      dup7\n        /* \"#utility.yul\":25052:25059   */\n      dup4\n        /* \"#utility.yul\":25049:25068   */\n      lt\n        /* \"#utility.yul\":25046:25225   */\n      iszero\n      tag_602\n      jumpi\n        /* \"#utility.yul\":25119:25128   */\n      dup5\n        /* \"#utility.yul\":25114:25117   */\n      dup10\n        /* \"#utility.yul\":25110:25129   */\n      add\n        /* \"#utility.yul\":25104:25130   */\n      mload\n        /* \"#utility.yul\":25162:25210   */\n      tag_603\n        /* \"#utility.yul\":25204:25208   */\n      0x1f\n        /* \"#utility.yul\":25196:25202   */\n      dup10\n        /* \"#utility.yul\":25192:25209   */\n      and\n        /* \"#utility.yul\":25181:25190   */\n      dup3\n        /* \"#utility.yul\":25162:25210   */\n      tag_348\n      jump\t// in\n    tag_603:\n        /* \"#utility.yul\":25154:25160   */\n      dup4\n        /* \"#utility.yul\":25147:25211   */\n      sstore\n        /* \"#utility.yul\":25069:25225   */\n      pop\n        /* \"#utility.yul\":25046:25225   */\n    tag_602:\n        /* \"#utility.yul\":25271:25272   */\n      0x01\n        /* \"#utility.yul\":25267:25268   */\n      0x02\n        /* \"#utility.yul\":25259:25265   */\n      dup9\n        /* \"#utility.yul\":25255:25269   */\n      mul\n        /* \"#utility.yul\":25251:25273   */\n      add\n        /* \"#utility.yul\":25245:25249   */\n      dup9\n        /* \"#utility.yul\":25238:25274   */\n      sstore\n        /* \"#utility.yul\":24673:25284   */\n      pop\n      pop\n      pop\n        /* \"#utility.yul\":24636:25523   */\n    tag_594:\n      pop\n        /* \"#utility.yul\":24226:25529   */\n      pop\n      pop\n      pop\n        /* \"#utility.yul\":24134:25529   */\n      pop\n      pop\n      jump\t// out\n        /* \"#utility.yul\":25535:25715   */\n    tag_350:\n        /* \"#utility.yul\":25583:25660   */\n      0x4e487b7100000000000000000000000000000000000000000000000000000000\n        /* \"#utility.yul\":25580:25581   */\n      0x00\n        /* \"#utility.yul\":25573:25661   */\n      mstore\n        /* \"#utility.yul\":25680:25684   */\n      0x11\n        /* \"#utility.yul\":25677:25678   */\n      0x04\n        /* \"#utility.yul\":25670:25685   */\n      mstore\n        /* \"#utility.yul\":25704:25708   */\n      0x24\n        /* \"#utility.yul\":25701:25702   */\n      0x00\n        /* \"#utility.yul\":25694:25709   */\n      revert\n        /* \"#utility.yul\":25721:25915   */\n    tag_143:\n        /* \"#utility.yul\":25761:25765   */\n      0x00\n        /* \"#utility.yul\":25781:25801   */\n      tag_606\n        /* \"#utility.yul\":25799:25800   */\n      dup3\n        /* \"#utility.yul\":25781:25801   */\n      tag_282\n      jump\t// in\n    tag_606:\n        /* \"#utility.yul\":25776:25801   */\n      swap2\n      pop\n        /* \"#utility.yul\":25815:25835   */\n      tag_607\n        /* \"#utility.yul\":25833:25834   */\n      dup4\n        /* \"#utility.yul\":25815:25835   */\n      tag_282\n      jump\t// in\n    tag_607:\n        /* \"#utility.yul\":25810:25835   */\n      swap3\n      pop\n        /* \"#utility.yul\":25859:25860   */\n      dup3\n        /* \"#utility.yul\":25856:25857   */\n      dup3\n        /* \"#utility.yul\":25852:25861   */\n      sub\n        /* \"#utility.yul\":25844:25861   */\n      swap1\n      pop\n        /* \"#utility.yul\":25883:25884   */\n      dup2\n        /* \"#utility.yul\":25877:25881   */\n      dup2\n        /* \"#utility.yul\":25874:25885   */\n      gt\n        /* \"#utility.yul\":25871:25908   */\n      iszero\n      tag_608\n      jumpi\n        /* \"#utility.yul\":25888:25906   */\n      tag_609\n      tag_350\n      jump\t// in\n    tag_609:\n        /* \"#utility.yul\":25871:25908   */\n    tag_608:\n        /* \"#utility.yul\":25721:25915   */\n      swap3\n      swap2\n      pop\n      pop\n      jump\t// out\n        /* \"#utility.yul\":25921:26090   */\n    tag_351:\n        /* \"#utility.yul\":26061:26082   */\n      0x4e6f7461206e616f20656e636f6e747261646100000000000000000000000000\n        /* \"#utility.yul\":26057:26058   */\n      0x00\n        /* \"#utility.yul\":26049:26055   */\n      dup3\n        /* \"#utility.yul\":26045:26059   */\n      add\n        /* \"#utility.yul\":26038:26083   */\n      mstore\n        /* \"#utility.yul\":25921:26090   */\n      pop\n      jump\t// out\n        /* \"#utility.yul\":26096:26462   */\n    tag_352:\n        /* \"#utility.yul\":26238:26241   */\n      0x00\n        /* \"#utility.yul\":26259:26326   */\n      tag_612\n        /* \"#utility.yul\":26323:26325   */\n      0x13\n        /* \"#utility.yul\":26318:26321   */\n      dup4\n        /* \"#utility.yul\":26259:26326   */\n      tag_286\n      jump\t// in\n    tag_612:\n        /* \"#utility.yul\":26252:26326   */\n      swap2\n      pop\n        /* \"#utility.yul\":26335:26428   */\n      tag_613\n        /* \"#utility.yul\":26424:26427   */\n      dup3\n        /* \"#utility.yul\":26335:26428   */\n      tag_351\n      jump\t// in\n    tag_613:\n        /* \"#utility.yul\":26453:26455   */\n      0x20\n        /* \"#utility.yul\":26448:26451   */\n      dup3\n        /* \"#utility.yul\":26444:26456   */\n      add\n        /* \"#utility.yul\":26437:26456   */\n      swap1\n      pop\n        /* \"#utility.yul\":26096:26462   */\n      swap2\n      swap1\n      pop\n      jump\t// out\n        /* \"#utility.yul\":26468:26887   */\n    tag_147:\n        /* \"#utility.yul\":26634:26638   */\n      0x00\n        /* \"#utility.yul\":26672:26674   */\n      0x20\n        /* \"#utility.yul\":26661:26670   */\n      dup3\n        /* \"#utility.yul\":26657:26675   */\n      add\n        /* \"#utility.yul\":26649:26675   */\n      swap1\n      pop\n        /* \"#utility.yul\":26721:26730   */\n      dup2\n        /* \"#utility.yul\":26715:26719   */\n      dup2\n        /* \"#utility.yul\":26711:26731   */\n      sub\n        /* \"#utility.yul\":26707:26708   */\n      0x00\n        /* \"#utility.yul\":26696:26705   */\n      dup4\n        /* \"#utility.yul\":26692:26709   */\n      add\n        /* \"#utility.yul\":26685:26732   */\n      mstore\n        /* \"#utility.yul\":26749:26880   */\n      tag_615\n        /* \"#utility.yul\":26875:26879   */\n      dup2\n        /* \"#utility.yul\":26749:26880   */\n      tag_352\n      jump\t// in\n    tag_615:\n        /* \"#utility.yul\":26741:26880   */\n      swap1\n      pop\n        /* \"#utility.yul\":26468:26887   */\n      swap2\n      swap1\n      pop\n      jump\t// out\n        /* \"#utility.yul\":26893:27057   */\n    tag_353:\n        /* \"#utility.yul\":27033:27049   */\n      0x4e6f206a7564676520666f756e64000000000000000000000000000000000000\n        /* \"#utility.yul\":27029:27030   */\n      0x00\n        /* \"#utility.yul\":27021:27027   */\n      dup3\n        /* \"#utility.yul\":27017:27031   */\n      add\n        /* \"#utility.yul\":27010:27050   */\n      mstore\n        /* \"#utility.yul\":26893:27057   */\n      pop\n      jump\t// out\n        /* \"#utility.yul\":27063:27429   */\n    tag_354:\n        /* \"#utility.yul\":27205:27208   */\n      0x00\n        /* \"#utility.yul\":27226:27293   */\n      tag_618\n        /* \"#utility.yul\":27290:27292   */\n      0x0e\n        /* \"#utility.yul\":27285:27288   */\n      dup4\n        /* \"#utility.yul\":27226:27293   */\n      tag_286\n      jump\t// in\n    tag_618:\n        /* \"#utility.yul\":27219:27293   */\n      swap2\n      pop\n        /* \"#utility.yul\":27302:27395   */\n      tag_619\n        /* \"#utility.yul\":27391:27394   */\n      dup3\n        /* \"#utility.yul\":27302:27395   */\n      tag_353\n      jump\t// in\n    tag_619:\n        /* \"#utility.yul\":27420:27422   */\n      0x20\n        /* \"#utility.yul\":27415:27418   */\n      dup3\n        /* \"#utility.yul\":27411:27423   */\n      add\n        /* \"#utility.yul\":27404:27423   */\n      swap1\n      pop\n        /* \"#utility.yul\":27063:27429   */\n      swap2\n      swap1\n      pop\n      jump\t// out\n        /* \"#utility.yul\":27435:27854   */\n    tag_161:\n        /* \"#utility.yul\":27601:27605   */\n      0x00\n        /* \"#utility.yul\":27639:27641   */\n      0x20\n        /* \"#utility.yul\":27628:27637   */\n      dup3\n        /* \"#utility.yul\":27624:27642   */\n      add\n        /* \"#utility.yul\":27616:27642   */\n      swap1\n      pop\n        /* \"#utility.yul\":27688:27697   */\n      dup2\n        /* \"#utility.yul\":27682:27686   */\n      dup2\n        /* \"#utility.yul\":27678:27698   */\n      sub\n        /* \"#utility.yul\":27674:27675   */\n      0x00\n        /* \"#utility.yul\":27663:27672   */\n      dup4\n        /* \"#utility.yul\":27659:27676   */\n      add\n        /* \"#utility.yul\":27652:27699   */\n      mstore\n        /* \"#utility.yul\":27716:27847   */\n      tag_621\n        /* \"#utility.yul\":27842:27846   */\n      dup2\n        /* \"#utility.yul\":27716:27847   */\n      tag_354\n      jump\t// in\n    tag_621:\n        /* \"#utility.yul\":27708:27847   */\n      swap1\n      pop\n        /* \"#utility.yul\":27435:27854   */\n      swap2\n      swap1\n      pop\n      jump\t// out\n        /* \"#utility.yul\":27860:28025   */\n    tag_355:\n        /* \"#utility.yul\":28000:28017   */\n      0x4e6f206573636f6c6120666f756e640000000000000000000000000000000000\n        /* \"#utility.yul\":27996:27997   */\n      0x00\n        /* \"#utility.yul\":27988:27994   */\n      dup3\n        /* \"#utility.yul\":27984:27998   */\n      add\n        /* \"#utility.yul\":27977:28018   */\n      mstore\n        /* \"#utility.yul\":27860:28025   */\n      pop\n      jump\t// out\n        /* \"#utility.yul\":28031:28397   */\n    tag_356:\n        /* \"#utility.yul\":28173:28176   */\n      0x00\n        /* \"#utility.yul\":28194:28261   */\n      tag_624\n        /* \"#utility.yul\":28258:28260   */\n      0x0f\n        /* \"#utility.yul\":28253:28256   */\n      dup4\n        /* \"#utility.yul\":28194:28261   */\n      tag_286\n      jump\t// in\n    tag_624:\n        /* \"#utility.yul\":28187:28261   */\n      swap2\n      pop\n        /* \"#utility.yul\":28270:28363   */\n      tag_625\n        /* \"#utility.yul\":28359:28362   */\n      dup3\n        /* \"#utility.yul\":28270:28363   */\n      tag_355\n      jump\t// in\n    tag_625:\n        /* \"#utility.yul\":28388:28390   */\n      0x20\n        /* \"#utility.yul\":28383:28386   */\n      dup3\n        /* \"#utility.yul\":28379:28391   */\n      add\n        /* \"#utility.yul\":28372:28391   */\n      swap1\n      pop\n        /* \"#utility.yul\":28031:28397   */\n      swap2\n      swap1\n      pop\n      jump\t// out\n        /* \"#utility.yul\":28403:28822   */\n    tag_174:\n        /* \"#utility.yul\":28569:28573   */\n      0x00\n        /* \"#utility.yul\":28607:28609   */\n      0x20\n        /* \"#utility.yul\":28596:28605   */\n      dup3\n        /* \"#utility.yul\":28592:28610   */\n      add\n        /* \"#utility.yul\":28584:28610   */\n      swap1\n      pop\n        /* \"#utility.yul\":28656:28665   */\n      dup2\n        /* \"#utility.yul\":28650:28654   */\n      dup2\n        /* \"#utility.yul\":28646:28666   */\n      sub\n        /* \"#utility.yul\":28642:28643   */\n      0x00\n        /* \"#utility.yul\":28631:28640   */\n      dup4\n        /* \"#utility.yul\":28627:28644   */\n      add\n        /* \"#utility.yul\":28620:28667   */\n      mstore\n        /* \"#utility.yul\":28684:28815   */\n      tag_627\n        /* \"#utility.yul\":28810:28814   */\n      dup2\n        /* \"#utility.yul\":28684:28815   */\n      tag_356\n      jump\t// in\n    tag_627:\n        /* \"#utility.yul\":28676:28815   */\n      swap1\n      pop\n        /* \"#utility.yul\":28403:28822   */\n      swap2\n      swap1\n      pop\n      jump\t// out\n        /* \"#utility.yul\":28828:28995   */\n    tag_357:\n        /* \"#utility.yul\":28968:28987   */\n      0x4e6f207175657369746f7320666f756e64000000000000000000000000000000\n        /* \"#utility.yul\":28964:28965   */\n      0x00\n        /* \"#utility.yul\":28956:28962   */\n      dup3\n        /* \"#utility.yul\":28952:28966   */\n      add\n        /* \"#utility.yul\":28945:28988   */\n      mstore\n        /* \"#utility.yul\":28828:28995   */\n      pop\n      jump\t// out\n        /* \"#utility.yul\":29001:29367   */\n    tag_358:\n        /* \"#utility.yul\":29143:29146   */\n      0x00\n        /* \"#utility.yul\":29164:29231   */\n      tag_630\n        /* \"#utility.yul\":29228:29230   */\n      0x11\n        /* \"#utility.yul\":29223:29226   */\n      dup4\n        /* \"#utility.yul\":29164:29231   */\n      tag_286\n      jump\t// in\n    tag_630:\n        /* \"#utility.yul\":29157:29231   */\n      swap2\n      pop\n        /* \"#utility.yul\":29240:29333   */\n      tag_631\n        /* \"#utility.yul\":29329:29332   */\n      dup3\n        /* \"#utility.yul\":29240:29333   */\n      tag_357\n      jump\t// in\n    tag_631:\n        /* \"#utility.yul\":29358:29360   */\n      0x20\n        /* \"#utility.yul\":29353:29356   */\n      dup3\n        /* \"#utility.yul\":29349:29361   */\n      add\n        /* \"#utility.yul\":29342:29361   */\n      swap1\n      pop\n        /* \"#utility.yul\":29001:29367   */\n      swap2\n      swap1\n      pop\n      jump\t// out\n        /* \"#utility.yul\":29373:29792   */\n    tag_204:\n        /* \"#utility.yul\":29539:29543   */\n      0x00\n        /* \"#utility.yul\":29577:29579   */\n      0x20\n        /* \"#utility.yul\":29566:29575   */\n      dup3\n        /* \"#utility.yul\":29562:29580   */\n      add\n        /* \"#utility.yul\":29554:29580   */\n      swap1\n      pop\n        /* \"#utility.yul\":29626:29635   */\n      dup2\n        /* \"#utility.yul\":29620:29624   */\n      dup2\n        /* \"#utility.yul\":29616:29636   */\n      sub\n        /* \"#utility.yul\":29612:29613   */\n      0x00\n        /* \"#utility.yul\":29601:29610   */\n      dup4\n        /* \"#utility.yul\":29597:29614   */\n      add\n        /* \"#utility.yul\":29590:29637   */\n      mstore\n        /* \"#utility.yul\":29654:29785   */\n      tag_633\n        /* \"#utility.yul\":29780:29784   */\n      dup2\n        /* \"#utility.yul\":29654:29785   */\n      tag_358\n      jump\t// in\n    tag_633:\n        /* \"#utility.yul\":29646:29785   */\n      swap1\n      pop\n        /* \"#utility.yul\":29373:29792   */\n      swap2\n      swap1\n      pop\n      jump\t// out\n        /* \"#utility.yul\":29798:30240   */\n    tag_222:\n        /* \"#utility.yul\":29947:29951   */\n      0x00\n        /* \"#utility.yul\":29985:29987   */\n      0x60\n        /* \"#utility.yul\":29974:29983   */\n      dup3\n        /* \"#utility.yul\":29970:29988   */\n      add\n        /* \"#utility.yul\":29962:29988   */\n      swap1\n      pop\n        /* \"#utility.yul\":29998:30069   */\n      tag_635\n        /* \"#utility.yul\":30066:30067   */\n      0x00\n        /* \"#utility.yul\":30055:30064   */\n      dup4\n        /* \"#utility.yul\":30051:30068   */\n      add\n        /* \"#utility.yul\":30042:30048   */\n      dup7\n        /* \"#utility.yul\":29998:30069   */\n      tag_308\n      jump\t// in\n    tag_635:\n        /* \"#utility.yul\":30079:30151   */\n      tag_636\n        /* \"#utility.yul\":30147:30149   */\n      0x20\n        /* \"#utility.yul\":30136:30145   */\n      dup4\n        /* \"#utility.yul\":30132:30150   */\n      add\n        /* \"#utility.yul\":30123:30129   */\n      dup6\n        /* \"#utility.yul\":30079:30151   */\n      tag_296\n      jump\t// in\n    tag_636:\n        /* \"#utility.yul\":30161:30233   */\n      tag_637\n        /* \"#utility.yul\":30229:30231   */\n      0x40\n        /* \"#utility.yul\":30218:30227   */\n      dup4\n        /* \"#utility.yul\":30214:30232   */\n      add\n        /* \"#utility.yul\":30205:30211   */\n      dup5\n        /* \"#utility.yul\":30161:30233   */\n      tag_296\n      jump\t// in\n    tag_637:\n        /* \"#utility.yul\":29798:30240   */\n      swap5\n      swap4\n      pop\n      pop\n      pop\n      pop\n      jump\t// out\n        /* \"#utility.yul\":30246:30437   */\n    tag_241:\n        /* \"#utility.yul\":30286:30289   */\n      0x00\n        /* \"#utility.yul\":30305:30325   */\n      tag_639\n        /* \"#utility.yul\":30323:30324   */\n      dup3\n        /* \"#utility.yul\":30305:30325   */\n      tag_282\n      jump\t// in\n    tag_639:\n        /* \"#utility.yul\":30300:30325   */\n      swap2\n      pop\n        /* \"#utility.yul\":30339:30359   */\n      tag_640\n        /* \"#utility.yul\":30357:30358   */\n      dup4\n        /* \"#utility.yul\":30339:30359   */\n      tag_282\n      jump\t// in\n    tag_640:\n        /* \"#utility.yul\":30334:30359   */\n      swap3\n      pop\n        /* \"#utility.yul\":30382:30383   */\n      dup3\n        /* \"#utility.yul\":30379:30380   */\n      dup3\n        /* \"#utility.yul\":30375:30384   */\n      add\n        /* \"#utility.yul\":30368:30384   */\n      swap1\n      pop\n        /* \"#utility.yul\":30403:30406   */\n      dup1\n        /* \"#utility.yul\":30400:30401   */\n      dup3\n        /* \"#utility.yul\":30397:30407   */\n      gt\n        /* \"#utility.yul\":30394:30430   */\n      iszero\n      tag_641\n      jumpi\n        /* \"#utility.yul\":30410:30428   */\n      tag_642\n      tag_350\n      jump\t// in\n    tag_642:\n        /* \"#utility.yul\":30394:30430   */\n    tag_641:\n        /* \"#utility.yul\":30246:30437   */\n      swap3\n      swap2\n      pop\n      pop\n      jump\t// out\n\n    auxdata: 0xa2646970667358221220555d4724349d578ffc6903a1b493c37ed517c3e20cabd59f2cb6bf240ec901c164736f6c634300081c0033\n}\n",
				"bytecode": {
					"linkReferences": {},
					"object": "60806040526040518061018001604052806040518060400160405280601681526020017f556e69646f73206465205061647265204d696775656c0000000000000000000081525081526020016040518060400160405280601881526020017f496d706572617472697a204c656f706f6c64696e656e7365000000000000000081525081526020016040518060400160405280601381526020017f556e69646f7320646f2056697261646f75726f0000000000000000000000000081525081526020016040518060400160405280601e81526020017f45737461636f6573205072696d65697261206465204d616e677565697261000081525081526020016040518060400160405280601081526020017f556e69646f732064612054696a7563610000000000000000000000000000000081525081526020016040518060400160405280601781526020017f4265696a612d466c6f72206465204e696c6f706f6c697300000000000000000081525081526020016040518060400160405280601781526020017f41636164656d69636f7320646f2053616c67756569726f00000000000000000081525081526020016040518060400160405280601581526020017f556e69646f732064652056696c612049736162656c00000000000000000000008152508152602001604051806060016040528060258152602001613ae06025913981526020016040518060400160405280601181526020017f5061726169736f20646f2054756975746900000000000000000000000000000081525081526020016040518060400160405280601881526020017f41636164656d69636f7320646f204772616e64652052696f000000000000000081525081526020016040518060400160405280600781526020017f506f7274656c6100000000000000000000000000000000000000000000000000815250815250600c90600c6102c5929190610b99565b506040518061012001604052806040518060400160405280600c81526020017f53616d62612d656e7265646f000000000000000000000000000000000000000081525081526020016040518060400160405280600781526020017f426174657269610000000000000000000000000000000000000000000000000081525081526020016040518060400160405280600881526020017f4861726d6f6e696100000000000000000000000000000000000000000000000081525081526020016040518060400160405280600881526020017f45766f6c7563616f00000000000000000000000000000000000000000000000081525081526020016040518060400160405280601281526020017f436f6d697373616f206465206672656e7465000000000000000000000000000081525081526020016040518060400160405280600981526020017f416c65676f72696173000000000000000000000000000000000000000000000081525081526020016040518060400160405280600881526020017f46616e746173696100000000000000000000000000000000000000000000000081525081526020016040518060400160405280600b81526020017f4d65737472652d73616c6100000000000000000000000000000000000000000081525081526020016040518060400160405280600681526020017f456e7265646f0000000000000000000000000000000000000000000000000000815250815250600d9060096104f3929190610bf0565b505f600e555f600f555f60105534801561050b575f5ffd5b506040518060400160405280600e81526020017f4361726e6176616c53636f7265730000000000000000000000000000000000008152506040518060400160405280600381526020017f434353000000000000000000000000000000000000000000000000000000000081525081600390816105879190610eff565b5080600490816105979190610eff565b50505033600b5f6101000a81548173ffffffffffffffffffffffffffffffffffffffff021916908373ffffffffffffffffffffffffffffffffffffffff1602179055506106b5600c805480602002602001604051908101604052809291908181526020015f905b828210156106a6578382905f5260205f2001805461061b90610d26565b80601f016020809104026020016040519081016040528092919081815260200182805461064790610d26565b80156106925780601f1061066957610100808354040283529160200191610692565b820191905f5260205f20905b81548152906001019060200180831161067557829003601f168201915b5050505050815260200190600101906105fe565b5050505061079560201b60201c565b610790600d805480602002602001604051908101604052809291908181526020015f905b82821015610781578382905f5260205f200180546106f690610d26565b80601f016020809104026020016040519081016040528092919081815260200182805461072290610d26565b801561076d5780601f106107445761010080835404028352916020019161076d565b820191905f5260205f20905b81548152906001019060200180831161075057829003601f168201915b5050505050815260200190600101906106d9565b5050505061099760201b60201c565b611344565b600b5f9054906101000a900473ffffffffffffffffffffffffffffffffffffffff1673ffffffffffffffffffffffffffffffffffffffff163373ffffffffffffffffffffffffffffffffffffffff1614610824576040517f08c379a000000000000000000000000000000000000000000000000000000000815260040161081b90611028565b60405180910390fd5b600c6006805490501061086c576040517f08c379a0000000000000000000000000000000000000000000000000000000008152600401610863906110b6565b60405180910390fd5b5f5f90505b815181101561095c57600c600f54106108bf576040517f08c379a00000000000000000000000000000000000000000000000000000000081526004016108b6906110b6565b60405180910390fd5b60066040518060400160405280600f5481526020018484815181106108e7576108e66110d4565b5b6020026020010151815250908060018154018082558091505060019003905f5260205f2090600202015f909190919091505f820151815f015560208201518160010190816109359190610eff565b505050600f5f81548092919061094a9061112e565b91905055508080600101915050610871565b507f1dcfb77c5edf55120b12aa71e216239cbc61cc7bcc656271af2d2ece9d005bdb8160405161098c9190611296565b60405180910390a150565b600b5f9054906101000a900473ffffffffffffffffffffffffffffffffffffffff1673ffffffffffffffffffffffffffffffffffffffff163373ffffffffffffffffffffffffffffffffffffffff1614610a26576040517f08c379a0000000000000000000000000000000000000000000000000000000008152600401610a1d90611028565b60405180910390fd5b600960078054905010610a6e576040517f08c379a0000000000000000000000000000000000000000000000000000000008152600401610a6590611326565b60405180910390fd5b5f5f90505b8151811015610b5e57600960105410610ac1576040517f08c379a0000000000000000000000000000000000000000000000000000000008152600401610ab890611326565b60405180910390fd5b600760405180604001604052806010548152602001848481518110610ae957610ae86110d4565b5b6020026020010151815250908060018154018082558091505060019003905f5260205f2090600202015f909190919091505f820151815f01556020820151816001019081610b379190610eff565b50505060105f815480929190610b4c9061112e565b91905055508080600101915050610a73565b507f25aa31c0be750cc5e6616917e1209c38b8643a142814e500d1eb8fc63270fe5581604051610b8e9190611296565b60405180910390a150565b828054828255905f5260205f20908101928215610bdf579160200282015b82811115610bde578251829081610bce9190610eff565b5091602001919060010190610bb7565b5b509050610bec9190610c47565b5090565b828054828255905f5260205f20908101928215610c36579160200282015b82811115610c35578251829081610c259190610eff565b5091602001919060010190610c0e565b5b509050610c439190610c47565b5090565b5b80821115610c66575f8181610c5d9190610c6a565b50600101610c48565b5090565b508054610c7690610d26565b5f825580601f10610c875750610ca4565b601f0160209004905f5260205f2090810190610ca39190610ca7565b5b50565b5b80821115610cbe575f815f905550600101610ca8565b5090565b5f81519050919050565b7f4e487b71000000000000000000000000000000000000000000000000000000005f52604160045260245ffd5b7f4e487b71000000000000000000000000000000000000000000000000000000005f52602260045260245ffd5b5f6002820490506001821680610d3d57607f821691505b602082108103610d5057610d4f610cf9565b5b50919050565b5f819050815f5260205f209050919050565b5f6020601f8301049050919050565b5f82821b905092915050565b5f60088302610db27fffffffffffffffffffffffffffffffffffffffffffffffffffffffffffffffff82610d77565b610dbc8683610d77565b95508019841693508086168417925050509392505050565b5f819050919050565b5f819050919050565b5f610e00610dfb610df684610dd4565b610ddd565b610dd4565b9050919050565b5f819050919050565b610e1983610de6565b610e2d610e2582610e07565b848454610d83565b825550505050565b5f5f905090565b610e44610e35565b610e4f818484610e10565b505050565b5b81811015610e7257610e675f82610e3c565b600181019050610e55565b5050565b601f821115610eb757610e8881610d56565b610e9184610d68565b81016020851015610ea0578190505b610eb4610eac85610d68565b830182610e54565b50505b505050565b5f82821c905092915050565b5f610ed75f1984600802610ebc565b1980831691505092915050565b5f610eef8383610ec8565b9150826002028217905092915050565b610f0882610cc2565b67ffffffffffffffff811115610f2157610f20610ccc565b5b610f2b8254610d26565b610f36828285610e76565b5f60209050601f831160018114610f67575f8415610f55578287015190505b610f5f8582610ee4565b865550610fc6565b601f198416610f7586610d56565b5f5b82811015610f9c57848901518255600182019150602085019450602081019050610f77565b86831015610fb95784890151610fb5601f891682610ec8565b8355505b6001600288020188555050505b505050505050565b5f82825260208201905092915050565b7f41636573736f20726573747269746f20616f2070726f70726965746172696f005f82015250565b5f611012601f83610fce565b915061101d82610fde565b602082019050919050565b5f6020820190508181035f83015261103f81611006565b9050919050565b7f5175616e746964616465206d6178696d61206465206573636f6c6173206174695f8201527f6e67696461000000000000000000000000000000000000000000000000000000602082015250565b5f6110a0602583610fce565b91506110ab82611046565b604082019050919050565b5f6020820190508181035f8301526110cd81611094565b9050919050565b7f4e487b71000000000000000000000000000000000000000000000000000000005f52603260045260245ffd5b7f4e487b71000000000000000000000000000000000000000000000000000000005f52601160045260245ffd5b5f61113882610dd4565b91507fffffffffffffffffffffffffffffffffffffffffffffffffffffffffffffffff820361116a57611169611101565b5b600182019050919050565b5f81519050919050565b5f82825260208201905092915050565b5f819050602082019050919050565b5f82825260208201905092915050565b8281835e5f83830152505050565b5f601f19601f8301169050919050565b5f6111d682610cc2565b6111e0818561119e565b93506111f08185602086016111ae565b6111f9816111bc565b840191505092915050565b5f61120f83836111cc565b905092915050565b5f602082019050919050565b5f61122d82611175565b611237818561117f565b9350836020820285016112498561118f565b805f5b8581101561128457848403895281516112658582611204565b945061127083611217565b925060208a0199505060018101905061124c565b50829750879550505050505092915050565b5f6020820190508181035f8301526112ae8184611223565b905092915050565b7f5175616e746964616465206d6178696d61206465207175657369746f732061745f8201527f696e676964610000000000000000000000000000000000000000000000000000602082015250565b5f611310602683610fce565b915061131b826112b6565b604082019050919050565b5f6020820190508181035f83015261133d81611304565b9050919050565b61278f806113515f395ff3fe608060405234801561000f575f5ffd5b5060043610610114575f3560e01c80638da5cb5b116100a0578063dacb31cb1161006f578063dacb31cb1461031d578063dd62ed3e1461033b578063dd7a79961461036b578063e49a39dc14610389578063ec0482101461039357610114565b80638da5cb5b1461027e57806395d89b411461029c578063a9059cbb146102ba578063a916b987146102ea57610114565b806323b872dd116100e757806323b872dd146101a0578063313ce567146101d05780634d4b6681146101ee578063668857441461021e57806370a082311461024e57610114565b806305ae501e1461011857806306fdde0314610134578063095ea7b31461015257806318160ddd14610182575b5f5ffd5b610132600480360381019061012d919061192d565b6103b1565b005b61013c610623565b60405161014991906119ed565b60405180910390f35b61016c60048036038101906101679190611a67565b6106b3565b6040516101799190611abf565b60405180910390f35b61018a6106d5565b6040516101979190611ae7565b60405180910390f35b6101ba60048036038101906101b59190611b00565b6106de565b6040516101c79190611abf565b60405180910390f35b6101d861070c565b6040516101e59190611b6b565b60405180910390f35b61020860048036038101906102039190611cb0565b610714565b6040516102159190611ae7565b60405180910390f35b61023860048036038101906102339190611d0a565b6109e8565b6040516102459190611ae7565b60405180910390f35b61026860048036038101906102639190611d48565b610a7a565b6040516102759190611ae7565b60405180910390f35b610286610abf565b6040516102939190611d82565b60405180910390f35b6102a4610ae4565b6040516102b191906119ed565b60405180910390f35b6102d460048036038101906102cf9190611a67565b610b74565b6040516102e19190611abf565b60405180910390f35b61030460048036038101906102ff9190611d0a565b610b96565b6040516103149493929190611d9b565b60405180910390f35b610325610bec565b6040516103329190611f4c565b60405180910390f35b61035560048036038101906103509190611f6c565b610d7d565b6040516103629190611ae7565b60405180910390f35b610373610dff565b6040516103809190612065565b60405180910390f35b610391610f1a565b005b61039b611074565b6040516103a89190612065565b60405180910390f35b3373ffffffffffffffffffffffffffffffffffffffff1660095f3373ffffffffffffffffffffffffffffffffffffffff1673ffffffffffffffffffffffffffffffffffffffff1681526020019081526020015f205f015f9054906101000a900473ffffffffffffffffffffffffffffffffffffffff1673ffffffffffffffffffffffffffffffffffffffff161461047d576040517f08c379a0000000000000000000000000000000000000000000000000000000008152600401610474906120cf565b60405180910390fd5b610384811015801561049157506103e88111155b6104d0576040517f08c379a00000000000000000000000000000000000000000000000000000000081526004016104c790612137565b60405180910390fd5b5f60405180608001604052808581526020018481526020013373ffffffffffffffffffffffffffffffffffffffff168152602001838152509050600881908060018154018082558091505060019003905f5260205f2090600402015f909190919091505f820151815f0155602082015181600101556040820151816002015f6101000a81548173ffffffffffffffffffffffffffffffffffffffff021916908373ffffffffffffffffffffffffffffffffffffffff16021790555060608201518160030155505080600a5f8681526020019081526020015f205f8581526020019081526020015f205f820151815f0155602082015181600101556040820151816002015f6101000a81548173ffffffffffffffffffffffffffffffffffffffff021916908373ffffffffffffffffffffffffffffffffffffffff1602179055506060820151816003015590505050505050565b60606003805461063290612182565b80601f016020809104026020016040519081016040528092919081815260200182805461065e90612182565b80156106a95780601f10610680576101008083540402835291602001916106a9565b820191905f5260205f20905b81548152906001019060200180831161068c57829003601f168201915b5050505050905090565b5f5f6106bd61118f565b90506106ca818585611196565b600191505092915050565b5f600254905090565b5f5f6106e861118f565b90506106f58582856111a8565b61070085858561123a565b60019150509392505050565b5f6012905090565b5f600b5f9054906101000a900473ffffffffffffffffffffffffffffffffffffffff1673ffffffffffffffffffffffffffffffffffffffff163373ffffffffffffffffffffffffffffffffffffffff16146107a4576040517f08c379a000000000000000000000000000000000000000000000000000000000815260040161079b906121fc565b60405180910390fd5b6024600580549050106107ec576040517f08c379a00000000000000000000000000000000000000000000000000000000081526004016107e390612264565b60405180910390fd5b60405180606001604052803373ffffffffffffffffffffffffffffffffffffffff1681526020018481526020018381525060095f3373ffffffffffffffffffffffffffffffffffffffff1673ffffffffffffffffffffffffffffffffffffffff1681526020019081526020015f205f820151815f015f6101000a81548173ffffffffffffffffffffffffffffffffffffffff021916908373ffffffffffffffffffffffffffffffffffffffff16021790555060208201518160010190816108b39190612422565b5060408201518160020155905050600560405180606001604052803373ffffffffffffffffffffffffffffffffffffffff16815260200185815260200184815250908060018154018082558091505060019003905f5260205f2090600302015f909190919091505f820151815f015f6101000a81548173ffffffffffffffffffffffffffffffffffffffff021916908373ffffffffffffffffffffffffffffffffffffffff16021790555060208201518160010190816109739190612422565b506040820151816002015550503373ffffffffffffffffffffffffffffffffffffffff167fa1fb37ecddd4c220fd008a54a22fb96ce4db7248e0f4987e445259dc6e55188b846040516109c691906119ed565b60405180910390a260016005805490506109e0919061251e565b905092915050565b5f5f600a5f8581526020019081526020015f205f8481526020019081526020015f206003015411610a4e576040517f08c379a0000000000000000000000000000000000000000000000000000000008152600401610a459061259b565b60405180910390fd5b600a5f8481526020019081526020015f205f8381526020019081526020015f2060030154905092915050565b5f5f5f8373ffffffffffffffffffffffffffffffffffffffff1673ffffffffffffffffffffffffffffffffffffffff1681526020019081526020015f20549050919050565b600b5f9054906101000a900473ffffffffffffffffffffffffffffffffffffffff1681565b606060048054610af390612182565b80601f0160208091040260200160405190810160405280929190818152602001828054610b1f90612182565b8015610b6a5780601f10610b4157610100808354040283529160200191610b6a565b820191905f5260205f20905b815481529060010190602001808311610b4d57829003601f168201915b5050505050905090565b5f5f610b7e61118f565b9050610b8b81858561123a565b600191505092915050565b600a602052815f5260405f20602052805f5260405f205f9150915050805f015490806001015490806002015f9054906101000a900473ffffffffffffffffffffffffffffffffffffffff16908060030154905084565b60605f60058054905011610c35576040517f08c379a0000000000000000000000000000000000000000000000000000000008152600401610c2c90612603565b60405180910390fd5b6005805480602002602001604051908101604052809291908181526020015f905b82821015610d74578382905f5260205f2090600302016040518060600160405290815f82015f9054906101000a900473ffffffffffffffffffffffffffffffffffffffff1673ffffffffffffffffffffffffffffffffffffffff1673ffffffffffffffffffffffffffffffffffffffff168152602001600182018054610cdb90612182565b80601f0160208091040260200160405190810160405280929190818152602001828054610d0790612182565b8015610d525780601f10610d2957610100808354040283529160200191610d52565b820191905f5260205f20905b815481529060010190602001808311610d3557829003601f168201915b5050505050815260200160028201548152505081526020019060010190610c56565b50505050905090565b5f60015f8473ffffffffffffffffffffffffffffffffffffffff1673ffffffffffffffffffffffffffffffffffffffff1681526020019081526020015f205f8373ffffffffffffffffffffffffffffffffffffffff1673ffffffffffffffffffffffffffffffffffffffff1681526020019081526020015f2054905092915050565b60605f60068054905011610e48576040517f08c379a0000000000000000000000000000000000000000000000000000000008152600401610e3f9061266b565b60405180910390fd5b600c805480602002602001604051908101604052809291908181526020015f905b82821015610f11578382905f5260205f20018054610e8690612182565b80601f0160208091040260200160405190810160405280929190818152602001828054610eb290612182565b8015610efd5780601f10610ed457610100808354040283529160200191610efd565b820191905f5260205f20905b815481529060010190602001808311610ee057829003601f168201915b505050505081526020019060010190610e69565b50505050905090565b600b5f9054906101000a900473ffffffffffffffffffffffffffffffffffffffff1673ffffffffffffffffffffffffffffffffffffffff163373ffffffffffffffffffffffffffffffffffffffff1614610fa9576040517f08c379a0000000000000000000000000000000000000000000000000000000008152600401610fa0906121fc565b60405180910390fd5b60055f610fb69190611712565b60065f610fc39190611733565b60075f610fd09190611754565b60085f610fdd9190611775565b5f5f90505b600c811015611071575f5f90505b600981101561106357600a5f8381526020019081526020015f205f8281526020019081526020015f205f5f82015f9055600182015f9055600282015f6101000a81549073ffffffffffffffffffffffffffffffffffffffff0219169055600382015f905550508080600101915050610ff0565b508080600101915050610fe2565b50565b60605f600780549050116110bd576040517f08c379a00000000000000000000000000000000000000000000000000000000081526004016110b4906126d3565b60405180910390fd5b600d805480602002602001604051908101604052809291908181526020015f905b82821015611186578382905f5260205f200180546110fb90612182565b80601f016020809104026020016040519081016040528092919081815260200182805461112790612182565b80156111725780601f1061114957610100808354040283529160200191611172565b820191905f5260205f20905b81548152906001019060200180831161115557829003601f168201915b5050505050815260200190600101906110de565b50505050905090565b5f33905090565b6111a3838383600161132a565b505050565b5f6111b38484610d7d565b90507fffffffffffffffffffffffffffffffffffffffffffffffffffffffffffffffff81146112345781811015611225578281836040517ffb8f41b200000000000000000000000000000000000000000000000000000000815260040161121c939291906126f1565b60405180910390fd5b61123384848484035f61132a565b5b50505050565b5f73ffffffffffffffffffffffffffffffffffffffff168373ffffffffffffffffffffffffffffffffffffffff16036112aa575f6040517f96c6fd1e0000000000000000000000000000000000000000000000000000000081526004016112a19190611d82565b60405180910390fd5b5f73ffffffffffffffffffffffffffffffffffffffff168273ffffffffffffffffffffffffffffffffffffffff160361131a575f6040517fec442f050000000000000000000000000000000000000000000000000000000081526004016113119190611d82565b60405180910390fd5b6113258383836114f9565b505050565b5f73ffffffffffffffffffffffffffffffffffffffff168473ffffffffffffffffffffffffffffffffffffffff160361139a575f6040517fe602df050000000000000000000000000000000000000000000000000000000081526004016113919190611d82565b60405180910390fd5b5f73ffffffffffffffffffffffffffffffffffffffff168373ffffffffffffffffffffffffffffffffffffffff160361140a575f6040517f94280d620000000000000000000000000000000000000000000000000000000081526004016114019190611d82565b60405180910390fd5b8160015f8673ffffffffffffffffffffffffffffffffffffffff1673ffffffffffffffffffffffffffffffffffffffff1681526020019081526020015f205f8573ffffffffffffffffffffffffffffffffffffffff1673ffffffffffffffffffffffffffffffffffffffff1681526020019081526020015f208190555080156114f3578273ffffffffffffffffffffffffffffffffffffffff168473ffffffffffffffffffffffffffffffffffffffff167f8c5be1e5ebec7d5bd14f71427d1e84f3dd0314c0f7b2291e5b200ac8c7c3b925846040516114ea9190611ae7565b60405180910390a35b50505050565b5f73ffffffffffffffffffffffffffffffffffffffff168373ffffffffffffffffffffffffffffffffffffffff1603611549578060025f82825461153d9190612726565b92505081905550611617565b5f5f5f8573ffffffffffffffffffffffffffffffffffffffff1673ffffffffffffffffffffffffffffffffffffffff1681526020019081526020015f20549050818110156115d2578381836040517fe450d38c0000000000000000000000000000000000000000000000000000000081526004016115c9939291906126f1565b60405180910390fd5b8181035f5f8673ffffffffffffffffffffffffffffffffffffffff1673ffffffffffffffffffffffffffffffffffffffff1681526020019081526020015f2081905550505b5f73ffffffffffffffffffffffffffffffffffffffff168273ffffffffffffffffffffffffffffffffffffffff160361165e578060025f82825403925050819055506116a8565b805f5f8473ffffffffffffffffffffffffffffffffffffffff1673ffffffffffffffffffffffffffffffffffffffff1681526020019081526020015f205f82825401925050819055505b8173ffffffffffffffffffffffffffffffffffffffff168373ffffffffffffffffffffffffffffffffffffffff167fddf252ad1be2c89b69c2b068fc378daa952ba7f163c4a11628f55a4df523b3ef836040516117059190611ae7565b60405180910390a3505050565b5080545f8255600302905f5260205f20908101906117309190611796565b50565b5080545f8255600202905f5260205f209081019061175191906117e8565b50565b5080545f8255600202905f5260205f20908101906117729190611814565b50565b5080545f8255600402905f5260205f20908101906117939190611840565b50565b5b808211156117e4575f5f82015f6101000a81549073ffffffffffffffffffffffffffffffffffffffff0219169055600182015f6117d49190611891565b600282015f905550600301611797565b5090565b5b80821115611810575f5f82015f9055600182015f6118079190611891565b506002016117e9565b5090565b5b8082111561183c575f5f82015f9055600182015f6118339190611891565b50600201611815565b5090565b5b8082111561188d575f5f82015f9055600182015f9055600282015f6101000a81549073ffffffffffffffffffffffffffffffffffffffff0219169055600382015f905550600401611841565b5090565b50805461189d90612182565b5f825580601f106118ae57506118cb565b601f0160209004905f5260205f20908101906118ca91906118ce565b5b50565b5b808211156118e5575f815f9055506001016118cf565b5090565b5f604051905090565b5f5ffd5b5f5ffd5b5f819050919050565b61190c816118fa565b8114611916575f5ffd5b50565b5f8135905061192781611903565b92915050565b5f5f5f60608486031215611944576119436118f2565b5b5f61195186828701611919565b935050602061196286828701611919565b925050604061197386828701611919565b9150509250925092565b5f81519050919050565b5f82825260208201905092915050565b8281835e5f83830152505050565b5f601f19601f8301169050919050565b5f6119bf8261197d565b6119c98185611987565b93506119d9818560208601611997565b6119e2816119a5565b840191505092915050565b5f6020820190508181035f830152611a0581846119b5565b905092915050565b5f73ffffffffffffffffffffffffffffffffffffffff82169050919050565b5f611a3682611a0d565b9050919050565b611a4681611a2c565b8114611a50575f5ffd5b50565b5f81359050611a6181611a3d565b92915050565b5f5f60408385031215611a7d57611a7c6118f2565b5b5f611a8a85828601611a53565b9250506020611a9b85828601611919565b9150509250929050565b5f8115159050919050565b611ab981611aa5565b82525050565b5f602082019050611ad25f830184611ab0565b92915050565b611ae1816118fa565b82525050565b5f602082019050611afa5f830184611ad8565b92915050565b5f5f5f60608486031215611b1757611b166118f2565b5b5f611b2486828701611a53565b9350506020611b3586828701611a53565b9250506040611b4686828701611919565b9150509250925092565b5f60ff82169050919050565b611b6581611b50565b82525050565b5f602082019050611b7e5f830184611b5c565b92915050565b5f5ffd5b5f5ffd5b7f4e487b71000000000000000000000000000000000000000000000000000000005f52604160045260245ffd5b611bc2826119a5565b810181811067ffffffffffffffff82111715611be157611be0611b8c565b5b80604052505050565b5f611bf36118e9565b9050611bff8282611bb9565b919050565b5f67ffffffffffffffff821115611c1e57611c1d611b8c565b5b611c27826119a5565b9050602081019050919050565b828183375f83830152505050565b5f611c54611c4f84611c04565b611bea565b905082815260208101848484011115611c7057611c6f611b88565b5b611c7b848285611c34565b509392505050565b5f82601f830112611c9757611c96611b84565b5b8135611ca7848260208601611c42565b91505092915050565b5f5f60408385031215611cc657611cc56118f2565b5b5f83013567ffffffffffffffff811115611ce357611ce26118f6565b5b611cef85828601611c83565b9250506020611d0085828601611919565b9150509250929050565b5f5f60408385031215611d2057611d1f6118f2565b5b5f611d2d85828601611919565b9250506020611d3e85828601611919565b9150509250929050565b5f60208284031215611d5d57611d5c6118f2565b5b5f611d6a84828501611a53565b91505092915050565b611d7c81611a2c565b82525050565b5f602082019050611d955f830184611d73565b92915050565b5f608082019050611dae5f830187611ad8565b611dbb6020830186611ad8565b611dc86040830185611d73565b611dd56060830184611ad8565b95945050505050565b5f81519050919050565b5f82825260208201905092915050565b5f819050602082019050919050565b611e1081611a2c565b82525050565b5f82825260208201905092915050565b5f611e308261197d565b611e3a8185611e16565b9350611e4a818560208601611997565b611e53816119a5565b840191505092915050565b611e67816118fa565b82525050565b5f606083015f830151611e825f860182611e07565b5060208301518482036020860152611e9a8282611e26565b9150506040830151611eaf6040860182611e5e565b508091505092915050565b5f611ec58383611e6d565b905092915050565b5f602082019050919050565b5f611ee382611dde565b611eed8185611de8565b935083602082028501611eff85611df8565b805f5b85811015611f3a5784840389528151611f1b8582611eba565b9450611f2683611ecd565b925060208a01995050600181019050611f02565b50829750879550505050505092915050565b5f6020820190508181035f830152611f648184611ed9565b905092915050565b5f5f60408385031215611f8257611f816118f2565b5b5f611f8f85828601611a53565b9250506020611fa085828601611a53565b9150509250929050565b5f81519050919050565b5f82825260208201905092915050565b5f819050602082019050919050565b5f611fde8383611e26565b905092915050565b5f602082019050919050565b5f611ffc82611faa565b6120068185611fb4565b93508360208202850161201885611fc4565b805f5b8581101561205357848403895281516120348582611fd3565b945061203f83611fe6565b925060208a0199505060018101905061201b565b50829750879550505050505092915050565b5f6020820190508181035f83015261207d8184611ff2565b905092915050565b7f536f6d656e7465206a757261646f7320706f64656d20726567697374726172005f82015250565b5f6120b9601f83611987565b91506120c482612085565b602082019050919050565b5f6020820190508181035f8301526120e6816120ad565b9050919050565b7f4e6f746120696d706f73736976656c00000000000000000000000000000000005f82015250565b5f612121600f83611987565b915061212c826120ed565b602082019050919050565b5f6020820190508181035f83015261214e81612115565b9050919050565b7f4e487b71000000000000000000000000000000000000000000000000000000005f52602260045260245ffd5b5f600282049050600182168061219957607f821691505b6020821081036121ac576121ab612155565b5b50919050565b7f41636573736f20726573747269746f20616f2070726f70726965746172696f005f82015250565b5f6121e6601f83611987565b91506121f1826121b2565b602082019050919050565b5f6020820190508181035f830152612213816121da565b9050919050565b7f5175616e746964616465206d6178696d61206465206a757261646f73000000005f82015250565b5f61224e601c83611987565b91506122598261221a565b602082019050919050565b5f6020820190508181035f83015261227b81612242565b9050919050565b5f819050815f5260205f209050919050565b5f6020601f8301049050919050565b5f82821b905092915050565b5f600883026122de7fffffffffffffffffffffffffffffffffffffffffffffffffffffffffffffffff826122a3565b6122e886836122a3565b95508019841693508086168417925050509392505050565b5f819050919050565b5f61232361231e612319846118fa565b612300565b6118fa565b9050919050565b5f819050919050565b61233c83612309565b6123506123488261232a565b8484546122af565b825550505050565b5f5f905090565b612367612358565b612372818484612333565b505050565b5b818110156123955761238a5f8261235f565b600181019050612378565b5050565b601f8211156123da576123ab81612282565b6123b484612294565b810160208510156123c3578190505b6123d76123cf85612294565b830182612377565b50505b505050565b5f82821c905092915050565b5f6123fa5f19846008026123df565b1980831691505092915050565b5f61241283836123eb565b9150826002028217905092915050565b61242b8261197d565b67ffffffffffffffff81111561244457612443611b8c565b5b61244e8254612182565b612459828285612399565b5f60209050601f83116001811461248a575f8415612478578287015190505b6124828582612407565b8655506124e9565b601f19841661249886612282565b5f5b828110156124bf5784890151825560018201915060208501945060208101905061249a565b868310156124dc57848901516124d8601f8916826123eb565b8355505b6001600288020188555050505b505050505050565b7f4e487b71000000000000000000000000000000000000000000000000000000005f52601160045260245ffd5b5f612528826118fa565b9150612533836118fa565b925082820390508181111561254b5761254a6124f1565b5b92915050565b7f4e6f7461206e616f20656e636f6e7472616461000000000000000000000000005f82015250565b5f612585601383611987565b915061259082612551565b602082019050919050565b5f6020820190508181035f8301526125b281612579565b9050919050565b7f4e6f206a7564676520666f756e640000000000000000000000000000000000005f82015250565b5f6125ed600e83611987565b91506125f8826125b9565b602082019050919050565b5f6020820190508181035f83015261261a816125e1565b9050919050565b7f4e6f206573636f6c6120666f756e6400000000000000000000000000000000005f82015250565b5f612655600f83611987565b915061266082612621565b602082019050919050565b5f6020820190508181035f83015261268281612649565b9050919050565b7f4e6f207175657369746f7320666f756e640000000000000000000000000000005f82015250565b5f6126bd601183611987565b91506126c882612689565b602082019050919050565b5f6020820190508181035f8301526126ea816126b1565b9050919050565b5f6060820190506127045f830186611d73565b6127116020830185611ad8565b61271e6040830184611ad8565b949350505050565b5f612730826118fa565b915061273b836118fa565b9250828201905080821115612753576127526124f1565b5b9291505056fea2646970667358221220555d4724349d578ffc6903a1b493c37ed517c3e20cabd59f2cb6bf240ec901c164736f6c634300081c00334d6f63696461646520496e646570656e64656e7465206465205061647265204d696775656c",
					"opcodes": "PUSH1 0x80 PUSH1 0x40 MSTORE PUSH1 0x40 MLOAD DUP1 PUSH2 0x180 ADD PUSH1 0x40 MSTORE DUP1 PUSH1 0x40 MLOAD DUP1 PUSH1 0x40 ADD PUSH1 0x40 MSTORE DUP1 PUSH1 0x16 DUP2 MSTORE PUSH1 0x20 ADD PUSH32 0x556E69646F73206465205061647265204D696775656C00000000000000000000 DUP2 MSTORE POP DUP2 MSTORE PUSH1 0x20 ADD PUSH1 0x40 MLOAD DUP1 PUSH1 0x40 ADD PUSH1 0x40 MSTORE DUP1 PUSH1 0x18 DUP2 MSTORE PUSH1 0x20 ADD PUSH32 0x496D706572617472697A204C656F706F6C64696E656E73650000000000000000 DUP2 MSTORE POP DUP2 MSTORE PUSH1 0x20 ADD PUSH1 0x40 MLOAD DUP1 PUSH1 0x40 ADD PUSH1 0x40 MSTORE DUP1 PUSH1 0x13 DUP2 MSTORE PUSH1 0x20 ADD PUSH32 0x556E69646F7320646F2056697261646F75726F00000000000000000000000000 DUP2 MSTORE POP DUP2 MSTORE PUSH1 0x20 ADD PUSH1 0x40 MLOAD DUP1 PUSH1 0x40 ADD PUSH1 0x40 MSTORE DUP1 PUSH1 0x1E DUP2 MSTORE PUSH1 0x20 ADD PUSH32 0x45737461636F6573205072696D65697261206465204D616E6775656972610000 DUP2 MSTORE POP DUP2 MSTORE PUSH1 0x20 ADD PUSH1 0x40 MLOAD DUP1 PUSH1 0x40 ADD PUSH1 0x40 MSTORE DUP1 PUSH1 0x10 DUP2 MSTORE PUSH1 0x20 ADD PUSH32 0x556E69646F732064612054696A75636100000000000000000000000000000000 DUP2 MSTORE POP DUP2 MSTORE PUSH1 0x20 ADD PUSH1 0x40 MLOAD DUP1 PUSH1 0x40 ADD PUSH1 0x40 MSTORE DUP1 PUSH1 0x17 DUP2 MSTORE PUSH1 0x20 ADD PUSH32 0x4265696A612D466C6F72206465204E696C6F706F6C6973000000000000000000 DUP2 MSTORE POP DUP2 MSTORE PUSH1 0x20 ADD PUSH1 0x40 MLOAD DUP1 PUSH1 0x40 ADD PUSH1 0x40 MSTORE DUP1 PUSH1 0x17 DUP2 MSTORE PUSH1 0x20 ADD PUSH32 0x41636164656D69636F7320646F2053616C67756569726F000000000000000000 DUP2 MSTORE POP DUP2 MSTORE PUSH1 0x20 ADD PUSH1 0x40 MLOAD DUP1 PUSH1 0x40 ADD PUSH1 0x40 MSTORE DUP1 PUSH1 0x15 DUP2 MSTORE PUSH1 0x20 ADD PUSH32 0x556E69646F732064652056696C612049736162656C0000000000000000000000 DUP2 MSTORE POP DUP2 MSTORE PUSH1 0x20 ADD PUSH1 0x40 MLOAD DUP1 PUSH1 0x60 ADD PUSH1 0x40 MSTORE DUP1 PUSH1 0x25 DUP2 MSTORE PUSH1 0x20 ADD PUSH2 0x3AE0 PUSH1 0x25 SWAP2 CODECOPY DUP2 MSTORE PUSH1 0x20 ADD PUSH1 0x40 MLOAD DUP1 PUSH1 0x40 ADD PUSH1 0x40 MSTORE DUP1 PUSH1 0x11 DUP2 MSTORE PUSH1 0x20 ADD PUSH32 0x5061726169736F20646F20547569757469000000000000000000000000000000 DUP2 MSTORE POP DUP2 MSTORE PUSH1 0x20 ADD PUSH1 0x40 MLOAD DUP1 PUSH1 0x40 ADD PUSH1 0x40 MSTORE DUP1 PUSH1 0x18 DUP2 MSTORE PUSH1 0x20 ADD PUSH32 0x41636164656D69636F7320646F204772616E64652052696F0000000000000000 DUP2 MSTORE POP DUP2 MSTORE PUSH1 0x20 ADD PUSH1 0x40 MLOAD DUP1 PUSH1 0x40 ADD PUSH1 0x40 MSTORE DUP1 PUSH1 0x7 DUP2 MSTORE PUSH1 0x20 ADD PUSH32 0x506F7274656C6100000000000000000000000000000000000000000000000000 DUP2 MSTORE POP DUP2 MSTORE POP PUSH1 0xC SWAP1 PUSH1 0xC PUSH2 0x2C5 SWAP3 SWAP2 SWAP1 PUSH2 0xB99 JUMP JUMPDEST POP PUSH1 0x40 MLOAD DUP1 PUSH2 0x120 ADD PUSH1 0x40 MSTORE DUP1 PUSH1 0x40 MLOAD DUP1 PUSH1 0x40 ADD PUSH1 0x40 MSTORE DUP1 PUSH1 0xC DUP2 MSTORE PUSH1 0x20 ADD PUSH32 0x53616D62612D656E7265646F0000000000000000000000000000000000000000 DUP2 MSTORE POP DUP2 MSTORE PUSH1 0x20 ADD PUSH1 0x40 MLOAD DUP1 PUSH1 0x40 ADD PUSH1 0x40 MSTORE DUP1 PUSH1 0x7 DUP2 MSTORE PUSH1 0x20 ADD PUSH32 0x4261746572696100000000000000000000000000000000000000000000000000 DUP2 MSTORE POP DUP2 MSTORE PUSH1 0x20 ADD PUSH1 0x40 MLOAD DUP1 PUSH1 0x40 ADD PUSH1 0x40 MSTORE DUP1 PUSH1 0x8 DUP2 MSTORE PUSH1 0x20 ADD PUSH32 0x4861726D6F6E6961000000000000000000000000000000000000000000000000 DUP2 MSTORE POP DUP2 MSTORE PUSH1 0x20 ADD PUSH1 0x40 MLOAD DUP1 PUSH1 0x40 ADD PUSH1 0x40 MSTORE DUP1 PUSH1 0x8 DUP2 MSTORE PUSH1 0x20 ADD PUSH32 0x45766F6C7563616F000000000000000000000000000000000000000000000000 DUP2 MSTORE POP DUP2 MSTORE PUSH1 0x20 ADD PUSH1 0x40 MLOAD DUP1 PUSH1 0x40 ADD PUSH1 0x40 MSTORE DUP1 PUSH1 0x12 DUP2 MSTORE PUSH1 0x20 ADD PUSH32 0x436F6D697373616F206465206672656E74650000000000000000000000000000 DUP2 MSTORE POP DUP2 MSTORE PUSH1 0x20 ADD PUSH1 0x40 MLOAD DUP1 PUSH1 0x40 ADD PUSH1 0x40 MSTORE DUP1 PUSH1 0x9 DUP2 MSTORE PUSH1 0x20 ADD PUSH32 0x416C65676F726961730000000000000000000000000000000000000000000000 DUP2 MSTORE POP DUP2 MSTORE PUSH1 0x20 ADD PUSH1 0x40 MLOAD DUP1 PUSH1 0x40 ADD PUSH1 0x40 MSTORE DUP1 PUSH1 0x8 DUP2 MSTORE PUSH1 0x20 ADD PUSH32 0x46616E7461736961000000000000000000000000000000000000000000000000 DUP2 MSTORE POP DUP2 MSTORE PUSH1 0x20 ADD PUSH1 0x40 MLOAD DUP1 PUSH1 0x40 ADD PUSH1 0x40 MSTORE DUP1 PUSH1 0xB DUP2 MSTORE PUSH1 0x20 ADD PUSH32 0x4D65737472652D73616C61000000000000000000000000000000000000000000 DUP2 MSTORE POP DUP2 MSTORE PUSH1 0x20 ADD PUSH1 0x40 MLOAD DUP1 PUSH1 0x40 ADD PUSH1 0x40 MSTORE DUP1 PUSH1 0x6 DUP2 MSTORE PUSH1 0x20 ADD PUSH32 0x456E7265646F0000000000000000000000000000000000000000000000000000 DUP2 MSTORE POP DUP2 MSTORE POP PUSH1 0xD SWAP1 PUSH1 0x9 PUSH2 0x4F3 SWAP3 SWAP2 SWAP1 PUSH2 0xBF0 JUMP JUMPDEST POP PUSH0 PUSH1 0xE SSTORE PUSH0 PUSH1 0xF SSTORE PUSH0 PUSH1 0x10 SSTORE CALLVALUE DUP1 ISZERO PUSH2 0x50B JUMPI PUSH0 PUSH0 REVERT JUMPDEST POP PUSH1 0x40 MLOAD DUP1 PUSH1 0x40 ADD PUSH1 0x40 MSTORE DUP1 PUSH1 0xE DUP2 MSTORE PUSH1 0x20 ADD PUSH32 0x4361726E6176616C53636F726573000000000000000000000000000000000000 DUP2 MSTORE POP PUSH1 0x40 MLOAD DUP1 PUSH1 0x40 ADD PUSH1 0x40 MSTORE DUP1 PUSH1 0x3 DUP2 MSTORE PUSH1 0x20 ADD PUSH32 0x4343530000000000000000000000000000000000000000000000000000000000 DUP2 MSTORE POP DUP2 PUSH1 0x3 SWAP1 DUP2 PUSH2 0x587 SWAP2 SWAP1 PUSH2 0xEFF JUMP JUMPDEST POP DUP1 PUSH1 0x4 SWAP1 DUP2 PUSH2 0x597 SWAP2 SWAP1 PUSH2 0xEFF JUMP JUMPDEST POP POP POP CALLER PUSH1 0xB PUSH0 PUSH2 0x100 EXP DUP2 SLOAD DUP2 PUSH20 0xFFFFFFFFFFFFFFFFFFFFFFFFFFFFFFFFFFFFFFFF MUL NOT AND SWAP1 DUP4 PUSH20 0xFFFFFFFFFFFFFFFFFFFFFFFFFFFFFFFFFFFFFFFF AND MUL OR SWAP1 SSTORE POP PUSH2 0x6B5 PUSH1 0xC DUP1 SLOAD DUP1 PUSH1 0x20 MUL PUSH1 0x20 ADD PUSH1 0x40 MLOAD SWAP1 DUP2 ADD PUSH1 0x40 MSTORE DUP1 SWAP3 SWAP2 SWAP1 DUP2 DUP2 MSTORE PUSH1 0x20 ADD PUSH0 SWAP1 JUMPDEST DUP3 DUP3 LT ISZERO PUSH2 0x6A6 JUMPI DUP4 DUP3 SWAP1 PUSH0 MSTORE PUSH1 0x20 PUSH0 KECCAK256 ADD DUP1 SLOAD PUSH2 0x61B SWAP1 PUSH2 0xD26 JUMP JUMPDEST DUP1 PUSH1 0x1F ADD PUSH1 0x20 DUP1 SWAP2 DIV MUL PUSH1 0x20 ADD PUSH1 0x40 MLOAD SWAP1 DUP2 ADD PUSH1 0x40 MSTORE DUP1 SWAP3 SWAP2 SWAP1 DUP2 DUP2 MSTORE PUSH1 0x20 ADD DUP3 DUP1 SLOAD PUSH2 0x647 SWAP1 PUSH2 0xD26 JUMP JUMPDEST DUP1 ISZERO PUSH2 0x692 JUMPI DUP1 PUSH1 0x1F LT PUSH2 0x669 JUMPI PUSH2 0x100 DUP1 DUP4 SLOAD DIV MUL DUP4 MSTORE SWAP2 PUSH1 0x20 ADD SWAP2 PUSH2 0x692 JUMP JUMPDEST DUP3 ADD SWAP2 SWAP1 PUSH0 MSTORE PUSH1 0x20 PUSH0 KECCAK256 SWAP1 JUMPDEST DUP2 SLOAD DUP2 MSTORE SWAP1 PUSH1 0x1 ADD SWAP1 PUSH1 0x20 ADD DUP1 DUP4 GT PUSH2 0x675 JUMPI DUP3 SWAP1 SUB PUSH1 0x1F AND DUP3 ADD SWAP2 JUMPDEST POP POP POP POP POP DUP2 MSTORE PUSH1 0x20 ADD SWAP1 PUSH1 0x1 ADD SWAP1 PUSH2 0x5FE JUMP JUMPDEST POP POP POP POP PUSH2 0x795 PUSH1 0x20 SHL PUSH1 0x20 SHR JUMP JUMPDEST PUSH2 0x790 PUSH1 0xD DUP1 SLOAD DUP1 PUSH1 0x20 MUL PUSH1 0x20 ADD PUSH1 0x40 MLOAD SWAP1 DUP2 ADD PUSH1 0x40 MSTORE DUP1 SWAP3 SWAP2 SWAP1 DUP2 DUP2 MSTORE PUSH1 0x20 ADD PUSH0 SWAP1 JUMPDEST DUP3 DUP3 LT ISZERO PUSH2 0x781 JUMPI DUP4 DUP3 SWAP1 PUSH0 MSTORE PUSH1 0x20 PUSH0 KECCAK256 ADD DUP1 SLOAD PUSH2 0x6F6 SWAP1 PUSH2 0xD26 JUMP JUMPDEST DUP1 PUSH1 0x1F ADD PUSH1 0x20 DUP1 SWAP2 DIV MUL PUSH1 0x20 ADD PUSH1 0x40 MLOAD SWAP1 DUP2 ADD PUSH1 0x40 MSTORE DUP1 SWAP3 SWAP2 SWAP1 DUP2 DUP2 MSTORE PUSH1 0x20 ADD DUP3 DUP1 SLOAD PUSH2 0x722 SWAP1 PUSH2 0xD26 JUMP JUMPDEST DUP1 ISZERO PUSH2 0x76D JUMPI DUP1 PUSH1 0x1F LT PUSH2 0x744 JUMPI PUSH2 0x100 DUP1 DUP4 SLOAD DIV MUL DUP4 MSTORE SWAP2 PUSH1 0x20 ADD SWAP2 PUSH2 0x76D JUMP JUMPDEST DUP3 ADD SWAP2 SWAP1 PUSH0 MSTORE PUSH1 0x20 PUSH0 KECCAK256 SWAP1 JUMPDEST DUP2 SLOAD DUP2 MSTORE SWAP1 PUSH1 0x1 ADD SWAP1 PUSH1 0x20 ADD DUP1 DUP4 GT PUSH2 0x750 JUMPI DUP3 SWAP1 SUB PUSH1 0x1F AND DUP3 ADD SWAP2 JUMPDEST POP POP POP POP POP DUP2 MSTORE PUSH1 0x20 ADD SWAP1 PUSH1 0x1 ADD SWAP1 PUSH2 0x6D9 JUMP JUMPDEST POP POP POP POP PUSH2 0x997 PUSH1 0x20 SHL PUSH1 0x20 SHR JUMP JUMPDEST PUSH2 0x1344 JUMP JUMPDEST PUSH1 0xB PUSH0 SWAP1 SLOAD SWAP1 PUSH2 0x100 EXP SWAP1 DIV PUSH20 0xFFFFFFFFFFFFFFFFFFFFFFFFFFFFFFFFFFFFFFFF AND PUSH20 0xFFFFFFFFFFFFFFFFFFFFFFFFFFFFFFFFFFFFFFFF AND CALLER PUSH20 0xFFFFFFFFFFFFFFFFFFFFFFFFFFFFFFFFFFFFFFFF AND EQ PUSH2 0x824 JUMPI PUSH1 0x40 MLOAD PUSH32 0x8C379A000000000000000000000000000000000000000000000000000000000 DUP2 MSTORE PUSH1 0x4 ADD PUSH2 0x81B SWAP1 PUSH2 0x1028 JUMP JUMPDEST PUSH1 0x40 MLOAD DUP1 SWAP2 SUB SWAP1 REVERT JUMPDEST PUSH1 0xC PUSH1 0x6 DUP1 SLOAD SWAP1 POP LT PUSH2 0x86C JUMPI PUSH1 0x40 MLOAD PUSH32 0x8C379A000000000000000000000000000000000000000000000000000000000 DUP2 MSTORE PUSH1 0x4 ADD PUSH2 0x863 SWAP1 PUSH2 0x10B6 JUMP JUMPDEST PUSH1 0x40 MLOAD DUP1 SWAP2 SUB SWAP1 REVERT JUMPDEST PUSH0 PUSH0 SWAP1 POP JUMPDEST DUP2 MLOAD DUP2 LT ISZERO PUSH2 0x95C JUMPI PUSH1 0xC PUSH1 0xF SLOAD LT PUSH2 0x8BF JUMPI PUSH1 0x40 MLOAD PUSH32 0x8C379A000000000000000000000000000000000000000000000000000000000 DUP2 MSTORE PUSH1 0x4 ADD PUSH2 0x8B6 SWAP1 PUSH2 0x10B6 JUMP JUMPDEST PUSH1 0x40 MLOAD DUP1 SWAP2 SUB SWAP1 REVERT JUMPDEST PUSH1 0x6 PUSH1 0x40 MLOAD DUP1 PUSH1 0x40 ADD PUSH1 0x40 MSTORE DUP1 PUSH1 0xF SLOAD DUP2 MSTORE PUSH1 0x20 ADD DUP5 DUP5 DUP2 MLOAD DUP2 LT PUSH2 0x8E7 JUMPI PUSH2 0x8E6 PUSH2 0x10D4 JUMP JUMPDEST JUMPDEST PUSH1 0x20 MUL PUSH1 0x20 ADD ADD MLOAD DUP2 MSTORE POP SWAP1 DUP1 PUSH1 0x1 DUP2 SLOAD ADD DUP1 DUP3 SSTORE DUP1 SWAP2 POP POP PUSH1 0x1 SWAP1 SUB SWAP1 PUSH0 MSTORE PUSH1 0x20 PUSH0 KECCAK256 SWAP1 PUSH1 0x2 MUL ADD PUSH0 SWAP1 SWAP2 SWAP1 SWAP2 SWAP1 SWAP2 POP PUSH0 DUP3 ADD MLOAD DUP2 PUSH0 ADD SSTORE PUSH1 0x20 DUP3 ADD MLOAD DUP2 PUSH1 0x1 ADD SWAP1 DUP2 PUSH2 0x935 SWAP2 SWAP1 PUSH2 0xEFF JUMP JUMPDEST POP POP POP PUSH1 0xF PUSH0 DUP2 SLOAD DUP1 SWAP3 SWAP2 SWAP1 PUSH2 0x94A SWAP1 PUSH2 0x112E JUMP JUMPDEST SWAP2 SWAP1 POP SSTORE POP DUP1 DUP1 PUSH1 0x1 ADD SWAP2 POP POP PUSH2 0x871 JUMP JUMPDEST POP PUSH32 0x1DCFB77C5EDF55120B12AA71E216239CBC61CC7BCC656271AF2D2ECE9D005BDB DUP2 PUSH1 0x40 MLOAD PUSH2 0x98C SWAP2 SWAP1 PUSH2 0x1296 JUMP JUMPDEST PUSH1 0x40 MLOAD DUP1 SWAP2 SUB SWAP1 LOG1 POP JUMP JUMPDEST PUSH1 0xB PUSH0 SWAP1 SLOAD SWAP1 PUSH2 0x100 EXP SWAP1 DIV PUSH20 0xFFFFFFFFFFFFFFFFFFFFFFFFFFFFFFFFFFFFFFFF AND PUSH20 0xFFFFFFFFFFFFFFFFFFFFFFFFFFFFFFFFFFFFFFFF AND CALLER PUSH20 0xFFFFFFFFFFFFFFFFFFFFFFFFFFFFFFFFFFFFFFFF AND EQ PUSH2 0xA26 JUMPI PUSH1 0x40 MLOAD PUSH32 0x8C379A000000000000000000000000000000000000000000000000000000000 DUP2 MSTORE PUSH1 0x4 ADD PUSH2 0xA1D SWAP1 PUSH2 0x1028 JUMP JUMPDEST PUSH1 0x40 MLOAD DUP1 SWAP2 SUB SWAP1 REVERT JUMPDEST PUSH1 0x9 PUSH1 0x7 DUP1 SLOAD SWAP1 POP LT PUSH2 0xA6E JUMPI PUSH1 0x40 MLOAD PUSH32 0x8C379A000000000000000000000000000000000000000000000000000000000 DUP2 MSTORE PUSH1 0x4 ADD PUSH2 0xA65 SWAP1 PUSH2 0x1326 JUMP JUMPDEST PUSH1 0x40 MLOAD DUP1 SWAP2 SUB SWAP1 REVERT JUMPDEST PUSH0 PUSH0 SWAP1 POP JUMPDEST DUP2 MLOAD DUP2 LT ISZERO PUSH2 0xB5E JUMPI PUSH1 0x9 PUSH1 0x10 SLOAD LT PUSH2 0xAC1 JUMPI PUSH1 0x40 MLOAD PUSH32 0x8C379A000000000000000000000000000000000000000000000000000000000 DUP2 MSTORE PUSH1 0x4 ADD PUSH2 0xAB8 SWAP1 PUSH2 0x1326 JUMP JUMPDEST PUSH1 0x40 MLOAD DUP1 SWAP2 SUB SWAP1 REVERT JUMPDEST PUSH1 0x7 PUSH1 0x40 MLOAD DUP1 PUSH1 0x40 ADD PUSH1 0x40 MSTORE DUP1 PUSH1 0x10 SLOAD DUP2 MSTORE PUSH1 0x20 ADD DUP5 DUP5 DUP2 MLOAD DUP2 LT PUSH2 0xAE9 JUMPI PUSH2 0xAE8 PUSH2 0x10D4 JUMP JUMPDEST JUMPDEST PUSH1 0x20 MUL PUSH1 0x20 ADD ADD MLOAD DUP2 MSTORE POP SWAP1 DUP1 PUSH1 0x1 DUP2 SLOAD ADD DUP1 DUP3 SSTORE DUP1 SWAP2 POP POP PUSH1 0x1 SWAP1 SUB SWAP1 PUSH0 MSTORE PUSH1 0x20 PUSH0 KECCAK256 SWAP1 PUSH1 0x2 MUL ADD PUSH0 SWAP1 SWAP2 SWAP1 SWAP2 SWAP1 SWAP2 POP PUSH0 DUP3 ADD MLOAD DUP2 PUSH0 ADD SSTORE PUSH1 0x20 DUP3 ADD MLOAD DUP2 PUSH1 0x1 ADD SWAP1 DUP2 PUSH2 0xB37 SWAP2 SWAP1 PUSH2 0xEFF JUMP JUMPDEST POP POP POP PUSH1 0x10 PUSH0 DUP2 SLOAD DUP1 SWAP3 SWAP2 SWAP1 PUSH2 0xB4C SWAP1 PUSH2 0x112E JUMP JUMPDEST SWAP2 SWAP1 POP SSTORE POP DUP1 DUP1 PUSH1 0x1 ADD SWAP2 POP POP PUSH2 0xA73 JUMP JUMPDEST POP PUSH32 0x25AA31C0BE750CC5E6616917E1209C38B8643A142814E500D1EB8FC63270FE55 DUP2 PUSH1 0x40 MLOAD PUSH2 0xB8E SWAP2 SWAP1 PUSH2 0x1296 JUMP JUMPDEST PUSH1 0x40 MLOAD DUP1 SWAP2 SUB SWAP1 LOG1 POP JUMP JUMPDEST DUP3 DUP1 SLOAD DUP3 DUP3 SSTORE SWAP1 PUSH0 MSTORE PUSH1 0x20 PUSH0 KECCAK256 SWAP1 DUP2 ADD SWAP3 DUP3 ISZERO PUSH2 0xBDF JUMPI SWAP2 PUSH1 0x20 MUL DUP3 ADD JUMPDEST DUP3 DUP2 GT ISZERO PUSH2 0xBDE JUMPI DUP3 MLOAD DUP3 SWAP1 DUP2 PUSH2 0xBCE SWAP2 SWAP1 PUSH2 0xEFF JUMP JUMPDEST POP SWAP2 PUSH1 0x20 ADD SWAP2 SWAP1 PUSH1 0x1 ADD SWAP1 PUSH2 0xBB7 JUMP JUMPDEST JUMPDEST POP SWAP1 POP PUSH2 0xBEC SWAP2 SWAP1 PUSH2 0xC47 JUMP JUMPDEST POP SWAP1 JUMP JUMPDEST DUP3 DUP1 SLOAD DUP3 DUP3 SSTORE SWAP1 PUSH0 MSTORE PUSH1 0x20 PUSH0 KECCAK256 SWAP1 DUP2 ADD SWAP3 DUP3 ISZERO PUSH2 0xC36 JUMPI SWAP2 PUSH1 0x20 MUL DUP3 ADD JUMPDEST DUP3 DUP2 GT ISZERO PUSH2 0xC35 JUMPI DUP3 MLOAD DUP3 SWAP1 DUP2 PUSH2 0xC25 SWAP2 SWAP1 PUSH2 0xEFF JUMP JUMPDEST POP SWAP2 PUSH1 0x20 ADD SWAP2 SWAP1 PUSH1 0x1 ADD SWAP1 PUSH2 0xC0E JUMP JUMPDEST JUMPDEST POP SWAP1 POP PUSH2 0xC43 SWAP2 SWAP1 PUSH2 0xC47 JUMP JUMPDEST POP SWAP1 JUMP JUMPDEST JUMPDEST DUP1 DUP3 GT ISZERO PUSH2 0xC66 JUMPI PUSH0 DUP2 DUP2 PUSH2 0xC5D SWAP2 SWAP1 PUSH2 0xC6A JUMP JUMPDEST POP PUSH1 0x1 ADD PUSH2 0xC48 JUMP JUMPDEST POP SWAP1 JUMP JUMPDEST POP DUP1 SLOAD PUSH2 0xC76 SWAP1 PUSH2 0xD26 JUMP JUMPDEST PUSH0 DUP3 SSTORE DUP1 PUSH1 0x1F LT PUSH2 0xC87 JUMPI POP PUSH2 0xCA4 JUMP JUMPDEST PUSH1 0x1F ADD PUSH1 0x20 SWAP1 DIV SWAP1 PUSH0 MSTORE PUSH1 0x20 PUSH0 KECCAK256 SWAP1 DUP2 ADD SWAP1 PUSH2 0xCA3 SWAP2 SWAP1 PUSH2 0xCA7 JUMP JUMPDEST JUMPDEST POP JUMP JUMPDEST JUMPDEST DUP1 DUP3 GT ISZERO PUSH2 0xCBE JUMPI PUSH0 DUP2 PUSH0 SWAP1 SSTORE POP PUSH1 0x1 ADD PUSH2 0xCA8 JUMP JUMPDEST POP SWAP1 JUMP JUMPDEST PUSH0 DUP2 MLOAD SWAP1 POP SWAP2 SWAP1 POP JUMP JUMPDEST PUSH32 0x4E487B7100000000000000000000000000000000000000000000000000000000 PUSH0 MSTORE PUSH1 0x41 PUSH1 0x4 MSTORE PUSH1 0x24 PUSH0 REVERT JUMPDEST PUSH32 0x4E487B7100000000000000000000000000000000000000000000000000000000 PUSH0 MSTORE PUSH1 0x22 PUSH1 0x4 MSTORE PUSH1 0x24 PUSH0 REVERT JUMPDEST PUSH0 PUSH1 0x2 DUP3 DIV SWAP1 POP PUSH1 0x1 DUP3 AND DUP1 PUSH2 0xD3D JUMPI PUSH1 0x7F DUP3 AND SWAP2 POP JUMPDEST PUSH1 0x20 DUP3 LT DUP2 SUB PUSH2 0xD50 JUMPI PUSH2 0xD4F PUSH2 0xCF9 JUMP JUMPDEST JUMPDEST POP SWAP2 SWAP1 POP JUMP JUMPDEST PUSH0 DUP2 SWAP1 POP DUP2 PUSH0 MSTORE PUSH1 0x20 PUSH0 KECCAK256 SWAP1 POP SWAP2 SWAP1 POP JUMP JUMPDEST PUSH0 PUSH1 0x20 PUSH1 0x1F DUP4 ADD DIV SWAP1 POP SWAP2 SWAP1 POP JUMP JUMPDEST PUSH0 DUP3 DUP3 SHL SWAP1 POP SWAP3 SWAP2 POP POP JUMP JUMPDEST PUSH0 PUSH1 0x8 DUP4 MUL PUSH2 0xDB2 PUSH32 0xFFFFFFFFFFFFFFFFFFFFFFFFFFFFFFFFFFFFFFFFFFFFFFFFFFFFFFFFFFFFFFFF DUP3 PUSH2 0xD77 JUMP JUMPDEST PUSH2 0xDBC DUP7 DUP4 PUSH2 0xD77 JUMP JUMPDEST SWAP6 POP DUP1 NOT DUP5 AND SWAP4 POP DUP1 DUP7 AND DUP5 OR SWAP3 POP POP POP SWAP4 SWAP3 POP POP POP JUMP JUMPDEST PUSH0 DUP2 SWAP1 POP SWAP2 SWAP1 POP JUMP JUMPDEST PUSH0 DUP2 SWAP1 POP SWAP2 SWAP1 POP JUMP JUMPDEST PUSH0 PUSH2 0xE00 PUSH2 0xDFB PUSH2 0xDF6 DUP5 PUSH2 0xDD4 JUMP JUMPDEST PUSH2 0xDDD JUMP JUMPDEST PUSH2 0xDD4 JUMP JUMPDEST SWAP1 POP SWAP2 SWAP1 POP JUMP JUMPDEST PUSH0 DUP2 SWAP1 POP SWAP2 SWAP1 POP JUMP JUMPDEST PUSH2 0xE19 DUP4 PUSH2 0xDE6 JUMP JUMPDEST PUSH2 0xE2D PUSH2 0xE25 DUP3 PUSH2 0xE07 JUMP JUMPDEST DUP5 DUP5 SLOAD PUSH2 0xD83 JUMP JUMPDEST DUP3 SSTORE POP POP POP POP JUMP JUMPDEST PUSH0 PUSH0 SWAP1 POP SWAP1 JUMP JUMPDEST PUSH2 0xE44 PUSH2 0xE35 JUMP JUMPDEST PUSH2 0xE4F DUP2 DUP5 DUP5 PUSH2 0xE10 JUMP JUMPDEST POP POP POP JUMP JUMPDEST JUMPDEST DUP2 DUP2 LT ISZERO PUSH2 0xE72 JUMPI PUSH2 0xE67 PUSH0 DUP3 PUSH2 0xE3C JUMP JUMPDEST PUSH1 0x1 DUP2 ADD SWAP1 POP PUSH2 0xE55 JUMP JUMPDEST POP POP JUMP JUMPDEST PUSH1 0x1F DUP3 GT ISZERO PUSH2 0xEB7 JUMPI PUSH2 0xE88 DUP2 PUSH2 0xD56 JUMP JUMPDEST PUSH2 0xE91 DUP5 PUSH2 0xD68 JUMP JUMPDEST DUP2 ADD PUSH1 0x20 DUP6 LT ISZERO PUSH2 0xEA0 JUMPI DUP2 SWAP1 POP JUMPDEST PUSH2 0xEB4 PUSH2 0xEAC DUP6 PUSH2 0xD68 JUMP JUMPDEST DUP4 ADD DUP3 PUSH2 0xE54 JUMP JUMPDEST POP POP JUMPDEST POP POP POP JUMP JUMPDEST PUSH0 DUP3 DUP3 SHR SWAP1 POP SWAP3 SWAP2 POP POP JUMP JUMPDEST PUSH0 PUSH2 0xED7 PUSH0 NOT DUP5 PUSH1 0x8 MUL PUSH2 0xEBC JUMP JUMPDEST NOT DUP1 DUP4 AND SWAP2 POP POP SWAP3 SWAP2 POP POP JUMP JUMPDEST PUSH0 PUSH2 0xEEF DUP4 DUP4 PUSH2 0xEC8 JUMP JUMPDEST SWAP2 POP DUP3 PUSH1 0x2 MUL DUP3 OR SWAP1 POP SWAP3 SWAP2 POP POP JUMP JUMPDEST PUSH2 0xF08 DUP3 PUSH2 0xCC2 JUMP JUMPDEST PUSH8 0xFFFFFFFFFFFFFFFF DUP2 GT ISZERO PUSH2 0xF21 JUMPI PUSH2 0xF20 PUSH2 0xCCC JUMP JUMPDEST JUMPDEST PUSH2 0xF2B DUP3 SLOAD PUSH2 0xD26 JUMP JUMPDEST PUSH2 0xF36 DUP3 DUP3 DUP6 PUSH2 0xE76 JUMP JUMPDEST PUSH0 PUSH1 0x20 SWAP1 POP PUSH1 0x1F DUP4 GT PUSH1 0x1 DUP2 EQ PUSH2 0xF67 JUMPI PUSH0 DUP5 ISZERO PUSH2 0xF55 JUMPI DUP3 DUP8 ADD MLOAD SWAP1 POP JUMPDEST PUSH2 0xF5F DUP6 DUP3 PUSH2 0xEE4 JUMP JUMPDEST DUP7 SSTORE POP PUSH2 0xFC6 JUMP JUMPDEST PUSH1 0x1F NOT DUP5 AND PUSH2 0xF75 DUP7 PUSH2 0xD56 JUMP JUMPDEST PUSH0 JUMPDEST DUP3 DUP2 LT ISZERO PUSH2 0xF9C JUMPI DUP5 DUP10 ADD MLOAD DUP3 SSTORE PUSH1 0x1 DUP3 ADD SWAP2 POP PUSH1 0x20 DUP6 ADD SWAP5 POP PUSH1 0x20 DUP2 ADD SWAP1 POP PUSH2 0xF77 JUMP JUMPDEST DUP7 DUP4 LT ISZERO PUSH2 0xFB9 JUMPI DUP5 DUP10 ADD MLOAD PUSH2 0xFB5 PUSH1 0x1F DUP10 AND DUP3 PUSH2 0xEC8 JUMP JUMPDEST DUP4 SSTORE POP JUMPDEST PUSH1 0x1 PUSH1 0x2 DUP9 MUL ADD DUP9 SSTORE POP POP POP JUMPDEST POP POP POP POP POP POP JUMP JUMPDEST PUSH0 DUP3 DUP3 MSTORE PUSH1 0x20 DUP3 ADD SWAP1 POP SWAP3 SWAP2 POP POP JUMP JUMPDEST PUSH32 0x41636573736F20726573747269746F20616F2070726F70726965746172696F00 PUSH0 DUP3 ADD MSTORE POP JUMP JUMPDEST PUSH0 PUSH2 0x1012 PUSH1 0x1F DUP4 PUSH2 0xFCE JUMP JUMPDEST SWAP2 POP PUSH2 0x101D DUP3 PUSH2 0xFDE JUMP JUMPDEST PUSH1 0x20 DUP3 ADD SWAP1 POP SWAP2 SWAP1 POP JUMP JUMPDEST PUSH0 PUSH1 0x20 DUP3 ADD SWAP1 POP DUP2 DUP2 SUB PUSH0 DUP4 ADD MSTORE PUSH2 0x103F DUP2 PUSH2 0x1006 JUMP JUMPDEST SWAP1 POP SWAP2 SWAP1 POP JUMP JUMPDEST PUSH32 0x5175616E746964616465206D6178696D61206465206573636F6C617320617469 PUSH0 DUP3 ADD MSTORE PUSH32 0x6E67696461000000000000000000000000000000000000000000000000000000 PUSH1 0x20 DUP3 ADD MSTORE POP JUMP JUMPDEST PUSH0 PUSH2 0x10A0 PUSH1 0x25 DUP4 PUSH2 0xFCE JUMP JUMPDEST SWAP2 POP PUSH2 0x10AB DUP3 PUSH2 0x1046 JUMP JUMPDEST PUSH1 0x40 DUP3 ADD SWAP1 POP SWAP2 SWAP1 POP JUMP JUMPDEST PUSH0 PUSH1 0x20 DUP3 ADD SWAP1 POP DUP2 DUP2 SUB PUSH0 DUP4 ADD MSTORE PUSH2 0x10CD DUP2 PUSH2 0x1094 JUMP JUMPDEST SWAP1 POP SWAP2 SWAP1 POP JUMP JUMPDEST PUSH32 0x4E487B7100000000000000000000000000000000000000000000000000000000 PUSH0 MSTORE PUSH1 0x32 PUSH1 0x4 MSTORE PUSH1 0x24 PUSH0 REVERT JUMPDEST PUSH32 0x4E487B7100000000000000000000000000000000000000000000000000000000 PUSH0 MSTORE PUSH1 0x11 PUSH1 0x4 MSTORE PUSH1 0x24 PUSH0 REVERT JUMPDEST PUSH0 PUSH2 0x1138 DUP3 PUSH2 0xDD4 JUMP JUMPDEST SWAP2 POP PUSH32 0xFFFFFFFFFFFFFFFFFFFFFFFFFFFFFFFFFFFFFFFFFFFFFFFFFFFFFFFFFFFFFFFF DUP3 SUB PUSH2 0x116A JUMPI PUSH2 0x1169 PUSH2 0x1101 JUMP JUMPDEST JUMPDEST PUSH1 0x1 DUP3 ADD SWAP1 POP SWAP2 SWAP1 POP JUMP JUMPDEST PUSH0 DUP2 MLOAD SWAP1 POP SWAP2 SWAP1 POP JUMP JUMPDEST PUSH0 DUP3 DUP3 MSTORE PUSH1 0x20 DUP3 ADD SWAP1 POP SWAP3 SWAP2 POP POP JUMP JUMPDEST PUSH0 DUP2 SWAP1 POP PUSH1 0x20 DUP3 ADD SWAP1 POP SWAP2 SWAP1 POP JUMP JUMPDEST PUSH0 DUP3 DUP3 MSTORE PUSH1 0x20 DUP3 ADD SWAP1 POP SWAP3 SWAP2 POP POP JUMP JUMPDEST DUP3 DUP2 DUP4 MCOPY PUSH0 DUP4 DUP4 ADD MSTORE POP POP POP JUMP JUMPDEST PUSH0 PUSH1 0x1F NOT PUSH1 0x1F DUP4 ADD AND SWAP1 POP SWAP2 SWAP1 POP JUMP JUMPDEST PUSH0 PUSH2 0x11D6 DUP3 PUSH2 0xCC2 JUMP JUMPDEST PUSH2 0x11E0 DUP2 DUP6 PUSH2 0x119E JUMP JUMPDEST SWAP4 POP PUSH2 0x11F0 DUP2 DUP6 PUSH1 0x20 DUP7 ADD PUSH2 0x11AE JUMP JUMPDEST PUSH2 0x11F9 DUP2 PUSH2 0x11BC JUMP JUMPDEST DUP5 ADD SWAP2 POP POP SWAP3 SWAP2 POP POP JUMP JUMPDEST PUSH0 PUSH2 0x120F DUP4 DUP4 PUSH2 0x11CC JUMP JUMPDEST SWAP1 POP SWAP3 SWAP2 POP POP JUMP JUMPDEST PUSH0 PUSH1 0x20 DUP3 ADD SWAP1 POP SWAP2 SWAP1 POP JUMP JUMPDEST PUSH0 PUSH2 0x122D DUP3 PUSH2 0x1175 JUMP JUMPDEST PUSH2 0x1237 DUP2 DUP6 PUSH2 0x117F JUMP JUMPDEST SWAP4 POP DUP4 PUSH1 0x20 DUP3 MUL DUP6 ADD PUSH2 0x1249 DUP6 PUSH2 0x118F JUMP JUMPDEST DUP1 PUSH0 JUMPDEST DUP6 DUP2 LT ISZERO PUSH2 0x1284 JUMPI DUP5 DUP5 SUB DUP10 MSTORE DUP2 MLOAD PUSH2 0x1265 DUP6 DUP3 PUSH2 0x1204 JUMP JUMPDEST SWAP5 POP PUSH2 0x1270 DUP4 PUSH2 0x1217 JUMP JUMPDEST SWAP3 POP PUSH1 0x20 DUP11 ADD SWAP10 POP POP PUSH1 0x1 DUP2 ADD SWAP1 POP PUSH2 0x124C JUMP JUMPDEST POP DUP3 SWAP8 POP DUP8 SWAP6 POP POP POP POP POP POP SWAP3 SWAP2 POP POP JUMP JUMPDEST PUSH0 PUSH1 0x20 DUP3 ADD SWAP1 POP DUP2 DUP2 SUB PUSH0 DUP4 ADD MSTORE PUSH2 0x12AE DUP2 DUP5 PUSH2 0x1223 JUMP JUMPDEST SWAP1 POP SWAP3 SWAP2 POP POP JUMP JUMPDEST PUSH32 0x5175616E746964616465206D6178696D61206465207175657369746F73206174 PUSH0 DUP3 ADD MSTORE PUSH32 0x696E676964610000000000000000000000000000000000000000000000000000 PUSH1 0x20 DUP3 ADD MSTORE POP JUMP JUMPDEST PUSH0 PUSH2 0x1310 PUSH1 0x26 DUP4 PUSH2 0xFCE JUMP JUMPDEST SWAP2 POP PUSH2 0x131B DUP3 PUSH2 0x12B6 JUMP JUMPDEST PUSH1 0x40 DUP3 ADD SWAP1 POP SWAP2 SWAP1 POP JUMP JUMPDEST PUSH0 PUSH1 0x20 DUP3 ADD SWAP1 POP DUP2 DUP2 SUB PUSH0 DUP4 ADD MSTORE PUSH2 0x133D DUP2 PUSH2 0x1304 JUMP JUMPDEST SWAP1 POP SWAP2 SWAP1 POP JUMP JUMPDEST PUSH2 0x278F DUP1 PUSH2 0x1351 PUSH0 CODECOPY PUSH0 RETURN INVALID PUSH1 0x80 PUSH1 0x40 MSTORE CALLVALUE DUP1 ISZERO PUSH2 0xF JUMPI PUSH0 PUSH0 REVERT JUMPDEST POP PUSH1 0x4 CALLDATASIZE LT PUSH2 0x114 JUMPI PUSH0 CALLDATALOAD PUSH1 0xE0 SHR DUP1 PUSH4 0x8DA5CB5B GT PUSH2 0xA0 JUMPI DUP1 PUSH4 0xDACB31CB GT PUSH2 0x6F JUMPI DUP1 PUSH4 0xDACB31CB EQ PUSH2 0x31D JUMPI DUP1 PUSH4 0xDD62ED3E EQ PUSH2 0x33B JUMPI DUP1 PUSH4 0xDD7A7996 EQ PUSH2 0x36B JUMPI DUP1 PUSH4 0xE49A39DC EQ PUSH2 0x389 JUMPI DUP1 PUSH4 0xEC048210 EQ PUSH2 0x393 JUMPI PUSH2 0x114 JUMP JUMPDEST DUP1 PUSH4 0x8DA5CB5B EQ PUSH2 0x27E JUMPI DUP1 PUSH4 0x95D89B41 EQ PUSH2 0x29C JUMPI DUP1 PUSH4 0xA9059CBB EQ PUSH2 0x2BA JUMPI DUP1 PUSH4 0xA916B987 EQ PUSH2 0x2EA JUMPI PUSH2 0x114 JUMP JUMPDEST DUP1 PUSH4 0x23B872DD GT PUSH2 0xE7 JUMPI DUP1 PUSH4 0x23B872DD EQ PUSH2 0x1A0 JUMPI DUP1 PUSH4 0x313CE567 EQ PUSH2 0x1D0 JUMPI DUP1 PUSH4 0x4D4B6681 EQ PUSH2 0x1EE JUMPI DUP1 PUSH4 0x66885744 EQ PUSH2 0x21E JUMPI DUP1 PUSH4 0x70A08231 EQ PUSH2 0x24E JUMPI PUSH2 0x114 JUMP JUMPDEST DUP1 PUSH4 0x5AE501E EQ PUSH2 0x118 JUMPI DUP1 PUSH4 0x6FDDE03 EQ PUSH2 0x134 JUMPI DUP1 PUSH4 0x95EA7B3 EQ PUSH2 0x152 JUMPI DUP1 PUSH4 0x18160DDD EQ PUSH2 0x182 JUMPI JUMPDEST PUSH0 PUSH0 REVERT JUMPDEST PUSH2 0x132 PUSH1 0x4 DUP1 CALLDATASIZE SUB DUP2 ADD SWAP1 PUSH2 0x12D SWAP2 SWAP1 PUSH2 0x192D JUMP JUMPDEST PUSH2 0x3B1 JUMP JUMPDEST STOP JUMPDEST PUSH2 0x13C PUSH2 0x623 JUMP JUMPDEST PUSH1 0x40 MLOAD PUSH2 0x149 SWAP2 SWAP1 PUSH2 0x19ED JUMP JUMPDEST PUSH1 0x40 MLOAD DUP1 SWAP2 SUB SWAP1 RETURN JUMPDEST PUSH2 0x16C PUSH1 0x4 DUP1 CALLDATASIZE SUB DUP2 ADD SWAP1 PUSH2 0x167 SWAP2 SWAP1 PUSH2 0x1A67 JUMP JUMPDEST PUSH2 0x6B3 JUMP JUMPDEST PUSH1 0x40 MLOAD PUSH2 0x179 SWAP2 SWAP1 PUSH2 0x1ABF JUMP JUMPDEST PUSH1 0x40 MLOAD DUP1 SWAP2 SUB SWAP1 RETURN JUMPDEST PUSH2 0x18A PUSH2 0x6D5 JUMP JUMPDEST PUSH1 0x40 MLOAD PUSH2 0x197 SWAP2 SWAP1 PUSH2 0x1AE7 JUMP JUMPDEST PUSH1 0x40 MLOAD DUP1 SWAP2 SUB SWAP1 RETURN JUMPDEST PUSH2 0x1BA PUSH1 0x4 DUP1 CALLDATASIZE SUB DUP2 ADD SWAP1 PUSH2 0x1B5 SWAP2 SWAP1 PUSH2 0x1B00 JUMP JUMPDEST PUSH2 0x6DE JUMP JUMPDEST PUSH1 0x40 MLOAD PUSH2 0x1C7 SWAP2 SWAP1 PUSH2 0x1ABF JUMP JUMPDEST PUSH1 0x40 MLOAD DUP1 SWAP2 SUB SWAP1 RETURN JUMPDEST PUSH2 0x1D8 PUSH2 0x70C JUMP JUMPDEST PUSH1 0x40 MLOAD PUSH2 0x1E5 SWAP2 SWAP1 PUSH2 0x1B6B JUMP JUMPDEST PUSH1 0x40 MLOAD DUP1 SWAP2 SUB SWAP1 RETURN JUMPDEST PUSH2 0x208 PUSH1 0x4 DUP1 CALLDATASIZE SUB DUP2 ADD SWAP1 PUSH2 0x203 SWAP2 SWAP1 PUSH2 0x1CB0 JUMP JUMPDEST PUSH2 0x714 JUMP JUMPDEST PUSH1 0x40 MLOAD PUSH2 0x215 SWAP2 SWAP1 PUSH2 0x1AE7 JUMP JUMPDEST PUSH1 0x40 MLOAD DUP1 SWAP2 SUB SWAP1 RETURN JUMPDEST PUSH2 0x238 PUSH1 0x4 DUP1 CALLDATASIZE SUB DUP2 ADD SWAP1 PUSH2 0x233 SWAP2 SWAP1 PUSH2 0x1D0A JUMP JUMPDEST PUSH2 0x9E8 JUMP JUMPDEST PUSH1 0x40 MLOAD PUSH2 0x245 SWAP2 SWAP1 PUSH2 0x1AE7 JUMP JUMPDEST PUSH1 0x40 MLOAD DUP1 SWAP2 SUB SWAP1 RETURN JUMPDEST PUSH2 0x268 PUSH1 0x4 DUP1 CALLDATASIZE SUB DUP2 ADD SWAP1 PUSH2 0x263 SWAP2 SWAP1 PUSH2 0x1D48 JUMP JUMPDEST PUSH2 0xA7A JUMP JUMPDEST PUSH1 0x40 MLOAD PUSH2 0x275 SWAP2 SWAP1 PUSH2 0x1AE7 JUMP JUMPDEST PUSH1 0x40 MLOAD DUP1 SWAP2 SUB SWAP1 RETURN JUMPDEST PUSH2 0x286 PUSH2 0xABF JUMP JUMPDEST PUSH1 0x40 MLOAD PUSH2 0x293 SWAP2 SWAP1 PUSH2 0x1D82 JUMP JUMPDEST PUSH1 0x40 MLOAD DUP1 SWAP2 SUB SWAP1 RETURN JUMPDEST PUSH2 0x2A4 PUSH2 0xAE4 JUMP JUMPDEST PUSH1 0x40 MLOAD PUSH2 0x2B1 SWAP2 SWAP1 PUSH2 0x19ED JUMP JUMPDEST PUSH1 0x40 MLOAD DUP1 SWAP2 SUB SWAP1 RETURN JUMPDEST PUSH2 0x2D4 PUSH1 0x4 DUP1 CALLDATASIZE SUB DUP2 ADD SWAP1 PUSH2 0x2CF SWAP2 SWAP1 PUSH2 0x1A67 JUMP JUMPDEST PUSH2 0xB74 JUMP JUMPDEST PUSH1 0x40 MLOAD PUSH2 0x2E1 SWAP2 SWAP1 PUSH2 0x1ABF JUMP JUMPDEST PUSH1 0x40 MLOAD DUP1 SWAP2 SUB SWAP1 RETURN JUMPDEST PUSH2 0x304 PUSH1 0x4 DUP1 CALLDATASIZE SUB DUP2 ADD SWAP1 PUSH2 0x2FF SWAP2 SWAP1 PUSH2 0x1D0A JUMP JUMPDEST PUSH2 0xB96 JUMP JUMPDEST PUSH1 0x40 MLOAD PUSH2 0x314 SWAP5 SWAP4 SWAP3 SWAP2 SWAP1 PUSH2 0x1D9B JUMP JUMPDEST PUSH1 0x40 MLOAD DUP1 SWAP2 SUB SWAP1 RETURN JUMPDEST PUSH2 0x325 PUSH2 0xBEC JUMP JUMPDEST PUSH1 0x40 MLOAD PUSH2 0x332 SWAP2 SWAP1 PUSH2 0x1F4C JUMP JUMPDEST PUSH1 0x40 MLOAD DUP1 SWAP2 SUB SWAP1 RETURN JUMPDEST PUSH2 0x355 PUSH1 0x4 DUP1 CALLDATASIZE SUB DUP2 ADD SWAP1 PUSH2 0x350 SWAP2 SWAP1 PUSH2 0x1F6C JUMP JUMPDEST PUSH2 0xD7D JUMP JUMPDEST PUSH1 0x40 MLOAD PUSH2 0x362 SWAP2 SWAP1 PUSH2 0x1AE7 JUMP JUMPDEST PUSH1 0x40 MLOAD DUP1 SWAP2 SUB SWAP1 RETURN JUMPDEST PUSH2 0x373 PUSH2 0xDFF JUMP JUMPDEST PUSH1 0x40 MLOAD PUSH2 0x380 SWAP2 SWAP1 PUSH2 0x2065 JUMP JUMPDEST PUSH1 0x40 MLOAD DUP1 SWAP2 SUB SWAP1 RETURN JUMPDEST PUSH2 0x391 PUSH2 0xF1A JUMP JUMPDEST STOP JUMPDEST PUSH2 0x39B PUSH2 0x1074 JUMP JUMPDEST PUSH1 0x40 MLOAD PUSH2 0x3A8 SWAP2 SWAP1 PUSH2 0x2065 JUMP JUMPDEST PUSH1 0x40 MLOAD DUP1 SWAP2 SUB SWAP1 RETURN JUMPDEST CALLER PUSH20 0xFFFFFFFFFFFFFFFFFFFFFFFFFFFFFFFFFFFFFFFF AND PUSH1 0x9 PUSH0 CALLER PUSH20 0xFFFFFFFFFFFFFFFFFFFFFFFFFFFFFFFFFFFFFFFF AND PUSH20 0xFFFFFFFFFFFFFFFFFFFFFFFFFFFFFFFFFFFFFFFF AND DUP2 MSTORE PUSH1 0x20 ADD SWAP1 DUP2 MSTORE PUSH1 0x20 ADD PUSH0 KECCAK256 PUSH0 ADD PUSH0 SWAP1 SLOAD SWAP1 PUSH2 0x100 EXP SWAP1 DIV PUSH20 0xFFFFFFFFFFFFFFFFFFFFFFFFFFFFFFFFFFFFFFFF AND PUSH20 0xFFFFFFFFFFFFFFFFFFFFFFFFFFFFFFFFFFFFFFFF AND EQ PUSH2 0x47D JUMPI PUSH1 0x40 MLOAD PUSH32 0x8C379A000000000000000000000000000000000000000000000000000000000 DUP2 MSTORE PUSH1 0x4 ADD PUSH2 0x474 SWAP1 PUSH2 0x20CF JUMP JUMPDEST PUSH1 0x40 MLOAD DUP1 SWAP2 SUB SWAP1 REVERT JUMPDEST PUSH2 0x384 DUP2 LT ISZERO DUP1 ISZERO PUSH2 0x491 JUMPI POP PUSH2 0x3E8 DUP2 GT ISZERO JUMPDEST PUSH2 0x4D0 JUMPI PUSH1 0x40 MLOAD PUSH32 0x8C379A000000000000000000000000000000000000000000000000000000000 DUP2 MSTORE PUSH1 0x4 ADD PUSH2 0x4C7 SWAP1 PUSH2 0x2137 JUMP JUMPDEST PUSH1 0x40 MLOAD DUP1 SWAP2 SUB SWAP1 REVERT JUMPDEST PUSH0 PUSH1 0x40 MLOAD DUP1 PUSH1 0x80 ADD PUSH1 0x40 MSTORE DUP1 DUP6 DUP2 MSTORE PUSH1 0x20 ADD DUP5 DUP2 MSTORE PUSH1 0x20 ADD CALLER PUSH20 0xFFFFFFFFFFFFFFFFFFFFFFFFFFFFFFFFFFFFFFFF AND DUP2 MSTORE PUSH1 0x20 ADD DUP4 DUP2 MSTORE POP SWAP1 POP PUSH1 0x8 DUP2 SWAP1 DUP1 PUSH1 0x1 DUP2 SLOAD ADD DUP1 DUP3 SSTORE DUP1 SWAP2 POP POP PUSH1 0x1 SWAP1 SUB SWAP1 PUSH0 MSTORE PUSH1 0x20 PUSH0 KECCAK256 SWAP1 PUSH1 0x4 MUL ADD PUSH0 SWAP1 SWAP2 SWAP1 SWAP2 SWAP1 SWAP2 POP PUSH0 DUP3 ADD MLOAD DUP2 PUSH0 ADD SSTORE PUSH1 0x20 DUP3 ADD MLOAD DUP2 PUSH1 0x1 ADD SSTORE PUSH1 0x40 DUP3 ADD MLOAD DUP2 PUSH1 0x2 ADD PUSH0 PUSH2 0x100 EXP DUP2 SLOAD DUP2 PUSH20 0xFFFFFFFFFFFFFFFFFFFFFFFFFFFFFFFFFFFFFFFF MUL NOT AND SWAP1 DUP4 PUSH20 0xFFFFFFFFFFFFFFFFFFFFFFFFFFFFFFFFFFFFFFFF AND MUL OR SWAP1 SSTORE POP PUSH1 0x60 DUP3 ADD MLOAD DUP2 PUSH1 0x3 ADD SSTORE POP POP DUP1 PUSH1 0xA PUSH0 DUP7 DUP2 MSTORE PUSH1 0x20 ADD SWAP1 DUP2 MSTORE PUSH1 0x20 ADD PUSH0 KECCAK256 PUSH0 DUP6 DUP2 MSTORE PUSH1 0x20 ADD SWAP1 DUP2 MSTORE PUSH1 0x20 ADD PUSH0 KECCAK256 PUSH0 DUP3 ADD MLOAD DUP2 PUSH0 ADD SSTORE PUSH1 0x20 DUP3 ADD MLOAD DUP2 PUSH1 0x1 ADD SSTORE PUSH1 0x40 DUP3 ADD MLOAD DUP2 PUSH1 0x2 ADD PUSH0 PUSH2 0x100 EXP DUP2 SLOAD DUP2 PUSH20 0xFFFFFFFFFFFFFFFFFFFFFFFFFFFFFFFFFFFFFFFF MUL NOT AND SWAP1 DUP4 PUSH20 0xFFFFFFFFFFFFFFFFFFFFFFFFFFFFFFFFFFFFFFFF AND MUL OR SWAP1 SSTORE POP PUSH1 0x60 DUP3 ADD MLOAD DUP2 PUSH1 0x3 ADD SSTORE SWAP1 POP POP POP POP POP POP JUMP JUMPDEST PUSH1 0x60 PUSH1 0x3 DUP1 SLOAD PUSH2 0x632 SWAP1 PUSH2 0x2182 JUMP JUMPDEST DUP1 PUSH1 0x1F ADD PUSH1 0x20 DUP1 SWAP2 DIV MUL PUSH1 0x20 ADD PUSH1 0x40 MLOAD SWAP1 DUP2 ADD PUSH1 0x40 MSTORE DUP1 SWAP3 SWAP2 SWAP1 DUP2 DUP2 MSTORE PUSH1 0x20 ADD DUP3 DUP1 SLOAD PUSH2 0x65E SWAP1 PUSH2 0x2182 JUMP JUMPDEST DUP1 ISZERO PUSH2 0x6A9 JUMPI DUP1 PUSH1 0x1F LT PUSH2 0x680 JUMPI PUSH2 0x100 DUP1 DUP4 SLOAD DIV MUL DUP4 MSTORE SWAP2 PUSH1 0x20 ADD SWAP2 PUSH2 0x6A9 JUMP JUMPDEST DUP3 ADD SWAP2 SWAP1 PUSH0 MSTORE PUSH1 0x20 PUSH0 KECCAK256 SWAP1 JUMPDEST DUP2 SLOAD DUP2 MSTORE SWAP1 PUSH1 0x1 ADD SWAP1 PUSH1 0x20 ADD DUP1 DUP4 GT PUSH2 0x68C JUMPI DUP3 SWAP1 SUB PUSH1 0x1F AND DUP3 ADD SWAP2 JUMPDEST POP POP POP POP POP SWAP1 POP SWAP1 JUMP JUMPDEST PUSH0 PUSH0 PUSH2 0x6BD PUSH2 0x118F JUMP JUMPDEST SWAP1 POP PUSH2 0x6CA DUP2 DUP6 DUP6 PUSH2 0x1196 JUMP JUMPDEST PUSH1 0x1 SWAP2 POP POP SWAP3 SWAP2 POP POP JUMP JUMPDEST PUSH0 PUSH1 0x2 SLOAD SWAP1 POP SWAP1 JUMP JUMPDEST PUSH0 PUSH0 PUSH2 0x6E8 PUSH2 0x118F JUMP JUMPDEST SWAP1 POP PUSH2 0x6F5 DUP6 DUP3 DUP6 PUSH2 0x11A8 JUMP JUMPDEST PUSH2 0x700 DUP6 DUP6 DUP6 PUSH2 0x123A JUMP JUMPDEST PUSH1 0x1 SWAP2 POP POP SWAP4 SWAP3 POP POP POP JUMP JUMPDEST PUSH0 PUSH1 0x12 SWAP1 POP SWAP1 JUMP JUMPDEST PUSH0 PUSH1 0xB PUSH0 SWAP1 SLOAD SWAP1 PUSH2 0x100 EXP SWAP1 DIV PUSH20 0xFFFFFFFFFFFFFFFFFFFFFFFFFFFFFFFFFFFFFFFF AND PUSH20 0xFFFFFFFFFFFFFFFFFFFFFFFFFFFFFFFFFFFFFFFF AND CALLER PUSH20 0xFFFFFFFFFFFFFFFFFFFFFFFFFFFFFFFFFFFFFFFF AND EQ PUSH2 0x7A4 JUMPI PUSH1 0x40 MLOAD PUSH32 0x8C379A000000000000000000000000000000000000000000000000000000000 DUP2 MSTORE PUSH1 0x4 ADD PUSH2 0x79B SWAP1 PUSH2 0x21FC JUMP JUMPDEST PUSH1 0x40 MLOAD DUP1 SWAP2 SUB SWAP1 REVERT JUMPDEST PUSH1 0x24 PUSH1 0x5 DUP1 SLOAD SWAP1 POP LT PUSH2 0x7EC JUMPI PUSH1 0x40 MLOAD PUSH32 0x8C379A000000000000000000000000000000000000000000000000000000000 DUP2 MSTORE PUSH1 0x4 ADD PUSH2 0x7E3 SWAP1 PUSH2 0x2264 JUMP JUMPDEST PUSH1 0x40 MLOAD DUP1 SWAP2 SUB SWAP1 REVERT JUMPDEST PUSH1 0x40 MLOAD DUP1 PUSH1 0x60 ADD PUSH1 0x40 MSTORE DUP1 CALLER PUSH20 0xFFFFFFFFFFFFFFFFFFFFFFFFFFFFFFFFFFFFFFFF AND DUP2 MSTORE PUSH1 0x20 ADD DUP5 DUP2 MSTORE PUSH1 0x20 ADD DUP4 DUP2 MSTORE POP PUSH1 0x9 PUSH0 CALLER PUSH20 0xFFFFFFFFFFFFFFFFFFFFFFFFFFFFFFFFFFFFFFFF AND PUSH20 0xFFFFFFFFFFFFFFFFFFFFFFFFFFFFFFFFFFFFFFFF AND DUP2 MSTORE PUSH1 0x20 ADD SWAP1 DUP2 MSTORE PUSH1 0x20 ADD PUSH0 KECCAK256 PUSH0 DUP3 ADD MLOAD DUP2 PUSH0 ADD PUSH0 PUSH2 0x100 EXP DUP2 SLOAD DUP2 PUSH20 0xFFFFFFFFFFFFFFFFFFFFFFFFFFFFFFFFFFFFFFFF MUL NOT AND SWAP1 DUP4 PUSH20 0xFFFFFFFFFFFFFFFFFFFFFFFFFFFFFFFFFFFFFFFF AND MUL OR SWAP1 SSTORE POP PUSH1 0x20 DUP3 ADD MLOAD DUP2 PUSH1 0x1 ADD SWAP1 DUP2 PUSH2 0x8B3 SWAP2 SWAP1 PUSH2 0x2422 JUMP JUMPDEST POP PUSH1 0x40 DUP3 ADD MLOAD DUP2 PUSH1 0x2 ADD SSTORE SWAP1 POP POP PUSH1 0x5 PUSH1 0x40 MLOAD DUP1 PUSH1 0x60 ADD PUSH1 0x40 MSTORE DUP1 CALLER PUSH20 0xFFFFFFFFFFFFFFFFFFFFFFFFFFFFFFFFFFFFFFFF AND DUP2 MSTORE PUSH1 0x20 ADD DUP6 DUP2 MSTORE PUSH1 0x20 ADD DUP5 DUP2 MSTORE POP SWAP1 DUP1 PUSH1 0x1 DUP2 SLOAD ADD DUP1 DUP3 SSTORE DUP1 SWAP2 POP POP PUSH1 0x1 SWAP1 SUB SWAP1 PUSH0 MSTORE PUSH1 0x20 PUSH0 KECCAK256 SWAP1 PUSH1 0x3 MUL ADD PUSH0 SWAP1 SWAP2 SWAP1 SWAP2 SWAP1 SWAP2 POP PUSH0 DUP3 ADD MLOAD DUP2 PUSH0 ADD PUSH0 PUSH2 0x100 EXP DUP2 SLOAD DUP2 PUSH20 0xFFFFFFFFFFFFFFFFFFFFFFFFFFFFFFFFFFFFFFFF MUL NOT AND SWAP1 DUP4 PUSH20 0xFFFFFFFFFFFFFFFFFFFFFFFFFFFFFFFFFFFFFFFF AND MUL OR SWAP1 SSTORE POP PUSH1 0x20 DUP3 ADD MLOAD DUP2 PUSH1 0x1 ADD SWAP1 DUP2 PUSH2 0x973 SWAP2 SWAP1 PUSH2 0x2422 JUMP JUMPDEST POP PUSH1 0x40 DUP3 ADD MLOAD DUP2 PUSH1 0x2 ADD SSTORE POP POP CALLER PUSH20 0xFFFFFFFFFFFFFFFFFFFFFFFFFFFFFFFFFFFFFFFF AND PUSH32 0xA1FB37ECDDD4C220FD008A54A22FB96CE4DB7248E0F4987E445259DC6E55188B DUP5 PUSH1 0x40 MLOAD PUSH2 0x9C6 SWAP2 SWAP1 PUSH2 0x19ED JUMP JUMPDEST PUSH1 0x40 MLOAD DUP1 SWAP2 SUB SWAP1 LOG2 PUSH1 0x1 PUSH1 0x5 DUP1 SLOAD SWAP1 POP PUSH2 0x9E0 SWAP2 SWAP1 PUSH2 0x251E JUMP JUMPDEST SWAP1 POP SWAP3 SWAP2 POP POP JUMP JUMPDEST PUSH0 PUSH0 PUSH1 0xA PUSH0 DUP6 DUP2 MSTORE PUSH1 0x20 ADD SWAP1 DUP2 MSTORE PUSH1 0x20 ADD PUSH0 KECCAK256 PUSH0 DUP5 DUP2 MSTORE PUSH1 0x20 ADD SWAP1 DUP2 MSTORE PUSH1 0x20 ADD PUSH0 KECCAK256 PUSH1 0x3 ADD SLOAD GT PUSH2 0xA4E JUMPI PUSH1 0x40 MLOAD PUSH32 0x8C379A000000000000000000000000000000000000000000000000000000000 DUP2 MSTORE PUSH1 0x4 ADD PUSH2 0xA45 SWAP1 PUSH2 0x259B JUMP JUMPDEST PUSH1 0x40 MLOAD DUP1 SWAP2 SUB SWAP1 REVERT JUMPDEST PUSH1 0xA PUSH0 DUP5 DUP2 MSTORE PUSH1 0x20 ADD SWAP1 DUP2 MSTORE PUSH1 0x20 ADD PUSH0 KECCAK256 PUSH0 DUP4 DUP2 MSTORE PUSH1 0x20 ADD SWAP1 DUP2 MSTORE PUSH1 0x20 ADD PUSH0 KECCAK256 PUSH1 0x3 ADD SLOAD SWAP1 POP SWAP3 SWAP2 POP POP JUMP JUMPDEST PUSH0 PUSH0 PUSH0 DUP4 PUSH20 0xFFFFFFFFFFFFFFFFFFFFFFFFFFFFFFFFFFFFFFFF AND PUSH20 0xFFFFFFFFFFFFFFFFFFFFFFFFFFFFFFFFFFFFFFFF AND DUP2 MSTORE PUSH1 0x20 ADD SWAP1 DUP2 MSTORE PUSH1 0x20 ADD PUSH0 KECCAK256 SLOAD SWAP1 POP SWAP2 SWAP1 POP JUMP JUMPDEST PUSH1 0xB PUSH0 SWAP1 SLOAD SWAP1 PUSH2 0x100 EXP SWAP1 DIV PUSH20 0xFFFFFFFFFFFFFFFFFFFFFFFFFFFFFFFFFFFFFFFF AND DUP2 JUMP JUMPDEST PUSH1 0x60 PUSH1 0x4 DUP1 SLOAD PUSH2 0xAF3 SWAP1 PUSH2 0x2182 JUMP JUMPDEST DUP1 PUSH1 0x1F ADD PUSH1 0x20 DUP1 SWAP2 DIV MUL PUSH1 0x20 ADD PUSH1 0x40 MLOAD SWAP1 DUP2 ADD PUSH1 0x40 MSTORE DUP1 SWAP3 SWAP2 SWAP1 DUP2 DUP2 MSTORE PUSH1 0x20 ADD DUP3 DUP1 SLOAD PUSH2 0xB1F SWAP1 PUSH2 0x2182 JUMP JUMPDEST DUP1 ISZERO PUSH2 0xB6A JUMPI DUP1 PUSH1 0x1F LT PUSH2 0xB41 JUMPI PUSH2 0x100 DUP1 DUP4 SLOAD DIV MUL DUP4 MSTORE SWAP2 PUSH1 0x20 ADD SWAP2 PUSH2 0xB6A JUMP JUMPDEST DUP3 ADD SWAP2 SWAP1 PUSH0 MSTORE PUSH1 0x20 PUSH0 KECCAK256 SWAP1 JUMPDEST DUP2 SLOAD DUP2 MSTORE SWAP1 PUSH1 0x1 ADD SWAP1 PUSH1 0x20 ADD DUP1 DUP4 GT PUSH2 0xB4D JUMPI DUP3 SWAP1 SUB PUSH1 0x1F AND DUP3 ADD SWAP2 JUMPDEST POP POP POP POP POP SWAP1 POP SWAP1 JUMP JUMPDEST PUSH0 PUSH0 PUSH2 0xB7E PUSH2 0x118F JUMP JUMPDEST SWAP1 POP PUSH2 0xB8B DUP2 DUP6 DUP6 PUSH2 0x123A JUMP JUMPDEST PUSH1 0x1 SWAP2 POP POP SWAP3 SWAP2 POP POP JUMP JUMPDEST PUSH1 0xA PUSH1 0x20 MSTORE DUP2 PUSH0 MSTORE PUSH1 0x40 PUSH0 KECCAK256 PUSH1 0x20 MSTORE DUP1 PUSH0 MSTORE PUSH1 0x40 PUSH0 KECCAK256 PUSH0 SWAP2 POP SWAP2 POP POP DUP1 PUSH0 ADD SLOAD SWAP1 DUP1 PUSH1 0x1 ADD SLOAD SWAP1 DUP1 PUSH1 0x2 ADD PUSH0 SWAP1 SLOAD SWAP1 PUSH2 0x100 EXP SWAP1 DIV PUSH20 0xFFFFFFFFFFFFFFFFFFFFFFFFFFFFFFFFFFFFFFFF AND SWAP1 DUP1 PUSH1 0x3 ADD SLOAD SWAP1 POP DUP5 JUMP JUMPDEST PUSH1 0x60 PUSH0 PUSH1 0x5 DUP1 SLOAD SWAP1 POP GT PUSH2 0xC35 JUMPI PUSH1 0x40 MLOAD PUSH32 0x8C379A000000000000000000000000000000000000000000000000000000000 DUP2 MSTORE PUSH1 0x4 ADD PUSH2 0xC2C SWAP1 PUSH2 0x2603 JUMP JUMPDEST PUSH1 0x40 MLOAD DUP1 SWAP2 SUB SWAP1 REVERT JUMPDEST PUSH1 0x5 DUP1 SLOAD DUP1 PUSH1 0x20 MUL PUSH1 0x20 ADD PUSH1 0x40 MLOAD SWAP1 DUP2 ADD PUSH1 0x40 MSTORE DUP1 SWAP3 SWAP2 SWAP1 DUP2 DUP2 MSTORE PUSH1 0x20 ADD PUSH0 SWAP1 JUMPDEST DUP3 DUP3 LT ISZERO PUSH2 0xD74 JUMPI DUP4 DUP3 SWAP1 PUSH0 MSTORE PUSH1 0x20 PUSH0 KECCAK256 SWAP1 PUSH1 0x3 MUL ADD PUSH1 0x40 MLOAD DUP1 PUSH1 0x60 ADD PUSH1 0x40 MSTORE SWAP1 DUP2 PUSH0 DUP3 ADD PUSH0 SWAP1 SLOAD SWAP1 PUSH2 0x100 EXP SWAP1 DIV PUSH20 0xFFFFFFFFFFFFFFFFFFFFFFFFFFFFFFFFFFFFFFFF AND PUSH20 0xFFFFFFFFFFFFFFFFFFFFFFFFFFFFFFFFFFFFFFFF AND PUSH20 0xFFFFFFFFFFFFFFFFFFFFFFFFFFFFFFFFFFFFFFFF AND DUP2 MSTORE PUSH1 0x20 ADD PUSH1 0x1 DUP3 ADD DUP1 SLOAD PUSH2 0xCDB SWAP1 PUSH2 0x2182 JUMP JUMPDEST DUP1 PUSH1 0x1F ADD PUSH1 0x20 DUP1 SWAP2 DIV MUL PUSH1 0x20 ADD PUSH1 0x40 MLOAD SWAP1 DUP2 ADD PUSH1 0x40 MSTORE DUP1 SWAP3 SWAP2 SWAP1 DUP2 DUP2 MSTORE PUSH1 0x20 ADD DUP3 DUP1 SLOAD PUSH2 0xD07 SWAP1 PUSH2 0x2182 JUMP JUMPDEST DUP1 ISZERO PUSH2 0xD52 JUMPI DUP1 PUSH1 0x1F LT PUSH2 0xD29 JUMPI PUSH2 0x100 DUP1 DUP4 SLOAD DIV MUL DUP4 MSTORE SWAP2 PUSH1 0x20 ADD SWAP2 PUSH2 0xD52 JUMP JUMPDEST DUP3 ADD SWAP2 SWAP1 PUSH0 MSTORE PUSH1 0x20 PUSH0 KECCAK256 SWAP1 JUMPDEST DUP2 SLOAD DUP2 MSTORE SWAP1 PUSH1 0x1 ADD SWAP1 PUSH1 0x20 ADD DUP1 DUP4 GT PUSH2 0xD35 JUMPI DUP3 SWAP1 SUB PUSH1 0x1F AND DUP3 ADD SWAP2 JUMPDEST POP POP POP POP POP DUP2 MSTORE PUSH1 0x20 ADD PUSH1 0x2 DUP3 ADD SLOAD DUP2 MSTORE POP POP DUP2 MSTORE PUSH1 0x20 ADD SWAP1 PUSH1 0x1 ADD SWAP1 PUSH2 0xC56 JUMP JUMPDEST POP POP POP POP SWAP1 POP SWAP1 JUMP JUMPDEST PUSH0 PUSH1 0x1 PUSH0 DUP5 PUSH20 0xFFFFFFFFFFFFFFFFFFFFFFFFFFFFFFFFFFFFFFFF AND PUSH20 0xFFFFFFFFFFFFFFFFFFFFFFFFFFFFFFFFFFFFFFFF AND DUP2 MSTORE PUSH1 0x20 ADD SWAP1 DUP2 MSTORE PUSH1 0x20 ADD PUSH0 KECCAK256 PUSH0 DUP4 PUSH20 0xFFFFFFFFFFFFFFFFFFFFFFFFFFFFFFFFFFFFFFFF AND PUSH20 0xFFFFFFFFFFFFFFFFFFFFFFFFFFFFFFFFFFFFFFFF AND DUP2 MSTORE PUSH1 0x20 ADD SWAP1 DUP2 MSTORE PUSH1 0x20 ADD PUSH0 KECCAK256 SLOAD SWAP1 POP SWAP3 SWAP2 POP POP JUMP JUMPDEST PUSH1 0x60 PUSH0 PUSH1 0x6 DUP1 SLOAD SWAP1 POP GT PUSH2 0xE48 JUMPI PUSH1 0x40 MLOAD PUSH32 0x8C379A000000000000000000000000000000000000000000000000000000000 DUP2 MSTORE PUSH1 0x4 ADD PUSH2 0xE3F SWAP1 PUSH2 0x266B JUMP JUMPDEST PUSH1 0x40 MLOAD DUP1 SWAP2 SUB SWAP1 REVERT JUMPDEST PUSH1 0xC DUP1 SLOAD DUP1 PUSH1 0x20 MUL PUSH1 0x20 ADD PUSH1 0x40 MLOAD SWAP1 DUP2 ADD PUSH1 0x40 MSTORE DUP1 SWAP3 SWAP2 SWAP1 DUP2 DUP2 MSTORE PUSH1 0x20 ADD PUSH0 SWAP1 JUMPDEST DUP3 DUP3 LT ISZERO PUSH2 0xF11 JUMPI DUP4 DUP3 SWAP1 PUSH0 MSTORE PUSH1 0x20 PUSH0 KECCAK256 ADD DUP1 SLOAD PUSH2 0xE86 SWAP1 PUSH2 0x2182 JUMP JUMPDEST DUP1 PUSH1 0x1F ADD PUSH1 0x20 DUP1 SWAP2 DIV MUL PUSH1 0x20 ADD PUSH1 0x40 MLOAD SWAP1 DUP2 ADD PUSH1 0x40 MSTORE DUP1 SWAP3 SWAP2 SWAP1 DUP2 DUP2 MSTORE PUSH1 0x20 ADD DUP3 DUP1 SLOAD PUSH2 0xEB2 SWAP1 PUSH2 0x2182 JUMP JUMPDEST DUP1 ISZERO PUSH2 0xEFD JUMPI DUP1 PUSH1 0x1F LT PUSH2 0xED4 JUMPI PUSH2 0x100 DUP1 DUP4 SLOAD DIV MUL DUP4 MSTORE SWAP2 PUSH1 0x20 ADD SWAP2 PUSH2 0xEFD JUMP JUMPDEST DUP3 ADD SWAP2 SWAP1 PUSH0 MSTORE PUSH1 0x20 PUSH0 KECCAK256 SWAP1 JUMPDEST DUP2 SLOAD DUP2 MSTORE SWAP1 PUSH1 0x1 ADD SWAP1 PUSH1 0x20 ADD DUP1 DUP4 GT PUSH2 0xEE0 JUMPI DUP3 SWAP1 SUB PUSH1 0x1F AND DUP3 ADD SWAP2 JUMPDEST POP POP POP POP POP DUP2 MSTORE PUSH1 0x20 ADD SWAP1 PUSH1 0x1 ADD SWAP1 PUSH2 0xE69 JUMP JUMPDEST POP POP POP POP SWAP1 POP SWAP1 JUMP JUMPDEST PUSH1 0xB PUSH0 SWAP1 SLOAD SWAP1 PUSH2 0x100 EXP SWAP1 DIV PUSH20 0xFFFFFFFFFFFFFFFFFFFFFFFFFFFFFFFFFFFFFFFF AND PUSH20 0xFFFFFFFFFFFFFFFFFFFFFFFFFFFFFFFFFFFFFFFF AND CALLER PUSH20 0xFFFFFFFFFFFFFFFFFFFFFFFFFFFFFFFFFFFFFFFF AND EQ PUSH2 0xFA9 JUMPI PUSH1 0x40 MLOAD PUSH32 0x8C379A000000000000000000000000000000000000000000000000000000000 DUP2 MSTORE PUSH1 0x4 ADD PUSH2 0xFA0 SWAP1 PUSH2 0x21FC JUMP JUMPDEST PUSH1 0x40 MLOAD DUP1 SWAP2 SUB SWAP1 REVERT JUMPDEST PUSH1 0x5 PUSH0 PUSH2 0xFB6 SWAP2 SWAP1 PUSH2 0x1712 JUMP JUMPDEST PUSH1 0x6 PUSH0 PUSH2 0xFC3 SWAP2 SWAP1 PUSH2 0x1733 JUMP JUMPDEST PUSH1 0x7 PUSH0 PUSH2 0xFD0 SWAP2 SWAP1 PUSH2 0x1754 JUMP JUMPDEST PUSH1 0x8 PUSH0 PUSH2 0xFDD SWAP2 SWAP1 PUSH2 0x1775 JUMP JUMPDEST PUSH0 PUSH0 SWAP1 POP JUMPDEST PUSH1 0xC DUP2 LT ISZERO PUSH2 0x1071 JUMPI PUSH0 PUSH0 SWAP1 POP JUMPDEST PUSH1 0x9 DUP2 LT ISZERO PUSH2 0x1063 JUMPI PUSH1 0xA PUSH0 DUP4 DUP2 MSTORE PUSH1 0x20 ADD SWAP1 DUP2 MSTORE PUSH1 0x20 ADD PUSH0 KECCAK256 PUSH0 DUP3 DUP2 MSTORE PUSH1 0x20 ADD SWAP1 DUP2 MSTORE PUSH1 0x20 ADD PUSH0 KECCAK256 PUSH0 PUSH0 DUP3 ADD PUSH0 SWAP1 SSTORE PUSH1 0x1 DUP3 ADD PUSH0 SWAP1 SSTORE PUSH1 0x2 DUP3 ADD PUSH0 PUSH2 0x100 EXP DUP2 SLOAD SWAP1 PUSH20 0xFFFFFFFFFFFFFFFFFFFFFFFFFFFFFFFFFFFFFFFF MUL NOT AND SWAP1 SSTORE PUSH1 0x3 DUP3 ADD PUSH0 SWAP1 SSTORE POP POP DUP1 DUP1 PUSH1 0x1 ADD SWAP2 POP POP PUSH2 0xFF0 JUMP JUMPDEST POP DUP1 DUP1 PUSH1 0x1 ADD SWAP2 POP POP PUSH2 0xFE2 JUMP JUMPDEST POP JUMP JUMPDEST PUSH1 0x60 PUSH0 PUSH1 0x7 DUP1 SLOAD SWAP1 POP GT PUSH2 0x10BD JUMPI PUSH1 0x40 MLOAD PUSH32 0x8C379A000000000000000000000000000000000000000000000000000000000 DUP2 MSTORE PUSH1 0x4 ADD PUSH2 0x10B4 SWAP1 PUSH2 0x26D3 JUMP JUMPDEST PUSH1 0x40 MLOAD DUP1 SWAP2 SUB SWAP1 REVERT JUMPDEST PUSH1 0xD DUP1 SLOAD DUP1 PUSH1 0x20 MUL PUSH1 0x20 ADD PUSH1 0x40 MLOAD SWAP1 DUP2 ADD PUSH1 0x40 MSTORE DUP1 SWAP3 SWAP2 SWAP1 DUP2 DUP2 MSTORE PUSH1 0x20 ADD PUSH0 SWAP1 JUMPDEST DUP3 DUP3 LT ISZERO PUSH2 0x1186 JUMPI DUP4 DUP3 SWAP1 PUSH0 MSTORE PUSH1 0x20 PUSH0 KECCAK256 ADD DUP1 SLOAD PUSH2 0x10FB SWAP1 PUSH2 0x2182 JUMP JUMPDEST DUP1 PUSH1 0x1F ADD PUSH1 0x20 DUP1 SWAP2 DIV MUL PUSH1 0x20 ADD PUSH1 0x40 MLOAD SWAP1 DUP2 ADD PUSH1 0x40 MSTORE DUP1 SWAP3 SWAP2 SWAP1 DUP2 DUP2 MSTORE PUSH1 0x20 ADD DUP3 DUP1 SLOAD PUSH2 0x1127 SWAP1 PUSH2 0x2182 JUMP JUMPDEST DUP1 ISZERO PUSH2 0x1172 JUMPI DUP1 PUSH1 0x1F LT PUSH2 0x1149 JUMPI PUSH2 0x100 DUP1 DUP4 SLOAD DIV MUL DUP4 MSTORE SWAP2 PUSH1 0x20 ADD SWAP2 PUSH2 0x1172 JUMP JUMPDEST DUP3 ADD SWAP2 SWAP1 PUSH0 MSTORE PUSH1 0x20 PUSH0 KECCAK256 SWAP1 JUMPDEST DUP2 SLOAD DUP2 MSTORE SWAP1 PUSH1 0x1 ADD SWAP1 PUSH1 0x20 ADD DUP1 DUP4 GT PUSH2 0x1155 JUMPI DUP3 SWAP1 SUB PUSH1 0x1F AND DUP3 ADD SWAP2 JUMPDEST POP POP POP POP POP DUP2 MSTORE PUSH1 0x20 ADD SWAP1 PUSH1 0x1 ADD SWAP1 PUSH2 0x10DE JUMP JUMPDEST POP POP POP POP SWAP1 POP SWAP1 JUMP JUMPDEST PUSH0 CALLER SWAP1 POP SWAP1 JUMP JUMPDEST PUSH2 0x11A3 DUP4 DUP4 DUP4 PUSH1 0x1 PUSH2 0x132A JUMP JUMPDEST POP POP POP JUMP JUMPDEST PUSH0 PUSH2 0x11B3 DUP5 DUP5 PUSH2 0xD7D JUMP JUMPDEST SWAP1 POP PUSH32 0xFFFFFFFFFFFFFFFFFFFFFFFFFFFFFFFFFFFFFFFFFFFFFFFFFFFFFFFFFFFFFFFF DUP2 EQ PUSH2 0x1234 JUMPI DUP2 DUP2 LT ISZERO PUSH2 0x1225 JUMPI DUP3 DUP2 DUP4 PUSH1 0x40 MLOAD PUSH32 0xFB8F41B200000000000000000000000000000000000000000000000000000000 DUP2 MSTORE PUSH1 0x4 ADD PUSH2 0x121C SWAP4 SWAP3 SWAP2 SWAP1 PUSH2 0x26F1 JUMP JUMPDEST PUSH1 0x40 MLOAD DUP1 SWAP2 SUB SWAP1 REVERT JUMPDEST PUSH2 0x1233 DUP5 DUP5 DUP5 DUP5 SUB PUSH0 PUSH2 0x132A JUMP JUMPDEST JUMPDEST POP POP POP POP JUMP JUMPDEST PUSH0 PUSH20 0xFFFFFFFFFFFFFFFFFFFFFFFFFFFFFFFFFFFFFFFF AND DUP4 PUSH20 0xFFFFFFFFFFFFFFFFFFFFFFFFFFFFFFFFFFFFFFFF AND SUB PUSH2 0x12AA JUMPI PUSH0 PUSH1 0x40 MLOAD PUSH32 0x96C6FD1E00000000000000000000000000000000000000000000000000000000 DUP2 MSTORE PUSH1 0x4 ADD PUSH2 0x12A1 SWAP2 SWAP1 PUSH2 0x1D82 JUMP JUMPDEST PUSH1 0x40 MLOAD DUP1 SWAP2 SUB SWAP1 REVERT JUMPDEST PUSH0 PUSH20 0xFFFFFFFFFFFFFFFFFFFFFFFFFFFFFFFFFFFFFFFF AND DUP3 PUSH20 0xFFFFFFFFFFFFFFFFFFFFFFFFFFFFFFFFFFFFFFFF AND SUB PUSH2 0x131A JUMPI PUSH0 PUSH1 0x40 MLOAD PUSH32 0xEC442F0500000000000000000000000000000000000000000000000000000000 DUP2 MSTORE PUSH1 0x4 ADD PUSH2 0x1311 SWAP2 SWAP1 PUSH2 0x1D82 JUMP JUMPDEST PUSH1 0x40 MLOAD DUP1 SWAP2 SUB SWAP1 REVERT JUMPDEST PUSH2 0x1325 DUP4 DUP4 DUP4 PUSH2 0x14F9 JUMP JUMPDEST POP POP POP JUMP JUMPDEST PUSH0 PUSH20 0xFFFFFFFFFFFFFFFFFFFFFFFFFFFFFFFFFFFFFFFF AND DUP5 PUSH20 0xFFFFFFFFFFFFFFFFFFFFFFFFFFFFFFFFFFFFFFFF AND SUB PUSH2 0x139A JUMPI PUSH0 PUSH1 0x40 MLOAD PUSH32 0xE602DF0500000000000000000000000000000000000000000000000000000000 DUP2 MSTORE PUSH1 0x4 ADD PUSH2 0x1391 SWAP2 SWAP1 PUSH2 0x1D82 JUMP JUMPDEST PUSH1 0x40 MLOAD DUP1 SWAP2 SUB SWAP1 REVERT JUMPDEST PUSH0 PUSH20 0xFFFFFFFFFFFFFFFFFFFFFFFFFFFFFFFFFFFFFFFF AND DUP4 PUSH20 0xFFFFFFFFFFFFFFFFFFFFFFFFFFFFFFFFFFFFFFFF AND SUB PUSH2 0x140A JUMPI PUSH0 PUSH1 0x40 MLOAD PUSH32 0x94280D6200000000000000000000000000000000000000000000000000000000 DUP2 MSTORE PUSH1 0x4 ADD PUSH2 0x1401 SWAP2 SWAP1 PUSH2 0x1D82 JUMP JUMPDEST PUSH1 0x40 MLOAD DUP1 SWAP2 SUB SWAP1 REVERT JUMPDEST DUP2 PUSH1 0x1 PUSH0 DUP7 PUSH20 0xFFFFFFFFFFFFFFFFFFFFFFFFFFFFFFFFFFFFFFFF AND PUSH20 0xFFFFFFFFFFFFFFFFFFFFFFFFFFFFFFFFFFFFFFFF AND DUP2 MSTORE PUSH1 0x20 ADD SWAP1 DUP2 MSTORE PUSH1 0x20 ADD PUSH0 KECCAK256 PUSH0 DUP6 PUSH20 0xFFFFFFFFFFFFFFFFFFFFFFFFFFFFFFFFFFFFFFFF AND PUSH20 0xFFFFFFFFFFFFFFFFFFFFFFFFFFFFFFFFFFFFFFFF AND DUP2 MSTORE PUSH1 0x20 ADD SWAP1 DUP2 MSTORE PUSH1 0x20 ADD PUSH0 KECCAK256 DUP2 SWAP1 SSTORE POP DUP1 ISZERO PUSH2 0x14F3 JUMPI DUP3 PUSH20 0xFFFFFFFFFFFFFFFFFFFFFFFFFFFFFFFFFFFFFFFF AND DUP5 PUSH20 0xFFFFFFFFFFFFFFFFFFFFFFFFFFFFFFFFFFFFFFFF AND PUSH32 0x8C5BE1E5EBEC7D5BD14F71427D1E84F3DD0314C0F7B2291E5B200AC8C7C3B925 DUP5 PUSH1 0x40 MLOAD PUSH2 0x14EA SWAP2 SWAP1 PUSH2 0x1AE7 JUMP JUMPDEST PUSH1 0x40 MLOAD DUP1 SWAP2 SUB SWAP1 LOG3 JUMPDEST POP POP POP POP JUMP JUMPDEST PUSH0 PUSH20 0xFFFFFFFFFFFFFFFFFFFFFFFFFFFFFFFFFFFFFFFF AND DUP4 PUSH20 0xFFFFFFFFFFFFFFFFFFFFFFFFFFFFFFFFFFFFFFFF AND SUB PUSH2 0x1549 JUMPI DUP1 PUSH1 0x2 PUSH0 DUP3 DUP3 SLOAD PUSH2 0x153D SWAP2 SWAP1 PUSH2 0x2726 JUMP JUMPDEST SWAP3 POP POP DUP2 SWAP1 SSTORE POP PUSH2 0x1617 JUMP JUMPDEST PUSH0 PUSH0 PUSH0 DUP6 PUSH20 0xFFFFFFFFFFFFFFFFFFFFFFFFFFFFFFFFFFFFFFFF AND PUSH20 0xFFFFFFFFFFFFFFFFFFFFFFFFFFFFFFFFFFFFFFFF AND DUP2 MSTORE PUSH1 0x20 ADD SWAP1 DUP2 MSTORE PUSH1 0x20 ADD PUSH0 KECCAK256 SLOAD SWAP1 POP DUP2 DUP2 LT ISZERO PUSH2 0x15D2 JUMPI DUP4 DUP2 DUP4 PUSH1 0x40 MLOAD PUSH32 0xE450D38C00000000000000000000000000000000000000000000000000000000 DUP2 MSTORE PUSH1 0x4 ADD PUSH2 0x15C9 SWAP4 SWAP3 SWAP2 SWAP1 PUSH2 0x26F1 JUMP JUMPDEST PUSH1 0x40 MLOAD DUP1 SWAP2 SUB SWAP1 REVERT JUMPDEST DUP2 DUP2 SUB PUSH0 PUSH0 DUP7 PUSH20 0xFFFFFFFFFFFFFFFFFFFFFFFFFFFFFFFFFFFFFFFF AND PUSH20 0xFFFFFFFFFFFFFFFFFFFFFFFFFFFFFFFFFFFFFFFF AND DUP2 MSTORE PUSH1 0x20 ADD SWAP1 DUP2 MSTORE PUSH1 0x20 ADD PUSH0 KECCAK256 DUP2 SWAP1 SSTORE POP POP JUMPDEST PUSH0 PUSH20 0xFFFFFFFFFFFFFFFFFFFFFFFFFFFFFFFFFFFFFFFF AND DUP3 PUSH20 0xFFFFFFFFFFFFFFFFFFFFFFFFFFFFFFFFFFFFFFFF AND SUB PUSH2 0x165E JUMPI DUP1 PUSH1 0x2 PUSH0 DUP3 DUP3 SLOAD SUB SWAP3 POP POP DUP2 SWAP1 SSTORE POP PUSH2 0x16A8 JUMP JUMPDEST DUP1 PUSH0 PUSH0 DUP5 PUSH20 0xFFFFFFFFFFFFFFFFFFFFFFFFFFFFFFFFFFFFFFFF AND PUSH20 0xFFFFFFFFFFFFFFFFFFFFFFFFFFFFFFFFFFFFFFFF AND DUP2 MSTORE PUSH1 0x20 ADD SWAP1 DUP2 MSTORE PUSH1 0x20 ADD PUSH0 KECCAK256 PUSH0 DUP3 DUP3 SLOAD ADD SWAP3 POP POP DUP2 SWAP1 SSTORE POP JUMPDEST DUP2 PUSH20 0xFFFFFFFFFFFFFFFFFFFFFFFFFFFFFFFFFFFFFFFF AND DUP4 PUSH20 0xFFFFFFFFFFFFFFFFFFFFFFFFFFFFFFFFFFFFFFFF AND PUSH32 0xDDF252AD1BE2C89B69C2B068FC378DAA952BA7F163C4A11628F55A4DF523B3EF DUP4 PUSH1 0x40 MLOAD PUSH2 0x1705 SWAP2 SWAP1 PUSH2 0x1AE7 JUMP JUMPDEST PUSH1 0x40 MLOAD DUP1 SWAP2 SUB SWAP1 LOG3 POP POP POP JUMP JUMPDEST POP DUP1 SLOAD PUSH0 DUP3 SSTORE PUSH1 0x3 MUL SWAP1 PUSH0 MSTORE PUSH1 0x20 PUSH0 KECCAK256 SWAP1 DUP2 ADD SWAP1 PUSH2 0x1730 SWAP2 SWAP1 PUSH2 0x1796 JUMP JUMPDEST POP JUMP JUMPDEST POP DUP1 SLOAD PUSH0 DUP3 SSTORE PUSH1 0x2 MUL SWAP1 PUSH0 MSTORE PUSH1 0x20 PUSH0 KECCAK256 SWAP1 DUP2 ADD SWAP1 PUSH2 0x1751 SWAP2 SWAP1 PUSH2 0x17E8 JUMP JUMPDEST POP JUMP JUMPDEST POP DUP1 SLOAD PUSH0 DUP3 SSTORE PUSH1 0x2 MUL SWAP1 PUSH0 MSTORE PUSH1 0x20 PUSH0 KECCAK256 SWAP1 DUP2 ADD SWAP1 PUSH2 0x1772 SWAP2 SWAP1 PUSH2 0x1814 JUMP JUMPDEST POP JUMP JUMPDEST POP DUP1 SLOAD PUSH0 DUP3 SSTORE PUSH1 0x4 MUL SWAP1 PUSH0 MSTORE PUSH1 0x20 PUSH0 KECCAK256 SWAP1 DUP2 ADD SWAP1 PUSH2 0x1793 SWAP2 SWAP1 PUSH2 0x1840 JUMP JUMPDEST POP JUMP JUMPDEST JUMPDEST DUP1 DUP3 GT ISZERO PUSH2 0x17E4 JUMPI PUSH0 PUSH0 DUP3 ADD PUSH0 PUSH2 0x100 EXP DUP2 SLOAD SWAP1 PUSH20 0xFFFFFFFFFFFFFFFFFFFFFFFFFFFFFFFFFFFFFFFF MUL NOT AND SWAP1 SSTORE PUSH1 0x1 DUP3 ADD PUSH0 PUSH2 0x17D4 SWAP2 SWAP1 PUSH2 0x1891 JUMP JUMPDEST PUSH1 0x2 DUP3 ADD PUSH0 SWAP1 SSTORE POP PUSH1 0x3 ADD PUSH2 0x1797 JUMP JUMPDEST POP SWAP1 JUMP JUMPDEST JUMPDEST DUP1 DUP3 GT ISZERO PUSH2 0x1810 JUMPI PUSH0 PUSH0 DUP3 ADD PUSH0 SWAP1 SSTORE PUSH1 0x1 DUP3 ADD PUSH0 PUSH2 0x1807 SWAP2 SWAP1 PUSH2 0x1891 JUMP JUMPDEST POP PUSH1 0x2 ADD PUSH2 0x17E9 JUMP JUMPDEST POP SWAP1 JUMP JUMPDEST JUMPDEST DUP1 DUP3 GT ISZERO PUSH2 0x183C JUMPI PUSH0 PUSH0 DUP3 ADD PUSH0 SWAP1 SSTORE PUSH1 0x1 DUP3 ADD PUSH0 PUSH2 0x1833 SWAP2 SWAP1 PUSH2 0x1891 JUMP JUMPDEST POP PUSH1 0x2 ADD PUSH2 0x1815 JUMP JUMPDEST POP SWAP1 JUMP JUMPDEST JUMPDEST DUP1 DUP3 GT ISZERO PUSH2 0x188D JUMPI PUSH0 PUSH0 DUP3 ADD PUSH0 SWAP1 SSTORE PUSH1 0x1 DUP3 ADD PUSH0 SWAP1 SSTORE PUSH1 0x2 DUP3 ADD PUSH0 PUSH2 0x100 EXP DUP2 SLOAD SWAP1 PUSH20 0xFFFFFFFFFFFFFFFFFFFFFFFFFFFFFFFFFFFFFFFF MUL NOT AND SWAP1 SSTORE PUSH1 0x3 DUP3 ADD PUSH0 SWAP1 SSTORE POP PUSH1 0x4 ADD PUSH2 0x1841 JUMP JUMPDEST POP SWAP1 JUMP JUMPDEST POP DUP1 SLOAD PUSH2 0x189D SWAP1 PUSH2 0x2182 JUMP JUMPDEST PUSH0 DUP3 SSTORE DUP1 PUSH1 0x1F LT PUSH2 0x18AE JUMPI POP PUSH2 0x18CB JUMP JUMPDEST PUSH1 0x1F ADD PUSH1 0x20 SWAP1 DIV SWAP1 PUSH0 MSTORE PUSH1 0x20 PUSH0 KECCAK256 SWAP1 DUP2 ADD SWAP1 PUSH2 0x18CA SWAP2 SWAP1 PUSH2 0x18CE JUMP JUMPDEST JUMPDEST POP JUMP JUMPDEST JUMPDEST DUP1 DUP3 GT ISZERO PUSH2 0x18E5 JUMPI PUSH0 DUP2 PUSH0 SWAP1 SSTORE POP PUSH1 0x1 ADD PUSH2 0x18CF JUMP JUMPDEST POP SWAP1 JUMP JUMPDEST PUSH0 PUSH1 0x40 MLOAD SWAP1 POP SWAP1 JUMP JUMPDEST PUSH0 PUSH0 REVERT JUMPDEST PUSH0 PUSH0 REVERT JUMPDEST PUSH0 DUP2 SWAP1 POP SWAP2 SWAP1 POP JUMP JUMPDEST PUSH2 0x190C DUP2 PUSH2 0x18FA JUMP JUMPDEST DUP2 EQ PUSH2 0x1916 JUMPI PUSH0 PUSH0 REVERT JUMPDEST POP JUMP JUMPDEST PUSH0 DUP2 CALLDATALOAD SWAP1 POP PUSH2 0x1927 DUP2 PUSH2 0x1903 JUMP JUMPDEST SWAP3 SWAP2 POP POP JUMP JUMPDEST PUSH0 PUSH0 PUSH0 PUSH1 0x60 DUP5 DUP7 SUB SLT ISZERO PUSH2 0x1944 JUMPI PUSH2 0x1943 PUSH2 0x18F2 JUMP JUMPDEST JUMPDEST PUSH0 PUSH2 0x1951 DUP7 DUP3 DUP8 ADD PUSH2 0x1919 JUMP JUMPDEST SWAP4 POP POP PUSH1 0x20 PUSH2 0x1962 DUP7 DUP3 DUP8 ADD PUSH2 0x1919 JUMP JUMPDEST SWAP3 POP POP PUSH1 0x40 PUSH2 0x1973 DUP7 DUP3 DUP8 ADD PUSH2 0x1919 JUMP JUMPDEST SWAP2 POP POP SWAP3 POP SWAP3 POP SWAP3 JUMP JUMPDEST PUSH0 DUP2 MLOAD SWAP1 POP SWAP2 SWAP1 POP JUMP JUMPDEST PUSH0 DUP3 DUP3 MSTORE PUSH1 0x20 DUP3 ADD SWAP1 POP SWAP3 SWAP2 POP POP JUMP JUMPDEST DUP3 DUP2 DUP4 MCOPY PUSH0 DUP4 DUP4 ADD MSTORE POP POP POP JUMP JUMPDEST PUSH0 PUSH1 0x1F NOT PUSH1 0x1F DUP4 ADD AND SWAP1 POP SWAP2 SWAP1 POP JUMP JUMPDEST PUSH0 PUSH2 0x19BF DUP3 PUSH2 0x197D JUMP JUMPDEST PUSH2 0x19C9 DUP2 DUP6 PUSH2 0x1987 JUMP JUMPDEST SWAP4 POP PUSH2 0x19D9 DUP2 DUP6 PUSH1 0x20 DUP7 ADD PUSH2 0x1997 JUMP JUMPDEST PUSH2 0x19E2 DUP2 PUSH2 0x19A5 JUMP JUMPDEST DUP5 ADD SWAP2 POP POP SWAP3 SWAP2 POP POP JUMP JUMPDEST PUSH0 PUSH1 0x20 DUP3 ADD SWAP1 POP DUP2 DUP2 SUB PUSH0 DUP4 ADD MSTORE PUSH2 0x1A05 DUP2 DUP5 PUSH2 0x19B5 JUMP JUMPDEST SWAP1 POP SWAP3 SWAP2 POP POP JUMP JUMPDEST PUSH0 PUSH20 0xFFFFFFFFFFFFFFFFFFFFFFFFFFFFFFFFFFFFFFFF DUP3 AND SWAP1 POP SWAP2 SWAP1 POP JUMP JUMPDEST PUSH0 PUSH2 0x1A36 DUP3 PUSH2 0x1A0D JUMP JUMPDEST SWAP1 POP SWAP2 SWAP1 POP JUMP JUMPDEST PUSH2 0x1A46 DUP2 PUSH2 0x1A2C JUMP JUMPDEST DUP2 EQ PUSH2 0x1A50 JUMPI PUSH0 PUSH0 REVERT JUMPDEST POP JUMP JUMPDEST PUSH0 DUP2 CALLDATALOAD SWAP1 POP PUSH2 0x1A61 DUP2 PUSH2 0x1A3D JUMP JUMPDEST SWAP3 SWAP2 POP POP JUMP JUMPDEST PUSH0 PUSH0 PUSH1 0x40 DUP4 DUP6 SUB SLT ISZERO PUSH2 0x1A7D JUMPI PUSH2 0x1A7C PUSH2 0x18F2 JUMP JUMPDEST JUMPDEST PUSH0 PUSH2 0x1A8A DUP6 DUP3 DUP7 ADD PUSH2 0x1A53 JUMP JUMPDEST SWAP3 POP POP PUSH1 0x20 PUSH2 0x1A9B DUP6 DUP3 DUP7 ADD PUSH2 0x1919 JUMP JUMPDEST SWAP2 POP POP SWAP3 POP SWAP3 SWAP1 POP JUMP JUMPDEST PUSH0 DUP2 ISZERO ISZERO SWAP1 POP SWAP2 SWAP1 POP JUMP JUMPDEST PUSH2 0x1AB9 DUP2 PUSH2 0x1AA5 JUMP JUMPDEST DUP3 MSTORE POP POP JUMP JUMPDEST PUSH0 PUSH1 0x20 DUP3 ADD SWAP1 POP PUSH2 0x1AD2 PUSH0 DUP4 ADD DUP5 PUSH2 0x1AB0 JUMP JUMPDEST SWAP3 SWAP2 POP POP JUMP JUMPDEST PUSH2 0x1AE1 DUP2 PUSH2 0x18FA JUMP JUMPDEST DUP3 MSTORE POP POP JUMP JUMPDEST PUSH0 PUSH1 0x20 DUP3 ADD SWAP1 POP PUSH2 0x1AFA PUSH0 DUP4 ADD DUP5 PUSH2 0x1AD8 JUMP JUMPDEST SWAP3 SWAP2 POP POP JUMP JUMPDEST PUSH0 PUSH0 PUSH0 PUSH1 0x60 DUP5 DUP7 SUB SLT ISZERO PUSH2 0x1B17 JUMPI PUSH2 0x1B16 PUSH2 0x18F2 JUMP JUMPDEST JUMPDEST PUSH0 PUSH2 0x1B24 DUP7 DUP3 DUP8 ADD PUSH2 0x1A53 JUMP JUMPDEST SWAP4 POP POP PUSH1 0x20 PUSH2 0x1B35 DUP7 DUP3 DUP8 ADD PUSH2 0x1A53 JUMP JUMPDEST SWAP3 POP POP PUSH1 0x40 PUSH2 0x1B46 DUP7 DUP3 DUP8 ADD PUSH2 0x1919 JUMP JUMPDEST SWAP2 POP POP SWAP3 POP SWAP3 POP SWAP3 JUMP JUMPDEST PUSH0 PUSH1 0xFF DUP3 AND SWAP1 POP SWAP2 SWAP1 POP JUMP JUMPDEST PUSH2 0x1B65 DUP2 PUSH2 0x1B50 JUMP JUMPDEST DUP3 MSTORE POP POP JUMP JUMPDEST PUSH0 PUSH1 0x20 DUP3 ADD SWAP1 POP PUSH2 0x1B7E PUSH0 DUP4 ADD DUP5 PUSH2 0x1B5C JUMP JUMPDEST SWAP3 SWAP2 POP POP JUMP JUMPDEST PUSH0 PUSH0 REVERT JUMPDEST PUSH0 PUSH0 REVERT JUMPDEST PUSH32 0x4E487B7100000000000000000000000000000000000000000000000000000000 PUSH0 MSTORE PUSH1 0x41 PUSH1 0x4 MSTORE PUSH1 0x24 PUSH0 REVERT JUMPDEST PUSH2 0x1BC2 DUP3 PUSH2 0x19A5 JUMP JUMPDEST DUP2 ADD DUP2 DUP2 LT PUSH8 0xFFFFFFFFFFFFFFFF DUP3 GT OR ISZERO PUSH2 0x1BE1 JUMPI PUSH2 0x1BE0 PUSH2 0x1B8C JUMP JUMPDEST JUMPDEST DUP1 PUSH1 0x40 MSTORE POP POP POP JUMP JUMPDEST PUSH0 PUSH2 0x1BF3 PUSH2 0x18E9 JUMP JUMPDEST SWAP1 POP PUSH2 0x1BFF DUP3 DUP3 PUSH2 0x1BB9 JUMP JUMPDEST SWAP2 SWAP1 POP JUMP JUMPDEST PUSH0 PUSH8 0xFFFFFFFFFFFFFFFF DUP3 GT ISZERO PUSH2 0x1C1E JUMPI PUSH2 0x1C1D PUSH2 0x1B8C JUMP JUMPDEST JUMPDEST PUSH2 0x1C27 DUP3 PUSH2 0x19A5 JUMP JUMPDEST SWAP1 POP PUSH1 0x20 DUP2 ADD SWAP1 POP SWAP2 SWAP1 POP JUMP JUMPDEST DUP3 DUP2 DUP4 CALLDATACOPY PUSH0 DUP4 DUP4 ADD MSTORE POP POP POP JUMP JUMPDEST PUSH0 PUSH2 0x1C54 PUSH2 0x1C4F DUP5 PUSH2 0x1C04 JUMP JUMPDEST PUSH2 0x1BEA JUMP JUMPDEST SWAP1 POP DUP3 DUP2 MSTORE PUSH1 0x20 DUP2 ADD DUP5 DUP5 DUP5 ADD GT ISZERO PUSH2 0x1C70 JUMPI PUSH2 0x1C6F PUSH2 0x1B88 JUMP JUMPDEST JUMPDEST PUSH2 0x1C7B DUP5 DUP3 DUP6 PUSH2 0x1C34 JUMP JUMPDEST POP SWAP4 SWAP3 POP POP POP JUMP JUMPDEST PUSH0 DUP3 PUSH1 0x1F DUP4 ADD SLT PUSH2 0x1C97 JUMPI PUSH2 0x1C96 PUSH2 0x1B84 JUMP JUMPDEST JUMPDEST DUP2 CALLDATALOAD PUSH2 0x1CA7 DUP5 DUP3 PUSH1 0x20 DUP7 ADD PUSH2 0x1C42 JUMP JUMPDEST SWAP2 POP POP SWAP3 SWAP2 POP POP JUMP JUMPDEST PUSH0 PUSH0 PUSH1 0x40 DUP4 DUP6 SUB SLT ISZERO PUSH2 0x1CC6 JUMPI PUSH2 0x1CC5 PUSH2 0x18F2 JUMP JUMPDEST JUMPDEST PUSH0 DUP4 ADD CALLDATALOAD PUSH8 0xFFFFFFFFFFFFFFFF DUP2 GT ISZERO PUSH2 0x1CE3 JUMPI PUSH2 0x1CE2 PUSH2 0x18F6 JUMP JUMPDEST JUMPDEST PUSH2 0x1CEF DUP6 DUP3 DUP7 ADD PUSH2 0x1C83 JUMP JUMPDEST SWAP3 POP POP PUSH1 0x20 PUSH2 0x1D00 DUP6 DUP3 DUP7 ADD PUSH2 0x1919 JUMP JUMPDEST SWAP2 POP POP SWAP3 POP SWAP3 SWAP1 POP JUMP JUMPDEST PUSH0 PUSH0 PUSH1 0x40 DUP4 DUP6 SUB SLT ISZERO PUSH2 0x1D20 JUMPI PUSH2 0x1D1F PUSH2 0x18F2 JUMP JUMPDEST JUMPDEST PUSH0 PUSH2 0x1D2D DUP6 DUP3 DUP7 ADD PUSH2 0x1919 JUMP JUMPDEST SWAP3 POP POP PUSH1 0x20 PUSH2 0x1D3E DUP6 DUP3 DUP7 ADD PUSH2 0x1919 JUMP JUMPDEST SWAP2 POP POP SWAP3 POP SWAP3 SWAP1 POP JUMP JUMPDEST PUSH0 PUSH1 0x20 DUP3 DUP5 SUB SLT ISZERO PUSH2 0x1D5D JUMPI PUSH2 0x1D5C PUSH2 0x18F2 JUMP JUMPDEST JUMPDEST PUSH0 PUSH2 0x1D6A DUP5 DUP3 DUP6 ADD PUSH2 0x1A53 JUMP JUMPDEST SWAP2 POP POP SWAP3 SWAP2 POP POP JUMP JUMPDEST PUSH2 0x1D7C DUP2 PUSH2 0x1A2C JUMP JUMPDEST DUP3 MSTORE POP POP JUMP JUMPDEST PUSH0 PUSH1 0x20 DUP3 ADD SWAP1 POP PUSH2 0x1D95 PUSH0 DUP4 ADD DUP5 PUSH2 0x1D73 JUMP JUMPDEST SWAP3 SWAP2 POP POP JUMP JUMPDEST PUSH0 PUSH1 0x80 DUP3 ADD SWAP1 POP PUSH2 0x1DAE PUSH0 DUP4 ADD DUP8 PUSH2 0x1AD8 JUMP JUMPDEST PUSH2 0x1DBB PUSH1 0x20 DUP4 ADD DUP7 PUSH2 0x1AD8 JUMP JUMPDEST PUSH2 0x1DC8 PUSH1 0x40 DUP4 ADD DUP6 PUSH2 0x1D73 JUMP JUMPDEST PUSH2 0x1DD5 PUSH1 0x60 DUP4 ADD DUP5 PUSH2 0x1AD8 JUMP JUMPDEST SWAP6 SWAP5 POP POP POP POP POP JUMP JUMPDEST PUSH0 DUP2 MLOAD SWAP1 POP SWAP2 SWAP1 POP JUMP JUMPDEST PUSH0 DUP3 DUP3 MSTORE PUSH1 0x20 DUP3 ADD SWAP1 POP SWAP3 SWAP2 POP POP JUMP JUMPDEST PUSH0 DUP2 SWAP1 POP PUSH1 0x20 DUP3 ADD SWAP1 POP SWAP2 SWAP1 POP JUMP JUMPDEST PUSH2 0x1E10 DUP2 PUSH2 0x1A2C JUMP JUMPDEST DUP3 MSTORE POP POP JUMP JUMPDEST PUSH0 DUP3 DUP3 MSTORE PUSH1 0x20 DUP3 ADD SWAP1 POP SWAP3 SWAP2 POP POP JUMP JUMPDEST PUSH0 PUSH2 0x1E30 DUP3 PUSH2 0x197D JUMP JUMPDEST PUSH2 0x1E3A DUP2 DUP6 PUSH2 0x1E16 JUMP JUMPDEST SWAP4 POP PUSH2 0x1E4A DUP2 DUP6 PUSH1 0x20 DUP7 ADD PUSH2 0x1997 JUMP JUMPDEST PUSH2 0x1E53 DUP2 PUSH2 0x19A5 JUMP JUMPDEST DUP5 ADD SWAP2 POP POP SWAP3 SWAP2 POP POP JUMP JUMPDEST PUSH2 0x1E67 DUP2 PUSH2 0x18FA JUMP JUMPDEST DUP3 MSTORE POP POP JUMP JUMPDEST PUSH0 PUSH1 0x60 DUP4 ADD PUSH0 DUP4 ADD MLOAD PUSH2 0x1E82 PUSH0 DUP7 ADD DUP3 PUSH2 0x1E07 JUMP JUMPDEST POP PUSH1 0x20 DUP4 ADD MLOAD DUP5 DUP3 SUB PUSH1 0x20 DUP7 ADD MSTORE PUSH2 0x1E9A DUP3 DUP3 PUSH2 0x1E26 JUMP JUMPDEST SWAP2 POP POP PUSH1 0x40 DUP4 ADD MLOAD PUSH2 0x1EAF PUSH1 0x40 DUP7 ADD DUP3 PUSH2 0x1E5E JUMP JUMPDEST POP DUP1 SWAP2 POP POP SWAP3 SWAP2 POP POP JUMP JUMPDEST PUSH0 PUSH2 0x1EC5 DUP4 DUP4 PUSH2 0x1E6D JUMP JUMPDEST SWAP1 POP SWAP3 SWAP2 POP POP JUMP JUMPDEST PUSH0 PUSH1 0x20 DUP3 ADD SWAP1 POP SWAP2 SWAP1 POP JUMP JUMPDEST PUSH0 PUSH2 0x1EE3 DUP3 PUSH2 0x1DDE JUMP JUMPDEST PUSH2 0x1EED DUP2 DUP6 PUSH2 0x1DE8 JUMP JUMPDEST SWAP4 POP DUP4 PUSH1 0x20 DUP3 MUL DUP6 ADD PUSH2 0x1EFF DUP6 PUSH2 0x1DF8 JUMP JUMPDEST DUP1 PUSH0 JUMPDEST DUP6 DUP2 LT ISZERO PUSH2 0x1F3A JUMPI DUP5 DUP5 SUB DUP10 MSTORE DUP2 MLOAD PUSH2 0x1F1B DUP6 DUP3 PUSH2 0x1EBA JUMP JUMPDEST SWAP5 POP PUSH2 0x1F26 DUP4 PUSH2 0x1ECD JUMP JUMPDEST SWAP3 POP PUSH1 0x20 DUP11 ADD SWAP10 POP POP PUSH1 0x1 DUP2 ADD SWAP1 POP PUSH2 0x1F02 JUMP JUMPDEST POP DUP3 SWAP8 POP DUP8 SWAP6 POP POP POP POP POP POP SWAP3 SWAP2 POP POP JUMP JUMPDEST PUSH0 PUSH1 0x20 DUP3 ADD SWAP1 POP DUP2 DUP2 SUB PUSH0 DUP4 ADD MSTORE PUSH2 0x1F64 DUP2 DUP5 PUSH2 0x1ED9 JUMP JUMPDEST SWAP1 POP SWAP3 SWAP2 POP POP JUMP JUMPDEST PUSH0 PUSH0 PUSH1 0x40 DUP4 DUP6 SUB SLT ISZERO PUSH2 0x1F82 JUMPI PUSH2 0x1F81 PUSH2 0x18F2 JUMP JUMPDEST JUMPDEST PUSH0 PUSH2 0x1F8F DUP6 DUP3 DUP7 ADD PUSH2 0x1A53 JUMP JUMPDEST SWAP3 POP POP PUSH1 0x20 PUSH2 0x1FA0 DUP6 DUP3 DUP7 ADD PUSH2 0x1A53 JUMP JUMPDEST SWAP2 POP POP SWAP3 POP SWAP3 SWAP1 POP JUMP JUMPDEST PUSH0 DUP2 MLOAD SWAP1 POP SWAP2 SWAP1 POP JUMP JUMPDEST PUSH0 DUP3 DUP3 MSTORE PUSH1 0x20 DUP3 ADD SWAP1 POP SWAP3 SWAP2 POP POP JUMP JUMPDEST PUSH0 DUP2 SWAP1 POP PUSH1 0x20 DUP3 ADD SWAP1 POP SWAP2 SWAP1 POP JUMP JUMPDEST PUSH0 PUSH2 0x1FDE DUP4 DUP4 PUSH2 0x1E26 JUMP JUMPDEST SWAP1 POP SWAP3 SWAP2 POP POP JUMP JUMPDEST PUSH0 PUSH1 0x20 DUP3 ADD SWAP1 POP SWAP2 SWAP1 POP JUMP JUMPDEST PUSH0 PUSH2 0x1FFC DUP3 PUSH2 0x1FAA JUMP JUMPDEST PUSH2 0x2006 DUP2 DUP6 PUSH2 0x1FB4 JUMP JUMPDEST SWAP4 POP DUP4 PUSH1 0x20 DUP3 MUL DUP6 ADD PUSH2 0x2018 DUP6 PUSH2 0x1FC4 JUMP JUMPDEST DUP1 PUSH0 JUMPDEST DUP6 DUP2 LT ISZERO PUSH2 0x2053 JUMPI DUP5 DUP5 SUB DUP10 MSTORE DUP2 MLOAD PUSH2 0x2034 DUP6 DUP3 PUSH2 0x1FD3 JUMP JUMPDEST SWAP5 POP PUSH2 0x203F DUP4 PUSH2 0x1FE6 JUMP JUMPDEST SWAP3 POP PUSH1 0x20 DUP11 ADD SWAP10 POP POP PUSH1 0x1 DUP2 ADD SWAP1 POP PUSH2 0x201B JUMP JUMPDEST POP DUP3 SWAP8 POP DUP8 SWAP6 POP POP POP POP POP POP SWAP3 SWAP2 POP POP JUMP JUMPDEST PUSH0 PUSH1 0x20 DUP3 ADD SWAP1 POP DUP2 DUP2 SUB PUSH0 DUP4 ADD MSTORE PUSH2 0x207D DUP2 DUP5 PUSH2 0x1FF2 JUMP JUMPDEST SWAP1 POP SWAP3 SWAP2 POP POP JUMP JUMPDEST PUSH32 0x536F6D656E7465206A757261646F7320706F64656D2072656769737472617200 PUSH0 DUP3 ADD MSTORE POP JUMP JUMPDEST PUSH0 PUSH2 0x20B9 PUSH1 0x1F DUP4 PUSH2 0x1987 JUMP JUMPDEST SWAP2 POP PUSH2 0x20C4 DUP3 PUSH2 0x2085 JUMP JUMPDEST PUSH1 0x20 DUP3 ADD SWAP1 POP SWAP2 SWAP1 POP JUMP JUMPDEST PUSH0 PUSH1 0x20 DUP3 ADD SWAP1 POP DUP2 DUP2 SUB PUSH0 DUP4 ADD MSTORE PUSH2 0x20E6 DUP2 PUSH2 0x20AD JUMP JUMPDEST SWAP1 POP SWAP2 SWAP1 POP JUMP JUMPDEST PUSH32 0x4E6F746120696D706F73736976656C0000000000000000000000000000000000 PUSH0 DUP3 ADD MSTORE POP JUMP JUMPDEST PUSH0 PUSH2 0x2121 PUSH1 0xF DUP4 PUSH2 0x1987 JUMP JUMPDEST SWAP2 POP PUSH2 0x212C DUP3 PUSH2 0x20ED JUMP JUMPDEST PUSH1 0x20 DUP3 ADD SWAP1 POP SWAP2 SWAP1 POP JUMP JUMPDEST PUSH0 PUSH1 0x20 DUP3 ADD SWAP1 POP DUP2 DUP2 SUB PUSH0 DUP4 ADD MSTORE PUSH2 0x214E DUP2 PUSH2 0x2115 JUMP JUMPDEST SWAP1 POP SWAP2 SWAP1 POP JUMP JUMPDEST PUSH32 0x4E487B7100000000000000000000000000000000000000000000000000000000 PUSH0 MSTORE PUSH1 0x22 PUSH1 0x4 MSTORE PUSH1 0x24 PUSH0 REVERT JUMPDEST PUSH0 PUSH1 0x2 DUP3 DIV SWAP1 POP PUSH1 0x1 DUP3 AND DUP1 PUSH2 0x2199 JUMPI PUSH1 0x7F DUP3 AND SWAP2 POP JUMPDEST PUSH1 0x20 DUP3 LT DUP2 SUB PUSH2 0x21AC JUMPI PUSH2 0x21AB PUSH2 0x2155 JUMP JUMPDEST JUMPDEST POP SWAP2 SWAP1 POP JUMP JUMPDEST PUSH32 0x41636573736F20726573747269746F20616F2070726F70726965746172696F00 PUSH0 DUP3 ADD MSTORE POP JUMP JUMPDEST PUSH0 PUSH2 0x21E6 PUSH1 0x1F DUP4 PUSH2 0x1987 JUMP JUMPDEST SWAP2 POP PUSH2 0x21F1 DUP3 PUSH2 0x21B2 JUMP JUMPDEST PUSH1 0x20 DUP3 ADD SWAP1 POP SWAP2 SWAP1 POP JUMP JUMPDEST PUSH0 PUSH1 0x20 DUP3 ADD SWAP1 POP DUP2 DUP2 SUB PUSH0 DUP4 ADD MSTORE PUSH2 0x2213 DUP2 PUSH2 0x21DA JUMP JUMPDEST SWAP1 POP SWAP2 SWAP1 POP JUMP JUMPDEST PUSH32 0x5175616E746964616465206D6178696D61206465206A757261646F7300000000 PUSH0 DUP3 ADD MSTORE POP JUMP JUMPDEST PUSH0 PUSH2 0x224E PUSH1 0x1C DUP4 PUSH2 0x1987 JUMP JUMPDEST SWAP2 POP PUSH2 0x2259 DUP3 PUSH2 0x221A JUMP JUMPDEST PUSH1 0x20 DUP3 ADD SWAP1 POP SWAP2 SWAP1 POP JUMP JUMPDEST PUSH0 PUSH1 0x20 DUP3 ADD SWAP1 POP DUP2 DUP2 SUB PUSH0 DUP4 ADD MSTORE PUSH2 0x227B DUP2 PUSH2 0x2242 JUMP JUMPDEST SWAP1 POP SWAP2 SWAP1 POP JUMP JUMPDEST PUSH0 DUP2 SWAP1 POP DUP2 PUSH0 MSTORE PUSH1 0x20 PUSH0 KECCAK256 SWAP1 POP SWAP2 SWAP1 POP JUMP JUMPDEST PUSH0 PUSH1 0x20 PUSH1 0x1F DUP4 ADD DIV SWAP1 POP SWAP2 SWAP1 POP JUMP JUMPDEST PUSH0 DUP3 DUP3 SHL SWAP1 POP SWAP3 SWAP2 POP POP JUMP JUMPDEST PUSH0 PUSH1 0x8 DUP4 MUL PUSH2 0x22DE PUSH32 0xFFFFFFFFFFFFFFFFFFFFFFFFFFFFFFFFFFFFFFFFFFFFFFFFFFFFFFFFFFFFFFFF DUP3 PUSH2 0x22A3 JUMP JUMPDEST PUSH2 0x22E8 DUP7 DUP4 PUSH2 0x22A3 JUMP JUMPDEST SWAP6 POP DUP1 NOT DUP5 AND SWAP4 POP DUP1 DUP7 AND DUP5 OR SWAP3 POP POP POP SWAP4 SWAP3 POP POP POP JUMP JUMPDEST PUSH0 DUP2 SWAP1 POP SWAP2 SWAP1 POP JUMP JUMPDEST PUSH0 PUSH2 0x2323 PUSH2 0x231E PUSH2 0x2319 DUP5 PUSH2 0x18FA JUMP JUMPDEST PUSH2 0x2300 JUMP JUMPDEST PUSH2 0x18FA JUMP JUMPDEST SWAP1 POP SWAP2 SWAP1 POP JUMP JUMPDEST PUSH0 DUP2 SWAP1 POP SWAP2 SWAP1 POP JUMP JUMPDEST PUSH2 0x233C DUP4 PUSH2 0x2309 JUMP JUMPDEST PUSH2 0x2350 PUSH2 0x2348 DUP3 PUSH2 0x232A JUMP JUMPDEST DUP5 DUP5 SLOAD PUSH2 0x22AF JUMP JUMPDEST DUP3 SSTORE POP POP POP POP JUMP JUMPDEST PUSH0 PUSH0 SWAP1 POP SWAP1 JUMP JUMPDEST PUSH2 0x2367 PUSH2 0x2358 JUMP JUMPDEST PUSH2 0x2372 DUP2 DUP5 DUP5 PUSH2 0x2333 JUMP JUMPDEST POP POP POP JUMP JUMPDEST JUMPDEST DUP2 DUP2 LT ISZERO PUSH2 0x2395 JUMPI PUSH2 0x238A PUSH0 DUP3 PUSH2 0x235F JUMP JUMPDEST PUSH1 0x1 DUP2 ADD SWAP1 POP PUSH2 0x2378 JUMP JUMPDEST POP POP JUMP JUMPDEST PUSH1 0x1F DUP3 GT ISZERO PUSH2 0x23DA JUMPI PUSH2 0x23AB DUP2 PUSH2 0x2282 JUMP JUMPDEST PUSH2 0x23B4 DUP5 PUSH2 0x2294 JUMP JUMPDEST DUP2 ADD PUSH1 0x20 DUP6 LT ISZERO PUSH2 0x23C3 JUMPI DUP2 SWAP1 POP JUMPDEST PUSH2 0x23D7 PUSH2 0x23CF DUP6 PUSH2 0x2294 JUMP JUMPDEST DUP4 ADD DUP3 PUSH2 0x2377 JUMP JUMPDEST POP POP JUMPDEST POP POP POP JUMP JUMPDEST PUSH0 DUP3 DUP3 SHR SWAP1 POP SWAP3 SWAP2 POP POP JUMP JUMPDEST PUSH0 PUSH2 0x23FA PUSH0 NOT DUP5 PUSH1 0x8 MUL PUSH2 0x23DF JUMP JUMPDEST NOT DUP1 DUP4 AND SWAP2 POP POP SWAP3 SWAP2 POP POP JUMP JUMPDEST PUSH0 PUSH2 0x2412 DUP4 DUP4 PUSH2 0x23EB JUMP JUMPDEST SWAP2 POP DUP3 PUSH1 0x2 MUL DUP3 OR SWAP1 POP SWAP3 SWAP2 POP POP JUMP JUMPDEST PUSH2 0x242B DUP3 PUSH2 0x197D JUMP JUMPDEST PUSH8 0xFFFFFFFFFFFFFFFF DUP2 GT ISZERO PUSH2 0x2444 JUMPI PUSH2 0x2443 PUSH2 0x1B8C JUMP JUMPDEST JUMPDEST PUSH2 0x244E DUP3 SLOAD PUSH2 0x2182 JUMP JUMPDEST PUSH2 0x2459 DUP3 DUP3 DUP6 PUSH2 0x2399 JUMP JUMPDEST PUSH0 PUSH1 0x20 SWAP1 POP PUSH1 0x1F DUP4 GT PUSH1 0x1 DUP2 EQ PUSH2 0x248A JUMPI PUSH0 DUP5 ISZERO PUSH2 0x2478 JUMPI DUP3 DUP8 ADD MLOAD SWAP1 POP JUMPDEST PUSH2 0x2482 DUP6 DUP3 PUSH2 0x2407 JUMP JUMPDEST DUP7 SSTORE POP PUSH2 0x24E9 JUMP JUMPDEST PUSH1 0x1F NOT DUP5 AND PUSH2 0x2498 DUP7 PUSH2 0x2282 JUMP JUMPDEST PUSH0 JUMPDEST DUP3 DUP2 LT ISZERO PUSH2 0x24BF JUMPI DUP5 DUP10 ADD MLOAD DUP3 SSTORE PUSH1 0x1 DUP3 ADD SWAP2 POP PUSH1 0x20 DUP6 ADD SWAP5 POP PUSH1 0x20 DUP2 ADD SWAP1 POP PUSH2 0x249A JUMP JUMPDEST DUP7 DUP4 LT ISZERO PUSH2 0x24DC JUMPI DUP5 DUP10 ADD MLOAD PUSH2 0x24D8 PUSH1 0x1F DUP10 AND DUP3 PUSH2 0x23EB JUMP JUMPDEST DUP4 SSTORE POP JUMPDEST PUSH1 0x1 PUSH1 0x2 DUP9 MUL ADD DUP9 SSTORE POP POP POP JUMPDEST POP POP POP POP POP POP JUMP JUMPDEST PUSH32 0x4E487B7100000000000000000000000000000000000000000000000000000000 PUSH0 MSTORE PUSH1 0x11 PUSH1 0x4 MSTORE PUSH1 0x24 PUSH0 REVERT JUMPDEST PUSH0 PUSH2 0x2528 DUP3 PUSH2 0x18FA JUMP JUMPDEST SWAP2 POP PUSH2 0x2533 DUP4 PUSH2 0x18FA JUMP JUMPDEST SWAP3 POP DUP3 DUP3 SUB SWAP1 POP DUP2 DUP2 GT ISZERO PUSH2 0x254B JUMPI PUSH2 0x254A PUSH2 0x24F1 JUMP JUMPDEST JUMPDEST SWAP3 SWAP2 POP POP JUMP JUMPDEST PUSH32 0x4E6F7461206E616F20656E636F6E747261646100000000000000000000000000 PUSH0 DUP3 ADD MSTORE POP JUMP JUMPDEST PUSH0 PUSH2 0x2585 PUSH1 0x13 DUP4 PUSH2 0x1987 JUMP JUMPDEST SWAP2 POP PUSH2 0x2590 DUP3 PUSH2 0x2551 JUMP JUMPDEST PUSH1 0x20 DUP3 ADD SWAP1 POP SWAP2 SWAP1 POP JUMP JUMPDEST PUSH0 PUSH1 0x20 DUP3 ADD SWAP1 POP DUP2 DUP2 SUB PUSH0 DUP4 ADD MSTORE PUSH2 0x25B2 DUP2 PUSH2 0x2579 JUMP JUMPDEST SWAP1 POP SWAP2 SWAP1 POP JUMP JUMPDEST PUSH32 0x4E6F206A7564676520666F756E64000000000000000000000000000000000000 PUSH0 DUP3 ADD MSTORE POP JUMP JUMPDEST PUSH0 PUSH2 0x25ED PUSH1 0xE DUP4 PUSH2 0x1987 JUMP JUMPDEST SWAP2 POP PUSH2 0x25F8 DUP3 PUSH2 0x25B9 JUMP JUMPDEST PUSH1 0x20 DUP3 ADD SWAP1 POP SWAP2 SWAP1 POP JUMP JUMPDEST PUSH0 PUSH1 0x20 DUP3 ADD SWAP1 POP DUP2 DUP2 SUB PUSH0 DUP4 ADD MSTORE PUSH2 0x261A DUP2 PUSH2 0x25E1 JUMP JUMPDEST SWAP1 POP SWAP2 SWAP1 POP JUMP JUMPDEST PUSH32 0x4E6F206573636F6C6120666F756E640000000000000000000000000000000000 PUSH0 DUP3 ADD MSTORE POP JUMP JUMPDEST PUSH0 PUSH2 0x2655 PUSH1 0xF DUP4 PUSH2 0x1987 JUMP JUMPDEST SWAP2 POP PUSH2 0x2660 DUP3 PUSH2 0x2621 JUMP JUMPDEST PUSH1 0x20 DUP3 ADD SWAP1 POP SWAP2 SWAP1 POP JUMP JUMPDEST PUSH0 PUSH1 0x20 DUP3 ADD SWAP1 POP DUP2 DUP2 SUB PUSH0 DUP4 ADD MSTORE PUSH2 0x2682 DUP2 PUSH2 0x2649 JUMP JUMPDEST SWAP1 POP SWAP2 SWAP1 POP JUMP JUMPDEST PUSH32 0x4E6F207175657369746F7320666F756E64000000000000000000000000000000 PUSH0 DUP3 ADD MSTORE POP JUMP JUMPDEST PUSH0 PUSH2 0x26BD PUSH1 0x11 DUP4 PUSH2 0x1987 JUMP JUMPDEST SWAP2 POP PUSH2 0x26C8 DUP3 PUSH2 0x2689 JUMP JUMPDEST PUSH1 0x20 DUP3 ADD SWAP1 POP SWAP2 SWAP1 POP JUMP JUMPDEST PUSH0 PUSH1 0x20 DUP3 ADD SWAP1 POP DUP2 DUP2 SUB PUSH0 DUP4 ADD MSTORE PUSH2 0x26EA DUP2 PUSH2 0x26B1 JUMP JUMPDEST SWAP1 POP SWAP2 SWAP1 POP JUMP JUMPDEST PUSH0 PUSH1 0x60 DUP3 ADD SWAP1 POP PUSH2 0x2704 PUSH0 DUP4 ADD DUP7 PUSH2 0x1D73 JUMP JUMPDEST PUSH2 0x2711 PUSH1 0x20 DUP4 ADD DUP6 PUSH2 0x1AD8 JUMP JUMPDEST PUSH2 0x271E PUSH1 0x40 DUP4 ADD DUP5 PUSH2 0x1AD8 JUMP JUMPDEST SWAP5 SWAP4 POP POP POP POP JUMP JUMPDEST PUSH0 PUSH2 0x2730 DUP3 PUSH2 0x18FA JUMP JUMPDEST SWAP2 POP PUSH2 0x273B DUP4 PUSH2 0x18FA JUMP JUMPDEST SWAP3 POP DUP3 DUP3 ADD SWAP1 POP DUP1 DUP3 GT ISZERO PUSH2 0x2753 JUMPI PUSH2 0x2752 PUSH2 0x24F1 JUMP JUMPDEST JUMPDEST SWAP3 SWAP2 POP POP JUMP INVALID LOG2 PUSH5 0x6970667358 0x22 SLT KECCAK256 SSTORE TSTORE SELFBALANCE 0x24 CALLVALUE SWAP14 JUMPI DUP16 0xFC PUSH10 0x3A1B493C37ED517C3E2 0xC 0xAB 0xD5 SWAP16 0x2C 0xB6 0xBF 0x24 0xE 0xC9 ADD 0xC1 PUSH5 0x736F6C6343 STOP ADDMOD SHR STOP CALLER 0x4D PUSH16 0x63696461646520496E646570656E6465 PUSH15 0x7465206465205061647265204D6967 PUSH22 0x656C0000000000000000000000000000000000000000 "
				},
				"gasEstimates": {
					"creation": {
						"codeDepositCost": "2025400",
						"executionCost": "infinite",
						"totalCost": "infinite"
					},
					"external": {
						"addJurado(string,uint256)": "infinite",
						"allowance(address,address)": "infinite",
						"approve(address,uint256)": "infinite",
						"balanceOf(address)": "2939",
						"decimals()": "383",
						"getEscolas()": "infinite",
						"getJurados()": "infinite",
						"getNota(uint256,uint256)": "infinite",
						"getQuesitos()": "infinite",
						"limparDados()": "infinite",
						"name()": "infinite",
						"notasPorEscolaQuesito(uint256,uint256)": "infinite",
						"owner()": "2531",
						"registrarNota(uint256,uint256,uint256)": "infinite",
						"symbol()": "infinite",
						"totalSupply()": "2522",
						"transfer(address,uint256)": "infinite",
						"transferFrom(address,address,uint256)": "infinite"
					},
					"internal": {
						"addEscolas(string memory[] memory)": "infinite",
						"addQuesitos(string memory[] memory)": "infinite"
					}
				},
				"methodIdentifiers": {
					"addJurado(string,uint256)": "4d4b6681",
					"allowance(address,address)": "dd62ed3e",
					"approve(address,uint256)": "095ea7b3",
					"balanceOf(address)": "70a08231",
					"decimals()": "313ce567",
					"getEscolas()": "dd7a7996",
					"getJurados()": "dacb31cb",
					"getNota(uint256,uint256)": "66885744",
					"getQuesitos()": "ec048210",
					"limparDados()": "e49a39dc",
					"name()": "06fdde03",
					"notasPorEscolaQuesito(uint256,uint256)": "a916b987",
					"owner()": "8da5cb5b",
					"registrarNota(uint256,uint256,uint256)": "05ae501e",
					"symbol()": "95d89b41",
					"totalSupply()": "18160ddd",
					"transfer(address,uint256)": "a9059cbb",
					"transferFrom(address,address,uint256)": "23b872dd"
				}
			},
			"storageLayout": {
				"storage": [
					{
						"astId": 159,
						"contract": "Qsito/carnaval.sol:CarnavalScores",
						"label": "_balances",
						"offset": 0,
						"slot": "0",
						"type": "t_mapping(t_address,t_uint256)"
					},
					{
						"astId": 165,
						"contract": "Qsito/carnaval.sol:CarnavalScores",
						"label": "_allowances",
						"offset": 0,
						"slot": "1",
						"type": "t_mapping(t_address,t_mapping(t_address,t_uint256))"
					},
					{
						"astId": 167,
						"contract": "Qsito/carnaval.sol:CarnavalScores",
						"label": "_totalSupply",
						"offset": 0,
						"slot": "2",
						"type": "t_uint256"
					},
					{
						"astId": 169,
						"contract": "Qsito/carnaval.sol:CarnavalScores",
						"label": "_name",
						"offset": 0,
						"slot": "3",
						"type": "t_string_storage"
					},
					{
						"astId": 171,
						"contract": "Qsito/carnaval.sol:CarnavalScores",
						"label": "_symbol",
						"offset": 0,
						"slot": "4",
						"type": "t_string_storage"
					},
					{
						"astId": 829,
						"contract": "Qsito/carnaval.sol:CarnavalScores",
						"label": "quantidadeJurados",
						"offset": 0,
						"slot": "5",
						"type": "t_array(t_struct(Jurado)797_storage)dyn_storage"
					},
					{
						"astId": 833,
						"contract": "Qsito/carnaval.sol:CarnavalScores",
						"label": "_escolas",
						"offset": 0,
						"slot": "6",
						"type": "t_array(t_struct(Escola)802_storage)dyn_storage"
					},
					{
						"astId": 837,
						"contract": "Qsito/carnaval.sol:CarnavalScores",
						"label": "_quesitos",
						"offset": 0,
						"slot": "7",
						"type": "t_array(t_struct(Quesito)807_storage)dyn_storage"
					},
					{
						"astId": 841,
						"contract": "Qsito/carnaval.sol:CarnavalScores",
						"label": "notas",
						"offset": 0,
						"slot": "8",
						"type": "t_array(t_struct(Nota)816_storage)dyn_storage"
					},
					{
						"astId": 846,
						"contract": "Qsito/carnaval.sol:CarnavalScores",
						"label": "jurados",
						"offset": 0,
						"slot": "9",
						"type": "t_mapping(t_address,t_struct(Jurado)797_storage)"
					},
					{
						"astId": 853,
						"contract": "Qsito/carnaval.sol:CarnavalScores",
						"label": "notasPorEscolaQuesito",
						"offset": 0,
						"slot": "10",
						"type": "t_mapping(t_uint256,t_mapping(t_uint256,t_struct(Nota)816_storage))"
					},
					{
						"astId": 855,
						"contract": "Qsito/carnaval.sol:CarnavalScores",
						"label": "owner",
						"offset": 0,
						"slot": "11",
						"type": "t_address"
					},
					{
						"astId": 871,
						"contract": "Qsito/carnaval.sol:CarnavalScores",
						"label": "nomeEscolas",
						"offset": 0,
						"slot": "12",
						"type": "t_array(t_string_storage)dyn_storage"
					},
					{
						"astId": 884,
						"contract": "Qsito/carnaval.sol:CarnavalScores",
						"label": "qsitos",
						"offset": 0,
						"slot": "13",
						"type": "t_array(t_string_storage)dyn_storage"
					},
					{
						"astId": 920,
						"contract": "Qsito/carnaval.sol:CarnavalScores",
						"label": "_currentJuradoIndex",
						"offset": 0,
						"slot": "14",
						"type": "t_uint256"
					},
					{
						"astId": 923,
						"contract": "Qsito/carnaval.sol:CarnavalScores",
						"label": "_currentEscolaIndex",
						"offset": 0,
						"slot": "15",
						"type": "t_uint256"
					},
					{
						"astId": 926,
						"contract": "Qsito/carnaval.sol:CarnavalScores",
						"label": "_currentQuesitoIndex",
						"offset": 0,
						"slot": "16",
						"type": "t_uint256"
					}
				],
				"types": {
					"t_address": {
						"encoding": "inplace",
						"label": "address",
						"numberOfBytes": "20"
					},
					"t_array(t_string_storage)dyn_storage": {
						"base": "t_string_storage",
						"encoding": "dynamic_array",
						"label": "string[]",
						"numberOfBytes": "32"
					},
					"t_array(t_struct(Escola)802_storage)dyn_storage": {
						"base": "t_struct(Escola)802_storage",
						"encoding": "dynamic_array",
						"label": "struct CarnavalScores.Escola[]",
						"numberOfBytes": "32"
					},
					"t_array(t_struct(Jurado)797_storage)dyn_storage": {
						"base": "t_struct(Jurado)797_storage",
						"encoding": "dynamic_array",
						"label": "struct CarnavalScores.Jurado[]",
						"numberOfBytes": "32"
					},
					"t_array(t_struct(Nota)816_storage)dyn_storage": {
						"base": "t_struct(Nota)816_storage",
						"encoding": "dynamic_array",
						"label": "struct CarnavalScores.Nota[]",
						"numberOfBytes": "32"
					},
					"t_array(t_struct(Quesito)807_storage)dyn_storage": {
						"base": "t_struct(Quesito)807_storage",
						"encoding": "dynamic_array",
						"label": "struct CarnavalScores.Quesito[]",
						"numberOfBytes": "32"
					},
					"t_mapping(t_address,t_mapping(t_address,t_uint256))": {
						"encoding": "mapping",
						"key": "t_address",
						"label": "mapping(address => mapping(address => uint256))",
						"numberOfBytes": "32",
						"value": "t_mapping(t_address,t_uint256)"
					},
					"t_mapping(t_address,t_struct(Jurado)797_storage)": {
						"encoding": "mapping",
						"key": "t_address",
						"label": "mapping(address => struct CarnavalScores.Jurado)",
						"numberOfBytes": "32",
						"value": "t_struct(Jurado)797_storage"
					},
					"t_mapping(t_address,t_uint256)": {
						"encoding": "mapping",
						"key": "t_address",
						"label": "mapping(address => uint256)",
						"numberOfBytes": "32",
						"value": "t_uint256"
					},
					"t_mapping(t_uint256,t_mapping(t_uint256,t_struct(Nota)816_storage))": {
						"encoding": "mapping",
						"key": "t_uint256",
						"label": "mapping(uint256 => mapping(uint256 => struct CarnavalScores.Nota))",
						"numberOfBytes": "32",
						"value": "t_mapping(t_uint256,t_struct(Nota)816_storage)"
					},
					"t_mapping(t_uint256,t_struct(Nota)816_storage)": {
						"encoding": "mapping",
						"key": "t_uint256",
						"label": "mapping(uint256 => struct CarnavalScores.Nota)",
						"numberOfBytes": "32",
						"value": "t_struct(Nota)816_storage"
					},
					"t_string_storage": {
						"encoding": "bytes",
						"label": "string",
						"numberOfBytes": "32"
					},
					"t_struct(Escola)802_storage": {
						"encoding": "inplace",
						"label": "struct CarnavalScores.Escola",
						"members": [
							{
								"astId": 799,
								"contract": "Qsito/carnaval.sol:CarnavalScores",
								"label": "id",
								"offset": 0,
								"slot": "0",
								"type": "t_uint256"
							},
							{
								"astId": 801,
								"contract": "Qsito/carnaval.sol:CarnavalScores",
								"label": "nome",
								"offset": 0,
								"slot": "1",
								"type": "t_string_storage"
							}
						],
						"numberOfBytes": "64"
					},
					"t_struct(Jurado)797_storage": {
						"encoding": "inplace",
						"label": "struct CarnavalScores.Jurado",
						"members": [
							{
								"astId": 792,
								"contract": "Qsito/carnaval.sol:CarnavalScores",
								"label": "endereco",
								"offset": 0,
								"slot": "0",
								"type": "t_address"
							},
							{
								"astId": 794,
								"contract": "Qsito/carnaval.sol:CarnavalScores",
								"label": "nome",
								"offset": 0,
								"slot": "1",
								"type": "t_string_storage"
							},
							{
								"astId": 796,
								"contract": "Qsito/carnaval.sol:CarnavalScores",
								"label": "quesitoId",
								"offset": 0,
								"slot": "2",
								"type": "t_uint256"
							}
						],
						"numberOfBytes": "96"
					},
					"t_struct(Nota)816_storage": {
						"encoding": "inplace",
						"label": "struct CarnavalScores.Nota",
						"members": [
							{
								"astId": 809,
								"contract": "Qsito/carnaval.sol:CarnavalScores",
								"label": "escolaId",
								"offset": 0,
								"slot": "0",
								"type": "t_uint256"
							},
							{
								"astId": 811,
								"contract": "Qsito/carnaval.sol:CarnavalScores",
								"label": "quesitoId",
								"offset": 0,
								"slot": "1",
								"type": "t_uint256"
							},
							{
								"astId": 813,
								"contract": "Qsito/carnaval.sol:CarnavalScores",
								"label": "juradoId",
								"offset": 0,
								"slot": "2",
								"type": "t_address"
							},
							{
								"astId": 815,
								"contract": "Qsito/carnaval.sol:CarnavalScores",
								"label": "nota",
								"offset": 0,
								"slot": "3",
								"type": "t_uint256"
							}
						],
						"numberOfBytes": "128"
					},
					"t_struct(Quesito)807_storage": {
						"encoding": "inplace",
						"label": "struct CarnavalScores.Quesito",
						"members": [
							{
								"astId": 804,
								"contract": "Qsito/carnaval.sol:CarnavalScores",
								"label": "id",
								"offset": 0,
								"slot": "0",
								"type": "t_uint256"
							},
							{
								"astId": 806,
								"contract": "Qsito/carnaval.sol:CarnavalScores",
								"label": "nome",
								"offset": 0,
								"slot": "1",
								"type": "t_string_storage"
							}
						],
						"numberOfBytes": "64"
					},
					"t_uint256": {
						"encoding": "inplace",
						"label": "uint256",
						"numberOfBytes": "32"
					}
				}
			},
			"userdoc": {
				"kind": "user",
				"methods": {},
				"version": 1
			}
		}
	}
}