{
	"Qsito/carnaval.sol": {
		"CarnavalScores": {
			"abi": [
				{
					"inputs": [],
					"stateMutability": "nonpayable",
					"type": "constructor"
				},
				{
					"inputs": [
						{
							"internalType": "address",
							"name": "spender",
							"type": "address"
						},
						{
							"internalType": "uint256",
							"name": "allowance",
							"type": "uint256"
						},
						{
							"internalType": "uint256",
							"name": "needed",
							"type": "uint256"
						}
					],
					"name": "ERC20InsufficientAllowance",
					"type": "error"
				},
				{
					"inputs": [
						{
							"internalType": "address",
							"name": "sender",
							"type": "address"
						},
						{
							"internalType": "uint256",
							"name": "balance",
							"type": "uint256"
						},
						{
							"internalType": "uint256",
							"name": "needed",
							"type": "uint256"
						}
					],
					"name": "ERC20InsufficientBalance",
					"type": "error"
				},
				{
					"inputs": [
						{
							"internalType": "address",
							"name": "approver",
							"type": "address"
						}
					],
					"name": "ERC20InvalidApprover",
					"type": "error"
				},
				{
					"inputs": [
						{
							"internalType": "address",
							"name": "receiver",
							"type": "address"
						}
					],
					"name": "ERC20InvalidReceiver",
					"type": "error"
				},
				{
					"inputs": [
						{
							"internalType": "address",
							"name": "sender",
							"type": "address"
						}
					],
					"name": "ERC20InvalidSender",
					"type": "error"
				},
				{
					"inputs": [
						{
							"internalType": "address",
							"name": "spender",
							"type": "address"
						}
					],
					"name": "ERC20InvalidSpender",
					"type": "error"
				},
				{
					"anonymous": false,
					"inputs": [
						{
							"indexed": true,
							"internalType": "address",
							"name": "owner",
							"type": "address"
						},
						{
							"indexed": true,
							"internalType": "address",
							"name": "spender",
							"type": "address"
						},
						{
							"indexed": false,
							"internalType": "uint256",
							"name": "value",
							"type": "uint256"
						}
					],
					"name": "Approval",
					"type": "event"
				},
				{
					"anonymous": false,
					"inputs": [
						{
							"indexed": false,
							"internalType": "string[]",
							"name": "_nome",
							"type": "string[]"
						}
					],
					"name": "EscolasAdicionadas",
					"type": "event"
				},
				{
					"anonymous": false,
					"inputs": [
						{
							"indexed": true,
							"internalType": "address",
							"name": "jurado",
							"type": "address"
						},
						{
							"indexed": false,
							"internalType": "string",
							"name": "_nome",
							"type": "string"
						}
					],
					"name": "JuradoAdicionado",
					"type": "event"
				},
				{
					"anonymous": false,
					"inputs": [
						{
							"indexed": false,
							"internalType": "string[]",
							"name": "_nome",
							"type": "string[]"
						}
					],
					"name": "QuesitoAdicionados",
					"type": "event"
				},
				{
					"anonymous": false,
					"inputs": [
						{
							"indexed": true,
							"internalType": "address",
							"name": "from",
							"type": "address"
						},
						{
							"indexed": true,
							"internalType": "address",
							"name": "to",
							"type": "address"
						},
						{
							"indexed": false,
							"internalType": "uint256",
							"name": "value",
							"type": "uint256"
						}
					],
					"name": "Transfer",
					"type": "event"
				},
				{
					"inputs": [
						{
							"internalType": "string[]",
							"name": "_nomeEscolas",
							"type": "string[]"
						}
					],
					"name": "addEscolas",
					"outputs": [],
					"stateMutability": "nonpayable",
					"type": "function"
				},
				{
					"inputs": [
						{
							"internalType": "string",
							"name": "_nomeJurado",
							"type": "string"
						},
						{
							"internalType": "uint256",
							"name": "_quesitoId",
							"type": "uint256"
						}
					],
					"name": "addJurado",
					"outputs": [
						{
							"internalType": "uint256",
							"name": "",
							"type": "uint256"
						}
					],
					"stateMutability": "nonpayable",
					"type": "function"
				},
				{
					"inputs": [
						{
							"internalType": "string[]",
							"name": "_nomeQuesitos",
							"type": "string[]"
						}
					],
					"name": "addQuesitos",
					"outputs": [],
					"stateMutability": "nonpayable",
					"type": "function"
				},
				{
					"inputs": [
						{
							"internalType": "address",
							"name": "owner",
							"type": "address"
						},
						{
							"internalType": "address",
							"name": "spender",
							"type": "address"
						}
					],
					"name": "allowance",
					"outputs": [
						{
							"internalType": "uint256",
							"name": "",
							"type": "uint256"
						}
					],
					"stateMutability": "view",
					"type": "function"
				},
				{
					"inputs": [
						{
							"internalType": "address",
							"name": "spender",
							"type": "address"
						},
						{
							"internalType": "uint256",
							"name": "value",
							"type": "uint256"
						}
					],
					"name": "approve",
					"outputs": [
						{
							"internalType": "bool",
							"name": "",
							"type": "bool"
						}
					],
					"stateMutability": "nonpayable",
					"type": "function"
				},
				{
					"inputs": [
						{
							"internalType": "address",
							"name": "account",
							"type": "address"
						}
					],
					"name": "balanceOf",
					"outputs": [
						{
							"internalType": "uint256",
							"name": "",
							"type": "uint256"
						}
					],
					"stateMutability": "view",
					"type": "function"
				},
				{
					"inputs": [],
					"name": "decimals",
					"outputs": [
						{
							"internalType": "uint8",
							"name": "",
							"type": "uint8"
						}
					],
					"stateMutability": "view",
					"type": "function"
				},
				{
					"inputs": [],
					"name": "getAllEscolas",
					"outputs": [
						{
							"components": [
								{
									"internalType": "uint256",
									"name": "id",
									"type": "uint256"
								},
								{
									"internalType": "string",
									"name": "nome",
									"type": "string"
								}
							],
							"internalType": "struct CarnavalScores.Escola[]",
							"name": "",
							"type": "tuple[]"
						}
					],
					"stateMutability": "view",
					"type": "function"
				},
				{
					"inputs": [],
					"name": "getAllQuesitos",
					"outputs": [
						{
							"components": [
								{
									"internalType": "uint256",
									"name": "id",
									"type": "uint256"
								},
								{
									"internalType": "string",
									"name": "nome",
									"type": "string"
								}
							],
							"internalType": "struct CarnavalScores.Quesito[]",
							"name": "",
							"type": "tuple[]"
						}
					],
					"stateMutability": "view",
					"type": "function"
				},
				{
					"inputs": [
						{
							"internalType": "uint256",
							"name": "_escolaId",
							"type": "uint256"
						},
						{
							"internalType": "uint256",
							"name": "_quesitoId",
							"type": "uint256"
						}
					],
					"name": "getNota",
					"outputs": [
						{
							"internalType": "uint256",
							"name": "",
							"type": "uint256"
						}
					],
					"stateMutability": "view",
					"type": "function"
				},
				{
					"inputs": [
						{
							"internalType": "address",
							"name": "",
							"type": "address"
						}
					],
					"name": "jurados",
					"outputs": [
						{
							"internalType": "address",
							"name": "endereco",
							"type": "address"
						},
						{
							"internalType": "string",
							"name": "nome",
							"type": "string"
						},
						{
							"internalType": "uint256",
							"name": "quesitoId",
							"type": "uint256"
						}
					],
					"stateMutability": "view",
					"type": "function"
				},
				{
					"inputs": [],
					"name": "limparDados",
					"outputs": [],
					"stateMutability": "nonpayable",
					"type": "function"
				},
				{
					"inputs": [],
					"name": "name",
					"outputs": [
						{
							"internalType": "string",
							"name": "",
							"type": "string"
						}
					],
					"stateMutability": "view",
					"type": "function"
				},
				{
					"inputs": [
						{
							"internalType": "uint256",
							"name": "",
							"type": "uint256"
						}
					],
					"name": "notas",
					"outputs": [
						{
							"internalType": "uint256",
							"name": "escolaId",
							"type": "uint256"
						},
						{
							"internalType": "uint256",
							"name": "quesitoId",
							"type": "uint256"
						},
						{
							"internalType": "address",
							"name": "juradoId",
							"type": "address"
						},
						{
							"internalType": "uint256",
							"name": "nota",
							"type": "uint256"
						}
					],
					"stateMutability": "view",
					"type": "function"
				},
				{
					"inputs": [
						{
							"internalType": "uint256",
							"name": "",
							"type": "uint256"
						},
						{
							"internalType": "uint256",
							"name": "",
							"type": "uint256"
						}
					],
					"name": "notasPorEscolaQuesito",
					"outputs": [
						{
							"internalType": "uint256",
							"name": "escolaId",
							"type": "uint256"
						},
						{
							"internalType": "uint256",
							"name": "quesitoId",
							"type": "uint256"
						},
						{
							"internalType": "address",
							"name": "juradoId",
							"type": "address"
						},
						{
							"internalType": "uint256",
							"name": "nota",
							"type": "uint256"
						}
					],
					"stateMutability": "view",
					"type": "function"
				},
				{
					"inputs": [],
					"name": "owner",
					"outputs": [
						{
							"internalType": "address",
							"name": "",
							"type": "address"
						}
					],
					"stateMutability": "view",
					"type": "function"
				},
				{
					"inputs": [
						{
							"internalType": "uint256",
							"name": "",
							"type": "uint256"
						}
					],
					"name": "quantidadeJurados",
					"outputs": [
						{
							"internalType": "address",
							"name": "endereco",
							"type": "address"
						},
						{
							"internalType": "string",
							"name": "nome",
							"type": "string"
						},
						{
							"internalType": "uint256",
							"name": "quesitoId",
							"type": "uint256"
						}
					],
					"stateMutability": "view",
					"type": "function"
				},
				{
					"inputs": [
						{
							"internalType": "uint256",
							"name": "_escolaId",
							"type": "uint256"
						},
						{
							"internalType": "uint256",
							"name": "_quesitoId",
							"type": "uint256"
						},
						{
							"internalType": "uint256",
							"name": "_nota",
							"type": "uint256"
						}
					],
					"name": "registrarNota",
					"outputs": [],
					"stateMutability": "nonpayable",
					"type": "function"
				},
				{
					"inputs": [],
					"name": "symbol",
					"outputs": [
						{
							"internalType": "string",
							"name": "",
							"type": "string"
						}
					],
					"stateMutability": "view",
					"type": "function"
				},
				{
					"inputs": [],
					"name": "totalSupply",
					"outputs": [
						{
							"internalType": "uint256",
							"name": "",
							"type": "uint256"
						}
					],
					"stateMutability": "view",
					"type": "function"
				},
				{
					"inputs": [
						{
							"internalType": "address",
							"name": "to",
							"type": "address"
						},
						{
							"internalType": "uint256",
							"name": "value",
							"type": "uint256"
						}
					],
					"name": "transfer",
					"outputs": [
						{
							"internalType": "bool",
							"name": "",
							"type": "bool"
						}
					],
					"stateMutability": "nonpayable",
					"type": "function"
				},
				{
					"inputs": [
						{
							"internalType": "address",
							"name": "from",
							"type": "address"
						},
						{
							"internalType": "address",
							"name": "to",
							"type": "address"
						},
						{
							"internalType": "uint256",
							"name": "value",
							"type": "uint256"
						}
					],
					"name": "transferFrom",
					"outputs": [
						{
							"internalType": "bool",
							"name": "",
							"type": "bool"
						}
					],
					"stateMutability": "nonpayable",
					"type": "function"
				}
			],
			"devdoc": {
				"errors": {
					"ERC20InsufficientAllowance(address,uint256,uint256)": [
						{
							"details": "Indicates a failure with the `spender`’s `allowance`. Used in transfers.",
							"params": {
								"allowance": "Amount of tokens a `spender` is allowed to operate with.",
								"needed": "Minimum amount required to perform a transfer.",
								"spender": "Address that may be allowed to operate on tokens without being their owner."
							}
						}
					],
					"ERC20InsufficientBalance(address,uint256,uint256)": [
						{
							"details": "Indicates an error related to the current `balance` of a `sender`. Used in transfers.",
							"params": {
								"balance": "Current balance for the interacting account.",
								"needed": "Minimum amount required to perform a transfer.",
								"sender": "Address whose tokens are being transferred."
							}
						}
					],
					"ERC20InvalidApprover(address)": [
						{
							"details": "Indicates a failure with the `approver` of a token to be approved. Used in approvals.",
							"params": {
								"approver": "Address initiating an approval operation."
							}
						}
					],
					"ERC20InvalidReceiver(address)": [
						{
							"details": "Indicates a failure with the token `receiver`. Used in transfers.",
							"params": {
								"receiver": "Address to which tokens are being transferred."
							}
						}
					],
					"ERC20InvalidSender(address)": [
						{
							"details": "Indicates a failure with the token `sender`. Used in transfers.",
							"params": {
								"sender": "Address whose tokens are being transferred."
							}
						}
					],
					"ERC20InvalidSpender(address)": [
						{
							"details": "Indicates a failure with the `spender` to be approved. Used in approvals.",
							"params": {
								"spender": "Address that may be allowed to operate on tokens without being their owner."
							}
						}
					]
				},
				"events": {
					"Approval(address,address,uint256)": {
						"details": "Emitted when the allowance of a `spender` for an `owner` is set by a call to {approve}. `value` is the new allowance."
					},
					"Transfer(address,address,uint256)": {
						"details": "Emitted when `value` tokens are moved from one account (`from`) to another (`to`). Note that `value` may be zero."
					}
				},
				"kind": "dev",
				"methods": {
					"allowance(address,address)": {
						"details": "See {IERC20-allowance}."
					},
					"approve(address,uint256)": {
						"details": "See {IERC20-approve}. NOTE: If `value` is the maximum `uint256`, the allowance is not updated on `transferFrom`. This is semantically equivalent to an infinite approval. Requirements: - `spender` cannot be the zero address."
					},
					"balanceOf(address)": {
						"details": "See {IERC20-balanceOf}."
					},
					"decimals()": {
						"details": "Returns the number of decimals used to get its user representation. For example, if `decimals` equals `2`, a balance of `505` tokens should be displayed to a user as `5.05` (`505 / 10 ** 2`). Tokens usually opt for a value of 18, imitating the relationship between Ether and Wei. This is the default value returned by this function, unless it's overridden. NOTE: This information is only used for _display_ purposes: it in no way affects any of the arithmetic of the contract, including {IERC20-balanceOf} and {IERC20-transfer}."
					},
					"name()": {
						"details": "Returns the name of the token."
					},
					"symbol()": {
						"details": "Returns the symbol of the token, usually a shorter version of the name."
					},
					"totalSupply()": {
						"details": "See {IERC20-totalSupply}."
					},
					"transfer(address,uint256)": {
						"details": "See {IERC20-transfer}. Requirements: - `to` cannot be the zero address. - the caller must have a balance of at least `value`."
					},
					"transferFrom(address,address,uint256)": {
						"details": "See {IERC20-transferFrom}. Skips emitting an {Approval} event indicating an allowance update. This is not required by the ERC. See {xref-ERC20-_approve-address-address-uint256-bool-}[_approve]. NOTE: Does not update the allowance if the current allowance is the maximum `uint256`. Requirements: - `from` and `to` cannot be the zero address. - `from` must have a balance of at least `value`. - the caller must have allowance for ``from``'s tokens of at least `value`."
					}
				},
				"version": 1
			},
			"evm": {
				"assembly": "    /* \"Qsito/carnaval.sol\":119:4927  contract CarnavalScores is ERC20 {... */\n  mstore(0x40, 0x80)\n    /* \"Qsito/carnaval.sol\":1306:1307  0 */\n  0x00\n    /* \"Qsito/carnaval.sol\":1271:1307  uint private _currentJuradoIndex = 0 */\n  0x77\n  sstore\n    /* \"Qsito/carnaval.sol\":1349:1350  0 */\n  0x00\n    /* \"Qsito/carnaval.sol\":1314:1350  uint private _currentEscolaIndex = 0 */\n  0x78\n  sstore\n    /* \"Qsito/carnaval.sol\":1393:1394  0 */\n  0x00\n    /* \"Qsito/carnaval.sol\":1357:1394  uint private _currentQuesitoIndex = 0 */\n  0x79\n  sstore\n    /* \"Qsito/carnaval.sol\":1054:1136  constructor() ERC20(\"CarnavalScores\", \"CCS\") {... */\n  callvalue\n  dup1\n  iszero\n  tag_1\n  jumpi\n  revert(0x00, 0x00)\ntag_1:\n  pop\n    /* \"@openzeppelin/contracts/token/ERC20/ERC20.sol\":1601:1714  constructor(string memory name_, string memory symbol_) {... */\n  mload(0x40)\n  dup1\n  0x40\n  add\n  0x40\n  mstore\n  dup1\n  0x0e\n  dup2\n  mstore\n  0x20\n  add\n  0x4361726e6176616c53636f726573000000000000000000000000000000000000\n  dup2\n  mstore\n  pop\n  mload(0x40)\n  dup1\n  0x40\n  add\n  0x40\n  mstore\n  dup1\n  0x03\n  dup2\n  mstore\n  0x20\n  add\n  0x4343530000000000000000000000000000000000000000000000000000000000\n  dup2\n  mstore\n  pop\n    /* \"@openzeppelin/contracts/token/ERC20/ERC20.sol\":1675:1680  name_ */\n  dup2\n    /* \"@openzeppelin/contracts/token/ERC20/ERC20.sol\":1667:1672  _name */\n  0x03\n    /* \"@openzeppelin/contracts/token/ERC20/ERC20.sol\":1667:1680  _name = name_ */\n  swap1\n  dup2\n  tag_5\n  swap2\n  swap1\n  tag_6\n  jump\t// in\ntag_5:\n  pop\n    /* \"@openzeppelin/contracts/token/ERC20/ERC20.sol\":1700:1707  symbol_ */\n  dup1\n    /* \"@openzeppelin/contracts/token/ERC20/ERC20.sol\":1690:1697  _symbol */\n  0x04\n    /* \"@openzeppelin/contracts/token/ERC20/ERC20.sol\":1690:1707  _symbol = symbol_ */\n  swap1\n  dup2\n  tag_7\n  swap2\n  swap1\n  tag_6\n  jump\t// in\ntag_7:\n  pop\n    /* \"@openzeppelin/contracts/token/ERC20/ERC20.sol\":1601:1714  constructor(string memory name_, string memory symbol_) {... */\n  pop\n  pop\n    /* \"Qsito/carnaval.sol\":1118:1128  msg.sender */\n  caller\n    /* \"Qsito/carnaval.sol\":1110:1115  owner */\n  0x76\n  0x00\n    /* \"Qsito/carnaval.sol\":1110:1128  owner = msg.sender */\n  0x0100\n  exp\n  dup2\n  sload\n  dup2\n  0xffffffffffffffffffffffffffffffffffffffff\n  mul\n  not\n  and\n  swap1\n  dup4\n  0xffffffffffffffffffffffffffffffffffffffff\n  and\n  mul\n  or\n  swap1\n  sstore\n  pop\n    /* \"Qsito/carnaval.sol\":119:4927  contract CarnavalScores is ERC20 {... */\n  jump(tag_9)\n    /* \"#utility.yul\":7:106   */\ntag_10:\n    /* \"#utility.yul\":59:65   */\n  0x00\n    /* \"#utility.yul\":93:98   */\n  dup2\n    /* \"#utility.yul\":87:99   */\n  mload\n    /* \"#utility.yul\":77:99   */\n  swap1\n  pop\n    /* \"#utility.yul\":7:106   */\n  swap2\n  swap1\n  pop\n  jump\t// out\n    /* \"#utility.yul\":112:292   */\ntag_11:\n    /* \"#utility.yul\":160:237   */\n  0x4e487b7100000000000000000000000000000000000000000000000000000000\n    /* \"#utility.yul\":157:158   */\n  0x00\n    /* \"#utility.yul\":150:238   */\n  mstore\n    /* \"#utility.yul\":257:261   */\n  0x41\n    /* \"#utility.yul\":254:255   */\n  0x04\n    /* \"#utility.yul\":247:262   */\n  mstore\n    /* \"#utility.yul\":281:285   */\n  0x24\n    /* \"#utility.yul\":278:279   */\n  0x00\n    /* \"#utility.yul\":271:286   */\n  revert\n    /* \"#utility.yul\":298:478   */\ntag_12:\n    /* \"#utility.yul\":346:423   */\n  0x4e487b7100000000000000000000000000000000000000000000000000000000\n    /* \"#utility.yul\":343:344   */\n  0x00\n    /* \"#utility.yul\":336:424   */\n  mstore\n    /* \"#utility.yul\":443:447   */\n  0x22\n    /* \"#utility.yul\":440:441   */\n  0x04\n    /* \"#utility.yul\":433:448   */\n  mstore\n    /* \"#utility.yul\":467:471   */\n  0x24\n    /* \"#utility.yul\":464:465   */\n  0x00\n    /* \"#utility.yul\":457:472   */\n  revert\n    /* \"#utility.yul\":484:804   */\ntag_13:\n    /* \"#utility.yul\":528:534   */\n  0x00\n    /* \"#utility.yul\":565:566   */\n  0x02\n    /* \"#utility.yul\":559:563   */\n  dup3\n    /* \"#utility.yul\":555:567   */\n  div\n    /* \"#utility.yul\":545:567   */\n  swap1\n  pop\n    /* \"#utility.yul\":612:613   */\n  0x01\n    /* \"#utility.yul\":606:610   */\n  dup3\n    /* \"#utility.yul\":602:614   */\n  and\n    /* \"#utility.yul\":633:651   */\n  dup1\n    /* \"#utility.yul\":623:704   */\n  tag_35\n  jumpi\n    /* \"#utility.yul\":689:693   */\n  0x7f\n    /* \"#utility.yul\":681:687   */\n  dup3\n    /* \"#utility.yul\":677:694   */\n  and\n    /* \"#utility.yul\":667:694   */\n  swap2\n  pop\n    /* \"#utility.yul\":623:704   */\ntag_35:\n    /* \"#utility.yul\":751:753   */\n  0x20\n    /* \"#utility.yul\":743:749   */\n  dup3\n    /* \"#utility.yul\":740:754   */\n  lt\n    /* \"#utility.yul\":720:738   */\n  dup2\n    /* \"#utility.yul\":717:755   */\n  sub\n    /* \"#utility.yul\":714:798   */\n  tag_36\n  jumpi\n    /* \"#utility.yul\":770:788   */\n  tag_37\n  tag_12\n  jump\t// in\ntag_37:\n    /* \"#utility.yul\":714:798   */\ntag_36:\n    /* \"#utility.yul\":535:804   */\n  pop\n    /* \"#utility.yul\":484:804   */\n  swap2\n  swap1\n  pop\n  jump\t// out\n    /* \"#utility.yul\":810:951   */\ntag_14:\n    /* \"#utility.yul\":859:863   */\n  0x00\n    /* \"#utility.yul\":882:885   */\n  dup2\n    /* \"#utility.yul\":874:885   */\n  swap1\n  pop\n    /* \"#utility.yul\":905:908   */\n  dup2\n    /* \"#utility.yul\":902:903   */\n  0x00\n    /* \"#utility.yul\":895:909   */\n  mstore\n    /* \"#utility.yul\":939:943   */\n  0x20\n    /* \"#utility.yul\":936:937   */\n  0x00\n    /* \"#utility.yul\":926:944   */\n  keccak256\n    /* \"#utility.yul\":918:944   */\n  swap1\n  pop\n    /* \"#utility.yul\":810:951   */\n  swap2\n  swap1\n  pop\n  jump\t// out\n    /* \"#utility.yul\":957:1050   */\ntag_15:\n    /* \"#utility.yul\":994:1000   */\n  0x00\n    /* \"#utility.yul\":1041:1043   */\n  0x20\n    /* \"#utility.yul\":1036:1038   */\n  0x1f\n    /* \"#utility.yul\":1029:1034   */\n  dup4\n    /* \"#utility.yul\":1025:1039   */\n  add\n    /* \"#utility.yul\":1021:1044   */\n  div\n    /* \"#utility.yul\":1011:1044   */\n  swap1\n  pop\n    /* \"#utility.yul\":957:1050   */\n  swap2\n  swap1\n  pop\n  jump\t// out\n    /* \"#utility.yul\":1056:1163   */\ntag_16:\n    /* \"#utility.yul\":1100:1108   */\n  0x00\n    /* \"#utility.yul\":1150:1155   */\n  dup3\n    /* \"#utility.yul\":1144:1148   */\n  dup3\n    /* \"#utility.yul\":1140:1156   */\n  shl\n    /* \"#utility.yul\":1119:1156   */\n  swap1\n  pop\n    /* \"#utility.yul\":1056:1163   */\n  swap3\n  swap2\n  pop\n  pop\n  jump\t// out\n    /* \"#utility.yul\":1169:1562   */\ntag_17:\n    /* \"#utility.yul\":1238:1244   */\n  0x00\n    /* \"#utility.yul\":1288:1289   */\n  0x08\n    /* \"#utility.yul\":1276:1286   */\n  dup4\n    /* \"#utility.yul\":1272:1290   */\n  mul\n    /* \"#utility.yul\":1311:1408   */\n  tag_42\n    /* \"#utility.yul\":1341:1407   */\n  0xffffffffffffffffffffffffffffffffffffffffffffffffffffffffffffffff\n    /* \"#utility.yul\":1330:1339   */\n  dup3\n    /* \"#utility.yul\":1311:1408   */\n  tag_16\n  jump\t// in\ntag_42:\n    /* \"#utility.yul\":1429:1468   */\n  tag_43\n    /* \"#utility.yul\":1459:1467   */\n  dup7\n    /* \"#utility.yul\":1448:1457   */\n  dup4\n    /* \"#utility.yul\":1429:1468   */\n  tag_16\n  jump\t// in\ntag_43:\n    /* \"#utility.yul\":1417:1468   */\n  swap6\n  pop\n    /* \"#utility.yul\":1501:1505   */\n  dup1\n    /* \"#utility.yul\":1497:1506   */\n  not\n    /* \"#utility.yul\":1490:1495   */\n  dup5\n    /* \"#utility.yul\":1486:1507   */\n  and\n    /* \"#utility.yul\":1477:1507   */\n  swap4\n  pop\n    /* \"#utility.yul\":1550:1554   */\n  dup1\n    /* \"#utility.yul\":1540:1548   */\n  dup7\n    /* \"#utility.yul\":1536:1555   */\n  and\n    /* \"#utility.yul\":1529:1534   */\n  dup5\n    /* \"#utility.yul\":1526:1556   */\n  or\n    /* \"#utility.yul\":1516:1556   */\n  swap3\n  pop\n    /* \"#utility.yul\":1245:1562   */\n  pop\n  pop\n    /* \"#utility.yul\":1169:1562   */\n  swap4\n  swap3\n  pop\n  pop\n  pop\n  jump\t// out\n    /* \"#utility.yul\":1568:1645   */\ntag_18:\n    /* \"#utility.yul\":1605:1612   */\n  0x00\n    /* \"#utility.yul\":1634:1639   */\n  dup2\n    /* \"#utility.yul\":1623:1639   */\n  swap1\n  pop\n    /* \"#utility.yul\":1568:1645   */\n  swap2\n  swap1\n  pop\n  jump\t// out\n    /* \"#utility.yul\":1651:1711   */\ntag_19:\n    /* \"#utility.yul\":1679:1682   */\n  0x00\n    /* \"#utility.yul\":1700:1705   */\n  dup2\n    /* \"#utility.yul\":1693:1705   */\n  swap1\n  pop\n    /* \"#utility.yul\":1651:1711   */\n  swap2\n  swap1\n  pop\n  jump\t// out\n    /* \"#utility.yul\":1717:1859   */\ntag_20:\n    /* \"#utility.yul\":1767:1776   */\n  0x00\n    /* \"#utility.yul\":1800:1853   */\n  tag_47\n    /* \"#utility.yul\":1818:1852   */\n  tag_48\n    /* \"#utility.yul\":1827:1851   */\n  tag_49\n    /* \"#utility.yul\":1845:1850   */\n  dup5\n    /* \"#utility.yul\":1827:1851   */\n  tag_18\n  jump\t// in\ntag_49:\n    /* \"#utility.yul\":1818:1852   */\n  tag_19\n  jump\t// in\ntag_48:\n    /* \"#utility.yul\":1800:1853   */\n  tag_18\n  jump\t// in\ntag_47:\n    /* \"#utility.yul\":1787:1853   */\n  swap1\n  pop\n    /* \"#utility.yul\":1717:1859   */\n  swap2\n  swap1\n  pop\n  jump\t// out\n    /* \"#utility.yul\":1865:1940   */\ntag_21:\n    /* \"#utility.yul\":1908:1911   */\n  0x00\n    /* \"#utility.yul\":1929:1934   */\n  dup2\n    /* \"#utility.yul\":1922:1934   */\n  swap1\n  pop\n    /* \"#utility.yul\":1865:1940   */\n  swap2\n  swap1\n  pop\n  jump\t// out\n    /* \"#utility.yul\":1946:2215   */\ntag_22:\n    /* \"#utility.yul\":2056:2095   */\n  tag_52\n    /* \"#utility.yul\":2087:2094   */\n  dup4\n    /* \"#utility.yul\":2056:2095   */\n  tag_20\n  jump\t// in\ntag_52:\n    /* \"#utility.yul\":2117:2208   */\n  tag_53\n    /* \"#utility.yul\":2166:2207   */\n  tag_54\n    /* \"#utility.yul\":2190:2206   */\n  dup3\n    /* \"#utility.yul\":2166:2207   */\n  tag_21\n  jump\t// in\ntag_54:\n    /* \"#utility.yul\":2158:2164   */\n  dup5\n    /* \"#utility.yul\":2151:2155   */\n  dup5\n    /* \"#utility.yul\":2145:2156   */\n  sload\n    /* \"#utility.yul\":2117:2208   */\n  tag_17\n  jump\t// in\ntag_53:\n    /* \"#utility.yul\":2111:2115   */\n  dup3\n    /* \"#utility.yul\":2104:2209   */\n  sstore\n    /* \"#utility.yul\":2022:2215   */\n  pop\n    /* \"#utility.yul\":1946:2215   */\n  pop\n  pop\n  pop\n  jump\t// out\n    /* \"#utility.yul\":2221:2294   */\ntag_23:\n    /* \"#utility.yul\":2266:2269   */\n  0x00\n    /* \"#utility.yul\":2287:2288   */\n  0x00\n    /* \"#utility.yul\":2280:2288   */\n  swap1\n  pop\n    /* \"#utility.yul\":2221:2294   */\n  swap1\n  jump\t// out\n    /* \"#utility.yul\":2300:2489   */\ntag_24:\n    /* \"#utility.yul\":2377:2409   */\n  tag_57\n  tag_23\n  jump\t// in\ntag_57:\n    /* \"#utility.yul\":2418:2483   */\n  tag_58\n    /* \"#utility.yul\":2476:2482   */\n  dup2\n    /* \"#utility.yul\":2468:2474   */\n  dup5\n    /* \"#utility.yul\":2462:2466   */\n  dup5\n    /* \"#utility.yul\":2418:2483   */\n  tag_22\n  jump\t// in\ntag_58:\n    /* \"#utility.yul\":2353:2489   */\n  pop\n    /* \"#utility.yul\":2300:2489   */\n  pop\n  pop\n  jump\t// out\n    /* \"#utility.yul\":2495:2681   */\ntag_25:\n    /* \"#utility.yul\":2555:2675   */\ntag_60:\n    /* \"#utility.yul\":2572:2575   */\n  dup2\n    /* \"#utility.yul\":2565:2570   */\n  dup2\n    /* \"#utility.yul\":2562:2576   */\n  lt\n    /* \"#utility.yul\":2555:2675   */\n  iszero\n  tag_62\n  jumpi\n    /* \"#utility.yul\":2626:2665   */\n  tag_63\n    /* \"#utility.yul\":2663:2664   */\n  0x00\n    /* \"#utility.yul\":2656:2661   */\n  dup3\n    /* \"#utility.yul\":2626:2665   */\n  tag_24\n  jump\t// in\ntag_63:\n    /* \"#utility.yul\":2599:2600   */\n  0x01\n    /* \"#utility.yul\":2592:2597   */\n  dup2\n    /* \"#utility.yul\":2588:2601   */\n  add\n    /* \"#utility.yul\":2579:2601   */\n  swap1\n  pop\n    /* \"#utility.yul\":2555:2675   */\n  jump(tag_60)\ntag_62:\n    /* \"#utility.yul\":2495:2681   */\n  pop\n  pop\n  jump\t// out\n    /* \"#utility.yul\":2687:3230   */\ntag_26:\n    /* \"#utility.yul\":2788:2790   */\n  0x1f\n    /* \"#utility.yul\":2783:2786   */\n  dup3\n    /* \"#utility.yul\":2780:2791   */\n  gt\n    /* \"#utility.yul\":2777:3223   */\n  iszero\n  tag_65\n  jumpi\n    /* \"#utility.yul\":2822:2860   */\n  tag_66\n    /* \"#utility.yul\":2854:2859   */\n  dup2\n    /* \"#utility.yul\":2822:2860   */\n  tag_14\n  jump\t// in\ntag_66:\n    /* \"#utility.yul\":2906:2935   */\n  tag_67\n    /* \"#utility.yul\":2924:2934   */\n  dup5\n    /* \"#utility.yul\":2906:2935   */\n  tag_15\n  jump\t// in\ntag_67:\n    /* \"#utility.yul\":2896:2904   */\n  dup2\n    /* \"#utility.yul\":2892:2936   */\n  add\n    /* \"#utility.yul\":3089:3091   */\n  0x20\n    /* \"#utility.yul\":3077:3087   */\n  dup6\n    /* \"#utility.yul\":3074:3092   */\n  lt\n    /* \"#utility.yul\":3071:3120   */\n  iszero\n  tag_68\n  jumpi\n    /* \"#utility.yul\":3110:3118   */\n  dup2\n    /* \"#utility.yul\":3095:3118   */\n  swap1\n  pop\n    /* \"#utility.yul\":3071:3120   */\ntag_68:\n    /* \"#utility.yul\":3133:3213   */\n  tag_69\n    /* \"#utility.yul\":3189:3211   */\n  tag_70\n    /* \"#utility.yul\":3207:3210   */\n  dup6\n    /* \"#utility.yul\":3189:3211   */\n  tag_15\n  jump\t// in\ntag_70:\n    /* \"#utility.yul\":3179:3187   */\n  dup4\n    /* \"#utility.yul\":3175:3212   */\n  add\n    /* \"#utility.yul\":3162:3173   */\n  dup3\n    /* \"#utility.yul\":3133:3213   */\n  tag_25\n  jump\t// in\ntag_69:\n    /* \"#utility.yul\":2792:3223   */\n  pop\n  pop\n    /* \"#utility.yul\":2777:3223   */\ntag_65:\n    /* \"#utility.yul\":2687:3230   */\n  pop\n  pop\n  pop\n  jump\t// out\n    /* \"#utility.yul\":3236:3353   */\ntag_27:\n    /* \"#utility.yul\":3290:3298   */\n  0x00\n    /* \"#utility.yul\":3340:3345   */\n  dup3\n    /* \"#utility.yul\":3334:3338   */\n  dup3\n    /* \"#utility.yul\":3330:3346   */\n  shr\n    /* \"#utility.yul\":3309:3346   */\n  swap1\n  pop\n    /* \"#utility.yul\":3236:3353   */\n  swap3\n  swap2\n  pop\n  pop\n  jump\t// out\n    /* \"#utility.yul\":3359:3528   */\ntag_28:\n    /* \"#utility.yul\":3403:3409   */\n  0x00\n    /* \"#utility.yul\":3436:3487   */\n  tag_73\n    /* \"#utility.yul\":3484:3485   */\n  0x00\n    /* \"#utility.yul\":3480:3486   */\n  not\n    /* \"#utility.yul\":3472:3477   */\n  dup5\n    /* \"#utility.yul\":3469:3470   */\n  0x08\n    /* \"#utility.yul\":3465:3478   */\n  mul\n    /* \"#utility.yul\":3436:3487   */\n  tag_27\n  jump\t// in\ntag_73:\n    /* \"#utility.yul\":3432:3488   */\n  not\n    /* \"#utility.yul\":3517:3521   */\n  dup1\n    /* \"#utility.yul\":3511:3515   */\n  dup4\n    /* \"#utility.yul\":3507:3522   */\n  and\n    /* \"#utility.yul\":3497:3522   */\n  swap2\n  pop\n    /* \"#utility.yul\":3410:3528   */\n  pop\n    /* \"#utility.yul\":3359:3528   */\n  swap3\n  swap2\n  pop\n  pop\n  jump\t// out\n    /* \"#utility.yul\":3533:3828   */\ntag_29:\n    /* \"#utility.yul\":3609:3613   */\n  0x00\n    /* \"#utility.yul\":3755:3784   */\n  tag_75\n    /* \"#utility.yul\":3780:3783   */\n  dup4\n    /* \"#utility.yul\":3774:3778   */\n  dup4\n    /* \"#utility.yul\":3755:3784   */\n  tag_28\n  jump\t// in\ntag_75:\n    /* \"#utility.yul\":3747:3784   */\n  swap2\n  pop\n    /* \"#utility.yul\":3817:3820   */\n  dup3\n    /* \"#utility.yul\":3814:3815   */\n  0x02\n    /* \"#utility.yul\":3810:3821   */\n  mul\n    /* \"#utility.yul\":3804:3808   */\n  dup3\n    /* \"#utility.yul\":3801:3822   */\n  or\n    /* \"#utility.yul\":3793:3822   */\n  swap1\n  pop\n    /* \"#utility.yul\":3533:3828   */\n  swap3\n  swap2\n  pop\n  pop\n  jump\t// out\n    /* \"#utility.yul\":3833:5228   */\ntag_6:\n    /* \"#utility.yul\":3950:3987   */\n  tag_77\n    /* \"#utility.yul\":3983:3986   */\n  dup3\n    /* \"#utility.yul\":3950:3987   */\n  tag_10\n  jump\t// in\ntag_77:\n    /* \"#utility.yul\":4052:4070   */\n  0xffffffffffffffff\n    /* \"#utility.yul\":4044:4050   */\n  dup2\n    /* \"#utility.yul\":4041:4071   */\n  gt\n    /* \"#utility.yul\":4038:4094   */\n  iszero\n  tag_78\n  jumpi\n    /* \"#utility.yul\":4074:4092   */\n  tag_79\n  tag_11\n  jump\t// in\ntag_79:\n    /* \"#utility.yul\":4038:4094   */\ntag_78:\n    /* \"#utility.yul\":4118:4156   */\n  tag_80\n    /* \"#utility.yul\":4150:4154   */\n  dup3\n    /* \"#utility.yul\":4144:4155   */\n  sload\n    /* \"#utility.yul\":4118:4156   */\n  tag_13\n  jump\t// in\ntag_80:\n    /* \"#utility.yul\":4203:4270   */\n  tag_81\n    /* \"#utility.yul\":4263:4269   */\n  dup3\n    /* \"#utility.yul\":4255:4261   */\n  dup3\n    /* \"#utility.yul\":4249:4253   */\n  dup6\n    /* \"#utility.yul\":4203:4270   */\n  tag_26\n  jump\t// in\ntag_81:\n    /* \"#utility.yul\":4297:4298   */\n  0x00\n    /* \"#utility.yul\":4321:4325   */\n  0x20\n    /* \"#utility.yul\":4308:4325   */\n  swap1\n  pop\n    /* \"#utility.yul\":4353:4355   */\n  0x1f\n    /* \"#utility.yul\":4345:4351   */\n  dup4\n    /* \"#utility.yul\":4342:4356   */\n  gt\n    /* \"#utility.yul\":4370:4371   */\n  0x01\n    /* \"#utility.yul\":4365:4983   */\n  dup2\n  eq\n  tag_83\n  jumpi\n    /* \"#utility.yul\":5027:5028   */\n  0x00\n    /* \"#utility.yul\":5044:5050   */\n  dup5\n    /* \"#utility.yul\":5041:5118   */\n  iszero\n  tag_84\n  jumpi\n    /* \"#utility.yul\":5093:5102   */\n  dup3\n    /* \"#utility.yul\":5088:5091   */\n  dup8\n    /* \"#utility.yul\":5084:5103   */\n  add\n    /* \"#utility.yul\":5078:5104   */\n  mload\n    /* \"#utility.yul\":5069:5104   */\n  swap1\n  pop\n    /* \"#utility.yul\":5041:5118   */\ntag_84:\n    /* \"#utility.yul\":5144:5211   */\n  tag_85\n    /* \"#utility.yul\":5204:5210   */\n  dup6\n    /* \"#utility.yul\":5197:5202   */\n  dup3\n    /* \"#utility.yul\":5144:5211   */\n  tag_29\n  jump\t// in\ntag_85:\n    /* \"#utility.yul\":5138:5142   */\n  dup7\n    /* \"#utility.yul\":5131:5212   */\n  sstore\n    /* \"#utility.yul\":5000:5222   */\n  pop\n    /* \"#utility.yul\":4335:5222   */\n  jump(tag_82)\n    /* \"#utility.yul\":4365:4983   */\ntag_83:\n    /* \"#utility.yul\":4417:4421   */\n  0x1f\n    /* \"#utility.yul\":4413:4422   */\n  not\n    /* \"#utility.yul\":4405:4411   */\n  dup5\n    /* \"#utility.yul\":4401:4423   */\n  and\n    /* \"#utility.yul\":4451:4488   */\n  tag_86\n    /* \"#utility.yul\":4483:4487   */\n  dup7\n    /* \"#utility.yul\":4451:4488   */\n  tag_14\n  jump\t// in\ntag_86:\n    /* \"#utility.yul\":4510:4511   */\n  0x00\n    /* \"#utility.yul\":4524:4732   */\ntag_87:\n    /* \"#utility.yul\":4538:4545   */\n  dup3\n    /* \"#utility.yul\":4535:4536   */\n  dup2\n    /* \"#utility.yul\":4532:4546   */\n  lt\n    /* \"#utility.yul\":4524:4732   */\n  iszero\n  tag_89\n  jumpi\n    /* \"#utility.yul\":4617:4626   */\n  dup5\n    /* \"#utility.yul\":4612:4615   */\n  dup10\n    /* \"#utility.yul\":4608:4627   */\n  add\n    /* \"#utility.yul\":4602:4628   */\n  mload\n    /* \"#utility.yul\":4594:4600   */\n  dup3\n    /* \"#utility.yul\":4587:4629   */\n  sstore\n    /* \"#utility.yul\":4668:4669   */\n  0x01\n    /* \"#utility.yul\":4660:4666   */\n  dup3\n    /* \"#utility.yul\":4656:4670   */\n  add\n    /* \"#utility.yul\":4646:4670   */\n  swap2\n  pop\n    /* \"#utility.yul\":4715:4717   */\n  0x20\n    /* \"#utility.yul\":4704:4713   */\n  dup6\n    /* \"#utility.yul\":4700:4718   */\n  add\n    /* \"#utility.yul\":4687:4718   */\n  swap5\n  pop\n    /* \"#utility.yul\":4561:4565   */\n  0x20\n    /* \"#utility.yul\":4558:4559   */\n  dup2\n    /* \"#utility.yul\":4554:4566   */\n  add\n    /* \"#utility.yul\":4549:4566   */\n  swap1\n  pop\n    /* \"#utility.yul\":4524:4732   */\n  jump(tag_87)\ntag_89:\n    /* \"#utility.yul\":4760:4766   */\n  dup7\n    /* \"#utility.yul\":4751:4758   */\n  dup4\n    /* \"#utility.yul\":4748:4767   */\n  lt\n    /* \"#utility.yul\":4745:4924   */\n  iszero\n  tag_90\n  jumpi\n    /* \"#utility.yul\":4818:4827   */\n  dup5\n    /* \"#utility.yul\":4813:4816   */\n  dup10\n    /* \"#utility.yul\":4809:4828   */\n  add\n    /* \"#utility.yul\":4803:4829   */\n  mload\n    /* \"#utility.yul\":4861:4909   */\n  tag_91\n    /* \"#utility.yul\":4903:4907   */\n  0x1f\n    /* \"#utility.yul\":4895:4901   */\n  dup10\n    /* \"#utility.yul\":4891:4908   */\n  and\n    /* \"#utility.yul\":4880:4889   */\n  dup3\n    /* \"#utility.yul\":4861:4909   */\n  tag_28\n  jump\t// in\ntag_91:\n    /* \"#utility.yul\":4853:4859   */\n  dup4\n    /* \"#utility.yul\":4846:4910   */\n  sstore\n    /* \"#utility.yul\":4768:4924   */\n  pop\n    /* \"#utility.yul\":4745:4924   */\ntag_90:\n    /* \"#utility.yul\":4970:4971   */\n  0x01\n    /* \"#utility.yul\":4966:4967   */\n  0x02\n    /* \"#utility.yul\":4958:4964   */\n  dup9\n    /* \"#utility.yul\":4954:4968   */\n  mul\n    /* \"#utility.yul\":4950:4972   */\n  add\n    /* \"#utility.yul\":4944:4948   */\n  dup9\n    /* \"#utility.yul\":4937:4973   */\n  sstore\n    /* \"#utility.yul\":4372:4983   */\n  pop\n  pop\n  pop\n    /* \"#utility.yul\":4335:5222   */\ntag_82:\n  pop\n    /* \"#utility.yul\":3925:5228   */\n  pop\n  pop\n  pop\n    /* \"#utility.yul\":3833:5228   */\n  pop\n  pop\n  jump\t// out\n    /* \"Qsito/carnaval.sol\":119:4927  contract CarnavalScores is ERC20 {... */\ntag_9:\n  dataSize(sub_0)\n  dup1\n  dataOffset(sub_0)\n  0x00\n  codecopy\n  0x00\n  return\nstop\n\nsub_0: assembly {\n        /* \"Qsito/carnaval.sol\":119:4927  contract CarnavalScores is ERC20 {... */\n      mstore(0x40, 0x80)\n      callvalue\n      dup1\n      iszero\n      tag_1\n      jumpi\n      revert(0x00, 0x00)\n    tag_1:\n      pop\n      jumpi(tag_2, lt(calldatasize, 0x04))\n      shr(0xe0, calldataload(0x00))\n      dup1\n      0x70a08231\n      gt\n      tag_25\n      jumpi\n      dup1\n      0xa916b987\n      gt\n      tag_26\n      jumpi\n      dup1\n      0xa916b987\n      eq\n      tag_19\n      jumpi\n      dup1\n      0xda1c13ed\n      eq\n      tag_20\n      jumpi\n      dup1\n      0xdd62ed3e\n      eq\n      tag_21\n      jumpi\n      dup1\n      0xe2eae4db\n      eq\n      tag_22\n      jumpi\n      dup1\n      0xe49a39dc\n      eq\n      tag_23\n      jumpi\n      dup1\n      0xfceb2d39\n      eq\n      tag_24\n      jumpi\n      jump(tag_2)\n    tag_26:\n      dup1\n      0x70a08231\n      eq\n      tag_14\n      jumpi\n      dup1\n      0x8da5cb5b\n      eq\n      tag_15\n      jumpi\n      dup1\n      0x95d89b41\n      eq\n      tag_16\n      jumpi\n      dup1\n      0xa4caf2f6\n      eq\n      tag_17\n      jumpi\n      dup1\n      0xa9059cbb\n      eq\n      tag_18\n      jumpi\n      jump(tag_2)\n    tag_25:\n      dup1\n      0x1f12a015\n      gt\n      tag_27\n      jumpi\n      dup1\n      0x1f12a015\n      eq\n      tag_8\n      jumpi\n      dup1\n      0x23b872dd\n      eq\n      tag_9\n      jumpi\n      dup1\n      0x313ce567\n      eq\n      tag_10\n      jumpi\n      dup1\n      0x4ce8b096\n      eq\n      tag_11\n      jumpi\n      dup1\n      0x4d4b6681\n      eq\n      tag_12\n      jumpi\n      dup1\n      0x66885744\n      eq\n      tag_13\n      jumpi\n      jump(tag_2)\n    tag_27:\n      dup1\n      0x05ae501e\n      eq\n      tag_3\n      jumpi\n      dup1\n      0x06fdde03\n      eq\n      tag_4\n      jumpi\n      dup1\n      0x095ea7b3\n      eq\n      tag_5\n      jumpi\n      dup1\n      0x162f17a9\n      eq\n      tag_6\n      jumpi\n      dup1\n      0x18160ddd\n      eq\n      tag_7\n      jumpi\n    tag_2:\n      revert(0x00, 0x00)\n        /* \"Qsito/carnaval.sol\":3278:3793  function registrarNota(uint _escolaId, uint _quesitoId, uint _nota) public {... */\n    tag_3:\n      tag_28\n      0x04\n      dup1\n      calldatasize\n      sub\n      dup2\n      add\n      swap1\n      tag_29\n      swap2\n      swap1\n      tag_30\n      jump\t// in\n    tag_29:\n      tag_31\n      jump\t// in\n    tag_28:\n      stop\n        /* \"@openzeppelin/contracts/token/ERC20/ERC20.sol\":1779:1868  function name() public view virtual returns (string memory) {... */\n    tag_4:\n      tag_32\n      tag_33\n      jump\t// in\n    tag_32:\n      mload(0x40)\n      tag_34\n      swap2\n      swap1\n      tag_35\n      jump\t// in\n    tag_34:\n      mload(0x40)\n      dup1\n      swap2\n      sub\n      swap1\n      return\n        /* \"@openzeppelin/contracts/token/ERC20/ERC20.sol\":3998:4184  function approve(address spender, uint256 value) public virtual returns (bool) {... */\n    tag_5:\n      tag_36\n      0x04\n      dup1\n      calldatasize\n      sub\n      dup2\n      add\n      swap1\n      tag_37\n      swap2\n      swap1\n      tag_38\n      jump\t// in\n    tag_37:\n      tag_39\n      jump\t// in\n    tag_36:\n      mload(0x40)\n      tag_40\n      swap2\n      swap1\n      tag_41\n      jump\t// in\n    tag_40:\n      mload(0x40)\n      dup1\n      swap2\n      sub\n      swap1\n      return\n        /* \"Qsito/carnaval.sol\":820:839  Nota[] public notas */\n    tag_6:\n      tag_42\n      0x04\n      dup1\n      calldatasize\n      sub\n      dup2\n      add\n      swap1\n      tag_43\n      swap2\n      swap1\n      tag_44\n      jump\t// in\n    tag_43:\n      tag_45\n      jump\t// in\n    tag_42:\n      mload(0x40)\n      tag_46\n      swap5\n      swap4\n      swap3\n      swap2\n      swap1\n      tag_47\n      jump\t// in\n    tag_46:\n      mload(0x40)\n      dup1\n      swap2\n      sub\n      swap1\n      return\n        /* \"@openzeppelin/contracts/token/ERC20/ERC20.sol\":2849:2946  function totalSupply() public view virtual returns (uint256) {... */\n    tag_7:\n      tag_48\n      tag_49\n      jump\t// in\n    tag_48:\n      mload(0x40)\n      tag_50\n      swap2\n      swap1\n      tag_51\n      jump\t// in\n    tag_50:\n      mload(0x40)\n      dup1\n      swap2\n      sub\n      swap1\n      return\n        /* \"Qsito/carnaval.sol\":852:893  mapping(address => Jurado) public jurados */\n    tag_8:\n      tag_52\n      0x04\n      dup1\n      calldatasize\n      sub\n      dup2\n      add\n      swap1\n      tag_53\n      swap2\n      swap1\n      tag_54\n      jump\t// in\n    tag_53:\n      tag_55\n      jump\t// in\n    tag_52:\n      mload(0x40)\n      tag_56\n      swap4\n      swap3\n      swap2\n      swap1\n      tag_57\n      jump\t// in\n    tag_56:\n      mload(0x40)\n      dup1\n      swap2\n      sub\n      swap1\n      return\n        /* \"@openzeppelin/contracts/token/ERC20/ERC20.sol\":4776:5020  function transferFrom(address from, address to, uint256 value) public virtual returns (bool) {... */\n    tag_9:\n      tag_58\n      0x04\n      dup1\n      calldatasize\n      sub\n      dup2\n      add\n      swap1\n      tag_59\n      swap2\n      swap1\n      tag_60\n      jump\t// in\n    tag_59:\n      tag_61\n      jump\t// in\n    tag_58:\n      mload(0x40)\n      tag_62\n      swap2\n      swap1\n      tag_41\n      jump\t// in\n    tag_62:\n      mload(0x40)\n      dup1\n      swap2\n      sub\n      swap1\n      return\n        /* \"@openzeppelin/contracts/token/ERC20/ERC20.sol\":2707:2789  function decimals() public view virtual returns (uint8) {... */\n    tag_10:\n      tag_63\n      tag_64\n      jump\t// in\n    tag_63:\n      mload(0x40)\n      tag_65\n      swap2\n      swap1\n      tag_66\n      jump\t// in\n    tag_65:\n      mload(0x40)\n      dup1\n      swap2\n      sub\n      swap1\n      return\n        /* \"Qsito/carnaval.sol\":4133:4300  function getAllQuesitos() public view returns  (Quesito[] memory){... */\n    tag_11:\n      tag_67\n      tag_68\n      jump\t// in\n    tag_67:\n      mload(0x40)\n      tag_69\n      swap2\n      swap1\n      tag_70\n      jump\t// in\n    tag_69:\n      mload(0x40)\n      dup1\n      swap2\n      sub\n      swap1\n      return\n        /* \"Qsito/carnaval.sol\":1586:2140  function addJurado(string memory _nomeJurado, uint _quesitoId) public onlyOwner returns (uint) {... */\n    tag_12:\n      tag_71\n      0x04\n      dup1\n      calldatasize\n      sub\n      dup2\n      add\n      swap1\n      tag_72\n      swap2\n      swap1\n      tag_73\n      jump\t// in\n    tag_72:\n      tag_74\n      jump\t// in\n    tag_71:\n      mload(0x40)\n      tag_75\n      swap2\n      swap1\n      tag_51\n      jump\t// in\n    tag_75:\n      mload(0x40)\n      dup1\n      swap2\n      sub\n      swap1\n      return\n        /* \"Qsito/carnaval.sol\":3849:4100  function getNota(uint _escolaId, uint _quesitoId) public view returns (uint256) {... */\n    tag_13:\n      tag_76\n      0x04\n      dup1\n      calldatasize\n      sub\n      dup2\n      add\n      swap1\n      tag_77\n      swap2\n      swap1\n      tag_78\n      jump\t// in\n    tag_77:\n      tag_79\n      jump\t// in\n    tag_76:\n      mload(0x40)\n      tag_80\n      swap2\n      swap1\n      tag_51\n      jump\t// in\n    tag_80:\n      mload(0x40)\n      dup1\n      swap2\n      sub\n      swap1\n      return\n        /* \"@openzeppelin/contracts/token/ERC20/ERC20.sol\":3004:3120  function balanceOf(address account) public view virtual returns (uint256) {... */\n    tag_14:\n      tag_81\n      0x04\n      dup1\n      calldatasize\n      sub\n      dup2\n      add\n      swap1\n      tag_82\n      swap2\n      swap1\n      tag_54\n      jump\t// in\n    tag_82:\n      tag_83\n      jump\t// in\n    tag_81:\n      mload(0x40)\n      tag_84\n      swap2\n      swap1\n      tag_51\n      jump\t// in\n    tag_84:\n      mload(0x40)\n      dup1\n      swap2\n      sub\n      swap1\n      return\n        /* \"Qsito/carnaval.sol\":1021:1041  address public owner */\n    tag_15:\n      tag_85\n      tag_86\n      jump\t// in\n    tag_85:\n      mload(0x40)\n      tag_87\n      swap2\n      swap1\n      tag_88\n      jump\t// in\n    tag_87:\n      mload(0x40)\n      dup1\n      swap2\n      sub\n      swap1\n      return\n        /* \"@openzeppelin/contracts/token/ERC20/ERC20.sol\":1981:2074  function symbol() public view virtual returns (string memory) {... */\n    tag_16:\n      tag_89\n      tag_90\n      jump\t// in\n    tag_89:\n      mload(0x40)\n      tag_91\n      swap2\n      swap1\n      tag_35\n      jump\t// in\n    tag_91:\n      mload(0x40)\n      dup1\n      swap2\n      sub\n      swap1\n      return\n        /* \"Qsito/carnaval.sol\":4330:4491  function getAllEscolas() public view returns  (Escola[] memory){... */\n    tag_17:\n      tag_92\n      tag_93\n      jump\t// in\n    tag_92:\n      mload(0x40)\n      tag_94\n      swap2\n      swap1\n      tag_95\n      jump\t// in\n    tag_94:\n      mload(0x40)\n      dup1\n      swap2\n      sub\n      swap1\n      return\n        /* \"@openzeppelin/contracts/token/ERC20/ERC20.sol\":3315:3493  function transfer(address to, uint256 value) public virtual returns (bool) {... */\n    tag_18:\n      tag_96\n      0x04\n      dup1\n      calldatasize\n      sub\n      dup2\n      add\n      swap1\n      tag_97\n      swap2\n      swap1\n      tag_38\n      jump\t// in\n    tag_97:\n      tag_98\n      jump\t// in\n    tag_96:\n      mload(0x40)\n      tag_99\n      swap2\n      swap1\n      tag_41\n      jump\t// in\n    tag_99:\n      mload(0x40)\n      dup1\n      swap2\n      sub\n      swap1\n      return\n        /* \"Qsito/carnaval.sol\":900:967  mapping(uint => mapping(uint => Nota)) public notasPorEscolaQuesito */\n    tag_19:\n      tag_100\n      0x04\n      dup1\n      calldatasize\n      sub\n      dup2\n      add\n      swap1\n      tag_101\n      swap2\n      swap1\n      tag_78\n      jump\t// in\n    tag_101:\n      tag_102\n      jump\t// in\n    tag_100:\n      mload(0x40)\n      tag_103\n      swap5\n      swap4\n      swap3\n      swap2\n      swap1\n      tag_47\n      jump\t// in\n    tag_103:\n      mload(0x40)\n      dup1\n      swap2\n      sub\n      swap1\n      return\n        /* \"Qsito/carnaval.sol\":2718:3249  function addQuesitos(string[] memory _nomeQuesitos) public onlyOwner {... */\n    tag_20:\n      tag_104\n      0x04\n      dup1\n      calldatasize\n      sub\n      dup2\n      add\n      swap1\n      tag_105\n      swap2\n      swap1\n      tag_106\n      jump\t// in\n    tag_105:\n      tag_107\n      jump\t// in\n    tag_104:\n      stop\n        /* \"@openzeppelin/contracts/token/ERC20/ERC20.sol\":3551:3691  function allowance(address owner, address spender) public view virtual returns (uint256) {... */\n    tag_21:\n      tag_108\n      0x04\n      dup1\n      calldatasize\n      sub\n      dup2\n      add\n      swap1\n      tag_109\n      swap2\n      swap1\n      tag_110\n      jump\t// in\n    tag_109:\n      tag_111\n      jump\t// in\n    tag_108:\n      mload(0x40)\n      tag_112\n      swap2\n      swap1\n      tag_51\n      jump\t// in\n    tag_112:\n      mload(0x40)\n      dup1\n      swap2\n      sub\n      swap1\n      return\n        /* \"Qsito/carnaval.sol\":696:747  Jurado[QUANTIDADE_JURADOS] public quantidadeJurados */\n    tag_22:\n      tag_113\n      0x04\n      dup1\n      calldatasize\n      sub\n      dup2\n      add\n      swap1\n      tag_114\n      swap2\n      swap1\n      tag_44\n      jump\t// in\n    tag_114:\n      tag_115\n      jump\t// in\n    tag_113:\n      mload(0x40)\n      tag_116\n      swap4\n      swap3\n      swap2\n      swap1\n      tag_57\n      jump\t// in\n    tag_116:\n      mload(0x40)\n      dup1\n      swap2\n      sub\n      swap1\n      return\n        /* \"Qsito/carnaval.sol\":4529:4924  function limparDados() public onlyOwner {... */\n    tag_23:\n      tag_117\n      tag_118\n      jump\t// in\n    tag_117:\n      stop\n        /* \"Qsito/carnaval.sol\":2170:2685  function addEscolas(string[] memory _nomeEscolas) public onlyOwner {... */\n    tag_24:\n      tag_119\n      0x04\n      dup1\n      calldatasize\n      sub\n      dup2\n      add\n      swap1\n      tag_120\n      swap2\n      swap1\n      tag_106\n      jump\t// in\n    tag_120:\n      tag_121\n      jump\t// in\n    tag_119:\n      stop\n        /* \"Qsito/carnaval.sol\":3278:3793  function registrarNota(uint _escolaId, uint _quesitoId, uint _nota) public {... */\n    tag_31:\n        /* \"Qsito/carnaval.sol\":3404:3414  msg.sender */\n      caller\n        /* \"Qsito/carnaval.sol\":3372:3414  jurados[msg.sender].endereco == msg.sender */\n      0xffffffffffffffffffffffffffffffffffffffff\n      and\n        /* \"Qsito/carnaval.sol\":3372:3379  jurados */\n      0x74\n        /* \"Qsito/carnaval.sol\":3372:3391  jurados[msg.sender] */\n      0x00\n        /* \"Qsito/carnaval.sol\":3380:3390  msg.sender */\n      caller\n        /* \"Qsito/carnaval.sol\":3372:3391  jurados[msg.sender] */\n      0xffffffffffffffffffffffffffffffffffffffff\n      and\n      0xffffffffffffffffffffffffffffffffffffffff\n      and\n      dup2\n      mstore\n      0x20\n      add\n      swap1\n      dup2\n      mstore\n      0x20\n      add\n      0x00\n      keccak256\n        /* \"Qsito/carnaval.sol\":3372:3400  jurados[msg.sender].endereco */\n      0x00\n      add\n      0x00\n      swap1\n      sload\n      swap1\n      0x0100\n      exp\n      swap1\n      div\n      0xffffffffffffffffffffffffffffffffffffffff\n      and\n        /* \"Qsito/carnaval.sol\":3372:3414  jurados[msg.sender].endereco == msg.sender */\n      0xffffffffffffffffffffffffffffffffffffffff\n      and\n      eq\n        /* \"Qsito/carnaval.sol\":3364:3450  require(jurados[msg.sender].endereco == msg.sender, \"Somente jurados podem registrar\") */\n      tag_123\n      jumpi\n      mload(0x40)\n      0x08c379a000000000000000000000000000000000000000000000000000000000\n      dup2\n      mstore\n      0x04\n      add\n      tag_124\n      swap1\n      tag_125\n      jump\t// in\n    tag_124:\n      mload(0x40)\n      dup1\n      swap2\n      sub\n      swap1\n      revert\n    tag_123:\n        /* \"Qsito/carnaval.sol\":3478:3481  900 */\n      0x0384\n        /* \"Qsito/carnaval.sol\":3469:3474  _nota */\n      dup2\n        /* \"Qsito/carnaval.sol\":3469:3481  _nota >= 900 */\n      lt\n      iszero\n        /* \"Qsito/carnaval.sol\":3469:3498  _nota >= 900 && _nota <= 1000 */\n      dup1\n      iszero\n      tag_126\n      jumpi\n      pop\n        /* \"Qsito/carnaval.sol\":3494:3498  1000 */\n      0x03e8\n        /* \"Qsito/carnaval.sol\":3485:3490  _nota */\n      dup2\n        /* \"Qsito/carnaval.sol\":3485:3498  _nota <= 1000 */\n      gt\n      iszero\n        /* \"Qsito/carnaval.sol\":3469:3498  _nota >= 900 && _nota <= 1000 */\n    tag_126:\n        /* \"Qsito/carnaval.sol\":3461:3518  require(_nota >= 900 && _nota <= 1000, \"Nota impossivel\") */\n      tag_127\n      jumpi\n      mload(0x40)\n      0x08c379a000000000000000000000000000000000000000000000000000000000\n      dup2\n      mstore\n      0x04\n      add\n      tag_128\n      swap1\n      tag_129\n      jump\t// in\n    tag_128:\n      mload(0x40)\n      dup1\n      swap2\n      sub\n      swap1\n      revert\n    tag_127:\n        /* \"Qsito/carnaval.sol\":3529:3545  Nota memory nota */\n      0x00\n        /* \"Qsito/carnaval.sol\":3548:3696  Nota({... */\n      mload(0x40)\n      dup1\n      0x80\n      add\n      0x40\n      mstore\n      dup1\n        /* \"Qsito/carnaval.sol\":3578:3587  _escolaId */\n      dup6\n        /* \"Qsito/carnaval.sol\":3548:3696  Nota({... */\n      dup2\n      mstore\n      0x20\n      add\n        /* \"Qsito/carnaval.sol\":3613:3623  _quesitoId */\n      dup5\n        /* \"Qsito/carnaval.sol\":3548:3696  Nota({... */\n      dup2\n      mstore\n      0x20\n      add\n        /* \"Qsito/carnaval.sol\":3648:3658  msg.sender */\n      caller\n        /* \"Qsito/carnaval.sol\":3548:3696  Nota({... */\n      0xffffffffffffffffffffffffffffffffffffffff\n      and\n      dup2\n      mstore\n      0x20\n      add\n        /* \"Qsito/carnaval.sol\":3679:3684  _nota */\n      dup4\n        /* \"Qsito/carnaval.sol\":3548:3696  Nota({... */\n      dup2\n      mstore\n      pop\n        /* \"Qsito/carnaval.sol\":3529:3696  Nota memory nota = Nota({... */\n      swap1\n      pop\n        /* \"Qsito/carnaval.sol\":3707:3712  notas */\n      0x73\n        /* \"Qsito/carnaval.sol\":3718:3722  nota */\n      dup2\n        /* \"Qsito/carnaval.sol\":3707:3723  notas.push(nota) */\n      swap1\n      dup1\n      0x01\n      dup2\n      sload\n      add\n      dup1\n      dup3\n      sstore\n      dup1\n      swap2\n      pop\n      pop\n      0x01\n      swap1\n      sub\n      swap1\n      0x00\n      mstore\n      keccak256(0x00, 0x20)\n      swap1\n      0x04\n      mul\n      add\n      0x00\n      swap1\n      swap2\n      swap1\n      swap2\n      swap1\n      swap2\n      pop\n      0x00\n      dup3\n      add\n      mload\n      dup2\n      0x00\n      add\n      sstore\n      0x20\n      dup3\n      add\n      mload\n      dup2\n      0x01\n      add\n      sstore\n      0x40\n      dup3\n      add\n      mload\n      dup2\n      0x02\n      add\n      exp(0x0100, 0x00)\n      dup2\n      sload\n      dup2\n      0xffffffffffffffffffffffffffffffffffffffff\n      mul\n      not\n      and\n      swap1\n      dup4\n      0xffffffffffffffffffffffffffffffffffffffff\n      and\n      mul\n      or\n      swap1\n      sstore\n      pop\n      0x60\n      dup3\n      add\n      mload\n      dup2\n      0x03\n      add\n      sstore\n      pop\n      pop\n        /* \"Qsito/carnaval.sol\":3781:3785  nota */\n      dup1\n        /* \"Qsito/carnaval.sol\":3734:3755  notasPorEscolaQuesito */\n      0x75\n        /* \"Qsito/carnaval.sol\":3734:3766  notasPorEscolaQuesito[_escolaId] */\n      0x00\n        /* \"Qsito/carnaval.sol\":3756:3765  _escolaId */\n      dup7\n        /* \"Qsito/carnaval.sol\":3734:3766  notasPorEscolaQuesito[_escolaId] */\n      dup2\n      mstore\n      0x20\n      add\n      swap1\n      dup2\n      mstore\n      0x20\n      add\n      0x00\n      keccak256\n        /* \"Qsito/carnaval.sol\":3734:3778  notasPorEscolaQuesito[_escolaId][_quesitoId] */\n      0x00\n        /* \"Qsito/carnaval.sol\":3767:3777  _quesitoId */\n      dup6\n        /* \"Qsito/carnaval.sol\":3734:3778  notasPorEscolaQuesito[_escolaId][_quesitoId] */\n      dup2\n      mstore\n      0x20\n      add\n      swap1\n      dup2\n      mstore\n      0x20\n      add\n      0x00\n      keccak256\n        /* \"Qsito/carnaval.sol\":3734:3785  notasPorEscolaQuesito[_escolaId][_quesitoId] = nota */\n      0x00\n      dup3\n      add\n      mload\n      dup2\n      0x00\n      add\n      sstore\n      0x20\n      dup3\n      add\n      mload\n      dup2\n      0x01\n      add\n      sstore\n      0x40\n      dup3\n      add\n      mload\n      dup2\n      0x02\n      add\n      exp(0x0100, 0x00)\n      dup2\n      sload\n      dup2\n      0xffffffffffffffffffffffffffffffffffffffff\n      mul\n      not\n      and\n      swap1\n      dup4\n      0xffffffffffffffffffffffffffffffffffffffff\n      and\n      mul\n      or\n      swap1\n      sstore\n      pop\n      0x60\n      dup3\n      add\n      mload\n      dup2\n      0x03\n      add\n      sstore\n      swap1\n      pop\n      pop\n        /* \"Qsito/carnaval.sol\":3353:3793  {... */\n      pop\n        /* \"Qsito/carnaval.sol\":3278:3793  function registrarNota(uint _escolaId, uint _quesitoId, uint _nota) public {... */\n      pop\n      pop\n      pop\n      jump\t// out\n        /* \"@openzeppelin/contracts/token/ERC20/ERC20.sol\":1779:1868  function name() public view virtual returns (string memory) {... */\n    tag_33:\n        /* \"@openzeppelin/contracts/token/ERC20/ERC20.sol\":1824:1837  string memory */\n      0x60\n        /* \"@openzeppelin/contracts/token/ERC20/ERC20.sol\":1856:1861  _name */\n      0x03\n        /* \"@openzeppelin/contracts/token/ERC20/ERC20.sol\":1849:1861  return _name */\n      dup1\n      sload\n      tag_132\n      swap1\n      tag_133\n      jump\t// in\n    tag_132:\n      dup1\n      0x1f\n      add\n      0x20\n      dup1\n      swap2\n      div\n      mul\n      0x20\n      add\n      mload(0x40)\n      swap1\n      dup2\n      add\n      0x40\n      mstore\n      dup1\n      swap3\n      swap2\n      swap1\n      dup2\n      dup2\n      mstore\n      0x20\n      add\n      dup3\n      dup1\n      sload\n      tag_134\n      swap1\n      tag_133\n      jump\t// in\n    tag_134:\n      dup1\n      iszero\n      tag_135\n      jumpi\n      dup1\n      0x1f\n      lt\n      tag_136\n      jumpi\n      0x0100\n      dup1\n      dup4\n      sload\n      div\n      mul\n      dup4\n      mstore\n      swap2\n      0x20\n      add\n      swap2\n      jump(tag_135)\n    tag_136:\n      dup3\n      add\n      swap2\n      swap1\n      0x00\n      mstore\n      keccak256(0x00, 0x20)\n      swap1\n    tag_137:\n      dup2\n      sload\n      dup2\n      mstore\n      swap1\n      0x01\n      add\n      swap1\n      0x20\n      add\n      dup1\n      dup4\n      gt\n      tag_137\n      jumpi\n      dup3\n      swap1\n      sub\n      0x1f\n      and\n      dup3\n      add\n      swap2\n    tag_135:\n      pop\n      pop\n      pop\n      pop\n      pop\n      swap1\n      pop\n        /* \"@openzeppelin/contracts/token/ERC20/ERC20.sol\":1779:1868  function name() public view virtual returns (string memory) {... */\n      swap1\n      jump\t// out\n        /* \"@openzeppelin/contracts/token/ERC20/ERC20.sol\":3998:4184  function approve(address spender, uint256 value) public virtual returns (bool) {... */\n    tag_39:\n        /* \"@openzeppelin/contracts/token/ERC20/ERC20.sol\":4071:4075  bool */\n      0x00\n        /* \"@openzeppelin/contracts/token/ERC20/ERC20.sol\":4087:4100  address owner */\n      0x00\n        /* \"@openzeppelin/contracts/token/ERC20/ERC20.sol\":4103:4115  _msgSender() */\n      tag_139\n        /* \"@openzeppelin/contracts/token/ERC20/ERC20.sol\":4103:4113  _msgSender */\n      tag_140\n        /* \"@openzeppelin/contracts/token/ERC20/ERC20.sol\":4103:4115  _msgSender() */\n      jump\t// in\n    tag_139:\n        /* \"@openzeppelin/contracts/token/ERC20/ERC20.sol\":4087:4115  address owner = _msgSender() */\n      swap1\n      pop\n        /* \"@openzeppelin/contracts/token/ERC20/ERC20.sol\":4125:4156  _approve(owner, spender, value) */\n      tag_141\n        /* \"@openzeppelin/contracts/token/ERC20/ERC20.sol\":4134:4139  owner */\n      dup2\n        /* \"@openzeppelin/contracts/token/ERC20/ERC20.sol\":4141:4148  spender */\n      dup6\n        /* \"@openzeppelin/contracts/token/ERC20/ERC20.sol\":4150:4155  value */\n      dup6\n        /* \"@openzeppelin/contracts/token/ERC20/ERC20.sol\":4125:4133  _approve */\n      tag_142\n        /* \"@openzeppelin/contracts/token/ERC20/ERC20.sol\":4125:4156  _approve(owner, spender, value) */\n      jump\t// in\n    tag_141:\n        /* \"@openzeppelin/contracts/token/ERC20/ERC20.sol\":4173:4177  true */\n      0x01\n        /* \"@openzeppelin/contracts/token/ERC20/ERC20.sol\":4166:4177  return true */\n      swap2\n      pop\n      pop\n        /* \"@openzeppelin/contracts/token/ERC20/ERC20.sol\":3998:4184  function approve(address spender, uint256 value) public virtual returns (bool) {... */\n      swap3\n      swap2\n      pop\n      pop\n      jump\t// out\n        /* \"Qsito/carnaval.sol\":820:839  Nota[] public notas */\n    tag_45:\n      0x73\n      dup2\n      dup2\n      sload\n      dup2\n      lt\n      tag_143\n      jumpi\n      0x00\n      dup1\n      revert\n    tag_143:\n      swap1\n      0x00\n      mstore\n      keccak256(0x00, 0x20)\n      swap1\n      0x04\n      mul\n      add\n      0x00\n      swap2\n      pop\n      swap1\n      pop\n      dup1\n      0x00\n      add\n      sload\n      swap1\n      dup1\n      0x01\n      add\n      sload\n      swap1\n      dup1\n      0x02\n      add\n      0x00\n      swap1\n      sload\n      swap1\n      0x0100\n      exp\n      swap1\n      div\n      0xffffffffffffffffffffffffffffffffffffffff\n      and\n      swap1\n      dup1\n      0x03\n      add\n      sload\n      swap1\n      pop\n      dup5\n      jump\t// out\n        /* \"@openzeppelin/contracts/token/ERC20/ERC20.sol\":2849:2946  function totalSupply() public view virtual returns (uint256) {... */\n    tag_49:\n        /* \"@openzeppelin/contracts/token/ERC20/ERC20.sol\":2901:2908  uint256 */\n      0x00\n        /* \"@openzeppelin/contracts/token/ERC20/ERC20.sol\":2927:2939  _totalSupply */\n      sload(0x02)\n        /* \"@openzeppelin/contracts/token/ERC20/ERC20.sol\":2920:2939  return _totalSupply */\n      swap1\n      pop\n        /* \"@openzeppelin/contracts/token/ERC20/ERC20.sol\":2849:2946  function totalSupply() public view virtual returns (uint256) {... */\n      swap1\n      jump\t// out\n        /* \"Qsito/carnaval.sol\":852:893  mapping(address => Jurado) public jurados */\n    tag_55:\n      mstore(0x20, 0x74)\n      dup1\n      0x00\n      mstore\n      keccak256(0x00, 0x40)\n      0x00\n      swap2\n      pop\n      swap1\n      pop\n      dup1\n      0x00\n      add\n      0x00\n      swap1\n      sload\n      swap1\n      0x0100\n      exp\n      swap1\n      div\n      0xffffffffffffffffffffffffffffffffffffffff\n      and\n      swap1\n      dup1\n      0x01\n      add\n      dup1\n      sload\n      tag_146\n      swap1\n      tag_133\n      jump\t// in\n    tag_146:\n      dup1\n      0x1f\n      add\n      0x20\n      dup1\n      swap2\n      div\n      mul\n      0x20\n      add\n      mload(0x40)\n      swap1\n      dup2\n      add\n      0x40\n      mstore\n      dup1\n      swap3\n      swap2\n      swap1\n      dup2\n      dup2\n      mstore\n      0x20\n      add\n      dup3\n      dup1\n      sload\n      tag_147\n      swap1\n      tag_133\n      jump\t// in\n    tag_147:\n      dup1\n      iszero\n      tag_148\n      jumpi\n      dup1\n      0x1f\n      lt\n      tag_149\n      jumpi\n      0x0100\n      dup1\n      dup4\n      sload\n      div\n      mul\n      dup4\n      mstore\n      swap2\n      0x20\n      add\n      swap2\n      jump(tag_148)\n    tag_149:\n      dup3\n      add\n      swap2\n      swap1\n      0x00\n      mstore\n      keccak256(0x00, 0x20)\n      swap1\n    tag_150:\n      dup2\n      sload\n      dup2\n      mstore\n      swap1\n      0x01\n      add\n      swap1\n      0x20\n      add\n      dup1\n      dup4\n      gt\n      tag_150\n      jumpi\n      dup3\n      swap1\n      sub\n      0x1f\n      and\n      dup3\n      add\n      swap2\n    tag_148:\n      pop\n      pop\n      pop\n      pop\n      pop\n      swap1\n      dup1\n      0x02\n      add\n      sload\n      swap1\n      pop\n      dup4\n      jump\t// out\n        /* \"@openzeppelin/contracts/token/ERC20/ERC20.sol\":4776:5020  function transferFrom(address from, address to, uint256 value) public virtual returns (bool) {... */\n    tag_61:\n        /* \"@openzeppelin/contracts/token/ERC20/ERC20.sol\":4863:4867  bool */\n      0x00\n        /* \"@openzeppelin/contracts/token/ERC20/ERC20.sol\":4879:4894  address spender */\n      0x00\n        /* \"@openzeppelin/contracts/token/ERC20/ERC20.sol\":4897:4909  _msgSender() */\n      tag_152\n        /* \"@openzeppelin/contracts/token/ERC20/ERC20.sol\":4897:4907  _msgSender */\n      tag_140\n        /* \"@openzeppelin/contracts/token/ERC20/ERC20.sol\":4897:4909  _msgSender() */\n      jump\t// in\n    tag_152:\n        /* \"@openzeppelin/contracts/token/ERC20/ERC20.sol\":4879:4909  address spender = _msgSender() */\n      swap1\n      pop\n        /* \"@openzeppelin/contracts/token/ERC20/ERC20.sol\":4919:4956  _spendAllowance(from, spender, value) */\n      tag_153\n        /* \"@openzeppelin/contracts/token/ERC20/ERC20.sol\":4935:4939  from */\n      dup6\n        /* \"@openzeppelin/contracts/token/ERC20/ERC20.sol\":4941:4948  spender */\n      dup3\n        /* \"@openzeppelin/contracts/token/ERC20/ERC20.sol\":4950:4955  value */\n      dup6\n        /* \"@openzeppelin/contracts/token/ERC20/ERC20.sol\":4919:4934  _spendAllowance */\n      tag_154\n        /* \"@openzeppelin/contracts/token/ERC20/ERC20.sol\":4919:4956  _spendAllowance(from, spender, value) */\n      jump\t// in\n    tag_153:\n        /* \"@openzeppelin/contracts/token/ERC20/ERC20.sol\":4966:4992  _transfer(from, to, value) */\n      tag_155\n        /* \"@openzeppelin/contracts/token/ERC20/ERC20.sol\":4976:4980  from */\n      dup6\n        /* \"@openzeppelin/contracts/token/ERC20/ERC20.sol\":4982:4984  to */\n      dup6\n        /* \"@openzeppelin/contracts/token/ERC20/ERC20.sol\":4986:4991  value */\n      dup6\n        /* \"@openzeppelin/contracts/token/ERC20/ERC20.sol\":4966:4975  _transfer */\n      tag_156\n        /* \"@openzeppelin/contracts/token/ERC20/ERC20.sol\":4966:4992  _transfer(from, to, value) */\n      jump\t// in\n    tag_155:\n        /* \"@openzeppelin/contracts/token/ERC20/ERC20.sol\":5009:5013  true */\n      0x01\n        /* \"@openzeppelin/contracts/token/ERC20/ERC20.sol\":5002:5013  return true */\n      swap2\n      pop\n      pop\n        /* \"@openzeppelin/contracts/token/ERC20/ERC20.sol\":4776:5020  function transferFrom(address from, address to, uint256 value) public virtual returns (bool) {... */\n      swap4\n      swap3\n      pop\n      pop\n      pop\n      jump\t// out\n        /* \"@openzeppelin/contracts/token/ERC20/ERC20.sol\":2707:2789  function decimals() public view virtual returns (uint8) {... */\n    tag_64:\n        /* \"@openzeppelin/contracts/token/ERC20/ERC20.sol\":2756:2761  uint8 */\n      0x00\n        /* \"@openzeppelin/contracts/token/ERC20/ERC20.sol\":2780:2782  18 */\n      0x12\n        /* \"@openzeppelin/contracts/token/ERC20/ERC20.sol\":2773:2782  return 18 */\n      swap1\n      pop\n        /* \"@openzeppelin/contracts/token/ERC20/ERC20.sol\":2707:2789  function decimals() public view virtual returns (uint8) {... */\n      swap1\n      jump\t// out\n        /* \"Qsito/carnaval.sol\":4133:4300  function getAllQuesitos() public view returns  (Quesito[] memory){... */\n    tag_68:\n        /* \"Qsito/carnaval.sol\":4181:4197  Quesito[] memory */\n      0x60\n        /* \"Qsito/carnaval.sol\":4236:4237  0 */\n      0x00\n        /* \"Qsito/carnaval.sol\":4217:4226  _quesitos */\n      0x72\n        /* \"Qsito/carnaval.sol\":4217:4233  _quesitos.length */\n      dup1\n      sload\n      swap1\n      pop\n        /* \"Qsito/carnaval.sol\":4217:4237  _quesitos.length > 0 */\n      gt\n        /* \"Qsito/carnaval.sol\":4209:4259  require(_quesitos.length > 0, \"No quesitos found\") */\n      tag_159\n      jumpi\n      mload(0x40)\n      0x08c379a000000000000000000000000000000000000000000000000000000000\n      dup2\n      mstore\n      0x04\n      add\n      tag_160\n      swap1\n      tag_161\n      jump\t// in\n    tag_160:\n      mload(0x40)\n      dup1\n      swap2\n      sub\n      swap1\n      revert\n    tag_159:\n        /* \"Qsito/carnaval.sol\":4283:4292  _quesitos */\n      0x72\n        /* \"Qsito/carnaval.sol\":4276:4292  return _quesitos */\n      dup1\n      sload\n      dup1\n      0x20\n      mul\n      0x20\n      add\n      mload(0x40)\n      swap1\n      dup2\n      add\n      0x40\n      mstore\n      dup1\n      swap3\n      swap2\n      swap1\n      dup2\n      dup2\n      mstore\n      0x20\n      add\n      0x00\n      swap1\n    tag_162:\n      dup3\n      dup3\n      lt\n      iszero\n      tag_163\n      jumpi\n      dup4\n      dup3\n      swap1\n      0x00\n      mstore\n      keccak256(0x00, 0x20)\n      swap1\n      0x02\n      mul\n      add\n      mload(0x40)\n      dup1\n      0x40\n      add\n      0x40\n      mstore\n      swap1\n      dup2\n      0x00\n      dup3\n      add\n      sload\n      dup2\n      mstore\n      0x20\n      add\n      0x01\n      dup3\n      add\n      dup1\n      sload\n      tag_165\n      swap1\n      tag_133\n      jump\t// in\n    tag_165:\n      dup1\n      0x1f\n      add\n      0x20\n      dup1\n      swap2\n      div\n      mul\n      0x20\n      add\n      mload(0x40)\n      swap1\n      dup2\n      add\n      0x40\n      mstore\n      dup1\n      swap3\n      swap2\n      swap1\n      dup2\n      dup2\n      mstore\n      0x20\n      add\n      dup3\n      dup1\n      sload\n      tag_166\n      swap1\n      tag_133\n      jump\t// in\n    tag_166:\n      dup1\n      iszero\n      tag_167\n      jumpi\n      dup1\n      0x1f\n      lt\n      tag_168\n      jumpi\n      0x0100\n      dup1\n      dup4\n      sload\n      div\n      mul\n      dup4\n      mstore\n      swap2\n      0x20\n      add\n      swap2\n      jump(tag_167)\n    tag_168:\n      dup3\n      add\n      swap2\n      swap1\n      0x00\n      mstore\n      keccak256(0x00, 0x20)\n      swap1\n    tag_169:\n      dup2\n      sload\n      dup2\n      mstore\n      swap1\n      0x01\n      add\n      swap1\n      0x20\n      add\n      dup1\n      dup4\n      gt\n      tag_169\n      jumpi\n      dup3\n      swap1\n      sub\n      0x1f\n      and\n      dup3\n      add\n      swap2\n    tag_167:\n      pop\n      pop\n      pop\n      pop\n      pop\n      dup2\n      mstore\n      pop\n      pop\n      dup2\n      mstore\n      0x20\n      add\n      swap1\n      0x01\n      add\n      swap1\n      jump(tag_162)\n    tag_163:\n      pop\n      pop\n      pop\n      pop\n      swap1\n      pop\n        /* \"Qsito/carnaval.sol\":4133:4300  function getAllQuesitos() public view returns  (Quesito[] memory){... */\n      swap1\n      jump\t// out\n        /* \"Qsito/carnaval.sol\":1586:2140  function addJurado(string memory _nomeJurado, uint _quesitoId) public onlyOwner returns (uint) {... */\n    tag_74:\n        /* \"Qsito/carnaval.sol\":1675:1679  uint */\n      0x00\n        /* \"Qsito/carnaval.sol\":1198:1203  owner */\n      0x76\n      0x00\n      swap1\n      sload\n      swap1\n      0x0100\n      exp\n      swap1\n      div\n      0xffffffffffffffffffffffffffffffffffffffff\n      and\n        /* \"Qsito/carnaval.sol\":1184:1203  msg.sender == owner */\n      0xffffffffffffffffffffffffffffffffffffffff\n      and\n        /* \"Qsito/carnaval.sol\":1184:1194  msg.sender */\n      caller\n        /* \"Qsito/carnaval.sol\":1184:1203  msg.sender == owner */\n      0xffffffffffffffffffffffffffffffffffffffff\n      and\n      eq\n        /* \"Qsito/carnaval.sol\":1176:1239  require(msg.sender == owner, \"Acesso restrito ao proprietario\") */\n      tag_171\n      jumpi\n      mload(0x40)\n      0x08c379a000000000000000000000000000000000000000000000000000000000\n      dup2\n      mstore\n      0x04\n      add\n      tag_172\n      swap1\n      tag_173\n      jump\t// in\n    tag_172:\n      mload(0x40)\n      dup1\n      swap2\n      sub\n      swap1\n      revert\n    tag_171:\n        /* \"Qsito/carnaval.sol\":579:581  36 */\n      0x24\n        /* \"Qsito/carnaval.sol\":1700:1719  _currentJuradoIndex */\n      sload(0x77)\n        /* \"Qsito/carnaval.sol\":1700:1740  _currentJuradoIndex < QUANTIDADE_JURADOS */\n      lt\n        /* \"Qsito/carnaval.sol\":1692:1773  require(_currentJuradoIndex < QUANTIDADE_JURADOS, \"Quantidade maxima de jurados\") */\n      tag_175\n      jumpi\n      mload(0x40)\n      0x08c379a000000000000000000000000000000000000000000000000000000000\n      dup2\n      mstore\n      0x04\n      add\n      tag_176\n      swap1\n      tag_177\n      jump\t// in\n    tag_176:\n      mload(0x40)\n      dup1\n      swap2\n      sub\n      swap1\n      revert\n    tag_175:\n        /* \"Qsito/carnaval.sol\":1806:1878  Jurado({endereco: msg.sender, nome: _nomeJurado, quesitoId: _quesitoId}) */\n      mload(0x40)\n      dup1\n      0x60\n      add\n      0x40\n      mstore\n      dup1\n        /* \"Qsito/carnaval.sol\":1824:1834  msg.sender */\n      caller\n        /* \"Qsito/carnaval.sol\":1806:1878  Jurado({endereco: msg.sender, nome: _nomeJurado, quesitoId: _quesitoId}) */\n      0xffffffffffffffffffffffffffffffffffffffff\n      and\n      dup2\n      mstore\n      0x20\n      add\n        /* \"Qsito/carnaval.sol\":1842:1853  _nomeJurado */\n      dup5\n        /* \"Qsito/carnaval.sol\":1806:1878  Jurado({endereco: msg.sender, nome: _nomeJurado, quesitoId: _quesitoId}) */\n      dup2\n      mstore\n      0x20\n      add\n        /* \"Qsito/carnaval.sol\":1866:1876  _quesitoId */\n      dup4\n        /* \"Qsito/carnaval.sol\":1806:1878  Jurado({endereco: msg.sender, nome: _nomeJurado, quesitoId: _quesitoId}) */\n      dup2\n      mstore\n      pop\n        /* \"Qsito/carnaval.sol\":1784:1791  jurados */\n      0x74\n        /* \"Qsito/carnaval.sol\":1784:1803  jurados[msg.sender] */\n      0x00\n        /* \"Qsito/carnaval.sol\":1792:1802  msg.sender */\n      caller\n        /* \"Qsito/carnaval.sol\":1784:1803  jurados[msg.sender] */\n      0xffffffffffffffffffffffffffffffffffffffff\n      and\n      0xffffffffffffffffffffffffffffffffffffffff\n      and\n      dup2\n      mstore\n      0x20\n      add\n      swap1\n      dup2\n      mstore\n      0x20\n      add\n      0x00\n      keccak256\n        /* \"Qsito/carnaval.sol\":1784:1878  jurados[msg.sender] = Jurado({endereco: msg.sender, nome: _nomeJurado, quesitoId: _quesitoId}) */\n      0x00\n      dup3\n      add\n      mload\n      dup2\n      0x00\n      add\n      exp(0x0100, 0x00)\n      dup2\n      sload\n      dup2\n      0xffffffffffffffffffffffffffffffffffffffff\n      mul\n      not\n      and\n      swap1\n      dup4\n      0xffffffffffffffffffffffffffffffffffffffff\n      and\n      mul\n      or\n      swap1\n      sstore\n      pop\n      0x20\n      dup3\n      add\n      mload\n      dup2\n      0x01\n      add\n      swap1\n      dup2\n      tag_178\n      swap2\n      swap1\n      tag_179\n      jump\t// in\n    tag_178:\n      pop\n      0x40\n      dup3\n      add\n      mload\n      dup2\n      0x02\n      add\n      sstore\n      swap1\n      pop\n      pop\n        /* \"Qsito/carnaval.sol\":1930:2002  Jurado({endereco: msg.sender, nome: _nomeJurado, quesitoId: _quesitoId}) */\n      mload(0x40)\n      dup1\n      0x60\n      add\n      0x40\n      mstore\n      dup1\n        /* \"Qsito/carnaval.sol\":1948:1958  msg.sender */\n      caller\n        /* \"Qsito/carnaval.sol\":1930:2002  Jurado({endereco: msg.sender, nome: _nomeJurado, quesitoId: _quesitoId}) */\n      0xffffffffffffffffffffffffffffffffffffffff\n      and\n      dup2\n      mstore\n      0x20\n      add\n        /* \"Qsito/carnaval.sol\":1966:1977  _nomeJurado */\n      dup5\n        /* \"Qsito/carnaval.sol\":1930:2002  Jurado({endereco: msg.sender, nome: _nomeJurado, quesitoId: _quesitoId}) */\n      dup2\n      mstore\n      0x20\n      add\n        /* \"Qsito/carnaval.sol\":1990:2000  _quesitoId */\n      dup4\n        /* \"Qsito/carnaval.sol\":1930:2002  Jurado({endereco: msg.sender, nome: _nomeJurado, quesitoId: _quesitoId}) */\n      dup2\n      mstore\n      pop\n        /* \"Qsito/carnaval.sol\":1889:1906  quantidadeJurados */\n      0x05\n        /* \"Qsito/carnaval.sol\":1907:1926  _currentJuradoIndex */\n      sload(0x77)\n        /* \"Qsito/carnaval.sol\":1889:1927  quantidadeJurados[_currentJuradoIndex] */\n      0x24\n      dup2\n      lt\n      tag_180\n      jumpi\n      tag_181\n      tag_182\n      jump\t// in\n    tag_181:\n    tag_180:\n      0x03\n      mul\n      add\n        /* \"Qsito/carnaval.sol\":1889:2002  quantidadeJurados[_currentJuradoIndex] = Jurado({endereco: msg.sender, nome: _nomeJurado, quesitoId: _quesitoId}) */\n      0x00\n      dup3\n      add\n      mload\n      dup2\n      0x00\n      add\n      exp(0x0100, 0x00)\n      dup2\n      sload\n      dup2\n      0xffffffffffffffffffffffffffffffffffffffff\n      mul\n      not\n      and\n      swap1\n      dup4\n      0xffffffffffffffffffffffffffffffffffffffff\n      and\n      mul\n      or\n      swap1\n      sstore\n      pop\n      0x20\n      dup3\n      add\n      mload\n      dup2\n      0x01\n      add\n      swap1\n      dup2\n      tag_184\n      swap2\n      swap1\n      tag_179\n      jump\t// in\n    tag_184:\n      pop\n      0x40\n      dup3\n      add\n      mload\n      dup2\n      0x02\n      add\n      sstore\n      swap1\n      pop\n      pop\n        /* \"Qsito/carnaval.sol\":2013:2032  _currentJuradoIndex */\n      0x77\n      0x00\n        /* \"Qsito/carnaval.sol\":2013:2034  _currentJuradoIndex++ */\n      dup2\n      sload\n      dup1\n      swap3\n      swap2\n      swap1\n      tag_185\n      swap1\n      tag_186\n      jump\t// in\n    tag_185:\n      swap2\n      swap1\n      pop\n      sstore\n      pop\n        /* \"Qsito/carnaval.sol\":2067:2077  msg.sender */\n      caller\n        /* \"Qsito/carnaval.sol\":2050:2091  JuradoAdicionado(msg.sender, _nomeJurado) */\n      0xffffffffffffffffffffffffffffffffffffffff\n      and\n      0xa1fb37ecddd4c220fd008a54a22fb96ce4db7248e0f4987e445259dc6e55188b\n        /* \"Qsito/carnaval.sol\":2079:2090  _nomeJurado */\n      dup5\n        /* \"Qsito/carnaval.sol\":2050:2091  JuradoAdicionado(msg.sender, _nomeJurado) */\n      mload(0x40)\n      tag_187\n      swap2\n      swap1\n      tag_35\n      jump\t// in\n    tag_187:\n      mload(0x40)\n      dup1\n      swap2\n      sub\n      swap1\n      log2\n        /* \"Qsito/carnaval.sol\":2131:2132  1 */\n      0x01\n        /* \"Qsito/carnaval.sol\":2109:2128  _currentJuradoIndex */\n      sload(0x77)\n        /* \"Qsito/carnaval.sol\":2109:2132  _currentJuradoIndex - 1 */\n      tag_188\n      swap2\n      swap1\n      tag_189\n      jump\t// in\n    tag_188:\n        /* \"Qsito/carnaval.sol\":2102:2132  return _currentJuradoIndex - 1 */\n      swap1\n      pop\n        /* \"Qsito/carnaval.sol\":1586:2140  function addJurado(string memory _nomeJurado, uint _quesitoId) public onlyOwner returns (uint) {... */\n      swap3\n      swap2\n      pop\n      pop\n      jump\t// out\n        /* \"Qsito/carnaval.sol\":3849:4100  function getNota(uint _escolaId, uint _quesitoId) public view returns (uint256) {... */\n    tag_79:\n        /* \"Qsito/carnaval.sol\":3920:3927  uint256 */\n      0x00\n        /* \"Qsito/carnaval.sol\":4000:4001  0 */\n      0x00\n        /* \"Qsito/carnaval.sol\":3948:3969  notasPorEscolaQuesito */\n      0x75\n        /* \"Qsito/carnaval.sol\":3948:3980  notasPorEscolaQuesito[_escolaId] */\n      0x00\n        /* \"Qsito/carnaval.sol\":3970:3979  _escolaId */\n      dup6\n        /* \"Qsito/carnaval.sol\":3948:3980  notasPorEscolaQuesito[_escolaId] */\n      dup2\n      mstore\n      0x20\n      add\n      swap1\n      dup2\n      mstore\n      0x20\n      add\n      0x00\n      keccak256\n        /* \"Qsito/carnaval.sol\":3948:3992  notasPorEscolaQuesito[_escolaId][_quesitoId] */\n      0x00\n        /* \"Qsito/carnaval.sol\":3981:3991  _quesitoId */\n      dup5\n        /* \"Qsito/carnaval.sol\":3948:3992  notasPorEscolaQuesito[_escolaId][_quesitoId] */\n      dup2\n      mstore\n      0x20\n      add\n      swap1\n      dup2\n      mstore\n      0x20\n      add\n      0x00\n      keccak256\n        /* \"Qsito/carnaval.sol\":3948:3997  notasPorEscolaQuesito[_escolaId][_quesitoId].nota */\n      0x03\n      add\n      sload\n        /* \"Qsito/carnaval.sol\":3948:4001  notasPorEscolaQuesito[_escolaId][_quesitoId].nota > 0 */\n      gt\n        /* \"Qsito/carnaval.sol\":3940:4025  require(notasPorEscolaQuesito[_escolaId][_quesitoId].nota > 0, \"Nota nao encontrada\") */\n      tag_191\n      jumpi\n      mload(0x40)\n      0x08c379a000000000000000000000000000000000000000000000000000000000\n      dup2\n      mstore\n      0x04\n      add\n      tag_192\n      swap1\n      tag_193\n      jump\t// in\n    tag_192:\n      mload(0x40)\n      dup1\n      swap2\n      sub\n      swap1\n      revert\n    tag_191:\n        /* \"Qsito/carnaval.sol\":4043:4064  notasPorEscolaQuesito */\n      0x75\n        /* \"Qsito/carnaval.sol\":4043:4075  notasPorEscolaQuesito[_escolaId] */\n      0x00\n        /* \"Qsito/carnaval.sol\":4065:4074  _escolaId */\n      dup5\n        /* \"Qsito/carnaval.sol\":4043:4075  notasPorEscolaQuesito[_escolaId] */\n      dup2\n      mstore\n      0x20\n      add\n      swap1\n      dup2\n      mstore\n      0x20\n      add\n      0x00\n      keccak256\n        /* \"Qsito/carnaval.sol\":4043:4087  notasPorEscolaQuesito[_escolaId][_quesitoId] */\n      0x00\n        /* \"Qsito/carnaval.sol\":4076:4086  _quesitoId */\n      dup4\n        /* \"Qsito/carnaval.sol\":4043:4087  notasPorEscolaQuesito[_escolaId][_quesitoId] */\n      dup2\n      mstore\n      0x20\n      add\n      swap1\n      dup2\n      mstore\n      0x20\n      add\n      0x00\n      keccak256\n        /* \"Qsito/carnaval.sol\":4043:4092  notasPorEscolaQuesito[_escolaId][_quesitoId].nota */\n      0x03\n      add\n      sload\n        /* \"Qsito/carnaval.sol\":4036:4092  return notasPorEscolaQuesito[_escolaId][_quesitoId].nota */\n      swap1\n      pop\n        /* \"Qsito/carnaval.sol\":3849:4100  function getNota(uint _escolaId, uint _quesitoId) public view returns (uint256) {... */\n      swap3\n      swap2\n      pop\n      pop\n      jump\t// out\n        /* \"@openzeppelin/contracts/token/ERC20/ERC20.sol\":3004:3120  function balanceOf(address account) public view virtual returns (uint256) {... */\n    tag_83:\n        /* \"@openzeppelin/contracts/token/ERC20/ERC20.sol\":3069:3076  uint256 */\n      0x00\n        /* \"@openzeppelin/contracts/token/ERC20/ERC20.sol\":3095:3104  _balances */\n      0x00\n        /* \"@openzeppelin/contracts/token/ERC20/ERC20.sol\":3095:3113  _balances[account] */\n      0x00\n        /* \"@openzeppelin/contracts/token/ERC20/ERC20.sol\":3105:3112  account */\n      dup4\n        /* \"@openzeppelin/contracts/token/ERC20/ERC20.sol\":3095:3113  _balances[account] */\n      0xffffffffffffffffffffffffffffffffffffffff\n      and\n      0xffffffffffffffffffffffffffffffffffffffff\n      and\n      dup2\n      mstore\n      0x20\n      add\n      swap1\n      dup2\n      mstore\n      0x20\n      add\n      0x00\n      keccak256\n      sload\n        /* \"@openzeppelin/contracts/token/ERC20/ERC20.sol\":3088:3113  return _balances[account] */\n      swap1\n      pop\n        /* \"@openzeppelin/contracts/token/ERC20/ERC20.sol\":3004:3120  function balanceOf(address account) public view virtual returns (uint256) {... */\n      swap2\n      swap1\n      pop\n      jump\t// out\n        /* \"Qsito/carnaval.sol\":1021:1041  address public owner */\n    tag_86:\n      0x76\n      0x00\n      swap1\n      sload\n      swap1\n      0x0100\n      exp\n      swap1\n      div\n      0xffffffffffffffffffffffffffffffffffffffff\n      and\n      dup2\n      jump\t// out\n        /* \"@openzeppelin/contracts/token/ERC20/ERC20.sol\":1981:2074  function symbol() public view virtual returns (string memory) {... */\n    tag_90:\n        /* \"@openzeppelin/contracts/token/ERC20/ERC20.sol\":2028:2041  string memory */\n      0x60\n        /* \"@openzeppelin/contracts/token/ERC20/ERC20.sol\":2060:2067  _symbol */\n      0x04\n        /* \"@openzeppelin/contracts/token/ERC20/ERC20.sol\":2053:2067  return _symbol */\n      dup1\n      sload\n      tag_196\n      swap1\n      tag_133\n      jump\t// in\n    tag_196:\n      dup1\n      0x1f\n      add\n      0x20\n      dup1\n      swap2\n      div\n      mul\n      0x20\n      add\n      mload(0x40)\n      swap1\n      dup2\n      add\n      0x40\n      mstore\n      dup1\n      swap3\n      swap2\n      swap1\n      dup2\n      dup2\n      mstore\n      0x20\n      add\n      dup3\n      dup1\n      sload\n      tag_197\n      swap1\n      tag_133\n      jump\t// in\n    tag_197:\n      dup1\n      iszero\n      tag_198\n      jumpi\n      dup1\n      0x1f\n      lt\n      tag_199\n      jumpi\n      0x0100\n      dup1\n      dup4\n      sload\n      div\n      mul\n      dup4\n      mstore\n      swap2\n      0x20\n      add\n      swap2\n      jump(tag_198)\n    tag_199:\n      dup3\n      add\n      swap2\n      swap1\n      0x00\n      mstore\n      keccak256(0x00, 0x20)\n      swap1\n    tag_200:\n      dup2\n      sload\n      dup2\n      mstore\n      swap1\n      0x01\n      add\n      swap1\n      0x20\n      add\n      dup1\n      dup4\n      gt\n      tag_200\n      jumpi\n      dup3\n      swap1\n      sub\n      0x1f\n      and\n      dup3\n      add\n      swap2\n    tag_198:\n      pop\n      pop\n      pop\n      pop\n      pop\n      swap1\n      pop\n        /* \"@openzeppelin/contracts/token/ERC20/ERC20.sol\":1981:2074  function symbol() public view virtual returns (string memory) {... */\n      swap1\n      jump\t// out\n        /* \"Qsito/carnaval.sol\":4330:4491  function getAllEscolas() public view returns  (Escola[] memory){... */\n    tag_93:\n        /* \"Qsito/carnaval.sol\":4377:4392  Escola[] memory */\n      0x60\n        /* \"Qsito/carnaval.sol\":4430:4431  0 */\n      0x00\n        /* \"Qsito/carnaval.sol\":4412:4420  _escolas */\n      0x71\n        /* \"Qsito/carnaval.sol\":4412:4427  _escolas.length */\n      dup1\n      sload\n      swap1\n      pop\n        /* \"Qsito/carnaval.sol\":4412:4431  _escolas.length > 0 */\n      gt\n        /* \"Qsito/carnaval.sol\":4404:4451  require(_escolas.length > 0, \"No escola found\") */\n      tag_202\n      jumpi\n      mload(0x40)\n      0x08c379a000000000000000000000000000000000000000000000000000000000\n      dup2\n      mstore\n      0x04\n      add\n      tag_203\n      swap1\n      tag_204\n      jump\t// in\n    tag_203:\n      mload(0x40)\n      dup1\n      swap2\n      sub\n      swap1\n      revert\n    tag_202:\n        /* \"Qsito/carnaval.sol\":4475:4483  _escolas */\n      0x71\n        /* \"Qsito/carnaval.sol\":4468:4483  return _escolas */\n      dup1\n      sload\n      dup1\n      0x20\n      mul\n      0x20\n      add\n      mload(0x40)\n      swap1\n      dup2\n      add\n      0x40\n      mstore\n      dup1\n      swap3\n      swap2\n      swap1\n      dup2\n      dup2\n      mstore\n      0x20\n      add\n      0x00\n      swap1\n    tag_205:\n      dup3\n      dup3\n      lt\n      iszero\n      tag_206\n      jumpi\n      dup4\n      dup3\n      swap1\n      0x00\n      mstore\n      keccak256(0x00, 0x20)\n      swap1\n      0x02\n      mul\n      add\n      mload(0x40)\n      dup1\n      0x40\n      add\n      0x40\n      mstore\n      swap1\n      dup2\n      0x00\n      dup3\n      add\n      sload\n      dup2\n      mstore\n      0x20\n      add\n      0x01\n      dup3\n      add\n      dup1\n      sload\n      tag_208\n      swap1\n      tag_133\n      jump\t// in\n    tag_208:\n      dup1\n      0x1f\n      add\n      0x20\n      dup1\n      swap2\n      div\n      mul\n      0x20\n      add\n      mload(0x40)\n      swap1\n      dup2\n      add\n      0x40\n      mstore\n      dup1\n      swap3\n      swap2\n      swap1\n      dup2\n      dup2\n      mstore\n      0x20\n      add\n      dup3\n      dup1\n      sload\n      tag_209\n      swap1\n      tag_133\n      jump\t// in\n    tag_209:\n      dup1\n      iszero\n      tag_210\n      jumpi\n      dup1\n      0x1f\n      lt\n      tag_211\n      jumpi\n      0x0100\n      dup1\n      dup4\n      sload\n      div\n      mul\n      dup4\n      mstore\n      swap2\n      0x20\n      add\n      swap2\n      jump(tag_210)\n    tag_211:\n      dup3\n      add\n      swap2\n      swap1\n      0x00\n      mstore\n      keccak256(0x00, 0x20)\n      swap1\n    tag_212:\n      dup2\n      sload\n      dup2\n      mstore\n      swap1\n      0x01\n      add\n      swap1\n      0x20\n      add\n      dup1\n      dup4\n      gt\n      tag_212\n      jumpi\n      dup3\n      swap1\n      sub\n      0x1f\n      and\n      dup3\n      add\n      swap2\n    tag_210:\n      pop\n      pop\n      pop\n      pop\n      pop\n      dup2\n      mstore\n      pop\n      pop\n      dup2\n      mstore\n      0x20\n      add\n      swap1\n      0x01\n      add\n      swap1\n      jump(tag_205)\n    tag_206:\n      pop\n      pop\n      pop\n      pop\n      swap1\n      pop\n        /* \"Qsito/carnaval.sol\":4330:4491  function getAllEscolas() public view returns  (Escola[] memory){... */\n      swap1\n      jump\t// out\n        /* \"@openzeppelin/contracts/token/ERC20/ERC20.sol\":3315:3493  function transfer(address to, uint256 value) public virtual returns (bool) {... */\n    tag_98:\n        /* \"@openzeppelin/contracts/token/ERC20/ERC20.sol\":3384:3388  bool */\n      0x00\n        /* \"@openzeppelin/contracts/token/ERC20/ERC20.sol\":3400:3413  address owner */\n      0x00\n        /* \"@openzeppelin/contracts/token/ERC20/ERC20.sol\":3416:3428  _msgSender() */\n      tag_214\n        /* \"@openzeppelin/contracts/token/ERC20/ERC20.sol\":3416:3426  _msgSender */\n      tag_140\n        /* \"@openzeppelin/contracts/token/ERC20/ERC20.sol\":3416:3428  _msgSender() */\n      jump\t// in\n    tag_214:\n        /* \"@openzeppelin/contracts/token/ERC20/ERC20.sol\":3400:3428  address owner = _msgSender() */\n      swap1\n      pop\n        /* \"@openzeppelin/contracts/token/ERC20/ERC20.sol\":3438:3465  _transfer(owner, to, value) */\n      tag_215\n        /* \"@openzeppelin/contracts/token/ERC20/ERC20.sol\":3448:3453  owner */\n      dup2\n        /* \"@openzeppelin/contracts/token/ERC20/ERC20.sol\":3455:3457  to */\n      dup6\n        /* \"@openzeppelin/contracts/token/ERC20/ERC20.sol\":3459:3464  value */\n      dup6\n        /* \"@openzeppelin/contracts/token/ERC20/ERC20.sol\":3438:3447  _transfer */\n      tag_156\n        /* \"@openzeppelin/contracts/token/ERC20/ERC20.sol\":3438:3465  _transfer(owner, to, value) */\n      jump\t// in\n    tag_215:\n        /* \"@openzeppelin/contracts/token/ERC20/ERC20.sol\":3482:3486  true */\n      0x01\n        /* \"@openzeppelin/contracts/token/ERC20/ERC20.sol\":3475:3486  return true */\n      swap2\n      pop\n      pop\n        /* \"@openzeppelin/contracts/token/ERC20/ERC20.sol\":3315:3493  function transfer(address to, uint256 value) public virtual returns (bool) {... */\n      swap3\n      swap2\n      pop\n      pop\n      jump\t// out\n        /* \"Qsito/carnaval.sol\":900:967  mapping(uint => mapping(uint => Nota)) public notasPorEscolaQuesito */\n    tag_102:\n      mstore(0x20, 0x75)\n      dup2\n      0x00\n      mstore\n      mstore(0x20, keccak256(0x00, 0x40))\n      dup1\n      0x00\n      mstore\n      keccak256(0x00, 0x40)\n      0x00\n      swap2\n      pop\n      swap2\n      pop\n      pop\n      dup1\n      0x00\n      add\n      sload\n      swap1\n      dup1\n      0x01\n      add\n      sload\n      swap1\n      dup1\n      0x02\n      add\n      0x00\n      swap1\n      sload\n      swap1\n      0x0100\n      exp\n      swap1\n      div\n      0xffffffffffffffffffffffffffffffffffffffff\n      and\n      swap1\n      dup1\n      0x03\n      add\n      sload\n      swap1\n      pop\n      dup5\n      jump\t// out\n        /* \"Qsito/carnaval.sol\":2718:3249  function addQuesitos(string[] memory _nomeQuesitos) public onlyOwner {... */\n    tag_107:\n        /* \"Qsito/carnaval.sol\":1198:1203  owner */\n      0x76\n      0x00\n      swap1\n      sload\n      swap1\n      0x0100\n      exp\n      swap1\n      div\n      0xffffffffffffffffffffffffffffffffffffffff\n      and\n        /* \"Qsito/carnaval.sol\":1184:1203  msg.sender == owner */\n      0xffffffffffffffffffffffffffffffffffffffff\n      and\n        /* \"Qsito/carnaval.sol\":1184:1194  msg.sender */\n      caller\n        /* \"Qsito/carnaval.sol\":1184:1203  msg.sender == owner */\n      0xffffffffffffffffffffffffffffffffffffffff\n      and\n      eq\n        /* \"Qsito/carnaval.sol\":1176:1239  require(msg.sender == owner, \"Acesso restrito ao proprietario\") */\n      tag_217\n      jumpi\n      mload(0x40)\n      0x08c379a000000000000000000000000000000000000000000000000000000000\n      dup2\n      mstore\n      0x04\n      add\n      tag_218\n      swap1\n      tag_173\n      jump\t// in\n    tag_218:\n      mload(0x40)\n      dup1\n      swap2\n      sub\n      swap1\n      revert\n    tag_217:\n        /* \"Qsito/carnaval.sol\":633:634  8 */\n      0x08\n        /* \"Qsito/carnaval.sol\":2806:2815  _quesitos */\n      0x72\n        /* \"Qsito/carnaval.sol\":2806:2822  _quesitos.length */\n      dup1\n      sload\n      swap1\n      pop\n        /* \"Qsito/carnaval.sol\":2806:2844  _quesitos.length < QUANTIDADE_QUESITOS */\n      lt\n        /* \"Qsito/carnaval.sol\":2798:2887  require(_quesitos.length < QUANTIDADE_QUESITOS, \"Quantidade maxima de quesitos atingida\") */\n      tag_220\n      jumpi\n      mload(0x40)\n      0x08c379a000000000000000000000000000000000000000000000000000000000\n      dup2\n      mstore\n      0x04\n      add\n      tag_221\n      swap1\n      tag_222\n      jump\t// in\n    tag_221:\n      mload(0x40)\n      dup1\n      swap2\n      sub\n      swap1\n      revert\n    tag_220:\n        /* \"Qsito/carnaval.sol\":2903:2909  uint i */\n      0x00\n        /* \"Qsito/carnaval.sol\":2912:2913  0 */\n      0x00\n        /* \"Qsito/carnaval.sol\":2903:2913  uint i = 0 */\n      swap1\n      pop\n        /* \"Qsito/carnaval.sol\":2898:3193  for (uint i = 0; i < _nomeQuesitos.length; i++) {... */\n    tag_223:\n        /* \"Qsito/carnaval.sol\":2919:2932  _nomeQuesitos */\n      dup2\n        /* \"Qsito/carnaval.sol\":2919:2939  _nomeQuesitos.length */\n      mload\n        /* \"Qsito/carnaval.sol\":2915:2916  i */\n      dup2\n        /* \"Qsito/carnaval.sol\":2915:2939  i < _nomeQuesitos.length */\n      lt\n        /* \"Qsito/carnaval.sol\":2898:3193  for (uint i = 0; i < _nomeQuesitos.length; i++) {... */\n      iszero\n      tag_224\n      jumpi\n        /* \"Qsito/carnaval.sol\":633:634  8 */\n      0x08\n        /* \"Qsito/carnaval.sol\":2969:2989  _currentQuesitoIndex */\n      sload(0x79)\n        /* \"Qsito/carnaval.sol\":2969:3011  _currentQuesitoIndex < QUANTIDADE_QUESITOS */\n      lt\n        /* \"Qsito/carnaval.sol\":2961:3054  require(_currentQuesitoIndex < QUANTIDADE_QUESITOS, \"Quantidade maxima de quesitos atingida\") */\n      tag_226\n      jumpi\n      mload(0x40)\n      0x08c379a000000000000000000000000000000000000000000000000000000000\n      dup2\n      mstore\n      0x04\n      add\n      tag_227\n      swap1\n      tag_222\n      jump\t// in\n    tag_227:\n      mload(0x40)\n      dup1\n      swap2\n      sub\n      swap1\n      revert\n    tag_226:\n        /* \"Qsito/carnaval.sol\":3069:3078  _quesitos */\n      0x72\n        /* \"Qsito/carnaval.sol\":3084:3143  Quesito({id: _currentQuesitoIndex, nome: _nomeQuesitos[i]}) */\n      mload(0x40)\n      dup1\n      0x40\n      add\n      0x40\n      mstore\n      dup1\n        /* \"Qsito/carnaval.sol\":3097:3117  _currentQuesitoIndex */\n      sload(0x79)\n        /* \"Qsito/carnaval.sol\":3084:3143  Quesito({id: _currentQuesitoIndex, nome: _nomeQuesitos[i]}) */\n      dup2\n      mstore\n      0x20\n      add\n        /* \"Qsito/carnaval.sol\":3125:3138  _nomeQuesitos */\n      dup5\n        /* \"Qsito/carnaval.sol\":3139:3140  i */\n      dup5\n        /* \"Qsito/carnaval.sol\":3125:3141  _nomeQuesitos[i] */\n      dup2\n      mload\n      dup2\n      lt\n      tag_228\n      jumpi\n      tag_229\n      tag_182\n      jump\t// in\n    tag_229:\n    tag_228:\n      0x20\n      mul\n      0x20\n      add\n      add\n      mload\n        /* \"Qsito/carnaval.sol\":3084:3143  Quesito({id: _currentQuesitoIndex, nome: _nomeQuesitos[i]}) */\n      dup2\n      mstore\n      pop\n        /* \"Qsito/carnaval.sol\":3069:3144  _quesitos.push(Quesito({id: _currentQuesitoIndex, nome: _nomeQuesitos[i]})) */\n      swap1\n      dup1\n      0x01\n      dup2\n      sload\n      add\n      dup1\n      dup3\n      sstore\n      dup1\n      swap2\n      pop\n      pop\n      0x01\n      swap1\n      sub\n      swap1\n      0x00\n      mstore\n      keccak256(0x00, 0x20)\n      swap1\n      0x02\n      mul\n      add\n      0x00\n      swap1\n      swap2\n      swap1\n      swap2\n      swap1\n      swap2\n      pop\n      0x00\n      dup3\n      add\n      mload\n      dup2\n      0x00\n      add\n      sstore\n      0x20\n      dup3\n      add\n      mload\n      dup2\n      0x01\n      add\n      swap1\n      dup2\n      tag_231\n      swap2\n      swap1\n      tag_179\n      jump\t// in\n    tag_231:\n      pop\n      pop\n      pop\n        /* \"Qsito/carnaval.sol\":3159:3179  _currentQuesitoIndex */\n      0x79\n      0x00\n        /* \"Qsito/carnaval.sol\":3159:3181  _currentQuesitoIndex++ */\n      dup2\n      sload\n      dup1\n      swap3\n      swap2\n      swap1\n      tag_232\n      swap1\n      tag_186\n      jump\t// in\n    tag_232:\n      swap2\n      swap1\n      pop\n      sstore\n      pop\n        /* \"Qsito/carnaval.sol\":2941:2944  i++ */\n      dup1\n      dup1\n      0x01\n      add\n      swap2\n      pop\n      pop\n        /* \"Qsito/carnaval.sol\":2898:3193  for (uint i = 0; i < _nomeQuesitos.length; i++) {... */\n      jump(tag_223)\n    tag_224:\n      pop\n        /* \"Qsito/carnaval.sol\":3208:3241  QuesitoAdicionados(_nomeQuesitos) */\n      0x25aa31c0be750cc5e6616917e1209c38b8643a142814e500d1eb8fc63270fe55\n        /* \"Qsito/carnaval.sol\":3227:3240  _nomeQuesitos */\n      dup2\n        /* \"Qsito/carnaval.sol\":3208:3241  QuesitoAdicionados(_nomeQuesitos) */\n      mload(0x40)\n      tag_233\n      swap2\n      swap1\n      tag_234\n      jump\t// in\n    tag_233:\n      mload(0x40)\n      dup1\n      swap2\n      sub\n      swap1\n      log1\n        /* \"Qsito/carnaval.sol\":2718:3249  function addQuesitos(string[] memory _nomeQuesitos) public onlyOwner {... */\n      pop\n      jump\t// out\n        /* \"@openzeppelin/contracts/token/ERC20/ERC20.sol\":3551:3691  function allowance(address owner, address spender) public view virtual returns (uint256) {... */\n    tag_111:\n        /* \"@openzeppelin/contracts/token/ERC20/ERC20.sol\":3631:3638  uint256 */\n      0x00\n        /* \"@openzeppelin/contracts/token/ERC20/ERC20.sol\":3657:3668  _allowances */\n      0x01\n        /* \"@openzeppelin/contracts/token/ERC20/ERC20.sol\":3657:3675  _allowances[owner] */\n      0x00\n        /* \"@openzeppelin/contracts/token/ERC20/ERC20.sol\":3669:3674  owner */\n      dup5\n        /* \"@openzeppelin/contracts/token/ERC20/ERC20.sol\":3657:3675  _allowances[owner] */\n      0xffffffffffffffffffffffffffffffffffffffff\n      and\n      0xffffffffffffffffffffffffffffffffffffffff\n      and\n      dup2\n      mstore\n      0x20\n      add\n      swap1\n      dup2\n      mstore\n      0x20\n      add\n      0x00\n      keccak256\n        /* \"@openzeppelin/contracts/token/ERC20/ERC20.sol\":3657:3684  _allowances[owner][spender] */\n      0x00\n        /* \"@openzeppelin/contracts/token/ERC20/ERC20.sol\":3676:3683  spender */\n      dup4\n        /* \"@openzeppelin/contracts/token/ERC20/ERC20.sol\":3657:3684  _allowances[owner][spender] */\n      0xffffffffffffffffffffffffffffffffffffffff\n      and\n      0xffffffffffffffffffffffffffffffffffffffff\n      and\n      dup2\n      mstore\n      0x20\n      add\n      swap1\n      dup2\n      mstore\n      0x20\n      add\n      0x00\n      keccak256\n      sload\n        /* \"@openzeppelin/contracts/token/ERC20/ERC20.sol\":3650:3684  return _allowances[owner][spender] */\n      swap1\n      pop\n        /* \"@openzeppelin/contracts/token/ERC20/ERC20.sol\":3551:3691  function allowance(address owner, address spender) public view virtual returns (uint256) {... */\n      swap3\n      swap2\n      pop\n      pop\n      jump\t// out\n        /* \"Qsito/carnaval.sol\":696:747  Jurado[QUANTIDADE_JURADOS] public quantidadeJurados */\n    tag_115:\n      0x05\n      dup2\n      0x24\n      dup2\n      lt\n      tag_236\n      jumpi\n      0x00\n      dup1\n      revert\n    tag_236:\n      0x03\n      mul\n      add\n      0x00\n      swap2\n      pop\n      swap1\n      pop\n      dup1\n      0x00\n      add\n      0x00\n      swap1\n      sload\n      swap1\n      0x0100\n      exp\n      swap1\n      div\n      0xffffffffffffffffffffffffffffffffffffffff\n      and\n      swap1\n      dup1\n      0x01\n      add\n      dup1\n      sload\n      tag_238\n      swap1\n      tag_133\n      jump\t// in\n    tag_238:\n      dup1\n      0x1f\n      add\n      0x20\n      dup1\n      swap2\n      div\n      mul\n      0x20\n      add\n      mload(0x40)\n      swap1\n      dup2\n      add\n      0x40\n      mstore\n      dup1\n      swap3\n      swap2\n      swap1\n      dup2\n      dup2\n      mstore\n      0x20\n      add\n      dup3\n      dup1\n      sload\n      tag_239\n      swap1\n      tag_133\n      jump\t// in\n    tag_239:\n      dup1\n      iszero\n      tag_240\n      jumpi\n      dup1\n      0x1f\n      lt\n      tag_241\n      jumpi\n      0x0100\n      dup1\n      dup4\n      sload\n      div\n      mul\n      dup4\n      mstore\n      swap2\n      0x20\n      add\n      swap2\n      jump(tag_240)\n    tag_241:\n      dup3\n      add\n      swap2\n      swap1\n      0x00\n      mstore\n      keccak256(0x00, 0x20)\n      swap1\n    tag_242:\n      dup2\n      sload\n      dup2\n      mstore\n      swap1\n      0x01\n      add\n      swap1\n      0x20\n      add\n      dup1\n      dup4\n      gt\n      tag_242\n      jumpi\n      dup3\n      swap1\n      sub\n      0x1f\n      and\n      dup3\n      add\n      swap2\n    tag_240:\n      pop\n      pop\n      pop\n      pop\n      pop\n      swap1\n      dup1\n      0x02\n      add\n      sload\n      swap1\n      pop\n      dup4\n      jump\t// out\n        /* \"Qsito/carnaval.sol\":4529:4924  function limparDados() public onlyOwner {... */\n    tag_118:\n        /* \"Qsito/carnaval.sol\":1198:1203  owner */\n      0x76\n      0x00\n      swap1\n      sload\n      swap1\n      0x0100\n      exp\n      swap1\n      div\n      0xffffffffffffffffffffffffffffffffffffffff\n      and\n        /* \"Qsito/carnaval.sol\":1184:1203  msg.sender == owner */\n      0xffffffffffffffffffffffffffffffffffffffff\n      and\n        /* \"Qsito/carnaval.sol\":1184:1194  msg.sender */\n      caller\n        /* \"Qsito/carnaval.sol\":1184:1203  msg.sender == owner */\n      0xffffffffffffffffffffffffffffffffffffffff\n      and\n      eq\n        /* \"Qsito/carnaval.sol\":1176:1239  require(msg.sender == owner, \"Acesso restrito ao proprietario\") */\n      tag_244\n      jumpi\n      mload(0x40)\n      0x08c379a000000000000000000000000000000000000000000000000000000000\n      dup2\n      mstore\n      0x04\n      add\n      tag_245\n      swap1\n      tag_173\n      jump\t// in\n    tag_245:\n      mload(0x40)\n      dup1\n      swap2\n      sub\n      swap1\n      revert\n    tag_244:\n        /* \"Qsito/carnaval.sol\":4587:4604  quantidadeJurados */\n      0x05\n      0x00\n        /* \"Qsito/carnaval.sol\":4580:4604  delete quantidadeJurados */\n      tag_247\n      swap2\n      swap1\n      tag_248\n      jump\t// in\n    tag_247:\n        /* \"Qsito/carnaval.sol\":4622:4630  _escolas */\n      0x71\n      0x00\n        /* \"Qsito/carnaval.sol\":4615:4630  delete _escolas */\n      tag_249\n      swap2\n      swap1\n      tag_250\n      jump\t// in\n    tag_249:\n        /* \"Qsito/carnaval.sol\":4648:4657  _quesitos */\n      0x72\n      0x00\n        /* \"Qsito/carnaval.sol\":4641:4657  delete _quesitos */\n      tag_251\n      swap2\n      swap1\n      tag_252\n      jump\t// in\n    tag_251:\n        /* \"Qsito/carnaval.sol\":4675:4680  notas */\n      0x73\n      0x00\n        /* \"Qsito/carnaval.sol\":4668:4680  delete notas */\n      tag_253\n      swap2\n      swap1\n      tag_254\n      jump\t// in\n    tag_253:\n        /* \"Qsito/carnaval.sol\":4734:4740  uint i */\n      0x00\n        /* \"Qsito/carnaval.sol\":4743:4744  0 */\n      0x00\n        /* \"Qsito/carnaval.sol\":4734:4744  uint i = 0 */\n      swap1\n      pop\n        /* \"Qsito/carnaval.sol\":4729:4917  for (uint i = 0; i < QUANTIDADE_ESCOLAS; i++) {... */\n    tag_255:\n        /* \"Qsito/carnaval.sol\":685:687  12 */\n      0x0c\n        /* \"Qsito/carnaval.sol\":4746:4747  i */\n      dup2\n        /* \"Qsito/carnaval.sol\":4746:4768  i < QUANTIDADE_ESCOLAS */\n      lt\n        /* \"Qsito/carnaval.sol\":4729:4917  for (uint i = 0; i < QUANTIDADE_ESCOLAS; i++) {... */\n      iszero\n      tag_256\n      jumpi\n        /* \"Qsito/carnaval.sol\":4795:4801  uint j */\n      0x00\n        /* \"Qsito/carnaval.sol\":4804:4805  0 */\n      0x00\n        /* \"Qsito/carnaval.sol\":4795:4805  uint j = 0 */\n      swap1\n      pop\n        /* \"Qsito/carnaval.sol\":4790:4906  for (uint j = 0; j < QUANTIDADE_QUESITOS; j++) {... */\n    tag_258:\n        /* \"Qsito/carnaval.sol\":633:634  8 */\n      0x08\n        /* \"Qsito/carnaval.sol\":4807:4808  j */\n      dup2\n        /* \"Qsito/carnaval.sol\":4807:4830  j < QUANTIDADE_QUESITOS */\n      lt\n        /* \"Qsito/carnaval.sol\":4790:4906  for (uint j = 0; j < QUANTIDADE_QUESITOS; j++) {... */\n      iszero\n      tag_259\n      jumpi\n        /* \"Qsito/carnaval.sol\":4863:4884  notasPorEscolaQuesito */\n      0x75\n        /* \"Qsito/carnaval.sol\":4863:4887  notasPorEscolaQuesito[i] */\n      0x00\n        /* \"Qsito/carnaval.sol\":4885:4886  i */\n      dup4\n        /* \"Qsito/carnaval.sol\":4863:4887  notasPorEscolaQuesito[i] */\n      dup2\n      mstore\n      0x20\n      add\n      swap1\n      dup2\n      mstore\n      0x20\n      add\n      0x00\n      keccak256\n        /* \"Qsito/carnaval.sol\":4863:4890  notasPorEscolaQuesito[i][j] */\n      0x00\n        /* \"Qsito/carnaval.sol\":4888:4889  j */\n      dup3\n        /* \"Qsito/carnaval.sol\":4863:4890  notasPorEscolaQuesito[i][j] */\n      dup2\n      mstore\n      0x20\n      add\n      swap1\n      dup2\n      mstore\n      0x20\n      add\n      0x00\n      keccak256\n      0x00\n        /* \"Qsito/carnaval.sol\":4856:4890  delete notasPorEscolaQuesito[i][j] */\n      0x00\n      dup3\n      add\n      0x00\n      swap1\n      sstore\n      0x01\n      dup3\n      add\n      0x00\n      swap1\n      sstore\n      0x02\n      dup3\n      add\n      exp(0x0100, 0x00)\n      dup2\n      sload\n      swap1\n      0xffffffffffffffffffffffffffffffffffffffff\n      mul\n      not\n      and\n      swap1\n      sstore\n      0x03\n      dup3\n      add\n      0x00\n      swap1\n      sstore\n      pop\n      pop\n        /* \"Qsito/carnaval.sol\":4832:4835  j++ */\n      dup1\n      dup1\n      0x01\n      add\n      swap2\n      pop\n      pop\n        /* \"Qsito/carnaval.sol\":4790:4906  for (uint j = 0; j < QUANTIDADE_QUESITOS; j++) {... */\n      jump(tag_258)\n    tag_259:\n      pop\n        /* \"Qsito/carnaval.sol\":4770:4773  i++ */\n      dup1\n      dup1\n      0x01\n      add\n      swap2\n      pop\n      pop\n        /* \"Qsito/carnaval.sol\":4729:4917  for (uint i = 0; i < QUANTIDADE_ESCOLAS; i++) {... */\n      jump(tag_255)\n    tag_256:\n      pop\n        /* \"Qsito/carnaval.sol\":4529:4924  function limparDados() public onlyOwner {... */\n      jump\t// out\n        /* \"Qsito/carnaval.sol\":2170:2685  function addEscolas(string[] memory _nomeEscolas) public onlyOwner {... */\n    tag_121:\n        /* \"Qsito/carnaval.sol\":1198:1203  owner */\n      0x76\n      0x00\n      swap1\n      sload\n      swap1\n      0x0100\n      exp\n      swap1\n      div\n      0xffffffffffffffffffffffffffffffffffffffff\n      and\n        /* \"Qsito/carnaval.sol\":1184:1203  msg.sender == owner */\n      0xffffffffffffffffffffffffffffffffffffffff\n      and\n        /* \"Qsito/carnaval.sol\":1184:1194  msg.sender */\n      caller\n        /* \"Qsito/carnaval.sol\":1184:1203  msg.sender == owner */\n      0xffffffffffffffffffffffffffffffffffffffff\n      and\n      eq\n        /* \"Qsito/carnaval.sol\":1176:1239  require(msg.sender == owner, \"Acesso restrito ao proprietario\") */\n      tag_262\n      jumpi\n      mload(0x40)\n      0x08c379a000000000000000000000000000000000000000000000000000000000\n      dup2\n      mstore\n      0x04\n      add\n      tag_263\n      swap1\n      tag_173\n      jump\t// in\n    tag_263:\n      mload(0x40)\n      dup1\n      swap2\n      sub\n      swap1\n      revert\n    tag_262:\n        /* \"Qsito/carnaval.sol\":685:687  12 */\n      0x0c\n        /* \"Qsito/carnaval.sol\":2256:2264  _escolas */\n      0x71\n        /* \"Qsito/carnaval.sol\":2256:2271  _escolas.length */\n      dup1\n      sload\n      swap1\n      pop\n        /* \"Qsito/carnaval.sol\":2256:2292  _escolas.length < QUANTIDADE_ESCOLAS */\n      lt\n        /* \"Qsito/carnaval.sol\":2248:2333  require(_escolas.length < QUANTIDADE_ESCOLAS,\"Quantidade maxima de escolas atingida\") */\n      tag_265\n      jumpi\n      mload(0x40)\n      0x08c379a000000000000000000000000000000000000000000000000000000000\n      dup2\n      mstore\n      0x04\n      add\n      tag_266\n      swap1\n      tag_267\n      jump\t// in\n    tag_266:\n      mload(0x40)\n      dup1\n      swap2\n      sub\n      swap1\n      revert\n    tag_265:\n        /* \"Qsito/carnaval.sol\":2349:2355  uint i */\n      0x00\n        /* \"Qsito/carnaval.sol\":2358:2359  0 */\n      0x00\n        /* \"Qsito/carnaval.sol\":2349:2359  uint i = 0 */\n      swap1\n      pop\n        /* \"Qsito/carnaval.sol\":2344:2630  for (uint i = 0; i < _nomeEscolas.length; i++) {... */\n    tag_268:\n        /* \"Qsito/carnaval.sol\":2365:2377  _nomeEscolas */\n      dup2\n        /* \"Qsito/carnaval.sol\":2365:2384  _nomeEscolas.length */\n      mload\n        /* \"Qsito/carnaval.sol\":2361:2362  i */\n      dup2\n        /* \"Qsito/carnaval.sol\":2361:2384  i < _nomeEscolas.length */\n      lt\n        /* \"Qsito/carnaval.sol\":2344:2630  for (uint i = 0; i < _nomeEscolas.length; i++) {... */\n      iszero\n      tag_269\n      jumpi\n        /* \"Qsito/carnaval.sol\":685:687  12 */\n      0x0c\n        /* \"Qsito/carnaval.sol\":2414:2433  _currentEscolaIndex */\n      sload(0x78)\n        /* \"Qsito/carnaval.sol\":2414:2454  _currentEscolaIndex < QUANTIDADE_ESCOLAS */\n      lt\n        /* \"Qsito/carnaval.sol\":2406:2496  require(_currentEscolaIndex < QUANTIDADE_ESCOLAS, \"Quantidade maxima de escolas atingida\") */\n      tag_271\n      jumpi\n      mload(0x40)\n      0x08c379a000000000000000000000000000000000000000000000000000000000\n      dup2\n      mstore\n      0x04\n      add\n      tag_272\n      swap1\n      tag_267\n      jump\t// in\n    tag_272:\n      mload(0x40)\n      dup1\n      swap2\n      sub\n      swap1\n      revert\n    tag_271:\n        /* \"Qsito/carnaval.sol\":2511:2519  _escolas */\n      0x71\n        /* \"Qsito/carnaval.sol\":2525:2581  Escola({id: _currentEscolaIndex, nome: _nomeEscolas[i]}) */\n      mload(0x40)\n      dup1\n      0x40\n      add\n      0x40\n      mstore\n      dup1\n        /* \"Qsito/carnaval.sol\":2537:2556  _currentEscolaIndex */\n      sload(0x78)\n        /* \"Qsito/carnaval.sol\":2525:2581  Escola({id: _currentEscolaIndex, nome: _nomeEscolas[i]}) */\n      dup2\n      mstore\n      0x20\n      add\n        /* \"Qsito/carnaval.sol\":2564:2576  _nomeEscolas */\n      dup5\n        /* \"Qsito/carnaval.sol\":2577:2578  i */\n      dup5\n        /* \"Qsito/carnaval.sol\":2564:2579  _nomeEscolas[i] */\n      dup2\n      mload\n      dup2\n      lt\n      tag_273\n      jumpi\n      tag_274\n      tag_182\n      jump\t// in\n    tag_274:\n    tag_273:\n      0x20\n      mul\n      0x20\n      add\n      add\n      mload\n        /* \"Qsito/carnaval.sol\":2525:2581  Escola({id: _currentEscolaIndex, nome: _nomeEscolas[i]}) */\n      dup2\n      mstore\n      pop\n        /* \"Qsito/carnaval.sol\":2511:2582  _escolas.push(Escola({id: _currentEscolaIndex, nome: _nomeEscolas[i]})) */\n      swap1\n      dup1\n      0x01\n      dup2\n      sload\n      add\n      dup1\n      dup3\n      sstore\n      dup1\n      swap2\n      pop\n      pop\n      0x01\n      swap1\n      sub\n      swap1\n      0x00\n      mstore\n      keccak256(0x00, 0x20)\n      swap1\n      0x02\n      mul\n      add\n      0x00\n      swap1\n      swap2\n      swap1\n      swap2\n      swap1\n      swap2\n      pop\n      0x00\n      dup3\n      add\n      mload\n      dup2\n      0x00\n      add\n      sstore\n      0x20\n      dup3\n      add\n      mload\n      dup2\n      0x01\n      add\n      swap1\n      dup2\n      tag_276\n      swap2\n      swap1\n      tag_179\n      jump\t// in\n    tag_276:\n      pop\n      pop\n      pop\n        /* \"Qsito/carnaval.sol\":2597:2616  _currentEscolaIndex */\n      0x78\n      0x00\n        /* \"Qsito/carnaval.sol\":2597:2618  _currentEscolaIndex++ */\n      dup2\n      sload\n      dup1\n      swap3\n      swap2\n      swap1\n      tag_277\n      swap1\n      tag_186\n      jump\t// in\n    tag_277:\n      swap2\n      swap1\n      pop\n      sstore\n      pop\n        /* \"Qsito/carnaval.sol\":2386:2389  i++ */\n      dup1\n      dup1\n      0x01\n      add\n      swap2\n      pop\n      pop\n        /* \"Qsito/carnaval.sol\":2344:2630  for (uint i = 0; i < _nomeEscolas.length; i++) {... */\n      jump(tag_268)\n    tag_269:\n      pop\n        /* \"Qsito/carnaval.sol\":2645:2677  EscolasAdicionadas(_nomeEscolas) */\n      0x1dcfb77c5edf55120b12aa71e216239cbc61cc7bcc656271af2d2ece9d005bdb\n        /* \"Qsito/carnaval.sol\":2664:2676  _nomeEscolas */\n      dup2\n        /* \"Qsito/carnaval.sol\":2645:2677  EscolasAdicionadas(_nomeEscolas) */\n      mload(0x40)\n      tag_278\n      swap2\n      swap1\n      tag_234\n      jump\t// in\n    tag_278:\n      mload(0x40)\n      dup1\n      swap2\n      sub\n      swap1\n      log1\n        /* \"Qsito/carnaval.sol\":2170:2685  function addEscolas(string[] memory _nomeEscolas) public onlyOwner {... */\n      pop\n      jump\t// out\n        /* \"@openzeppelin/contracts/utils/Context.sol\":656:752  function _msgSender() internal view virtual returns (address) {... */\n    tag_140:\n        /* \"@openzeppelin/contracts/utils/Context.sol\":709:716  address */\n      0x00\n        /* \"@openzeppelin/contracts/utils/Context.sol\":735:745  msg.sender */\n      caller\n        /* \"@openzeppelin/contracts/utils/Context.sol\":728:745  return msg.sender */\n      swap1\n      pop\n        /* \"@openzeppelin/contracts/utils/Context.sol\":656:752  function _msgSender() internal view virtual returns (address) {... */\n      swap1\n      jump\t// out\n        /* \"@openzeppelin/contracts/token/ERC20/ERC20.sol\":8726:8854  function _approve(address owner, address spender, uint256 value) internal {... */\n    tag_142:\n        /* \"@openzeppelin/contracts/token/ERC20/ERC20.sol\":8810:8847  _approve(owner, spender, value, true) */\n      tag_281\n        /* \"@openzeppelin/contracts/token/ERC20/ERC20.sol\":8819:8824  owner */\n      dup4\n        /* \"@openzeppelin/contracts/token/ERC20/ERC20.sol\":8826:8833  spender */\n      dup4\n        /* \"@openzeppelin/contracts/token/ERC20/ERC20.sol\":8835:8840  value */\n      dup4\n        /* \"@openzeppelin/contracts/token/ERC20/ERC20.sol\":8842:8846  true */\n      0x01\n        /* \"@openzeppelin/contracts/token/ERC20/ERC20.sol\":8810:8818  _approve */\n      tag_282\n        /* \"@openzeppelin/contracts/token/ERC20/ERC20.sol\":8810:8847  _approve(owner, spender, value, true) */\n      jump\t// in\n    tag_281:\n        /* \"@openzeppelin/contracts/token/ERC20/ERC20.sol\":8726:8854  function _approve(address owner, address spender, uint256 value) internal {... */\n      pop\n      pop\n      pop\n      jump\t// out\n        /* \"@openzeppelin/contracts/token/ERC20/ERC20.sol\":10415:10892  function _spendAllowance(address owner, address spender, uint256 value) internal virtual {... */\n    tag_154:\n        /* \"@openzeppelin/contracts/token/ERC20/ERC20.sol\":10514:10538  uint256 currentAllowance */\n      0x00\n        /* \"@openzeppelin/contracts/token/ERC20/ERC20.sol\":10541:10566  allowance(owner, spender) */\n      tag_284\n        /* \"@openzeppelin/contracts/token/ERC20/ERC20.sol\":10551:10556  owner */\n      dup5\n        /* \"@openzeppelin/contracts/token/ERC20/ERC20.sol\":10558:10565  spender */\n      dup5\n        /* \"@openzeppelin/contracts/token/ERC20/ERC20.sol\":10541:10550  allowance */\n      tag_111\n        /* \"@openzeppelin/contracts/token/ERC20/ERC20.sol\":10541:10566  allowance(owner, spender) */\n      jump\t// in\n    tag_284:\n        /* \"@openzeppelin/contracts/token/ERC20/ERC20.sol\":10514:10566  uint256 currentAllowance = allowance(owner, spender) */\n      swap1\n      pop\n        /* \"@openzeppelin/contracts/token/ERC20/ERC20.sol\":10600:10617  type(uint256).max */\n      0xffffffffffffffffffffffffffffffffffffffffffffffffffffffffffffffff\n        /* \"@openzeppelin/contracts/token/ERC20/ERC20.sol\":10580:10596  currentAllowance */\n      dup2\n        /* \"@openzeppelin/contracts/token/ERC20/ERC20.sol\":10580:10617  currentAllowance != type(uint256).max */\n      eq\n        /* \"@openzeppelin/contracts/token/ERC20/ERC20.sol\":10576:10886  if (currentAllowance != type(uint256).max) {... */\n      tag_285\n      jumpi\n        /* \"@openzeppelin/contracts/token/ERC20/ERC20.sol\":10656:10661  value */\n      dup2\n        /* \"@openzeppelin/contracts/token/ERC20/ERC20.sol\":10637:10653  currentAllowance */\n      dup2\n        /* \"@openzeppelin/contracts/token/ERC20/ERC20.sol\":10637:10661  currentAllowance < value */\n      lt\n        /* \"@openzeppelin/contracts/token/ERC20/ERC20.sol\":10633:10763  if (currentAllowance < value) {... */\n      iszero\n      tag_286\n      jumpi\n        /* \"@openzeppelin/contracts/token/ERC20/ERC20.sol\":10715:10722  spender */\n      dup3\n        /* \"@openzeppelin/contracts/token/ERC20/ERC20.sol\":10724:10740  currentAllowance */\n      dup2\n        /* \"@openzeppelin/contracts/token/ERC20/ERC20.sol\":10742:10747  value */\n      dup4\n        /* \"@openzeppelin/contracts/token/ERC20/ERC20.sol\":10688:10748  ERC20InsufficientAllowance(spender, currentAllowance, value) */\n      mload(0x40)\n      0xfb8f41b200000000000000000000000000000000000000000000000000000000\n      dup2\n      mstore\n      0x04\n      add\n      tag_287\n      swap4\n      swap3\n      swap2\n      swap1\n      tag_288\n      jump\t// in\n    tag_287:\n      mload(0x40)\n      dup1\n      swap2\n      sub\n      swap1\n      revert\n        /* \"@openzeppelin/contracts/token/ERC20/ERC20.sol\":10633:10763  if (currentAllowance < value) {... */\n    tag_286:\n        /* \"@openzeppelin/contracts/token/ERC20/ERC20.sol\":10804:10861  _approve(owner, spender, currentAllowance - value, false) */\n      tag_289\n        /* \"@openzeppelin/contracts/token/ERC20/ERC20.sol\":10813:10818  owner */\n      dup5\n        /* \"@openzeppelin/contracts/token/ERC20/ERC20.sol\":10820:10827  spender */\n      dup5\n        /* \"@openzeppelin/contracts/token/ERC20/ERC20.sol\":10848:10853  value */\n      dup5\n        /* \"@openzeppelin/contracts/token/ERC20/ERC20.sol\":10829:10845  currentAllowance */\n      dup5\n        /* \"@openzeppelin/contracts/token/ERC20/ERC20.sol\":10829:10853  currentAllowance - value */\n      sub\n        /* \"@openzeppelin/contracts/token/ERC20/ERC20.sol\":10855:10860  false */\n      0x00\n        /* \"@openzeppelin/contracts/token/ERC20/ERC20.sol\":10804:10812  _approve */\n      tag_282\n        /* \"@openzeppelin/contracts/token/ERC20/ERC20.sol\":10804:10861  _approve(owner, spender, currentAllowance - value, false) */\n      jump\t// in\n    tag_289:\n        /* \"@openzeppelin/contracts/token/ERC20/ERC20.sol\":10576:10886  if (currentAllowance != type(uint256).max) {... */\n    tag_285:\n        /* \"@openzeppelin/contracts/token/ERC20/ERC20.sol\":10504:10892  {... */\n      pop\n        /* \"@openzeppelin/contracts/token/ERC20/ERC20.sol\":10415:10892  function _spendAllowance(address owner, address spender, uint256 value) internal virtual {... */\n      pop\n      pop\n      pop\n      jump\t// out\n        /* \"@openzeppelin/contracts/token/ERC20/ERC20.sol\":5393:5693  function _transfer(address from, address to, uint256 value) internal {... */\n    tag_156:\n        /* \"@openzeppelin/contracts/token/ERC20/ERC20.sol\":5492:5493  0 */\n      0x00\n        /* \"@openzeppelin/contracts/token/ERC20/ERC20.sol\":5476:5494  from == address(0) */\n      0xffffffffffffffffffffffffffffffffffffffff\n      and\n        /* \"@openzeppelin/contracts/token/ERC20/ERC20.sol\":5476:5480  from */\n      dup4\n        /* \"@openzeppelin/contracts/token/ERC20/ERC20.sol\":5476:5494  from == address(0) */\n      0xffffffffffffffffffffffffffffffffffffffff\n      and\n      sub\n        /* \"@openzeppelin/contracts/token/ERC20/ERC20.sol\":5472:5558  if (from == address(0)) {... */\n      tag_291\n      jumpi\n        /* \"@openzeppelin/contracts/token/ERC20/ERC20.sol\":5544:5545  0 */\n      0x00\n        /* \"@openzeppelin/contracts/token/ERC20/ERC20.sol\":5517:5547  ERC20InvalidSender(address(0)) */\n      mload(0x40)\n      0x96c6fd1e00000000000000000000000000000000000000000000000000000000\n      dup2\n      mstore\n      0x04\n      add\n      tag_292\n      swap2\n      swap1\n      tag_88\n      jump\t// in\n    tag_292:\n      mload(0x40)\n      dup1\n      swap2\n      sub\n      swap1\n      revert\n        /* \"@openzeppelin/contracts/token/ERC20/ERC20.sol\":5472:5558  if (from == address(0)) {... */\n    tag_291:\n        /* \"@openzeppelin/contracts/token/ERC20/ERC20.sol\":5585:5586  0 */\n      0x00\n        /* \"@openzeppelin/contracts/token/ERC20/ERC20.sol\":5571:5587  to == address(0) */\n      0xffffffffffffffffffffffffffffffffffffffff\n      and\n        /* \"@openzeppelin/contracts/token/ERC20/ERC20.sol\":5571:5573  to */\n      dup3\n        /* \"@openzeppelin/contracts/token/ERC20/ERC20.sol\":5571:5587  to == address(0) */\n      0xffffffffffffffffffffffffffffffffffffffff\n      and\n      sub\n        /* \"@openzeppelin/contracts/token/ERC20/ERC20.sol\":5567:5653  if (to == address(0)) {... */\n      tag_293\n      jumpi\n        /* \"@openzeppelin/contracts/token/ERC20/ERC20.sol\":5639:5640  0 */\n      0x00\n        /* \"@openzeppelin/contracts/token/ERC20/ERC20.sol\":5610:5642  ERC20InvalidReceiver(address(0)) */\n      mload(0x40)\n      0xec442f0500000000000000000000000000000000000000000000000000000000\n      dup2\n      mstore\n      0x04\n      add\n      tag_294\n      swap2\n      swap1\n      tag_88\n      jump\t// in\n    tag_294:\n      mload(0x40)\n      dup1\n      swap2\n      sub\n      swap1\n      revert\n        /* \"@openzeppelin/contracts/token/ERC20/ERC20.sol\":5567:5653  if (to == address(0)) {... */\n    tag_293:\n        /* \"@openzeppelin/contracts/token/ERC20/ERC20.sol\":5662:5686  _update(from, to, value) */\n      tag_295\n        /* \"@openzeppelin/contracts/token/ERC20/ERC20.sol\":5670:5674  from */\n      dup4\n        /* \"@openzeppelin/contracts/token/ERC20/ERC20.sol\":5676:5678  to */\n      dup4\n        /* \"@openzeppelin/contracts/token/ERC20/ERC20.sol\":5680:5685  value */\n      dup4\n        /* \"@openzeppelin/contracts/token/ERC20/ERC20.sol\":5662:5669  _update */\n      tag_296\n        /* \"@openzeppelin/contracts/token/ERC20/ERC20.sol\":5662:5686  _update(from, to, value) */\n      jump\t// in\n    tag_295:\n        /* \"@openzeppelin/contracts/token/ERC20/ERC20.sol\":5393:5693  function _transfer(address from, address to, uint256 value) internal {... */\n      pop\n      pop\n      pop\n      jump\t// out\n        /* \"@openzeppelin/contracts/token/ERC20/ERC20.sol\":9701:10133  function _approve(address owner, address spender, uint256 value, bool emitEvent) internal virtual {... */\n    tag_282:\n        /* \"@openzeppelin/contracts/token/ERC20/ERC20.sol\":9830:9831  0 */\n      0x00\n        /* \"@openzeppelin/contracts/token/ERC20/ERC20.sol\":9813:9832  owner == address(0) */\n      0xffffffffffffffffffffffffffffffffffffffff\n      and\n        /* \"@openzeppelin/contracts/token/ERC20/ERC20.sol\":9813:9818  owner */\n      dup5\n        /* \"@openzeppelin/contracts/token/ERC20/ERC20.sol\":9813:9832  owner == address(0) */\n      0xffffffffffffffffffffffffffffffffffffffff\n      and\n      sub\n        /* \"@openzeppelin/contracts/token/ERC20/ERC20.sol\":9809:9898  if (owner == address(0)) {... */\n      tag_298\n      jumpi\n        /* \"@openzeppelin/contracts/token/ERC20/ERC20.sol\":9884:9885  0 */\n      0x00\n        /* \"@openzeppelin/contracts/token/ERC20/ERC20.sol\":9855:9887  ERC20InvalidApprover(address(0)) */\n      mload(0x40)\n      0xe602df0500000000000000000000000000000000000000000000000000000000\n      dup2\n      mstore\n      0x04\n      add\n      tag_299\n      swap2\n      swap1\n      tag_88\n      jump\t// in\n    tag_299:\n      mload(0x40)\n      dup1\n      swap2\n      sub\n      swap1\n      revert\n        /* \"@openzeppelin/contracts/token/ERC20/ERC20.sol\":9809:9898  if (owner == address(0)) {... */\n    tag_298:\n        /* \"@openzeppelin/contracts/token/ERC20/ERC20.sol\":9930:9931  0 */\n      0x00\n        /* \"@openzeppelin/contracts/token/ERC20/ERC20.sol\":9911:9932  spender == address(0) */\n      0xffffffffffffffffffffffffffffffffffffffff\n      and\n        /* \"@openzeppelin/contracts/token/ERC20/ERC20.sol\":9911:9918  spender */\n      dup4\n        /* \"@openzeppelin/contracts/token/ERC20/ERC20.sol\":9911:9932  spender == address(0) */\n      0xffffffffffffffffffffffffffffffffffffffff\n      and\n      sub\n        /* \"@openzeppelin/contracts/token/ERC20/ERC20.sol\":9907:9997  if (spender == address(0)) {... */\n      tag_300\n      jumpi\n        /* \"@openzeppelin/contracts/token/ERC20/ERC20.sol\":9983:9984  0 */\n      0x00\n        /* \"@openzeppelin/contracts/token/ERC20/ERC20.sol\":9955:9986  ERC20InvalidSpender(address(0)) */\n      mload(0x40)\n      0x94280d6200000000000000000000000000000000000000000000000000000000\n      dup2\n      mstore\n      0x04\n      add\n      tag_301\n      swap2\n      swap1\n      tag_88\n      jump\t// in\n    tag_301:\n      mload(0x40)\n      dup1\n      swap2\n      sub\n      swap1\n      revert\n        /* \"@openzeppelin/contracts/token/ERC20/ERC20.sol\":9907:9997  if (spender == address(0)) {... */\n    tag_300:\n        /* \"@openzeppelin/contracts/token/ERC20/ERC20.sol\":10036:10041  value */\n      dup2\n        /* \"@openzeppelin/contracts/token/ERC20/ERC20.sol\":10006:10017  _allowances */\n      0x01\n        /* \"@openzeppelin/contracts/token/ERC20/ERC20.sol\":10006:10024  _allowances[owner] */\n      0x00\n        /* \"@openzeppelin/contracts/token/ERC20/ERC20.sol\":10018:10023  owner */\n      dup7\n        /* \"@openzeppelin/contracts/token/ERC20/ERC20.sol\":10006:10024  _allowances[owner] */\n      0xffffffffffffffffffffffffffffffffffffffff\n      and\n      0xffffffffffffffffffffffffffffffffffffffff\n      and\n      dup2\n      mstore\n      0x20\n      add\n      swap1\n      dup2\n      mstore\n      0x20\n      add\n      0x00\n      keccak256\n        /* \"@openzeppelin/contracts/token/ERC20/ERC20.sol\":10006:10033  _allowances[owner][spender] */\n      0x00\n        /* \"@openzeppelin/contracts/token/ERC20/ERC20.sol\":10025:10032  spender */\n      dup6\n        /* \"@openzeppelin/contracts/token/ERC20/ERC20.sol\":10006:10033  _allowances[owner][spender] */\n      0xffffffffffffffffffffffffffffffffffffffff\n      and\n      0xffffffffffffffffffffffffffffffffffffffff\n      and\n      dup2\n      mstore\n      0x20\n      add\n      swap1\n      dup2\n      mstore\n      0x20\n      add\n      0x00\n      keccak256\n        /* \"@openzeppelin/contracts/token/ERC20/ERC20.sol\":10006:10041  _allowances[owner][spender] = value */\n      dup2\n      swap1\n      sstore\n      pop\n        /* \"@openzeppelin/contracts/token/ERC20/ERC20.sol\":10055:10064  emitEvent */\n      dup1\n        /* \"@openzeppelin/contracts/token/ERC20/ERC20.sol\":10051:10127  if (emitEvent) {... */\n      iszero\n      tag_302\n      jumpi\n        /* \"@openzeppelin/contracts/token/ERC20/ERC20.sol\":10101:10108  spender */\n      dup3\n        /* \"@openzeppelin/contracts/token/ERC20/ERC20.sol\":10085:10116  Approval(owner, spender, value) */\n      0xffffffffffffffffffffffffffffffffffffffff\n      and\n        /* \"@openzeppelin/contracts/token/ERC20/ERC20.sol\":10094:10099  owner */\n      dup5\n        /* \"@openzeppelin/contracts/token/ERC20/ERC20.sol\":10085:10116  Approval(owner, spender, value) */\n      0xffffffffffffffffffffffffffffffffffffffff\n      and\n      0x8c5be1e5ebec7d5bd14f71427d1e84f3dd0314c0f7b2291e5b200ac8c7c3b925\n        /* \"@openzeppelin/contracts/token/ERC20/ERC20.sol\":10110:10115  value */\n      dup5\n        /* \"@openzeppelin/contracts/token/ERC20/ERC20.sol\":10085:10116  Approval(owner, spender, value) */\n      mload(0x40)\n      tag_303\n      swap2\n      swap1\n      tag_51\n      jump\t// in\n    tag_303:\n      mload(0x40)\n      dup1\n      swap2\n      sub\n      swap1\n      log3\n        /* \"@openzeppelin/contracts/token/ERC20/ERC20.sol\":10051:10127  if (emitEvent) {... */\n    tag_302:\n        /* \"@openzeppelin/contracts/token/ERC20/ERC20.sol\":9701:10133  function _approve(address owner, address spender, uint256 value, bool emitEvent) internal virtual {... */\n      pop\n      pop\n      pop\n      pop\n      jump\t// out\n        /* \"@openzeppelin/contracts/token/ERC20/ERC20.sol\":6008:7115  function _update(address from, address to, uint256 value) internal virtual {... */\n    tag_296:\n        /* \"@openzeppelin/contracts/token/ERC20/ERC20.sol\":6113:6114  0 */\n      0x00\n        /* \"@openzeppelin/contracts/token/ERC20/ERC20.sol\":6097:6115  from == address(0) */\n      0xffffffffffffffffffffffffffffffffffffffff\n      and\n        /* \"@openzeppelin/contracts/token/ERC20/ERC20.sol\":6097:6101  from */\n      dup4\n        /* \"@openzeppelin/contracts/token/ERC20/ERC20.sol\":6097:6115  from == address(0) */\n      0xffffffffffffffffffffffffffffffffffffffff\n      and\n      sub\n        /* \"@openzeppelin/contracts/token/ERC20/ERC20.sol\":6093:6633  if (from == address(0)) {... */\n      tag_305\n      jumpi\n        /* \"@openzeppelin/contracts/token/ERC20/ERC20.sol\":6249:6254  value */\n      dup1\n        /* \"@openzeppelin/contracts/token/ERC20/ERC20.sol\":6233:6245  _totalSupply */\n      0x02\n      0x00\n        /* \"@openzeppelin/contracts/token/ERC20/ERC20.sol\":6233:6254  _totalSupply += value */\n      dup3\n      dup3\n      sload\n      tag_306\n      swap2\n      swap1\n      tag_307\n      jump\t// in\n    tag_306:\n      swap3\n      pop\n      pop\n      dup2\n      swap1\n      sstore\n      pop\n        /* \"@openzeppelin/contracts/token/ERC20/ERC20.sol\":6093:6633  if (from == address(0)) {... */\n      jump(tag_308)\n    tag_305:\n        /* \"@openzeppelin/contracts/token/ERC20/ERC20.sol\":6285:6304  uint256 fromBalance */\n      0x00\n        /* \"@openzeppelin/contracts/token/ERC20/ERC20.sol\":6307:6316  _balances */\n      0x00\n        /* \"@openzeppelin/contracts/token/ERC20/ERC20.sol\":6307:6322  _balances[from] */\n      0x00\n        /* \"@openzeppelin/contracts/token/ERC20/ERC20.sol\":6317:6321  from */\n      dup6\n        /* \"@openzeppelin/contracts/token/ERC20/ERC20.sol\":6307:6322  _balances[from] */\n      0xffffffffffffffffffffffffffffffffffffffff\n      and\n      0xffffffffffffffffffffffffffffffffffffffff\n      and\n      dup2\n      mstore\n      0x20\n      add\n      swap1\n      dup2\n      mstore\n      0x20\n      add\n      0x00\n      keccak256\n      sload\n        /* \"@openzeppelin/contracts/token/ERC20/ERC20.sol\":6285:6322  uint256 fromBalance = _balances[from] */\n      swap1\n      pop\n        /* \"@openzeppelin/contracts/token/ERC20/ERC20.sol\":6354:6359  value */\n      dup2\n        /* \"@openzeppelin/contracts/token/ERC20/ERC20.sol\":6340:6351  fromBalance */\n      dup2\n        /* \"@openzeppelin/contracts/token/ERC20/ERC20.sol\":6340:6359  fromBalance < value */\n      lt\n        /* \"@openzeppelin/contracts/token/ERC20/ERC20.sol\":6336:6451  if (fromBalance < value) {... */\n      iszero\n      tag_309\n      jumpi\n        /* \"@openzeppelin/contracts/token/ERC20/ERC20.sol\":6411:6415  from */\n      dup4\n        /* \"@openzeppelin/contracts/token/ERC20/ERC20.sol\":6417:6428  fromBalance */\n      dup2\n        /* \"@openzeppelin/contracts/token/ERC20/ERC20.sol\":6430:6435  value */\n      dup4\n        /* \"@openzeppelin/contracts/token/ERC20/ERC20.sol\":6386:6436  ERC20InsufficientBalance(from, fromBalance, value) */\n      mload(0x40)\n      0xe450d38c00000000000000000000000000000000000000000000000000000000\n      dup2\n      mstore\n      0x04\n      add\n      tag_310\n      swap4\n      swap3\n      swap2\n      swap1\n      tag_288\n      jump\t// in\n    tag_310:\n      mload(0x40)\n      dup1\n      swap2\n      sub\n      swap1\n      revert\n        /* \"@openzeppelin/contracts/token/ERC20/ERC20.sol\":6336:6451  if (fromBalance < value) {... */\n    tag_309:\n        /* \"@openzeppelin/contracts/token/ERC20/ERC20.sol\":6603:6608  value */\n      dup2\n        /* \"@openzeppelin/contracts/token/ERC20/ERC20.sol\":6589:6600  fromBalance */\n      dup2\n        /* \"@openzeppelin/contracts/token/ERC20/ERC20.sol\":6589:6608  fromBalance - value */\n      sub\n        /* \"@openzeppelin/contracts/token/ERC20/ERC20.sol\":6571:6580  _balances */\n      0x00\n        /* \"@openzeppelin/contracts/token/ERC20/ERC20.sol\":6571:6586  _balances[from] */\n      0x00\n        /* \"@openzeppelin/contracts/token/ERC20/ERC20.sol\":6581:6585  from */\n      dup7\n        /* \"@openzeppelin/contracts/token/ERC20/ERC20.sol\":6571:6586  _balances[from] */\n      0xffffffffffffffffffffffffffffffffffffffff\n      and\n      0xffffffffffffffffffffffffffffffffffffffff\n      and\n      dup2\n      mstore\n      0x20\n      add\n      swap1\n      dup2\n      mstore\n      0x20\n      add\n      0x00\n      keccak256\n        /* \"@openzeppelin/contracts/token/ERC20/ERC20.sol\":6571:6608  _balances[from] = fromBalance - value */\n      dup2\n      swap1\n      sstore\n      pop\n        /* \"@openzeppelin/contracts/token/ERC20/ERC20.sol\":6271:6633  {... */\n      pop\n        /* \"@openzeppelin/contracts/token/ERC20/ERC20.sol\":6093:6633  if (from == address(0)) {... */\n    tag_308:\n        /* \"@openzeppelin/contracts/token/ERC20/ERC20.sol\":6661:6662  0 */\n      0x00\n        /* \"@openzeppelin/contracts/token/ERC20/ERC20.sol\":6647:6663  to == address(0) */\n      0xffffffffffffffffffffffffffffffffffffffff\n      and\n        /* \"@openzeppelin/contracts/token/ERC20/ERC20.sol\":6647:6649  to */\n      dup3\n        /* \"@openzeppelin/contracts/token/ERC20/ERC20.sol\":6647:6663  to == address(0) */\n      0xffffffffffffffffffffffffffffffffffffffff\n      and\n      sub\n        /* \"@openzeppelin/contracts/token/ERC20/ERC20.sol\":6643:7068  if (to == address(0)) {... */\n      tag_311\n      jumpi\n        /* \"@openzeppelin/contracts/token/ERC20/ERC20.sol\":6826:6831  value */\n      dup1\n        /* \"@openzeppelin/contracts/token/ERC20/ERC20.sol\":6810:6822  _totalSupply */\n      0x02\n      0x00\n        /* \"@openzeppelin/contracts/token/ERC20/ERC20.sol\":6810:6831  _totalSupply -= value */\n      dup3\n      dup3\n      sload\n      sub\n      swap3\n      pop\n      pop\n      dup2\n      swap1\n      sstore\n      pop\n        /* \"@openzeppelin/contracts/token/ERC20/ERC20.sol\":6643:7068  if (to == address(0)) {... */\n      jump(tag_312)\n    tag_311:\n        /* \"@openzeppelin/contracts/token/ERC20/ERC20.sol\":7038:7043  value */\n      dup1\n        /* \"@openzeppelin/contracts/token/ERC20/ERC20.sol\":7021:7030  _balances */\n      0x00\n        /* \"@openzeppelin/contracts/token/ERC20/ERC20.sol\":7021:7034  _balances[to] */\n      0x00\n        /* \"@openzeppelin/contracts/token/ERC20/ERC20.sol\":7031:7033  to */\n      dup5\n        /* \"@openzeppelin/contracts/token/ERC20/ERC20.sol\":7021:7034  _balances[to] */\n      0xffffffffffffffffffffffffffffffffffffffff\n      and\n      0xffffffffffffffffffffffffffffffffffffffff\n      and\n      dup2\n      mstore\n      0x20\n      add\n      swap1\n      dup2\n      mstore\n      0x20\n      add\n      0x00\n      keccak256\n      0x00\n        /* \"@openzeppelin/contracts/token/ERC20/ERC20.sol\":7021:7043  _balances[to] += value */\n      dup3\n      dup3\n      sload\n      add\n      swap3\n      pop\n      pop\n      dup2\n      swap1\n      sstore\n      pop\n        /* \"@openzeppelin/contracts/token/ERC20/ERC20.sol\":6643:7068  if (to == address(0)) {... */\n    tag_312:\n        /* \"@openzeppelin/contracts/token/ERC20/ERC20.sol\":7098:7100  to */\n      dup2\n        /* \"@openzeppelin/contracts/token/ERC20/ERC20.sol\":7083:7108  Transfer(from, to, value) */\n      0xffffffffffffffffffffffffffffffffffffffff\n      and\n        /* \"@openzeppelin/contracts/token/ERC20/ERC20.sol\":7092:7096  from */\n      dup4\n        /* \"@openzeppelin/contracts/token/ERC20/ERC20.sol\":7083:7108  Transfer(from, to, value) */\n      0xffffffffffffffffffffffffffffffffffffffff\n      and\n      0xddf252ad1be2c89b69c2b068fc378daa952ba7f163c4a11628f55a4df523b3ef\n        /* \"@openzeppelin/contracts/token/ERC20/ERC20.sol\":7102:7107  value */\n      dup4\n        /* \"@openzeppelin/contracts/token/ERC20/ERC20.sol\":7083:7108  Transfer(from, to, value) */\n      mload(0x40)\n      tag_313\n      swap2\n      swap1\n      tag_51\n      jump\t// in\n    tag_313:\n      mload(0x40)\n      dup1\n      swap2\n      sub\n      swap1\n      log3\n        /* \"@openzeppelin/contracts/token/ERC20/ERC20.sol\":6008:7115  function _update(address from, address to, uint256 value) internal virtual {... */\n      pop\n      pop\n      pop\n      jump\t// out\n    tag_248:\n      pop\n      dup1\n      mul(0x03, 0x24)\n      add\n      swap1\n      tag_314\n      swap2\n      swap1\n      tag_315\n      jump\t// in\n    tag_314:\n      pop\n      jump\t// out\n    tag_250:\n      pop\n      dup1\n      sload\n      0x00\n      dup3\n      sstore\n      0x02\n      mul\n      swap1\n      0x00\n      mstore\n      keccak256(0x00, 0x20)\n      swap1\n      dup2\n      add\n      swap1\n      tag_317\n      swap2\n      swap1\n      tag_318\n      jump\t// in\n    tag_317:\n      pop\n      jump\t// out\n    tag_252:\n      pop\n      dup1\n      sload\n      0x00\n      dup3\n      sstore\n      0x02\n      mul\n      swap1\n      0x00\n      mstore\n      keccak256(0x00, 0x20)\n      swap1\n      dup2\n      add\n      swap1\n      tag_320\n      swap2\n      swap1\n      tag_321\n      jump\t// in\n    tag_320:\n      pop\n      jump\t// out\n    tag_254:\n      pop\n      dup1\n      sload\n      0x00\n      dup3\n      sstore\n      0x04\n      mul\n      swap1\n      0x00\n      mstore\n      keccak256(0x00, 0x20)\n      swap1\n      dup2\n      add\n      swap1\n      tag_323\n      swap2\n      swap1\n      tag_324\n      jump\t// in\n    tag_323:\n      pop\n      jump\t// out\n    tag_315:\n    tag_325:\n      dup1\n      dup3\n      gt\n      iszero\n      tag_326\n      jumpi\n      0x00\n      0x00\n      dup3\n      add\n      exp(0x0100, 0x00)\n      dup2\n      sload\n      swap1\n      0xffffffffffffffffffffffffffffffffffffffff\n      mul\n      not\n      and\n      swap1\n      sstore\n      0x01\n      dup3\n      add\n      0x00\n      tag_327\n      swap2\n      swap1\n      tag_328\n      jump\t// in\n    tag_327:\n      0x02\n      dup3\n      add\n      0x00\n      swap1\n      sstore\n      pop\n      0x03\n      add\n      jump(tag_325)\n    tag_326:\n      pop\n      swap1\n      jump\t// out\n    tag_318:\n    tag_329:\n      dup1\n      dup3\n      gt\n      iszero\n      tag_330\n      jumpi\n      0x00\n      0x00\n      dup3\n      add\n      0x00\n      swap1\n      sstore\n      0x01\n      dup3\n      add\n      0x00\n      tag_331\n      swap2\n      swap1\n      tag_328\n      jump\t// in\n    tag_331:\n      pop\n      0x02\n      add\n      jump(tag_329)\n    tag_330:\n      pop\n      swap1\n      jump\t// out\n    tag_321:\n    tag_332:\n      dup1\n      dup3\n      gt\n      iszero\n      tag_333\n      jumpi\n      0x00\n      0x00\n      dup3\n      add\n      0x00\n      swap1\n      sstore\n      0x01\n      dup3\n      add\n      0x00\n      tag_334\n      swap2\n      swap1\n      tag_328\n      jump\t// in\n    tag_334:\n      pop\n      0x02\n      add\n      jump(tag_332)\n    tag_333:\n      pop\n      swap1\n      jump\t// out\n    tag_324:\n    tag_335:\n      dup1\n      dup3\n      gt\n      iszero\n      tag_336\n      jumpi\n      0x00\n      0x00\n      dup3\n      add\n      0x00\n      swap1\n      sstore\n      0x01\n      dup3\n      add\n      0x00\n      swap1\n      sstore\n      0x02\n      dup3\n      add\n      exp(0x0100, 0x00)\n      dup2\n      sload\n      swap1\n      0xffffffffffffffffffffffffffffffffffffffff\n      mul\n      not\n      and\n      swap1\n      sstore\n      0x03\n      dup3\n      add\n      0x00\n      swap1\n      sstore\n      pop\n      0x04\n      add\n      jump(tag_335)\n    tag_336:\n      pop\n      swap1\n      jump\t// out\n    tag_328:\n      pop\n      dup1\n      sload\n      tag_337\n      swap1\n      tag_133\n      jump\t// in\n    tag_337:\n      0x00\n      dup3\n      sstore\n      dup1\n      0x1f\n      lt\n      tag_339\n      jumpi\n      pop\n      jump(tag_338)\n    tag_339:\n      0x1f\n      add\n      0x20\n      swap1\n      div\n      swap1\n      0x00\n      mstore\n      keccak256(0x00, 0x20)\n      swap1\n      dup2\n      add\n      swap1\n      tag_340\n      swap2\n      swap1\n      tag_341\n      jump\t// in\n    tag_340:\n    tag_338:\n      pop\n      jump\t// out\n    tag_341:\n    tag_342:\n      dup1\n      dup3\n      gt\n      iszero\n      tag_343\n      jumpi\n      0x00\n      dup2\n      0x00\n      swap1\n      sstore\n      pop\n      0x01\n      add\n      jump(tag_342)\n    tag_343:\n      pop\n      swap1\n      jump\t// out\n        /* \"#utility.yul\":7:82   */\n    tag_344:\n        /* \"#utility.yul\":40:46   */\n      0x00\n        /* \"#utility.yul\":73:75   */\n      0x40\n        /* \"#utility.yul\":67:76   */\n      mload\n        /* \"#utility.yul\":57:76   */\n      swap1\n      pop\n        /* \"#utility.yul\":7:82   */\n      swap1\n      jump\t// out\n        /* \"#utility.yul\":88:205   */\n    tag_345:\n        /* \"#utility.yul\":197:198   */\n      0x00\n        /* \"#utility.yul\":194:195   */\n      0x00\n        /* \"#utility.yul\":187:199   */\n      revert\n        /* \"#utility.yul\":211:328   */\n    tag_346:\n        /* \"#utility.yul\":320:321   */\n      0x00\n        /* \"#utility.yul\":317:318   */\n      0x00\n        /* \"#utility.yul\":310:322   */\n      revert\n        /* \"#utility.yul\":334:411   */\n    tag_347:\n        /* \"#utility.yul\":371:378   */\n      0x00\n        /* \"#utility.yul\":400:405   */\n      dup2\n        /* \"#utility.yul\":389:405   */\n      swap1\n      pop\n        /* \"#utility.yul\":334:411   */\n      swap2\n      swap1\n      pop\n      jump\t// out\n        /* \"#utility.yul\":417:539   */\n    tag_348:\n        /* \"#utility.yul\":490:514   */\n      tag_442\n        /* \"#utility.yul\":508:513   */\n      dup2\n        /* \"#utility.yul\":490:514   */\n      tag_347\n      jump\t// in\n    tag_442:\n        /* \"#utility.yul\":483:488   */\n      dup2\n        /* \"#utility.yul\":480:515   */\n      eq\n        /* \"#utility.yul\":470:533   */\n      tag_443\n      jumpi\n        /* \"#utility.yul\":529:530   */\n      0x00\n        /* \"#utility.yul\":526:527   */\n      0x00\n        /* \"#utility.yul\":519:531   */\n      revert\n        /* \"#utility.yul\":470:533   */\n    tag_443:\n        /* \"#utility.yul\":417:539   */\n      pop\n      jump\t// out\n        /* \"#utility.yul\":545:684   */\n    tag_349:\n        /* \"#utility.yul\":591:596   */\n      0x00\n        /* \"#utility.yul\":629:635   */\n      dup2\n        /* \"#utility.yul\":616:636   */\n      calldataload\n        /* \"#utility.yul\":607:636   */\n      swap1\n      pop\n        /* \"#utility.yul\":645:678   */\n      tag_445\n        /* \"#utility.yul\":672:677   */\n      dup2\n        /* \"#utility.yul\":645:678   */\n      tag_348\n      jump\t// in\n    tag_445:\n        /* \"#utility.yul\":545:684   */\n      swap3\n      swap2\n      pop\n      pop\n      jump\t// out\n        /* \"#utility.yul\":690:1309   */\n    tag_30:\n        /* \"#utility.yul\":767:773   */\n      0x00\n        /* \"#utility.yul\":775:781   */\n      0x00\n        /* \"#utility.yul\":783:789   */\n      0x00\n        /* \"#utility.yul\":832:834   */\n      0x60\n        /* \"#utility.yul\":820:829   */\n      dup5\n        /* \"#utility.yul\":811:818   */\n      dup7\n        /* \"#utility.yul\":807:830   */\n      sub\n        /* \"#utility.yul\":803:835   */\n      slt\n        /* \"#utility.yul\":800:919   */\n      iszero\n      tag_447\n      jumpi\n        /* \"#utility.yul\":838:917   */\n      tag_448\n      tag_345\n      jump\t// in\n    tag_448:\n        /* \"#utility.yul\":800:919   */\n    tag_447:\n        /* \"#utility.yul\":958:959   */\n      0x00\n        /* \"#utility.yul\":983:1036   */\n      tag_449\n        /* \"#utility.yul\":1028:1035   */\n      dup7\n        /* \"#utility.yul\":1019:1025   */\n      dup3\n        /* \"#utility.yul\":1008:1017   */\n      dup8\n        /* \"#utility.yul\":1004:1026   */\n      add\n        /* \"#utility.yul\":983:1036   */\n      tag_349\n      jump\t// in\n    tag_449:\n        /* \"#utility.yul\":973:1036   */\n      swap4\n      pop\n        /* \"#utility.yul\":929:1046   */\n      pop\n        /* \"#utility.yul\":1085:1087   */\n      0x20\n        /* \"#utility.yul\":1111:1164   */\n      tag_450\n        /* \"#utility.yul\":1156:1163   */\n      dup7\n        /* \"#utility.yul\":1147:1153   */\n      dup3\n        /* \"#utility.yul\":1136:1145   */\n      dup8\n        /* \"#utility.yul\":1132:1154   */\n      add\n        /* \"#utility.yul\":1111:1164   */\n      tag_349\n      jump\t// in\n    tag_450:\n        /* \"#utility.yul\":1101:1164   */\n      swap3\n      pop\n        /* \"#utility.yul\":1056:1174   */\n      pop\n        /* \"#utility.yul\":1213:1215   */\n      0x40\n        /* \"#utility.yul\":1239:1292   */\n      tag_451\n        /* \"#utility.yul\":1284:1291   */\n      dup7\n        /* \"#utility.yul\":1275:1281   */\n      dup3\n        /* \"#utility.yul\":1264:1273   */\n      dup8\n        /* \"#utility.yul\":1260:1282   */\n      add\n        /* \"#utility.yul\":1239:1292   */\n      tag_349\n      jump\t// in\n    tag_451:\n        /* \"#utility.yul\":1229:1292   */\n      swap2\n      pop\n        /* \"#utility.yul\":1184:1302   */\n      pop\n        /* \"#utility.yul\":690:1309   */\n      swap3\n      pop\n      swap3\n      pop\n      swap3\n      jump\t// out\n        /* \"#utility.yul\":1315:1414   */\n    tag_350:\n        /* \"#utility.yul\":1367:1373   */\n      0x00\n        /* \"#utility.yul\":1401:1406   */\n      dup2\n        /* \"#utility.yul\":1395:1407   */\n      mload\n        /* \"#utility.yul\":1385:1407   */\n      swap1\n      pop\n        /* \"#utility.yul\":1315:1414   */\n      swap2\n      swap1\n      pop\n      jump\t// out\n        /* \"#utility.yul\":1420:1589   */\n    tag_351:\n        /* \"#utility.yul\":1504:1515   */\n      0x00\n        /* \"#utility.yul\":1538:1544   */\n      dup3\n        /* \"#utility.yul\":1533:1536   */\n      dup3\n        /* \"#utility.yul\":1526:1545   */\n      mstore\n        /* \"#utility.yul\":1578:1582   */\n      0x20\n        /* \"#utility.yul\":1573:1576   */\n      dup3\n        /* \"#utility.yul\":1569:1583   */\n      add\n        /* \"#utility.yul\":1554:1583   */\n      swap1\n      pop\n        /* \"#utility.yul\":1420:1589   */\n      swap3\n      swap2\n      pop\n      pop\n      jump\t// out\n        /* \"#utility.yul\":1595:1734   */\n    tag_352:\n        /* \"#utility.yul\":1684:1690   */\n      dup3\n        /* \"#utility.yul\":1679:1682   */\n      dup2\n        /* \"#utility.yul\":1674:1677   */\n      dup4\n        /* \"#utility.yul\":1668:1691   */\n      mcopy\n        /* \"#utility.yul\":1725:1726   */\n      0x00\n        /* \"#utility.yul\":1716:1722   */\n      dup4\n        /* \"#utility.yul\":1711:1714   */\n      dup4\n        /* \"#utility.yul\":1707:1723   */\n      add\n        /* \"#utility.yul\":1700:1727   */\n      mstore\n        /* \"#utility.yul\":1595:1734   */\n      pop\n      pop\n      pop\n      jump\t// out\n        /* \"#utility.yul\":1740:1842   */\n    tag_353:\n        /* \"#utility.yul\":1781:1787   */\n      0x00\n        /* \"#utility.yul\":1832:1834   */\n      0x1f\n        /* \"#utility.yul\":1828:1835   */\n      not\n        /* \"#utility.yul\":1823:1825   */\n      0x1f\n        /* \"#utility.yul\":1816:1821   */\n      dup4\n        /* \"#utility.yul\":1812:1826   */\n      add\n        /* \"#utility.yul\":1808:1836   */\n      and\n        /* \"#utility.yul\":1798:1836   */\n      swap1\n      pop\n        /* \"#utility.yul\":1740:1842   */\n      swap2\n      swap1\n      pop\n      jump\t// out\n        /* \"#utility.yul\":1848:2225   */\n    tag_354:\n        /* \"#utility.yul\":1936:1939   */\n      0x00\n        /* \"#utility.yul\":1964:2003   */\n      tag_457\n        /* \"#utility.yul\":1997:2002   */\n      dup3\n        /* \"#utility.yul\":1964:2003   */\n      tag_350\n      jump\t// in\n    tag_457:\n        /* \"#utility.yul\":2019:2090   */\n      tag_458\n        /* \"#utility.yul\":2083:2089   */\n      dup2\n        /* \"#utility.yul\":2078:2081   */\n      dup6\n        /* \"#utility.yul\":2019:2090   */\n      tag_351\n      jump\t// in\n    tag_458:\n        /* \"#utility.yul\":2012:2090   */\n      swap4\n      pop\n        /* \"#utility.yul\":2099:2164   */\n      tag_459\n        /* \"#utility.yul\":2157:2163   */\n      dup2\n        /* \"#utility.yul\":2152:2155   */\n      dup6\n        /* \"#utility.yul\":2145:2149   */\n      0x20\n        /* \"#utility.yul\":2138:2143   */\n      dup7\n        /* \"#utility.yul\":2134:2150   */\n      add\n        /* \"#utility.yul\":2099:2164   */\n      tag_352\n      jump\t// in\n    tag_459:\n        /* \"#utility.yul\":2189:2218   */\n      tag_460\n        /* \"#utility.yul\":2211:2217   */\n      dup2\n        /* \"#utility.yul\":2189:2218   */\n      tag_353\n      jump\t// in\n    tag_460:\n        /* \"#utility.yul\":2184:2187   */\n      dup5\n        /* \"#utility.yul\":2180:2219   */\n      add\n        /* \"#utility.yul\":2173:2219   */\n      swap2\n      pop\n        /* \"#utility.yul\":1940:2225   */\n      pop\n        /* \"#utility.yul\":1848:2225   */\n      swap3\n      swap2\n      pop\n      pop\n      jump\t// out\n        /* \"#utility.yul\":2231:2544   */\n    tag_35:\n        /* \"#utility.yul\":2344:2348   */\n      0x00\n        /* \"#utility.yul\":2382:2384   */\n      0x20\n        /* \"#utility.yul\":2371:2380   */\n      dup3\n        /* \"#utility.yul\":2367:2385   */\n      add\n        /* \"#utility.yul\":2359:2385   */\n      swap1\n      pop\n        /* \"#utility.yul\":2431:2440   */\n      dup2\n        /* \"#utility.yul\":2425:2429   */\n      dup2\n        /* \"#utility.yul\":2421:2441   */\n      sub\n        /* \"#utility.yul\":2417:2418   */\n      0x00\n        /* \"#utility.yul\":2406:2415   */\n      dup4\n        /* \"#utility.yul\":2402:2419   */\n      add\n        /* \"#utility.yul\":2395:2442   */\n      mstore\n        /* \"#utility.yul\":2459:2537   */\n      tag_462\n        /* \"#utility.yul\":2532:2536   */\n      dup2\n        /* \"#utility.yul\":2523:2529   */\n      dup5\n        /* \"#utility.yul\":2459:2537   */\n      tag_354\n      jump\t// in\n    tag_462:\n        /* \"#utility.yul\":2451:2537   */\n      swap1\n      pop\n        /* \"#utility.yul\":2231:2544   */\n      swap3\n      swap2\n      pop\n      pop\n      jump\t// out\n        /* \"#utility.yul\":2550:2676   */\n    tag_355:\n        /* \"#utility.yul\":2587:2594   */\n      0x00\n        /* \"#utility.yul\":2627:2669   */\n      0xffffffffffffffffffffffffffffffffffffffff\n        /* \"#utility.yul\":2620:2625   */\n      dup3\n        /* \"#utility.yul\":2616:2670   */\n      and\n        /* \"#utility.yul\":2605:2670   */\n      swap1\n      pop\n        /* \"#utility.yul\":2550:2676   */\n      swap2\n      swap1\n      pop\n      jump\t// out\n        /* \"#utility.yul\":2682:2778   */\n    tag_356:\n        /* \"#utility.yul\":2719:2726   */\n      0x00\n        /* \"#utility.yul\":2748:2772   */\n      tag_465\n        /* \"#utility.yul\":2766:2771   */\n      dup3\n        /* \"#utility.yul\":2748:2772   */\n      tag_355\n      jump\t// in\n    tag_465:\n        /* \"#utility.yul\":2737:2772   */\n      swap1\n      pop\n        /* \"#utility.yul\":2682:2778   */\n      swap2\n      swap1\n      pop\n      jump\t// out\n        /* \"#utility.yul\":2784:2906   */\n    tag_357:\n        /* \"#utility.yul\":2857:2881   */\n      tag_467\n        /* \"#utility.yul\":2875:2880   */\n      dup2\n        /* \"#utility.yul\":2857:2881   */\n      tag_356\n      jump\t// in\n    tag_467:\n        /* \"#utility.yul\":2850:2855   */\n      dup2\n        /* \"#utility.yul\":2847:2882   */\n      eq\n        /* \"#utility.yul\":2837:2900   */\n      tag_468\n      jumpi\n        /* \"#utility.yul\":2896:2897   */\n      0x00\n        /* \"#utility.yul\":2893:2894   */\n      0x00\n        /* \"#utility.yul\":2886:2898   */\n      revert\n        /* \"#utility.yul\":2837:2900   */\n    tag_468:\n        /* \"#utility.yul\":2784:2906   */\n      pop\n      jump\t// out\n        /* \"#utility.yul\":2912:3051   */\n    tag_358:\n        /* \"#utility.yul\":2958:2963   */\n      0x00\n        /* \"#utility.yul\":2996:3002   */\n      dup2\n        /* \"#utility.yul\":2983:3003   */\n      calldataload\n        /* \"#utility.yul\":2974:3003   */\n      swap1\n      pop\n        /* \"#utility.yul\":3012:3045   */\n      tag_470\n        /* \"#utility.yul\":3039:3044   */\n      dup2\n        /* \"#utility.yul\":3012:3045   */\n      tag_357\n      jump\t// in\n    tag_470:\n        /* \"#utility.yul\":2912:3051   */\n      swap3\n      swap2\n      pop\n      pop\n      jump\t// out\n        /* \"#utility.yul\":3057:3531   */\n    tag_38:\n        /* \"#utility.yul\":3125:3131   */\n      0x00\n        /* \"#utility.yul\":3133:3139   */\n      0x00\n        /* \"#utility.yul\":3182:3184   */\n      0x40\n        /* \"#utility.yul\":3170:3179   */\n      dup4\n        /* \"#utility.yul\":3161:3168   */\n      dup6\n        /* \"#utility.yul\":3157:3180   */\n      sub\n        /* \"#utility.yul\":3153:3185   */\n      slt\n        /* \"#utility.yul\":3150:3269   */\n      iszero\n      tag_472\n      jumpi\n        /* \"#utility.yul\":3188:3267   */\n      tag_473\n      tag_345\n      jump\t// in\n    tag_473:\n        /* \"#utility.yul\":3150:3269   */\n    tag_472:\n        /* \"#utility.yul\":3308:3309   */\n      0x00\n        /* \"#utility.yul\":3333:3386   */\n      tag_474\n        /* \"#utility.yul\":3378:3385   */\n      dup6\n        /* \"#utility.yul\":3369:3375   */\n      dup3\n        /* \"#utility.yul\":3358:3367   */\n      dup7\n        /* \"#utility.yul\":3354:3376   */\n      add\n        /* \"#utility.yul\":3333:3386   */\n      tag_358\n      jump\t// in\n    tag_474:\n        /* \"#utility.yul\":3323:3386   */\n      swap3\n      pop\n        /* \"#utility.yul\":3279:3396   */\n      pop\n        /* \"#utility.yul\":3435:3437   */\n      0x20\n        /* \"#utility.yul\":3461:3514   */\n      tag_475\n        /* \"#utility.yul\":3506:3513   */\n      dup6\n        /* \"#utility.yul\":3497:3503   */\n      dup3\n        /* \"#utility.yul\":3486:3495   */\n      dup7\n        /* \"#utility.yul\":3482:3504   */\n      add\n        /* \"#utility.yul\":3461:3514   */\n      tag_349\n      jump\t// in\n    tag_475:\n        /* \"#utility.yul\":3451:3514   */\n      swap2\n      pop\n        /* \"#utility.yul\":3406:3524   */\n      pop\n        /* \"#utility.yul\":3057:3531   */\n      swap3\n      pop\n      swap3\n      swap1\n      pop\n      jump\t// out\n        /* \"#utility.yul\":3537:3627   */\n    tag_359:\n        /* \"#utility.yul\":3571:3578   */\n      0x00\n        /* \"#utility.yul\":3614:3619   */\n      dup2\n        /* \"#utility.yul\":3607:3620   */\n      iszero\n        /* \"#utility.yul\":3600:3621   */\n      iszero\n        /* \"#utility.yul\":3589:3621   */\n      swap1\n      pop\n        /* \"#utility.yul\":3537:3627   */\n      swap2\n      swap1\n      pop\n      jump\t// out\n        /* \"#utility.yul\":3633:3742   */\n    tag_360:\n        /* \"#utility.yul\":3714:3735   */\n      tag_478\n        /* \"#utility.yul\":3729:3734   */\n      dup2\n        /* \"#utility.yul\":3714:3735   */\n      tag_359\n      jump\t// in\n    tag_478:\n        /* \"#utility.yul\":3709:3712   */\n      dup3\n        /* \"#utility.yul\":3702:3736   */\n      mstore\n        /* \"#utility.yul\":3633:3742   */\n      pop\n      pop\n      jump\t// out\n        /* \"#utility.yul\":3748:3958   */\n    tag_41:\n        /* \"#utility.yul\":3835:3839   */\n      0x00\n        /* \"#utility.yul\":3873:3875   */\n      0x20\n        /* \"#utility.yul\":3862:3871   */\n      dup3\n        /* \"#utility.yul\":3858:3876   */\n      add\n        /* \"#utility.yul\":3850:3876   */\n      swap1\n      pop\n        /* \"#utility.yul\":3886:3951   */\n      tag_480\n        /* \"#utility.yul\":3948:3949   */\n      0x00\n        /* \"#utility.yul\":3937:3946   */\n      dup4\n        /* \"#utility.yul\":3933:3950   */\n      add\n        /* \"#utility.yul\":3924:3930   */\n      dup5\n        /* \"#utility.yul\":3886:3951   */\n      tag_360\n      jump\t// in\n    tag_480:\n        /* \"#utility.yul\":3748:3958   */\n      swap3\n      swap2\n      pop\n      pop\n      jump\t// out\n        /* \"#utility.yul\":3964:4293   */\n    tag_44:\n        /* \"#utility.yul\":4023:4029   */\n      0x00\n        /* \"#utility.yul\":4072:4074   */\n      0x20\n        /* \"#utility.yul\":4060:4069   */\n      dup3\n        /* \"#utility.yul\":4051:4058   */\n      dup5\n        /* \"#utility.yul\":4047:4070   */\n      sub\n        /* \"#utility.yul\":4043:4075   */\n      slt\n        /* \"#utility.yul\":4040:4159   */\n      iszero\n      tag_482\n      jumpi\n        /* \"#utility.yul\":4078:4157   */\n      tag_483\n      tag_345\n      jump\t// in\n    tag_483:\n        /* \"#utility.yul\":4040:4159   */\n    tag_482:\n        /* \"#utility.yul\":4198:4199   */\n      0x00\n        /* \"#utility.yul\":4223:4276   */\n      tag_484\n        /* \"#utility.yul\":4268:4275   */\n      dup5\n        /* \"#utility.yul\":4259:4265   */\n      dup3\n        /* \"#utility.yul\":4248:4257   */\n      dup6\n        /* \"#utility.yul\":4244:4266   */\n      add\n        /* \"#utility.yul\":4223:4276   */\n      tag_349\n      jump\t// in\n    tag_484:\n        /* \"#utility.yul\":4213:4276   */\n      swap2\n      pop\n        /* \"#utility.yul\":4169:4286   */\n      pop\n        /* \"#utility.yul\":3964:4293   */\n      swap3\n      swap2\n      pop\n      pop\n      jump\t// out\n        /* \"#utility.yul\":4299:4417   */\n    tag_361:\n        /* \"#utility.yul\":4386:4410   */\n      tag_486\n        /* \"#utility.yul\":4404:4409   */\n      dup2\n        /* \"#utility.yul\":4386:4410   */\n      tag_347\n      jump\t// in\n    tag_486:\n        /* \"#utility.yul\":4381:4384   */\n      dup3\n        /* \"#utility.yul\":4374:4411   */\n      mstore\n        /* \"#utility.yul\":4299:4417   */\n      pop\n      pop\n      jump\t// out\n        /* \"#utility.yul\":4423:4541   */\n    tag_362:\n        /* \"#utility.yul\":4510:4534   */\n      tag_488\n        /* \"#utility.yul\":4528:4533   */\n      dup2\n        /* \"#utility.yul\":4510:4534   */\n      tag_356\n      jump\t// in\n    tag_488:\n        /* \"#utility.yul\":4505:4508   */\n      dup3\n        /* \"#utility.yul\":4498:4535   */\n      mstore\n        /* \"#utility.yul\":4423:4541   */\n      pop\n      pop\n      jump\t// out\n        /* \"#utility.yul\":4547:5100   */\n    tag_47:\n        /* \"#utility.yul\":4724:4728   */\n      0x00\n        /* \"#utility.yul\":4762:4765   */\n      0x80\n        /* \"#utility.yul\":4751:4760   */\n      dup3\n        /* \"#utility.yul\":4747:4766   */\n      add\n        /* \"#utility.yul\":4739:4766   */\n      swap1\n      pop\n        /* \"#utility.yul\":4776:4847   */\n      tag_490\n        /* \"#utility.yul\":4844:4845   */\n      0x00\n        /* \"#utility.yul\":4833:4842   */\n      dup4\n        /* \"#utility.yul\":4829:4846   */\n      add\n        /* \"#utility.yul\":4820:4826   */\n      dup8\n        /* \"#utility.yul\":4776:4847   */\n      tag_361\n      jump\t// in\n    tag_490:\n        /* \"#utility.yul\":4857:4929   */\n      tag_491\n        /* \"#utility.yul\":4925:4927   */\n      0x20\n        /* \"#utility.yul\":4914:4923   */\n      dup4\n        /* \"#utility.yul\":4910:4928   */\n      add\n        /* \"#utility.yul\":4901:4907   */\n      dup7\n        /* \"#utility.yul\":4857:4929   */\n      tag_361\n      jump\t// in\n    tag_491:\n        /* \"#utility.yul\":4939:5011   */\n      tag_492\n        /* \"#utility.yul\":5007:5009   */\n      0x40\n        /* \"#utility.yul\":4996:5005   */\n      dup4\n        /* \"#utility.yul\":4992:5010   */\n      add\n        /* \"#utility.yul\":4983:4989   */\n      dup6\n        /* \"#utility.yul\":4939:5011   */\n      tag_362\n      jump\t// in\n    tag_492:\n        /* \"#utility.yul\":5021:5093   */\n      tag_493\n        /* \"#utility.yul\":5089:5091   */\n      0x60\n        /* \"#utility.yul\":5078:5087   */\n      dup4\n        /* \"#utility.yul\":5074:5092   */\n      add\n        /* \"#utility.yul\":5065:5071   */\n      dup5\n        /* \"#utility.yul\":5021:5093   */\n      tag_361\n      jump\t// in\n    tag_493:\n        /* \"#utility.yul\":4547:5100   */\n      swap6\n      swap5\n      pop\n      pop\n      pop\n      pop\n      pop\n      jump\t// out\n        /* \"#utility.yul\":5106:5328   */\n    tag_51:\n        /* \"#utility.yul\":5199:5203   */\n      0x00\n        /* \"#utility.yul\":5237:5239   */\n      0x20\n        /* \"#utility.yul\":5226:5235   */\n      dup3\n        /* \"#utility.yul\":5222:5240   */\n      add\n        /* \"#utility.yul\":5214:5240   */\n      swap1\n      pop\n        /* \"#utility.yul\":5250:5321   */\n      tag_495\n        /* \"#utility.yul\":5318:5319   */\n      0x00\n        /* \"#utility.yul\":5307:5316   */\n      dup4\n        /* \"#utility.yul\":5303:5320   */\n      add\n        /* \"#utility.yul\":5294:5300   */\n      dup5\n        /* \"#utility.yul\":5250:5321   */\n      tag_361\n      jump\t// in\n    tag_495:\n        /* \"#utility.yul\":5106:5328   */\n      swap3\n      swap2\n      pop\n      pop\n      jump\t// out\n        /* \"#utility.yul\":5334:5663   */\n    tag_54:\n        /* \"#utility.yul\":5393:5399   */\n      0x00\n        /* \"#utility.yul\":5442:5444   */\n      0x20\n        /* \"#utility.yul\":5430:5439   */\n      dup3\n        /* \"#utility.yul\":5421:5428   */\n      dup5\n        /* \"#utility.yul\":5417:5440   */\n      sub\n        /* \"#utility.yul\":5413:5445   */\n      slt\n        /* \"#utility.yul\":5410:5529   */\n      iszero\n      tag_497\n      jumpi\n        /* \"#utility.yul\":5448:5527   */\n      tag_498\n      tag_345\n      jump\t// in\n    tag_498:\n        /* \"#utility.yul\":5410:5529   */\n    tag_497:\n        /* \"#utility.yul\":5568:5569   */\n      0x00\n        /* \"#utility.yul\":5593:5646   */\n      tag_499\n        /* \"#utility.yul\":5638:5645   */\n      dup5\n        /* \"#utility.yul\":5629:5635   */\n      dup3\n        /* \"#utility.yul\":5618:5627   */\n      dup6\n        /* \"#utility.yul\":5614:5636   */\n      add\n        /* \"#utility.yul\":5593:5646   */\n      tag_358\n      jump\t// in\n    tag_499:\n        /* \"#utility.yul\":5583:5646   */\n      swap2\n      pop\n        /* \"#utility.yul\":5539:5656   */\n      pop\n        /* \"#utility.yul\":5334:5663   */\n      swap3\n      swap2\n      pop\n      pop\n      jump\t// out\n        /* \"#utility.yul\":5669:6202   */\n    tag_57:\n        /* \"#utility.yul\":5838:5842   */\n      0x00\n        /* \"#utility.yul\":5876:5878   */\n      0x60\n        /* \"#utility.yul\":5865:5874   */\n      dup3\n        /* \"#utility.yul\":5861:5879   */\n      add\n        /* \"#utility.yul\":5853:5879   */\n      swap1\n      pop\n        /* \"#utility.yul\":5889:5960   */\n      tag_501\n        /* \"#utility.yul\":5957:5958   */\n      0x00\n        /* \"#utility.yul\":5946:5955   */\n      dup4\n        /* \"#utility.yul\":5942:5959   */\n      add\n        /* \"#utility.yul\":5933:5939   */\n      dup7\n        /* \"#utility.yul\":5889:5960   */\n      tag_362\n      jump\t// in\n    tag_501:\n        /* \"#utility.yul\":6007:6016   */\n      dup2\n        /* \"#utility.yul\":6001:6005   */\n      dup2\n        /* \"#utility.yul\":5997:6017   */\n      sub\n        /* \"#utility.yul\":5992:5994   */\n      0x20\n        /* \"#utility.yul\":5981:5990   */\n      dup4\n        /* \"#utility.yul\":5977:5995   */\n      add\n        /* \"#utility.yul\":5970:6018   */\n      mstore\n        /* \"#utility.yul\":6035:6113   */\n      tag_502\n        /* \"#utility.yul\":6108:6112   */\n      dup2\n        /* \"#utility.yul\":6099:6105   */\n      dup6\n        /* \"#utility.yul\":6035:6113   */\n      tag_354\n      jump\t// in\n    tag_502:\n        /* \"#utility.yul\":6027:6113   */\n      swap1\n      pop\n        /* \"#utility.yul\":6123:6195   */\n      tag_503\n        /* \"#utility.yul\":6191:6193   */\n      0x40\n        /* \"#utility.yul\":6180:6189   */\n      dup4\n        /* \"#utility.yul\":6176:6194   */\n      add\n        /* \"#utility.yul\":6167:6173   */\n      dup5\n        /* \"#utility.yul\":6123:6195   */\n      tag_361\n      jump\t// in\n    tag_503:\n        /* \"#utility.yul\":5669:6202   */\n      swap5\n      swap4\n      pop\n      pop\n      pop\n      pop\n      jump\t// out\n        /* \"#utility.yul\":6208:6827   */\n    tag_60:\n        /* \"#utility.yul\":6285:6291   */\n      0x00\n        /* \"#utility.yul\":6293:6299   */\n      0x00\n        /* \"#utility.yul\":6301:6307   */\n      0x00\n        /* \"#utility.yul\":6350:6352   */\n      0x60\n        /* \"#utility.yul\":6338:6347   */\n      dup5\n        /* \"#utility.yul\":6329:6336   */\n      dup7\n        /* \"#utility.yul\":6325:6348   */\n      sub\n        /* \"#utility.yul\":6321:6353   */\n      slt\n        /* \"#utility.yul\":6318:6437   */\n      iszero\n      tag_505\n      jumpi\n        /* \"#utility.yul\":6356:6435   */\n      tag_506\n      tag_345\n      jump\t// in\n    tag_506:\n        /* \"#utility.yul\":6318:6437   */\n    tag_505:\n        /* \"#utility.yul\":6476:6477   */\n      0x00\n        /* \"#utility.yul\":6501:6554   */\n      tag_507\n        /* \"#utility.yul\":6546:6553   */\n      dup7\n        /* \"#utility.yul\":6537:6543   */\n      dup3\n        /* \"#utility.yul\":6526:6535   */\n      dup8\n        /* \"#utility.yul\":6522:6544   */\n      add\n        /* \"#utility.yul\":6501:6554   */\n      tag_358\n      jump\t// in\n    tag_507:\n        /* \"#utility.yul\":6491:6554   */\n      swap4\n      pop\n        /* \"#utility.yul\":6447:6564   */\n      pop\n        /* \"#utility.yul\":6603:6605   */\n      0x20\n        /* \"#utility.yul\":6629:6682   */\n      tag_508\n        /* \"#utility.yul\":6674:6681   */\n      dup7\n        /* \"#utility.yul\":6665:6671   */\n      dup3\n        /* \"#utility.yul\":6654:6663   */\n      dup8\n        /* \"#utility.yul\":6650:6672   */\n      add\n        /* \"#utility.yul\":6629:6682   */\n      tag_358\n      jump\t// in\n    tag_508:\n        /* \"#utility.yul\":6619:6682   */\n      swap3\n      pop\n        /* \"#utility.yul\":6574:6692   */\n      pop\n        /* \"#utility.yul\":6731:6733   */\n      0x40\n        /* \"#utility.yul\":6757:6810   */\n      tag_509\n        /* \"#utility.yul\":6802:6809   */\n      dup7\n        /* \"#utility.yul\":6793:6799   */\n      dup3\n        /* \"#utility.yul\":6782:6791   */\n      dup8\n        /* \"#utility.yul\":6778:6800   */\n      add\n        /* \"#utility.yul\":6757:6810   */\n      tag_349\n      jump\t// in\n    tag_509:\n        /* \"#utility.yul\":6747:6810   */\n      swap2\n      pop\n        /* \"#utility.yul\":6702:6820   */\n      pop\n        /* \"#utility.yul\":6208:6827   */\n      swap3\n      pop\n      swap3\n      pop\n      swap3\n      jump\t// out\n        /* \"#utility.yul\":6833:6919   */\n    tag_363:\n        /* \"#utility.yul\":6868:6875   */\n      0x00\n        /* \"#utility.yul\":6908:6912   */\n      0xff\n        /* \"#utility.yul\":6901:6906   */\n      dup3\n        /* \"#utility.yul\":6897:6913   */\n      and\n        /* \"#utility.yul\":6886:6913   */\n      swap1\n      pop\n        /* \"#utility.yul\":6833:6919   */\n      swap2\n      swap1\n      pop\n      jump\t// out\n        /* \"#utility.yul\":6925:7037   */\n    tag_364:\n        /* \"#utility.yul\":7008:7030   */\n      tag_512\n        /* \"#utility.yul\":7024:7029   */\n      dup2\n        /* \"#utility.yul\":7008:7030   */\n      tag_363\n      jump\t// in\n    tag_512:\n        /* \"#utility.yul\":7003:7006   */\n      dup3\n        /* \"#utility.yul\":6996:7031   */\n      mstore\n        /* \"#utility.yul\":6925:7037   */\n      pop\n      pop\n      jump\t// out\n        /* \"#utility.yul\":7043:7257   */\n    tag_66:\n        /* \"#utility.yul\":7132:7136   */\n      0x00\n        /* \"#utility.yul\":7170:7172   */\n      0x20\n        /* \"#utility.yul\":7159:7168   */\n      dup3\n        /* \"#utility.yul\":7155:7173   */\n      add\n        /* \"#utility.yul\":7147:7173   */\n      swap1\n      pop\n        /* \"#utility.yul\":7183:7250   */\n      tag_514\n        /* \"#utility.yul\":7247:7248   */\n      0x00\n        /* \"#utility.yul\":7236:7245   */\n      dup4\n        /* \"#utility.yul\":7232:7249   */\n      add\n        /* \"#utility.yul\":7223:7229   */\n      dup5\n        /* \"#utility.yul\":7183:7250   */\n      tag_364\n      jump\t// in\n    tag_514:\n        /* \"#utility.yul\":7043:7257   */\n      swap3\n      swap2\n      pop\n      pop\n      jump\t// out\n        /* \"#utility.yul\":7263:7401   */\n    tag_365:\n        /* \"#utility.yul\":7354:7360   */\n      0x00\n        /* \"#utility.yul\":7388:7393   */\n      dup2\n        /* \"#utility.yul\":7382:7394   */\n      mload\n        /* \"#utility.yul\":7372:7394   */\n      swap1\n      pop\n        /* \"#utility.yul\":7263:7401   */\n      swap2\n      swap1\n      pop\n      jump\t// out\n        /* \"#utility.yul\":7407:7615   */\n    tag_366:\n        /* \"#utility.yul\":7530:7541   */\n      0x00\n        /* \"#utility.yul\":7564:7570   */\n      dup3\n        /* \"#utility.yul\":7559:7562   */\n      dup3\n        /* \"#utility.yul\":7552:7571   */\n      mstore\n        /* \"#utility.yul\":7604:7608   */\n      0x20\n        /* \"#utility.yul\":7599:7602   */\n      dup3\n        /* \"#utility.yul\":7595:7609   */\n      add\n        /* \"#utility.yul\":7580:7609   */\n      swap1\n      pop\n        /* \"#utility.yul\":7407:7615   */\n      swap3\n      swap2\n      pop\n      pop\n      jump\t// out\n        /* \"#utility.yul\":7621:7777   */\n    tag_367:\n        /* \"#utility.yul\":7712:7716   */\n      0x00\n        /* \"#utility.yul\":7735:7738   */\n      dup2\n        /* \"#utility.yul\":7727:7738   */\n      swap1\n      pop\n        /* \"#utility.yul\":7765:7769   */\n      0x20\n        /* \"#utility.yul\":7760:7763   */\n      dup3\n        /* \"#utility.yul\":7756:7770   */\n      add\n        /* \"#utility.yul\":7748:7770   */\n      swap1\n      pop\n        /* \"#utility.yul\":7621:7777   */\n      swap2\n      swap1\n      pop\n      jump\t// out\n        /* \"#utility.yul\":7783:7891   */\n    tag_368:\n        /* \"#utility.yul\":7860:7884   */\n      tag_519\n        /* \"#utility.yul\":7878:7883   */\n      dup2\n        /* \"#utility.yul\":7860:7884   */\n      tag_347\n      jump\t// in\n    tag_519:\n        /* \"#utility.yul\":7855:7858   */\n      dup3\n        /* \"#utility.yul\":7848:7885   */\n      mstore\n        /* \"#utility.yul\":7783:7891   */\n      pop\n      pop\n      jump\t// out\n        /* \"#utility.yul\":7897:8056   */\n    tag_369:\n        /* \"#utility.yul\":7971:7982   */\n      0x00\n        /* \"#utility.yul\":8005:8011   */\n      dup3\n        /* \"#utility.yul\":8000:8003   */\n      dup3\n        /* \"#utility.yul\":7993:8012   */\n      mstore\n        /* \"#utility.yul\":8045:8049   */\n      0x20\n        /* \"#utility.yul\":8040:8043   */\n      dup3\n        /* \"#utility.yul\":8036:8050   */\n      add\n        /* \"#utility.yul\":8021:8050   */\n      swap1\n      pop\n        /* \"#utility.yul\":7897:8056   */\n      swap3\n      swap2\n      pop\n      pop\n      jump\t// out\n        /* \"#utility.yul\":8062:8419   */\n    tag_370:\n        /* \"#utility.yul\":8140:8143   */\n      0x00\n        /* \"#utility.yul\":8168:8207   */\n      tag_522\n        /* \"#utility.yul\":8201:8206   */\n      dup3\n        /* \"#utility.yul\":8168:8207   */\n      tag_350\n      jump\t// in\n    tag_522:\n        /* \"#utility.yul\":8223:8284   */\n      tag_523\n        /* \"#utility.yul\":8277:8283   */\n      dup2\n        /* \"#utility.yul\":8272:8275   */\n      dup6\n        /* \"#utility.yul\":8223:8284   */\n      tag_369\n      jump\t// in\n    tag_523:\n        /* \"#utility.yul\":8216:8284   */\n      swap4\n      pop\n        /* \"#utility.yul\":8293:8358   */\n      tag_524\n        /* \"#utility.yul\":8351:8357   */\n      dup2\n        /* \"#utility.yul\":8346:8349   */\n      dup6\n        /* \"#utility.yul\":8339:8343   */\n      0x20\n        /* \"#utility.yul\":8332:8337   */\n      dup7\n        /* \"#utility.yul\":8328:8344   */\n      add\n        /* \"#utility.yul\":8293:8358   */\n      tag_352\n      jump\t// in\n    tag_524:\n        /* \"#utility.yul\":8383:8412   */\n      tag_525\n        /* \"#utility.yul\":8405:8411   */\n      dup2\n        /* \"#utility.yul\":8383:8412   */\n      tag_353\n      jump\t// in\n    tag_525:\n        /* \"#utility.yul\":8378:8381   */\n      dup5\n        /* \"#utility.yul\":8374:8413   */\n      add\n        /* \"#utility.yul\":8367:8413   */\n      swap2\n      pop\n        /* \"#utility.yul\":8144:8419   */\n      pop\n        /* \"#utility.yul\":8062:8419   */\n      swap3\n      swap2\n      pop\n      pop\n      jump\t// out\n        /* \"#utility.yul\":8495:9087   */\n    tag_371:\n        /* \"#utility.yul\":8602:8605   */\n      0x00\n        /* \"#utility.yul\":8638:8642   */\n      0x40\n        /* \"#utility.yul\":8633:8636   */\n      dup4\n        /* \"#utility.yul\":8629:8643   */\n      add\n        /* \"#utility.yul\":8723:8727   */\n      0x00\n        /* \"#utility.yul\":8716:8721   */\n      dup4\n        /* \"#utility.yul\":8712:8728   */\n      add\n        /* \"#utility.yul\":8706:8729   */\n      mload\n        /* \"#utility.yul\":8742:8805   */\n      tag_527\n        /* \"#utility.yul\":8799:8803   */\n      0x00\n        /* \"#utility.yul\":8794:8797   */\n      dup7\n        /* \"#utility.yul\":8790:8804   */\n      add\n        /* \"#utility.yul\":8776:8788   */\n      dup3\n        /* \"#utility.yul\":8742:8805   */\n      tag_368\n      jump\t// in\n    tag_527:\n        /* \"#utility.yul\":8653:8815   */\n      pop\n        /* \"#utility.yul\":8897:8901   */\n      0x20\n        /* \"#utility.yul\":8890:8895   */\n      dup4\n        /* \"#utility.yul\":8886:8902   */\n      add\n        /* \"#utility.yul\":8880:8903   */\n      mload\n        /* \"#utility.yul\":8950:8953   */\n      dup5\n        /* \"#utility.yul\":8944:8948   */\n      dup3\n        /* \"#utility.yul\":8940:8954   */\n      sub\n        /* \"#utility.yul\":8933:8937   */\n      0x20\n        /* \"#utility.yul\":8928:8931   */\n      dup7\n        /* \"#utility.yul\":8924:8938   */\n      add\n        /* \"#utility.yul\":8917:8955   */\n      mstore\n        /* \"#utility.yul\":8976:9049   */\n      tag_528\n        /* \"#utility.yul\":9044:9048   */\n      dup3\n        /* \"#utility.yul\":9030:9042   */\n      dup3\n        /* \"#utility.yul\":8976:9049   */\n      tag_370\n      jump\t// in\n    tag_528:\n        /* \"#utility.yul\":8968:9049   */\n      swap2\n      pop\n        /* \"#utility.yul\":8825:9060   */\n      pop\n        /* \"#utility.yul\":9077:9081   */\n      dup1\n        /* \"#utility.yul\":9070:9081   */\n      swap2\n      pop\n        /* \"#utility.yul\":8607:9087   */\n      pop\n        /* \"#utility.yul\":8495:9087   */\n      swap3\n      swap2\n      pop\n      pop\n      jump\t// out\n        /* \"#utility.yul\":9093:9345   */\n    tag_372:\n        /* \"#utility.yul\":9210:9220   */\n      0x00\n        /* \"#utility.yul\":9245:9339   */\n      tag_530\n        /* \"#utility.yul\":9335:9338   */\n      dup4\n        /* \"#utility.yul\":9327:9333   */\n      dup4\n        /* \"#utility.yul\":9245:9339   */\n      tag_371\n      jump\t// in\n    tag_530:\n        /* \"#utility.yul\":9231:9339   */\n      swap1\n      pop\n        /* \"#utility.yul\":9093:9345   */\n      swap3\n      swap2\n      pop\n      pop\n      jump\t// out\n        /* \"#utility.yul\":9351:9488   */\n    tag_373:\n        /* \"#utility.yul\":9445:9449   */\n      0x00\n        /* \"#utility.yul\":9477:9481   */\n      0x20\n        /* \"#utility.yul\":9472:9475   */\n      dup3\n        /* \"#utility.yul\":9468:9482   */\n      add\n        /* \"#utility.yul\":9460:9482   */\n      swap1\n      pop\n        /* \"#utility.yul\":9351:9488   */\n      swap2\n      swap1\n      pop\n      jump\t// out\n        /* \"#utility.yul\":9568:10671   */\n    tag_374:\n        /* \"#utility.yul\":9735:9738   */\n      0x00\n        /* \"#utility.yul\":9764:9842   */\n      tag_533\n        /* \"#utility.yul\":9836:9841   */\n      dup3\n        /* \"#utility.yul\":9764:9842   */\n      tag_365\n      jump\t// in\n    tag_533:\n        /* \"#utility.yul\":9858:9968   */\n      tag_534\n        /* \"#utility.yul\":9961:9967   */\n      dup2\n        /* \"#utility.yul\":9956:9959   */\n      dup6\n        /* \"#utility.yul\":9858:9968   */\n      tag_366\n      jump\t// in\n    tag_534:\n        /* \"#utility.yul\":9851:9968   */\n      swap4\n      pop\n        /* \"#utility.yul\":9994:9997   */\n      dup4\n        /* \"#utility.yul\":10039:10043   */\n      0x20\n        /* \"#utility.yul\":10031:10037   */\n      dup3\n        /* \"#utility.yul\":10027:10044   */\n      mul\n        /* \"#utility.yul\":10022:10025   */\n      dup6\n        /* \"#utility.yul\":10018:10045   */\n      add\n        /* \"#utility.yul\":10069:10149   */\n      tag_535\n        /* \"#utility.yul\":10143:10148   */\n      dup6\n        /* \"#utility.yul\":10069:10149   */\n      tag_367\n      jump\t// in\n    tag_535:\n        /* \"#utility.yul\":10172:10179   */\n      dup1\n        /* \"#utility.yul\":10203:10204   */\n      0x00\n        /* \"#utility.yul\":10188:10626   */\n    tag_536:\n        /* \"#utility.yul\":10213:10219   */\n      dup6\n        /* \"#utility.yul\":10210:10211   */\n      dup2\n        /* \"#utility.yul\":10207:10220   */\n      lt\n        /* \"#utility.yul\":10188:10626   */\n      iszero\n      tag_538\n      jumpi\n        /* \"#utility.yul\":10284:10293   */\n      dup5\n        /* \"#utility.yul\":10278:10282   */\n      dup5\n        /* \"#utility.yul\":10274:10294   */\n      sub\n        /* \"#utility.yul\":10269:10272   */\n      dup10\n        /* \"#utility.yul\":10262:10295   */\n      mstore\n        /* \"#utility.yul\":10335:10341   */\n      dup2\n        /* \"#utility.yul\":10329:10342   */\n      mload\n        /* \"#utility.yul\":10363:10475   */\n      tag_539\n        /* \"#utility.yul\":10470:10474   */\n      dup6\n        /* \"#utility.yul\":10455:10468   */\n      dup3\n        /* \"#utility.yul\":10363:10475   */\n      tag_372\n      jump\t// in\n    tag_539:\n        /* \"#utility.yul\":10355:10475   */\n      swap5\n      pop\n        /* \"#utility.yul\":10498:10582   */\n      tag_540\n        /* \"#utility.yul\":10575:10581   */\n      dup4\n        /* \"#utility.yul\":10498:10582   */\n      tag_373\n      jump\t// in\n    tag_540:\n        /* \"#utility.yul\":10488:10582   */\n      swap3\n      pop\n        /* \"#utility.yul\":10611:10615   */\n      0x20\n        /* \"#utility.yul\":10606:10609   */\n      dup11\n        /* \"#utility.yul\":10602:10616   */\n      add\n        /* \"#utility.yul\":10595:10616   */\n      swap10\n      pop\n        /* \"#utility.yul\":10248:10626   */\n      pop\n        /* \"#utility.yul\":10235:10236   */\n      0x01\n        /* \"#utility.yul\":10232:10233   */\n      dup2\n        /* \"#utility.yul\":10228:10237   */\n      add\n        /* \"#utility.yul\":10223:10237   */\n      swap1\n      pop\n        /* \"#utility.yul\":10188:10626   */\n      jump(tag_536)\n    tag_538:\n        /* \"#utility.yul\":10192:10206   */\n      pop\n        /* \"#utility.yul\":10642:10646   */\n      dup3\n        /* \"#utility.yul\":10635:10646   */\n      swap8\n      pop\n        /* \"#utility.yul\":10662:10665   */\n      dup8\n        /* \"#utility.yul\":10655:10665   */\n      swap6\n      pop\n        /* \"#utility.yul\":9740:10671   */\n      pop\n      pop\n      pop\n      pop\n      pop\n        /* \"#utility.yul\":9568:10671   */\n      swap3\n      swap2\n      pop\n      pop\n      jump\t// out\n        /* \"#utility.yul\":10677:11146   */\n    tag_70:\n        /* \"#utility.yul\":10868:10872   */\n      0x00\n        /* \"#utility.yul\":10906:10908   */\n      0x20\n        /* \"#utility.yul\":10895:10904   */\n      dup3\n        /* \"#utility.yul\":10891:10909   */\n      add\n        /* \"#utility.yul\":10883:10909   */\n      swap1\n      pop\n        /* \"#utility.yul\":10955:10964   */\n      dup2\n        /* \"#utility.yul\":10949:10953   */\n      dup2\n        /* \"#utility.yul\":10945:10965   */\n      sub\n        /* \"#utility.yul\":10941:10942   */\n      0x00\n        /* \"#utility.yul\":10930:10939   */\n      dup4\n        /* \"#utility.yul\":10926:10943   */\n      add\n        /* \"#utility.yul\":10919:10966   */\n      mstore\n        /* \"#utility.yul\":10983:11139   */\n      tag_542\n        /* \"#utility.yul\":11134:11138   */\n      dup2\n        /* \"#utility.yul\":11125:11131   */\n      dup5\n        /* \"#utility.yul\":10983:11139   */\n      tag_374\n      jump\t// in\n    tag_542:\n        /* \"#utility.yul\":10975:11139   */\n      swap1\n      pop\n        /* \"#utility.yul\":10677:11146   */\n      swap3\n      swap2\n      pop\n      pop\n      jump\t// out\n        /* \"#utility.yul\":11152:11269   */\n    tag_375:\n        /* \"#utility.yul\":11261:11262   */\n      0x00\n        /* \"#utility.yul\":11258:11259   */\n      0x00\n        /* \"#utility.yul\":11251:11263   */\n      revert\n        /* \"#utility.yul\":11275:11392   */\n    tag_376:\n        /* \"#utility.yul\":11384:11385   */\n      0x00\n        /* \"#utility.yul\":11381:11382   */\n      0x00\n        /* \"#utility.yul\":11374:11386   */\n      revert\n        /* \"#utility.yul\":11398:11578   */\n    tag_377:\n        /* \"#utility.yul\":11446:11523   */\n      0x4e487b7100000000000000000000000000000000000000000000000000000000\n        /* \"#utility.yul\":11443:11444   */\n      0x00\n        /* \"#utility.yul\":11436:11524   */\n      mstore\n        /* \"#utility.yul\":11543:11547   */\n      0x41\n        /* \"#utility.yul\":11540:11541   */\n      0x04\n        /* \"#utility.yul\":11533:11548   */\n      mstore\n        /* \"#utility.yul\":11567:11571   */\n      0x24\n        /* \"#utility.yul\":11564:11565   */\n      0x00\n        /* \"#utility.yul\":11557:11572   */\n      revert\n        /* \"#utility.yul\":11584:11865   */\n    tag_378:\n        /* \"#utility.yul\":11667:11694   */\n      tag_547\n        /* \"#utility.yul\":11689:11693   */\n      dup3\n        /* \"#utility.yul\":11667:11694   */\n      tag_353\n      jump\t// in\n    tag_547:\n        /* \"#utility.yul\":11659:11665   */\n      dup2\n        /* \"#utility.yul\":11655:11695   */\n      add\n        /* \"#utility.yul\":11797:11803   */\n      dup2\n        /* \"#utility.yul\":11785:11795   */\n      dup2\n        /* \"#utility.yul\":11782:11804   */\n      lt\n        /* \"#utility.yul\":11761:11779   */\n      0xffffffffffffffff\n        /* \"#utility.yul\":11749:11759   */\n      dup3\n        /* \"#utility.yul\":11746:11780   */\n      gt\n        /* \"#utility.yul\":11743:11805   */\n      or\n        /* \"#utility.yul\":11740:11828   */\n      iszero\n      tag_548\n      jumpi\n        /* \"#utility.yul\":11808:11826   */\n      tag_549\n      tag_377\n      jump\t// in\n    tag_549:\n        /* \"#utility.yul\":11740:11828   */\n    tag_548:\n        /* \"#utility.yul\":11848:11858   */\n      dup1\n        /* \"#utility.yul\":11844:11846   */\n      0x40\n        /* \"#utility.yul\":11837:11859   */\n      mstore\n        /* \"#utility.yul\":11627:11865   */\n      pop\n        /* \"#utility.yul\":11584:11865   */\n      pop\n      pop\n      jump\t// out\n        /* \"#utility.yul\":11871:12000   */\n    tag_379:\n        /* \"#utility.yul\":11905:11911   */\n      0x00\n        /* \"#utility.yul\":11932:11952   */\n      tag_551\n      tag_344\n      jump\t// in\n    tag_551:\n        /* \"#utility.yul\":11922:11952   */\n      swap1\n      pop\n        /* \"#utility.yul\":11961:11994   */\n      tag_552\n        /* \"#utility.yul\":11989:11993   */\n      dup3\n        /* \"#utility.yul\":11981:11987   */\n      dup3\n        /* \"#utility.yul\":11961:11994   */\n      tag_378\n      jump\t// in\n    tag_552:\n        /* \"#utility.yul\":11871:12000   */\n      swap2\n      swap1\n      pop\n      jump\t// out\n        /* \"#utility.yul\":12006:12314   */\n    tag_380:\n        /* \"#utility.yul\":12068:12072   */\n      0x00\n        /* \"#utility.yul\":12158:12176   */\n      0xffffffffffffffff\n        /* \"#utility.yul\":12150:12156   */\n      dup3\n        /* \"#utility.yul\":12147:12177   */\n      gt\n        /* \"#utility.yul\":12144:12200   */\n      iszero\n      tag_554\n      jumpi\n        /* \"#utility.yul\":12180:12198   */\n      tag_555\n      tag_377\n      jump\t// in\n    tag_555:\n        /* \"#utility.yul\":12144:12200   */\n    tag_554:\n        /* \"#utility.yul\":12218:12247   */\n      tag_556\n        /* \"#utility.yul\":12240:12246   */\n      dup3\n        /* \"#utility.yul\":12218:12247   */\n      tag_353\n      jump\t// in\n    tag_556:\n        /* \"#utility.yul\":12210:12247   */\n      swap1\n      pop\n        /* \"#utility.yul\":12302:12306   */\n      0x20\n        /* \"#utility.yul\":12296:12300   */\n      dup2\n        /* \"#utility.yul\":12292:12307   */\n      add\n        /* \"#utility.yul\":12284:12307   */\n      swap1\n      pop\n        /* \"#utility.yul\":12006:12314   */\n      swap2\n      swap1\n      pop\n      jump\t// out\n        /* \"#utility.yul\":12320:12468   */\n    tag_381:\n        /* \"#utility.yul\":12418:12424   */\n      dup3\n        /* \"#utility.yul\":12413:12416   */\n      dup2\n        /* \"#utility.yul\":12408:12411   */\n      dup4\n        /* \"#utility.yul\":12395:12425   */\n      calldatacopy\n        /* \"#utility.yul\":12459:12460   */\n      0x00\n        /* \"#utility.yul\":12450:12456   */\n      dup4\n        /* \"#utility.yul\":12445:12448   */\n      dup4\n        /* \"#utility.yul\":12441:12457   */\n      add\n        /* \"#utility.yul\":12434:12461   */\n      mstore\n        /* \"#utility.yul\":12320:12468   */\n      pop\n      pop\n      pop\n      jump\t// out\n        /* \"#utility.yul\":12474:12899   */\n    tag_382:\n        /* \"#utility.yul\":12552:12557   */\n      0x00\n        /* \"#utility.yul\":12577:12643   */\n      tag_559\n        /* \"#utility.yul\":12593:12642   */\n      tag_560\n        /* \"#utility.yul\":12635:12641   */\n      dup5\n        /* \"#utility.yul\":12593:12642   */\n      tag_380\n      jump\t// in\n    tag_560:\n        /* \"#utility.yul\":12577:12643   */\n      tag_379\n      jump\t// in\n    tag_559:\n        /* \"#utility.yul\":12568:12643   */\n      swap1\n      pop\n        /* \"#utility.yul\":12666:12672   */\n      dup3\n        /* \"#utility.yul\":12659:12664   */\n      dup2\n        /* \"#utility.yul\":12652:12673   */\n      mstore\n        /* \"#utility.yul\":12704:12708   */\n      0x20\n        /* \"#utility.yul\":12697:12702   */\n      dup2\n        /* \"#utility.yul\":12693:12709   */\n      add\n        /* \"#utility.yul\":12742:12745   */\n      dup5\n        /* \"#utility.yul\":12733:12739   */\n      dup5\n        /* \"#utility.yul\":12728:12731   */\n      dup5\n        /* \"#utility.yul\":12724:12740   */\n      add\n        /* \"#utility.yul\":12721:12746   */\n      gt\n        /* \"#utility.yul\":12718:12830   */\n      iszero\n      tag_561\n      jumpi\n        /* \"#utility.yul\":12749:12828   */\n      tag_562\n      tag_376\n      jump\t// in\n    tag_562:\n        /* \"#utility.yul\":12718:12830   */\n    tag_561:\n        /* \"#utility.yul\":12839:12893   */\n      tag_563\n        /* \"#utility.yul\":12886:12892   */\n      dup5\n        /* \"#utility.yul\":12881:12884   */\n      dup3\n        /* \"#utility.yul\":12876:12879   */\n      dup6\n        /* \"#utility.yul\":12839:12893   */\n      tag_381\n      jump\t// in\n    tag_563:\n        /* \"#utility.yul\":12558:12899   */\n      pop\n        /* \"#utility.yul\":12474:12899   */\n      swap4\n      swap3\n      pop\n      pop\n      pop\n      jump\t// out\n        /* \"#utility.yul\":12919:13259   */\n    tag_383:\n        /* \"#utility.yul\":12975:12980   */\n      0x00\n        /* \"#utility.yul\":13024:13027   */\n      dup3\n        /* \"#utility.yul\":13017:13021   */\n      0x1f\n        /* \"#utility.yul\":13009:13015   */\n      dup4\n        /* \"#utility.yul\":13005:13022   */\n      add\n        /* \"#utility.yul\":13001:13028   */\n      slt\n        /* \"#utility.yul\":12991:13113   */\n      tag_565\n      jumpi\n        /* \"#utility.yul\":13032:13111   */\n      tag_566\n      tag_375\n      jump\t// in\n    tag_566:\n        /* \"#utility.yul\":12991:13113   */\n    tag_565:\n        /* \"#utility.yul\":13149:13155   */\n      dup2\n        /* \"#utility.yul\":13136:13156   */\n      calldataload\n        /* \"#utility.yul\":13174:13253   */\n      tag_567\n        /* \"#utility.yul\":13249:13252   */\n      dup5\n        /* \"#utility.yul\":13241:13247   */\n      dup3\n        /* \"#utility.yul\":13234:13238   */\n      0x20\n        /* \"#utility.yul\":13226:13232   */\n      dup7\n        /* \"#utility.yul\":13222:13239   */\n      add\n        /* \"#utility.yul\":13174:13253   */\n      tag_382\n      jump\t// in\n    tag_567:\n        /* \"#utility.yul\":13165:13253   */\n      swap2\n      pop\n        /* \"#utility.yul\":12981:13259   */\n      pop\n        /* \"#utility.yul\":12919:13259   */\n      swap3\n      swap2\n      pop\n      pop\n      jump\t// out\n        /* \"#utility.yul\":13265:13919   */\n    tag_73:\n        /* \"#utility.yul\":13343:13349   */\n      0x00\n        /* \"#utility.yul\":13351:13357   */\n      0x00\n        /* \"#utility.yul\":13400:13402   */\n      0x40\n        /* \"#utility.yul\":13388:13397   */\n      dup4\n        /* \"#utility.yul\":13379:13386   */\n      dup6\n        /* \"#utility.yul\":13375:13398   */\n      sub\n        /* \"#utility.yul\":13371:13403   */\n      slt\n        /* \"#utility.yul\":13368:13487   */\n      iszero\n      tag_569\n      jumpi\n        /* \"#utility.yul\":13406:13485   */\n      tag_570\n      tag_345\n      jump\t// in\n    tag_570:\n        /* \"#utility.yul\":13368:13487   */\n    tag_569:\n        /* \"#utility.yul\":13554:13555   */\n      0x00\n        /* \"#utility.yul\":13543:13552   */\n      dup4\n        /* \"#utility.yul\":13539:13556   */\n      add\n        /* \"#utility.yul\":13526:13557   */\n      calldataload\n        /* \"#utility.yul\":13584:13602   */\n      0xffffffffffffffff\n        /* \"#utility.yul\":13576:13582   */\n      dup2\n        /* \"#utility.yul\":13573:13603   */\n      gt\n        /* \"#utility.yul\":13570:13687   */\n      iszero\n      tag_571\n      jumpi\n        /* \"#utility.yul\":13606:13685   */\n      tag_572\n      tag_346\n      jump\t// in\n    tag_572:\n        /* \"#utility.yul\":13570:13687   */\n    tag_571:\n        /* \"#utility.yul\":13711:13774   */\n      tag_573\n        /* \"#utility.yul\":13766:13773   */\n      dup6\n        /* \"#utility.yul\":13757:13763   */\n      dup3\n        /* \"#utility.yul\":13746:13755   */\n      dup7\n        /* \"#utility.yul\":13742:13764   */\n      add\n        /* \"#utility.yul\":13711:13774   */\n      tag_383\n      jump\t// in\n    tag_573:\n        /* \"#utility.yul\":13701:13774   */\n      swap3\n      pop\n        /* \"#utility.yul\":13497:13784   */\n      pop\n        /* \"#utility.yul\":13823:13825   */\n      0x20\n        /* \"#utility.yul\":13849:13902   */\n      tag_574\n        /* \"#utility.yul\":13894:13901   */\n      dup6\n        /* \"#utility.yul\":13885:13891   */\n      dup3\n        /* \"#utility.yul\":13874:13883   */\n      dup7\n        /* \"#utility.yul\":13870:13892   */\n      add\n        /* \"#utility.yul\":13849:13902   */\n      tag_349\n      jump\t// in\n    tag_574:\n        /* \"#utility.yul\":13839:13902   */\n      swap2\n      pop\n        /* \"#utility.yul\":13794:13912   */\n      pop\n        /* \"#utility.yul\":13265:13919   */\n      swap3\n      pop\n      swap3\n      swap1\n      pop\n      jump\t// out\n        /* \"#utility.yul\":13925:14399   */\n    tag_78:\n        /* \"#utility.yul\":13993:13999   */\n      0x00\n        /* \"#utility.yul\":14001:14007   */\n      0x00\n        /* \"#utility.yul\":14050:14052   */\n      0x40\n        /* \"#utility.yul\":14038:14047   */\n      dup4\n        /* \"#utility.yul\":14029:14036   */\n      dup6\n        /* \"#utility.yul\":14025:14048   */\n      sub\n        /* \"#utility.yul\":14021:14053   */\n      slt\n        /* \"#utility.yul\":14018:14137   */\n      iszero\n      tag_576\n      jumpi\n        /* \"#utility.yul\":14056:14135   */\n      tag_577\n      tag_345\n      jump\t// in\n    tag_577:\n        /* \"#utility.yul\":14018:14137   */\n    tag_576:\n        /* \"#utility.yul\":14176:14177   */\n      0x00\n        /* \"#utility.yul\":14201:14254   */\n      tag_578\n        /* \"#utility.yul\":14246:14253   */\n      dup6\n        /* \"#utility.yul\":14237:14243   */\n      dup3\n        /* \"#utility.yul\":14226:14235   */\n      dup7\n        /* \"#utility.yul\":14222:14244   */\n      add\n        /* \"#utility.yul\":14201:14254   */\n      tag_349\n      jump\t// in\n    tag_578:\n        /* \"#utility.yul\":14191:14254   */\n      swap3\n      pop\n        /* \"#utility.yul\":14147:14264   */\n      pop\n        /* \"#utility.yul\":14303:14305   */\n      0x20\n        /* \"#utility.yul\":14329:14382   */\n      tag_579\n        /* \"#utility.yul\":14374:14381   */\n      dup6\n        /* \"#utility.yul\":14365:14371   */\n      dup3\n        /* \"#utility.yul\":14354:14363   */\n      dup7\n        /* \"#utility.yul\":14350:14372   */\n      add\n        /* \"#utility.yul\":14329:14382   */\n      tag_349\n      jump\t// in\n    tag_579:\n        /* \"#utility.yul\":14319:14382   */\n      swap2\n      pop\n        /* \"#utility.yul\":14274:14392   */\n      pop\n        /* \"#utility.yul\":13925:14399   */\n      swap3\n      pop\n      swap3\n      swap1\n      pop\n      jump\t// out\n        /* \"#utility.yul\":14405:14627   */\n    tag_88:\n        /* \"#utility.yul\":14498:14502   */\n      0x00\n        /* \"#utility.yul\":14536:14538   */\n      0x20\n        /* \"#utility.yul\":14525:14534   */\n      dup3\n        /* \"#utility.yul\":14521:14539   */\n      add\n        /* \"#utility.yul\":14513:14539   */\n      swap1\n      pop\n        /* \"#utility.yul\":14549:14620   */\n      tag_581\n        /* \"#utility.yul\":14617:14618   */\n      0x00\n        /* \"#utility.yul\":14606:14615   */\n      dup4\n        /* \"#utility.yul\":14602:14619   */\n      add\n        /* \"#utility.yul\":14593:14599   */\n      dup5\n        /* \"#utility.yul\":14549:14620   */\n      tag_362\n      jump\t// in\n    tag_581:\n        /* \"#utility.yul\":14405:14627   */\n      swap3\n      swap2\n      pop\n      pop\n      jump\t// out\n        /* \"#utility.yul\":14633:14770   */\n    tag_384:\n        /* \"#utility.yul\":14723:14729   */\n      0x00\n        /* \"#utility.yul\":14757:14762   */\n      dup2\n        /* \"#utility.yul\":14751:14763   */\n      mload\n        /* \"#utility.yul\":14741:14763   */\n      swap1\n      pop\n        /* \"#utility.yul\":14633:14770   */\n      swap2\n      swap1\n      pop\n      jump\t// out\n        /* \"#utility.yul\":14776:14983   */\n    tag_385:\n        /* \"#utility.yul\":14898:14909   */\n      0x00\n        /* \"#utility.yul\":14932:14938   */\n      dup3\n        /* \"#utility.yul\":14927:14930   */\n      dup3\n        /* \"#utility.yul\":14920:14939   */\n      mstore\n        /* \"#utility.yul\":14972:14976   */\n      0x20\n        /* \"#utility.yul\":14967:14970   */\n      dup3\n        /* \"#utility.yul\":14963:14977   */\n      add\n        /* \"#utility.yul\":14948:14977   */\n      swap1\n      pop\n        /* \"#utility.yul\":14776:14983   */\n      swap3\n      swap2\n      pop\n      pop\n      jump\t// out\n        /* \"#utility.yul\":14989:15144   */\n    tag_386:\n        /* \"#utility.yul\":15079:15083   */\n      0x00\n        /* \"#utility.yul\":15102:15105   */\n      dup2\n        /* \"#utility.yul\":15094:15105   */\n      swap1\n      pop\n        /* \"#utility.yul\":15132:15136   */\n      0x20\n        /* \"#utility.yul\":15127:15130   */\n      dup3\n        /* \"#utility.yul\":15123:15137   */\n      add\n        /* \"#utility.yul\":15115:15137   */\n      swap1\n      pop\n        /* \"#utility.yul\":14989:15144   */\n      swap2\n      swap1\n      pop\n      jump\t// out\n        /* \"#utility.yul\":15218:15808   */\n    tag_387:\n        /* \"#utility.yul\":15323:15326   */\n      0x00\n        /* \"#utility.yul\":15359:15363   */\n      0x40\n        /* \"#utility.yul\":15354:15357   */\n      dup4\n        /* \"#utility.yul\":15350:15364   */\n      add\n        /* \"#utility.yul\":15444:15448   */\n      0x00\n        /* \"#utility.yul\":15437:15442   */\n      dup4\n        /* \"#utility.yul\":15433:15449   */\n      add\n        /* \"#utility.yul\":15427:15450   */\n      mload\n        /* \"#utility.yul\":15463:15526   */\n      tag_586\n        /* \"#utility.yul\":15520:15524   */\n      0x00\n        /* \"#utility.yul\":15515:15518   */\n      dup7\n        /* \"#utility.yul\":15511:15525   */\n      add\n        /* \"#utility.yul\":15497:15509   */\n      dup3\n        /* \"#utility.yul\":15463:15526   */\n      tag_368\n      jump\t// in\n    tag_586:\n        /* \"#utility.yul\":15374:15536   */\n      pop\n        /* \"#utility.yul\":15618:15622   */\n      0x20\n        /* \"#utility.yul\":15611:15616   */\n      dup4\n        /* \"#utility.yul\":15607:15623   */\n      add\n        /* \"#utility.yul\":15601:15624   */\n      mload\n        /* \"#utility.yul\":15671:15674   */\n      dup5\n        /* \"#utility.yul\":15665:15669   */\n      dup3\n        /* \"#utility.yul\":15661:15675   */\n      sub\n        /* \"#utility.yul\":15654:15658   */\n      0x20\n        /* \"#utility.yul\":15649:15652   */\n      dup7\n        /* \"#utility.yul\":15645:15659   */\n      add\n        /* \"#utility.yul\":15638:15676   */\n      mstore\n        /* \"#utility.yul\":15697:15770   */\n      tag_587\n        /* \"#utility.yul\":15765:15769   */\n      dup3\n        /* \"#utility.yul\":15751:15763   */\n      dup3\n        /* \"#utility.yul\":15697:15770   */\n      tag_370\n      jump\t// in\n    tag_587:\n        /* \"#utility.yul\":15689:15770   */\n      swap2\n      pop\n        /* \"#utility.yul\":15546:15781   */\n      pop\n        /* \"#utility.yul\":15798:15802   */\n      dup1\n        /* \"#utility.yul\":15791:15802   */\n      swap2\n      pop\n        /* \"#utility.yul\":15328:15808   */\n      pop\n        /* \"#utility.yul\":15218:15808   */\n      swap3\n      swap2\n      pop\n      pop\n      jump\t// out\n        /* \"#utility.yul\":15814:16062   */\n    tag_388:\n        /* \"#utility.yul\":15929:15939   */\n      0x00\n        /* \"#utility.yul\":15964:16056   */\n      tag_589\n        /* \"#utility.yul\":16052:16055   */\n      dup4\n        /* \"#utility.yul\":16044:16050   */\n      dup4\n        /* \"#utility.yul\":15964:16056   */\n      tag_387\n      jump\t// in\n    tag_589:\n        /* \"#utility.yul\":15950:16056   */\n      swap1\n      pop\n        /* \"#utility.yul\":15814:16062   */\n      swap3\n      swap2\n      pop\n      pop\n      jump\t// out\n        /* \"#utility.yul\":16068:16204   */\n    tag_389:\n        /* \"#utility.yul\":16161:16165   */\n      0x00\n        /* \"#utility.yul\":16193:16197   */\n      0x20\n        /* \"#utility.yul\":16188:16191   */\n      dup3\n        /* \"#utility.yul\":16184:16198   */\n      add\n        /* \"#utility.yul\":16176:16198   */\n      swap1\n      pop\n        /* \"#utility.yul\":16068:16204   */\n      swap2\n      swap1\n      pop\n      jump\t// out\n        /* \"#utility.yul\":16282:17377   */\n    tag_390:\n        /* \"#utility.yul\":16447:16450   */\n      0x00\n        /* \"#utility.yul\":16476:16553   */\n      tag_592\n        /* \"#utility.yul\":16547:16552   */\n      dup3\n        /* \"#utility.yul\":16476:16553   */\n      tag_384\n      jump\t// in\n    tag_592:\n        /* \"#utility.yul\":16569:16678   */\n      tag_593\n        /* \"#utility.yul\":16671:16677   */\n      dup2\n        /* \"#utility.yul\":16666:16669   */\n      dup6\n        /* \"#utility.yul\":16569:16678   */\n      tag_385\n      jump\t// in\n    tag_593:\n        /* \"#utility.yul\":16562:16678   */\n      swap4\n      pop\n        /* \"#utility.yul\":16704:16707   */\n      dup4\n        /* \"#utility.yul\":16749:16753   */\n      0x20\n        /* \"#utility.yul\":16741:16747   */\n      dup3\n        /* \"#utility.yul\":16737:16754   */\n      mul\n        /* \"#utility.yul\":16732:16735   */\n      dup6\n        /* \"#utility.yul\":16728:16755   */\n      add\n        /* \"#utility.yul\":16779:16858   */\n      tag_594\n        /* \"#utility.yul\":16852:16857   */\n      dup6\n        /* \"#utility.yul\":16779:16858   */\n      tag_386\n      jump\t// in\n    tag_594:\n        /* \"#utility.yul\":16881:16888   */\n      dup1\n        /* \"#utility.yul\":16912:16913   */\n      0x00\n        /* \"#utility.yul\":16897:17332   */\n    tag_595:\n        /* \"#utility.yul\":16922:16928   */\n      dup6\n        /* \"#utility.yul\":16919:16920   */\n      dup2\n        /* \"#utility.yul\":16916:16929   */\n      lt\n        /* \"#utility.yul\":16897:17332   */\n      iszero\n      tag_597\n      jumpi\n        /* \"#utility.yul\":16993:17002   */\n      dup5\n        /* \"#utility.yul\":16987:16991   */\n      dup5\n        /* \"#utility.yul\":16983:17003   */\n      sub\n        /* \"#utility.yul\":16978:16981   */\n      dup10\n        /* \"#utility.yul\":16971:17004   */\n      mstore\n        /* \"#utility.yul\":17044:17050   */\n      dup2\n        /* \"#utility.yul\":17038:17051   */\n      mload\n        /* \"#utility.yul\":17072:17182   */\n      tag_598\n        /* \"#utility.yul\":17177:17181   */\n      dup6\n        /* \"#utility.yul\":17162:17175   */\n      dup3\n        /* \"#utility.yul\":17072:17182   */\n      tag_388\n      jump\t// in\n    tag_598:\n        /* \"#utility.yul\":17064:17182   */\n      swap5\n      pop\n        /* \"#utility.yul\":17205:17288   */\n      tag_599\n        /* \"#utility.yul\":17281:17287   */\n      dup4\n        /* \"#utility.yul\":17205:17288   */\n      tag_389\n      jump\t// in\n    tag_599:\n        /* \"#utility.yul\":17195:17288   */\n      swap3\n      pop\n        /* \"#utility.yul\":17317:17321   */\n      0x20\n        /* \"#utility.yul\":17312:17315   */\n      dup11\n        /* \"#utility.yul\":17308:17322   */\n      add\n        /* \"#utility.yul\":17301:17322   */\n      swap10\n      pop\n        /* \"#utility.yul\":16957:17332   */\n      pop\n        /* \"#utility.yul\":16944:16945   */\n      0x01\n        /* \"#utility.yul\":16941:16942   */\n      dup2\n        /* \"#utility.yul\":16937:16946   */\n      add\n        /* \"#utility.yul\":16932:16946   */\n      swap1\n      pop\n        /* \"#utility.yul\":16897:17332   */\n      jump(tag_595)\n    tag_597:\n        /* \"#utility.yul\":16901:16915   */\n      pop\n        /* \"#utility.yul\":17348:17352   */\n      dup3\n        /* \"#utility.yul\":17341:17352   */\n      swap8\n      pop\n        /* \"#utility.yul\":17368:17371   */\n      dup8\n        /* \"#utility.yul\":17361:17371   */\n      swap6\n      pop\n        /* \"#utility.yul\":16452:17377   */\n      pop\n      pop\n      pop\n      pop\n      pop\n        /* \"#utility.yul\":16282:17377   */\n      swap3\n      swap2\n      pop\n      pop\n      jump\t// out\n        /* \"#utility.yul\":17383:17848   */\n    tag_95:\n        /* \"#utility.yul\":17572:17576   */\n      0x00\n        /* \"#utility.yul\":17610:17612   */\n      0x20\n        /* \"#utility.yul\":17599:17608   */\n      dup3\n        /* \"#utility.yul\":17595:17613   */\n      add\n        /* \"#utility.yul\":17587:17613   */\n      swap1\n      pop\n        /* \"#utility.yul\":17659:17668   */\n      dup2\n        /* \"#utility.yul\":17653:17657   */\n      dup2\n        /* \"#utility.yul\":17649:17669   */\n      sub\n        /* \"#utility.yul\":17645:17646   */\n      0x00\n        /* \"#utility.yul\":17634:17643   */\n      dup4\n        /* \"#utility.yul\":17630:17647   */\n      add\n        /* \"#utility.yul\":17623:17670   */\n      mstore\n        /* \"#utility.yul\":17687:17841   */\n      tag_601\n        /* \"#utility.yul\":17836:17840   */\n      dup2\n        /* \"#utility.yul\":17827:17833   */\n      dup5\n        /* \"#utility.yul\":17687:17841   */\n      tag_390\n      jump\t// in\n    tag_601:\n        /* \"#utility.yul\":17679:17841   */\n      swap1\n      pop\n        /* \"#utility.yul\":17383:17848   */\n      swap3\n      swap2\n      pop\n      pop\n      jump\t// out\n        /* \"#utility.yul\":17854:18175   */\n    tag_391:\n        /* \"#utility.yul\":17941:17945   */\n      0x00\n        /* \"#utility.yul\":18031:18049   */\n      0xffffffffffffffff\n        /* \"#utility.yul\":18023:18029   */\n      dup3\n        /* \"#utility.yul\":18020:18050   */\n      gt\n        /* \"#utility.yul\":18017:18073   */\n      iszero\n      tag_603\n      jumpi\n        /* \"#utility.yul\":18053:18071   */\n      tag_604\n      tag_377\n      jump\t// in\n    tag_604:\n        /* \"#utility.yul\":18017:18073   */\n    tag_603:\n        /* \"#utility.yul\":18103:18107   */\n      0x20\n        /* \"#utility.yul\":18095:18101   */\n      dup3\n        /* \"#utility.yul\":18091:18108   */\n      mul\n        /* \"#utility.yul\":18083:18108   */\n      swap1\n      pop\n        /* \"#utility.yul\":18163:18167   */\n      0x20\n        /* \"#utility.yul\":18157:18161   */\n      dup2\n        /* \"#utility.yul\":18153:18168   */\n      add\n        /* \"#utility.yul\":18145:18168   */\n      swap1\n      pop\n        /* \"#utility.yul\":17854:18175   */\n      swap2\n      swap1\n      pop\n      jump\t// out\n        /* \"#utility.yul\":18181:18298   */\n    tag_392:\n        /* \"#utility.yul\":18290:18291   */\n      0x00\n        /* \"#utility.yul\":18287:18288   */\n      0x00\n        /* \"#utility.yul\":18280:18292   */\n      revert\n        /* \"#utility.yul\":18320:19265   */\n    tag_393:\n        /* \"#utility.yul\":18426:18431   */\n      0x00\n        /* \"#utility.yul\":18451:18542   */\n      tag_607\n        /* \"#utility.yul\":18467:18541   */\n      tag_608\n        /* \"#utility.yul\":18534:18540   */\n      dup5\n        /* \"#utility.yul\":18467:18541   */\n      tag_391\n      jump\t// in\n    tag_608:\n        /* \"#utility.yul\":18451:18542   */\n      tag_379\n      jump\t// in\n    tag_607:\n        /* \"#utility.yul\":18442:18542   */\n      swap1\n      pop\n        /* \"#utility.yul\":18562:18567   */\n      dup1\n        /* \"#utility.yul\":18591:18597   */\n      dup4\n        /* \"#utility.yul\":18584:18589   */\n      dup3\n        /* \"#utility.yul\":18577:18598   */\n      mstore\n        /* \"#utility.yul\":18625:18629   */\n      0x20\n        /* \"#utility.yul\":18618:18623   */\n      dup3\n        /* \"#utility.yul\":18614:18630   */\n      add\n        /* \"#utility.yul\":18607:18630   */\n      swap1\n      pop\n        /* \"#utility.yul\":18678:18682   */\n      0x20\n        /* \"#utility.yul\":18670:18676   */\n      dup5\n        /* \"#utility.yul\":18666:18683   */\n      mul\n        /* \"#utility.yul\":18658:18664   */\n      dup4\n        /* \"#utility.yul\":18654:18684   */\n      add\n        /* \"#utility.yul\":18707:18710   */\n      dup6\n        /* \"#utility.yul\":18699:18705   */\n      dup2\n        /* \"#utility.yul\":18696:18711   */\n      gt\n        /* \"#utility.yul\":18693:18815   */\n      iszero\n      tag_609\n      jumpi\n        /* \"#utility.yul\":18726:18805   */\n      tag_610\n      tag_392\n      jump\t// in\n    tag_610:\n        /* \"#utility.yul\":18693:18815   */\n    tag_609:\n        /* \"#utility.yul\":18841:18847   */\n      dup4\n        /* \"#utility.yul\":18824:19259   */\n    tag_611:\n        /* \"#utility.yul\":18858:18864   */\n      dup2\n        /* \"#utility.yul\":18853:18856   */\n      dup2\n        /* \"#utility.yul\":18850:18865   */\n      lt\n        /* \"#utility.yul\":18824:19259   */\n      iszero\n      tag_613\n      jumpi\n        /* \"#utility.yul\":18947:18950   */\n      dup1\n        /* \"#utility.yul\":18934:18951   */\n      calldataload\n        /* \"#utility.yul\":18983:19001   */\n      0xffffffffffffffff\n        /* \"#utility.yul\":18970:18981   */\n      dup2\n        /* \"#utility.yul\":18967:19002   */\n      gt\n        /* \"#utility.yul\":18964:19086   */\n      iszero\n      tag_614\n      jumpi\n        /* \"#utility.yul\":19005:19084   */\n      tag_615\n      tag_375\n      jump\t// in\n    tag_615:\n        /* \"#utility.yul\":18964:19086   */\n    tag_614:\n        /* \"#utility.yul\":19129:19140   */\n      dup1\n        /* \"#utility.yul\":19121:19127   */\n      dup7\n        /* \"#utility.yul\":19117:19141   */\n      add\n        /* \"#utility.yul\":19167:19214   */\n      tag_616\n        /* \"#utility.yul\":19210:19213   */\n      dup10\n        /* \"#utility.yul\":19198:19208   */\n      dup3\n        /* \"#utility.yul\":19167:19214   */\n      tag_383\n      jump\t// in\n    tag_616:\n        /* \"#utility.yul\":19162:19165   */\n      dup6\n        /* \"#utility.yul\":19155:19215   */\n      mstore\n        /* \"#utility.yul\":19244:19248   */\n      0x20\n        /* \"#utility.yul\":19239:19242   */\n      dup6\n        /* \"#utility.yul\":19235:19249   */\n      add\n        /* \"#utility.yul\":19228:19249   */\n      swap5\n      pop\n        /* \"#utility.yul\":18900:19259   */\n      pop\n      pop\n        /* \"#utility.yul\":18884:18888   */\n      0x20\n        /* \"#utility.yul\":18879:18882   */\n      dup2\n        /* \"#utility.yul\":18875:18889   */\n      add\n        /* \"#utility.yul\":18868:18889   */\n      swap1\n      pop\n        /* \"#utility.yul\":18824:19259   */\n      jump(tag_611)\n    tag_613:\n        /* \"#utility.yul\":18828:18849   */\n      pop\n        /* \"#utility.yul\":18432:19265   */\n      pop\n      pop\n        /* \"#utility.yul\":18320:19265   */\n      swap4\n      swap3\n      pop\n      pop\n      pop\n      jump\t// out\n        /* \"#utility.yul\":19287:19677   */\n    tag_394:\n        /* \"#utility.yul\":19368:19373   */\n      0x00\n        /* \"#utility.yul\":19417:19420   */\n      dup3\n        /* \"#utility.yul\":19410:19414   */\n      0x1f\n        /* \"#utility.yul\":19402:19408   */\n      dup4\n        /* \"#utility.yul\":19398:19415   */\n      add\n        /* \"#utility.yul\":19394:19421   */\n      slt\n        /* \"#utility.yul\":19384:19506   */\n      tag_618\n      jumpi\n        /* \"#utility.yul\":19425:19504   */\n      tag_619\n      tag_375\n      jump\t// in\n    tag_619:\n        /* \"#utility.yul\":19384:19506   */\n    tag_618:\n        /* \"#utility.yul\":19542:19548   */\n      dup2\n        /* \"#utility.yul\":19529:19549   */\n      calldataload\n        /* \"#utility.yul\":19567:19671   */\n      tag_620\n        /* \"#utility.yul\":19667:19670   */\n      dup5\n        /* \"#utility.yul\":19659:19665   */\n      dup3\n        /* \"#utility.yul\":19652:19656   */\n      0x20\n        /* \"#utility.yul\":19644:19650   */\n      dup7\n        /* \"#utility.yul\":19640:19657   */\n      add\n        /* \"#utility.yul\":19567:19671   */\n      tag_393\n      jump\t// in\n    tag_620:\n        /* \"#utility.yul\":19558:19671   */\n      swap2\n      pop\n        /* \"#utility.yul\":19374:19677   */\n      pop\n        /* \"#utility.yul\":19287:19677   */\n      swap3\n      swap2\n      pop\n      pop\n      jump\t// out\n        /* \"#utility.yul\":19683:20242   */\n    tag_106:\n        /* \"#utility.yul\":19777:19783   */\n      0x00\n        /* \"#utility.yul\":19826:19828   */\n      0x20\n        /* \"#utility.yul\":19814:19823   */\n      dup3\n        /* \"#utility.yul\":19805:19812   */\n      dup5\n        /* \"#utility.yul\":19801:19824   */\n      sub\n        /* \"#utility.yul\":19797:19829   */\n      slt\n        /* \"#utility.yul\":19794:19913   */\n      iszero\n      tag_622\n      jumpi\n        /* \"#utility.yul\":19832:19911   */\n      tag_623\n      tag_345\n      jump\t// in\n    tag_623:\n        /* \"#utility.yul\":19794:19913   */\n    tag_622:\n        /* \"#utility.yul\":19980:19981   */\n      0x00\n        /* \"#utility.yul\":19969:19978   */\n      dup3\n        /* \"#utility.yul\":19965:19982   */\n      add\n        /* \"#utility.yul\":19952:19983   */\n      calldataload\n        /* \"#utility.yul\":20010:20028   */\n      0xffffffffffffffff\n        /* \"#utility.yul\":20002:20008   */\n      dup2\n        /* \"#utility.yul\":19999:20029   */\n      gt\n        /* \"#utility.yul\":19996:20113   */\n      iszero\n      tag_624\n      jumpi\n        /* \"#utility.yul\":20032:20111   */\n      tag_625\n      tag_346\n      jump\t// in\n    tag_625:\n        /* \"#utility.yul\":19996:20113   */\n    tag_624:\n        /* \"#utility.yul\":20137:20225   */\n      tag_626\n        /* \"#utility.yul\":20217:20224   */\n      dup5\n        /* \"#utility.yul\":20208:20214   */\n      dup3\n        /* \"#utility.yul\":20197:20206   */\n      dup6\n        /* \"#utility.yul\":20193:20215   */\n      add\n        /* \"#utility.yul\":20137:20225   */\n      tag_394\n      jump\t// in\n    tag_626:\n        /* \"#utility.yul\":20127:20225   */\n      swap2\n      pop\n        /* \"#utility.yul\":19923:20235   */\n      pop\n        /* \"#utility.yul\":19683:20242   */\n      swap3\n      swap2\n      pop\n      pop\n      jump\t// out\n        /* \"#utility.yul\":20248:20722   */\n    tag_110:\n        /* \"#utility.yul\":20316:20322   */\n      0x00\n        /* \"#utility.yul\":20324:20330   */\n      0x00\n        /* \"#utility.yul\":20373:20375   */\n      0x40\n        /* \"#utility.yul\":20361:20370   */\n      dup4\n        /* \"#utility.yul\":20352:20359   */\n      dup6\n        /* \"#utility.yul\":20348:20371   */\n      sub\n        /* \"#utility.yul\":20344:20376   */\n      slt\n        /* \"#utility.yul\":20341:20460   */\n      iszero\n      tag_628\n      jumpi\n        /* \"#utility.yul\":20379:20458   */\n      tag_629\n      tag_345\n      jump\t// in\n    tag_629:\n        /* \"#utility.yul\":20341:20460   */\n    tag_628:\n        /* \"#utility.yul\":20499:20500   */\n      0x00\n        /* \"#utility.yul\":20524:20577   */\n      tag_630\n        /* \"#utility.yul\":20569:20576   */\n      dup6\n        /* \"#utility.yul\":20560:20566   */\n      dup3\n        /* \"#utility.yul\":20549:20558   */\n      dup7\n        /* \"#utility.yul\":20545:20567   */\n      add\n        /* \"#utility.yul\":20524:20577   */\n      tag_358\n      jump\t// in\n    tag_630:\n        /* \"#utility.yul\":20514:20577   */\n      swap3\n      pop\n        /* \"#utility.yul\":20470:20587   */\n      pop\n        /* \"#utility.yul\":20626:20628   */\n      0x20\n        /* \"#utility.yul\":20652:20705   */\n      tag_631\n        /* \"#utility.yul\":20697:20704   */\n      dup6\n        /* \"#utility.yul\":20688:20694   */\n      dup3\n        /* \"#utility.yul\":20677:20686   */\n      dup7\n        /* \"#utility.yul\":20673:20695   */\n      add\n        /* \"#utility.yul\":20652:20705   */\n      tag_358\n      jump\t// in\n    tag_631:\n        /* \"#utility.yul\":20642:20705   */\n      swap2\n      pop\n        /* \"#utility.yul\":20597:20715   */\n      pop\n        /* \"#utility.yul\":20248:20722   */\n      swap3\n      pop\n      swap3\n      swap1\n      pop\n      jump\t// out\n        /* \"#utility.yul\":20728:20909   */\n    tag_395:\n        /* \"#utility.yul\":20868:20901   */\n      0x536f6d656e7465206a757261646f7320706f64656d2072656769737472617200\n        /* \"#utility.yul\":20864:20865   */\n      0x00\n        /* \"#utility.yul\":20856:20862   */\n      dup3\n        /* \"#utility.yul\":20852:20866   */\n      add\n        /* \"#utility.yul\":20845:20902   */\n      mstore\n        /* \"#utility.yul\":20728:20909   */\n      pop\n      jump\t// out\n        /* \"#utility.yul\":20915:21281   */\n    tag_396:\n        /* \"#utility.yul\":21057:21060   */\n      0x00\n        /* \"#utility.yul\":21078:21145   */\n      tag_634\n        /* \"#utility.yul\":21142:21144   */\n      0x1f\n        /* \"#utility.yul\":21137:21140   */\n      dup4\n        /* \"#utility.yul\":21078:21145   */\n      tag_351\n      jump\t// in\n    tag_634:\n        /* \"#utility.yul\":21071:21145   */\n      swap2\n      pop\n        /* \"#utility.yul\":21154:21247   */\n      tag_635\n        /* \"#utility.yul\":21243:21246   */\n      dup3\n        /* \"#utility.yul\":21154:21247   */\n      tag_395\n      jump\t// in\n    tag_635:\n        /* \"#utility.yul\":21272:21274   */\n      0x20\n        /* \"#utility.yul\":21267:21270   */\n      dup3\n        /* \"#utility.yul\":21263:21275   */\n      add\n        /* \"#utility.yul\":21256:21275   */\n      swap1\n      pop\n        /* \"#utility.yul\":20915:21281   */\n      swap2\n      swap1\n      pop\n      jump\t// out\n        /* \"#utility.yul\":21287:21706   */\n    tag_125:\n        /* \"#utility.yul\":21453:21457   */\n      0x00\n        /* \"#utility.yul\":21491:21493   */\n      0x20\n        /* \"#utility.yul\":21480:21489   */\n      dup3\n        /* \"#utility.yul\":21476:21494   */\n      add\n        /* \"#utility.yul\":21468:21494   */\n      swap1\n      pop\n        /* \"#utility.yul\":21540:21549   */\n      dup2\n        /* \"#utility.yul\":21534:21538   */\n      dup2\n        /* \"#utility.yul\":21530:21550   */\n      sub\n        /* \"#utility.yul\":21526:21527   */\n      0x00\n        /* \"#utility.yul\":21515:21524   */\n      dup4\n        /* \"#utility.yul\":21511:21528   */\n      add\n        /* \"#utility.yul\":21504:21551   */\n      mstore\n        /* \"#utility.yul\":21568:21699   */\n      tag_637\n        /* \"#utility.yul\":21694:21698   */\n      dup2\n        /* \"#utility.yul\":21568:21699   */\n      tag_396\n      jump\t// in\n    tag_637:\n        /* \"#utility.yul\":21560:21699   */\n      swap1\n      pop\n        /* \"#utility.yul\":21287:21706   */\n      swap2\n      swap1\n      pop\n      jump\t// out\n        /* \"#utility.yul\":21712:21877   */\n    tag_397:\n        /* \"#utility.yul\":21852:21869   */\n      0x4e6f746120696d706f73736976656c0000000000000000000000000000000000\n        /* \"#utility.yul\":21848:21849   */\n      0x00\n        /* \"#utility.yul\":21840:21846   */\n      dup3\n        /* \"#utility.yul\":21836:21850   */\n      add\n        /* \"#utility.yul\":21829:21870   */\n      mstore\n        /* \"#utility.yul\":21712:21877   */\n      pop\n      jump\t// out\n        /* \"#utility.yul\":21883:22249   */\n    tag_398:\n        /* \"#utility.yul\":22025:22028   */\n      0x00\n        /* \"#utility.yul\":22046:22113   */\n      tag_640\n        /* \"#utility.yul\":22110:22112   */\n      0x0f\n        /* \"#utility.yul\":22105:22108   */\n      dup4\n        /* \"#utility.yul\":22046:22113   */\n      tag_351\n      jump\t// in\n    tag_640:\n        /* \"#utility.yul\":22039:22113   */\n      swap2\n      pop\n        /* \"#utility.yul\":22122:22215   */\n      tag_641\n        /* \"#utility.yul\":22211:22214   */\n      dup3\n        /* \"#utility.yul\":22122:22215   */\n      tag_397\n      jump\t// in\n    tag_641:\n        /* \"#utility.yul\":22240:22242   */\n      0x20\n        /* \"#utility.yul\":22235:22238   */\n      dup3\n        /* \"#utility.yul\":22231:22243   */\n      add\n        /* \"#utility.yul\":22224:22243   */\n      swap1\n      pop\n        /* \"#utility.yul\":21883:22249   */\n      swap2\n      swap1\n      pop\n      jump\t// out\n        /* \"#utility.yul\":22255:22674   */\n    tag_129:\n        /* \"#utility.yul\":22421:22425   */\n      0x00\n        /* \"#utility.yul\":22459:22461   */\n      0x20\n        /* \"#utility.yul\":22448:22457   */\n      dup3\n        /* \"#utility.yul\":22444:22462   */\n      add\n        /* \"#utility.yul\":22436:22462   */\n      swap1\n      pop\n        /* \"#utility.yul\":22508:22517   */\n      dup2\n        /* \"#utility.yul\":22502:22506   */\n      dup2\n        /* \"#utility.yul\":22498:22518   */\n      sub\n        /* \"#utility.yul\":22494:22495   */\n      0x00\n        /* \"#utility.yul\":22483:22492   */\n      dup4\n        /* \"#utility.yul\":22479:22496   */\n      add\n        /* \"#utility.yul\":22472:22519   */\n      mstore\n        /* \"#utility.yul\":22536:22667   */\n      tag_643\n        /* \"#utility.yul\":22662:22666   */\n      dup2\n        /* \"#utility.yul\":22536:22667   */\n      tag_398\n      jump\t// in\n    tag_643:\n        /* \"#utility.yul\":22528:22667   */\n      swap1\n      pop\n        /* \"#utility.yul\":22255:22674   */\n      swap2\n      swap1\n      pop\n      jump\t// out\n        /* \"#utility.yul\":22680:22860   */\n    tag_399:\n        /* \"#utility.yul\":22728:22805   */\n      0x4e487b7100000000000000000000000000000000000000000000000000000000\n        /* \"#utility.yul\":22725:22726   */\n      0x00\n        /* \"#utility.yul\":22718:22806   */\n      mstore\n        /* \"#utility.yul\":22825:22829   */\n      0x22\n        /* \"#utility.yul\":22822:22823   */\n      0x04\n        /* \"#utility.yul\":22815:22830   */\n      mstore\n        /* \"#utility.yul\":22849:22853   */\n      0x24\n        /* \"#utility.yul\":22846:22847   */\n      0x00\n        /* \"#utility.yul\":22839:22854   */\n      revert\n        /* \"#utility.yul\":22866:23186   */\n    tag_133:\n        /* \"#utility.yul\":22910:22916   */\n      0x00\n        /* \"#utility.yul\":22947:22948   */\n      0x02\n        /* \"#utility.yul\":22941:22945   */\n      dup3\n        /* \"#utility.yul\":22937:22949   */\n      div\n        /* \"#utility.yul\":22927:22949   */\n      swap1\n      pop\n        /* \"#utility.yul\":22994:22995   */\n      0x01\n        /* \"#utility.yul\":22988:22992   */\n      dup3\n        /* \"#utility.yul\":22984:22996   */\n      and\n        /* \"#utility.yul\":23015:23033   */\n      dup1\n        /* \"#utility.yul\":23005:23086   */\n      tag_646\n      jumpi\n        /* \"#utility.yul\":23071:23075   */\n      0x7f\n        /* \"#utility.yul\":23063:23069   */\n      dup3\n        /* \"#utility.yul\":23059:23076   */\n      and\n        /* \"#utility.yul\":23049:23076   */\n      swap2\n      pop\n        /* \"#utility.yul\":23005:23086   */\n    tag_646:\n        /* \"#utility.yul\":23133:23135   */\n      0x20\n        /* \"#utility.yul\":23125:23131   */\n      dup3\n        /* \"#utility.yul\":23122:23136   */\n      lt\n        /* \"#utility.yul\":23102:23120   */\n      dup2\n        /* \"#utility.yul\":23099:23137   */\n      sub\n        /* \"#utility.yul\":23096:23180   */\n      tag_647\n      jumpi\n        /* \"#utility.yul\":23152:23170   */\n      tag_648\n      tag_399\n      jump\t// in\n    tag_648:\n        /* \"#utility.yul\":23096:23180   */\n    tag_647:\n        /* \"#utility.yul\":22917:23186   */\n      pop\n        /* \"#utility.yul\":22866:23186   */\n      swap2\n      swap1\n      pop\n      jump\t// out\n        /* \"#utility.yul\":23192:23359   */\n    tag_400:\n        /* \"#utility.yul\":23332:23351   */\n      0x4e6f207175657369746f7320666f756e64000000000000000000000000000000\n        /* \"#utility.yul\":23328:23329   */\n      0x00\n        /* \"#utility.yul\":23320:23326   */\n      dup3\n        /* \"#utility.yul\":23316:23330   */\n      add\n        /* \"#utility.yul\":23309:23352   */\n      mstore\n        /* \"#utility.yul\":23192:23359   */\n      pop\n      jump\t// out\n        /* \"#utility.yul\":23365:23731   */\n    tag_401:\n        /* \"#utility.yul\":23507:23510   */\n      0x00\n        /* \"#utility.yul\":23528:23595   */\n      tag_651\n        /* \"#utility.yul\":23592:23594   */\n      0x11\n        /* \"#utility.yul\":23587:23590   */\n      dup4\n        /* \"#utility.yul\":23528:23595   */\n      tag_351\n      jump\t// in\n    tag_651:\n        /* \"#utility.yul\":23521:23595   */\n      swap2\n      pop\n        /* \"#utility.yul\":23604:23697   */\n      tag_652\n        /* \"#utility.yul\":23693:23696   */\n      dup3\n        /* \"#utility.yul\":23604:23697   */\n      tag_400\n      jump\t// in\n    tag_652:\n        /* \"#utility.yul\":23722:23724   */\n      0x20\n        /* \"#utility.yul\":23717:23720   */\n      dup3\n        /* \"#utility.yul\":23713:23725   */\n      add\n        /* \"#utility.yul\":23706:23725   */\n      swap1\n      pop\n        /* \"#utility.yul\":23365:23731   */\n      swap2\n      swap1\n      pop\n      jump\t// out\n        /* \"#utility.yul\":23737:24156   */\n    tag_161:\n        /* \"#utility.yul\":23903:23907   */\n      0x00\n        /* \"#utility.yul\":23941:23943   */\n      0x20\n        /* \"#utility.yul\":23930:23939   */\n      dup3\n        /* \"#utility.yul\":23926:23944   */\n      add\n        /* \"#utility.yul\":23918:23944   */\n      swap1\n      pop\n        /* \"#utility.yul\":23990:23999   */\n      dup2\n        /* \"#utility.yul\":23984:23988   */\n      dup2\n        /* \"#utility.yul\":23980:24000   */\n      sub\n        /* \"#utility.yul\":23976:23977   */\n      0x00\n        /* \"#utility.yul\":23965:23974   */\n      dup4\n        /* \"#utility.yul\":23961:23978   */\n      add\n        /* \"#utility.yul\":23954:24001   */\n      mstore\n        /* \"#utility.yul\":24018:24149   */\n      tag_654\n        /* \"#utility.yul\":24144:24148   */\n      dup2\n        /* \"#utility.yul\":24018:24149   */\n      tag_401\n      jump\t// in\n    tag_654:\n        /* \"#utility.yul\":24010:24149   */\n      swap1\n      pop\n        /* \"#utility.yul\":23737:24156   */\n      swap2\n      swap1\n      pop\n      jump\t// out\n        /* \"#utility.yul\":24162:24343   */\n    tag_402:\n        /* \"#utility.yul\":24302:24335   */\n      0x41636573736f20726573747269746f20616f2070726f70726965746172696f00\n        /* \"#utility.yul\":24298:24299   */\n      0x00\n        /* \"#utility.yul\":24290:24296   */\n      dup3\n        /* \"#utility.yul\":24286:24300   */\n      add\n        /* \"#utility.yul\":24279:24336   */\n      mstore\n        /* \"#utility.yul\":24162:24343   */\n      pop\n      jump\t// out\n        /* \"#utility.yul\":24349:24715   */\n    tag_403:\n        /* \"#utility.yul\":24491:24494   */\n      0x00\n        /* \"#utility.yul\":24512:24579   */\n      tag_657\n        /* \"#utility.yul\":24576:24578   */\n      0x1f\n        /* \"#utility.yul\":24571:24574   */\n      dup4\n        /* \"#utility.yul\":24512:24579   */\n      tag_351\n      jump\t// in\n    tag_657:\n        /* \"#utility.yul\":24505:24579   */\n      swap2\n      pop\n        /* \"#utility.yul\":24588:24681   */\n      tag_658\n        /* \"#utility.yul\":24677:24680   */\n      dup3\n        /* \"#utility.yul\":24588:24681   */\n      tag_402\n      jump\t// in\n    tag_658:\n        /* \"#utility.yul\":24706:24708   */\n      0x20\n        /* \"#utility.yul\":24701:24704   */\n      dup3\n        /* \"#utility.yul\":24697:24709   */\n      add\n        /* \"#utility.yul\":24690:24709   */\n      swap1\n      pop\n        /* \"#utility.yul\":24349:24715   */\n      swap2\n      swap1\n      pop\n      jump\t// out\n        /* \"#utility.yul\":24721:25140   */\n    tag_173:\n        /* \"#utility.yul\":24887:24891   */\n      0x00\n        /* \"#utility.yul\":24925:24927   */\n      0x20\n        /* \"#utility.yul\":24914:24923   */\n      dup3\n        /* \"#utility.yul\":24910:24928   */\n      add\n        /* \"#utility.yul\":24902:24928   */\n      swap1\n      pop\n        /* \"#utility.yul\":24974:24983   */\n      dup2\n        /* \"#utility.yul\":24968:24972   */\n      dup2\n        /* \"#utility.yul\":24964:24984   */\n      sub\n        /* \"#utility.yul\":24960:24961   */\n      0x00\n        /* \"#utility.yul\":24949:24958   */\n      dup4\n        /* \"#utility.yul\":24945:24962   */\n      add\n        /* \"#utility.yul\":24938:24985   */\n      mstore\n        /* \"#utility.yul\":25002:25133   */\n      tag_660\n        /* \"#utility.yul\":25128:25132   */\n      dup2\n        /* \"#utility.yul\":25002:25133   */\n      tag_403\n      jump\t// in\n    tag_660:\n        /* \"#utility.yul\":24994:25133   */\n      swap1\n      pop\n        /* \"#utility.yul\":24721:25140   */\n      swap2\n      swap1\n      pop\n      jump\t// out\n        /* \"#utility.yul\":25146:25324   */\n    tag_404:\n        /* \"#utility.yul\":25286:25316   */\n      0x5175616e746964616465206d6178696d61206465206a757261646f7300000000\n        /* \"#utility.yul\":25282:25283   */\n      0x00\n        /* \"#utility.yul\":25274:25280   */\n      dup3\n        /* \"#utility.yul\":25270:25284   */\n      add\n        /* \"#utility.yul\":25263:25317   */\n      mstore\n        /* \"#utility.yul\":25146:25324   */\n      pop\n      jump\t// out\n        /* \"#utility.yul\":25330:25696   */\n    tag_405:\n        /* \"#utility.yul\":25472:25475   */\n      0x00\n        /* \"#utility.yul\":25493:25560   */\n      tag_663\n        /* \"#utility.yul\":25557:25559   */\n      0x1c\n        /* \"#utility.yul\":25552:25555   */\n      dup4\n        /* \"#utility.yul\":25493:25560   */\n      tag_351\n      jump\t// in\n    tag_663:\n        /* \"#utility.yul\":25486:25560   */\n      swap2\n      pop\n        /* \"#utility.yul\":25569:25662   */\n      tag_664\n        /* \"#utility.yul\":25658:25661   */\n      dup3\n        /* \"#utility.yul\":25569:25662   */\n      tag_404\n      jump\t// in\n    tag_664:\n        /* \"#utility.yul\":25687:25689   */\n      0x20\n        /* \"#utility.yul\":25682:25685   */\n      dup3\n        /* \"#utility.yul\":25678:25690   */\n      add\n        /* \"#utility.yul\":25671:25690   */\n      swap1\n      pop\n        /* \"#utility.yul\":25330:25696   */\n      swap2\n      swap1\n      pop\n      jump\t// out\n        /* \"#utility.yul\":25702:26121   */\n    tag_177:\n        /* \"#utility.yul\":25868:25872   */\n      0x00\n        /* \"#utility.yul\":25906:25908   */\n      0x20\n        /* \"#utility.yul\":25895:25904   */\n      dup3\n        /* \"#utility.yul\":25891:25909   */\n      add\n        /* \"#utility.yul\":25883:25909   */\n      swap1\n      pop\n        /* \"#utility.yul\":25955:25964   */\n      dup2\n        /* \"#utility.yul\":25949:25953   */\n      dup2\n        /* \"#utility.yul\":25945:25965   */\n      sub\n        /* \"#utility.yul\":25941:25942   */\n      0x00\n        /* \"#utility.yul\":25930:25939   */\n      dup4\n        /* \"#utility.yul\":25926:25943   */\n      add\n        /* \"#utility.yul\":25919:25966   */\n      mstore\n        /* \"#utility.yul\":25983:26114   */\n      tag_666\n        /* \"#utility.yul\":26109:26113   */\n      dup2\n        /* \"#utility.yul\":25983:26114   */\n      tag_405\n      jump\t// in\n    tag_666:\n        /* \"#utility.yul\":25975:26114   */\n      swap1\n      pop\n        /* \"#utility.yul\":25702:26121   */\n      swap2\n      swap1\n      pop\n      jump\t// out\n        /* \"#utility.yul\":26127:26268   */\n    tag_406:\n        /* \"#utility.yul\":26176:26180   */\n      0x00\n        /* \"#utility.yul\":26199:26202   */\n      dup2\n        /* \"#utility.yul\":26191:26202   */\n      swap1\n      pop\n        /* \"#utility.yul\":26222:26225   */\n      dup2\n        /* \"#utility.yul\":26219:26220   */\n      0x00\n        /* \"#utility.yul\":26212:26226   */\n      mstore\n        /* \"#utility.yul\":26256:26260   */\n      0x20\n        /* \"#utility.yul\":26253:26254   */\n      0x00\n        /* \"#utility.yul\":26243:26261   */\n      keccak256\n        /* \"#utility.yul\":26235:26261   */\n      swap1\n      pop\n        /* \"#utility.yul\":26127:26268   */\n      swap2\n      swap1\n      pop\n      jump\t// out\n        /* \"#utility.yul\":26274:26367   */\n    tag_407:\n        /* \"#utility.yul\":26311:26317   */\n      0x00\n        /* \"#utility.yul\":26358:26360   */\n      0x20\n        /* \"#utility.yul\":26353:26355   */\n      0x1f\n        /* \"#utility.yul\":26346:26351   */\n      dup4\n        /* \"#utility.yul\":26342:26356   */\n      add\n        /* \"#utility.yul\":26338:26361   */\n      div\n        /* \"#utility.yul\":26328:26361   */\n      swap1\n      pop\n        /* \"#utility.yul\":26274:26367   */\n      swap2\n      swap1\n      pop\n      jump\t// out\n        /* \"#utility.yul\":26373:26480   */\n    tag_408:\n        /* \"#utility.yul\":26417:26425   */\n      0x00\n        /* \"#utility.yul\":26467:26472   */\n      dup3\n        /* \"#utility.yul\":26461:26465   */\n      dup3\n        /* \"#utility.yul\":26457:26473   */\n      shl\n        /* \"#utility.yul\":26436:26473   */\n      swap1\n      pop\n        /* \"#utility.yul\":26373:26480   */\n      swap3\n      swap2\n      pop\n      pop\n      jump\t// out\n        /* \"#utility.yul\":26486:26879   */\n    tag_409:\n        /* \"#utility.yul\":26555:26561   */\n      0x00\n        /* \"#utility.yul\":26605:26606   */\n      0x08\n        /* \"#utility.yul\":26593:26603   */\n      dup4\n        /* \"#utility.yul\":26589:26607   */\n      mul\n        /* \"#utility.yul\":26628:26725   */\n      tag_671\n        /* \"#utility.yul\":26658:26724   */\n      0xffffffffffffffffffffffffffffffffffffffffffffffffffffffffffffffff\n        /* \"#utility.yul\":26647:26656   */\n      dup3\n        /* \"#utility.yul\":26628:26725   */\n      tag_408\n      jump\t// in\n    tag_671:\n        /* \"#utility.yul\":26746:26785   */\n      tag_672\n        /* \"#utility.yul\":26776:26784   */\n      dup7\n        /* \"#utility.yul\":26765:26774   */\n      dup4\n        /* \"#utility.yul\":26746:26785   */\n      tag_408\n      jump\t// in\n    tag_672:\n        /* \"#utility.yul\":26734:26785   */\n      swap6\n      pop\n        /* \"#utility.yul\":26818:26822   */\n      dup1\n        /* \"#utility.yul\":26814:26823   */\n      not\n        /* \"#utility.yul\":26807:26812   */\n      dup5\n        /* \"#utility.yul\":26803:26824   */\n      and\n        /* \"#utility.yul\":26794:26824   */\n      swap4\n      pop\n        /* \"#utility.yul\":26867:26871   */\n      dup1\n        /* \"#utility.yul\":26857:26865   */\n      dup7\n        /* \"#utility.yul\":26853:26872   */\n      and\n        /* \"#utility.yul\":26846:26851   */\n      dup5\n        /* \"#utility.yul\":26843:26873   */\n      or\n        /* \"#utility.yul\":26833:26873   */\n      swap3\n      pop\n        /* \"#utility.yul\":26562:26879   */\n      pop\n      pop\n        /* \"#utility.yul\":26486:26879   */\n      swap4\n      swap3\n      pop\n      pop\n      pop\n      jump\t// out\n        /* \"#utility.yul\":26885:26945   */\n    tag_410:\n        /* \"#utility.yul\":26913:26916   */\n      0x00\n        /* \"#utility.yul\":26934:26939   */\n      dup2\n        /* \"#utility.yul\":26927:26939   */\n      swap1\n      pop\n        /* \"#utility.yul\":26885:26945   */\n      swap2\n      swap1\n      pop\n      jump\t// out\n        /* \"#utility.yul\":26951:27093   */\n    tag_411:\n        /* \"#utility.yul\":27001:27010   */\n      0x00\n        /* \"#utility.yul\":27034:27087   */\n      tag_675\n        /* \"#utility.yul\":27052:27086   */\n      tag_676\n        /* \"#utility.yul\":27061:27085   */\n      tag_677\n        /* \"#utility.yul\":27079:27084   */\n      dup5\n        /* \"#utility.yul\":27061:27085   */\n      tag_347\n      jump\t// in\n    tag_677:\n        /* \"#utility.yul\":27052:27086   */\n      tag_410\n      jump\t// in\n    tag_676:\n        /* \"#utility.yul\":27034:27087   */\n      tag_347\n      jump\t// in\n    tag_675:\n        /* \"#utility.yul\":27021:27087   */\n      swap1\n      pop\n        /* \"#utility.yul\":26951:27093   */\n      swap2\n      swap1\n      pop\n      jump\t// out\n        /* \"#utility.yul\":27099:27174   */\n    tag_412:\n        /* \"#utility.yul\":27142:27145   */\n      0x00\n        /* \"#utility.yul\":27163:27168   */\n      dup2\n        /* \"#utility.yul\":27156:27168   */\n      swap1\n      pop\n        /* \"#utility.yul\":27099:27174   */\n      swap2\n      swap1\n      pop\n      jump\t// out\n        /* \"#utility.yul\":27180:27449   */\n    tag_413:\n        /* \"#utility.yul\":27290:27329   */\n      tag_680\n        /* \"#utility.yul\":27321:27328   */\n      dup4\n        /* \"#utility.yul\":27290:27329   */\n      tag_411\n      jump\t// in\n    tag_680:\n        /* \"#utility.yul\":27351:27442   */\n      tag_681\n        /* \"#utility.yul\":27400:27441   */\n      tag_682\n        /* \"#utility.yul\":27424:27440   */\n      dup3\n        /* \"#utility.yul\":27400:27441   */\n      tag_412\n      jump\t// in\n    tag_682:\n        /* \"#utility.yul\":27392:27398   */\n      dup5\n        /* \"#utility.yul\":27385:27389   */\n      dup5\n        /* \"#utility.yul\":27379:27390   */\n      sload\n        /* \"#utility.yul\":27351:27442   */\n      tag_409\n      jump\t// in\n    tag_681:\n        /* \"#utility.yul\":27345:27349   */\n      dup3\n        /* \"#utility.yul\":27338:27443   */\n      sstore\n        /* \"#utility.yul\":27256:27449   */\n      pop\n        /* \"#utility.yul\":27180:27449   */\n      pop\n      pop\n      pop\n      jump\t// out\n        /* \"#utility.yul\":27455:27528   */\n    tag_414:\n        /* \"#utility.yul\":27500:27503   */\n      0x00\n        /* \"#utility.yul\":27521:27522   */\n      0x00\n        /* \"#utility.yul\":27514:27522   */\n      swap1\n      pop\n        /* \"#utility.yul\":27455:27528   */\n      swap1\n      jump\t// out\n        /* \"#utility.yul\":27534:27723   */\n    tag_415:\n        /* \"#utility.yul\":27611:27643   */\n      tag_685\n      tag_414\n      jump\t// in\n    tag_685:\n        /* \"#utility.yul\":27652:27717   */\n      tag_686\n        /* \"#utility.yul\":27710:27716   */\n      dup2\n        /* \"#utility.yul\":27702:27708   */\n      dup5\n        /* \"#utility.yul\":27696:27700   */\n      dup5\n        /* \"#utility.yul\":27652:27717   */\n      tag_413\n      jump\t// in\n    tag_686:\n        /* \"#utility.yul\":27587:27723   */\n      pop\n        /* \"#utility.yul\":27534:27723   */\n      pop\n      pop\n      jump\t// out\n        /* \"#utility.yul\":27729:27915   */\n    tag_416:\n        /* \"#utility.yul\":27789:27909   */\n    tag_688:\n        /* \"#utility.yul\":27806:27809   */\n      dup2\n        /* \"#utility.yul\":27799:27804   */\n      dup2\n        /* \"#utility.yul\":27796:27810   */\n      lt\n        /* \"#utility.yul\":27789:27909   */\n      iszero\n      tag_690\n      jumpi\n        /* \"#utility.yul\":27860:27899   */\n      tag_691\n        /* \"#utility.yul\":27897:27898   */\n      0x00\n        /* \"#utility.yul\":27890:27895   */\n      dup3\n        /* \"#utility.yul\":27860:27899   */\n      tag_415\n      jump\t// in\n    tag_691:\n        /* \"#utility.yul\":27833:27834   */\n      0x01\n        /* \"#utility.yul\":27826:27831   */\n      dup2\n        /* \"#utility.yul\":27822:27835   */\n      add\n        /* \"#utility.yul\":27813:27835   */\n      swap1\n      pop\n        /* \"#utility.yul\":27789:27909   */\n      jump(tag_688)\n    tag_690:\n        /* \"#utility.yul\":27729:27915   */\n      pop\n      pop\n      jump\t// out\n        /* \"#utility.yul\":27921:28464   */\n    tag_417:\n        /* \"#utility.yul\":28022:28024   */\n      0x1f\n        /* \"#utility.yul\":28017:28020   */\n      dup3\n        /* \"#utility.yul\":28014:28025   */\n      gt\n        /* \"#utility.yul\":28011:28457   */\n      iszero\n      tag_693\n      jumpi\n        /* \"#utility.yul\":28056:28094   */\n      tag_694\n        /* \"#utility.yul\":28088:28093   */\n      dup2\n        /* \"#utility.yul\":28056:28094   */\n      tag_406\n      jump\t// in\n    tag_694:\n        /* \"#utility.yul\":28140:28169   */\n      tag_695\n        /* \"#utility.yul\":28158:28168   */\n      dup5\n        /* \"#utility.yul\":28140:28169   */\n      tag_407\n      jump\t// in\n    tag_695:\n        /* \"#utility.yul\":28130:28138   */\n      dup2\n        /* \"#utility.yul\":28126:28170   */\n      add\n        /* \"#utility.yul\":28323:28325   */\n      0x20\n        /* \"#utility.yul\":28311:28321   */\n      dup6\n        /* \"#utility.yul\":28308:28326   */\n      lt\n        /* \"#utility.yul\":28305:28354   */\n      iszero\n      tag_696\n      jumpi\n        /* \"#utility.yul\":28344:28352   */\n      dup2\n        /* \"#utility.yul\":28329:28352   */\n      swap1\n      pop\n        /* \"#utility.yul\":28305:28354   */\n    tag_696:\n        /* \"#utility.yul\":28367:28447   */\n      tag_697\n        /* \"#utility.yul\":28423:28445   */\n      tag_698\n        /* \"#utility.yul\":28441:28444   */\n      dup6\n        /* \"#utility.yul\":28423:28445   */\n      tag_407\n      jump\t// in\n    tag_698:\n        /* \"#utility.yul\":28413:28421   */\n      dup4\n        /* \"#utility.yul\":28409:28446   */\n      add\n        /* \"#utility.yul\":28396:28407   */\n      dup3\n        /* \"#utility.yul\":28367:28447   */\n      tag_416\n      jump\t// in\n    tag_697:\n        /* \"#utility.yul\":28026:28457   */\n      pop\n      pop\n        /* \"#utility.yul\":28011:28457   */\n    tag_693:\n        /* \"#utility.yul\":27921:28464   */\n      pop\n      pop\n      pop\n      jump\t// out\n        /* \"#utility.yul\":28470:28587   */\n    tag_418:\n        /* \"#utility.yul\":28524:28532   */\n      0x00\n        /* \"#utility.yul\":28574:28579   */\n      dup3\n        /* \"#utility.yul\":28568:28572   */\n      dup3\n        /* \"#utility.yul\":28564:28580   */\n      shr\n        /* \"#utility.yul\":28543:28580   */\n      swap1\n      pop\n        /* \"#utility.yul\":28470:28587   */\n      swap3\n      swap2\n      pop\n      pop\n      jump\t// out\n        /* \"#utility.yul\":28593:28762   */\n    tag_419:\n        /* \"#utility.yul\":28637:28643   */\n      0x00\n        /* \"#utility.yul\":28670:28721   */\n      tag_701\n        /* \"#utility.yul\":28718:28719   */\n      0x00\n        /* \"#utility.yul\":28714:28720   */\n      not\n        /* \"#utility.yul\":28706:28711   */\n      dup5\n        /* \"#utility.yul\":28703:28704   */\n      0x08\n        /* \"#utility.yul\":28699:28712   */\n      mul\n        /* \"#utility.yul\":28670:28721   */\n      tag_418\n      jump\t// in\n    tag_701:\n        /* \"#utility.yul\":28666:28722   */\n      not\n        /* \"#utility.yul\":28751:28755   */\n      dup1\n        /* \"#utility.yul\":28745:28749   */\n      dup4\n        /* \"#utility.yul\":28741:28756   */\n      and\n        /* \"#utility.yul\":28731:28756   */\n      swap2\n      pop\n        /* \"#utility.yul\":28644:28762   */\n      pop\n        /* \"#utility.yul\":28593:28762   */\n      swap3\n      swap2\n      pop\n      pop\n      jump\t// out\n        /* \"#utility.yul\":28767:29062   */\n    tag_420:\n        /* \"#utility.yul\":28843:28847   */\n      0x00\n        /* \"#utility.yul\":28989:29018   */\n      tag_703\n        /* \"#utility.yul\":29014:29017   */\n      dup4\n        /* \"#utility.yul\":29008:29012   */\n      dup4\n        /* \"#utility.yul\":28989:29018   */\n      tag_419\n      jump\t// in\n    tag_703:\n        /* \"#utility.yul\":28981:29018   */\n      swap2\n      pop\n        /* \"#utility.yul\":29051:29054   */\n      dup3\n        /* \"#utility.yul\":29048:29049   */\n      0x02\n        /* \"#utility.yul\":29044:29055   */\n      mul\n        /* \"#utility.yul\":29038:29042   */\n      dup3\n        /* \"#utility.yul\":29035:29056   */\n      or\n        /* \"#utility.yul\":29027:29056   */\n      swap1\n      pop\n        /* \"#utility.yul\":28767:29062   */\n      swap3\n      swap2\n      pop\n      pop\n      jump\t// out\n        /* \"#utility.yul\":29067:30462   */\n    tag_179:\n        /* \"#utility.yul\":29184:29221   */\n      tag_705\n        /* \"#utility.yul\":29217:29220   */\n      dup3\n        /* \"#utility.yul\":29184:29221   */\n      tag_350\n      jump\t// in\n    tag_705:\n        /* \"#utility.yul\":29286:29304   */\n      0xffffffffffffffff\n        /* \"#utility.yul\":29278:29284   */\n      dup2\n        /* \"#utility.yul\":29275:29305   */\n      gt\n        /* \"#utility.yul\":29272:29328   */\n      iszero\n      tag_706\n      jumpi\n        /* \"#utility.yul\":29308:29326   */\n      tag_707\n      tag_377\n      jump\t// in\n    tag_707:\n        /* \"#utility.yul\":29272:29328   */\n    tag_706:\n        /* \"#utility.yul\":29352:29390   */\n      tag_708\n        /* \"#utility.yul\":29384:29388   */\n      dup3\n        /* \"#utility.yul\":29378:29389   */\n      sload\n        /* \"#utility.yul\":29352:29390   */\n      tag_133\n      jump\t// in\n    tag_708:\n        /* \"#utility.yul\":29437:29504   */\n      tag_709\n        /* \"#utility.yul\":29497:29503   */\n      dup3\n        /* \"#utility.yul\":29489:29495   */\n      dup3\n        /* \"#utility.yul\":29483:29487   */\n      dup6\n        /* \"#utility.yul\":29437:29504   */\n      tag_417\n      jump\t// in\n    tag_709:\n        /* \"#utility.yul\":29531:29532   */\n      0x00\n        /* \"#utility.yul\":29555:29559   */\n      0x20\n        /* \"#utility.yul\":29542:29559   */\n      swap1\n      pop\n        /* \"#utility.yul\":29587:29589   */\n      0x1f\n        /* \"#utility.yul\":29579:29585   */\n      dup4\n        /* \"#utility.yul\":29576:29590   */\n      gt\n        /* \"#utility.yul\":29604:29605   */\n      0x01\n        /* \"#utility.yul\":29599:30217   */\n      dup2\n      eq\n      tag_711\n      jumpi\n        /* \"#utility.yul\":30261:30262   */\n      0x00\n        /* \"#utility.yul\":30278:30284   */\n      dup5\n        /* \"#utility.yul\":30275:30352   */\n      iszero\n      tag_712\n      jumpi\n        /* \"#utility.yul\":30327:30336   */\n      dup3\n        /* \"#utility.yul\":30322:30325   */\n      dup8\n        /* \"#utility.yul\":30318:30337   */\n      add\n        /* \"#utility.yul\":30312:30338   */\n      mload\n        /* \"#utility.yul\":30303:30338   */\n      swap1\n      pop\n        /* \"#utility.yul\":30275:30352   */\n    tag_712:\n        /* \"#utility.yul\":30378:30445   */\n      tag_713\n        /* \"#utility.yul\":30438:30444   */\n      dup6\n        /* \"#utility.yul\":30431:30436   */\n      dup3\n        /* \"#utility.yul\":30378:30445   */\n      tag_420\n      jump\t// in\n    tag_713:\n        /* \"#utility.yul\":30372:30376   */\n      dup7\n        /* \"#utility.yul\":30365:30446   */\n      sstore\n        /* \"#utility.yul\":30234:30456   */\n      pop\n        /* \"#utility.yul\":29569:30456   */\n      jump(tag_710)\n        /* \"#utility.yul\":29599:30217   */\n    tag_711:\n        /* \"#utility.yul\":29651:29655   */\n      0x1f\n        /* \"#utility.yul\":29647:29656   */\n      not\n        /* \"#utility.yul\":29639:29645   */\n      dup5\n        /* \"#utility.yul\":29635:29657   */\n      and\n        /* \"#utility.yul\":29685:29722   */\n      tag_714\n        /* \"#utility.yul\":29717:29721   */\n      dup7\n        /* \"#utility.yul\":29685:29722   */\n      tag_406\n      jump\t// in\n    tag_714:\n        /* \"#utility.yul\":29744:29745   */\n      0x00\n        /* \"#utility.yul\":29758:29966   */\n    tag_715:\n        /* \"#utility.yul\":29772:29779   */\n      dup3\n        /* \"#utility.yul\":29769:29770   */\n      dup2\n        /* \"#utility.yul\":29766:29780   */\n      lt\n        /* \"#utility.yul\":29758:29966   */\n      iszero\n      tag_717\n      jumpi\n        /* \"#utility.yul\":29851:29860   */\n      dup5\n        /* \"#utility.yul\":29846:29849   */\n      dup10\n        /* \"#utility.yul\":29842:29861   */\n      add\n        /* \"#utility.yul\":29836:29862   */\n      mload\n        /* \"#utility.yul\":29828:29834   */\n      dup3\n        /* \"#utility.yul\":29821:29863   */\n      sstore\n        /* \"#utility.yul\":29902:29903   */\n      0x01\n        /* \"#utility.yul\":29894:29900   */\n      dup3\n        /* \"#utility.yul\":29890:29904   */\n      add\n        /* \"#utility.yul\":29880:29904   */\n      swap2\n      pop\n        /* \"#utility.yul\":29949:29951   */\n      0x20\n        /* \"#utility.yul\":29938:29947   */\n      dup6\n        /* \"#utility.yul\":29934:29952   */\n      add\n        /* \"#utility.yul\":29921:29952   */\n      swap5\n      pop\n        /* \"#utility.yul\":29795:29799   */\n      0x20\n        /* \"#utility.yul\":29792:29793   */\n      dup2\n        /* \"#utility.yul\":29788:29800   */\n      add\n        /* \"#utility.yul\":29783:29800   */\n      swap1\n      pop\n        /* \"#utility.yul\":29758:29966   */\n      jump(tag_715)\n    tag_717:\n        /* \"#utility.yul\":29994:30000   */\n      dup7\n        /* \"#utility.yul\":29985:29992   */\n      dup4\n        /* \"#utility.yul\":29982:30001   */\n      lt\n        /* \"#utility.yul\":29979:30158   */\n      iszero\n      tag_718\n      jumpi\n        /* \"#utility.yul\":30052:30061   */\n      dup5\n        /* \"#utility.yul\":30047:30050   */\n      dup10\n        /* \"#utility.yul\":30043:30062   */\n      add\n        /* \"#utility.yul\":30037:30063   */\n      mload\n        /* \"#utility.yul\":30095:30143   */\n      tag_719\n        /* \"#utility.yul\":30137:30141   */\n      0x1f\n        /* \"#utility.yul\":30129:30135   */\n      dup10\n        /* \"#utility.yul\":30125:30142   */\n      and\n        /* \"#utility.yul\":30114:30123   */\n      dup3\n        /* \"#utility.yul\":30095:30143   */\n      tag_419\n      jump\t// in\n    tag_719:\n        /* \"#utility.yul\":30087:30093   */\n      dup4\n        /* \"#utility.yul\":30080:30144   */\n      sstore\n        /* \"#utility.yul\":30002:30158   */\n      pop\n        /* \"#utility.yul\":29979:30158   */\n    tag_718:\n        /* \"#utility.yul\":30204:30205   */\n      0x01\n        /* \"#utility.yul\":30200:30201   */\n      0x02\n        /* \"#utility.yul\":30192:30198   */\n      dup9\n        /* \"#utility.yul\":30188:30202   */\n      mul\n        /* \"#utility.yul\":30184:30206   */\n      add\n        /* \"#utility.yul\":30178:30182   */\n      dup9\n        /* \"#utility.yul\":30171:30207   */\n      sstore\n        /* \"#utility.yul\":29606:30217   */\n      pop\n      pop\n      pop\n        /* \"#utility.yul\":29569:30456   */\n    tag_710:\n      pop\n        /* \"#utility.yul\":29159:30462   */\n      pop\n      pop\n      pop\n        /* \"#utility.yul\":29067:30462   */\n      pop\n      pop\n      jump\t// out\n        /* \"#utility.yul\":30468:30648   */\n    tag_182:\n        /* \"#utility.yul\":30516:30593   */\n      0x4e487b7100000000000000000000000000000000000000000000000000000000\n        /* \"#utility.yul\":30513:30514   */\n      0x00\n        /* \"#utility.yul\":30506:30594   */\n      mstore\n        /* \"#utility.yul\":30613:30617   */\n      0x32\n        /* \"#utility.yul\":30610:30611   */\n      0x04\n        /* \"#utility.yul\":30603:30618   */\n      mstore\n        /* \"#utility.yul\":30637:30641   */\n      0x24\n        /* \"#utility.yul\":30634:30635   */\n      0x00\n        /* \"#utility.yul\":30627:30642   */\n      revert\n        /* \"#utility.yul\":30654:30834   */\n    tag_421:\n        /* \"#utility.yul\":30702:30779   */\n      0x4e487b7100000000000000000000000000000000000000000000000000000000\n        /* \"#utility.yul\":30699:30700   */\n      0x00\n        /* \"#utility.yul\":30692:30780   */\n      mstore\n        /* \"#utility.yul\":30799:30803   */\n      0x11\n        /* \"#utility.yul\":30796:30797   */\n      0x04\n        /* \"#utility.yul\":30789:30804   */\n      mstore\n        /* \"#utility.yul\":30823:30827   */\n      0x24\n        /* \"#utility.yul\":30820:30821   */\n      0x00\n        /* \"#utility.yul\":30813:30828   */\n      revert\n        /* \"#utility.yul\":30840:31073   */\n    tag_186:\n        /* \"#utility.yul\":30879:30882   */\n      0x00\n        /* \"#utility.yul\":30902:30926   */\n      tag_723\n        /* \"#utility.yul\":30920:30925   */\n      dup3\n        /* \"#utility.yul\":30902:30926   */\n      tag_347\n      jump\t// in\n    tag_723:\n        /* \"#utility.yul\":30893:30926   */\n      swap2\n      pop\n        /* \"#utility.yul\":30948:31014   */\n      0xffffffffffffffffffffffffffffffffffffffffffffffffffffffffffffffff\n        /* \"#utility.yul\":30941:30946   */\n      dup3\n        /* \"#utility.yul\":30938:31015   */\n      sub\n        /* \"#utility.yul\":30935:31038   */\n      tag_724\n      jumpi\n        /* \"#utility.yul\":31018:31036   */\n      tag_725\n      tag_421\n      jump\t// in\n    tag_725:\n        /* \"#utility.yul\":30935:31038   */\n    tag_724:\n        /* \"#utility.yul\":31065:31066   */\n      0x01\n        /* \"#utility.yul\":31058:31063   */\n      dup3\n        /* \"#utility.yul\":31054:31067   */\n      add\n        /* \"#utility.yul\":31047:31067   */\n      swap1\n      pop\n        /* \"#utility.yul\":30840:31073   */\n      swap2\n      swap1\n      pop\n      jump\t// out\n        /* \"#utility.yul\":31079:31273   */\n    tag_189:\n        /* \"#utility.yul\":31119:31123   */\n      0x00\n        /* \"#utility.yul\":31139:31159   */\n      tag_727\n        /* \"#utility.yul\":31157:31158   */\n      dup3\n        /* \"#utility.yul\":31139:31159   */\n      tag_347\n      jump\t// in\n    tag_727:\n        /* \"#utility.yul\":31134:31159   */\n      swap2\n      pop\n        /* \"#utility.yul\":31173:31193   */\n      tag_728\n        /* \"#utility.yul\":31191:31192   */\n      dup4\n        /* \"#utility.yul\":31173:31193   */\n      tag_347\n      jump\t// in\n    tag_728:\n        /* \"#utility.yul\":31168:31193   */\n      swap3\n      pop\n        /* \"#utility.yul\":31217:31218   */\n      dup3\n        /* \"#utility.yul\":31214:31215   */\n      dup3\n        /* \"#utility.yul\":31210:31219   */\n      sub\n        /* \"#utility.yul\":31202:31219   */\n      swap1\n      pop\n        /* \"#utility.yul\":31241:31242   */\n      dup2\n        /* \"#utility.yul\":31235:31239   */\n      dup2\n        /* \"#utility.yul\":31232:31243   */\n      gt\n        /* \"#utility.yul\":31229:31266   */\n      iszero\n      tag_729\n      jumpi\n        /* \"#utility.yul\":31246:31264   */\n      tag_730\n      tag_421\n      jump\t// in\n    tag_730:\n        /* \"#utility.yul\":31229:31266   */\n    tag_729:\n        /* \"#utility.yul\":31079:31273   */\n      swap3\n      swap2\n      pop\n      pop\n      jump\t// out\n        /* \"#utility.yul\":31279:31448   */\n    tag_422:\n        /* \"#utility.yul\":31419:31440   */\n      0x4e6f7461206e616f20656e636f6e747261646100000000000000000000000000\n        /* \"#utility.yul\":31415:31416   */\n      0x00\n        /* \"#utility.yul\":31407:31413   */\n      dup3\n        /* \"#utility.yul\":31403:31417   */\n      add\n        /* \"#utility.yul\":31396:31441   */\n      mstore\n        /* \"#utility.yul\":31279:31448   */\n      pop\n      jump\t// out\n        /* \"#utility.yul\":31454:31820   */\n    tag_423:\n        /* \"#utility.yul\":31596:31599   */\n      0x00\n        /* \"#utility.yul\":31617:31684   */\n      tag_733\n        /* \"#utility.yul\":31681:31683   */\n      0x13\n        /* \"#utility.yul\":31676:31679   */\n      dup4\n        /* \"#utility.yul\":31617:31684   */\n      tag_351\n      jump\t// in\n    tag_733:\n        /* \"#utility.yul\":31610:31684   */\n      swap2\n      pop\n        /* \"#utility.yul\":31693:31786   */\n      tag_734\n        /* \"#utility.yul\":31782:31785   */\n      dup3\n        /* \"#utility.yul\":31693:31786   */\n      tag_422\n      jump\t// in\n    tag_734:\n        /* \"#utility.yul\":31811:31813   */\n      0x20\n        /* \"#utility.yul\":31806:31809   */\n      dup3\n        /* \"#utility.yul\":31802:31814   */\n      add\n        /* \"#utility.yul\":31795:31814   */\n      swap1\n      pop\n        /* \"#utility.yul\":31454:31820   */\n      swap2\n      swap1\n      pop\n      jump\t// out\n        /* \"#utility.yul\":31826:32245   */\n    tag_193:\n        /* \"#utility.yul\":31992:31996   */\n      0x00\n        /* \"#utility.yul\":32030:32032   */\n      0x20\n        /* \"#utility.yul\":32019:32028   */\n      dup3\n        /* \"#utility.yul\":32015:32033   */\n      add\n        /* \"#utility.yul\":32007:32033   */\n      swap1\n      pop\n        /* \"#utility.yul\":32079:32088   */\n      dup2\n        /* \"#utility.yul\":32073:32077   */\n      dup2\n        /* \"#utility.yul\":32069:32089   */\n      sub\n        /* \"#utility.yul\":32065:32066   */\n      0x00\n        /* \"#utility.yul\":32054:32063   */\n      dup4\n        /* \"#utility.yul\":32050:32067   */\n      add\n        /* \"#utility.yul\":32043:32090   */\n      mstore\n        /* \"#utility.yul\":32107:32238   */\n      tag_736\n        /* \"#utility.yul\":32233:32237   */\n      dup2\n        /* \"#utility.yul\":32107:32238   */\n      tag_423\n      jump\t// in\n    tag_736:\n        /* \"#utility.yul\":32099:32238   */\n      swap1\n      pop\n        /* \"#utility.yul\":31826:32245   */\n      swap2\n      swap1\n      pop\n      jump\t// out\n        /* \"#utility.yul\":32251:32416   */\n    tag_424:\n        /* \"#utility.yul\":32391:32408   */\n      0x4e6f206573636f6c6120666f756e640000000000000000000000000000000000\n        /* \"#utility.yul\":32387:32388   */\n      0x00\n        /* \"#utility.yul\":32379:32385   */\n      dup3\n        /* \"#utility.yul\":32375:32389   */\n      add\n        /* \"#utility.yul\":32368:32409   */\n      mstore\n        /* \"#utility.yul\":32251:32416   */\n      pop\n      jump\t// out\n        /* \"#utility.yul\":32422:32788   */\n    tag_425:\n        /* \"#utility.yul\":32564:32567   */\n      0x00\n        /* \"#utility.yul\":32585:32652   */\n      tag_739\n        /* \"#utility.yul\":32649:32651   */\n      0x0f\n        /* \"#utility.yul\":32644:32647   */\n      dup4\n        /* \"#utility.yul\":32585:32652   */\n      tag_351\n      jump\t// in\n    tag_739:\n        /* \"#utility.yul\":32578:32652   */\n      swap2\n      pop\n        /* \"#utility.yul\":32661:32754   */\n      tag_740\n        /* \"#utility.yul\":32750:32753   */\n      dup3\n        /* \"#utility.yul\":32661:32754   */\n      tag_424\n      jump\t// in\n    tag_740:\n        /* \"#utility.yul\":32779:32781   */\n      0x20\n        /* \"#utility.yul\":32774:32777   */\n      dup3\n        /* \"#utility.yul\":32770:32782   */\n      add\n        /* \"#utility.yul\":32763:32782   */\n      swap1\n      pop\n        /* \"#utility.yul\":32422:32788   */\n      swap2\n      swap1\n      pop\n      jump\t// out\n        /* \"#utility.yul\":32794:33213   */\n    tag_204:\n        /* \"#utility.yul\":32960:32964   */\n      0x00\n        /* \"#utility.yul\":32998:33000   */\n      0x20\n        /* \"#utility.yul\":32987:32996   */\n      dup3\n        /* \"#utility.yul\":32983:33001   */\n      add\n        /* \"#utility.yul\":32975:33001   */\n      swap1\n      pop\n        /* \"#utility.yul\":33047:33056   */\n      dup2\n        /* \"#utility.yul\":33041:33045   */\n      dup2\n        /* \"#utility.yul\":33037:33057   */\n      sub\n        /* \"#utility.yul\":33033:33034   */\n      0x00\n        /* \"#utility.yul\":33022:33031   */\n      dup4\n        /* \"#utility.yul\":33018:33035   */\n      add\n        /* \"#utility.yul\":33011:33058   */\n      mstore\n        /* \"#utility.yul\":33075:33206   */\n      tag_742\n        /* \"#utility.yul\":33201:33205   */\n      dup2\n        /* \"#utility.yul\":33075:33206   */\n      tag_425\n      jump\t// in\n    tag_742:\n        /* \"#utility.yul\":33067:33206   */\n      swap1\n      pop\n        /* \"#utility.yul\":32794:33213   */\n      swap2\n      swap1\n      pop\n      jump\t// out\n        /* \"#utility.yul\":33219:33444   */\n    tag_426:\n        /* \"#utility.yul\":33359:33393   */\n      0x5175616e746964616465206d6178696d61206465207175657369746f73206174\n        /* \"#utility.yul\":33355:33356   */\n      0x00\n        /* \"#utility.yul\":33347:33353   */\n      dup3\n        /* \"#utility.yul\":33343:33357   */\n      add\n        /* \"#utility.yul\":33336:33394   */\n      mstore\n        /* \"#utility.yul\":33428:33436   */\n      0x696e676964610000000000000000000000000000000000000000000000000000\n        /* \"#utility.yul\":33423:33425   */\n      0x20\n        /* \"#utility.yul\":33415:33421   */\n      dup3\n        /* \"#utility.yul\":33411:33426   */\n      add\n        /* \"#utility.yul\":33404:33437   */\n      mstore\n        /* \"#utility.yul\":33219:33444   */\n      pop\n      jump\t// out\n        /* \"#utility.yul\":33450:33816   */\n    tag_427:\n        /* \"#utility.yul\":33592:33595   */\n      0x00\n        /* \"#utility.yul\":33613:33680   */\n      tag_745\n        /* \"#utility.yul\":33677:33679   */\n      0x26\n        /* \"#utility.yul\":33672:33675   */\n      dup4\n        /* \"#utility.yul\":33613:33680   */\n      tag_351\n      jump\t// in\n    tag_745:\n        /* \"#utility.yul\":33606:33680   */\n      swap2\n      pop\n        /* \"#utility.yul\":33689:33782   */\n      tag_746\n        /* \"#utility.yul\":33778:33781   */\n      dup3\n        /* \"#utility.yul\":33689:33782   */\n      tag_426\n      jump\t// in\n    tag_746:\n        /* \"#utility.yul\":33807:33809   */\n      0x40\n        /* \"#utility.yul\":33802:33805   */\n      dup3\n        /* \"#utility.yul\":33798:33810   */\n      add\n        /* \"#utility.yul\":33791:33810   */\n      swap1\n      pop\n        /* \"#utility.yul\":33450:33816   */\n      swap2\n      swap1\n      pop\n      jump\t// out\n        /* \"#utility.yul\":33822:34241   */\n    tag_222:\n        /* \"#utility.yul\":33988:33992   */\n      0x00\n        /* \"#utility.yul\":34026:34028   */\n      0x20\n        /* \"#utility.yul\":34015:34024   */\n      dup3\n        /* \"#utility.yul\":34011:34029   */\n      add\n        /* \"#utility.yul\":34003:34029   */\n      swap1\n      pop\n        /* \"#utility.yul\":34075:34084   */\n      dup2\n        /* \"#utility.yul\":34069:34073   */\n      dup2\n        /* \"#utility.yul\":34065:34085   */\n      sub\n        /* \"#utility.yul\":34061:34062   */\n      0x00\n        /* \"#utility.yul\":34050:34059   */\n      dup4\n        /* \"#utility.yul\":34046:34063   */\n      add\n        /* \"#utility.yul\":34039:34086   */\n      mstore\n        /* \"#utility.yul\":34103:34234   */\n      tag_748\n        /* \"#utility.yul\":34229:34233   */\n      dup2\n        /* \"#utility.yul\":34103:34234   */\n      tag_427\n      jump\t// in\n    tag_748:\n        /* \"#utility.yul\":34095:34234   */\n      swap1\n      pop\n        /* \"#utility.yul\":33822:34241   */\n      swap2\n      swap1\n      pop\n      jump\t// out\n        /* \"#utility.yul\":34247:34371   */\n    tag_428:\n        /* \"#utility.yul\":34324:34330   */\n      0x00\n        /* \"#utility.yul\":34358:34363   */\n      dup2\n        /* \"#utility.yul\":34352:34364   */\n      mload\n        /* \"#utility.yul\":34342:34364   */\n      swap1\n      pop\n        /* \"#utility.yul\":34247:34371   */\n      swap2\n      swap1\n      pop\n      jump\t// out\n        /* \"#utility.yul\":34377:34571   */\n    tag_429:\n        /* \"#utility.yul\":34486:34497   */\n      0x00\n        /* \"#utility.yul\":34520:34526   */\n      dup3\n        /* \"#utility.yul\":34515:34518   */\n      dup3\n        /* \"#utility.yul\":34508:34527   */\n      mstore\n        /* \"#utility.yul\":34560:34564   */\n      0x20\n        /* \"#utility.yul\":34555:34558   */\n      dup3\n        /* \"#utility.yul\":34551:34565   */\n      add\n        /* \"#utility.yul\":34536:34565   */\n      swap1\n      pop\n        /* \"#utility.yul\":34377:34571   */\n      swap3\n      swap2\n      pop\n      pop\n      jump\t// out\n        /* \"#utility.yul\":34577:34719   */\n    tag_430:\n        /* \"#utility.yul\":34654:34658   */\n      0x00\n        /* \"#utility.yul\":34677:34680   */\n      dup2\n        /* \"#utility.yul\":34669:34680   */\n      swap1\n      pop\n        /* \"#utility.yul\":34707:34711   */\n      0x20\n        /* \"#utility.yul\":34702:34705   */\n      dup3\n        /* \"#utility.yul\":34698:34712   */\n      add\n        /* \"#utility.yul\":34690:34712   */\n      swap1\n      pop\n        /* \"#utility.yul\":34577:34719   */\n      swap2\n      swap1\n      pop\n      jump\t// out\n        /* \"#utility.yul\":34725:34921   */\n    tag_431:\n        /* \"#utility.yul\":34814:34824   */\n      0x00\n        /* \"#utility.yul\":34849:34915   */\n      tag_753\n        /* \"#utility.yul\":34911:34914   */\n      dup4\n        /* \"#utility.yul\":34903:34909   */\n      dup4\n        /* \"#utility.yul\":34849:34915   */\n      tag_370\n      jump\t// in\n    tag_753:\n        /* \"#utility.yul\":34835:34915   */\n      swap1\n      pop\n        /* \"#utility.yul\":34725:34921   */\n      swap3\n      swap2\n      pop\n      pop\n      jump\t// out\n        /* \"#utility.yul\":34927:35050   */\n    tag_432:\n        /* \"#utility.yul\":35007:35011   */\n      0x00\n        /* \"#utility.yul\":35039:35043   */\n      0x20\n        /* \"#utility.yul\":35034:35037   */\n      dup3\n        /* \"#utility.yul\":35030:35044   */\n      add\n        /* \"#utility.yul\":35022:35044   */\n      swap1\n      pop\n        /* \"#utility.yul\":34927:35050   */\n      swap2\n      swap1\n      pop\n      jump\t// out\n        /* \"#utility.yul\":35084:36075   */\n    tag_433:\n        /* \"#utility.yul\":35223:35226   */\n      0x00\n        /* \"#utility.yul\":35252:35316   */\n      tag_756\n        /* \"#utility.yul\":35310:35315   */\n      dup3\n        /* \"#utility.yul\":35252:35316   */\n      tag_428\n      jump\t// in\n    tag_756:\n        /* \"#utility.yul\":35332:35428   */\n      tag_757\n        /* \"#utility.yul\":35421:35427   */\n      dup2\n        /* \"#utility.yul\":35416:35419   */\n      dup6\n        /* \"#utility.yul\":35332:35428   */\n      tag_429\n      jump\t// in\n    tag_757:\n        /* \"#utility.yul\":35325:35428   */\n      swap4\n      pop\n        /* \"#utility.yul\":35454:35457   */\n      dup4\n        /* \"#utility.yul\":35499:35503   */\n      0x20\n        /* \"#utility.yul\":35491:35497   */\n      dup3\n        /* \"#utility.yul\":35487:35504   */\n      mul\n        /* \"#utility.yul\":35482:35485   */\n      dup6\n        /* \"#utility.yul\":35478:35505   */\n      add\n        /* \"#utility.yul\":35529:35595   */\n      tag_758\n        /* \"#utility.yul\":35589:35594   */\n      dup6\n        /* \"#utility.yul\":35529:35595   */\n      tag_430\n      jump\t// in\n    tag_758:\n        /* \"#utility.yul\":35618:35625   */\n      dup1\n        /* \"#utility.yul\":35649:35650   */\n      0x00\n        /* \"#utility.yul\":35634:36030   */\n    tag_759:\n        /* \"#utility.yul\":35659:35665   */\n      dup6\n        /* \"#utility.yul\":35656:35657   */\n      dup2\n        /* \"#utility.yul\":35653:35666   */\n      lt\n        /* \"#utility.yul\":35634:36030   */\n      iszero\n      tag_761\n      jumpi\n        /* \"#utility.yul\":35730:35739   */\n      dup5\n        /* \"#utility.yul\":35724:35728   */\n      dup5\n        /* \"#utility.yul\":35720:35740   */\n      sub\n        /* \"#utility.yul\":35715:35718   */\n      dup10\n        /* \"#utility.yul\":35708:35741   */\n      mstore\n        /* \"#utility.yul\":35781:35787   */\n      dup2\n        /* \"#utility.yul\":35775:35788   */\n      mload\n        /* \"#utility.yul\":35809:35893   */\n      tag_762\n        /* \"#utility.yul\":35888:35892   */\n      dup6\n        /* \"#utility.yul\":35873:35886   */\n      dup3\n        /* \"#utility.yul\":35809:35893   */\n      tag_431\n      jump\t// in\n    tag_762:\n        /* \"#utility.yul\":35801:35893   */\n      swap5\n      pop\n        /* \"#utility.yul\":35916:35986   */\n      tag_763\n        /* \"#utility.yul\":35979:35985   */\n      dup4\n        /* \"#utility.yul\":35916:35986   */\n      tag_432\n      jump\t// in\n    tag_763:\n        /* \"#utility.yul\":35906:35986   */\n      swap3\n      pop\n        /* \"#utility.yul\":36015:36019   */\n      0x20\n        /* \"#utility.yul\":36010:36013   */\n      dup11\n        /* \"#utility.yul\":36006:36020   */\n      add\n        /* \"#utility.yul\":35999:36020   */\n      swap10\n      pop\n        /* \"#utility.yul\":35694:36030   */\n      pop\n        /* \"#utility.yul\":35681:35682   */\n      0x01\n        /* \"#utility.yul\":35678:35679   */\n      dup2\n        /* \"#utility.yul\":35674:35683   */\n      add\n        /* \"#utility.yul\":35669:35683   */\n      swap1\n      pop\n        /* \"#utility.yul\":35634:36030   */\n      jump(tag_759)\n    tag_761:\n        /* \"#utility.yul\":35638:35652   */\n      pop\n        /* \"#utility.yul\":36046:36050   */\n      dup3\n        /* \"#utility.yul\":36039:36050   */\n      swap8\n      pop\n        /* \"#utility.yul\":36066:36069   */\n      dup8\n        /* \"#utility.yul\":36059:36069   */\n      swap6\n      pop\n        /* \"#utility.yul\":35228:36075   */\n      pop\n      pop\n      pop\n      pop\n      pop\n        /* \"#utility.yul\":35084:36075   */\n      swap3\n      swap2\n      pop\n      pop\n      jump\t// out\n        /* \"#utility.yul\":36081:36494   */\n    tag_234:\n        /* \"#utility.yul\":36244:36248   */\n      0x00\n        /* \"#utility.yul\":36282:36284   */\n      0x20\n        /* \"#utility.yul\":36271:36280   */\n      dup3\n        /* \"#utility.yul\":36267:36285   */\n      add\n        /* \"#utility.yul\":36259:36285   */\n      swap1\n      pop\n        /* \"#utility.yul\":36331:36340   */\n      dup2\n        /* \"#utility.yul\":36325:36329   */\n      dup2\n        /* \"#utility.yul\":36321:36341   */\n      sub\n        /* \"#utility.yul\":36317:36318   */\n      0x00\n        /* \"#utility.yul\":36306:36315   */\n      dup4\n        /* \"#utility.yul\":36302:36319   */\n      add\n        /* \"#utility.yul\":36295:36342   */\n      mstore\n        /* \"#utility.yul\":36359:36487   */\n      tag_765\n        /* \"#utility.yul\":36482:36486   */\n      dup2\n        /* \"#utility.yul\":36473:36479   */\n      dup5\n        /* \"#utility.yul\":36359:36487   */\n      tag_433\n      jump\t// in\n    tag_765:\n        /* \"#utility.yul\":36351:36487   */\n      swap1\n      pop\n        /* \"#utility.yul\":36081:36494   */\n      swap3\n      swap2\n      pop\n      pop\n      jump\t// out\n        /* \"#utility.yul\":36500:36724   */\n    tag_434:\n        /* \"#utility.yul\":36640:36674   */\n      0x5175616e746964616465206d6178696d61206465206573636f6c617320617469\n        /* \"#utility.yul\":36636:36637   */\n      0x00\n        /* \"#utility.yul\":36628:36634   */\n      dup3\n        /* \"#utility.yul\":36624:36638   */\n      add\n        /* \"#utility.yul\":36617:36675   */\n      mstore\n        /* \"#utility.yul\":36709:36716   */\n      0x6e67696461000000000000000000000000000000000000000000000000000000\n        /* \"#utility.yul\":36704:36706   */\n      0x20\n        /* \"#utility.yul\":36696:36702   */\n      dup3\n        /* \"#utility.yul\":36692:36707   */\n      add\n        /* \"#utility.yul\":36685:36717   */\n      mstore\n        /* \"#utility.yul\":36500:36724   */\n      pop\n      jump\t// out\n        /* \"#utility.yul\":36730:37096   */\n    tag_435:\n        /* \"#utility.yul\":36872:36875   */\n      0x00\n        /* \"#utility.yul\":36893:36960   */\n      tag_768\n        /* \"#utility.yul\":36957:36959   */\n      0x25\n        /* \"#utility.yul\":36952:36955   */\n      dup4\n        /* \"#utility.yul\":36893:36960   */\n      tag_351\n      jump\t// in\n    tag_768:\n        /* \"#utility.yul\":36886:36960   */\n      swap2\n      pop\n        /* \"#utility.yul\":36969:37062   */\n      tag_769\n        /* \"#utility.yul\":37058:37061   */\n      dup3\n        /* \"#utility.yul\":36969:37062   */\n      tag_434\n      jump\t// in\n    tag_769:\n        /* \"#utility.yul\":37087:37089   */\n      0x40\n        /* \"#utility.yul\":37082:37085   */\n      dup3\n        /* \"#utility.yul\":37078:37090   */\n      add\n        /* \"#utility.yul\":37071:37090   */\n      swap1\n      pop\n        /* \"#utility.yul\":36730:37096   */\n      swap2\n      swap1\n      pop\n      jump\t// out\n        /* \"#utility.yul\":37102:37521   */\n    tag_267:\n        /* \"#utility.yul\":37268:37272   */\n      0x00\n        /* \"#utility.yul\":37306:37308   */\n      0x20\n        /* \"#utility.yul\":37295:37304   */\n      dup3\n        /* \"#utility.yul\":37291:37309   */\n      add\n        /* \"#utility.yul\":37283:37309   */\n      swap1\n      pop\n        /* \"#utility.yul\":37355:37364   */\n      dup2\n        /* \"#utility.yul\":37349:37353   */\n      dup2\n        /* \"#utility.yul\":37345:37365   */\n      sub\n        /* \"#utility.yul\":37341:37342   */\n      0x00\n        /* \"#utility.yul\":37330:37339   */\n      dup4\n        /* \"#utility.yul\":37326:37343   */\n      add\n        /* \"#utility.yul\":37319:37366   */\n      mstore\n        /* \"#utility.yul\":37383:37514   */\n      tag_771\n        /* \"#utility.yul\":37509:37513   */\n      dup2\n        /* \"#utility.yul\":37383:37514   */\n      tag_435\n      jump\t// in\n    tag_771:\n        /* \"#utility.yul\":37375:37514   */\n      swap1\n      pop\n        /* \"#utility.yul\":37102:37521   */\n      swap2\n      swap1\n      pop\n      jump\t// out\n        /* \"#utility.yul\":37527:37969   */\n    tag_288:\n        /* \"#utility.yul\":37676:37680   */\n      0x00\n        /* \"#utility.yul\":37714:37716   */\n      0x60\n        /* \"#utility.yul\":37703:37712   */\n      dup3\n        /* \"#utility.yul\":37699:37717   */\n      add\n        /* \"#utility.yul\":37691:37717   */\n      swap1\n      pop\n        /* \"#utility.yul\":37727:37798   */\n      tag_773\n        /* \"#utility.yul\":37795:37796   */\n      0x00\n        /* \"#utility.yul\":37784:37793   */\n      dup4\n        /* \"#utility.yul\":37780:37797   */\n      add\n        /* \"#utility.yul\":37771:37777   */\n      dup7\n        /* \"#utility.yul\":37727:37798   */\n      tag_362\n      jump\t// in\n    tag_773:\n        /* \"#utility.yul\":37808:37880   */\n      tag_774\n        /* \"#utility.yul\":37876:37878   */\n      0x20\n        /* \"#utility.yul\":37865:37874   */\n      dup4\n        /* \"#utility.yul\":37861:37879   */\n      add\n        /* \"#utility.yul\":37852:37858   */\n      dup6\n        /* \"#utility.yul\":37808:37880   */\n      tag_361\n      jump\t// in\n    tag_774:\n        /* \"#utility.yul\":37890:37962   */\n      tag_775\n        /* \"#utility.yul\":37958:37960   */\n      0x40\n        /* \"#utility.yul\":37947:37956   */\n      dup4\n        /* \"#utility.yul\":37943:37961   */\n      add\n        /* \"#utility.yul\":37934:37940   */\n      dup5\n        /* \"#utility.yul\":37890:37962   */\n      tag_361\n      jump\t// in\n    tag_775:\n        /* \"#utility.yul\":37527:37969   */\n      swap5\n      swap4\n      pop\n      pop\n      pop\n      pop\n      jump\t// out\n        /* \"#utility.yul\":37975:38166   */\n    tag_307:\n        /* \"#utility.yul\":38015:38018   */\n      0x00\n        /* \"#utility.yul\":38034:38054   */\n      tag_777\n        /* \"#utility.yul\":38052:38053   */\n      dup3\n        /* \"#utility.yul\":38034:38054   */\n      tag_347\n      jump\t// in\n    tag_777:\n        /* \"#utility.yul\":38029:38054   */\n      swap2\n      pop\n        /* \"#utility.yul\":38068:38088   */\n      tag_778\n        /* \"#utility.yul\":38086:38087   */\n      dup4\n        /* \"#utility.yul\":38068:38088   */\n      tag_347\n      jump\t// in\n    tag_778:\n        /* \"#utility.yul\":38063:38088   */\n      swap3\n      pop\n        /* \"#utility.yul\":38111:38112   */\n      dup3\n        /* \"#utility.yul\":38108:38109   */\n      dup3\n        /* \"#utility.yul\":38104:38113   */\n      add\n        /* \"#utility.yul\":38097:38113   */\n      swap1\n      pop\n        /* \"#utility.yul\":38132:38135   */\n      dup1\n        /* \"#utility.yul\":38129:38130   */\n      dup3\n        /* \"#utility.yul\":38126:38136   */\n      gt\n        /* \"#utility.yul\":38123:38159   */\n      iszero\n      tag_779\n      jumpi\n        /* \"#utility.yul\":38139:38157   */\n      tag_780\n      tag_421\n      jump\t// in\n    tag_780:\n        /* \"#utility.yul\":38123:38159   */\n    tag_779:\n        /* \"#utility.yul\":37975:38166   */\n      swap3\n      swap2\n      pop\n      pop\n      jump\t// out\n\n    auxdata: 0xa2646970667358221220ba9419b14576135bc836ec464fe6febca62c355066b7d7bcde19eec715b041be64736f6c634300081c0033\n}\n",
				"bytecode": {
					"linkReferences": {},
					"object": "60806040525f6077555f6078555f60795534801561001b575f5ffd5b506040518060400160405280600e81526020017f4361726e6176616c53636f7265730000000000000000000000000000000000008152506040518060400160405280600381526020017f43435300000000000000000000000000000000000000000000000000000000008152508160039081610097919061032c565b5080600490816100a7919061032c565b5050503360765f6101000a81548173ffffffffffffffffffffffffffffffffffffffff021916908373ffffffffffffffffffffffffffffffffffffffff1602179055506103fb565b5f81519050919050565b7f4e487b71000000000000000000000000000000000000000000000000000000005f52604160045260245ffd5b7f4e487b71000000000000000000000000000000000000000000000000000000005f52602260045260245ffd5b5f600282049050600182168061016a57607f821691505b60208210810361017d5761017c610126565b5b50919050565b5f819050815f5260205f209050919050565b5f6020601f8301049050919050565b5f82821b905092915050565b5f600883026101df7fffffffffffffffffffffffffffffffffffffffffffffffffffffffffffffffff826101a4565b6101e986836101a4565b95508019841693508086168417925050509392505050565b5f819050919050565b5f819050919050565b5f61022d61022861022384610201565b61020a565b610201565b9050919050565b5f819050919050565b61024683610213565b61025a61025282610234565b8484546101b0565b825550505050565b5f5f905090565b610271610262565b61027c81848461023d565b505050565b5b8181101561029f576102945f82610269565b600181019050610282565b5050565b601f8211156102e4576102b581610183565b6102be84610195565b810160208510156102cd578190505b6102e16102d985610195565b830182610281565b50505b505050565b5f82821c905092915050565b5f6103045f19846008026102e9565b1980831691505092915050565b5f61031c83836102f5565b9150826002028217905092915050565b610335826100ef565b67ffffffffffffffff81111561034e5761034d6100f9565b5b6103588254610153565b6103638282856102a3565b5f60209050601f831160018114610394575f8415610382578287015190505b61038c8582610311565b8655506103f3565b601f1984166103a286610183565b5f5b828110156103c9578489015182556001820191506020850194506020810190506103a4565b868310156103e657848901516103e2601f8916826102f5565b8355505b6001600288020188555050505b505050505050565b6130bc806104085f395ff3fe608060405234801561000f575f5ffd5b5060043610610140575f3560e01c806370a08231116100b6578063a916b9871161007a578063a916b987146103b7578063da1c13ed146103ea578063dd62ed3e14610406578063e2eae4db14610436578063e49a39dc14610468578063fceb2d391461047257610140565b806370a08231146102fd5780638da5cb5b1461032d57806395d89b411461034b578063a4caf2f614610369578063a9059cbb1461038757610140565b80631f12a015116101085780631f12a015146101ff57806323b872dd14610231578063313ce567146102615780634ce8b0961461027f5780634d4b66811461029d57806366885744146102cd57610140565b806305ae501e1461014457806306fdde0314610160578063095ea7b31461017e578063162f17a9146101ae57806318160ddd146101e1575b5f5ffd5b61015e60048036038101906101599190611eaf565b61048e565b005b610168610700565b6040516101759190611f6f565b60405180910390f35b61019860048036038101906101939190611fe9565b610790565b6040516101a59190612041565b60405180910390f35b6101c860048036038101906101c3919061205a565b6107b2565b6040516101d894939291906120a3565b60405180910390f35b6101e961080c565b6040516101f691906120e6565b60405180910390f35b610219600480360381019061021491906120ff565b610815565b6040516102289392919061212a565b60405180910390f35b61024b60048036038101906102469190612166565b6108e0565b6040516102589190612041565b60405180910390f35b61026961090e565b60405161027691906121d1565b60405180910390f35b610287610916565b6040516102949190612336565b60405180910390f35b6102b760048036038101906102b29190612482565b610a52565b6040516102c491906120e6565b60405180910390f35b6102e760048036038101906102e291906124dc565b610d2a565b6040516102f491906120e6565b60405180910390f35b610317600480360381019061031291906120ff565b610dbc565b60405161032491906120e6565b60405180910390f35b610335610e01565b604051610342919061251a565b60405180910390f35b610353610e26565b6040516103609190611f6f565b60405180910390f35b610371610eb6565b60405161037e9190612628565b60405180910390f35b6103a1600480360381019061039c9190611fe9565b610ff2565b6040516103ae9190612041565b60405180910390f35b6103d160048036038101906103cc91906124dc565b611014565b6040516103e194939291906120a3565b60405180910390f35b61040460048036038101906103ff919061272a565b61106a565b005b610420600480360381019061041b9190612771565b61126c565b60405161042d91906120e6565b60405180910390f35b610450600480360381019061044b919061205a565b6112ee565b60405161045f9392919061212a565b60405180910390f35b6104706113c0565b005b61048c6004803603810190610487919061272a565b61151a565b005b3373ffffffffffffffffffffffffffffffffffffffff1660745f3373ffffffffffffffffffffffffffffffffffffffff1673ffffffffffffffffffffffffffffffffffffffff1681526020019081526020015f205f015f9054906101000a900473ffffffffffffffffffffffffffffffffffffffff1673ffffffffffffffffffffffffffffffffffffffff161461055a576040517f08c379a0000000000000000000000000000000000000000000000000000000008152600401610551906127f9565b60405180910390fd5b610384811015801561056e57506103e88111155b6105ad576040517f08c379a00000000000000000000000000000000000000000000000000000000081526004016105a490612861565b60405180910390fd5b5f60405180608001604052808581526020018481526020013373ffffffffffffffffffffffffffffffffffffffff168152602001838152509050607381908060018154018082558091505060019003905f5260205f2090600402015f909190919091505f820151815f0155602082015181600101556040820151816002015f6101000a81548173ffffffffffffffffffffffffffffffffffffffff021916908373ffffffffffffffffffffffffffffffffffffffff1602179055506060820151816003015550508060755f8681526020019081526020015f205f8581526020019081526020015f205f820151815f0155602082015181600101556040820151816002015f6101000a81548173ffffffffffffffffffffffffffffffffffffffff021916908373ffffffffffffffffffffffffffffffffffffffff1602179055506060820151816003015590505050505050565b60606003805461070f906128ac565b80601f016020809104026020016040519081016040528092919081815260200182805461073b906128ac565b80156107865780601f1061075d57610100808354040283529160200191610786565b820191905f5260205f20905b81548152906001019060200180831161076957829003601f168201915b5050505050905090565b5f5f61079a61171c565b90506107a7818585611723565b600191505092915050565b607381815481106107c1575f80fd5b905f5260205f2090600402015f91509050805f015490806001015490806002015f9054906101000a900473ffffffffffffffffffffffffffffffffffffffff16908060030154905084565b5f600254905090565b6074602052805f5260405f205f91509050805f015f9054906101000a900473ffffffffffffffffffffffffffffffffffffffff1690806001018054610859906128ac565b80601f0160208091040260200160405190810160405280929190818152602001828054610885906128ac565b80156108d05780601f106108a7576101008083540402835291602001916108d0565b820191905f5260205f20905b8154815290600101906020018083116108b357829003601f168201915b5050505050908060020154905083565b5f5f6108ea61171c565b90506108f7858285611735565b6109028585856117c7565b60019150509392505050565b5f6012905090565b60605f6072805490501161095f576040517f08c379a000000000000000000000000000000000000000000000000000000000815260040161095690612926565b60405180910390fd5b6072805480602002602001604051908101604052809291908181526020015f905b82821015610a49578382905f5260205f2090600202016040518060400160405290815f82015481526020016001820180546109ba906128ac565b80601f01602080910402602001604051908101604052809291908181526020018280546109e6906128ac565b8015610a315780601f10610a0857610100808354040283529160200191610a31565b820191905f5260205f20905b815481529060010190602001808311610a1457829003601f168201915b50505050508152505081526020019060010190610980565b50505050905090565b5f60765f9054906101000a900473ffffffffffffffffffffffffffffffffffffffff1673ffffffffffffffffffffffffffffffffffffffff163373ffffffffffffffffffffffffffffffffffffffff1614610ae2576040517f08c379a0000000000000000000000000000000000000000000000000000000008152600401610ad99061298e565b60405180910390fd5b602460775410610b27576040517f08c379a0000000000000000000000000000000000000000000000000000000008152600401610b1e906129f6565b60405180910390fd5b60405180606001604052803373ffffffffffffffffffffffffffffffffffffffff1681526020018481526020018381525060745f3373ffffffffffffffffffffffffffffffffffffffff1673ffffffffffffffffffffffffffffffffffffffff1681526020019081526020015f205f820151815f015f6101000a81548173ffffffffffffffffffffffffffffffffffffffff021916908373ffffffffffffffffffffffffffffffffffffffff1602179055506020820151816001019081610bee9190612bb4565b506040820151816002015590505060405180606001604052803373ffffffffffffffffffffffffffffffffffffffff16815260200184815260200183815250600560775460248110610c4357610c42612c83565b5b600302015f820151815f015f6101000a81548173ffffffffffffffffffffffffffffffffffffffff021916908373ffffffffffffffffffffffffffffffffffffffff1602179055506020820151816001019081610ca09190612bb4565b506040820151816002015590505060775f815480929190610cc090612cdd565b91905055503373ffffffffffffffffffffffffffffffffffffffff167fa1fb37ecddd4c220fd008a54a22fb96ce4db7248e0f4987e445259dc6e55188b84604051610d0b9190611f6f565b60405180910390a26001607754610d229190612d24565b905092915050565b5f5f60755f8581526020019081526020015f205f8481526020019081526020015f206003015411610d90576040517f08c379a0000000000000000000000000000000000000000000000000000000008152600401610d8790612da1565b60405180910390fd5b60755f8481526020019081526020015f205f8381526020019081526020015f2060030154905092915050565b5f5f5f8373ffffffffffffffffffffffffffffffffffffffff1673ffffffffffffffffffffffffffffffffffffffff1681526020019081526020015f20549050919050565b60765f9054906101000a900473ffffffffffffffffffffffffffffffffffffffff1681565b606060048054610e35906128ac565b80601f0160208091040260200160405190810160405280929190818152602001828054610e61906128ac565b8015610eac5780601f10610e8357610100808354040283529160200191610eac565b820191905f5260205f20905b815481529060010190602001808311610e8f57829003601f168201915b5050505050905090565b60605f60718054905011610eff576040517f08c379a0000000000000000000000000000000000000000000000000000000008152600401610ef690612e09565b60405180910390fd5b6071805480602002602001604051908101604052809291908181526020015f905b82821015610fe9578382905f5260205f2090600202016040518060400160405290815f8201548152602001600182018054610f5a906128ac565b80601f0160208091040260200160405190810160405280929190818152602001828054610f86906128ac565b8015610fd15780601f10610fa857610100808354040283529160200191610fd1565b820191905f5260205f20905b815481529060010190602001808311610fb457829003601f168201915b50505050508152505081526020019060010190610f20565b50505050905090565b5f5f610ffc61171c565b90506110098185856117c7565b600191505092915050565b6075602052815f5260405f20602052805f5260405f205f9150915050805f015490806001015490806002015f9054906101000a900473ffffffffffffffffffffffffffffffffffffffff16908060030154905084565b60765f9054906101000a900473ffffffffffffffffffffffffffffffffffffffff1673ffffffffffffffffffffffffffffffffffffffff163373ffffffffffffffffffffffffffffffffffffffff16146110f9576040517f08c379a00000000000000000000000000000000000000000000000000000000081526004016110f09061298e565b60405180910390fd5b600860728054905010611141576040517f08c379a000000000000000000000000000000000000000000000000000000000815260040161113890612e97565b60405180910390fd5b5f5f90505b815181101561123157600860795410611194576040517f08c379a000000000000000000000000000000000000000000000000000000000815260040161118b90612e97565b60405180910390fd5b6072604051806040016040528060795481526020018484815181106111bc576111bb612c83565b5b6020026020010151815250908060018154018082558091505060019003905f5260205f2090600202015f909190919091505f820151815f0155602082015181600101908161120a9190612bb4565b50505060795f81548092919061121f90612cdd565b91905055508080600101915050611146565b507f25aa31c0be750cc5e6616917e1209c38b8643a142814e500d1eb8fc63270fe55816040516112619190612f70565b60405180910390a150565b5f60015f8473ffffffffffffffffffffffffffffffffffffffff1673ffffffffffffffffffffffffffffffffffffffff1681526020019081526020015f205f8373ffffffffffffffffffffffffffffffffffffffff1673ffffffffffffffffffffffffffffffffffffffff1681526020019081526020015f2054905092915050565b600581602481106112fd575f80fd5b600302015f91509050805f015f9054906101000a900473ffffffffffffffffffffffffffffffffffffffff1690806001018054611339906128ac565b80601f0160208091040260200160405190810160405280929190818152602001828054611365906128ac565b80156113b05780601f10611387576101008083540402835291602001916113b0565b820191905f5260205f20905b81548152906001019060200180831161139357829003601f168201915b5050505050908060020154905083565b60765f9054906101000a900473ffffffffffffffffffffffffffffffffffffffff1673ffffffffffffffffffffffffffffffffffffffff163373ffffffffffffffffffffffffffffffffffffffff161461144f576040517f08c379a00000000000000000000000000000000000000000000000000000000081526004016114469061298e565b60405180910390fd5b60055f61145c9190611c9f565b60715f6114699190611cb5565b60725f6114769190611cd6565b60735f6114839190611cf7565b5f5f90505b600c811015611517575f5f90505b60088110156115095760755f8381526020019081526020015f205f8281526020019081526020015f205f5f82015f9055600182015f9055600282015f6101000a81549073ffffffffffffffffffffffffffffffffffffffff0219169055600382015f905550508080600101915050611496565b508080600101915050611488565b50565b60765f9054906101000a900473ffffffffffffffffffffffffffffffffffffffff1673ffffffffffffffffffffffffffffffffffffffff163373ffffffffffffffffffffffffffffffffffffffff16146115a9576040517f08c379a00000000000000000000000000000000000000000000000000000000081526004016115a09061298e565b60405180910390fd5b600c607180549050106115f1576040517f08c379a00000000000000000000000000000000000000000000000000000000081526004016115e890613000565b60405180910390fd5b5f5f90505b81518110156116e157600c60785410611644576040517f08c379a000000000000000000000000000000000000000000000000000000000815260040161163b90613000565b60405180910390fd5b60716040518060400160405280607854815260200184848151811061166c5761166b612c83565b5b6020026020010151815250908060018154018082558091505060019003905f5260205f2090600202015f909190919091505f820151815f015560208201518160010190816116ba9190612bb4565b50505060785f8154809291906116cf90612cdd565b919050555080806001019150506115f6565b507f1dcfb77c5edf55120b12aa71e216239cbc61cc7bcc656271af2d2ece9d005bdb816040516117119190612f70565b60405180910390a150565b5f33905090565b61173083838360016118b7565b505050565b5f611740848461126c565b90507fffffffffffffffffffffffffffffffffffffffffffffffffffffffffffffffff81146117c157818110156117b2578281836040517ffb8f41b20000000000000000000000000000000000000000000000000000000081526004016117a99392919061301e565b60405180910390fd5b6117c084848484035f6118b7565b5b50505050565b5f73ffffffffffffffffffffffffffffffffffffffff168373ffffffffffffffffffffffffffffffffffffffff1603611837575f6040517f96c6fd1e00000000000000000000000000000000000000000000000000000000815260040161182e919061251a565b60405180910390fd5b5f73ffffffffffffffffffffffffffffffffffffffff168273ffffffffffffffffffffffffffffffffffffffff16036118a7575f6040517fec442f0500000000000000000000000000000000000000000000000000000000815260040161189e919061251a565b60405180910390fd5b6118b2838383611a86565b505050565b5f73ffffffffffffffffffffffffffffffffffffffff168473ffffffffffffffffffffffffffffffffffffffff1603611927575f6040517fe602df0500000000000000000000000000000000000000000000000000000000815260040161191e919061251a565b60405180910390fd5b5f73ffffffffffffffffffffffffffffffffffffffff168373ffffffffffffffffffffffffffffffffffffffff1603611997575f6040517f94280d6200000000000000000000000000000000000000000000000000000000815260040161198e919061251a565b60405180910390fd5b8160015f8673ffffffffffffffffffffffffffffffffffffffff1673ffffffffffffffffffffffffffffffffffffffff1681526020019081526020015f205f8573ffffffffffffffffffffffffffffffffffffffff1673ffffffffffffffffffffffffffffffffffffffff1681526020019081526020015f20819055508015611a80578273ffffffffffffffffffffffffffffffffffffffff168473ffffffffffffffffffffffffffffffffffffffff167f8c5be1e5ebec7d5bd14f71427d1e84f3dd0314c0f7b2291e5b200ac8c7c3b92584604051611a7791906120e6565b60405180910390a35b50505050565b5f73ffffffffffffffffffffffffffffffffffffffff168373ffffffffffffffffffffffffffffffffffffffff1603611ad6578060025f828254611aca9190613053565b92505081905550611ba4565b5f5f5f8573ffffffffffffffffffffffffffffffffffffffff1673ffffffffffffffffffffffffffffffffffffffff1681526020019081526020015f2054905081811015611b5f578381836040517fe450d38c000000000000000000000000000000000000000000000000000000008152600401611b569392919061301e565b60405180910390fd5b8181035f5f8673ffffffffffffffffffffffffffffffffffffffff1673ffffffffffffffffffffffffffffffffffffffff1681526020019081526020015f2081905550505b5f73ffffffffffffffffffffffffffffffffffffffff168273ffffffffffffffffffffffffffffffffffffffff1603611beb578060025f8282540392505081905550611c35565b805f5f8473ffffffffffffffffffffffffffffffffffffffff1673ffffffffffffffffffffffffffffffffffffffff1681526020019081526020015f205f82825401925050819055505b8173ffffffffffffffffffffffffffffffffffffffff168373ffffffffffffffffffffffffffffffffffffffff167fddf252ad1be2c89b69c2b068fc378daa952ba7f163c4a11628f55a4df523b3ef83604051611c9291906120e6565b60405180910390a3505050565b508060246003020190611cb29190611d18565b50565b5080545f8255600202905f5260205f2090810190611cd39190611d6a565b50565b5080545f8255600202905f5260205f2090810190611cf49190611d96565b50565b5080545f8255600402905f5260205f2090810190611d159190611dc2565b50565b5b80821115611d66575f5f82015f6101000a81549073ffffffffffffffffffffffffffffffffffffffff0219169055600182015f611d569190611e13565b600282015f905550600301611d19565b5090565b5b80821115611d92575f5f82015f9055600182015f611d899190611e13565b50600201611d6b565b5090565b5b80821115611dbe575f5f82015f9055600182015f611db59190611e13565b50600201611d97565b5090565b5b80821115611e0f575f5f82015f9055600182015f9055600282015f6101000a81549073ffffffffffffffffffffffffffffffffffffffff0219169055600382015f905550600401611dc3565b5090565b508054611e1f906128ac565b5f825580601f10611e305750611e4d565b601f0160209004905f5260205f2090810190611e4c9190611e50565b5b50565b5b80821115611e67575f815f905550600101611e51565b5090565b5f604051905090565b5f5ffd5b5f5ffd5b5f819050919050565b611e8e81611e7c565b8114611e98575f5ffd5b50565b5f81359050611ea981611e85565b92915050565b5f5f5f60608486031215611ec657611ec5611e74565b5b5f611ed386828701611e9b565b9350506020611ee486828701611e9b565b9250506040611ef586828701611e9b565b9150509250925092565b5f81519050919050565b5f82825260208201905092915050565b8281835e5f83830152505050565b5f601f19601f8301169050919050565b5f611f4182611eff565b611f4b8185611f09565b9350611f5b818560208601611f19565b611f6481611f27565b840191505092915050565b5f6020820190508181035f830152611f878184611f37565b905092915050565b5f73ffffffffffffffffffffffffffffffffffffffff82169050919050565b5f611fb882611f8f565b9050919050565b611fc881611fae565b8114611fd2575f5ffd5b50565b5f81359050611fe381611fbf565b92915050565b5f5f60408385031215611fff57611ffe611e74565b5b5f61200c85828601611fd5565b925050602061201d85828601611e9b565b9150509250929050565b5f8115159050919050565b61203b81612027565b82525050565b5f6020820190506120545f830184612032565b92915050565b5f6020828403121561206f5761206e611e74565b5b5f61207c84828501611e9b565b91505092915050565b61208e81611e7c565b82525050565b61209d81611fae565b82525050565b5f6080820190506120b65f830187612085565b6120c36020830186612085565b6120d06040830185612094565b6120dd6060830184612085565b95945050505050565b5f6020820190506120f95f830184612085565b92915050565b5f6020828403121561211457612113611e74565b5b5f61212184828501611fd5565b91505092915050565b5f60608201905061213d5f830186612094565b818103602083015261214f8185611f37565b905061215e6040830184612085565b949350505050565b5f5f5f6060848603121561217d5761217c611e74565b5b5f61218a86828701611fd5565b935050602061219b86828701611fd5565b92505060406121ac86828701611e9b565b9150509250925092565b5f60ff82169050919050565b6121cb816121b6565b82525050565b5f6020820190506121e45f8301846121c2565b92915050565b5f81519050919050565b5f82825260208201905092915050565b5f819050602082019050919050565b61221c81611e7c565b82525050565b5f82825260208201905092915050565b5f61223c82611eff565b6122468185612222565b9350612256818560208601611f19565b61225f81611f27565b840191505092915050565b5f604083015f83015161227f5f860182612213565b50602083015184820360208601526122978282612232565b9150508091505092915050565b5f6122af838361226a565b905092915050565b5f602082019050919050565b5f6122cd826121ea565b6122d781856121f4565b9350836020820285016122e985612204565b805f5b85811015612324578484038952815161230585826122a4565b9450612310836122b7565b925060208a019950506001810190506122ec565b50829750879550505050505092915050565b5f6020820190508181035f83015261234e81846122c3565b905092915050565b5f5ffd5b5f5ffd5b7f4e487b71000000000000000000000000000000000000000000000000000000005f52604160045260245ffd5b61239482611f27565b810181811067ffffffffffffffff821117156123b3576123b261235e565b5b80604052505050565b5f6123c5611e6b565b90506123d1828261238b565b919050565b5f67ffffffffffffffff8211156123f0576123ef61235e565b5b6123f982611f27565b9050602081019050919050565b828183375f83830152505050565b5f612426612421846123d6565b6123bc565b9050828152602081018484840111156124425761244161235a565b5b61244d848285612406565b509392505050565b5f82601f83011261246957612468612356565b5b8135612479848260208601612414565b91505092915050565b5f5f6040838503121561249857612497611e74565b5b5f83013567ffffffffffffffff8111156124b5576124b4611e78565b5b6124c185828601612455565b92505060206124d285828601611e9b565b9150509250929050565b5f5f604083850312156124f2576124f1611e74565b5b5f6124ff85828601611e9b565b925050602061251085828601611e9b565b9150509250929050565b5f60208201905061252d5f830184612094565b92915050565b5f81519050919050565b5f82825260208201905092915050565b5f819050602082019050919050565b5f604083015f8301516125715f860182612213565b50602083015184820360208601526125898282612232565b9150508091505092915050565b5f6125a1838361255c565b905092915050565b5f602082019050919050565b5f6125bf82612533565b6125c9818561253d565b9350836020820285016125db8561254d565b805f5b8581101561261657848403895281516125f78582612596565b9450612602836125a9565b925060208a019950506001810190506125de565b50829750879550505050505092915050565b5f6020820190508181035f83015261264081846125b5565b905092915050565b5f67ffffffffffffffff8211156126625761266161235e565b5b602082029050602081019050919050565b5f5ffd5b5f61268961268484612648565b6123bc565b905080838252602082019050602084028301858111156126ac576126ab612673565b5b835b818110156126f357803567ffffffffffffffff8111156126d1576126d0612356565b5b8086016126de8982612455565b855260208501945050506020810190506126ae565b5050509392505050565b5f82601f83011261271157612710612356565b5b8135612721848260208601612677565b91505092915050565b5f6020828403121561273f5761273e611e74565b5b5f82013567ffffffffffffffff81111561275c5761275b611e78565b5b612768848285016126fd565b91505092915050565b5f5f6040838503121561278757612786611e74565b5b5f61279485828601611fd5565b92505060206127a585828601611fd5565b9150509250929050565b7f536f6d656e7465206a757261646f7320706f64656d20726567697374726172005f82015250565b5f6127e3601f83611f09565b91506127ee826127af565b602082019050919050565b5f6020820190508181035f830152612810816127d7565b9050919050565b7f4e6f746120696d706f73736976656c00000000000000000000000000000000005f82015250565b5f61284b600f83611f09565b915061285682612817565b602082019050919050565b5f6020820190508181035f8301526128788161283f565b9050919050565b7f4e487b71000000000000000000000000000000000000000000000000000000005f52602260045260245ffd5b5f60028204905060018216806128c357607f821691505b6020821081036128d6576128d561287f565b5b50919050565b7f4e6f207175657369746f7320666f756e640000000000000000000000000000005f82015250565b5f612910601183611f09565b915061291b826128dc565b602082019050919050565b5f6020820190508181035f83015261293d81612904565b9050919050565b7f41636573736f20726573747269746f20616f2070726f70726965746172696f005f82015250565b5f612978601f83611f09565b915061298382612944565b602082019050919050565b5f6020820190508181035f8301526129a58161296c565b9050919050565b7f5175616e746964616465206d6178696d61206465206a757261646f73000000005f82015250565b5f6129e0601c83611f09565b91506129eb826129ac565b602082019050919050565b5f6020820190508181035f830152612a0d816129d4565b9050919050565b5f819050815f5260205f209050919050565b5f6020601f8301049050919050565b5f82821b905092915050565b5f60088302612a707fffffffffffffffffffffffffffffffffffffffffffffffffffffffffffffffff82612a35565b612a7a8683612a35565b95508019841693508086168417925050509392505050565b5f819050919050565b5f612ab5612ab0612aab84611e7c565b612a92565b611e7c565b9050919050565b5f819050919050565b612ace83612a9b565b612ae2612ada82612abc565b848454612a41565b825550505050565b5f5f905090565b612af9612aea565b612b04818484612ac5565b505050565b5b81811015612b2757612b1c5f82612af1565b600181019050612b0a565b5050565b601f821115612b6c57612b3d81612a14565b612b4684612a26565b81016020851015612b55578190505b612b69612b6185612a26565b830182612b09565b50505b505050565b5f82821c905092915050565b5f612b8c5f1984600802612b71565b1980831691505092915050565b5f612ba48383612b7d565b9150826002028217905092915050565b612bbd82611eff565b67ffffffffffffffff811115612bd657612bd561235e565b5b612be082546128ac565b612beb828285612b2b565b5f60209050601f831160018114612c1c575f8415612c0a578287015190505b612c148582612b99565b865550612c7b565b601f198416612c2a86612a14565b5f5b82811015612c5157848901518255600182019150602085019450602081019050612c2c565b86831015612c6e5784890151612c6a601f891682612b7d565b8355505b6001600288020188555050505b505050505050565b7f4e487b71000000000000000000000000000000000000000000000000000000005f52603260045260245ffd5b7f4e487b71000000000000000000000000000000000000000000000000000000005f52601160045260245ffd5b5f612ce782611e7c565b91507fffffffffffffffffffffffffffffffffffffffffffffffffffffffffffffffff8203612d1957612d18612cb0565b5b600182019050919050565b5f612d2e82611e7c565b9150612d3983611e7c565b9250828203905081811115612d5157612d50612cb0565b5b92915050565b7f4e6f7461206e616f20656e636f6e7472616461000000000000000000000000005f82015250565b5f612d8b601383611f09565b9150612d9682612d57565b602082019050919050565b5f6020820190508181035f830152612db881612d7f565b9050919050565b7f4e6f206573636f6c6120666f756e6400000000000000000000000000000000005f82015250565b5f612df3600f83611f09565b9150612dfe82612dbf565b602082019050919050565b5f6020820190508181035f830152612e2081612de7565b9050919050565b7f5175616e746964616465206d6178696d61206465207175657369746f732061745f8201527f696e676964610000000000000000000000000000000000000000000000000000602082015250565b5f612e81602683611f09565b9150612e8c82612e27565b604082019050919050565b5f6020820190508181035f830152612eae81612e75565b9050919050565b5f81519050919050565b5f82825260208201905092915050565b5f819050602082019050919050565b5f612ee98383612232565b905092915050565b5f602082019050919050565b5f612f0782612eb5565b612f118185612ebf565b935083602082028501612f2385612ecf565b805f5b85811015612f5e5784840389528151612f3f8582612ede565b9450612f4a83612ef1565b925060208a01995050600181019050612f26565b50829750879550505050505092915050565b5f6020820190508181035f830152612f888184612efd565b905092915050565b7f5175616e746964616465206d6178696d61206465206573636f6c6173206174695f8201527f6e67696461000000000000000000000000000000000000000000000000000000602082015250565b5f612fea602583611f09565b9150612ff582612f90565b604082019050919050565b5f6020820190508181035f83015261301781612fde565b9050919050565b5f6060820190506130315f830186612094565b61303e6020830185612085565b61304b6040830184612085565b949350505050565b5f61305d82611e7c565b915061306883611e7c565b92508282019050808211156130805761307f612cb0565b5b9291505056fea2646970667358221220ba9419b14576135bc836ec464fe6febca62c355066b7d7bcde19eec715b041be64736f6c634300081c0033",
					"opcodes": "PUSH1 0x80 PUSH1 0x40 MSTORE PUSH0 PUSH1 0x77 SSTORE PUSH0 PUSH1 0x78 SSTORE PUSH0 PUSH1 0x79 SSTORE CALLVALUE DUP1 ISZERO PUSH2 0x1B JUMPI PUSH0 PUSH0 REVERT JUMPDEST POP PUSH1 0x40 MLOAD DUP1 PUSH1 0x40 ADD PUSH1 0x40 MSTORE DUP1 PUSH1 0xE DUP2 MSTORE PUSH1 0x20 ADD PUSH32 0x4361726E6176616C53636F726573000000000000000000000000000000000000 DUP2 MSTORE POP PUSH1 0x40 MLOAD DUP1 PUSH1 0x40 ADD PUSH1 0x40 MSTORE DUP1 PUSH1 0x3 DUP2 MSTORE PUSH1 0x20 ADD PUSH32 0x4343530000000000000000000000000000000000000000000000000000000000 DUP2 MSTORE POP DUP2 PUSH1 0x3 SWAP1 DUP2 PUSH2 0x97 SWAP2 SWAP1 PUSH2 0x32C JUMP JUMPDEST POP DUP1 PUSH1 0x4 SWAP1 DUP2 PUSH2 0xA7 SWAP2 SWAP1 PUSH2 0x32C JUMP JUMPDEST POP POP POP CALLER PUSH1 0x76 PUSH0 PUSH2 0x100 EXP DUP2 SLOAD DUP2 PUSH20 0xFFFFFFFFFFFFFFFFFFFFFFFFFFFFFFFFFFFFFFFF MUL NOT AND SWAP1 DUP4 PUSH20 0xFFFFFFFFFFFFFFFFFFFFFFFFFFFFFFFFFFFFFFFF AND MUL OR SWAP1 SSTORE POP PUSH2 0x3FB JUMP JUMPDEST PUSH0 DUP2 MLOAD SWAP1 POP SWAP2 SWAP1 POP JUMP JUMPDEST PUSH32 0x4E487B7100000000000000000000000000000000000000000000000000000000 PUSH0 MSTORE PUSH1 0x41 PUSH1 0x4 MSTORE PUSH1 0x24 PUSH0 REVERT JUMPDEST PUSH32 0x4E487B7100000000000000000000000000000000000000000000000000000000 PUSH0 MSTORE PUSH1 0x22 PUSH1 0x4 MSTORE PUSH1 0x24 PUSH0 REVERT JUMPDEST PUSH0 PUSH1 0x2 DUP3 DIV SWAP1 POP PUSH1 0x1 DUP3 AND DUP1 PUSH2 0x16A JUMPI PUSH1 0x7F DUP3 AND SWAP2 POP JUMPDEST PUSH1 0x20 DUP3 LT DUP2 SUB PUSH2 0x17D JUMPI PUSH2 0x17C PUSH2 0x126 JUMP JUMPDEST JUMPDEST POP SWAP2 SWAP1 POP JUMP JUMPDEST PUSH0 DUP2 SWAP1 POP DUP2 PUSH0 MSTORE PUSH1 0x20 PUSH0 KECCAK256 SWAP1 POP SWAP2 SWAP1 POP JUMP JUMPDEST PUSH0 PUSH1 0x20 PUSH1 0x1F DUP4 ADD DIV SWAP1 POP SWAP2 SWAP1 POP JUMP JUMPDEST PUSH0 DUP3 DUP3 SHL SWAP1 POP SWAP3 SWAP2 POP POP JUMP JUMPDEST PUSH0 PUSH1 0x8 DUP4 MUL PUSH2 0x1DF PUSH32 0xFFFFFFFFFFFFFFFFFFFFFFFFFFFFFFFFFFFFFFFFFFFFFFFFFFFFFFFFFFFFFFFF DUP3 PUSH2 0x1A4 JUMP JUMPDEST PUSH2 0x1E9 DUP7 DUP4 PUSH2 0x1A4 JUMP JUMPDEST SWAP6 POP DUP1 NOT DUP5 AND SWAP4 POP DUP1 DUP7 AND DUP5 OR SWAP3 POP POP POP SWAP4 SWAP3 POP POP POP JUMP JUMPDEST PUSH0 DUP2 SWAP1 POP SWAP2 SWAP1 POP JUMP JUMPDEST PUSH0 DUP2 SWAP1 POP SWAP2 SWAP1 POP JUMP JUMPDEST PUSH0 PUSH2 0x22D PUSH2 0x228 PUSH2 0x223 DUP5 PUSH2 0x201 JUMP JUMPDEST PUSH2 0x20A JUMP JUMPDEST PUSH2 0x201 JUMP JUMPDEST SWAP1 POP SWAP2 SWAP1 POP JUMP JUMPDEST PUSH0 DUP2 SWAP1 POP SWAP2 SWAP1 POP JUMP JUMPDEST PUSH2 0x246 DUP4 PUSH2 0x213 JUMP JUMPDEST PUSH2 0x25A PUSH2 0x252 DUP3 PUSH2 0x234 JUMP JUMPDEST DUP5 DUP5 SLOAD PUSH2 0x1B0 JUMP JUMPDEST DUP3 SSTORE POP POP POP POP JUMP JUMPDEST PUSH0 PUSH0 SWAP1 POP SWAP1 JUMP JUMPDEST PUSH2 0x271 PUSH2 0x262 JUMP JUMPDEST PUSH2 0x27C DUP2 DUP5 DUP5 PUSH2 0x23D JUMP JUMPDEST POP POP POP JUMP JUMPDEST JUMPDEST DUP2 DUP2 LT ISZERO PUSH2 0x29F JUMPI PUSH2 0x294 PUSH0 DUP3 PUSH2 0x269 JUMP JUMPDEST PUSH1 0x1 DUP2 ADD SWAP1 POP PUSH2 0x282 JUMP JUMPDEST POP POP JUMP JUMPDEST PUSH1 0x1F DUP3 GT ISZERO PUSH2 0x2E4 JUMPI PUSH2 0x2B5 DUP2 PUSH2 0x183 JUMP JUMPDEST PUSH2 0x2BE DUP5 PUSH2 0x195 JUMP JUMPDEST DUP2 ADD PUSH1 0x20 DUP6 LT ISZERO PUSH2 0x2CD JUMPI DUP2 SWAP1 POP JUMPDEST PUSH2 0x2E1 PUSH2 0x2D9 DUP6 PUSH2 0x195 JUMP JUMPDEST DUP4 ADD DUP3 PUSH2 0x281 JUMP JUMPDEST POP POP JUMPDEST POP POP POP JUMP JUMPDEST PUSH0 DUP3 DUP3 SHR SWAP1 POP SWAP3 SWAP2 POP POP JUMP JUMPDEST PUSH0 PUSH2 0x304 PUSH0 NOT DUP5 PUSH1 0x8 MUL PUSH2 0x2E9 JUMP JUMPDEST NOT DUP1 DUP4 AND SWAP2 POP POP SWAP3 SWAP2 POP POP JUMP JUMPDEST PUSH0 PUSH2 0x31C DUP4 DUP4 PUSH2 0x2F5 JUMP JUMPDEST SWAP2 POP DUP3 PUSH1 0x2 MUL DUP3 OR SWAP1 POP SWAP3 SWAP2 POP POP JUMP JUMPDEST PUSH2 0x335 DUP3 PUSH2 0xEF JUMP JUMPDEST PUSH8 0xFFFFFFFFFFFFFFFF DUP2 GT ISZERO PUSH2 0x34E JUMPI PUSH2 0x34D PUSH2 0xF9 JUMP JUMPDEST JUMPDEST PUSH2 0x358 DUP3 SLOAD PUSH2 0x153 JUMP JUMPDEST PUSH2 0x363 DUP3 DUP3 DUP6 PUSH2 0x2A3 JUMP JUMPDEST PUSH0 PUSH1 0x20 SWAP1 POP PUSH1 0x1F DUP4 GT PUSH1 0x1 DUP2 EQ PUSH2 0x394 JUMPI PUSH0 DUP5 ISZERO PUSH2 0x382 JUMPI DUP3 DUP8 ADD MLOAD SWAP1 POP JUMPDEST PUSH2 0x38C DUP6 DUP3 PUSH2 0x311 JUMP JUMPDEST DUP7 SSTORE POP PUSH2 0x3F3 JUMP JUMPDEST PUSH1 0x1F NOT DUP5 AND PUSH2 0x3A2 DUP7 PUSH2 0x183 JUMP JUMPDEST PUSH0 JUMPDEST DUP3 DUP2 LT ISZERO PUSH2 0x3C9 JUMPI DUP5 DUP10 ADD MLOAD DUP3 SSTORE PUSH1 0x1 DUP3 ADD SWAP2 POP PUSH1 0x20 DUP6 ADD SWAP5 POP PUSH1 0x20 DUP2 ADD SWAP1 POP PUSH2 0x3A4 JUMP JUMPDEST DUP7 DUP4 LT ISZERO PUSH2 0x3E6 JUMPI DUP5 DUP10 ADD MLOAD PUSH2 0x3E2 PUSH1 0x1F DUP10 AND DUP3 PUSH2 0x2F5 JUMP JUMPDEST DUP4 SSTORE POP JUMPDEST PUSH1 0x1 PUSH1 0x2 DUP9 MUL ADD DUP9 SSTORE POP POP POP JUMPDEST POP POP POP POP POP POP JUMP JUMPDEST PUSH2 0x30BC DUP1 PUSH2 0x408 PUSH0 CODECOPY PUSH0 RETURN INVALID PUSH1 0x80 PUSH1 0x40 MSTORE CALLVALUE DUP1 ISZERO PUSH2 0xF JUMPI PUSH0 PUSH0 REVERT JUMPDEST POP PUSH1 0x4 CALLDATASIZE LT PUSH2 0x140 JUMPI PUSH0 CALLDATALOAD PUSH1 0xE0 SHR DUP1 PUSH4 0x70A08231 GT PUSH2 0xB6 JUMPI DUP1 PUSH4 0xA916B987 GT PUSH2 0x7A JUMPI DUP1 PUSH4 0xA916B987 EQ PUSH2 0x3B7 JUMPI DUP1 PUSH4 0xDA1C13ED EQ PUSH2 0x3EA JUMPI DUP1 PUSH4 0xDD62ED3E EQ PUSH2 0x406 JUMPI DUP1 PUSH4 0xE2EAE4DB EQ PUSH2 0x436 JUMPI DUP1 PUSH4 0xE49A39DC EQ PUSH2 0x468 JUMPI DUP1 PUSH4 0xFCEB2D39 EQ PUSH2 0x472 JUMPI PUSH2 0x140 JUMP JUMPDEST DUP1 PUSH4 0x70A08231 EQ PUSH2 0x2FD JUMPI DUP1 PUSH4 0x8DA5CB5B EQ PUSH2 0x32D JUMPI DUP1 PUSH4 0x95D89B41 EQ PUSH2 0x34B JUMPI DUP1 PUSH4 0xA4CAF2F6 EQ PUSH2 0x369 JUMPI DUP1 PUSH4 0xA9059CBB EQ PUSH2 0x387 JUMPI PUSH2 0x140 JUMP JUMPDEST DUP1 PUSH4 0x1F12A015 GT PUSH2 0x108 JUMPI DUP1 PUSH4 0x1F12A015 EQ PUSH2 0x1FF JUMPI DUP1 PUSH4 0x23B872DD EQ PUSH2 0x231 JUMPI DUP1 PUSH4 0x313CE567 EQ PUSH2 0x261 JUMPI DUP1 PUSH4 0x4CE8B096 EQ PUSH2 0x27F JUMPI DUP1 PUSH4 0x4D4B6681 EQ PUSH2 0x29D JUMPI DUP1 PUSH4 0x66885744 EQ PUSH2 0x2CD JUMPI PUSH2 0x140 JUMP JUMPDEST DUP1 PUSH4 0x5AE501E EQ PUSH2 0x144 JUMPI DUP1 PUSH4 0x6FDDE03 EQ PUSH2 0x160 JUMPI DUP1 PUSH4 0x95EA7B3 EQ PUSH2 0x17E JUMPI DUP1 PUSH4 0x162F17A9 EQ PUSH2 0x1AE JUMPI DUP1 PUSH4 0x18160DDD EQ PUSH2 0x1E1 JUMPI JUMPDEST PUSH0 PUSH0 REVERT JUMPDEST PUSH2 0x15E PUSH1 0x4 DUP1 CALLDATASIZE SUB DUP2 ADD SWAP1 PUSH2 0x159 SWAP2 SWAP1 PUSH2 0x1EAF JUMP JUMPDEST PUSH2 0x48E JUMP JUMPDEST STOP JUMPDEST PUSH2 0x168 PUSH2 0x700 JUMP JUMPDEST PUSH1 0x40 MLOAD PUSH2 0x175 SWAP2 SWAP1 PUSH2 0x1F6F JUMP JUMPDEST PUSH1 0x40 MLOAD DUP1 SWAP2 SUB SWAP1 RETURN JUMPDEST PUSH2 0x198 PUSH1 0x4 DUP1 CALLDATASIZE SUB DUP2 ADD SWAP1 PUSH2 0x193 SWAP2 SWAP1 PUSH2 0x1FE9 JUMP JUMPDEST PUSH2 0x790 JUMP JUMPDEST PUSH1 0x40 MLOAD PUSH2 0x1A5 SWAP2 SWAP1 PUSH2 0x2041 JUMP JUMPDEST PUSH1 0x40 MLOAD DUP1 SWAP2 SUB SWAP1 RETURN JUMPDEST PUSH2 0x1C8 PUSH1 0x4 DUP1 CALLDATASIZE SUB DUP2 ADD SWAP1 PUSH2 0x1C3 SWAP2 SWAP1 PUSH2 0x205A JUMP JUMPDEST PUSH2 0x7B2 JUMP JUMPDEST PUSH1 0x40 MLOAD PUSH2 0x1D8 SWAP5 SWAP4 SWAP3 SWAP2 SWAP1 PUSH2 0x20A3 JUMP JUMPDEST PUSH1 0x40 MLOAD DUP1 SWAP2 SUB SWAP1 RETURN JUMPDEST PUSH2 0x1E9 PUSH2 0x80C JUMP JUMPDEST PUSH1 0x40 MLOAD PUSH2 0x1F6 SWAP2 SWAP1 PUSH2 0x20E6 JUMP JUMPDEST PUSH1 0x40 MLOAD DUP1 SWAP2 SUB SWAP1 RETURN JUMPDEST PUSH2 0x219 PUSH1 0x4 DUP1 CALLDATASIZE SUB DUP2 ADD SWAP1 PUSH2 0x214 SWAP2 SWAP1 PUSH2 0x20FF JUMP JUMPDEST PUSH2 0x815 JUMP JUMPDEST PUSH1 0x40 MLOAD PUSH2 0x228 SWAP4 SWAP3 SWAP2 SWAP1 PUSH2 0x212A JUMP JUMPDEST PUSH1 0x40 MLOAD DUP1 SWAP2 SUB SWAP1 RETURN JUMPDEST PUSH2 0x24B PUSH1 0x4 DUP1 CALLDATASIZE SUB DUP2 ADD SWAP1 PUSH2 0x246 SWAP2 SWAP1 PUSH2 0x2166 JUMP JUMPDEST PUSH2 0x8E0 JUMP JUMPDEST PUSH1 0x40 MLOAD PUSH2 0x258 SWAP2 SWAP1 PUSH2 0x2041 JUMP JUMPDEST PUSH1 0x40 MLOAD DUP1 SWAP2 SUB SWAP1 RETURN JUMPDEST PUSH2 0x269 PUSH2 0x90E JUMP JUMPDEST PUSH1 0x40 MLOAD PUSH2 0x276 SWAP2 SWAP1 PUSH2 0x21D1 JUMP JUMPDEST PUSH1 0x40 MLOAD DUP1 SWAP2 SUB SWAP1 RETURN JUMPDEST PUSH2 0x287 PUSH2 0x916 JUMP JUMPDEST PUSH1 0x40 MLOAD PUSH2 0x294 SWAP2 SWAP1 PUSH2 0x2336 JUMP JUMPDEST PUSH1 0x40 MLOAD DUP1 SWAP2 SUB SWAP1 RETURN JUMPDEST PUSH2 0x2B7 PUSH1 0x4 DUP1 CALLDATASIZE SUB DUP2 ADD SWAP1 PUSH2 0x2B2 SWAP2 SWAP1 PUSH2 0x2482 JUMP JUMPDEST PUSH2 0xA52 JUMP JUMPDEST PUSH1 0x40 MLOAD PUSH2 0x2C4 SWAP2 SWAP1 PUSH2 0x20E6 JUMP JUMPDEST PUSH1 0x40 MLOAD DUP1 SWAP2 SUB SWAP1 RETURN JUMPDEST PUSH2 0x2E7 PUSH1 0x4 DUP1 CALLDATASIZE SUB DUP2 ADD SWAP1 PUSH2 0x2E2 SWAP2 SWAP1 PUSH2 0x24DC JUMP JUMPDEST PUSH2 0xD2A JUMP JUMPDEST PUSH1 0x40 MLOAD PUSH2 0x2F4 SWAP2 SWAP1 PUSH2 0x20E6 JUMP JUMPDEST PUSH1 0x40 MLOAD DUP1 SWAP2 SUB SWAP1 RETURN JUMPDEST PUSH2 0x317 PUSH1 0x4 DUP1 CALLDATASIZE SUB DUP2 ADD SWAP1 PUSH2 0x312 SWAP2 SWAP1 PUSH2 0x20FF JUMP JUMPDEST PUSH2 0xDBC JUMP JUMPDEST PUSH1 0x40 MLOAD PUSH2 0x324 SWAP2 SWAP1 PUSH2 0x20E6 JUMP JUMPDEST PUSH1 0x40 MLOAD DUP1 SWAP2 SUB SWAP1 RETURN JUMPDEST PUSH2 0x335 PUSH2 0xE01 JUMP JUMPDEST PUSH1 0x40 MLOAD PUSH2 0x342 SWAP2 SWAP1 PUSH2 0x251A JUMP JUMPDEST PUSH1 0x40 MLOAD DUP1 SWAP2 SUB SWAP1 RETURN JUMPDEST PUSH2 0x353 PUSH2 0xE26 JUMP JUMPDEST PUSH1 0x40 MLOAD PUSH2 0x360 SWAP2 SWAP1 PUSH2 0x1F6F JUMP JUMPDEST PUSH1 0x40 MLOAD DUP1 SWAP2 SUB SWAP1 RETURN JUMPDEST PUSH2 0x371 PUSH2 0xEB6 JUMP JUMPDEST PUSH1 0x40 MLOAD PUSH2 0x37E SWAP2 SWAP1 PUSH2 0x2628 JUMP JUMPDEST PUSH1 0x40 MLOAD DUP1 SWAP2 SUB SWAP1 RETURN JUMPDEST PUSH2 0x3A1 PUSH1 0x4 DUP1 CALLDATASIZE SUB DUP2 ADD SWAP1 PUSH2 0x39C SWAP2 SWAP1 PUSH2 0x1FE9 JUMP JUMPDEST PUSH2 0xFF2 JUMP JUMPDEST PUSH1 0x40 MLOAD PUSH2 0x3AE SWAP2 SWAP1 PUSH2 0x2041 JUMP JUMPDEST PUSH1 0x40 MLOAD DUP1 SWAP2 SUB SWAP1 RETURN JUMPDEST PUSH2 0x3D1 PUSH1 0x4 DUP1 CALLDATASIZE SUB DUP2 ADD SWAP1 PUSH2 0x3CC SWAP2 SWAP1 PUSH2 0x24DC JUMP JUMPDEST PUSH2 0x1014 JUMP JUMPDEST PUSH1 0x40 MLOAD PUSH2 0x3E1 SWAP5 SWAP4 SWAP3 SWAP2 SWAP1 PUSH2 0x20A3 JUMP JUMPDEST PUSH1 0x40 MLOAD DUP1 SWAP2 SUB SWAP1 RETURN JUMPDEST PUSH2 0x404 PUSH1 0x4 DUP1 CALLDATASIZE SUB DUP2 ADD SWAP1 PUSH2 0x3FF SWAP2 SWAP1 PUSH2 0x272A JUMP JUMPDEST PUSH2 0x106A JUMP JUMPDEST STOP JUMPDEST PUSH2 0x420 PUSH1 0x4 DUP1 CALLDATASIZE SUB DUP2 ADD SWAP1 PUSH2 0x41B SWAP2 SWAP1 PUSH2 0x2771 JUMP JUMPDEST PUSH2 0x126C JUMP JUMPDEST PUSH1 0x40 MLOAD PUSH2 0x42D SWAP2 SWAP1 PUSH2 0x20E6 JUMP JUMPDEST PUSH1 0x40 MLOAD DUP1 SWAP2 SUB SWAP1 RETURN JUMPDEST PUSH2 0x450 PUSH1 0x4 DUP1 CALLDATASIZE SUB DUP2 ADD SWAP1 PUSH2 0x44B SWAP2 SWAP1 PUSH2 0x205A JUMP JUMPDEST PUSH2 0x12EE JUMP JUMPDEST PUSH1 0x40 MLOAD PUSH2 0x45F SWAP4 SWAP3 SWAP2 SWAP1 PUSH2 0x212A JUMP JUMPDEST PUSH1 0x40 MLOAD DUP1 SWAP2 SUB SWAP1 RETURN JUMPDEST PUSH2 0x470 PUSH2 0x13C0 JUMP JUMPDEST STOP JUMPDEST PUSH2 0x48C PUSH1 0x4 DUP1 CALLDATASIZE SUB DUP2 ADD SWAP1 PUSH2 0x487 SWAP2 SWAP1 PUSH2 0x272A JUMP JUMPDEST PUSH2 0x151A JUMP JUMPDEST STOP JUMPDEST CALLER PUSH20 0xFFFFFFFFFFFFFFFFFFFFFFFFFFFFFFFFFFFFFFFF AND PUSH1 0x74 PUSH0 CALLER PUSH20 0xFFFFFFFFFFFFFFFFFFFFFFFFFFFFFFFFFFFFFFFF AND PUSH20 0xFFFFFFFFFFFFFFFFFFFFFFFFFFFFFFFFFFFFFFFF AND DUP2 MSTORE PUSH1 0x20 ADD SWAP1 DUP2 MSTORE PUSH1 0x20 ADD PUSH0 KECCAK256 PUSH0 ADD PUSH0 SWAP1 SLOAD SWAP1 PUSH2 0x100 EXP SWAP1 DIV PUSH20 0xFFFFFFFFFFFFFFFFFFFFFFFFFFFFFFFFFFFFFFFF AND PUSH20 0xFFFFFFFFFFFFFFFFFFFFFFFFFFFFFFFFFFFFFFFF AND EQ PUSH2 0x55A JUMPI PUSH1 0x40 MLOAD PUSH32 0x8C379A000000000000000000000000000000000000000000000000000000000 DUP2 MSTORE PUSH1 0x4 ADD PUSH2 0x551 SWAP1 PUSH2 0x27F9 JUMP JUMPDEST PUSH1 0x40 MLOAD DUP1 SWAP2 SUB SWAP1 REVERT JUMPDEST PUSH2 0x384 DUP2 LT ISZERO DUP1 ISZERO PUSH2 0x56E JUMPI POP PUSH2 0x3E8 DUP2 GT ISZERO JUMPDEST PUSH2 0x5AD JUMPI PUSH1 0x40 MLOAD PUSH32 0x8C379A000000000000000000000000000000000000000000000000000000000 DUP2 MSTORE PUSH1 0x4 ADD PUSH2 0x5A4 SWAP1 PUSH2 0x2861 JUMP JUMPDEST PUSH1 0x40 MLOAD DUP1 SWAP2 SUB SWAP1 REVERT JUMPDEST PUSH0 PUSH1 0x40 MLOAD DUP1 PUSH1 0x80 ADD PUSH1 0x40 MSTORE DUP1 DUP6 DUP2 MSTORE PUSH1 0x20 ADD DUP5 DUP2 MSTORE PUSH1 0x20 ADD CALLER PUSH20 0xFFFFFFFFFFFFFFFFFFFFFFFFFFFFFFFFFFFFFFFF AND DUP2 MSTORE PUSH1 0x20 ADD DUP4 DUP2 MSTORE POP SWAP1 POP PUSH1 0x73 DUP2 SWAP1 DUP1 PUSH1 0x1 DUP2 SLOAD ADD DUP1 DUP3 SSTORE DUP1 SWAP2 POP POP PUSH1 0x1 SWAP1 SUB SWAP1 PUSH0 MSTORE PUSH1 0x20 PUSH0 KECCAK256 SWAP1 PUSH1 0x4 MUL ADD PUSH0 SWAP1 SWAP2 SWAP1 SWAP2 SWAP1 SWAP2 POP PUSH0 DUP3 ADD MLOAD DUP2 PUSH0 ADD SSTORE PUSH1 0x20 DUP3 ADD MLOAD DUP2 PUSH1 0x1 ADD SSTORE PUSH1 0x40 DUP3 ADD MLOAD DUP2 PUSH1 0x2 ADD PUSH0 PUSH2 0x100 EXP DUP2 SLOAD DUP2 PUSH20 0xFFFFFFFFFFFFFFFFFFFFFFFFFFFFFFFFFFFFFFFF MUL NOT AND SWAP1 DUP4 PUSH20 0xFFFFFFFFFFFFFFFFFFFFFFFFFFFFFFFFFFFFFFFF AND MUL OR SWAP1 SSTORE POP PUSH1 0x60 DUP3 ADD MLOAD DUP2 PUSH1 0x3 ADD SSTORE POP POP DUP1 PUSH1 0x75 PUSH0 DUP7 DUP2 MSTORE PUSH1 0x20 ADD SWAP1 DUP2 MSTORE PUSH1 0x20 ADD PUSH0 KECCAK256 PUSH0 DUP6 DUP2 MSTORE PUSH1 0x20 ADD SWAP1 DUP2 MSTORE PUSH1 0x20 ADD PUSH0 KECCAK256 PUSH0 DUP3 ADD MLOAD DUP2 PUSH0 ADD SSTORE PUSH1 0x20 DUP3 ADD MLOAD DUP2 PUSH1 0x1 ADD SSTORE PUSH1 0x40 DUP3 ADD MLOAD DUP2 PUSH1 0x2 ADD PUSH0 PUSH2 0x100 EXP DUP2 SLOAD DUP2 PUSH20 0xFFFFFFFFFFFFFFFFFFFFFFFFFFFFFFFFFFFFFFFF MUL NOT AND SWAP1 DUP4 PUSH20 0xFFFFFFFFFFFFFFFFFFFFFFFFFFFFFFFFFFFFFFFF AND MUL OR SWAP1 SSTORE POP PUSH1 0x60 DUP3 ADD MLOAD DUP2 PUSH1 0x3 ADD SSTORE SWAP1 POP POP POP POP POP POP JUMP JUMPDEST PUSH1 0x60 PUSH1 0x3 DUP1 SLOAD PUSH2 0x70F SWAP1 PUSH2 0x28AC JUMP JUMPDEST DUP1 PUSH1 0x1F ADD PUSH1 0x20 DUP1 SWAP2 DIV MUL PUSH1 0x20 ADD PUSH1 0x40 MLOAD SWAP1 DUP2 ADD PUSH1 0x40 MSTORE DUP1 SWAP3 SWAP2 SWAP1 DUP2 DUP2 MSTORE PUSH1 0x20 ADD DUP3 DUP1 SLOAD PUSH2 0x73B SWAP1 PUSH2 0x28AC JUMP JUMPDEST DUP1 ISZERO PUSH2 0x786 JUMPI DUP1 PUSH1 0x1F LT PUSH2 0x75D JUMPI PUSH2 0x100 DUP1 DUP4 SLOAD DIV MUL DUP4 MSTORE SWAP2 PUSH1 0x20 ADD SWAP2 PUSH2 0x786 JUMP JUMPDEST DUP3 ADD SWAP2 SWAP1 PUSH0 MSTORE PUSH1 0x20 PUSH0 KECCAK256 SWAP1 JUMPDEST DUP2 SLOAD DUP2 MSTORE SWAP1 PUSH1 0x1 ADD SWAP1 PUSH1 0x20 ADD DUP1 DUP4 GT PUSH2 0x769 JUMPI DUP3 SWAP1 SUB PUSH1 0x1F AND DUP3 ADD SWAP2 JUMPDEST POP POP POP POP POP SWAP1 POP SWAP1 JUMP JUMPDEST PUSH0 PUSH0 PUSH2 0x79A PUSH2 0x171C JUMP JUMPDEST SWAP1 POP PUSH2 0x7A7 DUP2 DUP6 DUP6 PUSH2 0x1723 JUMP JUMPDEST PUSH1 0x1 SWAP2 POP POP SWAP3 SWAP2 POP POP JUMP JUMPDEST PUSH1 0x73 DUP2 DUP2 SLOAD DUP2 LT PUSH2 0x7C1 JUMPI PUSH0 DUP1 REVERT JUMPDEST SWAP1 PUSH0 MSTORE PUSH1 0x20 PUSH0 KECCAK256 SWAP1 PUSH1 0x4 MUL ADD PUSH0 SWAP2 POP SWAP1 POP DUP1 PUSH0 ADD SLOAD SWAP1 DUP1 PUSH1 0x1 ADD SLOAD SWAP1 DUP1 PUSH1 0x2 ADD PUSH0 SWAP1 SLOAD SWAP1 PUSH2 0x100 EXP SWAP1 DIV PUSH20 0xFFFFFFFFFFFFFFFFFFFFFFFFFFFFFFFFFFFFFFFF AND SWAP1 DUP1 PUSH1 0x3 ADD SLOAD SWAP1 POP DUP5 JUMP JUMPDEST PUSH0 PUSH1 0x2 SLOAD SWAP1 POP SWAP1 JUMP JUMPDEST PUSH1 0x74 PUSH1 0x20 MSTORE DUP1 PUSH0 MSTORE PUSH1 0x40 PUSH0 KECCAK256 PUSH0 SWAP2 POP SWAP1 POP DUP1 PUSH0 ADD PUSH0 SWAP1 SLOAD SWAP1 PUSH2 0x100 EXP SWAP1 DIV PUSH20 0xFFFFFFFFFFFFFFFFFFFFFFFFFFFFFFFFFFFFFFFF AND SWAP1 DUP1 PUSH1 0x1 ADD DUP1 SLOAD PUSH2 0x859 SWAP1 PUSH2 0x28AC JUMP JUMPDEST DUP1 PUSH1 0x1F ADD PUSH1 0x20 DUP1 SWAP2 DIV MUL PUSH1 0x20 ADD PUSH1 0x40 MLOAD SWAP1 DUP2 ADD PUSH1 0x40 MSTORE DUP1 SWAP3 SWAP2 SWAP1 DUP2 DUP2 MSTORE PUSH1 0x20 ADD DUP3 DUP1 SLOAD PUSH2 0x885 SWAP1 PUSH2 0x28AC JUMP JUMPDEST DUP1 ISZERO PUSH2 0x8D0 JUMPI DUP1 PUSH1 0x1F LT PUSH2 0x8A7 JUMPI PUSH2 0x100 DUP1 DUP4 SLOAD DIV MUL DUP4 MSTORE SWAP2 PUSH1 0x20 ADD SWAP2 PUSH2 0x8D0 JUMP JUMPDEST DUP3 ADD SWAP2 SWAP1 PUSH0 MSTORE PUSH1 0x20 PUSH0 KECCAK256 SWAP1 JUMPDEST DUP2 SLOAD DUP2 MSTORE SWAP1 PUSH1 0x1 ADD SWAP1 PUSH1 0x20 ADD DUP1 DUP4 GT PUSH2 0x8B3 JUMPI DUP3 SWAP1 SUB PUSH1 0x1F AND DUP3 ADD SWAP2 JUMPDEST POP POP POP POP POP SWAP1 DUP1 PUSH1 0x2 ADD SLOAD SWAP1 POP DUP4 JUMP JUMPDEST PUSH0 PUSH0 PUSH2 0x8EA PUSH2 0x171C JUMP JUMPDEST SWAP1 POP PUSH2 0x8F7 DUP6 DUP3 DUP6 PUSH2 0x1735 JUMP JUMPDEST PUSH2 0x902 DUP6 DUP6 DUP6 PUSH2 0x17C7 JUMP JUMPDEST PUSH1 0x1 SWAP2 POP POP SWAP4 SWAP3 POP POP POP JUMP JUMPDEST PUSH0 PUSH1 0x12 SWAP1 POP SWAP1 JUMP JUMPDEST PUSH1 0x60 PUSH0 PUSH1 0x72 DUP1 SLOAD SWAP1 POP GT PUSH2 0x95F JUMPI PUSH1 0x40 MLOAD PUSH32 0x8C379A000000000000000000000000000000000000000000000000000000000 DUP2 MSTORE PUSH1 0x4 ADD PUSH2 0x956 SWAP1 PUSH2 0x2926 JUMP JUMPDEST PUSH1 0x40 MLOAD DUP1 SWAP2 SUB SWAP1 REVERT JUMPDEST PUSH1 0x72 DUP1 SLOAD DUP1 PUSH1 0x20 MUL PUSH1 0x20 ADD PUSH1 0x40 MLOAD SWAP1 DUP2 ADD PUSH1 0x40 MSTORE DUP1 SWAP3 SWAP2 SWAP1 DUP2 DUP2 MSTORE PUSH1 0x20 ADD PUSH0 SWAP1 JUMPDEST DUP3 DUP3 LT ISZERO PUSH2 0xA49 JUMPI DUP4 DUP3 SWAP1 PUSH0 MSTORE PUSH1 0x20 PUSH0 KECCAK256 SWAP1 PUSH1 0x2 MUL ADD PUSH1 0x40 MLOAD DUP1 PUSH1 0x40 ADD PUSH1 0x40 MSTORE SWAP1 DUP2 PUSH0 DUP3 ADD SLOAD DUP2 MSTORE PUSH1 0x20 ADD PUSH1 0x1 DUP3 ADD DUP1 SLOAD PUSH2 0x9BA SWAP1 PUSH2 0x28AC JUMP JUMPDEST DUP1 PUSH1 0x1F ADD PUSH1 0x20 DUP1 SWAP2 DIV MUL PUSH1 0x20 ADD PUSH1 0x40 MLOAD SWAP1 DUP2 ADD PUSH1 0x40 MSTORE DUP1 SWAP3 SWAP2 SWAP1 DUP2 DUP2 MSTORE PUSH1 0x20 ADD DUP3 DUP1 SLOAD PUSH2 0x9E6 SWAP1 PUSH2 0x28AC JUMP JUMPDEST DUP1 ISZERO PUSH2 0xA31 JUMPI DUP1 PUSH1 0x1F LT PUSH2 0xA08 JUMPI PUSH2 0x100 DUP1 DUP4 SLOAD DIV MUL DUP4 MSTORE SWAP2 PUSH1 0x20 ADD SWAP2 PUSH2 0xA31 JUMP JUMPDEST DUP3 ADD SWAP2 SWAP1 PUSH0 MSTORE PUSH1 0x20 PUSH0 KECCAK256 SWAP1 JUMPDEST DUP2 SLOAD DUP2 MSTORE SWAP1 PUSH1 0x1 ADD SWAP1 PUSH1 0x20 ADD DUP1 DUP4 GT PUSH2 0xA14 JUMPI DUP3 SWAP1 SUB PUSH1 0x1F AND DUP3 ADD SWAP2 JUMPDEST POP POP POP POP POP DUP2 MSTORE POP POP DUP2 MSTORE PUSH1 0x20 ADD SWAP1 PUSH1 0x1 ADD SWAP1 PUSH2 0x980 JUMP JUMPDEST POP POP POP POP SWAP1 POP SWAP1 JUMP JUMPDEST PUSH0 PUSH1 0x76 PUSH0 SWAP1 SLOAD SWAP1 PUSH2 0x100 EXP SWAP1 DIV PUSH20 0xFFFFFFFFFFFFFFFFFFFFFFFFFFFFFFFFFFFFFFFF AND PUSH20 0xFFFFFFFFFFFFFFFFFFFFFFFFFFFFFFFFFFFFFFFF AND CALLER PUSH20 0xFFFFFFFFFFFFFFFFFFFFFFFFFFFFFFFFFFFFFFFF AND EQ PUSH2 0xAE2 JUMPI PUSH1 0x40 MLOAD PUSH32 0x8C379A000000000000000000000000000000000000000000000000000000000 DUP2 MSTORE PUSH1 0x4 ADD PUSH2 0xAD9 SWAP1 PUSH2 0x298E JUMP JUMPDEST PUSH1 0x40 MLOAD DUP1 SWAP2 SUB SWAP1 REVERT JUMPDEST PUSH1 0x24 PUSH1 0x77 SLOAD LT PUSH2 0xB27 JUMPI PUSH1 0x40 MLOAD PUSH32 0x8C379A000000000000000000000000000000000000000000000000000000000 DUP2 MSTORE PUSH1 0x4 ADD PUSH2 0xB1E SWAP1 PUSH2 0x29F6 JUMP JUMPDEST PUSH1 0x40 MLOAD DUP1 SWAP2 SUB SWAP1 REVERT JUMPDEST PUSH1 0x40 MLOAD DUP1 PUSH1 0x60 ADD PUSH1 0x40 MSTORE DUP1 CALLER PUSH20 0xFFFFFFFFFFFFFFFFFFFFFFFFFFFFFFFFFFFFFFFF AND DUP2 MSTORE PUSH1 0x20 ADD DUP5 DUP2 MSTORE PUSH1 0x20 ADD DUP4 DUP2 MSTORE POP PUSH1 0x74 PUSH0 CALLER PUSH20 0xFFFFFFFFFFFFFFFFFFFFFFFFFFFFFFFFFFFFFFFF AND PUSH20 0xFFFFFFFFFFFFFFFFFFFFFFFFFFFFFFFFFFFFFFFF AND DUP2 MSTORE PUSH1 0x20 ADD SWAP1 DUP2 MSTORE PUSH1 0x20 ADD PUSH0 KECCAK256 PUSH0 DUP3 ADD MLOAD DUP2 PUSH0 ADD PUSH0 PUSH2 0x100 EXP DUP2 SLOAD DUP2 PUSH20 0xFFFFFFFFFFFFFFFFFFFFFFFFFFFFFFFFFFFFFFFF MUL NOT AND SWAP1 DUP4 PUSH20 0xFFFFFFFFFFFFFFFFFFFFFFFFFFFFFFFFFFFFFFFF AND MUL OR SWAP1 SSTORE POP PUSH1 0x20 DUP3 ADD MLOAD DUP2 PUSH1 0x1 ADD SWAP1 DUP2 PUSH2 0xBEE SWAP2 SWAP1 PUSH2 0x2BB4 JUMP JUMPDEST POP PUSH1 0x40 DUP3 ADD MLOAD DUP2 PUSH1 0x2 ADD SSTORE SWAP1 POP POP PUSH1 0x40 MLOAD DUP1 PUSH1 0x60 ADD PUSH1 0x40 MSTORE DUP1 CALLER PUSH20 0xFFFFFFFFFFFFFFFFFFFFFFFFFFFFFFFFFFFFFFFF AND DUP2 MSTORE PUSH1 0x20 ADD DUP5 DUP2 MSTORE PUSH1 0x20 ADD DUP4 DUP2 MSTORE POP PUSH1 0x5 PUSH1 0x77 SLOAD PUSH1 0x24 DUP2 LT PUSH2 0xC43 JUMPI PUSH2 0xC42 PUSH2 0x2C83 JUMP JUMPDEST JUMPDEST PUSH1 0x3 MUL ADD PUSH0 DUP3 ADD MLOAD DUP2 PUSH0 ADD PUSH0 PUSH2 0x100 EXP DUP2 SLOAD DUP2 PUSH20 0xFFFFFFFFFFFFFFFFFFFFFFFFFFFFFFFFFFFFFFFF MUL NOT AND SWAP1 DUP4 PUSH20 0xFFFFFFFFFFFFFFFFFFFFFFFFFFFFFFFFFFFFFFFF AND MUL OR SWAP1 SSTORE POP PUSH1 0x20 DUP3 ADD MLOAD DUP2 PUSH1 0x1 ADD SWAP1 DUP2 PUSH2 0xCA0 SWAP2 SWAP1 PUSH2 0x2BB4 JUMP JUMPDEST POP PUSH1 0x40 DUP3 ADD MLOAD DUP2 PUSH1 0x2 ADD SSTORE SWAP1 POP POP PUSH1 0x77 PUSH0 DUP2 SLOAD DUP1 SWAP3 SWAP2 SWAP1 PUSH2 0xCC0 SWAP1 PUSH2 0x2CDD JUMP JUMPDEST SWAP2 SWAP1 POP SSTORE POP CALLER PUSH20 0xFFFFFFFFFFFFFFFFFFFFFFFFFFFFFFFFFFFFFFFF AND PUSH32 0xA1FB37ECDDD4C220FD008A54A22FB96CE4DB7248E0F4987E445259DC6E55188B DUP5 PUSH1 0x40 MLOAD PUSH2 0xD0B SWAP2 SWAP1 PUSH2 0x1F6F JUMP JUMPDEST PUSH1 0x40 MLOAD DUP1 SWAP2 SUB SWAP1 LOG2 PUSH1 0x1 PUSH1 0x77 SLOAD PUSH2 0xD22 SWAP2 SWAP1 PUSH2 0x2D24 JUMP JUMPDEST SWAP1 POP SWAP3 SWAP2 POP POP JUMP JUMPDEST PUSH0 PUSH0 PUSH1 0x75 PUSH0 DUP6 DUP2 MSTORE PUSH1 0x20 ADD SWAP1 DUP2 MSTORE PUSH1 0x20 ADD PUSH0 KECCAK256 PUSH0 DUP5 DUP2 MSTORE PUSH1 0x20 ADD SWAP1 DUP2 MSTORE PUSH1 0x20 ADD PUSH0 KECCAK256 PUSH1 0x3 ADD SLOAD GT PUSH2 0xD90 JUMPI PUSH1 0x40 MLOAD PUSH32 0x8C379A000000000000000000000000000000000000000000000000000000000 DUP2 MSTORE PUSH1 0x4 ADD PUSH2 0xD87 SWAP1 PUSH2 0x2DA1 JUMP JUMPDEST PUSH1 0x40 MLOAD DUP1 SWAP2 SUB SWAP1 REVERT JUMPDEST PUSH1 0x75 PUSH0 DUP5 DUP2 MSTORE PUSH1 0x20 ADD SWAP1 DUP2 MSTORE PUSH1 0x20 ADD PUSH0 KECCAK256 PUSH0 DUP4 DUP2 MSTORE PUSH1 0x20 ADD SWAP1 DUP2 MSTORE PUSH1 0x20 ADD PUSH0 KECCAK256 PUSH1 0x3 ADD SLOAD SWAP1 POP SWAP3 SWAP2 POP POP JUMP JUMPDEST PUSH0 PUSH0 PUSH0 DUP4 PUSH20 0xFFFFFFFFFFFFFFFFFFFFFFFFFFFFFFFFFFFFFFFF AND PUSH20 0xFFFFFFFFFFFFFFFFFFFFFFFFFFFFFFFFFFFFFFFF AND DUP2 MSTORE PUSH1 0x20 ADD SWAP1 DUP2 MSTORE PUSH1 0x20 ADD PUSH0 KECCAK256 SLOAD SWAP1 POP SWAP2 SWAP1 POP JUMP JUMPDEST PUSH1 0x76 PUSH0 SWAP1 SLOAD SWAP1 PUSH2 0x100 EXP SWAP1 DIV PUSH20 0xFFFFFFFFFFFFFFFFFFFFFFFFFFFFFFFFFFFFFFFF AND DUP2 JUMP JUMPDEST PUSH1 0x60 PUSH1 0x4 DUP1 SLOAD PUSH2 0xE35 SWAP1 PUSH2 0x28AC JUMP JUMPDEST DUP1 PUSH1 0x1F ADD PUSH1 0x20 DUP1 SWAP2 DIV MUL PUSH1 0x20 ADD PUSH1 0x40 MLOAD SWAP1 DUP2 ADD PUSH1 0x40 MSTORE DUP1 SWAP3 SWAP2 SWAP1 DUP2 DUP2 MSTORE PUSH1 0x20 ADD DUP3 DUP1 SLOAD PUSH2 0xE61 SWAP1 PUSH2 0x28AC JUMP JUMPDEST DUP1 ISZERO PUSH2 0xEAC JUMPI DUP1 PUSH1 0x1F LT PUSH2 0xE83 JUMPI PUSH2 0x100 DUP1 DUP4 SLOAD DIV MUL DUP4 MSTORE SWAP2 PUSH1 0x20 ADD SWAP2 PUSH2 0xEAC JUMP JUMPDEST DUP3 ADD SWAP2 SWAP1 PUSH0 MSTORE PUSH1 0x20 PUSH0 KECCAK256 SWAP1 JUMPDEST DUP2 SLOAD DUP2 MSTORE SWAP1 PUSH1 0x1 ADD SWAP1 PUSH1 0x20 ADD DUP1 DUP4 GT PUSH2 0xE8F JUMPI DUP3 SWAP1 SUB PUSH1 0x1F AND DUP3 ADD SWAP2 JUMPDEST POP POP POP POP POP SWAP1 POP SWAP1 JUMP JUMPDEST PUSH1 0x60 PUSH0 PUSH1 0x71 DUP1 SLOAD SWAP1 POP GT PUSH2 0xEFF JUMPI PUSH1 0x40 MLOAD PUSH32 0x8C379A000000000000000000000000000000000000000000000000000000000 DUP2 MSTORE PUSH1 0x4 ADD PUSH2 0xEF6 SWAP1 PUSH2 0x2E09 JUMP JUMPDEST PUSH1 0x40 MLOAD DUP1 SWAP2 SUB SWAP1 REVERT JUMPDEST PUSH1 0x71 DUP1 SLOAD DUP1 PUSH1 0x20 MUL PUSH1 0x20 ADD PUSH1 0x40 MLOAD SWAP1 DUP2 ADD PUSH1 0x40 MSTORE DUP1 SWAP3 SWAP2 SWAP1 DUP2 DUP2 MSTORE PUSH1 0x20 ADD PUSH0 SWAP1 JUMPDEST DUP3 DUP3 LT ISZERO PUSH2 0xFE9 JUMPI DUP4 DUP3 SWAP1 PUSH0 MSTORE PUSH1 0x20 PUSH0 KECCAK256 SWAP1 PUSH1 0x2 MUL ADD PUSH1 0x40 MLOAD DUP1 PUSH1 0x40 ADD PUSH1 0x40 MSTORE SWAP1 DUP2 PUSH0 DUP3 ADD SLOAD DUP2 MSTORE PUSH1 0x20 ADD PUSH1 0x1 DUP3 ADD DUP1 SLOAD PUSH2 0xF5A SWAP1 PUSH2 0x28AC JUMP JUMPDEST DUP1 PUSH1 0x1F ADD PUSH1 0x20 DUP1 SWAP2 DIV MUL PUSH1 0x20 ADD PUSH1 0x40 MLOAD SWAP1 DUP2 ADD PUSH1 0x40 MSTORE DUP1 SWAP3 SWAP2 SWAP1 DUP2 DUP2 MSTORE PUSH1 0x20 ADD DUP3 DUP1 SLOAD PUSH2 0xF86 SWAP1 PUSH2 0x28AC JUMP JUMPDEST DUP1 ISZERO PUSH2 0xFD1 JUMPI DUP1 PUSH1 0x1F LT PUSH2 0xFA8 JUMPI PUSH2 0x100 DUP1 DUP4 SLOAD DIV MUL DUP4 MSTORE SWAP2 PUSH1 0x20 ADD SWAP2 PUSH2 0xFD1 JUMP JUMPDEST DUP3 ADD SWAP2 SWAP1 PUSH0 MSTORE PUSH1 0x20 PUSH0 KECCAK256 SWAP1 JUMPDEST DUP2 SLOAD DUP2 MSTORE SWAP1 PUSH1 0x1 ADD SWAP1 PUSH1 0x20 ADD DUP1 DUP4 GT PUSH2 0xFB4 JUMPI DUP3 SWAP1 SUB PUSH1 0x1F AND DUP3 ADD SWAP2 JUMPDEST POP POP POP POP POP DUP2 MSTORE POP POP DUP2 MSTORE PUSH1 0x20 ADD SWAP1 PUSH1 0x1 ADD SWAP1 PUSH2 0xF20 JUMP JUMPDEST POP POP POP POP SWAP1 POP SWAP1 JUMP JUMPDEST PUSH0 PUSH0 PUSH2 0xFFC PUSH2 0x171C JUMP JUMPDEST SWAP1 POP PUSH2 0x1009 DUP2 DUP6 DUP6 PUSH2 0x17C7 JUMP JUMPDEST PUSH1 0x1 SWAP2 POP POP SWAP3 SWAP2 POP POP JUMP JUMPDEST PUSH1 0x75 PUSH1 0x20 MSTORE DUP2 PUSH0 MSTORE PUSH1 0x40 PUSH0 KECCAK256 PUSH1 0x20 MSTORE DUP1 PUSH0 MSTORE PUSH1 0x40 PUSH0 KECCAK256 PUSH0 SWAP2 POP SWAP2 POP POP DUP1 PUSH0 ADD SLOAD SWAP1 DUP1 PUSH1 0x1 ADD SLOAD SWAP1 DUP1 PUSH1 0x2 ADD PUSH0 SWAP1 SLOAD SWAP1 PUSH2 0x100 EXP SWAP1 DIV PUSH20 0xFFFFFFFFFFFFFFFFFFFFFFFFFFFFFFFFFFFFFFFF AND SWAP1 DUP1 PUSH1 0x3 ADD SLOAD SWAP1 POP DUP5 JUMP JUMPDEST PUSH1 0x76 PUSH0 SWAP1 SLOAD SWAP1 PUSH2 0x100 EXP SWAP1 DIV PUSH20 0xFFFFFFFFFFFFFFFFFFFFFFFFFFFFFFFFFFFFFFFF AND PUSH20 0xFFFFFFFFFFFFFFFFFFFFFFFFFFFFFFFFFFFFFFFF AND CALLER PUSH20 0xFFFFFFFFFFFFFFFFFFFFFFFFFFFFFFFFFFFFFFFF AND EQ PUSH2 0x10F9 JUMPI PUSH1 0x40 MLOAD PUSH32 0x8C379A000000000000000000000000000000000000000000000000000000000 DUP2 MSTORE PUSH1 0x4 ADD PUSH2 0x10F0 SWAP1 PUSH2 0x298E JUMP JUMPDEST PUSH1 0x40 MLOAD DUP1 SWAP2 SUB SWAP1 REVERT JUMPDEST PUSH1 0x8 PUSH1 0x72 DUP1 SLOAD SWAP1 POP LT PUSH2 0x1141 JUMPI PUSH1 0x40 MLOAD PUSH32 0x8C379A000000000000000000000000000000000000000000000000000000000 DUP2 MSTORE PUSH1 0x4 ADD PUSH2 0x1138 SWAP1 PUSH2 0x2E97 JUMP JUMPDEST PUSH1 0x40 MLOAD DUP1 SWAP2 SUB SWAP1 REVERT JUMPDEST PUSH0 PUSH0 SWAP1 POP JUMPDEST DUP2 MLOAD DUP2 LT ISZERO PUSH2 0x1231 JUMPI PUSH1 0x8 PUSH1 0x79 SLOAD LT PUSH2 0x1194 JUMPI PUSH1 0x40 MLOAD PUSH32 0x8C379A000000000000000000000000000000000000000000000000000000000 DUP2 MSTORE PUSH1 0x4 ADD PUSH2 0x118B SWAP1 PUSH2 0x2E97 JUMP JUMPDEST PUSH1 0x40 MLOAD DUP1 SWAP2 SUB SWAP1 REVERT JUMPDEST PUSH1 0x72 PUSH1 0x40 MLOAD DUP1 PUSH1 0x40 ADD PUSH1 0x40 MSTORE DUP1 PUSH1 0x79 SLOAD DUP2 MSTORE PUSH1 0x20 ADD DUP5 DUP5 DUP2 MLOAD DUP2 LT PUSH2 0x11BC JUMPI PUSH2 0x11BB PUSH2 0x2C83 JUMP JUMPDEST JUMPDEST PUSH1 0x20 MUL PUSH1 0x20 ADD ADD MLOAD DUP2 MSTORE POP SWAP1 DUP1 PUSH1 0x1 DUP2 SLOAD ADD DUP1 DUP3 SSTORE DUP1 SWAP2 POP POP PUSH1 0x1 SWAP1 SUB SWAP1 PUSH0 MSTORE PUSH1 0x20 PUSH0 KECCAK256 SWAP1 PUSH1 0x2 MUL ADD PUSH0 SWAP1 SWAP2 SWAP1 SWAP2 SWAP1 SWAP2 POP PUSH0 DUP3 ADD MLOAD DUP2 PUSH0 ADD SSTORE PUSH1 0x20 DUP3 ADD MLOAD DUP2 PUSH1 0x1 ADD SWAP1 DUP2 PUSH2 0x120A SWAP2 SWAP1 PUSH2 0x2BB4 JUMP JUMPDEST POP POP POP PUSH1 0x79 PUSH0 DUP2 SLOAD DUP1 SWAP3 SWAP2 SWAP1 PUSH2 0x121F SWAP1 PUSH2 0x2CDD JUMP JUMPDEST SWAP2 SWAP1 POP SSTORE POP DUP1 DUP1 PUSH1 0x1 ADD SWAP2 POP POP PUSH2 0x1146 JUMP JUMPDEST POP PUSH32 0x25AA31C0BE750CC5E6616917E1209C38B8643A142814E500D1EB8FC63270FE55 DUP2 PUSH1 0x40 MLOAD PUSH2 0x1261 SWAP2 SWAP1 PUSH2 0x2F70 JUMP JUMPDEST PUSH1 0x40 MLOAD DUP1 SWAP2 SUB SWAP1 LOG1 POP JUMP JUMPDEST PUSH0 PUSH1 0x1 PUSH0 DUP5 PUSH20 0xFFFFFFFFFFFFFFFFFFFFFFFFFFFFFFFFFFFFFFFF AND PUSH20 0xFFFFFFFFFFFFFFFFFFFFFFFFFFFFFFFFFFFFFFFF AND DUP2 MSTORE PUSH1 0x20 ADD SWAP1 DUP2 MSTORE PUSH1 0x20 ADD PUSH0 KECCAK256 PUSH0 DUP4 PUSH20 0xFFFFFFFFFFFFFFFFFFFFFFFFFFFFFFFFFFFFFFFF AND PUSH20 0xFFFFFFFFFFFFFFFFFFFFFFFFFFFFFFFFFFFFFFFF AND DUP2 MSTORE PUSH1 0x20 ADD SWAP1 DUP2 MSTORE PUSH1 0x20 ADD PUSH0 KECCAK256 SLOAD SWAP1 POP SWAP3 SWAP2 POP POP JUMP JUMPDEST PUSH1 0x5 DUP2 PUSH1 0x24 DUP2 LT PUSH2 0x12FD JUMPI PUSH0 DUP1 REVERT JUMPDEST PUSH1 0x3 MUL ADD PUSH0 SWAP2 POP SWAP1 POP DUP1 PUSH0 ADD PUSH0 SWAP1 SLOAD SWAP1 PUSH2 0x100 EXP SWAP1 DIV PUSH20 0xFFFFFFFFFFFFFFFFFFFFFFFFFFFFFFFFFFFFFFFF AND SWAP1 DUP1 PUSH1 0x1 ADD DUP1 SLOAD PUSH2 0x1339 SWAP1 PUSH2 0x28AC JUMP JUMPDEST DUP1 PUSH1 0x1F ADD PUSH1 0x20 DUP1 SWAP2 DIV MUL PUSH1 0x20 ADD PUSH1 0x40 MLOAD SWAP1 DUP2 ADD PUSH1 0x40 MSTORE DUP1 SWAP3 SWAP2 SWAP1 DUP2 DUP2 MSTORE PUSH1 0x20 ADD DUP3 DUP1 SLOAD PUSH2 0x1365 SWAP1 PUSH2 0x28AC JUMP JUMPDEST DUP1 ISZERO PUSH2 0x13B0 JUMPI DUP1 PUSH1 0x1F LT PUSH2 0x1387 JUMPI PUSH2 0x100 DUP1 DUP4 SLOAD DIV MUL DUP4 MSTORE SWAP2 PUSH1 0x20 ADD SWAP2 PUSH2 0x13B0 JUMP JUMPDEST DUP3 ADD SWAP2 SWAP1 PUSH0 MSTORE PUSH1 0x20 PUSH0 KECCAK256 SWAP1 JUMPDEST DUP2 SLOAD DUP2 MSTORE SWAP1 PUSH1 0x1 ADD SWAP1 PUSH1 0x20 ADD DUP1 DUP4 GT PUSH2 0x1393 JUMPI DUP3 SWAP1 SUB PUSH1 0x1F AND DUP3 ADD SWAP2 JUMPDEST POP POP POP POP POP SWAP1 DUP1 PUSH1 0x2 ADD SLOAD SWAP1 POP DUP4 JUMP JUMPDEST PUSH1 0x76 PUSH0 SWAP1 SLOAD SWAP1 PUSH2 0x100 EXP SWAP1 DIV PUSH20 0xFFFFFFFFFFFFFFFFFFFFFFFFFFFFFFFFFFFFFFFF AND PUSH20 0xFFFFFFFFFFFFFFFFFFFFFFFFFFFFFFFFFFFFFFFF AND CALLER PUSH20 0xFFFFFFFFFFFFFFFFFFFFFFFFFFFFFFFFFFFFFFFF AND EQ PUSH2 0x144F JUMPI PUSH1 0x40 MLOAD PUSH32 0x8C379A000000000000000000000000000000000000000000000000000000000 DUP2 MSTORE PUSH1 0x4 ADD PUSH2 0x1446 SWAP1 PUSH2 0x298E JUMP JUMPDEST PUSH1 0x40 MLOAD DUP1 SWAP2 SUB SWAP1 REVERT JUMPDEST PUSH1 0x5 PUSH0 PUSH2 0x145C SWAP2 SWAP1 PUSH2 0x1C9F JUMP JUMPDEST PUSH1 0x71 PUSH0 PUSH2 0x1469 SWAP2 SWAP1 PUSH2 0x1CB5 JUMP JUMPDEST PUSH1 0x72 PUSH0 PUSH2 0x1476 SWAP2 SWAP1 PUSH2 0x1CD6 JUMP JUMPDEST PUSH1 0x73 PUSH0 PUSH2 0x1483 SWAP2 SWAP1 PUSH2 0x1CF7 JUMP JUMPDEST PUSH0 PUSH0 SWAP1 POP JUMPDEST PUSH1 0xC DUP2 LT ISZERO PUSH2 0x1517 JUMPI PUSH0 PUSH0 SWAP1 POP JUMPDEST PUSH1 0x8 DUP2 LT ISZERO PUSH2 0x1509 JUMPI PUSH1 0x75 PUSH0 DUP4 DUP2 MSTORE PUSH1 0x20 ADD SWAP1 DUP2 MSTORE PUSH1 0x20 ADD PUSH0 KECCAK256 PUSH0 DUP3 DUP2 MSTORE PUSH1 0x20 ADD SWAP1 DUP2 MSTORE PUSH1 0x20 ADD PUSH0 KECCAK256 PUSH0 PUSH0 DUP3 ADD PUSH0 SWAP1 SSTORE PUSH1 0x1 DUP3 ADD PUSH0 SWAP1 SSTORE PUSH1 0x2 DUP3 ADD PUSH0 PUSH2 0x100 EXP DUP2 SLOAD SWAP1 PUSH20 0xFFFFFFFFFFFFFFFFFFFFFFFFFFFFFFFFFFFFFFFF MUL NOT AND SWAP1 SSTORE PUSH1 0x3 DUP3 ADD PUSH0 SWAP1 SSTORE POP POP DUP1 DUP1 PUSH1 0x1 ADD SWAP2 POP POP PUSH2 0x1496 JUMP JUMPDEST POP DUP1 DUP1 PUSH1 0x1 ADD SWAP2 POP POP PUSH2 0x1488 JUMP JUMPDEST POP JUMP JUMPDEST PUSH1 0x76 PUSH0 SWAP1 SLOAD SWAP1 PUSH2 0x100 EXP SWAP1 DIV PUSH20 0xFFFFFFFFFFFFFFFFFFFFFFFFFFFFFFFFFFFFFFFF AND PUSH20 0xFFFFFFFFFFFFFFFFFFFFFFFFFFFFFFFFFFFFFFFF AND CALLER PUSH20 0xFFFFFFFFFFFFFFFFFFFFFFFFFFFFFFFFFFFFFFFF AND EQ PUSH2 0x15A9 JUMPI PUSH1 0x40 MLOAD PUSH32 0x8C379A000000000000000000000000000000000000000000000000000000000 DUP2 MSTORE PUSH1 0x4 ADD PUSH2 0x15A0 SWAP1 PUSH2 0x298E JUMP JUMPDEST PUSH1 0x40 MLOAD DUP1 SWAP2 SUB SWAP1 REVERT JUMPDEST PUSH1 0xC PUSH1 0x71 DUP1 SLOAD SWAP1 POP LT PUSH2 0x15F1 JUMPI PUSH1 0x40 MLOAD PUSH32 0x8C379A000000000000000000000000000000000000000000000000000000000 DUP2 MSTORE PUSH1 0x4 ADD PUSH2 0x15E8 SWAP1 PUSH2 0x3000 JUMP JUMPDEST PUSH1 0x40 MLOAD DUP1 SWAP2 SUB SWAP1 REVERT JUMPDEST PUSH0 PUSH0 SWAP1 POP JUMPDEST DUP2 MLOAD DUP2 LT ISZERO PUSH2 0x16E1 JUMPI PUSH1 0xC PUSH1 0x78 SLOAD LT PUSH2 0x1644 JUMPI PUSH1 0x40 MLOAD PUSH32 0x8C379A000000000000000000000000000000000000000000000000000000000 DUP2 MSTORE PUSH1 0x4 ADD PUSH2 0x163B SWAP1 PUSH2 0x3000 JUMP JUMPDEST PUSH1 0x40 MLOAD DUP1 SWAP2 SUB SWAP1 REVERT JUMPDEST PUSH1 0x71 PUSH1 0x40 MLOAD DUP1 PUSH1 0x40 ADD PUSH1 0x40 MSTORE DUP1 PUSH1 0x78 SLOAD DUP2 MSTORE PUSH1 0x20 ADD DUP5 DUP5 DUP2 MLOAD DUP2 LT PUSH2 0x166C JUMPI PUSH2 0x166B PUSH2 0x2C83 JUMP JUMPDEST JUMPDEST PUSH1 0x20 MUL PUSH1 0x20 ADD ADD MLOAD DUP2 MSTORE POP SWAP1 DUP1 PUSH1 0x1 DUP2 SLOAD ADD DUP1 DUP3 SSTORE DUP1 SWAP2 POP POP PUSH1 0x1 SWAP1 SUB SWAP1 PUSH0 MSTORE PUSH1 0x20 PUSH0 KECCAK256 SWAP1 PUSH1 0x2 MUL ADD PUSH0 SWAP1 SWAP2 SWAP1 SWAP2 SWAP1 SWAP2 POP PUSH0 DUP3 ADD MLOAD DUP2 PUSH0 ADD SSTORE PUSH1 0x20 DUP3 ADD MLOAD DUP2 PUSH1 0x1 ADD SWAP1 DUP2 PUSH2 0x16BA SWAP2 SWAP1 PUSH2 0x2BB4 JUMP JUMPDEST POP POP POP PUSH1 0x78 PUSH0 DUP2 SLOAD DUP1 SWAP3 SWAP2 SWAP1 PUSH2 0x16CF SWAP1 PUSH2 0x2CDD JUMP JUMPDEST SWAP2 SWAP1 POP SSTORE POP DUP1 DUP1 PUSH1 0x1 ADD SWAP2 POP POP PUSH2 0x15F6 JUMP JUMPDEST POP PUSH32 0x1DCFB77C5EDF55120B12AA71E216239CBC61CC7BCC656271AF2D2ECE9D005BDB DUP2 PUSH1 0x40 MLOAD PUSH2 0x1711 SWAP2 SWAP1 PUSH2 0x2F70 JUMP JUMPDEST PUSH1 0x40 MLOAD DUP1 SWAP2 SUB SWAP1 LOG1 POP JUMP JUMPDEST PUSH0 CALLER SWAP1 POP SWAP1 JUMP JUMPDEST PUSH2 0x1730 DUP4 DUP4 DUP4 PUSH1 0x1 PUSH2 0x18B7 JUMP JUMPDEST POP POP POP JUMP JUMPDEST PUSH0 PUSH2 0x1740 DUP5 DUP5 PUSH2 0x126C JUMP JUMPDEST SWAP1 POP PUSH32 0xFFFFFFFFFFFFFFFFFFFFFFFFFFFFFFFFFFFFFFFFFFFFFFFFFFFFFFFFFFFFFFFF DUP2 EQ PUSH2 0x17C1 JUMPI DUP2 DUP2 LT ISZERO PUSH2 0x17B2 JUMPI DUP3 DUP2 DUP4 PUSH1 0x40 MLOAD PUSH32 0xFB8F41B200000000000000000000000000000000000000000000000000000000 DUP2 MSTORE PUSH1 0x4 ADD PUSH2 0x17A9 SWAP4 SWAP3 SWAP2 SWAP1 PUSH2 0x301E JUMP JUMPDEST PUSH1 0x40 MLOAD DUP1 SWAP2 SUB SWAP1 REVERT JUMPDEST PUSH2 0x17C0 DUP5 DUP5 DUP5 DUP5 SUB PUSH0 PUSH2 0x18B7 JUMP JUMPDEST JUMPDEST POP POP POP POP JUMP JUMPDEST PUSH0 PUSH20 0xFFFFFFFFFFFFFFFFFFFFFFFFFFFFFFFFFFFFFFFF AND DUP4 PUSH20 0xFFFFFFFFFFFFFFFFFFFFFFFFFFFFFFFFFFFFFFFF AND SUB PUSH2 0x1837 JUMPI PUSH0 PUSH1 0x40 MLOAD PUSH32 0x96C6FD1E00000000000000000000000000000000000000000000000000000000 DUP2 MSTORE PUSH1 0x4 ADD PUSH2 0x182E SWAP2 SWAP1 PUSH2 0x251A JUMP JUMPDEST PUSH1 0x40 MLOAD DUP1 SWAP2 SUB SWAP1 REVERT JUMPDEST PUSH0 PUSH20 0xFFFFFFFFFFFFFFFFFFFFFFFFFFFFFFFFFFFFFFFF AND DUP3 PUSH20 0xFFFFFFFFFFFFFFFFFFFFFFFFFFFFFFFFFFFFFFFF AND SUB PUSH2 0x18A7 JUMPI PUSH0 PUSH1 0x40 MLOAD PUSH32 0xEC442F0500000000000000000000000000000000000000000000000000000000 DUP2 MSTORE PUSH1 0x4 ADD PUSH2 0x189E SWAP2 SWAP1 PUSH2 0x251A JUMP JUMPDEST PUSH1 0x40 MLOAD DUP1 SWAP2 SUB SWAP1 REVERT JUMPDEST PUSH2 0x18B2 DUP4 DUP4 DUP4 PUSH2 0x1A86 JUMP JUMPDEST POP POP POP JUMP JUMPDEST PUSH0 PUSH20 0xFFFFFFFFFFFFFFFFFFFFFFFFFFFFFFFFFFFFFFFF AND DUP5 PUSH20 0xFFFFFFFFFFFFFFFFFFFFFFFFFFFFFFFFFFFFFFFF AND SUB PUSH2 0x1927 JUMPI PUSH0 PUSH1 0x40 MLOAD PUSH32 0xE602DF0500000000000000000000000000000000000000000000000000000000 DUP2 MSTORE PUSH1 0x4 ADD PUSH2 0x191E SWAP2 SWAP1 PUSH2 0x251A JUMP JUMPDEST PUSH1 0x40 MLOAD DUP1 SWAP2 SUB SWAP1 REVERT JUMPDEST PUSH0 PUSH20 0xFFFFFFFFFFFFFFFFFFFFFFFFFFFFFFFFFFFFFFFF AND DUP4 PUSH20 0xFFFFFFFFFFFFFFFFFFFFFFFFFFFFFFFFFFFFFFFF AND SUB PUSH2 0x1997 JUMPI PUSH0 PUSH1 0x40 MLOAD PUSH32 0x94280D6200000000000000000000000000000000000000000000000000000000 DUP2 MSTORE PUSH1 0x4 ADD PUSH2 0x198E SWAP2 SWAP1 PUSH2 0x251A JUMP JUMPDEST PUSH1 0x40 MLOAD DUP1 SWAP2 SUB SWAP1 REVERT JUMPDEST DUP2 PUSH1 0x1 PUSH0 DUP7 PUSH20 0xFFFFFFFFFFFFFFFFFFFFFFFFFFFFFFFFFFFFFFFF AND PUSH20 0xFFFFFFFFFFFFFFFFFFFFFFFFFFFFFFFFFFFFFFFF AND DUP2 MSTORE PUSH1 0x20 ADD SWAP1 DUP2 MSTORE PUSH1 0x20 ADD PUSH0 KECCAK256 PUSH0 DUP6 PUSH20 0xFFFFFFFFFFFFFFFFFFFFFFFFFFFFFFFFFFFFFFFF AND PUSH20 0xFFFFFFFFFFFFFFFFFFFFFFFFFFFFFFFFFFFFFFFF AND DUP2 MSTORE PUSH1 0x20 ADD SWAP1 DUP2 MSTORE PUSH1 0x20 ADD PUSH0 KECCAK256 DUP2 SWAP1 SSTORE POP DUP1 ISZERO PUSH2 0x1A80 JUMPI DUP3 PUSH20 0xFFFFFFFFFFFFFFFFFFFFFFFFFFFFFFFFFFFFFFFF AND DUP5 PUSH20 0xFFFFFFFFFFFFFFFFFFFFFFFFFFFFFFFFFFFFFFFF AND PUSH32 0x8C5BE1E5EBEC7D5BD14F71427D1E84F3DD0314C0F7B2291E5B200AC8C7C3B925 DUP5 PUSH1 0x40 MLOAD PUSH2 0x1A77 SWAP2 SWAP1 PUSH2 0x20E6 JUMP JUMPDEST PUSH1 0x40 MLOAD DUP1 SWAP2 SUB SWAP1 LOG3 JUMPDEST POP POP POP POP JUMP JUMPDEST PUSH0 PUSH20 0xFFFFFFFFFFFFFFFFFFFFFFFFFFFFFFFFFFFFFFFF AND DUP4 PUSH20 0xFFFFFFFFFFFFFFFFFFFFFFFFFFFFFFFFFFFFFFFF AND SUB PUSH2 0x1AD6 JUMPI DUP1 PUSH1 0x2 PUSH0 DUP3 DUP3 SLOAD PUSH2 0x1ACA SWAP2 SWAP1 PUSH2 0x3053 JUMP JUMPDEST SWAP3 POP POP DUP2 SWAP1 SSTORE POP PUSH2 0x1BA4 JUMP JUMPDEST PUSH0 PUSH0 PUSH0 DUP6 PUSH20 0xFFFFFFFFFFFFFFFFFFFFFFFFFFFFFFFFFFFFFFFF AND PUSH20 0xFFFFFFFFFFFFFFFFFFFFFFFFFFFFFFFFFFFFFFFF AND DUP2 MSTORE PUSH1 0x20 ADD SWAP1 DUP2 MSTORE PUSH1 0x20 ADD PUSH0 KECCAK256 SLOAD SWAP1 POP DUP2 DUP2 LT ISZERO PUSH2 0x1B5F JUMPI DUP4 DUP2 DUP4 PUSH1 0x40 MLOAD PUSH32 0xE450D38C00000000000000000000000000000000000000000000000000000000 DUP2 MSTORE PUSH1 0x4 ADD PUSH2 0x1B56 SWAP4 SWAP3 SWAP2 SWAP1 PUSH2 0x301E JUMP JUMPDEST PUSH1 0x40 MLOAD DUP1 SWAP2 SUB SWAP1 REVERT JUMPDEST DUP2 DUP2 SUB PUSH0 PUSH0 DUP7 PUSH20 0xFFFFFFFFFFFFFFFFFFFFFFFFFFFFFFFFFFFFFFFF AND PUSH20 0xFFFFFFFFFFFFFFFFFFFFFFFFFFFFFFFFFFFFFFFF AND DUP2 MSTORE PUSH1 0x20 ADD SWAP1 DUP2 MSTORE PUSH1 0x20 ADD PUSH0 KECCAK256 DUP2 SWAP1 SSTORE POP POP JUMPDEST PUSH0 PUSH20 0xFFFFFFFFFFFFFFFFFFFFFFFFFFFFFFFFFFFFFFFF AND DUP3 PUSH20 0xFFFFFFFFFFFFFFFFFFFFFFFFFFFFFFFFFFFFFFFF AND SUB PUSH2 0x1BEB JUMPI DUP1 PUSH1 0x2 PUSH0 DUP3 DUP3 SLOAD SUB SWAP3 POP POP DUP2 SWAP1 SSTORE POP PUSH2 0x1C35 JUMP JUMPDEST DUP1 PUSH0 PUSH0 DUP5 PUSH20 0xFFFFFFFFFFFFFFFFFFFFFFFFFFFFFFFFFFFFFFFF AND PUSH20 0xFFFFFFFFFFFFFFFFFFFFFFFFFFFFFFFFFFFFFFFF AND DUP2 MSTORE PUSH1 0x20 ADD SWAP1 DUP2 MSTORE PUSH1 0x20 ADD PUSH0 KECCAK256 PUSH0 DUP3 DUP3 SLOAD ADD SWAP3 POP POP DUP2 SWAP1 SSTORE POP JUMPDEST DUP2 PUSH20 0xFFFFFFFFFFFFFFFFFFFFFFFFFFFFFFFFFFFFFFFF AND DUP4 PUSH20 0xFFFFFFFFFFFFFFFFFFFFFFFFFFFFFFFFFFFFFFFF AND PUSH32 0xDDF252AD1BE2C89B69C2B068FC378DAA952BA7F163C4A11628F55A4DF523B3EF DUP4 PUSH1 0x40 MLOAD PUSH2 0x1C92 SWAP2 SWAP1 PUSH2 0x20E6 JUMP JUMPDEST PUSH1 0x40 MLOAD DUP1 SWAP2 SUB SWAP1 LOG3 POP POP POP JUMP JUMPDEST POP DUP1 PUSH1 0x24 PUSH1 0x3 MUL ADD SWAP1 PUSH2 0x1CB2 SWAP2 SWAP1 PUSH2 0x1D18 JUMP JUMPDEST POP JUMP JUMPDEST POP DUP1 SLOAD PUSH0 DUP3 SSTORE PUSH1 0x2 MUL SWAP1 PUSH0 MSTORE PUSH1 0x20 PUSH0 KECCAK256 SWAP1 DUP2 ADD SWAP1 PUSH2 0x1CD3 SWAP2 SWAP1 PUSH2 0x1D6A JUMP JUMPDEST POP JUMP JUMPDEST POP DUP1 SLOAD PUSH0 DUP3 SSTORE PUSH1 0x2 MUL SWAP1 PUSH0 MSTORE PUSH1 0x20 PUSH0 KECCAK256 SWAP1 DUP2 ADD SWAP1 PUSH2 0x1CF4 SWAP2 SWAP1 PUSH2 0x1D96 JUMP JUMPDEST POP JUMP JUMPDEST POP DUP1 SLOAD PUSH0 DUP3 SSTORE PUSH1 0x4 MUL SWAP1 PUSH0 MSTORE PUSH1 0x20 PUSH0 KECCAK256 SWAP1 DUP2 ADD SWAP1 PUSH2 0x1D15 SWAP2 SWAP1 PUSH2 0x1DC2 JUMP JUMPDEST POP JUMP JUMPDEST JUMPDEST DUP1 DUP3 GT ISZERO PUSH2 0x1D66 JUMPI PUSH0 PUSH0 DUP3 ADD PUSH0 PUSH2 0x100 EXP DUP2 SLOAD SWAP1 PUSH20 0xFFFFFFFFFFFFFFFFFFFFFFFFFFFFFFFFFFFFFFFF MUL NOT AND SWAP1 SSTORE PUSH1 0x1 DUP3 ADD PUSH0 PUSH2 0x1D56 SWAP2 SWAP1 PUSH2 0x1E13 JUMP JUMPDEST PUSH1 0x2 DUP3 ADD PUSH0 SWAP1 SSTORE POP PUSH1 0x3 ADD PUSH2 0x1D19 JUMP JUMPDEST POP SWAP1 JUMP JUMPDEST JUMPDEST DUP1 DUP3 GT ISZERO PUSH2 0x1D92 JUMPI PUSH0 PUSH0 DUP3 ADD PUSH0 SWAP1 SSTORE PUSH1 0x1 DUP3 ADD PUSH0 PUSH2 0x1D89 SWAP2 SWAP1 PUSH2 0x1E13 JUMP JUMPDEST POP PUSH1 0x2 ADD PUSH2 0x1D6B JUMP JUMPDEST POP SWAP1 JUMP JUMPDEST JUMPDEST DUP1 DUP3 GT ISZERO PUSH2 0x1DBE JUMPI PUSH0 PUSH0 DUP3 ADD PUSH0 SWAP1 SSTORE PUSH1 0x1 DUP3 ADD PUSH0 PUSH2 0x1DB5 SWAP2 SWAP1 PUSH2 0x1E13 JUMP JUMPDEST POP PUSH1 0x2 ADD PUSH2 0x1D97 JUMP JUMPDEST POP SWAP1 JUMP JUMPDEST JUMPDEST DUP1 DUP3 GT ISZERO PUSH2 0x1E0F JUMPI PUSH0 PUSH0 DUP3 ADD PUSH0 SWAP1 SSTORE PUSH1 0x1 DUP3 ADD PUSH0 SWAP1 SSTORE PUSH1 0x2 DUP3 ADD PUSH0 PUSH2 0x100 EXP DUP2 SLOAD SWAP1 PUSH20 0xFFFFFFFFFFFFFFFFFFFFFFFFFFFFFFFFFFFFFFFF MUL NOT AND SWAP1 SSTORE PUSH1 0x3 DUP3 ADD PUSH0 SWAP1 SSTORE POP PUSH1 0x4 ADD PUSH2 0x1DC3 JUMP JUMPDEST POP SWAP1 JUMP JUMPDEST POP DUP1 SLOAD PUSH2 0x1E1F SWAP1 PUSH2 0x28AC JUMP JUMPDEST PUSH0 DUP3 SSTORE DUP1 PUSH1 0x1F LT PUSH2 0x1E30 JUMPI POP PUSH2 0x1E4D JUMP JUMPDEST PUSH1 0x1F ADD PUSH1 0x20 SWAP1 DIV SWAP1 PUSH0 MSTORE PUSH1 0x20 PUSH0 KECCAK256 SWAP1 DUP2 ADD SWAP1 PUSH2 0x1E4C SWAP2 SWAP1 PUSH2 0x1E50 JUMP JUMPDEST JUMPDEST POP JUMP JUMPDEST JUMPDEST DUP1 DUP3 GT ISZERO PUSH2 0x1E67 JUMPI PUSH0 DUP2 PUSH0 SWAP1 SSTORE POP PUSH1 0x1 ADD PUSH2 0x1E51 JUMP JUMPDEST POP SWAP1 JUMP JUMPDEST PUSH0 PUSH1 0x40 MLOAD SWAP1 POP SWAP1 JUMP JUMPDEST PUSH0 PUSH0 REVERT JUMPDEST PUSH0 PUSH0 REVERT JUMPDEST PUSH0 DUP2 SWAP1 POP SWAP2 SWAP1 POP JUMP JUMPDEST PUSH2 0x1E8E DUP2 PUSH2 0x1E7C JUMP JUMPDEST DUP2 EQ PUSH2 0x1E98 JUMPI PUSH0 PUSH0 REVERT JUMPDEST POP JUMP JUMPDEST PUSH0 DUP2 CALLDATALOAD SWAP1 POP PUSH2 0x1EA9 DUP2 PUSH2 0x1E85 JUMP JUMPDEST SWAP3 SWAP2 POP POP JUMP JUMPDEST PUSH0 PUSH0 PUSH0 PUSH1 0x60 DUP5 DUP7 SUB SLT ISZERO PUSH2 0x1EC6 JUMPI PUSH2 0x1EC5 PUSH2 0x1E74 JUMP JUMPDEST JUMPDEST PUSH0 PUSH2 0x1ED3 DUP7 DUP3 DUP8 ADD PUSH2 0x1E9B JUMP JUMPDEST SWAP4 POP POP PUSH1 0x20 PUSH2 0x1EE4 DUP7 DUP3 DUP8 ADD PUSH2 0x1E9B JUMP JUMPDEST SWAP3 POP POP PUSH1 0x40 PUSH2 0x1EF5 DUP7 DUP3 DUP8 ADD PUSH2 0x1E9B JUMP JUMPDEST SWAP2 POP POP SWAP3 POP SWAP3 POP SWAP3 JUMP JUMPDEST PUSH0 DUP2 MLOAD SWAP1 POP SWAP2 SWAP1 POP JUMP JUMPDEST PUSH0 DUP3 DUP3 MSTORE PUSH1 0x20 DUP3 ADD SWAP1 POP SWAP3 SWAP2 POP POP JUMP JUMPDEST DUP3 DUP2 DUP4 MCOPY PUSH0 DUP4 DUP4 ADD MSTORE POP POP POP JUMP JUMPDEST PUSH0 PUSH1 0x1F NOT PUSH1 0x1F DUP4 ADD AND SWAP1 POP SWAP2 SWAP1 POP JUMP JUMPDEST PUSH0 PUSH2 0x1F41 DUP3 PUSH2 0x1EFF JUMP JUMPDEST PUSH2 0x1F4B DUP2 DUP6 PUSH2 0x1F09 JUMP JUMPDEST SWAP4 POP PUSH2 0x1F5B DUP2 DUP6 PUSH1 0x20 DUP7 ADD PUSH2 0x1F19 JUMP JUMPDEST PUSH2 0x1F64 DUP2 PUSH2 0x1F27 JUMP JUMPDEST DUP5 ADD SWAP2 POP POP SWAP3 SWAP2 POP POP JUMP JUMPDEST PUSH0 PUSH1 0x20 DUP3 ADD SWAP1 POP DUP2 DUP2 SUB PUSH0 DUP4 ADD MSTORE PUSH2 0x1F87 DUP2 DUP5 PUSH2 0x1F37 JUMP JUMPDEST SWAP1 POP SWAP3 SWAP2 POP POP JUMP JUMPDEST PUSH0 PUSH20 0xFFFFFFFFFFFFFFFFFFFFFFFFFFFFFFFFFFFFFFFF DUP3 AND SWAP1 POP SWAP2 SWAP1 POP JUMP JUMPDEST PUSH0 PUSH2 0x1FB8 DUP3 PUSH2 0x1F8F JUMP JUMPDEST SWAP1 POP SWAP2 SWAP1 POP JUMP JUMPDEST PUSH2 0x1FC8 DUP2 PUSH2 0x1FAE JUMP JUMPDEST DUP2 EQ PUSH2 0x1FD2 JUMPI PUSH0 PUSH0 REVERT JUMPDEST POP JUMP JUMPDEST PUSH0 DUP2 CALLDATALOAD SWAP1 POP PUSH2 0x1FE3 DUP2 PUSH2 0x1FBF JUMP JUMPDEST SWAP3 SWAP2 POP POP JUMP JUMPDEST PUSH0 PUSH0 PUSH1 0x40 DUP4 DUP6 SUB SLT ISZERO PUSH2 0x1FFF JUMPI PUSH2 0x1FFE PUSH2 0x1E74 JUMP JUMPDEST JUMPDEST PUSH0 PUSH2 0x200C DUP6 DUP3 DUP7 ADD PUSH2 0x1FD5 JUMP JUMPDEST SWAP3 POP POP PUSH1 0x20 PUSH2 0x201D DUP6 DUP3 DUP7 ADD PUSH2 0x1E9B JUMP JUMPDEST SWAP2 POP POP SWAP3 POP SWAP3 SWAP1 POP JUMP JUMPDEST PUSH0 DUP2 ISZERO ISZERO SWAP1 POP SWAP2 SWAP1 POP JUMP JUMPDEST PUSH2 0x203B DUP2 PUSH2 0x2027 JUMP JUMPDEST DUP3 MSTORE POP POP JUMP JUMPDEST PUSH0 PUSH1 0x20 DUP3 ADD SWAP1 POP PUSH2 0x2054 PUSH0 DUP4 ADD DUP5 PUSH2 0x2032 JUMP JUMPDEST SWAP3 SWAP2 POP POP JUMP JUMPDEST PUSH0 PUSH1 0x20 DUP3 DUP5 SUB SLT ISZERO PUSH2 0x206F JUMPI PUSH2 0x206E PUSH2 0x1E74 JUMP JUMPDEST JUMPDEST PUSH0 PUSH2 0x207C DUP5 DUP3 DUP6 ADD PUSH2 0x1E9B JUMP JUMPDEST SWAP2 POP POP SWAP3 SWAP2 POP POP JUMP JUMPDEST PUSH2 0x208E DUP2 PUSH2 0x1E7C JUMP JUMPDEST DUP3 MSTORE POP POP JUMP JUMPDEST PUSH2 0x209D DUP2 PUSH2 0x1FAE JUMP JUMPDEST DUP3 MSTORE POP POP JUMP JUMPDEST PUSH0 PUSH1 0x80 DUP3 ADD SWAP1 POP PUSH2 0x20B6 PUSH0 DUP4 ADD DUP8 PUSH2 0x2085 JUMP JUMPDEST PUSH2 0x20C3 PUSH1 0x20 DUP4 ADD DUP7 PUSH2 0x2085 JUMP JUMPDEST PUSH2 0x20D0 PUSH1 0x40 DUP4 ADD DUP6 PUSH2 0x2094 JUMP JUMPDEST PUSH2 0x20DD PUSH1 0x60 DUP4 ADD DUP5 PUSH2 0x2085 JUMP JUMPDEST SWAP6 SWAP5 POP POP POP POP POP JUMP JUMPDEST PUSH0 PUSH1 0x20 DUP3 ADD SWAP1 POP PUSH2 0x20F9 PUSH0 DUP4 ADD DUP5 PUSH2 0x2085 JUMP JUMPDEST SWAP3 SWAP2 POP POP JUMP JUMPDEST PUSH0 PUSH1 0x20 DUP3 DUP5 SUB SLT ISZERO PUSH2 0x2114 JUMPI PUSH2 0x2113 PUSH2 0x1E74 JUMP JUMPDEST JUMPDEST PUSH0 PUSH2 0x2121 DUP5 DUP3 DUP6 ADD PUSH2 0x1FD5 JUMP JUMPDEST SWAP2 POP POP SWAP3 SWAP2 POP POP JUMP JUMPDEST PUSH0 PUSH1 0x60 DUP3 ADD SWAP1 POP PUSH2 0x213D PUSH0 DUP4 ADD DUP7 PUSH2 0x2094 JUMP JUMPDEST DUP2 DUP2 SUB PUSH1 0x20 DUP4 ADD MSTORE PUSH2 0x214F DUP2 DUP6 PUSH2 0x1F37 JUMP JUMPDEST SWAP1 POP PUSH2 0x215E PUSH1 0x40 DUP4 ADD DUP5 PUSH2 0x2085 JUMP JUMPDEST SWAP5 SWAP4 POP POP POP POP JUMP JUMPDEST PUSH0 PUSH0 PUSH0 PUSH1 0x60 DUP5 DUP7 SUB SLT ISZERO PUSH2 0x217D JUMPI PUSH2 0x217C PUSH2 0x1E74 JUMP JUMPDEST JUMPDEST PUSH0 PUSH2 0x218A DUP7 DUP3 DUP8 ADD PUSH2 0x1FD5 JUMP JUMPDEST SWAP4 POP POP PUSH1 0x20 PUSH2 0x219B DUP7 DUP3 DUP8 ADD PUSH2 0x1FD5 JUMP JUMPDEST SWAP3 POP POP PUSH1 0x40 PUSH2 0x21AC DUP7 DUP3 DUP8 ADD PUSH2 0x1E9B JUMP JUMPDEST SWAP2 POP POP SWAP3 POP SWAP3 POP SWAP3 JUMP JUMPDEST PUSH0 PUSH1 0xFF DUP3 AND SWAP1 POP SWAP2 SWAP1 POP JUMP JUMPDEST PUSH2 0x21CB DUP2 PUSH2 0x21B6 JUMP JUMPDEST DUP3 MSTORE POP POP JUMP JUMPDEST PUSH0 PUSH1 0x20 DUP3 ADD SWAP1 POP PUSH2 0x21E4 PUSH0 DUP4 ADD DUP5 PUSH2 0x21C2 JUMP JUMPDEST SWAP3 SWAP2 POP POP JUMP JUMPDEST PUSH0 DUP2 MLOAD SWAP1 POP SWAP2 SWAP1 POP JUMP JUMPDEST PUSH0 DUP3 DUP3 MSTORE PUSH1 0x20 DUP3 ADD SWAP1 POP SWAP3 SWAP2 POP POP JUMP JUMPDEST PUSH0 DUP2 SWAP1 POP PUSH1 0x20 DUP3 ADD SWAP1 POP SWAP2 SWAP1 POP JUMP JUMPDEST PUSH2 0x221C DUP2 PUSH2 0x1E7C JUMP JUMPDEST DUP3 MSTORE POP POP JUMP JUMPDEST PUSH0 DUP3 DUP3 MSTORE PUSH1 0x20 DUP3 ADD SWAP1 POP SWAP3 SWAP2 POP POP JUMP JUMPDEST PUSH0 PUSH2 0x223C DUP3 PUSH2 0x1EFF JUMP JUMPDEST PUSH2 0x2246 DUP2 DUP6 PUSH2 0x2222 JUMP JUMPDEST SWAP4 POP PUSH2 0x2256 DUP2 DUP6 PUSH1 0x20 DUP7 ADD PUSH2 0x1F19 JUMP JUMPDEST PUSH2 0x225F DUP2 PUSH2 0x1F27 JUMP JUMPDEST DUP5 ADD SWAP2 POP POP SWAP3 SWAP2 POP POP JUMP JUMPDEST PUSH0 PUSH1 0x40 DUP4 ADD PUSH0 DUP4 ADD MLOAD PUSH2 0x227F PUSH0 DUP7 ADD DUP3 PUSH2 0x2213 JUMP JUMPDEST POP PUSH1 0x20 DUP4 ADD MLOAD DUP5 DUP3 SUB PUSH1 0x20 DUP7 ADD MSTORE PUSH2 0x2297 DUP3 DUP3 PUSH2 0x2232 JUMP JUMPDEST SWAP2 POP POP DUP1 SWAP2 POP POP SWAP3 SWAP2 POP POP JUMP JUMPDEST PUSH0 PUSH2 0x22AF DUP4 DUP4 PUSH2 0x226A JUMP JUMPDEST SWAP1 POP SWAP3 SWAP2 POP POP JUMP JUMPDEST PUSH0 PUSH1 0x20 DUP3 ADD SWAP1 POP SWAP2 SWAP1 POP JUMP JUMPDEST PUSH0 PUSH2 0x22CD DUP3 PUSH2 0x21EA JUMP JUMPDEST PUSH2 0x22D7 DUP2 DUP6 PUSH2 0x21F4 JUMP JUMPDEST SWAP4 POP DUP4 PUSH1 0x20 DUP3 MUL DUP6 ADD PUSH2 0x22E9 DUP6 PUSH2 0x2204 JUMP JUMPDEST DUP1 PUSH0 JUMPDEST DUP6 DUP2 LT ISZERO PUSH2 0x2324 JUMPI DUP5 DUP5 SUB DUP10 MSTORE DUP2 MLOAD PUSH2 0x2305 DUP6 DUP3 PUSH2 0x22A4 JUMP JUMPDEST SWAP5 POP PUSH2 0x2310 DUP4 PUSH2 0x22B7 JUMP JUMPDEST SWAP3 POP PUSH1 0x20 DUP11 ADD SWAP10 POP POP PUSH1 0x1 DUP2 ADD SWAP1 POP PUSH2 0x22EC JUMP JUMPDEST POP DUP3 SWAP8 POP DUP8 SWAP6 POP POP POP POP POP POP SWAP3 SWAP2 POP POP JUMP JUMPDEST PUSH0 PUSH1 0x20 DUP3 ADD SWAP1 POP DUP2 DUP2 SUB PUSH0 DUP4 ADD MSTORE PUSH2 0x234E DUP2 DUP5 PUSH2 0x22C3 JUMP JUMPDEST SWAP1 POP SWAP3 SWAP2 POP POP JUMP JUMPDEST PUSH0 PUSH0 REVERT JUMPDEST PUSH0 PUSH0 REVERT JUMPDEST PUSH32 0x4E487B7100000000000000000000000000000000000000000000000000000000 PUSH0 MSTORE PUSH1 0x41 PUSH1 0x4 MSTORE PUSH1 0x24 PUSH0 REVERT JUMPDEST PUSH2 0x2394 DUP3 PUSH2 0x1F27 JUMP JUMPDEST DUP2 ADD DUP2 DUP2 LT PUSH8 0xFFFFFFFFFFFFFFFF DUP3 GT OR ISZERO PUSH2 0x23B3 JUMPI PUSH2 0x23B2 PUSH2 0x235E JUMP JUMPDEST JUMPDEST DUP1 PUSH1 0x40 MSTORE POP POP POP JUMP JUMPDEST PUSH0 PUSH2 0x23C5 PUSH2 0x1E6B JUMP JUMPDEST SWAP1 POP PUSH2 0x23D1 DUP3 DUP3 PUSH2 0x238B JUMP JUMPDEST SWAP2 SWAP1 POP JUMP JUMPDEST PUSH0 PUSH8 0xFFFFFFFFFFFFFFFF DUP3 GT ISZERO PUSH2 0x23F0 JUMPI PUSH2 0x23EF PUSH2 0x235E JUMP JUMPDEST JUMPDEST PUSH2 0x23F9 DUP3 PUSH2 0x1F27 JUMP JUMPDEST SWAP1 POP PUSH1 0x20 DUP2 ADD SWAP1 POP SWAP2 SWAP1 POP JUMP JUMPDEST DUP3 DUP2 DUP4 CALLDATACOPY PUSH0 DUP4 DUP4 ADD MSTORE POP POP POP JUMP JUMPDEST PUSH0 PUSH2 0x2426 PUSH2 0x2421 DUP5 PUSH2 0x23D6 JUMP JUMPDEST PUSH2 0x23BC JUMP JUMPDEST SWAP1 POP DUP3 DUP2 MSTORE PUSH1 0x20 DUP2 ADD DUP5 DUP5 DUP5 ADD GT ISZERO PUSH2 0x2442 JUMPI PUSH2 0x2441 PUSH2 0x235A JUMP JUMPDEST JUMPDEST PUSH2 0x244D DUP5 DUP3 DUP6 PUSH2 0x2406 JUMP JUMPDEST POP SWAP4 SWAP3 POP POP POP JUMP JUMPDEST PUSH0 DUP3 PUSH1 0x1F DUP4 ADD SLT PUSH2 0x2469 JUMPI PUSH2 0x2468 PUSH2 0x2356 JUMP JUMPDEST JUMPDEST DUP2 CALLDATALOAD PUSH2 0x2479 DUP5 DUP3 PUSH1 0x20 DUP7 ADD PUSH2 0x2414 JUMP JUMPDEST SWAP2 POP POP SWAP3 SWAP2 POP POP JUMP JUMPDEST PUSH0 PUSH0 PUSH1 0x40 DUP4 DUP6 SUB SLT ISZERO PUSH2 0x2498 JUMPI PUSH2 0x2497 PUSH2 0x1E74 JUMP JUMPDEST JUMPDEST PUSH0 DUP4 ADD CALLDATALOAD PUSH8 0xFFFFFFFFFFFFFFFF DUP2 GT ISZERO PUSH2 0x24B5 JUMPI PUSH2 0x24B4 PUSH2 0x1E78 JUMP JUMPDEST JUMPDEST PUSH2 0x24C1 DUP6 DUP3 DUP7 ADD PUSH2 0x2455 JUMP JUMPDEST SWAP3 POP POP PUSH1 0x20 PUSH2 0x24D2 DUP6 DUP3 DUP7 ADD PUSH2 0x1E9B JUMP JUMPDEST SWAP2 POP POP SWAP3 POP SWAP3 SWAP1 POP JUMP JUMPDEST PUSH0 PUSH0 PUSH1 0x40 DUP4 DUP6 SUB SLT ISZERO PUSH2 0x24F2 JUMPI PUSH2 0x24F1 PUSH2 0x1E74 JUMP JUMPDEST JUMPDEST PUSH0 PUSH2 0x24FF DUP6 DUP3 DUP7 ADD PUSH2 0x1E9B JUMP JUMPDEST SWAP3 POP POP PUSH1 0x20 PUSH2 0x2510 DUP6 DUP3 DUP7 ADD PUSH2 0x1E9B JUMP JUMPDEST SWAP2 POP POP SWAP3 POP SWAP3 SWAP1 POP JUMP JUMPDEST PUSH0 PUSH1 0x20 DUP3 ADD SWAP1 POP PUSH2 0x252D PUSH0 DUP4 ADD DUP5 PUSH2 0x2094 JUMP JUMPDEST SWAP3 SWAP2 POP POP JUMP JUMPDEST PUSH0 DUP2 MLOAD SWAP1 POP SWAP2 SWAP1 POP JUMP JUMPDEST PUSH0 DUP3 DUP3 MSTORE PUSH1 0x20 DUP3 ADD SWAP1 POP SWAP3 SWAP2 POP POP JUMP JUMPDEST PUSH0 DUP2 SWAP1 POP PUSH1 0x20 DUP3 ADD SWAP1 POP SWAP2 SWAP1 POP JUMP JUMPDEST PUSH0 PUSH1 0x40 DUP4 ADD PUSH0 DUP4 ADD MLOAD PUSH2 0x2571 PUSH0 DUP7 ADD DUP3 PUSH2 0x2213 JUMP JUMPDEST POP PUSH1 0x20 DUP4 ADD MLOAD DUP5 DUP3 SUB PUSH1 0x20 DUP7 ADD MSTORE PUSH2 0x2589 DUP3 DUP3 PUSH2 0x2232 JUMP JUMPDEST SWAP2 POP POP DUP1 SWAP2 POP POP SWAP3 SWAP2 POP POP JUMP JUMPDEST PUSH0 PUSH2 0x25A1 DUP4 DUP4 PUSH2 0x255C JUMP JUMPDEST SWAP1 POP SWAP3 SWAP2 POP POP JUMP JUMPDEST PUSH0 PUSH1 0x20 DUP3 ADD SWAP1 POP SWAP2 SWAP1 POP JUMP JUMPDEST PUSH0 PUSH2 0x25BF DUP3 PUSH2 0x2533 JUMP JUMPDEST PUSH2 0x25C9 DUP2 DUP6 PUSH2 0x253D JUMP JUMPDEST SWAP4 POP DUP4 PUSH1 0x20 DUP3 MUL DUP6 ADD PUSH2 0x25DB DUP6 PUSH2 0x254D JUMP JUMPDEST DUP1 PUSH0 JUMPDEST DUP6 DUP2 LT ISZERO PUSH2 0x2616 JUMPI DUP5 DUP5 SUB DUP10 MSTORE DUP2 MLOAD PUSH2 0x25F7 DUP6 DUP3 PUSH2 0x2596 JUMP JUMPDEST SWAP5 POP PUSH2 0x2602 DUP4 PUSH2 0x25A9 JUMP JUMPDEST SWAP3 POP PUSH1 0x20 DUP11 ADD SWAP10 POP POP PUSH1 0x1 DUP2 ADD SWAP1 POP PUSH2 0x25DE JUMP JUMPDEST POP DUP3 SWAP8 POP DUP8 SWAP6 POP POP POP POP POP POP SWAP3 SWAP2 POP POP JUMP JUMPDEST PUSH0 PUSH1 0x20 DUP3 ADD SWAP1 POP DUP2 DUP2 SUB PUSH0 DUP4 ADD MSTORE PUSH2 0x2640 DUP2 DUP5 PUSH2 0x25B5 JUMP JUMPDEST SWAP1 POP SWAP3 SWAP2 POP POP JUMP JUMPDEST PUSH0 PUSH8 0xFFFFFFFFFFFFFFFF DUP3 GT ISZERO PUSH2 0x2662 JUMPI PUSH2 0x2661 PUSH2 0x235E JUMP JUMPDEST JUMPDEST PUSH1 0x20 DUP3 MUL SWAP1 POP PUSH1 0x20 DUP2 ADD SWAP1 POP SWAP2 SWAP1 POP JUMP JUMPDEST PUSH0 PUSH0 REVERT JUMPDEST PUSH0 PUSH2 0x2689 PUSH2 0x2684 DUP5 PUSH2 0x2648 JUMP JUMPDEST PUSH2 0x23BC JUMP JUMPDEST SWAP1 POP DUP1 DUP4 DUP3 MSTORE PUSH1 0x20 DUP3 ADD SWAP1 POP PUSH1 0x20 DUP5 MUL DUP4 ADD DUP6 DUP2 GT ISZERO PUSH2 0x26AC JUMPI PUSH2 0x26AB PUSH2 0x2673 JUMP JUMPDEST JUMPDEST DUP4 JUMPDEST DUP2 DUP2 LT ISZERO PUSH2 0x26F3 JUMPI DUP1 CALLDATALOAD PUSH8 0xFFFFFFFFFFFFFFFF DUP2 GT ISZERO PUSH2 0x26D1 JUMPI PUSH2 0x26D0 PUSH2 0x2356 JUMP JUMPDEST JUMPDEST DUP1 DUP7 ADD PUSH2 0x26DE DUP10 DUP3 PUSH2 0x2455 JUMP JUMPDEST DUP6 MSTORE PUSH1 0x20 DUP6 ADD SWAP5 POP POP POP PUSH1 0x20 DUP2 ADD SWAP1 POP PUSH2 0x26AE JUMP JUMPDEST POP POP POP SWAP4 SWAP3 POP POP POP JUMP JUMPDEST PUSH0 DUP3 PUSH1 0x1F DUP4 ADD SLT PUSH2 0x2711 JUMPI PUSH2 0x2710 PUSH2 0x2356 JUMP JUMPDEST JUMPDEST DUP2 CALLDATALOAD PUSH2 0x2721 DUP5 DUP3 PUSH1 0x20 DUP7 ADD PUSH2 0x2677 JUMP JUMPDEST SWAP2 POP POP SWAP3 SWAP2 POP POP JUMP JUMPDEST PUSH0 PUSH1 0x20 DUP3 DUP5 SUB SLT ISZERO PUSH2 0x273F JUMPI PUSH2 0x273E PUSH2 0x1E74 JUMP JUMPDEST JUMPDEST PUSH0 DUP3 ADD CALLDATALOAD PUSH8 0xFFFFFFFFFFFFFFFF DUP2 GT ISZERO PUSH2 0x275C JUMPI PUSH2 0x275B PUSH2 0x1E78 JUMP JUMPDEST JUMPDEST PUSH2 0x2768 DUP5 DUP3 DUP6 ADD PUSH2 0x26FD JUMP JUMPDEST SWAP2 POP POP SWAP3 SWAP2 POP POP JUMP JUMPDEST PUSH0 PUSH0 PUSH1 0x40 DUP4 DUP6 SUB SLT ISZERO PUSH2 0x2787 JUMPI PUSH2 0x2786 PUSH2 0x1E74 JUMP JUMPDEST JUMPDEST PUSH0 PUSH2 0x2794 DUP6 DUP3 DUP7 ADD PUSH2 0x1FD5 JUMP JUMPDEST SWAP3 POP POP PUSH1 0x20 PUSH2 0x27A5 DUP6 DUP3 DUP7 ADD PUSH2 0x1FD5 JUMP JUMPDEST SWAP2 POP POP SWAP3 POP SWAP3 SWAP1 POP JUMP JUMPDEST PUSH32 0x536F6D656E7465206A757261646F7320706F64656D2072656769737472617200 PUSH0 DUP3 ADD MSTORE POP JUMP JUMPDEST PUSH0 PUSH2 0x27E3 PUSH1 0x1F DUP4 PUSH2 0x1F09 JUMP JUMPDEST SWAP2 POP PUSH2 0x27EE DUP3 PUSH2 0x27AF JUMP JUMPDEST PUSH1 0x20 DUP3 ADD SWAP1 POP SWAP2 SWAP1 POP JUMP JUMPDEST PUSH0 PUSH1 0x20 DUP3 ADD SWAP1 POP DUP2 DUP2 SUB PUSH0 DUP4 ADD MSTORE PUSH2 0x2810 DUP2 PUSH2 0x27D7 JUMP JUMPDEST SWAP1 POP SWAP2 SWAP1 POP JUMP JUMPDEST PUSH32 0x4E6F746120696D706F73736976656C0000000000000000000000000000000000 PUSH0 DUP3 ADD MSTORE POP JUMP JUMPDEST PUSH0 PUSH2 0x284B PUSH1 0xF DUP4 PUSH2 0x1F09 JUMP JUMPDEST SWAP2 POP PUSH2 0x2856 DUP3 PUSH2 0x2817 JUMP JUMPDEST PUSH1 0x20 DUP3 ADD SWAP1 POP SWAP2 SWAP1 POP JUMP JUMPDEST PUSH0 PUSH1 0x20 DUP3 ADD SWAP1 POP DUP2 DUP2 SUB PUSH0 DUP4 ADD MSTORE PUSH2 0x2878 DUP2 PUSH2 0x283F JUMP JUMPDEST SWAP1 POP SWAP2 SWAP1 POP JUMP JUMPDEST PUSH32 0x4E487B7100000000000000000000000000000000000000000000000000000000 PUSH0 MSTORE PUSH1 0x22 PUSH1 0x4 MSTORE PUSH1 0x24 PUSH0 REVERT JUMPDEST PUSH0 PUSH1 0x2 DUP3 DIV SWAP1 POP PUSH1 0x1 DUP3 AND DUP1 PUSH2 0x28C3 JUMPI PUSH1 0x7F DUP3 AND SWAP2 POP JUMPDEST PUSH1 0x20 DUP3 LT DUP2 SUB PUSH2 0x28D6 JUMPI PUSH2 0x28D5 PUSH2 0x287F JUMP JUMPDEST JUMPDEST POP SWAP2 SWAP1 POP JUMP JUMPDEST PUSH32 0x4E6F207175657369746F7320666F756E64000000000000000000000000000000 PUSH0 DUP3 ADD MSTORE POP JUMP JUMPDEST PUSH0 PUSH2 0x2910 PUSH1 0x11 DUP4 PUSH2 0x1F09 JUMP JUMPDEST SWAP2 POP PUSH2 0x291B DUP3 PUSH2 0x28DC JUMP JUMPDEST PUSH1 0x20 DUP3 ADD SWAP1 POP SWAP2 SWAP1 POP JUMP JUMPDEST PUSH0 PUSH1 0x20 DUP3 ADD SWAP1 POP DUP2 DUP2 SUB PUSH0 DUP4 ADD MSTORE PUSH2 0x293D DUP2 PUSH2 0x2904 JUMP JUMPDEST SWAP1 POP SWAP2 SWAP1 POP JUMP JUMPDEST PUSH32 0x41636573736F20726573747269746F20616F2070726F70726965746172696F00 PUSH0 DUP3 ADD MSTORE POP JUMP JUMPDEST PUSH0 PUSH2 0x2978 PUSH1 0x1F DUP4 PUSH2 0x1F09 JUMP JUMPDEST SWAP2 POP PUSH2 0x2983 DUP3 PUSH2 0x2944 JUMP JUMPDEST PUSH1 0x20 DUP3 ADD SWAP1 POP SWAP2 SWAP1 POP JUMP JUMPDEST PUSH0 PUSH1 0x20 DUP3 ADD SWAP1 POP DUP2 DUP2 SUB PUSH0 DUP4 ADD MSTORE PUSH2 0x29A5 DUP2 PUSH2 0x296C JUMP JUMPDEST SWAP1 POP SWAP2 SWAP1 POP JUMP JUMPDEST PUSH32 0x5175616E746964616465206D6178696D61206465206A757261646F7300000000 PUSH0 DUP3 ADD MSTORE POP JUMP JUMPDEST PUSH0 PUSH2 0x29E0 PUSH1 0x1C DUP4 PUSH2 0x1F09 JUMP JUMPDEST SWAP2 POP PUSH2 0x29EB DUP3 PUSH2 0x29AC JUMP JUMPDEST PUSH1 0x20 DUP3 ADD SWAP1 POP SWAP2 SWAP1 POP JUMP JUMPDEST PUSH0 PUSH1 0x20 DUP3 ADD SWAP1 POP DUP2 DUP2 SUB PUSH0 DUP4 ADD MSTORE PUSH2 0x2A0D DUP2 PUSH2 0x29D4 JUMP JUMPDEST SWAP1 POP SWAP2 SWAP1 POP JUMP JUMPDEST PUSH0 DUP2 SWAP1 POP DUP2 PUSH0 MSTORE PUSH1 0x20 PUSH0 KECCAK256 SWAP1 POP SWAP2 SWAP1 POP JUMP JUMPDEST PUSH0 PUSH1 0x20 PUSH1 0x1F DUP4 ADD DIV SWAP1 POP SWAP2 SWAP1 POP JUMP JUMPDEST PUSH0 DUP3 DUP3 SHL SWAP1 POP SWAP3 SWAP2 POP POP JUMP JUMPDEST PUSH0 PUSH1 0x8 DUP4 MUL PUSH2 0x2A70 PUSH32 0xFFFFFFFFFFFFFFFFFFFFFFFFFFFFFFFFFFFFFFFFFFFFFFFFFFFFFFFFFFFFFFFF DUP3 PUSH2 0x2A35 JUMP JUMPDEST PUSH2 0x2A7A DUP7 DUP4 PUSH2 0x2A35 JUMP JUMPDEST SWAP6 POP DUP1 NOT DUP5 AND SWAP4 POP DUP1 DUP7 AND DUP5 OR SWAP3 POP POP POP SWAP4 SWAP3 POP POP POP JUMP JUMPDEST PUSH0 DUP2 SWAP1 POP SWAP2 SWAP1 POP JUMP JUMPDEST PUSH0 PUSH2 0x2AB5 PUSH2 0x2AB0 PUSH2 0x2AAB DUP5 PUSH2 0x1E7C JUMP JUMPDEST PUSH2 0x2A92 JUMP JUMPDEST PUSH2 0x1E7C JUMP JUMPDEST SWAP1 POP SWAP2 SWAP1 POP JUMP JUMPDEST PUSH0 DUP2 SWAP1 POP SWAP2 SWAP1 POP JUMP JUMPDEST PUSH2 0x2ACE DUP4 PUSH2 0x2A9B JUMP JUMPDEST PUSH2 0x2AE2 PUSH2 0x2ADA DUP3 PUSH2 0x2ABC JUMP JUMPDEST DUP5 DUP5 SLOAD PUSH2 0x2A41 JUMP JUMPDEST DUP3 SSTORE POP POP POP POP JUMP JUMPDEST PUSH0 PUSH0 SWAP1 POP SWAP1 JUMP JUMPDEST PUSH2 0x2AF9 PUSH2 0x2AEA JUMP JUMPDEST PUSH2 0x2B04 DUP2 DUP5 DUP5 PUSH2 0x2AC5 JUMP JUMPDEST POP POP POP JUMP JUMPDEST JUMPDEST DUP2 DUP2 LT ISZERO PUSH2 0x2B27 JUMPI PUSH2 0x2B1C PUSH0 DUP3 PUSH2 0x2AF1 JUMP JUMPDEST PUSH1 0x1 DUP2 ADD SWAP1 POP PUSH2 0x2B0A JUMP JUMPDEST POP POP JUMP JUMPDEST PUSH1 0x1F DUP3 GT ISZERO PUSH2 0x2B6C JUMPI PUSH2 0x2B3D DUP2 PUSH2 0x2A14 JUMP JUMPDEST PUSH2 0x2B46 DUP5 PUSH2 0x2A26 JUMP JUMPDEST DUP2 ADD PUSH1 0x20 DUP6 LT ISZERO PUSH2 0x2B55 JUMPI DUP2 SWAP1 POP JUMPDEST PUSH2 0x2B69 PUSH2 0x2B61 DUP6 PUSH2 0x2A26 JUMP JUMPDEST DUP4 ADD DUP3 PUSH2 0x2B09 JUMP JUMPDEST POP POP JUMPDEST POP POP POP JUMP JUMPDEST PUSH0 DUP3 DUP3 SHR SWAP1 POP SWAP3 SWAP2 POP POP JUMP JUMPDEST PUSH0 PUSH2 0x2B8C PUSH0 NOT DUP5 PUSH1 0x8 MUL PUSH2 0x2B71 JUMP JUMPDEST NOT DUP1 DUP4 AND SWAP2 POP POP SWAP3 SWAP2 POP POP JUMP JUMPDEST PUSH0 PUSH2 0x2BA4 DUP4 DUP4 PUSH2 0x2B7D JUMP JUMPDEST SWAP2 POP DUP3 PUSH1 0x2 MUL DUP3 OR SWAP1 POP SWAP3 SWAP2 POP POP JUMP JUMPDEST PUSH2 0x2BBD DUP3 PUSH2 0x1EFF JUMP JUMPDEST PUSH8 0xFFFFFFFFFFFFFFFF DUP2 GT ISZERO PUSH2 0x2BD6 JUMPI PUSH2 0x2BD5 PUSH2 0x235E JUMP JUMPDEST JUMPDEST PUSH2 0x2BE0 DUP3 SLOAD PUSH2 0x28AC JUMP JUMPDEST PUSH2 0x2BEB DUP3 DUP3 DUP6 PUSH2 0x2B2B JUMP JUMPDEST PUSH0 PUSH1 0x20 SWAP1 POP PUSH1 0x1F DUP4 GT PUSH1 0x1 DUP2 EQ PUSH2 0x2C1C JUMPI PUSH0 DUP5 ISZERO PUSH2 0x2C0A JUMPI DUP3 DUP8 ADD MLOAD SWAP1 POP JUMPDEST PUSH2 0x2C14 DUP6 DUP3 PUSH2 0x2B99 JUMP JUMPDEST DUP7 SSTORE POP PUSH2 0x2C7B JUMP JUMPDEST PUSH1 0x1F NOT DUP5 AND PUSH2 0x2C2A DUP7 PUSH2 0x2A14 JUMP JUMPDEST PUSH0 JUMPDEST DUP3 DUP2 LT ISZERO PUSH2 0x2C51 JUMPI DUP5 DUP10 ADD MLOAD DUP3 SSTORE PUSH1 0x1 DUP3 ADD SWAP2 POP PUSH1 0x20 DUP6 ADD SWAP5 POP PUSH1 0x20 DUP2 ADD SWAP1 POP PUSH2 0x2C2C JUMP JUMPDEST DUP7 DUP4 LT ISZERO PUSH2 0x2C6E JUMPI DUP5 DUP10 ADD MLOAD PUSH2 0x2C6A PUSH1 0x1F DUP10 AND DUP3 PUSH2 0x2B7D JUMP JUMPDEST DUP4 SSTORE POP JUMPDEST PUSH1 0x1 PUSH1 0x2 DUP9 MUL ADD DUP9 SSTORE POP POP POP JUMPDEST POP POP POP POP POP POP JUMP JUMPDEST PUSH32 0x4E487B7100000000000000000000000000000000000000000000000000000000 PUSH0 MSTORE PUSH1 0x32 PUSH1 0x4 MSTORE PUSH1 0x24 PUSH0 REVERT JUMPDEST PUSH32 0x4E487B7100000000000000000000000000000000000000000000000000000000 PUSH0 MSTORE PUSH1 0x11 PUSH1 0x4 MSTORE PUSH1 0x24 PUSH0 REVERT JUMPDEST PUSH0 PUSH2 0x2CE7 DUP3 PUSH2 0x1E7C JUMP JUMPDEST SWAP2 POP PUSH32 0xFFFFFFFFFFFFFFFFFFFFFFFFFFFFFFFFFFFFFFFFFFFFFFFFFFFFFFFFFFFFFFFF DUP3 SUB PUSH2 0x2D19 JUMPI PUSH2 0x2D18 PUSH2 0x2CB0 JUMP JUMPDEST JUMPDEST PUSH1 0x1 DUP3 ADD SWAP1 POP SWAP2 SWAP1 POP JUMP JUMPDEST PUSH0 PUSH2 0x2D2E DUP3 PUSH2 0x1E7C JUMP JUMPDEST SWAP2 POP PUSH2 0x2D39 DUP4 PUSH2 0x1E7C JUMP JUMPDEST SWAP3 POP DUP3 DUP3 SUB SWAP1 POP DUP2 DUP2 GT ISZERO PUSH2 0x2D51 JUMPI PUSH2 0x2D50 PUSH2 0x2CB0 JUMP JUMPDEST JUMPDEST SWAP3 SWAP2 POP POP JUMP JUMPDEST PUSH32 0x4E6F7461206E616F20656E636F6E747261646100000000000000000000000000 PUSH0 DUP3 ADD MSTORE POP JUMP JUMPDEST PUSH0 PUSH2 0x2D8B PUSH1 0x13 DUP4 PUSH2 0x1F09 JUMP JUMPDEST SWAP2 POP PUSH2 0x2D96 DUP3 PUSH2 0x2D57 JUMP JUMPDEST PUSH1 0x20 DUP3 ADD SWAP1 POP SWAP2 SWAP1 POP JUMP JUMPDEST PUSH0 PUSH1 0x20 DUP3 ADD SWAP1 POP DUP2 DUP2 SUB PUSH0 DUP4 ADD MSTORE PUSH2 0x2DB8 DUP2 PUSH2 0x2D7F JUMP JUMPDEST SWAP1 POP SWAP2 SWAP1 POP JUMP JUMPDEST PUSH32 0x4E6F206573636F6C6120666F756E640000000000000000000000000000000000 PUSH0 DUP3 ADD MSTORE POP JUMP JUMPDEST PUSH0 PUSH2 0x2DF3 PUSH1 0xF DUP4 PUSH2 0x1F09 JUMP JUMPDEST SWAP2 POP PUSH2 0x2DFE DUP3 PUSH2 0x2DBF JUMP JUMPDEST PUSH1 0x20 DUP3 ADD SWAP1 POP SWAP2 SWAP1 POP JUMP JUMPDEST PUSH0 PUSH1 0x20 DUP3 ADD SWAP1 POP DUP2 DUP2 SUB PUSH0 DUP4 ADD MSTORE PUSH2 0x2E20 DUP2 PUSH2 0x2DE7 JUMP JUMPDEST SWAP1 POP SWAP2 SWAP1 POP JUMP JUMPDEST PUSH32 0x5175616E746964616465206D6178696D61206465207175657369746F73206174 PUSH0 DUP3 ADD MSTORE PUSH32 0x696E676964610000000000000000000000000000000000000000000000000000 PUSH1 0x20 DUP3 ADD MSTORE POP JUMP JUMPDEST PUSH0 PUSH2 0x2E81 PUSH1 0x26 DUP4 PUSH2 0x1F09 JUMP JUMPDEST SWAP2 POP PUSH2 0x2E8C DUP3 PUSH2 0x2E27 JUMP JUMPDEST PUSH1 0x40 DUP3 ADD SWAP1 POP SWAP2 SWAP1 POP JUMP JUMPDEST PUSH0 PUSH1 0x20 DUP3 ADD SWAP1 POP DUP2 DUP2 SUB PUSH0 DUP4 ADD MSTORE PUSH2 0x2EAE DUP2 PUSH2 0x2E75 JUMP JUMPDEST SWAP1 POP SWAP2 SWAP1 POP JUMP JUMPDEST PUSH0 DUP2 MLOAD SWAP1 POP SWAP2 SWAP1 POP JUMP JUMPDEST PUSH0 DUP3 DUP3 MSTORE PUSH1 0x20 DUP3 ADD SWAP1 POP SWAP3 SWAP2 POP POP JUMP JUMPDEST PUSH0 DUP2 SWAP1 POP PUSH1 0x20 DUP3 ADD SWAP1 POP SWAP2 SWAP1 POP JUMP JUMPDEST PUSH0 PUSH2 0x2EE9 DUP4 DUP4 PUSH2 0x2232 JUMP JUMPDEST SWAP1 POP SWAP3 SWAP2 POP POP JUMP JUMPDEST PUSH0 PUSH1 0x20 DUP3 ADD SWAP1 POP SWAP2 SWAP1 POP JUMP JUMPDEST PUSH0 PUSH2 0x2F07 DUP3 PUSH2 0x2EB5 JUMP JUMPDEST PUSH2 0x2F11 DUP2 DUP6 PUSH2 0x2EBF JUMP JUMPDEST SWAP4 POP DUP4 PUSH1 0x20 DUP3 MUL DUP6 ADD PUSH2 0x2F23 DUP6 PUSH2 0x2ECF JUMP JUMPDEST DUP1 PUSH0 JUMPDEST DUP6 DUP2 LT ISZERO PUSH2 0x2F5E JUMPI DUP5 DUP5 SUB DUP10 MSTORE DUP2 MLOAD PUSH2 0x2F3F DUP6 DUP3 PUSH2 0x2EDE JUMP JUMPDEST SWAP5 POP PUSH2 0x2F4A DUP4 PUSH2 0x2EF1 JUMP JUMPDEST SWAP3 POP PUSH1 0x20 DUP11 ADD SWAP10 POP POP PUSH1 0x1 DUP2 ADD SWAP1 POP PUSH2 0x2F26 JUMP JUMPDEST POP DUP3 SWAP8 POP DUP8 SWAP6 POP POP POP POP POP POP SWAP3 SWAP2 POP POP JUMP JUMPDEST PUSH0 PUSH1 0x20 DUP3 ADD SWAP1 POP DUP2 DUP2 SUB PUSH0 DUP4 ADD MSTORE PUSH2 0x2F88 DUP2 DUP5 PUSH2 0x2EFD JUMP JUMPDEST SWAP1 POP SWAP3 SWAP2 POP POP JUMP JUMPDEST PUSH32 0x5175616E746964616465206D6178696D61206465206573636F6C617320617469 PUSH0 DUP3 ADD MSTORE PUSH32 0x6E67696461000000000000000000000000000000000000000000000000000000 PUSH1 0x20 DUP3 ADD MSTORE POP JUMP JUMPDEST PUSH0 PUSH2 0x2FEA PUSH1 0x25 DUP4 PUSH2 0x1F09 JUMP JUMPDEST SWAP2 POP PUSH2 0x2FF5 DUP3 PUSH2 0x2F90 JUMP JUMPDEST PUSH1 0x40 DUP3 ADD SWAP1 POP SWAP2 SWAP1 POP JUMP JUMPDEST PUSH0 PUSH1 0x20 DUP3 ADD SWAP1 POP DUP2 DUP2 SUB PUSH0 DUP4 ADD MSTORE PUSH2 0x3017 DUP2 PUSH2 0x2FDE JUMP JUMPDEST SWAP1 POP SWAP2 SWAP1 POP JUMP JUMPDEST PUSH0 PUSH1 0x60 DUP3 ADD SWAP1 POP PUSH2 0x3031 PUSH0 DUP4 ADD DUP7 PUSH2 0x2094 JUMP JUMPDEST PUSH2 0x303E PUSH1 0x20 DUP4 ADD DUP6 PUSH2 0x2085 JUMP JUMPDEST PUSH2 0x304B PUSH1 0x40 DUP4 ADD DUP5 PUSH2 0x2085 JUMP JUMPDEST SWAP5 SWAP4 POP POP POP POP JUMP JUMPDEST PUSH0 PUSH2 0x305D DUP3 PUSH2 0x1E7C JUMP JUMPDEST SWAP2 POP PUSH2 0x3068 DUP4 PUSH2 0x1E7C JUMP JUMPDEST SWAP3 POP DUP3 DUP3 ADD SWAP1 POP DUP1 DUP3 GT ISZERO PUSH2 0x3080 JUMPI PUSH2 0x307F PUSH2 0x2CB0 JUMP JUMPDEST JUMPDEST SWAP3 SWAP2 POP POP JUMP INVALID LOG2 PUSH5 0x6970667358 0x22 SLT KECCAK256 0xBA SWAP5 NOT 0xB1 GASLIMIT PUSH23 0x135BC836EC464FE6FEBCA62C355066B7D7BCDE19EEC715 0xB0 COINBASE 0xBE PUSH5 0x736F6C6343 STOP ADDMOD SHR STOP CALLER "
				},
				"gasEstimates": {
					"creation": {
						"codeDepositCost": "2495200",
						"executionCost": "infinite",
						"totalCost": "infinite"
					},
					"external": {
						"addEscolas(string[])": "infinite",
						"addJurado(string,uint256)": "infinite",
						"addQuesitos(string[])": "infinite",
						"allowance(address,address)": "infinite",
						"approve(address,uint256)": "infinite",
						"balanceOf(address)": "2851",
						"decimals()": "405",
						"getAllEscolas()": "infinite",
						"getAllQuesitos()": "infinite",
						"getNota(uint256,uint256)": "infinite",
						"jurados(address)": "infinite",
						"limparDados()": "infinite",
						"name()": "infinite",
						"notas(uint256)": "infinite",
						"notasPorEscolaQuesito(uint256,uint256)": "infinite",
						"owner()": "2553",
						"quantidadeJurados(uint256)": "infinite",
						"registrarNota(uint256,uint256,uint256)": "infinite",
						"symbol()": "infinite",
						"totalSupply()": "2544",
						"transfer(address,uint256)": "infinite",
						"transferFrom(address,address,uint256)": "infinite"
					}
				},
				"methodIdentifiers": {
					"addEscolas(string[])": "fceb2d39",
					"addJurado(string,uint256)": "4d4b6681",
					"addQuesitos(string[])": "da1c13ed",
					"allowance(address,address)": "dd62ed3e",
					"approve(address,uint256)": "095ea7b3",
					"balanceOf(address)": "70a08231",
					"decimals()": "313ce567",
					"getAllEscolas()": "a4caf2f6",
					"getAllQuesitos()": "4ce8b096",
					"getNota(uint256,uint256)": "66885744",
					"jurados(address)": "1f12a015",
					"limparDados()": "e49a39dc",
					"name()": "06fdde03",
					"notas(uint256)": "162f17a9",
					"notasPorEscolaQuesito(uint256,uint256)": "a916b987",
					"owner()": "8da5cb5b",
					"quantidadeJurados(uint256)": "e2eae4db",
					"registrarNota(uint256,uint256,uint256)": "05ae501e",
					"symbol()": "95d89b41",
					"totalSupply()": "18160ddd",
					"transfer(address,uint256)": "a9059cbb",
					"transferFrom(address,address,uint256)": "23b872dd"
				}
			},
			"storageLayout": {
				"storage": [
					{
						"astId": 159,
						"contract": "Qsito/carnaval.sol:CarnavalScores",
						"label": "_balances",
						"offset": 0,
						"slot": "0",
						"type": "t_mapping(t_address,t_uint256)"
					},
					{
						"astId": 165,
						"contract": "Qsito/carnaval.sol:CarnavalScores",
						"label": "_allowances",
						"offset": 0,
						"slot": "1",
						"type": "t_mapping(t_address,t_mapping(t_address,t_uint256))"
					},
					{
						"astId": 167,
						"contract": "Qsito/carnaval.sol:CarnavalScores",
						"label": "_totalSupply",
						"offset": 0,
						"slot": "2",
						"type": "t_uint256"
					},
					{
						"astId": 169,
						"contract": "Qsito/carnaval.sol:CarnavalScores",
						"label": "_name",
						"offset": 0,
						"slot": "3",
						"type": "t_string_storage"
					},
					{
						"astId": 171,
						"contract": "Qsito/carnaval.sol:CarnavalScores",
						"label": "_symbol",
						"offset": 0,
						"slot": "4",
						"type": "t_string_storage"
					},
					{
						"astId": 830,
						"contract": "Qsito/carnaval.sol:CarnavalScores",
						"label": "quantidadeJurados",
						"offset": 0,
						"slot": "5",
						"type": "t_array(t_struct(Jurado)797_storage)36_storage"
					},
					{
						"astId": 834,
						"contract": "Qsito/carnaval.sol:CarnavalScores",
						"label": "_escolas",
						"offset": 0,
						"slot": "113",
						"type": "t_array(t_struct(Escola)802_storage)dyn_storage"
					},
					{
						"astId": 838,
						"contract": "Qsito/carnaval.sol:CarnavalScores",
						"label": "_quesitos",
						"offset": 0,
						"slot": "114",
						"type": "t_array(t_struct(Quesito)807_storage)dyn_storage"
					},
					{
						"astId": 842,
						"contract": "Qsito/carnaval.sol:CarnavalScores",
						"label": "notas",
						"offset": 0,
						"slot": "115",
						"type": "t_array(t_struct(Nota)816_storage)dyn_storage"
					},
					{
						"astId": 847,
						"contract": "Qsito/carnaval.sol:CarnavalScores",
						"label": "jurados",
						"offset": 0,
						"slot": "116",
						"type": "t_mapping(t_address,t_struct(Jurado)797_storage)"
					},
					{
						"astId": 854,
						"contract": "Qsito/carnaval.sol:CarnavalScores",
						"label": "notasPorEscolaQuesito",
						"offset": 0,
						"slot": "117",
						"type": "t_mapping(t_uint256,t_mapping(t_uint256,t_struct(Nota)816_storage))"
					},
					{
						"astId": 856,
						"contract": "Qsito/carnaval.sol:CarnavalScores",
						"label": "owner",
						"offset": 0,
						"slot": "118",
						"type": "t_address"
					},
					{
						"astId": 884,
						"contract": "Qsito/carnaval.sol:CarnavalScores",
						"label": "_currentJuradoIndex",
						"offset": 0,
						"slot": "119",
						"type": "t_uint256"
					},
					{
						"astId": 887,
						"contract": "Qsito/carnaval.sol:CarnavalScores",
						"label": "_currentEscolaIndex",
						"offset": 0,
						"slot": "120",
						"type": "t_uint256"
					},
					{
						"astId": 890,
						"contract": "Qsito/carnaval.sol:CarnavalScores",
						"label": "_currentQuesitoIndex",
						"offset": 0,
						"slot": "121",
						"type": "t_uint256"
					}
				],
				"types": {
					"t_address": {
						"encoding": "inplace",
						"label": "address",
						"numberOfBytes": "20"
					},
					"t_array(t_struct(Escola)802_storage)dyn_storage": {
						"base": "t_struct(Escola)802_storage",
						"encoding": "dynamic_array",
						"label": "struct CarnavalScores.Escola[]",
						"numberOfBytes": "32"
					},
					"t_array(t_struct(Jurado)797_storage)36_storage": {
						"base": "t_struct(Jurado)797_storage",
						"encoding": "inplace",
						"label": "struct CarnavalScores.Jurado[36]",
						"numberOfBytes": "3456"
					},
					"t_array(t_struct(Nota)816_storage)dyn_storage": {
						"base": "t_struct(Nota)816_storage",
						"encoding": "dynamic_array",
						"label": "struct CarnavalScores.Nota[]",
						"numberOfBytes": "32"
					},
					"t_array(t_struct(Quesito)807_storage)dyn_storage": {
						"base": "t_struct(Quesito)807_storage",
						"encoding": "dynamic_array",
						"label": "struct CarnavalScores.Quesito[]",
						"numberOfBytes": "32"
					},
					"t_mapping(t_address,t_mapping(t_address,t_uint256))": {
						"encoding": "mapping",
						"key": "t_address",
						"label": "mapping(address => mapping(address => uint256))",
						"numberOfBytes": "32",
						"value": "t_mapping(t_address,t_uint256)"
					},
					"t_mapping(t_address,t_struct(Jurado)797_storage)": {
						"encoding": "mapping",
						"key": "t_address",
						"label": "mapping(address => struct CarnavalScores.Jurado)",
						"numberOfBytes": "32",
						"value": "t_struct(Jurado)797_storage"
					},
					"t_mapping(t_address,t_uint256)": {
						"encoding": "mapping",
						"key": "t_address",
						"label": "mapping(address => uint256)",
						"numberOfBytes": "32",
						"value": "t_uint256"
					},
					"t_mapping(t_uint256,t_mapping(t_uint256,t_struct(Nota)816_storage))": {
						"encoding": "mapping",
						"key": "t_uint256",
						"label": "mapping(uint256 => mapping(uint256 => struct CarnavalScores.Nota))",
						"numberOfBytes": "32",
						"value": "t_mapping(t_uint256,t_struct(Nota)816_storage)"
					},
					"t_mapping(t_uint256,t_struct(Nota)816_storage)": {
						"encoding": "mapping",
						"key": "t_uint256",
						"label": "mapping(uint256 => struct CarnavalScores.Nota)",
						"numberOfBytes": "32",
						"value": "t_struct(Nota)816_storage"
					},
					"t_string_storage": {
						"encoding": "bytes",
						"label": "string",
						"numberOfBytes": "32"
					},
					"t_struct(Escola)802_storage": {
						"encoding": "inplace",
						"label": "struct CarnavalScores.Escola",
						"members": [
							{
								"astId": 799,
								"contract": "Qsito/carnaval.sol:CarnavalScores",
								"label": "id",
								"offset": 0,
								"slot": "0",
								"type": "t_uint256"
							},
							{
								"astId": 801,
								"contract": "Qsito/carnaval.sol:CarnavalScores",
								"label": "nome",
								"offset": 0,
								"slot": "1",
								"type": "t_string_storage"
							}
						],
						"numberOfBytes": "64"
					},
					"t_struct(Jurado)797_storage": {
						"encoding": "inplace",
						"label": "struct CarnavalScores.Jurado",
						"members": [
							{
								"astId": 792,
								"contract": "Qsito/carnaval.sol:CarnavalScores",
								"label": "endereco",
								"offset": 0,
								"slot": "0",
								"type": "t_address"
							},
							{
								"astId": 794,
								"contract": "Qsito/carnaval.sol:CarnavalScores",
								"label": "nome",
								"offset": 0,
								"slot": "1",
								"type": "t_string_storage"
							},
							{
								"astId": 796,
								"contract": "Qsito/carnaval.sol:CarnavalScores",
								"label": "quesitoId",
								"offset": 0,
								"slot": "2",
								"type": "t_uint256"
							}
						],
						"numberOfBytes": "96"
					},
					"t_struct(Nota)816_storage": {
						"encoding": "inplace",
						"label": "struct CarnavalScores.Nota",
						"members": [
							{
								"astId": 809,
								"contract": "Qsito/carnaval.sol:CarnavalScores",
								"label": "escolaId",
								"offset": 0,
								"slot": "0",
								"type": "t_uint256"
							},
							{
								"astId": 811,
								"contract": "Qsito/carnaval.sol:CarnavalScores",
								"label": "quesitoId",
								"offset": 0,
								"slot": "1",
								"type": "t_uint256"
							},
							{
								"astId": 813,
								"contract": "Qsito/carnaval.sol:CarnavalScores",
								"label": "juradoId",
								"offset": 0,
								"slot": "2",
								"type": "t_address"
							},
							{
								"astId": 815,
								"contract": "Qsito/carnaval.sol:CarnavalScores",
								"label": "nota",
								"offset": 0,
								"slot": "3",
								"type": "t_uint256"
							}
						],
						"numberOfBytes": "128"
					},
					"t_struct(Quesito)807_storage": {
						"encoding": "inplace",
						"label": "struct CarnavalScores.Quesito",
						"members": [
							{
								"astId": 804,
								"contract": "Qsito/carnaval.sol:CarnavalScores",
								"label": "id",
								"offset": 0,
								"slot": "0",
								"type": "t_uint256"
							},
							{
								"astId": 806,
								"contract": "Qsito/carnaval.sol:CarnavalScores",
								"label": "nome",
								"offset": 0,
								"slot": "1",
								"type": "t_string_storage"
							}
						],
						"numberOfBytes": "64"
					},
					"t_uint256": {
						"encoding": "inplace",
						"label": "uint256",
						"numberOfBytes": "32"
					}
				}
			},
			"userdoc": {
				"kind": "user",
				"methods": {},
				"version": 1
			}
		}
	}
}