{
	"Qsito/carnaval.sol": {
		"CarnavalScores": {
			"abi": [
				{
					"inputs": [],
					"stateMutability": "nonpayable",
					"type": "constructor"
				},
				{
					"inputs": [
						{
							"internalType": "address",
							"name": "spender",
							"type": "address"
						},
						{
							"internalType": "uint256",
							"name": "allowance",
							"type": "uint256"
						},
						{
							"internalType": "uint256",
							"name": "needed",
							"type": "uint256"
						}
					],
					"name": "ERC20InsufficientAllowance",
					"type": "error"
				},
				{
					"inputs": [
						{
							"internalType": "address",
							"name": "sender",
							"type": "address"
						},
						{
							"internalType": "uint256",
							"name": "balance",
							"type": "uint256"
						},
						{
							"internalType": "uint256",
							"name": "needed",
							"type": "uint256"
						}
					],
					"name": "ERC20InsufficientBalance",
					"type": "error"
				},
				{
					"inputs": [
						{
							"internalType": "address",
							"name": "approver",
							"type": "address"
						}
					],
					"name": "ERC20InvalidApprover",
					"type": "error"
				},
				{
					"inputs": [
						{
							"internalType": "address",
							"name": "receiver",
							"type": "address"
						}
					],
					"name": "ERC20InvalidReceiver",
					"type": "error"
				},
				{
					"inputs": [
						{
							"internalType": "address",
							"name": "sender",
							"type": "address"
						}
					],
					"name": "ERC20InvalidSender",
					"type": "error"
				},
				{
					"inputs": [
						{
							"internalType": "address",
							"name": "spender",
							"type": "address"
						}
					],
					"name": "ERC20InvalidSpender",
					"type": "error"
				},
				{
					"anonymous": false,
					"inputs": [
						{
							"indexed": true,
							"internalType": "address",
							"name": "owner",
							"type": "address"
						},
						{
							"indexed": true,
							"internalType": "address",
							"name": "spender",
							"type": "address"
						},
						{
							"indexed": false,
							"internalType": "uint256",
							"name": "value",
							"type": "uint256"
						}
					],
					"name": "Approval",
					"type": "event"
				},
				{
					"anonymous": false,
					"inputs": [
						{
							"indexed": false,
							"internalType": "uint256",
							"name": "id",
							"type": "uint256"
						},
						{
							"indexed": false,
							"internalType": "string",
							"name": "_nome",
							"type": "string"
						}
					],
					"name": "EscolaAdicionada",
					"type": "event"
				},
				{
					"anonymous": false,
					"inputs": [
						{
							"indexed": true,
							"internalType": "address",
							"name": "jurado",
							"type": "address"
						},
						{
							"indexed": false,
							"internalType": "string",
							"name": "_nome",
							"type": "string"
						}
					],
					"name": "JuradoAdicionado",
					"type": "event"
				},
				{
					"anonymous": false,
					"inputs": [
						{
							"indexed": false,
							"internalType": "uint256",
							"name": "id",
							"type": "uint256"
						},
						{
							"indexed": false,
							"internalType": "string",
							"name": "_nome",
							"type": "string"
						}
					],
					"name": "QuesitoAdicionado",
					"type": "event"
				},
				{
					"anonymous": false,
					"inputs": [
						{
							"indexed": true,
							"internalType": "address",
							"name": "from",
							"type": "address"
						},
						{
							"indexed": true,
							"internalType": "address",
							"name": "to",
							"type": "address"
						},
						{
							"indexed": false,
							"internalType": "uint256",
							"name": "value",
							"type": "uint256"
						}
					],
					"name": "Transfer",
					"type": "event"
				},
				{
					"inputs": [
						{
							"internalType": "string",
							"name": "_nomeEscola",
							"type": "string"
						}
					],
					"name": "addEscola",
					"outputs": [
						{
							"internalType": "uint256",
							"name": "",
							"type": "uint256"
						}
					],
					"stateMutability": "nonpayable",
					"type": "function"
				},
				{
					"inputs": [
						{
							"internalType": "string",
							"name": "_nomeJurado",
							"type": "string"
						}
					],
					"name": "addJurado",
					"outputs": [
						{
							"internalType": "uint256",
							"name": "",
							"type": "uint256"
						}
					],
					"stateMutability": "nonpayable",
					"type": "function"
				},
				{
					"inputs": [
						{
							"internalType": "string",
							"name": "_nomeQuesito",
							"type": "string"
						}
					],
					"name": "addQuesito",
					"outputs": [
						{
							"internalType": "uint256",
							"name": "",
							"type": "uint256"
						}
					],
					"stateMutability": "nonpayable",
					"type": "function"
				},
				{
					"inputs": [
						{
							"internalType": "address",
							"name": "owner",
							"type": "address"
						},
						{
							"internalType": "address",
							"name": "spender",
							"type": "address"
						}
					],
					"name": "allowance",
					"outputs": [
						{
							"internalType": "uint256",
							"name": "",
							"type": "uint256"
						}
					],
					"stateMutability": "view",
					"type": "function"
				},
				{
					"inputs": [
						{
							"internalType": "address",
							"name": "spender",
							"type": "address"
						},
						{
							"internalType": "uint256",
							"name": "value",
							"type": "uint256"
						}
					],
					"name": "approve",
					"outputs": [
						{
							"internalType": "bool",
							"name": "",
							"type": "bool"
						}
					],
					"stateMutability": "nonpayable",
					"type": "function"
				},
				{
					"inputs": [
						{
							"internalType": "address",
							"name": "account",
							"type": "address"
						}
					],
					"name": "balanceOf",
					"outputs": [
						{
							"internalType": "uint256",
							"name": "",
							"type": "uint256"
						}
					],
					"stateMutability": "view",
					"type": "function"
				},
				{
					"inputs": [],
					"name": "decimals",
					"outputs": [
						{
							"internalType": "uint8",
							"name": "",
							"type": "uint8"
						}
					],
					"stateMutability": "view",
					"type": "function"
				},
				{
					"inputs": [
						{
							"internalType": "uint256",
							"name": "",
							"type": "uint256"
						}
					],
					"name": "escolas",
					"outputs": [
						{
							"internalType": "uint256",
							"name": "id",
							"type": "uint256"
						},
						{
							"internalType": "string",
							"name": "nome",
							"type": "string"
						}
					],
					"stateMutability": "view",
					"type": "function"
				},
				{
					"inputs": [
						{
							"internalType": "uint256",
							"name": "_escolaId",
							"type": "uint256"
						},
						{
							"internalType": "uint256",
							"name": "_quesitoId",
							"type": "uint256"
						}
					],
					"name": "getNota",
					"outputs": [
						{
							"internalType": "uint256",
							"name": "",
							"type": "uint256"
						}
					],
					"stateMutability": "view",
					"type": "function"
				},
				{
					"inputs": [
						{
							"internalType": "address",
							"name": "",
							"type": "address"
						}
					],
					"name": "jurados",
					"outputs": [
						{
							"internalType": "address",
							"name": "endereco",
							"type": "address"
						},
						{
							"internalType": "string",
							"name": "nome",
							"type": "string"
						}
					],
					"stateMutability": "view",
					"type": "function"
				},
				{
					"inputs": [],
					"name": "limparDados",
					"outputs": [],
					"stateMutability": "nonpayable",
					"type": "function"
				},
				{
					"inputs": [],
					"name": "name",
					"outputs": [
						{
							"internalType": "string",
							"name": "",
							"type": "string"
						}
					],
					"stateMutability": "view",
					"type": "function"
				},
				{
					"inputs": [
						{
							"internalType": "uint256",
							"name": "",
							"type": "uint256"
						}
					],
					"name": "notas",
					"outputs": [
						{
							"internalType": "uint256",
							"name": "escolaId",
							"type": "uint256"
						},
						{
							"internalType": "uint256",
							"name": "quesitoId",
							"type": "uint256"
						},
						{
							"internalType": "address",
							"name": "juradoId",
							"type": "address"
						},
						{
							"internalType": "uint256",
							"name": "nota",
							"type": "uint256"
						}
					],
					"stateMutability": "view",
					"type": "function"
				},
				{
					"inputs": [
						{
							"internalType": "uint256",
							"name": "",
							"type": "uint256"
						},
						{
							"internalType": "uint256",
							"name": "",
							"type": "uint256"
						}
					],
					"name": "notasPorEscolaQuesito",
					"outputs": [
						{
							"internalType": "uint256",
							"name": "escolaId",
							"type": "uint256"
						},
						{
							"internalType": "uint256",
							"name": "quesitoId",
							"type": "uint256"
						},
						{
							"internalType": "address",
							"name": "juradoId",
							"type": "address"
						},
						{
							"internalType": "uint256",
							"name": "nota",
							"type": "uint256"
						}
					],
					"stateMutability": "view",
					"type": "function"
				},
				{
					"inputs": [],
					"name": "owner",
					"outputs": [
						{
							"internalType": "address",
							"name": "",
							"type": "address"
						}
					],
					"stateMutability": "view",
					"type": "function"
				},
				{
					"inputs": [
						{
							"internalType": "uint256",
							"name": "",
							"type": "uint256"
						}
					],
					"name": "quantidadeJurados",
					"outputs": [
						{
							"internalType": "address",
							"name": "endereco",
							"type": "address"
						},
						{
							"internalType": "string",
							"name": "nome",
							"type": "string"
						}
					],
					"stateMutability": "view",
					"type": "function"
				},
				{
					"inputs": [
						{
							"internalType": "uint256",
							"name": "",
							"type": "uint256"
						}
					],
					"name": "quesitos",
					"outputs": [
						{
							"internalType": "uint256",
							"name": "id",
							"type": "uint256"
						},
						{
							"internalType": "string",
							"name": "nome",
							"type": "string"
						}
					],
					"stateMutability": "view",
					"type": "function"
				},
				{
					"inputs": [
						{
							"internalType": "uint256",
							"name": "_escolaId",
							"type": "uint256"
						},
						{
							"internalType": "uint256",
							"name": "_quesitoId",
							"type": "uint256"
						},
						{
							"internalType": "uint256",
							"name": "_nota",
							"type": "uint256"
						}
					],
					"name": "registrarNota",
					"outputs": [],
					"stateMutability": "nonpayable",
					"type": "function"
				},
				{
					"inputs": [],
					"name": "symbol",
					"outputs": [
						{
							"internalType": "string",
							"name": "",
							"type": "string"
						}
					],
					"stateMutability": "view",
					"type": "function"
				},
				{
					"inputs": [],
					"name": "totalSupply",
					"outputs": [
						{
							"internalType": "uint256",
							"name": "",
							"type": "uint256"
						}
					],
					"stateMutability": "view",
					"type": "function"
				},
				{
					"inputs": [
						{
							"internalType": "address",
							"name": "to",
							"type": "address"
						},
						{
							"internalType": "uint256",
							"name": "value",
							"type": "uint256"
						}
					],
					"name": "transfer",
					"outputs": [
						{
							"internalType": "bool",
							"name": "",
							"type": "bool"
						}
					],
					"stateMutability": "nonpayable",
					"type": "function"
				},
				{
					"inputs": [
						{
							"internalType": "address",
							"name": "from",
							"type": "address"
						},
						{
							"internalType": "address",
							"name": "to",
							"type": "address"
						},
						{
							"internalType": "uint256",
							"name": "value",
							"type": "uint256"
						}
					],
					"name": "transferFrom",
					"outputs": [
						{
							"internalType": "bool",
							"name": "",
							"type": "bool"
						}
					],
					"stateMutability": "nonpayable",
					"type": "function"
				}
			],
			"devdoc": {
				"errors": {
					"ERC20InsufficientAllowance(address,uint256,uint256)": [
						{
							"details": "Indicates a failure with the `spender`’s `allowance`. Used in transfers.",
							"params": {
								"allowance": "Amount of tokens a `spender` is allowed to operate with.",
								"needed": "Minimum amount required to perform a transfer.",
								"spender": "Address that may be allowed to operate on tokens without being their owner."
							}
						}
					],
					"ERC20InsufficientBalance(address,uint256,uint256)": [
						{
							"details": "Indicates an error related to the current `balance` of a `sender`. Used in transfers.",
							"params": {
								"balance": "Current balance for the interacting account.",
								"needed": "Minimum amount required to perform a transfer.",
								"sender": "Address whose tokens are being transferred."
							}
						}
					],
					"ERC20InvalidApprover(address)": [
						{
							"details": "Indicates a failure with the `approver` of a token to be approved. Used in approvals.",
							"params": {
								"approver": "Address initiating an approval operation."
							}
						}
					],
					"ERC20InvalidReceiver(address)": [
						{
							"details": "Indicates a failure with the token `receiver`. Used in transfers.",
							"params": {
								"receiver": "Address to which tokens are being transferred."
							}
						}
					],
					"ERC20InvalidSender(address)": [
						{
							"details": "Indicates a failure with the token `sender`. Used in transfers.",
							"params": {
								"sender": "Address whose tokens are being transferred."
							}
						}
					],
					"ERC20InvalidSpender(address)": [
						{
							"details": "Indicates a failure with the `spender` to be approved. Used in approvals.",
							"params": {
								"spender": "Address that may be allowed to operate on tokens without being their owner."
							}
						}
					]
				},
				"events": {
					"Approval(address,address,uint256)": {
						"details": "Emitted when the allowance of a `spender` for an `owner` is set by a call to {approve}. `value` is the new allowance."
					},
					"Transfer(address,address,uint256)": {
						"details": "Emitted when `value` tokens are moved from one account (`from`) to another (`to`). Note that `value` may be zero."
					}
				},
				"kind": "dev",
				"methods": {
					"allowance(address,address)": {
						"details": "See {IERC20-allowance}."
					},
					"approve(address,uint256)": {
						"details": "See {IERC20-approve}. NOTE: If `value` is the maximum `uint256`, the allowance is not updated on `transferFrom`. This is semantically equivalent to an infinite approval. Requirements: - `spender` cannot be the zero address."
					},
					"balanceOf(address)": {
						"details": "See {IERC20-balanceOf}."
					},
					"decimals()": {
						"details": "Returns the number of decimals used to get its user representation. For example, if `decimals` equals `2`, a balance of `505` tokens should be displayed to a user as `5.05` (`505 / 10 ** 2`). Tokens usually opt for a value of 18, imitating the relationship between Ether and Wei. This is the default value returned by this function, unless it's overridden. NOTE: This information is only used for _display_ purposes: it in no way affects any of the arithmetic of the contract, including {IERC20-balanceOf} and {IERC20-transfer}."
					},
					"name()": {
						"details": "Returns the name of the token."
					},
					"symbol()": {
						"details": "Returns the symbol of the token, usually a shorter version of the name."
					},
					"totalSupply()": {
						"details": "See {IERC20-totalSupply}."
					},
					"transfer(address,uint256)": {
						"details": "See {IERC20-transfer}. Requirements: - `to` cannot be the zero address. - the caller must have a balance of at least `value`."
					},
					"transferFrom(address,address,uint256)": {
						"details": "See {IERC20-transferFrom}. Skips emitting an {Approval} event indicating an allowance update. This is not required by the ERC. See {xref-ERC20-_approve-address-address-uint256-bool-}[_approve]. NOTE: Does not update the allowance if the current allowance is the maximum `uint256`. Requirements: - `from` and `to` cannot be the zero address. - `from` must have a balance of at least `value`. - the caller must have allowance for ``from``'s tokens of at least `value`."
					}
				},
				"version": 1
			},
			"evm": {
				"assembly": "    /* \"Qsito/carnaval.sol\":119:4298  contract CarnavalScores is ERC20 {... */\n  mstore(0x40, 0x80)\n    /* \"Qsito/carnaval.sol\":1314:1315  0 */\n  0x00\n    /* \"Qsito/carnaval.sol\":1279:1315  uint private _currentJuradoIndex = 0 */\n  0x81\n  sstore\n    /* \"Qsito/carnaval.sol\":1357:1358  0 */\n  0x00\n    /* \"Qsito/carnaval.sol\":1322:1358  uint private _currentEscolaIndex = 0 */\n  0x82\n  sstore\n    /* \"Qsito/carnaval.sol\":1401:1402  0 */\n  0x00\n    /* \"Qsito/carnaval.sol\":1365:1402  uint private _currentQuesitoIndex = 0 */\n  0x83\n  sstore\n    /* \"Qsito/carnaval.sol\":1062:1144  constructor() ERC20(\"CarnavalScores\", \"CCS\") {... */\n  callvalue\n  dup1\n  iszero\n  tag_1\n  jumpi\n  revert(0x00, 0x00)\ntag_1:\n  pop\n    /* \"@openzeppelin/contracts/token/ERC20/ERC20.sol\":1601:1714  constructor(string memory name_, string memory symbol_) {... */\n  mload(0x40)\n  dup1\n  0x40\n  add\n  0x40\n  mstore\n  dup1\n  0x0e\n  dup2\n  mstore\n  0x20\n  add\n  0x4361726e6176616c53636f726573000000000000000000000000000000000000\n  dup2\n  mstore\n  pop\n  mload(0x40)\n  dup1\n  0x40\n  add\n  0x40\n  mstore\n  dup1\n  0x03\n  dup2\n  mstore\n  0x20\n  add\n  0x4343530000000000000000000000000000000000000000000000000000000000\n  dup2\n  mstore\n  pop\n    /* \"@openzeppelin/contracts/token/ERC20/ERC20.sol\":1675:1680  name_ */\n  dup2\n    /* \"@openzeppelin/contracts/token/ERC20/ERC20.sol\":1667:1672  _name */\n  0x03\n    /* \"@openzeppelin/contracts/token/ERC20/ERC20.sol\":1667:1680  _name = name_ */\n  swap1\n  dup2\n  tag_5\n  swap2\n  swap1\n  tag_6\n  jump\t// in\ntag_5:\n  pop\n    /* \"@openzeppelin/contracts/token/ERC20/ERC20.sol\":1700:1707  symbol_ */\n  dup1\n    /* \"@openzeppelin/contracts/token/ERC20/ERC20.sol\":1690:1697  _symbol */\n  0x04\n    /* \"@openzeppelin/contracts/token/ERC20/ERC20.sol\":1690:1707  _symbol = symbol_ */\n  swap1\n  dup2\n  tag_7\n  swap2\n  swap1\n  tag_6\n  jump\t// in\ntag_7:\n  pop\n    /* \"@openzeppelin/contracts/token/ERC20/ERC20.sol\":1601:1714  constructor(string memory name_, string memory symbol_) {... */\n  pop\n  pop\n    /* \"Qsito/carnaval.sol\":1126:1136  msg.sender */\n  caller\n    /* \"Qsito/carnaval.sol\":1118:1123  owner */\n  0x80\n  0x00\n    /* \"Qsito/carnaval.sol\":1118:1136  owner = msg.sender */\n  0x0100\n  exp\n  dup2\n  sload\n  dup2\n  0xffffffffffffffffffffffffffffffffffffffff\n  mul\n  not\n  and\n  swap1\n  dup4\n  0xffffffffffffffffffffffffffffffffffffffff\n  and\n  mul\n  or\n  swap1\n  sstore\n  pop\n    /* \"Qsito/carnaval.sol\":119:4298  contract CarnavalScores is ERC20 {... */\n  jump(tag_9)\n    /* \"#utility.yul\":7:106   */\ntag_10:\n    /* \"#utility.yul\":59:65   */\n  0x00\n    /* \"#utility.yul\":93:98   */\n  dup2\n    /* \"#utility.yul\":87:99   */\n  mload\n    /* \"#utility.yul\":77:99   */\n  swap1\n  pop\n    /* \"#utility.yul\":7:106   */\n  swap2\n  swap1\n  pop\n  jump\t// out\n    /* \"#utility.yul\":112:292   */\ntag_11:\n    /* \"#utility.yul\":160:237   */\n  0x4e487b7100000000000000000000000000000000000000000000000000000000\n    /* \"#utility.yul\":157:158   */\n  0x00\n    /* \"#utility.yul\":150:238   */\n  mstore\n    /* \"#utility.yul\":257:261   */\n  0x41\n    /* \"#utility.yul\":254:255   */\n  0x04\n    /* \"#utility.yul\":247:262   */\n  mstore\n    /* \"#utility.yul\":281:285   */\n  0x24\n    /* \"#utility.yul\":278:279   */\n  0x00\n    /* \"#utility.yul\":271:286   */\n  revert\n    /* \"#utility.yul\":298:478   */\ntag_12:\n    /* \"#utility.yul\":346:423   */\n  0x4e487b7100000000000000000000000000000000000000000000000000000000\n    /* \"#utility.yul\":343:344   */\n  0x00\n    /* \"#utility.yul\":336:424   */\n  mstore\n    /* \"#utility.yul\":443:447   */\n  0x22\n    /* \"#utility.yul\":440:441   */\n  0x04\n    /* \"#utility.yul\":433:448   */\n  mstore\n    /* \"#utility.yul\":467:471   */\n  0x24\n    /* \"#utility.yul\":464:465   */\n  0x00\n    /* \"#utility.yul\":457:472   */\n  revert\n    /* \"#utility.yul\":484:804   */\ntag_13:\n    /* \"#utility.yul\":528:534   */\n  0x00\n    /* \"#utility.yul\":565:566   */\n  0x02\n    /* \"#utility.yul\":559:563   */\n  dup3\n    /* \"#utility.yul\":555:567   */\n  div\n    /* \"#utility.yul\":545:567   */\n  swap1\n  pop\n    /* \"#utility.yul\":612:613   */\n  0x01\n    /* \"#utility.yul\":606:610   */\n  dup3\n    /* \"#utility.yul\":602:614   */\n  and\n    /* \"#utility.yul\":633:651   */\n  dup1\n    /* \"#utility.yul\":623:704   */\n  tag_35\n  jumpi\n    /* \"#utility.yul\":689:693   */\n  0x7f\n    /* \"#utility.yul\":681:687   */\n  dup3\n    /* \"#utility.yul\":677:694   */\n  and\n    /* \"#utility.yul\":667:694   */\n  swap2\n  pop\n    /* \"#utility.yul\":623:704   */\ntag_35:\n    /* \"#utility.yul\":751:753   */\n  0x20\n    /* \"#utility.yul\":743:749   */\n  dup3\n    /* \"#utility.yul\":740:754   */\n  lt\n    /* \"#utility.yul\":720:738   */\n  dup2\n    /* \"#utility.yul\":717:755   */\n  sub\n    /* \"#utility.yul\":714:798   */\n  tag_36\n  jumpi\n    /* \"#utility.yul\":770:788   */\n  tag_37\n  tag_12\n  jump\t// in\ntag_37:\n    /* \"#utility.yul\":714:798   */\ntag_36:\n    /* \"#utility.yul\":535:804   */\n  pop\n    /* \"#utility.yul\":484:804   */\n  swap2\n  swap1\n  pop\n  jump\t// out\n    /* \"#utility.yul\":810:951   */\ntag_14:\n    /* \"#utility.yul\":859:863   */\n  0x00\n    /* \"#utility.yul\":882:885   */\n  dup2\n    /* \"#utility.yul\":874:885   */\n  swap1\n  pop\n    /* \"#utility.yul\":905:908   */\n  dup2\n    /* \"#utility.yul\":902:903   */\n  0x00\n    /* \"#utility.yul\":895:909   */\n  mstore\n    /* \"#utility.yul\":939:943   */\n  0x20\n    /* \"#utility.yul\":936:937   */\n  0x00\n    /* \"#utility.yul\":926:944   */\n  keccak256\n    /* \"#utility.yul\":918:944   */\n  swap1\n  pop\n    /* \"#utility.yul\":810:951   */\n  swap2\n  swap1\n  pop\n  jump\t// out\n    /* \"#utility.yul\":957:1050   */\ntag_15:\n    /* \"#utility.yul\":994:1000   */\n  0x00\n    /* \"#utility.yul\":1041:1043   */\n  0x20\n    /* \"#utility.yul\":1036:1038   */\n  0x1f\n    /* \"#utility.yul\":1029:1034   */\n  dup4\n    /* \"#utility.yul\":1025:1039   */\n  add\n    /* \"#utility.yul\":1021:1044   */\n  div\n    /* \"#utility.yul\":1011:1044   */\n  swap1\n  pop\n    /* \"#utility.yul\":957:1050   */\n  swap2\n  swap1\n  pop\n  jump\t// out\n    /* \"#utility.yul\":1056:1163   */\ntag_16:\n    /* \"#utility.yul\":1100:1108   */\n  0x00\n    /* \"#utility.yul\":1150:1155   */\n  dup3\n    /* \"#utility.yul\":1144:1148   */\n  dup3\n    /* \"#utility.yul\":1140:1156   */\n  shl\n    /* \"#utility.yul\":1119:1156   */\n  swap1\n  pop\n    /* \"#utility.yul\":1056:1163   */\n  swap3\n  swap2\n  pop\n  pop\n  jump\t// out\n    /* \"#utility.yul\":1169:1562   */\ntag_17:\n    /* \"#utility.yul\":1238:1244   */\n  0x00\n    /* \"#utility.yul\":1288:1289   */\n  0x08\n    /* \"#utility.yul\":1276:1286   */\n  dup4\n    /* \"#utility.yul\":1272:1290   */\n  mul\n    /* \"#utility.yul\":1311:1408   */\n  tag_42\n    /* \"#utility.yul\":1341:1407   */\n  0xffffffffffffffffffffffffffffffffffffffffffffffffffffffffffffffff\n    /* \"#utility.yul\":1330:1339   */\n  dup3\n    /* \"#utility.yul\":1311:1408   */\n  tag_16\n  jump\t// in\ntag_42:\n    /* \"#utility.yul\":1429:1468   */\n  tag_43\n    /* \"#utility.yul\":1459:1467   */\n  dup7\n    /* \"#utility.yul\":1448:1457   */\n  dup4\n    /* \"#utility.yul\":1429:1468   */\n  tag_16\n  jump\t// in\ntag_43:\n    /* \"#utility.yul\":1417:1468   */\n  swap6\n  pop\n    /* \"#utility.yul\":1501:1505   */\n  dup1\n    /* \"#utility.yul\":1497:1506   */\n  not\n    /* \"#utility.yul\":1490:1495   */\n  dup5\n    /* \"#utility.yul\":1486:1507   */\n  and\n    /* \"#utility.yul\":1477:1507   */\n  swap4\n  pop\n    /* \"#utility.yul\":1550:1554   */\n  dup1\n    /* \"#utility.yul\":1540:1548   */\n  dup7\n    /* \"#utility.yul\":1536:1555   */\n  and\n    /* \"#utility.yul\":1529:1534   */\n  dup5\n    /* \"#utility.yul\":1526:1556   */\n  or\n    /* \"#utility.yul\":1516:1556   */\n  swap3\n  pop\n    /* \"#utility.yul\":1245:1562   */\n  pop\n  pop\n    /* \"#utility.yul\":1169:1562   */\n  swap4\n  swap3\n  pop\n  pop\n  pop\n  jump\t// out\n    /* \"#utility.yul\":1568:1645   */\ntag_18:\n    /* \"#utility.yul\":1605:1612   */\n  0x00\n    /* \"#utility.yul\":1634:1639   */\n  dup2\n    /* \"#utility.yul\":1623:1639   */\n  swap1\n  pop\n    /* \"#utility.yul\":1568:1645   */\n  swap2\n  swap1\n  pop\n  jump\t// out\n    /* \"#utility.yul\":1651:1711   */\ntag_19:\n    /* \"#utility.yul\":1679:1682   */\n  0x00\n    /* \"#utility.yul\":1700:1705   */\n  dup2\n    /* \"#utility.yul\":1693:1705   */\n  swap1\n  pop\n    /* \"#utility.yul\":1651:1711   */\n  swap2\n  swap1\n  pop\n  jump\t// out\n    /* \"#utility.yul\":1717:1859   */\ntag_20:\n    /* \"#utility.yul\":1767:1776   */\n  0x00\n    /* \"#utility.yul\":1800:1853   */\n  tag_47\n    /* \"#utility.yul\":1818:1852   */\n  tag_48\n    /* \"#utility.yul\":1827:1851   */\n  tag_49\n    /* \"#utility.yul\":1845:1850   */\n  dup5\n    /* \"#utility.yul\":1827:1851   */\n  tag_18\n  jump\t// in\ntag_49:\n    /* \"#utility.yul\":1818:1852   */\n  tag_19\n  jump\t// in\ntag_48:\n    /* \"#utility.yul\":1800:1853   */\n  tag_18\n  jump\t// in\ntag_47:\n    /* \"#utility.yul\":1787:1853   */\n  swap1\n  pop\n    /* \"#utility.yul\":1717:1859   */\n  swap2\n  swap1\n  pop\n  jump\t// out\n    /* \"#utility.yul\":1865:1940   */\ntag_21:\n    /* \"#utility.yul\":1908:1911   */\n  0x00\n    /* \"#utility.yul\":1929:1934   */\n  dup2\n    /* \"#utility.yul\":1922:1934   */\n  swap1\n  pop\n    /* \"#utility.yul\":1865:1940   */\n  swap2\n  swap1\n  pop\n  jump\t// out\n    /* \"#utility.yul\":1946:2215   */\ntag_22:\n    /* \"#utility.yul\":2056:2095   */\n  tag_52\n    /* \"#utility.yul\":2087:2094   */\n  dup4\n    /* \"#utility.yul\":2056:2095   */\n  tag_20\n  jump\t// in\ntag_52:\n    /* \"#utility.yul\":2117:2208   */\n  tag_53\n    /* \"#utility.yul\":2166:2207   */\n  tag_54\n    /* \"#utility.yul\":2190:2206   */\n  dup3\n    /* \"#utility.yul\":2166:2207   */\n  tag_21\n  jump\t// in\ntag_54:\n    /* \"#utility.yul\":2158:2164   */\n  dup5\n    /* \"#utility.yul\":2151:2155   */\n  dup5\n    /* \"#utility.yul\":2145:2156   */\n  sload\n    /* \"#utility.yul\":2117:2208   */\n  tag_17\n  jump\t// in\ntag_53:\n    /* \"#utility.yul\":2111:2115   */\n  dup3\n    /* \"#utility.yul\":2104:2209   */\n  sstore\n    /* \"#utility.yul\":2022:2215   */\n  pop\n    /* \"#utility.yul\":1946:2215   */\n  pop\n  pop\n  pop\n  jump\t// out\n    /* \"#utility.yul\":2221:2294   */\ntag_23:\n    /* \"#utility.yul\":2266:2269   */\n  0x00\n    /* \"#utility.yul\":2287:2288   */\n  0x00\n    /* \"#utility.yul\":2280:2288   */\n  swap1\n  pop\n    /* \"#utility.yul\":2221:2294   */\n  swap1\n  jump\t// out\n    /* \"#utility.yul\":2300:2489   */\ntag_24:\n    /* \"#utility.yul\":2377:2409   */\n  tag_57\n  tag_23\n  jump\t// in\ntag_57:\n    /* \"#utility.yul\":2418:2483   */\n  tag_58\n    /* \"#utility.yul\":2476:2482   */\n  dup2\n    /* \"#utility.yul\":2468:2474   */\n  dup5\n    /* \"#utility.yul\":2462:2466   */\n  dup5\n    /* \"#utility.yul\":2418:2483   */\n  tag_22\n  jump\t// in\ntag_58:\n    /* \"#utility.yul\":2353:2489   */\n  pop\n    /* \"#utility.yul\":2300:2489   */\n  pop\n  pop\n  jump\t// out\n    /* \"#utility.yul\":2495:2681   */\ntag_25:\n    /* \"#utility.yul\":2555:2675   */\ntag_60:\n    /* \"#utility.yul\":2572:2575   */\n  dup2\n    /* \"#utility.yul\":2565:2570   */\n  dup2\n    /* \"#utility.yul\":2562:2576   */\n  lt\n    /* \"#utility.yul\":2555:2675   */\n  iszero\n  tag_62\n  jumpi\n    /* \"#utility.yul\":2626:2665   */\n  tag_63\n    /* \"#utility.yul\":2663:2664   */\n  0x00\n    /* \"#utility.yul\":2656:2661   */\n  dup3\n    /* \"#utility.yul\":2626:2665   */\n  tag_24\n  jump\t// in\ntag_63:\n    /* \"#utility.yul\":2599:2600   */\n  0x01\n    /* \"#utility.yul\":2592:2597   */\n  dup2\n    /* \"#utility.yul\":2588:2601   */\n  add\n    /* \"#utility.yul\":2579:2601   */\n  swap1\n  pop\n    /* \"#utility.yul\":2555:2675   */\n  jump(tag_60)\ntag_62:\n    /* \"#utility.yul\":2495:2681   */\n  pop\n  pop\n  jump\t// out\n    /* \"#utility.yul\":2687:3230   */\ntag_26:\n    /* \"#utility.yul\":2788:2790   */\n  0x1f\n    /* \"#utility.yul\":2783:2786   */\n  dup3\n    /* \"#utility.yul\":2780:2791   */\n  gt\n    /* \"#utility.yul\":2777:3223   */\n  iszero\n  tag_65\n  jumpi\n    /* \"#utility.yul\":2822:2860   */\n  tag_66\n    /* \"#utility.yul\":2854:2859   */\n  dup2\n    /* \"#utility.yul\":2822:2860   */\n  tag_14\n  jump\t// in\ntag_66:\n    /* \"#utility.yul\":2906:2935   */\n  tag_67\n    /* \"#utility.yul\":2924:2934   */\n  dup5\n    /* \"#utility.yul\":2906:2935   */\n  tag_15\n  jump\t// in\ntag_67:\n    /* \"#utility.yul\":2896:2904   */\n  dup2\n    /* \"#utility.yul\":2892:2936   */\n  add\n    /* \"#utility.yul\":3089:3091   */\n  0x20\n    /* \"#utility.yul\":3077:3087   */\n  dup6\n    /* \"#utility.yul\":3074:3092   */\n  lt\n    /* \"#utility.yul\":3071:3120   */\n  iszero\n  tag_68\n  jumpi\n    /* \"#utility.yul\":3110:3118   */\n  dup2\n    /* \"#utility.yul\":3095:3118   */\n  swap1\n  pop\n    /* \"#utility.yul\":3071:3120   */\ntag_68:\n    /* \"#utility.yul\":3133:3213   */\n  tag_69\n    /* \"#utility.yul\":3189:3211   */\n  tag_70\n    /* \"#utility.yul\":3207:3210   */\n  dup6\n    /* \"#utility.yul\":3189:3211   */\n  tag_15\n  jump\t// in\ntag_70:\n    /* \"#utility.yul\":3179:3187   */\n  dup4\n    /* \"#utility.yul\":3175:3212   */\n  add\n    /* \"#utility.yul\":3162:3173   */\n  dup3\n    /* \"#utility.yul\":3133:3213   */\n  tag_25\n  jump\t// in\ntag_69:\n    /* \"#utility.yul\":2792:3223   */\n  pop\n  pop\n    /* \"#utility.yul\":2777:3223   */\ntag_65:\n    /* \"#utility.yul\":2687:3230   */\n  pop\n  pop\n  pop\n  jump\t// out\n    /* \"#utility.yul\":3236:3353   */\ntag_27:\n    /* \"#utility.yul\":3290:3298   */\n  0x00\n    /* \"#utility.yul\":3340:3345   */\n  dup3\n    /* \"#utility.yul\":3334:3338   */\n  dup3\n    /* \"#utility.yul\":3330:3346   */\n  shr\n    /* \"#utility.yul\":3309:3346   */\n  swap1\n  pop\n    /* \"#utility.yul\":3236:3353   */\n  swap3\n  swap2\n  pop\n  pop\n  jump\t// out\n    /* \"#utility.yul\":3359:3528   */\ntag_28:\n    /* \"#utility.yul\":3403:3409   */\n  0x00\n    /* \"#utility.yul\":3436:3487   */\n  tag_73\n    /* \"#utility.yul\":3484:3485   */\n  0x00\n    /* \"#utility.yul\":3480:3486   */\n  not\n    /* \"#utility.yul\":3472:3477   */\n  dup5\n    /* \"#utility.yul\":3469:3470   */\n  0x08\n    /* \"#utility.yul\":3465:3478   */\n  mul\n    /* \"#utility.yul\":3436:3487   */\n  tag_27\n  jump\t// in\ntag_73:\n    /* \"#utility.yul\":3432:3488   */\n  not\n    /* \"#utility.yul\":3517:3521   */\n  dup1\n    /* \"#utility.yul\":3511:3515   */\n  dup4\n    /* \"#utility.yul\":3507:3522   */\n  and\n    /* \"#utility.yul\":3497:3522   */\n  swap2\n  pop\n    /* \"#utility.yul\":3410:3528   */\n  pop\n    /* \"#utility.yul\":3359:3528   */\n  swap3\n  swap2\n  pop\n  pop\n  jump\t// out\n    /* \"#utility.yul\":3533:3828   */\ntag_29:\n    /* \"#utility.yul\":3609:3613   */\n  0x00\n    /* \"#utility.yul\":3755:3784   */\n  tag_75\n    /* \"#utility.yul\":3780:3783   */\n  dup4\n    /* \"#utility.yul\":3774:3778   */\n  dup4\n    /* \"#utility.yul\":3755:3784   */\n  tag_28\n  jump\t// in\ntag_75:\n    /* \"#utility.yul\":3747:3784   */\n  swap2\n  pop\n    /* \"#utility.yul\":3817:3820   */\n  dup3\n    /* \"#utility.yul\":3814:3815   */\n  0x02\n    /* \"#utility.yul\":3810:3821   */\n  mul\n    /* \"#utility.yul\":3804:3808   */\n  dup3\n    /* \"#utility.yul\":3801:3822   */\n  or\n    /* \"#utility.yul\":3793:3822   */\n  swap1\n  pop\n    /* \"#utility.yul\":3533:3828   */\n  swap3\n  swap2\n  pop\n  pop\n  jump\t// out\n    /* \"#utility.yul\":3833:5228   */\ntag_6:\n    /* \"#utility.yul\":3950:3987   */\n  tag_77\n    /* \"#utility.yul\":3983:3986   */\n  dup3\n    /* \"#utility.yul\":3950:3987   */\n  tag_10\n  jump\t// in\ntag_77:\n    /* \"#utility.yul\":4052:4070   */\n  0xffffffffffffffff\n    /* \"#utility.yul\":4044:4050   */\n  dup2\n    /* \"#utility.yul\":4041:4071   */\n  gt\n    /* \"#utility.yul\":4038:4094   */\n  iszero\n  tag_78\n  jumpi\n    /* \"#utility.yul\":4074:4092   */\n  tag_79\n  tag_11\n  jump\t// in\ntag_79:\n    /* \"#utility.yul\":4038:4094   */\ntag_78:\n    /* \"#utility.yul\":4118:4156   */\n  tag_80\n    /* \"#utility.yul\":4150:4154   */\n  dup3\n    /* \"#utility.yul\":4144:4155   */\n  sload\n    /* \"#utility.yul\":4118:4156   */\n  tag_13\n  jump\t// in\ntag_80:\n    /* \"#utility.yul\":4203:4270   */\n  tag_81\n    /* \"#utility.yul\":4263:4269   */\n  dup3\n    /* \"#utility.yul\":4255:4261   */\n  dup3\n    /* \"#utility.yul\":4249:4253   */\n  dup6\n    /* \"#utility.yul\":4203:4270   */\n  tag_26\n  jump\t// in\ntag_81:\n    /* \"#utility.yul\":4297:4298   */\n  0x00\n    /* \"#utility.yul\":4321:4325   */\n  0x20\n    /* \"#utility.yul\":4308:4325   */\n  swap1\n  pop\n    /* \"#utility.yul\":4353:4355   */\n  0x1f\n    /* \"#utility.yul\":4345:4351   */\n  dup4\n    /* \"#utility.yul\":4342:4356   */\n  gt\n    /* \"#utility.yul\":4370:4371   */\n  0x01\n    /* \"#utility.yul\":4365:4983   */\n  dup2\n  eq\n  tag_83\n  jumpi\n    /* \"#utility.yul\":5027:5028   */\n  0x00\n    /* \"#utility.yul\":5044:5050   */\n  dup5\n    /* \"#utility.yul\":5041:5118   */\n  iszero\n  tag_84\n  jumpi\n    /* \"#utility.yul\":5093:5102   */\n  dup3\n    /* \"#utility.yul\":5088:5091   */\n  dup8\n    /* \"#utility.yul\":5084:5103   */\n  add\n    /* \"#utility.yul\":5078:5104   */\n  mload\n    /* \"#utility.yul\":5069:5104   */\n  swap1\n  pop\n    /* \"#utility.yul\":5041:5118   */\ntag_84:\n    /* \"#utility.yul\":5144:5211   */\n  tag_85\n    /* \"#utility.yul\":5204:5210   */\n  dup6\n    /* \"#utility.yul\":5197:5202   */\n  dup3\n    /* \"#utility.yul\":5144:5211   */\n  tag_29\n  jump\t// in\ntag_85:\n    /* \"#utility.yul\":5138:5142   */\n  dup7\n    /* \"#utility.yul\":5131:5212   */\n  sstore\n    /* \"#utility.yul\":5000:5222   */\n  pop\n    /* \"#utility.yul\":4335:5222   */\n  jump(tag_82)\n    /* \"#utility.yul\":4365:4983   */\ntag_83:\n    /* \"#utility.yul\":4417:4421   */\n  0x1f\n    /* \"#utility.yul\":4413:4422   */\n  not\n    /* \"#utility.yul\":4405:4411   */\n  dup5\n    /* \"#utility.yul\":4401:4423   */\n  and\n    /* \"#utility.yul\":4451:4488   */\n  tag_86\n    /* \"#utility.yul\":4483:4487   */\n  dup7\n    /* \"#utility.yul\":4451:4488   */\n  tag_14\n  jump\t// in\ntag_86:\n    /* \"#utility.yul\":4510:4511   */\n  0x00\n    /* \"#utility.yul\":4524:4732   */\ntag_87:\n    /* \"#utility.yul\":4538:4545   */\n  dup3\n    /* \"#utility.yul\":4535:4536   */\n  dup2\n    /* \"#utility.yul\":4532:4546   */\n  lt\n    /* \"#utility.yul\":4524:4732   */\n  iszero\n  tag_89\n  jumpi\n    /* \"#utility.yul\":4617:4626   */\n  dup5\n    /* \"#utility.yul\":4612:4615   */\n  dup10\n    /* \"#utility.yul\":4608:4627   */\n  add\n    /* \"#utility.yul\":4602:4628   */\n  mload\n    /* \"#utility.yul\":4594:4600   */\n  dup3\n    /* \"#utility.yul\":4587:4629   */\n  sstore\n    /* \"#utility.yul\":4668:4669   */\n  0x01\n    /* \"#utility.yul\":4660:4666   */\n  dup3\n    /* \"#utility.yul\":4656:4670   */\n  add\n    /* \"#utility.yul\":4646:4670   */\n  swap2\n  pop\n    /* \"#utility.yul\":4715:4717   */\n  0x20\n    /* \"#utility.yul\":4704:4713   */\n  dup6\n    /* \"#utility.yul\":4700:4718   */\n  add\n    /* \"#utility.yul\":4687:4718   */\n  swap5\n  pop\n    /* \"#utility.yul\":4561:4565   */\n  0x20\n    /* \"#utility.yul\":4558:4559   */\n  dup2\n    /* \"#utility.yul\":4554:4566   */\n  add\n    /* \"#utility.yul\":4549:4566   */\n  swap1\n  pop\n    /* \"#utility.yul\":4524:4732   */\n  jump(tag_87)\ntag_89:\n    /* \"#utility.yul\":4760:4766   */\n  dup7\n    /* \"#utility.yul\":4751:4758   */\n  dup4\n    /* \"#utility.yul\":4748:4767   */\n  lt\n    /* \"#utility.yul\":4745:4924   */\n  iszero\n  tag_90\n  jumpi\n    /* \"#utility.yul\":4818:4827   */\n  dup5\n    /* \"#utility.yul\":4813:4816   */\n  dup10\n    /* \"#utility.yul\":4809:4828   */\n  add\n    /* \"#utility.yul\":4803:4829   */\n  mload\n    /* \"#utility.yul\":4861:4909   */\n  tag_91\n    /* \"#utility.yul\":4903:4907   */\n  0x1f\n    /* \"#utility.yul\":4895:4901   */\n  dup10\n    /* \"#utility.yul\":4891:4908   */\n  and\n    /* \"#utility.yul\":4880:4889   */\n  dup3\n    /* \"#utility.yul\":4861:4909   */\n  tag_28\n  jump\t// in\ntag_91:\n    /* \"#utility.yul\":4853:4859   */\n  dup4\n    /* \"#utility.yul\":4846:4910   */\n  sstore\n    /* \"#utility.yul\":4768:4924   */\n  pop\n    /* \"#utility.yul\":4745:4924   */\ntag_90:\n    /* \"#utility.yul\":4970:4971   */\n  0x01\n    /* \"#utility.yul\":4966:4967   */\n  0x02\n    /* \"#utility.yul\":4958:4964   */\n  dup9\n    /* \"#utility.yul\":4954:4968   */\n  mul\n    /* \"#utility.yul\":4950:4972   */\n  add\n    /* \"#utility.yul\":4944:4948   */\n  dup9\n    /* \"#utility.yul\":4937:4973   */\n  sstore\n    /* \"#utility.yul\":4372:4983   */\n  pop\n  pop\n  pop\n    /* \"#utility.yul\":4335:5222   */\ntag_82:\n  pop\n    /* \"#utility.yul\":3925:5228   */\n  pop\n  pop\n  pop\n    /* \"#utility.yul\":3833:5228   */\n  pop\n  pop\n  jump\t// out\n    /* \"Qsito/carnaval.sol\":119:4298  contract CarnavalScores is ERC20 {... */\ntag_9:\n  dataSize(sub_0)\n  dup1\n  dataOffset(sub_0)\n  0x00\n  codecopy\n  0x00\n  return\nstop\n\nsub_0: assembly {\n        /* \"Qsito/carnaval.sol\":119:4298  contract CarnavalScores is ERC20 {... */\n      mstore(0x40, 0x80)\n      callvalue\n      dup1\n      iszero\n      tag_1\n      jumpi\n      revert(0x00, 0x00)\n    tag_1:\n      pop\n      jumpi(tag_2, lt(calldatasize, 0x04))\n      shr(0xe0, calldataload(0x00))\n      dup1\n      0x70a08231\n      gt\n      tag_25\n      jumpi\n      dup1\n      0xbb7b3671\n      gt\n      tag_26\n      jumpi\n      dup1\n      0xbb7b3671\n      eq\n      tag_19\n      jumpi\n      dup1\n      0xd3dea54d\n      eq\n      tag_20\n      jumpi\n      dup1\n      0xdd62ed3e\n      eq\n      tag_21\n      jumpi\n      dup1\n      0xe2eae4db\n      eq\n      tag_22\n      jumpi\n      dup1\n      0xe49a39dc\n      eq\n      tag_23\n      jumpi\n      dup1\n      0xeb75e0b8\n      eq\n      tag_24\n      jumpi\n      jump(tag_2)\n    tag_26:\n      dup1\n      0x70a08231\n      eq\n      tag_14\n      jumpi\n      dup1\n      0x8da5cb5b\n      eq\n      tag_15\n      jumpi\n      dup1\n      0x95d89b41\n      eq\n      tag_16\n      jumpi\n      dup1\n      0xa9059cbb\n      eq\n      tag_17\n      jumpi\n      dup1\n      0xa916b987\n      eq\n      tag_18\n      jumpi\n      jump(tag_2)\n    tag_25:\n      dup1\n      0x18160ddd\n      gt\n      tag_27\n      jumpi\n      dup1\n      0x18160ddd\n      eq\n      tag_8\n      jumpi\n      dup1\n      0x1f12a015\n      eq\n      tag_9\n      jumpi\n      dup1\n      0x23b872dd\n      eq\n      tag_10\n      jumpi\n      dup1\n      0x313ce567\n      eq\n      tag_11\n      jumpi\n      dup1\n      0x3bdff5ba\n      eq\n      tag_12\n      jumpi\n      dup1\n      0x66885744\n      eq\n      tag_13\n      jumpi\n      jump(tag_2)\n    tag_27:\n      dup1\n      0x05ae501e\n      eq\n      tag_3\n      jumpi\n      dup1\n      0x06fdde03\n      eq\n      tag_4\n      jumpi\n      dup1\n      0x095ea7b3\n      eq\n      tag_5\n      jumpi\n      dup1\n      0x140b24f5\n      eq\n      tag_6\n      jumpi\n      dup1\n      0x162f17a9\n      eq\n      tag_7\n      jumpi\n    tag_2:\n      revert(0x00, 0x00)\n        /* \"Qsito/carnaval.sol\":3029:3544  function registrarNota(uint _escolaId, uint _quesitoId, uint _nota) public {... */\n    tag_3:\n      tag_28\n      0x04\n      dup1\n      calldatasize\n      sub\n      dup2\n      add\n      swap1\n      tag_29\n      swap2\n      swap1\n      tag_30\n      jump\t// in\n    tag_29:\n      tag_31\n      jump\t// in\n    tag_28:\n      stop\n        /* \"@openzeppelin/contracts/token/ERC20/ERC20.sol\":1779:1868  function name() public view virtual returns (string memory) {... */\n    tag_4:\n      tag_32\n      tag_33\n      jump\t// in\n    tag_32:\n      mload(0x40)\n      tag_34\n      swap2\n      swap1\n      tag_35\n      jump\t// in\n    tag_34:\n      mload(0x40)\n      dup1\n      swap2\n      sub\n      swap1\n      return\n        /* \"@openzeppelin/contracts/token/ERC20/ERC20.sol\":3998:4184  function approve(address spender, uint256 value) public virtual returns (bool) {... */\n    tag_5:\n      tag_36\n      0x04\n      dup1\n      calldatasize\n      sub\n      dup2\n      add\n      swap1\n      tag_37\n      swap2\n      swap1\n      tag_38\n      jump\t// in\n    tag_37:\n      tag_39\n      jump\t// in\n    tag_36:\n      mload(0x40)\n      tag_40\n      swap2\n      swap1\n      tag_41\n      jump\t// in\n    tag_40:\n      mload(0x40)\n      dup1\n      swap2\n      sub\n      swap1\n      return\n        /* \"Qsito/carnaval.sol\":2574:3000  function addQuesito(string memory _nomeQuesito) public onlyOwner returns (uint) {... */\n    tag_6:\n      tag_42\n      0x04\n      dup1\n      calldatasize\n      sub\n      dup2\n      add\n      swap1\n      tag_43\n      swap2\n      swap1\n      tag_44\n      jump\t// in\n    tag_43:\n      tag_45\n      jump\t// in\n    tag_42:\n      mload(0x40)\n      tag_46\n      swap2\n      swap1\n      tag_47\n      jump\t// in\n    tag_46:\n      mload(0x40)\n      dup1\n      swap2\n      sub\n      swap1\n      return\n        /* \"Qsito/carnaval.sol\":828:847  Nota[] public notas */\n    tag_7:\n      tag_48\n      0x04\n      dup1\n      calldatasize\n      sub\n      dup2\n      add\n      swap1\n      tag_49\n      swap2\n      swap1\n      tag_50\n      jump\t// in\n    tag_49:\n      tag_51\n      jump\t// in\n    tag_48:\n      mload(0x40)\n      tag_52\n      swap5\n      swap4\n      swap3\n      swap2\n      swap1\n      tag_53\n      jump\t// in\n    tag_52:\n      mload(0x40)\n      dup1\n      swap2\n      sub\n      swap1\n      return\n        /* \"@openzeppelin/contracts/token/ERC20/ERC20.sol\":2849:2946  function totalSupply() public view virtual returns (uint256) {... */\n    tag_8:\n      tag_54\n      tag_55\n      jump\t// in\n    tag_54:\n      mload(0x40)\n      tag_56\n      swap2\n      swap1\n      tag_47\n      jump\t// in\n    tag_56:\n      mload(0x40)\n      dup1\n      swap2\n      sub\n      swap1\n      return\n        /* \"Qsito/carnaval.sol\":860:901  mapping(address => Jurado) public jurados */\n    tag_9:\n      tag_57\n      0x04\n      dup1\n      calldatasize\n      sub\n      dup2\n      add\n      swap1\n      tag_58\n      swap2\n      swap1\n      tag_59\n      jump\t// in\n    tag_58:\n      tag_60\n      jump\t// in\n    tag_57:\n      mload(0x40)\n      tag_61\n      swap3\n      swap2\n      swap1\n      tag_62\n      jump\t// in\n    tag_61:\n      mload(0x40)\n      dup1\n      swap2\n      sub\n      swap1\n      return\n        /* \"@openzeppelin/contracts/token/ERC20/ERC20.sol\":4776:5020  function transferFrom(address from, address to, uint256 value) public virtual returns (bool) {... */\n    tag_10:\n      tag_63\n      0x04\n      dup1\n      calldatasize\n      sub\n      dup2\n      add\n      swap1\n      tag_64\n      swap2\n      swap1\n      tag_65\n      jump\t// in\n    tag_64:\n      tag_66\n      jump\t// in\n    tag_63:\n      mload(0x40)\n      tag_67\n      swap2\n      swap1\n      tag_41\n      jump\t// in\n    tag_67:\n      mload(0x40)\n      dup1\n      swap2\n      sub\n      swap1\n      return\n        /* \"@openzeppelin/contracts/token/ERC20/ERC20.sol\":2707:2789  function decimals() public view virtual returns (uint8) {... */\n    tag_11:\n      tag_68\n      tag_69\n      jump\t// in\n    tag_68:\n      mload(0x40)\n      tag_70\n      swap2\n      swap1\n      tag_71\n      jump\t// in\n    tag_70:\n      mload(0x40)\n      dup1\n      swap2\n      sub\n      swap1\n      return\n        /* \"Qsito/carnaval.sol\":1605:2096  function addJurado(string memory _nomeJurado) public onlyOwner returns (uint) {... */\n    tag_12:\n      tag_72\n      0x04\n      dup1\n      calldatasize\n      sub\n      dup2\n      add\n      swap1\n      tag_73\n      swap2\n      swap1\n      tag_44\n      jump\t// in\n    tag_73:\n      tag_74\n      jump\t// in\n    tag_72:\n      mload(0x40)\n      tag_75\n      swap2\n      swap1\n      tag_47\n      jump\t// in\n    tag_75:\n      mload(0x40)\n      dup1\n      swap2\n      sub\n      swap1\n      return\n        /* \"Qsito/carnaval.sol\":3600:3857  function getNota(uint _escolaId, uint _quesitoId) public view returns (uint256) {... */\n    tag_13:\n      tag_76\n      0x04\n      dup1\n      calldatasize\n      sub\n      dup2\n      add\n      swap1\n      tag_77\n      swap2\n      swap1\n      tag_78\n      jump\t// in\n    tag_77:\n      tag_79\n      jump\t// in\n    tag_76:\n      mload(0x40)\n      tag_80\n      swap2\n      swap1\n      tag_47\n      jump\t// in\n    tag_80:\n      mload(0x40)\n      dup1\n      swap2\n      sub\n      swap1\n      return\n        /* \"@openzeppelin/contracts/token/ERC20/ERC20.sol\":3004:3120  function balanceOf(address account) public view virtual returns (uint256) {... */\n    tag_14:\n      tag_81\n      0x04\n      dup1\n      calldatasize\n      sub\n      dup2\n      add\n      swap1\n      tag_82\n      swap2\n      swap1\n      tag_59\n      jump\t// in\n    tag_82:\n      tag_83\n      jump\t// in\n    tag_81:\n      mload(0x40)\n      tag_84\n      swap2\n      swap1\n      tag_47\n      jump\t// in\n    tag_84:\n      mload(0x40)\n      dup1\n      swap2\n      sub\n      swap1\n      return\n        /* \"Qsito/carnaval.sol\":1029:1049  address public owner */\n    tag_15:\n      tag_85\n      tag_86\n      jump\t// in\n    tag_85:\n      mload(0x40)\n      tag_87\n      swap2\n      swap1\n      tag_88\n      jump\t// in\n    tag_87:\n      mload(0x40)\n      dup1\n      swap2\n      sub\n      swap1\n      return\n        /* \"@openzeppelin/contracts/token/ERC20/ERC20.sol\":1981:2074  function symbol() public view virtual returns (string memory) {... */\n    tag_16:\n      tag_89\n      tag_90\n      jump\t// in\n    tag_89:\n      mload(0x40)\n      tag_91\n      swap2\n      swap1\n      tag_35\n      jump\t// in\n    tag_91:\n      mload(0x40)\n      dup1\n      swap2\n      sub\n      swap1\n      return\n        /* \"@openzeppelin/contracts/token/ERC20/ERC20.sol\":3315:3493  function transfer(address to, uint256 value) public virtual returns (bool) {... */\n    tag_17:\n      tag_92\n      0x04\n      dup1\n      calldatasize\n      sub\n      dup2\n      add\n      swap1\n      tag_93\n      swap2\n      swap1\n      tag_38\n      jump\t// in\n    tag_93:\n      tag_94\n      jump\t// in\n    tag_92:\n      mload(0x40)\n      tag_95\n      swap2\n      swap1\n      tag_41\n      jump\t// in\n    tag_95:\n      mload(0x40)\n      dup1\n      swap2\n      sub\n      swap1\n      return\n        /* \"Qsito/carnaval.sol\":908:975  mapping(uint => mapping(uint => Nota)) public notasPorEscolaQuesito */\n    tag_18:\n      tag_96\n      0x04\n      dup1\n      calldatasize\n      sub\n      dup2\n      add\n      swap1\n      tag_97\n      swap2\n      swap1\n      tag_78\n      jump\t// in\n    tag_97:\n      tag_98\n      jump\t// in\n    tag_96:\n      mload(0x40)\n      tag_99\n      swap5\n      swap4\n      swap3\n      swap2\n      swap1\n      tag_53\n      jump\t// in\n    tag_99:\n      mload(0x40)\n      dup1\n      swap2\n      sub\n      swap1\n      return\n        /* \"Qsito/carnaval.sol\":2125:2542  function addEscola(string memory _nomeEscola) public onlyOwner returns (uint) {... */\n    tag_19:\n      tag_100\n      0x04\n      dup1\n      calldatasize\n      sub\n      dup2\n      add\n      swap1\n      tag_101\n      swap2\n      swap1\n      tag_44\n      jump\t// in\n    tag_101:\n      tag_102\n      jump\t// in\n    tag_100:\n      mload(0x40)\n      tag_103\n      swap2\n      swap1\n      tag_47\n      jump\t// in\n    tag_103:\n      mload(0x40)\n      dup1\n      swap2\n      sub\n      swap1\n      return\n        /* \"Qsito/carnaval.sol\":729:770  Escola[QUANTIDADE_ESCOLAS] public escolas */\n    tag_20:\n      tag_104\n      0x04\n      dup1\n      calldatasize\n      sub\n      dup2\n      add\n      swap1\n      tag_105\n      swap2\n      swap1\n      tag_50\n      jump\t// in\n    tag_105:\n      tag_106\n      jump\t// in\n    tag_104:\n      mload(0x40)\n      tag_107\n      swap3\n      swap2\n      swap1\n      tag_108\n      jump\t// in\n    tag_107:\n      mload(0x40)\n      dup1\n      swap2\n      sub\n      swap1\n      return\n        /* \"@openzeppelin/contracts/token/ERC20/ERC20.sol\":3551:3691  function allowance(address owner, address spender) public view virtual returns (uint256) {... */\n    tag_21:\n      tag_109\n      0x04\n      dup1\n      calldatasize\n      sub\n      dup2\n      add\n      swap1\n      tag_110\n      swap2\n      swap1\n      tag_111\n      jump\t// in\n    tag_110:\n      tag_112\n      jump\t// in\n    tag_109:\n      mload(0x40)\n      tag_113\n      swap2\n      swap1\n      tag_47\n      jump\t// in\n    tag_113:\n      mload(0x40)\n      dup1\n      swap2\n      sub\n      swap1\n      return\n        /* \"Qsito/carnaval.sol\":671:722  Jurado[QUANTIDADE_JURADOS] public quantidadeJurados */\n    tag_22:\n      tag_114\n      0x04\n      dup1\n      calldatasize\n      sub\n      dup2\n      add\n      swap1\n      tag_115\n      swap2\n      swap1\n      tag_50\n      jump\t// in\n    tag_115:\n      tag_116\n      jump\t// in\n    tag_114:\n      mload(0x40)\n      tag_117\n      swap3\n      swap2\n      swap1\n      tag_62\n      jump\t// in\n    tag_117:\n      mload(0x40)\n      dup1\n      swap2\n      sub\n      swap1\n      return\n        /* \"Qsito/carnaval.sol\":3895:4295  function limparDados() public onlyOwner {... */\n    tag_23:\n      tag_118\n      tag_119\n      jump\t// in\n    tag_118:\n      stop\n        /* \"Qsito/carnaval.sol\":777:821  Quesito[QUANTIDADE_QUESITOS] public quesitos */\n    tag_24:\n      tag_120\n      0x04\n      dup1\n      calldatasize\n      sub\n      dup2\n      add\n      swap1\n      tag_121\n      swap2\n      swap1\n      tag_50\n      jump\t// in\n    tag_121:\n      tag_122\n      jump\t// in\n    tag_120:\n      mload(0x40)\n      tag_123\n      swap3\n      swap2\n      swap1\n      tag_108\n      jump\t// in\n    tag_123:\n      mload(0x40)\n      dup1\n      swap2\n      sub\n      swap1\n      return\n        /* \"Qsito/carnaval.sol\":3029:3544  function registrarNota(uint _escolaId, uint _quesitoId, uint _nota) public {... */\n    tag_31:\n        /* \"Qsito/carnaval.sol\":3155:3165  msg.sender */\n      caller\n        /* \"Qsito/carnaval.sol\":3123:3165  jurados[msg.sender].endereco == msg.sender */\n      0xffffffffffffffffffffffffffffffffffffffff\n      and\n        /* \"Qsito/carnaval.sol\":3123:3130  jurados */\n      0x7e\n        /* \"Qsito/carnaval.sol\":3123:3142  jurados[msg.sender] */\n      0x00\n        /* \"Qsito/carnaval.sol\":3131:3141  msg.sender */\n      caller\n        /* \"Qsito/carnaval.sol\":3123:3142  jurados[msg.sender] */\n      0xffffffffffffffffffffffffffffffffffffffff\n      and\n      0xffffffffffffffffffffffffffffffffffffffff\n      and\n      dup2\n      mstore\n      0x20\n      add\n      swap1\n      dup2\n      mstore\n      0x20\n      add\n      0x00\n      keccak256\n        /* \"Qsito/carnaval.sol\":3123:3151  jurados[msg.sender].endereco */\n      0x00\n      add\n      0x00\n      swap1\n      sload\n      swap1\n      0x0100\n      exp\n      swap1\n      div\n      0xffffffffffffffffffffffffffffffffffffffff\n      and\n        /* \"Qsito/carnaval.sol\":3123:3165  jurados[msg.sender].endereco == msg.sender */\n      0xffffffffffffffffffffffffffffffffffffffff\n      and\n      eq\n        /* \"Qsito/carnaval.sol\":3115:3201  require(jurados[msg.sender].endereco == msg.sender, \"Somente jurados podem registrar\") */\n      tag_125\n      jumpi\n      mload(0x40)\n      0x08c379a000000000000000000000000000000000000000000000000000000000\n      dup2\n      mstore\n      0x04\n      add\n      tag_126\n      swap1\n      tag_127\n      jump\t// in\n    tag_126:\n      mload(0x40)\n      dup1\n      swap2\n      sub\n      swap1\n      revert\n    tag_125:\n        /* \"Qsito/carnaval.sol\":3229:3232  900 */\n      0x0384\n        /* \"Qsito/carnaval.sol\":3220:3225  _nota */\n      dup2\n        /* \"Qsito/carnaval.sol\":3220:3232  _nota >= 900 */\n      lt\n      iszero\n        /* \"Qsito/carnaval.sol\":3220:3249  _nota >= 900 && _nota <= 1000 */\n      dup1\n      iszero\n      tag_128\n      jumpi\n      pop\n        /* \"Qsito/carnaval.sol\":3245:3249  1000 */\n      0x03e8\n        /* \"Qsito/carnaval.sol\":3236:3241  _nota */\n      dup2\n        /* \"Qsito/carnaval.sol\":3236:3249  _nota <= 1000 */\n      gt\n      iszero\n        /* \"Qsito/carnaval.sol\":3220:3249  _nota >= 900 && _nota <= 1000 */\n    tag_128:\n        /* \"Qsito/carnaval.sol\":3212:3269  require(_nota >= 900 && _nota <= 1000, \"Nota impossivel\") */\n      tag_129\n      jumpi\n      mload(0x40)\n      0x08c379a000000000000000000000000000000000000000000000000000000000\n      dup2\n      mstore\n      0x04\n      add\n      tag_130\n      swap1\n      tag_131\n      jump\t// in\n    tag_130:\n      mload(0x40)\n      dup1\n      swap2\n      sub\n      swap1\n      revert\n    tag_129:\n        /* \"Qsito/carnaval.sol\":3280:3296  Nota memory nota */\n      0x00\n        /* \"Qsito/carnaval.sol\":3299:3447  Nota({... */\n      mload(0x40)\n      dup1\n      0x80\n      add\n      0x40\n      mstore\n      dup1\n        /* \"Qsito/carnaval.sol\":3329:3338  _escolaId */\n      dup6\n        /* \"Qsito/carnaval.sol\":3299:3447  Nota({... */\n      dup2\n      mstore\n      0x20\n      add\n        /* \"Qsito/carnaval.sol\":3364:3374  _quesitoId */\n      dup5\n        /* \"Qsito/carnaval.sol\":3299:3447  Nota({... */\n      dup2\n      mstore\n      0x20\n      add\n        /* \"Qsito/carnaval.sol\":3399:3409  msg.sender */\n      caller\n        /* \"Qsito/carnaval.sol\":3299:3447  Nota({... */\n      0xffffffffffffffffffffffffffffffffffffffff\n      and\n      dup2\n      mstore\n      0x20\n      add\n        /* \"Qsito/carnaval.sol\":3430:3435  _nota */\n      dup4\n        /* \"Qsito/carnaval.sol\":3299:3447  Nota({... */\n      dup2\n      mstore\n      pop\n        /* \"Qsito/carnaval.sol\":3280:3447  Nota memory nota = Nota({... */\n      swap1\n      pop\n        /* \"Qsito/carnaval.sol\":3458:3463  notas */\n      0x7d\n        /* \"Qsito/carnaval.sol\":3469:3473  nota */\n      dup2\n        /* \"Qsito/carnaval.sol\":3458:3474  notas.push(nota) */\n      swap1\n      dup1\n      0x01\n      dup2\n      sload\n      add\n      dup1\n      dup3\n      sstore\n      dup1\n      swap2\n      pop\n      pop\n      0x01\n      swap1\n      sub\n      swap1\n      0x00\n      mstore\n      keccak256(0x00, 0x20)\n      swap1\n      0x04\n      mul\n      add\n      0x00\n      swap1\n      swap2\n      swap1\n      swap2\n      swap1\n      swap2\n      pop\n      0x00\n      dup3\n      add\n      mload\n      dup2\n      0x00\n      add\n      sstore\n      0x20\n      dup3\n      add\n      mload\n      dup2\n      0x01\n      add\n      sstore\n      0x40\n      dup3\n      add\n      mload\n      dup2\n      0x02\n      add\n      exp(0x0100, 0x00)\n      dup2\n      sload\n      dup2\n      0xffffffffffffffffffffffffffffffffffffffff\n      mul\n      not\n      and\n      swap1\n      dup4\n      0xffffffffffffffffffffffffffffffffffffffff\n      and\n      mul\n      or\n      swap1\n      sstore\n      pop\n      0x60\n      dup3\n      add\n      mload\n      dup2\n      0x03\n      add\n      sstore\n      pop\n      pop\n        /* \"Qsito/carnaval.sol\":3532:3536  nota */\n      dup1\n        /* \"Qsito/carnaval.sol\":3485:3506  notasPorEscolaQuesito */\n      0x7f\n        /* \"Qsito/carnaval.sol\":3485:3517  notasPorEscolaQuesito[_escolaId] */\n      0x00\n        /* \"Qsito/carnaval.sol\":3507:3516  _escolaId */\n      dup7\n        /* \"Qsito/carnaval.sol\":3485:3517  notasPorEscolaQuesito[_escolaId] */\n      dup2\n      mstore\n      0x20\n      add\n      swap1\n      dup2\n      mstore\n      0x20\n      add\n      0x00\n      keccak256\n        /* \"Qsito/carnaval.sol\":3485:3529  notasPorEscolaQuesito[_escolaId][_quesitoId] */\n      0x00\n        /* \"Qsito/carnaval.sol\":3518:3528  _quesitoId */\n      dup6\n        /* \"Qsito/carnaval.sol\":3485:3529  notasPorEscolaQuesito[_escolaId][_quesitoId] */\n      dup2\n      mstore\n      0x20\n      add\n      swap1\n      dup2\n      mstore\n      0x20\n      add\n      0x00\n      keccak256\n        /* \"Qsito/carnaval.sol\":3485:3536  notasPorEscolaQuesito[_escolaId][_quesitoId] = nota */\n      0x00\n      dup3\n      add\n      mload\n      dup2\n      0x00\n      add\n      sstore\n      0x20\n      dup3\n      add\n      mload\n      dup2\n      0x01\n      add\n      sstore\n      0x40\n      dup3\n      add\n      mload\n      dup2\n      0x02\n      add\n      exp(0x0100, 0x00)\n      dup2\n      sload\n      dup2\n      0xffffffffffffffffffffffffffffffffffffffff\n      mul\n      not\n      and\n      swap1\n      dup4\n      0xffffffffffffffffffffffffffffffffffffffff\n      and\n      mul\n      or\n      swap1\n      sstore\n      pop\n      0x60\n      dup3\n      add\n      mload\n      dup2\n      0x03\n      add\n      sstore\n      swap1\n      pop\n      pop\n        /* \"Qsito/carnaval.sol\":3104:3544  {... */\n      pop\n        /* \"Qsito/carnaval.sol\":3029:3544  function registrarNota(uint _escolaId, uint _quesitoId, uint _nota) public {... */\n      pop\n      pop\n      pop\n      jump\t// out\n        /* \"@openzeppelin/contracts/token/ERC20/ERC20.sol\":1779:1868  function name() public view virtual returns (string memory) {... */\n    tag_33:\n        /* \"@openzeppelin/contracts/token/ERC20/ERC20.sol\":1824:1837  string memory */\n      0x60\n        /* \"@openzeppelin/contracts/token/ERC20/ERC20.sol\":1856:1861  _name */\n      0x03\n        /* \"@openzeppelin/contracts/token/ERC20/ERC20.sol\":1849:1861  return _name */\n      dup1\n      sload\n      tag_134\n      swap1\n      tag_135\n      jump\t// in\n    tag_134:\n      dup1\n      0x1f\n      add\n      0x20\n      dup1\n      swap2\n      div\n      mul\n      0x20\n      add\n      mload(0x40)\n      swap1\n      dup2\n      add\n      0x40\n      mstore\n      dup1\n      swap3\n      swap2\n      swap1\n      dup2\n      dup2\n      mstore\n      0x20\n      add\n      dup3\n      dup1\n      sload\n      tag_136\n      swap1\n      tag_135\n      jump\t// in\n    tag_136:\n      dup1\n      iszero\n      tag_137\n      jumpi\n      dup1\n      0x1f\n      lt\n      tag_138\n      jumpi\n      0x0100\n      dup1\n      dup4\n      sload\n      div\n      mul\n      dup4\n      mstore\n      swap2\n      0x20\n      add\n      swap2\n      jump(tag_137)\n    tag_138:\n      dup3\n      add\n      swap2\n      swap1\n      0x00\n      mstore\n      keccak256(0x00, 0x20)\n      swap1\n    tag_139:\n      dup2\n      sload\n      dup2\n      mstore\n      swap1\n      0x01\n      add\n      swap1\n      0x20\n      add\n      dup1\n      dup4\n      gt\n      tag_139\n      jumpi\n      dup3\n      swap1\n      sub\n      0x1f\n      and\n      dup3\n      add\n      swap2\n    tag_137:\n      pop\n      pop\n      pop\n      pop\n      pop\n      swap1\n      pop\n        /* \"@openzeppelin/contracts/token/ERC20/ERC20.sol\":1779:1868  function name() public view virtual returns (string memory) {... */\n      swap1\n      jump\t// out\n        /* \"@openzeppelin/contracts/token/ERC20/ERC20.sol\":3998:4184  function approve(address spender, uint256 value) public virtual returns (bool) {... */\n    tag_39:\n        /* \"@openzeppelin/contracts/token/ERC20/ERC20.sol\":4071:4075  bool */\n      0x00\n        /* \"@openzeppelin/contracts/token/ERC20/ERC20.sol\":4087:4100  address owner */\n      0x00\n        /* \"@openzeppelin/contracts/token/ERC20/ERC20.sol\":4103:4115  _msgSender() */\n      tag_141\n        /* \"@openzeppelin/contracts/token/ERC20/ERC20.sol\":4103:4113  _msgSender */\n      tag_142\n        /* \"@openzeppelin/contracts/token/ERC20/ERC20.sol\":4103:4115  _msgSender() */\n      jump\t// in\n    tag_141:\n        /* \"@openzeppelin/contracts/token/ERC20/ERC20.sol\":4087:4115  address owner = _msgSender() */\n      swap1\n      pop\n        /* \"@openzeppelin/contracts/token/ERC20/ERC20.sol\":4125:4156  _approve(owner, spender, value) */\n      tag_143\n        /* \"@openzeppelin/contracts/token/ERC20/ERC20.sol\":4134:4139  owner */\n      dup2\n        /* \"@openzeppelin/contracts/token/ERC20/ERC20.sol\":4141:4148  spender */\n      dup6\n        /* \"@openzeppelin/contracts/token/ERC20/ERC20.sol\":4150:4155  value */\n      dup6\n        /* \"@openzeppelin/contracts/token/ERC20/ERC20.sol\":4125:4133  _approve */\n      tag_144\n        /* \"@openzeppelin/contracts/token/ERC20/ERC20.sol\":4125:4156  _approve(owner, spender, value) */\n      jump\t// in\n    tag_143:\n        /* \"@openzeppelin/contracts/token/ERC20/ERC20.sol\":4173:4177  true */\n      0x01\n        /* \"@openzeppelin/contracts/token/ERC20/ERC20.sol\":4166:4177  return true */\n      swap2\n      pop\n      pop\n        /* \"@openzeppelin/contracts/token/ERC20/ERC20.sol\":3998:4184  function approve(address spender, uint256 value) public virtual returns (bool) {... */\n      swap3\n      swap2\n      pop\n      pop\n      jump\t// out\n        /* \"Qsito/carnaval.sol\":2574:3000  function addQuesito(string memory _nomeQuesito) public onlyOwner returns (uint) {... */\n    tag_45:\n        /* \"Qsito/carnaval.sol\":2648:2652  uint */\n      0x00\n        /* \"Qsito/carnaval.sol\":1206:1211  owner */\n      0x80\n      0x00\n      swap1\n      sload\n      swap1\n      0x0100\n      exp\n      swap1\n      div\n      0xffffffffffffffffffffffffffffffffffffffff\n      and\n        /* \"Qsito/carnaval.sol\":1192:1211  msg.sender == owner */\n      0xffffffffffffffffffffffffffffffffffffffff\n      and\n        /* \"Qsito/carnaval.sol\":1192:1202  msg.sender */\n      caller\n        /* \"Qsito/carnaval.sol\":1192:1211  msg.sender == owner */\n      0xffffffffffffffffffffffffffffffffffffffff\n      and\n      eq\n        /* \"Qsito/carnaval.sol\":1184:1247  require(msg.sender == owner, \"Acesso restrito ao proprietario\") */\n      tag_146\n      jumpi\n      mload(0x40)\n      0x08c379a000000000000000000000000000000000000000000000000000000000\n      dup2\n      mstore\n      0x04\n      add\n      tag_147\n      swap1\n      tag_148\n      jump\t// in\n    tag_147:\n      mload(0x40)\n      dup1\n      swap2\n      sub\n      swap1\n      revert\n    tag_146:\n        /* \"Qsito/carnaval.sol\":608:609  9 */\n      0x09\n        /* \"Qsito/carnaval.sol\":2673:2693  _currentQuesitoIndex */\n      sload(0x83)\n        /* \"Qsito/carnaval.sol\":2673:2715  _currentQuesitoIndex < QUANTIDADE_QUESITOS */\n      lt\n        /* \"Qsito/carnaval.sol\":2665:2749  require(_currentQuesitoIndex < QUANTIDADE_QUESITOS, \"Quantidade maxima de quesitos\") */\n      tag_150\n      jumpi\n      mload(0x40)\n      0x08c379a000000000000000000000000000000000000000000000000000000000\n      dup2\n      mstore\n      0x04\n      add\n      tag_151\n      swap1\n      tag_152\n      jump\t// in\n    tag_151:\n      mload(0x40)\n      dup1\n      swap2\n      sub\n      swap1\n      revert\n    tag_150:\n        /* \"Qsito/carnaval.sol\":2793:2848  Quesito({id: _currentQuesitoIndex, nome: _nomeQuesito}) */\n      mload(0x40)\n      dup1\n      0x40\n      add\n      0x40\n      mstore\n      dup1\n        /* \"Qsito/carnaval.sol\":2806:2826  _currentQuesitoIndex */\n      sload(0x83)\n        /* \"Qsito/carnaval.sol\":2793:2848  Quesito({id: _currentQuesitoIndex, nome: _nomeQuesito}) */\n      dup2\n      mstore\n      0x20\n      add\n        /* \"Qsito/carnaval.sol\":2834:2846  _nomeQuesito */\n      dup4\n        /* \"Qsito/carnaval.sol\":2793:2848  Quesito({id: _currentQuesitoIndex, nome: _nomeQuesito}) */\n      dup2\n      mstore\n      pop\n        /* \"Qsito/carnaval.sol\":2760:2768  quesitos */\n      0x6b\n        /* \"Qsito/carnaval.sol\":2769:2789  _currentQuesitoIndex */\n      sload(0x83)\n        /* \"Qsito/carnaval.sol\":2760:2790  quesitos[_currentQuesitoIndex] */\n      0x09\n      dup2\n      lt\n      tag_153\n      jumpi\n      tag_154\n      tag_155\n      jump\t// in\n    tag_154:\n    tag_153:\n      0x02\n      mul\n      add\n        /* \"Qsito/carnaval.sol\":2760:2848  quesitos[_currentQuesitoIndex] = Quesito({id: _currentQuesitoIndex, nome: _nomeQuesito}) */\n      0x00\n      dup3\n      add\n      mload\n      dup2\n      0x00\n      add\n      sstore\n      0x20\n      dup3\n      add\n      mload\n      dup2\n      0x01\n      add\n      swap1\n      dup2\n      tag_157\n      swap2\n      swap1\n      tag_158\n      jump\t// in\n    tag_157:\n      pop\n      swap1\n      pop\n      pop\n        /* \"Qsito/carnaval.sol\":2864:2917  QuesitoAdicionado(_currentQuesitoIndex, _nomeQuesito) */\n      0x2172c9b27bd3270f486343bab2b6782d3ae51304775fe33c8ea502c9fe2fccab\n        /* \"Qsito/carnaval.sol\":2882:2902  _currentQuesitoIndex */\n      sload(0x83)\n        /* \"Qsito/carnaval.sol\":2904:2916  _nomeQuesito */\n      dup4\n        /* \"Qsito/carnaval.sol\":2864:2917  QuesitoAdicionado(_currentQuesitoIndex, _nomeQuesito) */\n      mload(0x40)\n      tag_159\n      swap3\n      swap2\n      swap1\n      tag_108\n      jump\t// in\n    tag_159:\n      mload(0x40)\n      dup1\n      swap2\n      sub\n      swap1\n      log1\n        /* \"Qsito/carnaval.sol\":2928:2948  _currentQuesitoIndex */\n      0x83\n      0x00\n        /* \"Qsito/carnaval.sol\":2928:2950  _currentQuesitoIndex++ */\n      dup2\n      sload\n      dup1\n      swap3\n      swap2\n      swap1\n      tag_160\n      swap1\n      tag_161\n      jump\t// in\n    tag_160:\n      swap2\n      swap1\n      pop\n      sstore\n      pop\n        /* \"Qsito/carnaval.sol\":2991:2992  1 */\n      0x01\n        /* \"Qsito/carnaval.sol\":2968:2988  _currentQuesitoIndex */\n      sload(0x83)\n        /* \"Qsito/carnaval.sol\":2968:2992  _currentQuesitoIndex - 1 */\n      tag_162\n      swap2\n      swap1\n      tag_163\n      jump\t// in\n    tag_162:\n        /* \"Qsito/carnaval.sol\":2961:2992  return _currentQuesitoIndex - 1 */\n      swap1\n      pop\n        /* \"Qsito/carnaval.sol\":2574:3000  function addQuesito(string memory _nomeQuesito) public onlyOwner returns (uint) {... */\n      swap2\n      swap1\n      pop\n      jump\t// out\n        /* \"Qsito/carnaval.sol\":828:847  Nota[] public notas */\n    tag_51:\n      0x7d\n      dup2\n      dup2\n      sload\n      dup2\n      lt\n      tag_164\n      jumpi\n      0x00\n      dup1\n      revert\n    tag_164:\n      swap1\n      0x00\n      mstore\n      keccak256(0x00, 0x20)\n      swap1\n      0x04\n      mul\n      add\n      0x00\n      swap2\n      pop\n      swap1\n      pop\n      dup1\n      0x00\n      add\n      sload\n      swap1\n      dup1\n      0x01\n      add\n      sload\n      swap1\n      dup1\n      0x02\n      add\n      0x00\n      swap1\n      sload\n      swap1\n      0x0100\n      exp\n      swap1\n      div\n      0xffffffffffffffffffffffffffffffffffffffff\n      and\n      swap1\n      dup1\n      0x03\n      add\n      sload\n      swap1\n      pop\n      dup5\n      jump\t// out\n        /* \"@openzeppelin/contracts/token/ERC20/ERC20.sol\":2849:2946  function totalSupply() public view virtual returns (uint256) {... */\n    tag_55:\n        /* \"@openzeppelin/contracts/token/ERC20/ERC20.sol\":2901:2908  uint256 */\n      0x00\n        /* \"@openzeppelin/contracts/token/ERC20/ERC20.sol\":2927:2939  _totalSupply */\n      sload(0x02)\n        /* \"@openzeppelin/contracts/token/ERC20/ERC20.sol\":2920:2939  return _totalSupply */\n      swap1\n      pop\n        /* \"@openzeppelin/contracts/token/ERC20/ERC20.sol\":2849:2946  function totalSupply() public view virtual returns (uint256) {... */\n      swap1\n      jump\t// out\n        /* \"Qsito/carnaval.sol\":860:901  mapping(address => Jurado) public jurados */\n    tag_60:\n      mstore(0x20, 0x7e)\n      dup1\n      0x00\n      mstore\n      keccak256(0x00, 0x40)\n      0x00\n      swap2\n      pop\n      swap1\n      pop\n      dup1\n      0x00\n      add\n      0x00\n      swap1\n      sload\n      swap1\n      0x0100\n      exp\n      swap1\n      div\n      0xffffffffffffffffffffffffffffffffffffffff\n      and\n      swap1\n      dup1\n      0x01\n      add\n      dup1\n      sload\n      tag_167\n      swap1\n      tag_135\n      jump\t// in\n    tag_167:\n      dup1\n      0x1f\n      add\n      0x20\n      dup1\n      swap2\n      div\n      mul\n      0x20\n      add\n      mload(0x40)\n      swap1\n      dup2\n      add\n      0x40\n      mstore\n      dup1\n      swap3\n      swap2\n      swap1\n      dup2\n      dup2\n      mstore\n      0x20\n      add\n      dup3\n      dup1\n      sload\n      tag_168\n      swap1\n      tag_135\n      jump\t// in\n    tag_168:\n      dup1\n      iszero\n      tag_169\n      jumpi\n      dup1\n      0x1f\n      lt\n      tag_170\n      jumpi\n      0x0100\n      dup1\n      dup4\n      sload\n      div\n      mul\n      dup4\n      mstore\n      swap2\n      0x20\n      add\n      swap2\n      jump(tag_169)\n    tag_170:\n      dup3\n      add\n      swap2\n      swap1\n      0x00\n      mstore\n      keccak256(0x00, 0x20)\n      swap1\n    tag_171:\n      dup2\n      sload\n      dup2\n      mstore\n      swap1\n      0x01\n      add\n      swap1\n      0x20\n      add\n      dup1\n      dup4\n      gt\n      tag_171\n      jumpi\n      dup3\n      swap1\n      sub\n      0x1f\n      and\n      dup3\n      add\n      swap2\n    tag_169:\n      pop\n      pop\n      pop\n      pop\n      pop\n      swap1\n      pop\n      dup3\n      jump\t// out\n        /* \"@openzeppelin/contracts/token/ERC20/ERC20.sol\":4776:5020  function transferFrom(address from, address to, uint256 value) public virtual returns (bool) {... */\n    tag_66:\n        /* \"@openzeppelin/contracts/token/ERC20/ERC20.sol\":4863:4867  bool */\n      0x00\n        /* \"@openzeppelin/contracts/token/ERC20/ERC20.sol\":4879:4894  address spender */\n      0x00\n        /* \"@openzeppelin/contracts/token/ERC20/ERC20.sol\":4897:4909  _msgSender() */\n      tag_173\n        /* \"@openzeppelin/contracts/token/ERC20/ERC20.sol\":4897:4907  _msgSender */\n      tag_142\n        /* \"@openzeppelin/contracts/token/ERC20/ERC20.sol\":4897:4909  _msgSender() */\n      jump\t// in\n    tag_173:\n        /* \"@openzeppelin/contracts/token/ERC20/ERC20.sol\":4879:4909  address spender = _msgSender() */\n      swap1\n      pop\n        /* \"@openzeppelin/contracts/token/ERC20/ERC20.sol\":4919:4956  _spendAllowance(from, spender, value) */\n      tag_174\n        /* \"@openzeppelin/contracts/token/ERC20/ERC20.sol\":4935:4939  from */\n      dup6\n        /* \"@openzeppelin/contracts/token/ERC20/ERC20.sol\":4941:4948  spender */\n      dup3\n        /* \"@openzeppelin/contracts/token/ERC20/ERC20.sol\":4950:4955  value */\n      dup6\n        /* \"@openzeppelin/contracts/token/ERC20/ERC20.sol\":4919:4934  _spendAllowance */\n      tag_175\n        /* \"@openzeppelin/contracts/token/ERC20/ERC20.sol\":4919:4956  _spendAllowance(from, spender, value) */\n      jump\t// in\n    tag_174:\n        /* \"@openzeppelin/contracts/token/ERC20/ERC20.sol\":4966:4992  _transfer(from, to, value) */\n      tag_176\n        /* \"@openzeppelin/contracts/token/ERC20/ERC20.sol\":4976:4980  from */\n      dup6\n        /* \"@openzeppelin/contracts/token/ERC20/ERC20.sol\":4982:4984  to */\n      dup6\n        /* \"@openzeppelin/contracts/token/ERC20/ERC20.sol\":4986:4991  value */\n      dup6\n        /* \"@openzeppelin/contracts/token/ERC20/ERC20.sol\":4966:4975  _transfer */\n      tag_177\n        /* \"@openzeppelin/contracts/token/ERC20/ERC20.sol\":4966:4992  _transfer(from, to, value) */\n      jump\t// in\n    tag_176:\n        /* \"@openzeppelin/contracts/token/ERC20/ERC20.sol\":5009:5013  true */\n      0x01\n        /* \"@openzeppelin/contracts/token/ERC20/ERC20.sol\":5002:5013  return true */\n      swap2\n      pop\n      pop\n        /* \"@openzeppelin/contracts/token/ERC20/ERC20.sol\":4776:5020  function transferFrom(address from, address to, uint256 value) public virtual returns (bool) {... */\n      swap4\n      swap3\n      pop\n      pop\n      pop\n      jump\t// out\n        /* \"@openzeppelin/contracts/token/ERC20/ERC20.sol\":2707:2789  function decimals() public view virtual returns (uint8) {... */\n    tag_69:\n        /* \"@openzeppelin/contracts/token/ERC20/ERC20.sol\":2756:2761  uint8 */\n      0x00\n        /* \"@openzeppelin/contracts/token/ERC20/ERC20.sol\":2780:2782  18 */\n      0x12\n        /* \"@openzeppelin/contracts/token/ERC20/ERC20.sol\":2773:2782  return 18 */\n      swap1\n      pop\n        /* \"@openzeppelin/contracts/token/ERC20/ERC20.sol\":2707:2789  function decimals() public view virtual returns (uint8) {... */\n      swap1\n      jump\t// out\n        /* \"Qsito/carnaval.sol\":1605:2096  function addJurado(string memory _nomeJurado) public onlyOwner returns (uint) {... */\n    tag_74:\n        /* \"Qsito/carnaval.sol\":1677:1681  uint */\n      0x00\n        /* \"Qsito/carnaval.sol\":1206:1211  owner */\n      0x80\n      0x00\n      swap1\n      sload\n      swap1\n      0x0100\n      exp\n      swap1\n      div\n      0xffffffffffffffffffffffffffffffffffffffff\n      and\n        /* \"Qsito/carnaval.sol\":1192:1211  msg.sender == owner */\n      0xffffffffffffffffffffffffffffffffffffffff\n      and\n        /* \"Qsito/carnaval.sol\":1192:1202  msg.sender */\n      caller\n        /* \"Qsito/carnaval.sol\":1192:1211  msg.sender == owner */\n      0xffffffffffffffffffffffffffffffffffffffff\n      and\n      eq\n        /* \"Qsito/carnaval.sol\":1184:1247  require(msg.sender == owner, \"Acesso restrito ao proprietario\") */\n      tag_180\n      jumpi\n      mload(0x40)\n      0x08c379a000000000000000000000000000000000000000000000000000000000\n      dup2\n      mstore\n      0x04\n      add\n      tag_181\n      swap1\n      tag_148\n      jump\t// in\n    tag_181:\n      mload(0x40)\n      dup1\n      swap2\n      sub\n      swap1\n      revert\n    tag_180:\n        /* \"Qsito/carnaval.sol\":554:556  36 */\n      0x24\n        /* \"Qsito/carnaval.sol\":1702:1721  _currentJuradoIndex */\n      sload(0x81)\n        /* \"Qsito/carnaval.sol\":1702:1742  _currentJuradoIndex < QUANTIDADE_JURADOS */\n      lt\n        /* \"Qsito/carnaval.sol\":1694:1775  require(_currentJuradoIndex < QUANTIDADE_JURADOS, \"Quantidade maxima de jurados\") */\n      tag_183\n      jumpi\n      mload(0x40)\n      0x08c379a000000000000000000000000000000000000000000000000000000000\n      dup2\n      mstore\n      0x04\n      add\n      tag_184\n      swap1\n      tag_185\n      jump\t// in\n    tag_184:\n      mload(0x40)\n      dup1\n      swap2\n      sub\n      swap1\n      revert\n    tag_183:\n        /* \"Qsito/carnaval.sol\":1808:1857  Jurado({endereco: msg.sender, nome: _nomeJurado}) */\n      mload(0x40)\n      dup1\n      0x40\n      add\n      0x40\n      mstore\n      dup1\n        /* \"Qsito/carnaval.sol\":1826:1836  msg.sender */\n      caller\n        /* \"Qsito/carnaval.sol\":1808:1857  Jurado({endereco: msg.sender, nome: _nomeJurado}) */\n      0xffffffffffffffffffffffffffffffffffffffff\n      and\n      dup2\n      mstore\n      0x20\n      add\n        /* \"Qsito/carnaval.sol\":1844:1855  _nomeJurado */\n      dup4\n        /* \"Qsito/carnaval.sol\":1808:1857  Jurado({endereco: msg.sender, nome: _nomeJurado}) */\n      dup2\n      mstore\n      pop\n        /* \"Qsito/carnaval.sol\":1786:1793  jurados */\n      0x7e\n        /* \"Qsito/carnaval.sol\":1786:1805  jurados[msg.sender] */\n      0x00\n        /* \"Qsito/carnaval.sol\":1794:1804  msg.sender */\n      caller\n        /* \"Qsito/carnaval.sol\":1786:1805  jurados[msg.sender] */\n      0xffffffffffffffffffffffffffffffffffffffff\n      and\n      0xffffffffffffffffffffffffffffffffffffffff\n      and\n      dup2\n      mstore\n      0x20\n      add\n      swap1\n      dup2\n      mstore\n      0x20\n      add\n      0x00\n      keccak256\n        /* \"Qsito/carnaval.sol\":1786:1857  jurados[msg.sender] = Jurado({endereco: msg.sender, nome: _nomeJurado}) */\n      0x00\n      dup3\n      add\n      mload\n      dup2\n      0x00\n      add\n      exp(0x0100, 0x00)\n      dup2\n      sload\n      dup2\n      0xffffffffffffffffffffffffffffffffffffffff\n      mul\n      not\n      and\n      swap1\n      dup4\n      0xffffffffffffffffffffffffffffffffffffffff\n      and\n      mul\n      or\n      swap1\n      sstore\n      pop\n      0x20\n      dup3\n      add\n      mload\n      dup2\n      0x01\n      add\n      swap1\n      dup2\n      tag_186\n      swap2\n      swap1\n      tag_158\n      jump\t// in\n    tag_186:\n      pop\n      swap1\n      pop\n      pop\n        /* \"Qsito/carnaval.sol\":1909:1958  Jurado({endereco: msg.sender, nome: _nomeJurado}) */\n      mload(0x40)\n      dup1\n      0x40\n      add\n      0x40\n      mstore\n      dup1\n        /* \"Qsito/carnaval.sol\":1927:1937  msg.sender */\n      caller\n        /* \"Qsito/carnaval.sol\":1909:1958  Jurado({endereco: msg.sender, nome: _nomeJurado}) */\n      0xffffffffffffffffffffffffffffffffffffffff\n      and\n      dup2\n      mstore\n      0x20\n      add\n        /* \"Qsito/carnaval.sol\":1945:1956  _nomeJurado */\n      dup4\n        /* \"Qsito/carnaval.sol\":1909:1958  Jurado({endereco: msg.sender, nome: _nomeJurado}) */\n      dup2\n      mstore\n      pop\n        /* \"Qsito/carnaval.sol\":1868:1885  quantidadeJurados */\n      0x05\n        /* \"Qsito/carnaval.sol\":1886:1905  _currentJuradoIndex */\n      sload(0x81)\n        /* \"Qsito/carnaval.sol\":1868:1906  quantidadeJurados[_currentJuradoIndex] */\n      0x24\n      dup2\n      lt\n      tag_187\n      jumpi\n      tag_188\n      tag_155\n      jump\t// in\n    tag_188:\n    tag_187:\n      0x02\n      mul\n      add\n        /* \"Qsito/carnaval.sol\":1868:1958  quantidadeJurados[_currentJuradoIndex] = Jurado({endereco: msg.sender, nome: _nomeJurado}) */\n      0x00\n      dup3\n      add\n      mload\n      dup2\n      0x00\n      add\n      exp(0x0100, 0x00)\n      dup2\n      sload\n      dup2\n      0xffffffffffffffffffffffffffffffffffffffff\n      mul\n      not\n      and\n      swap1\n      dup4\n      0xffffffffffffffffffffffffffffffffffffffff\n      and\n      mul\n      or\n      swap1\n      sstore\n      pop\n      0x20\n      dup3\n      add\n      mload\n      dup2\n      0x01\n      add\n      swap1\n      dup2\n      tag_190\n      swap2\n      swap1\n      tag_158\n      jump\t// in\n    tag_190:\n      pop\n      swap1\n      pop\n      pop\n        /* \"Qsito/carnaval.sol\":1969:1988  _currentJuradoIndex */\n      0x81\n      0x00\n        /* \"Qsito/carnaval.sol\":1969:1990  _currentJuradoIndex++ */\n      dup2\n      sload\n      dup1\n      swap3\n      swap2\n      swap1\n      tag_191\n      swap1\n      tag_161\n      jump\t// in\n    tag_191:\n      swap2\n      swap1\n      pop\n      sstore\n      pop\n        /* \"Qsito/carnaval.sol\":2023:2033  msg.sender */\n      caller\n        /* \"Qsito/carnaval.sol\":2006:2047  JuradoAdicionado(msg.sender, _nomeJurado) */\n      0xffffffffffffffffffffffffffffffffffffffff\n      and\n      0xa1fb37ecddd4c220fd008a54a22fb96ce4db7248e0f4987e445259dc6e55188b\n        /* \"Qsito/carnaval.sol\":2035:2046  _nomeJurado */\n      dup4\n        /* \"Qsito/carnaval.sol\":2006:2047  JuradoAdicionado(msg.sender, _nomeJurado) */\n      mload(0x40)\n      tag_192\n      swap2\n      swap1\n      tag_35\n      jump\t// in\n    tag_192:\n      mload(0x40)\n      dup1\n      swap2\n      sub\n      swap1\n      log2\n        /* \"Qsito/carnaval.sol\":2087:2088  1 */\n      0x01\n        /* \"Qsito/carnaval.sol\":2065:2084  _currentJuradoIndex */\n      sload(0x81)\n        /* \"Qsito/carnaval.sol\":2065:2088  _currentJuradoIndex - 1 */\n      tag_193\n      swap2\n      swap1\n      tag_163\n      jump\t// in\n    tag_193:\n        /* \"Qsito/carnaval.sol\":2058:2088  return _currentJuradoIndex - 1 */\n      swap1\n      pop\n        /* \"Qsito/carnaval.sol\":1605:2096  function addJurado(string memory _nomeJurado) public onlyOwner returns (uint) {... */\n      swap2\n      swap1\n      pop\n      jump\t// out\n        /* \"Qsito/carnaval.sol\":3600:3857  function getNota(uint _escolaId, uint _quesitoId) public view returns (uint256) {... */\n    tag_79:\n        /* \"Qsito/carnaval.sol\":3671:3678  uint256 */\n      0x00\n        /* \"Qsito/carnaval.sol\":3751:3752  0 */\n      0x00\n        /* \"Qsito/carnaval.sol\":3699:3720  notasPorEscolaQuesito */\n      0x7f\n        /* \"Qsito/carnaval.sol\":3699:3731  notasPorEscolaQuesito[_escolaId] */\n      0x00\n        /* \"Qsito/carnaval.sol\":3721:3730  _escolaId */\n      dup6\n        /* \"Qsito/carnaval.sol\":3699:3731  notasPorEscolaQuesito[_escolaId] */\n      dup2\n      mstore\n      0x20\n      add\n      swap1\n      dup2\n      mstore\n      0x20\n      add\n      0x00\n      keccak256\n        /* \"Qsito/carnaval.sol\":3699:3743  notasPorEscolaQuesito[_escolaId][_quesitoId] */\n      0x00\n        /* \"Qsito/carnaval.sol\":3732:3742  _quesitoId */\n      dup5\n        /* \"Qsito/carnaval.sol\":3699:3743  notasPorEscolaQuesito[_escolaId][_quesitoId] */\n      dup2\n      mstore\n      0x20\n      add\n      swap1\n      dup2\n      mstore\n      0x20\n      add\n      0x00\n      keccak256\n        /* \"Qsito/carnaval.sol\":3699:3748  notasPorEscolaQuesito[_escolaId][_quesitoId].nota */\n      0x03\n      add\n      sload\n        /* \"Qsito/carnaval.sol\":3699:3752  notasPorEscolaQuesito[_escolaId][_quesitoId].nota > 0 */\n      gt\n        /* \"Qsito/carnaval.sol\":3691:3776  require(notasPorEscolaQuesito[_escolaId][_quesitoId].nota > 0, \"Nota nao encontrada\") */\n      tag_195\n      jumpi\n      mload(0x40)\n      0x08c379a000000000000000000000000000000000000000000000000000000000\n      dup2\n      mstore\n      0x04\n      add\n      tag_196\n      swap1\n      tag_197\n      jump\t// in\n    tag_196:\n      mload(0x40)\n      dup1\n      swap2\n      sub\n      swap1\n      revert\n    tag_195:\n        /* \"Qsito/carnaval.sol\":3800:3821  notasPorEscolaQuesito */\n      0x7f\n        /* \"Qsito/carnaval.sol\":3800:3832  notasPorEscolaQuesito[_escolaId] */\n      0x00\n        /* \"Qsito/carnaval.sol\":3822:3831  _escolaId */\n      dup5\n        /* \"Qsito/carnaval.sol\":3800:3832  notasPorEscolaQuesito[_escolaId] */\n      dup2\n      mstore\n      0x20\n      add\n      swap1\n      dup2\n      mstore\n      0x20\n      add\n      0x00\n      keccak256\n        /* \"Qsito/carnaval.sol\":3800:3844  notasPorEscolaQuesito[_escolaId][_quesitoId] */\n      0x00\n        /* \"Qsito/carnaval.sol\":3833:3843  _quesitoId */\n      dup4\n        /* \"Qsito/carnaval.sol\":3800:3844  notasPorEscolaQuesito[_escolaId][_quesitoId] */\n      dup2\n      mstore\n      0x20\n      add\n      swap1\n      dup2\n      mstore\n      0x20\n      add\n      0x00\n      keccak256\n        /* \"Qsito/carnaval.sol\":3800:3849  notasPorEscolaQuesito[_escolaId][_quesitoId].nota */\n      0x03\n      add\n      sload\n        /* \"Qsito/carnaval.sol\":3793:3849  return notasPorEscolaQuesito[_escolaId][_quesitoId].nota */\n      swap1\n      pop\n        /* \"Qsito/carnaval.sol\":3600:3857  function getNota(uint _escolaId, uint _quesitoId) public view returns (uint256) {... */\n      swap3\n      swap2\n      pop\n      pop\n      jump\t// out\n        /* \"@openzeppelin/contracts/token/ERC20/ERC20.sol\":3004:3120  function balanceOf(address account) public view virtual returns (uint256) {... */\n    tag_83:\n        /* \"@openzeppelin/contracts/token/ERC20/ERC20.sol\":3069:3076  uint256 */\n      0x00\n        /* \"@openzeppelin/contracts/token/ERC20/ERC20.sol\":3095:3104  _balances */\n      0x00\n        /* \"@openzeppelin/contracts/token/ERC20/ERC20.sol\":3095:3113  _balances[account] */\n      0x00\n        /* \"@openzeppelin/contracts/token/ERC20/ERC20.sol\":3105:3112  account */\n      dup4\n        /* \"@openzeppelin/contracts/token/ERC20/ERC20.sol\":3095:3113  _balances[account] */\n      0xffffffffffffffffffffffffffffffffffffffff\n      and\n      0xffffffffffffffffffffffffffffffffffffffff\n      and\n      dup2\n      mstore\n      0x20\n      add\n      swap1\n      dup2\n      mstore\n      0x20\n      add\n      0x00\n      keccak256\n      sload\n        /* \"@openzeppelin/contracts/token/ERC20/ERC20.sol\":3088:3113  return _balances[account] */\n      swap1\n      pop\n        /* \"@openzeppelin/contracts/token/ERC20/ERC20.sol\":3004:3120  function balanceOf(address account) public view virtual returns (uint256) {... */\n      swap2\n      swap1\n      pop\n      jump\t// out\n        /* \"Qsito/carnaval.sol\":1029:1049  address public owner */\n    tag_86:\n      0x80\n      0x00\n      swap1\n      sload\n      swap1\n      0x0100\n      exp\n      swap1\n      div\n      0xffffffffffffffffffffffffffffffffffffffff\n      and\n      dup2\n      jump\t// out\n        /* \"@openzeppelin/contracts/token/ERC20/ERC20.sol\":1981:2074  function symbol() public view virtual returns (string memory) {... */\n    tag_90:\n        /* \"@openzeppelin/contracts/token/ERC20/ERC20.sol\":2028:2041  string memory */\n      0x60\n        /* \"@openzeppelin/contracts/token/ERC20/ERC20.sol\":2060:2067  _symbol */\n      0x04\n        /* \"@openzeppelin/contracts/token/ERC20/ERC20.sol\":2053:2067  return _symbol */\n      dup1\n      sload\n      tag_200\n      swap1\n      tag_135\n      jump\t// in\n    tag_200:\n      dup1\n      0x1f\n      add\n      0x20\n      dup1\n      swap2\n      div\n      mul\n      0x20\n      add\n      mload(0x40)\n      swap1\n      dup2\n      add\n      0x40\n      mstore\n      dup1\n      swap3\n      swap2\n      swap1\n      dup2\n      dup2\n      mstore\n      0x20\n      add\n      dup3\n      dup1\n      sload\n      tag_201\n      swap1\n      tag_135\n      jump\t// in\n    tag_201:\n      dup1\n      iszero\n      tag_202\n      jumpi\n      dup1\n      0x1f\n      lt\n      tag_203\n      jumpi\n      0x0100\n      dup1\n      dup4\n      sload\n      div\n      mul\n      dup4\n      mstore\n      swap2\n      0x20\n      add\n      swap2\n      jump(tag_202)\n    tag_203:\n      dup3\n      add\n      swap2\n      swap1\n      0x00\n      mstore\n      keccak256(0x00, 0x20)\n      swap1\n    tag_204:\n      dup2\n      sload\n      dup2\n      mstore\n      swap1\n      0x01\n      add\n      swap1\n      0x20\n      add\n      dup1\n      dup4\n      gt\n      tag_204\n      jumpi\n      dup3\n      swap1\n      sub\n      0x1f\n      and\n      dup3\n      add\n      swap2\n    tag_202:\n      pop\n      pop\n      pop\n      pop\n      pop\n      swap1\n      pop\n        /* \"@openzeppelin/contracts/token/ERC20/ERC20.sol\":1981:2074  function symbol() public view virtual returns (string memory) {... */\n      swap1\n      jump\t// out\n        /* \"@openzeppelin/contracts/token/ERC20/ERC20.sol\":3315:3493  function transfer(address to, uint256 value) public virtual returns (bool) {... */\n    tag_94:\n        /* \"@openzeppelin/contracts/token/ERC20/ERC20.sol\":3384:3388  bool */\n      0x00\n        /* \"@openzeppelin/contracts/token/ERC20/ERC20.sol\":3400:3413  address owner */\n      0x00\n        /* \"@openzeppelin/contracts/token/ERC20/ERC20.sol\":3416:3428  _msgSender() */\n      tag_206\n        /* \"@openzeppelin/contracts/token/ERC20/ERC20.sol\":3416:3426  _msgSender */\n      tag_142\n        /* \"@openzeppelin/contracts/token/ERC20/ERC20.sol\":3416:3428  _msgSender() */\n      jump\t// in\n    tag_206:\n        /* \"@openzeppelin/contracts/token/ERC20/ERC20.sol\":3400:3428  address owner = _msgSender() */\n      swap1\n      pop\n        /* \"@openzeppelin/contracts/token/ERC20/ERC20.sol\":3438:3465  _transfer(owner, to, value) */\n      tag_207\n        /* \"@openzeppelin/contracts/token/ERC20/ERC20.sol\":3448:3453  owner */\n      dup2\n        /* \"@openzeppelin/contracts/token/ERC20/ERC20.sol\":3455:3457  to */\n      dup6\n        /* \"@openzeppelin/contracts/token/ERC20/ERC20.sol\":3459:3464  value */\n      dup6\n        /* \"@openzeppelin/contracts/token/ERC20/ERC20.sol\":3438:3447  _transfer */\n      tag_177\n        /* \"@openzeppelin/contracts/token/ERC20/ERC20.sol\":3438:3465  _transfer(owner, to, value) */\n      jump\t// in\n    tag_207:\n        /* \"@openzeppelin/contracts/token/ERC20/ERC20.sol\":3482:3486  true */\n      0x01\n        /* \"@openzeppelin/contracts/token/ERC20/ERC20.sol\":3475:3486  return true */\n      swap2\n      pop\n      pop\n        /* \"@openzeppelin/contracts/token/ERC20/ERC20.sol\":3315:3493  function transfer(address to, uint256 value) public virtual returns (bool) {... */\n      swap3\n      swap2\n      pop\n      pop\n      jump\t// out\n        /* \"Qsito/carnaval.sol\":908:975  mapping(uint => mapping(uint => Nota)) public notasPorEscolaQuesito */\n    tag_98:\n      mstore(0x20, 0x7f)\n      dup2\n      0x00\n      mstore\n      mstore(0x20, keccak256(0x00, 0x40))\n      dup1\n      0x00\n      mstore\n      keccak256(0x00, 0x40)\n      0x00\n      swap2\n      pop\n      swap2\n      pop\n      pop\n      dup1\n      0x00\n      add\n      sload\n      swap1\n      dup1\n      0x01\n      add\n      sload\n      swap1\n      dup1\n      0x02\n      add\n      0x00\n      swap1\n      sload\n      swap1\n      0x0100\n      exp\n      swap1\n      div\n      0xffffffffffffffffffffffffffffffffffffffff\n      and\n      swap1\n      dup1\n      0x03\n      add\n      sload\n      swap1\n      pop\n      dup5\n      jump\t// out\n        /* \"Qsito/carnaval.sol\":2125:2542  function addEscola(string memory _nomeEscola) public onlyOwner returns (uint) {... */\n    tag_102:\n        /* \"Qsito/carnaval.sol\":2197:2201  uint */\n      0x00\n        /* \"Qsito/carnaval.sol\":1206:1211  owner */\n      0x80\n      0x00\n      swap1\n      sload\n      swap1\n      0x0100\n      exp\n      swap1\n      div\n      0xffffffffffffffffffffffffffffffffffffffff\n      and\n        /* \"Qsito/carnaval.sol\":1192:1211  msg.sender == owner */\n      0xffffffffffffffffffffffffffffffffffffffff\n      and\n        /* \"Qsito/carnaval.sol\":1192:1202  msg.sender */\n      caller\n        /* \"Qsito/carnaval.sol\":1192:1211  msg.sender == owner */\n      0xffffffffffffffffffffffffffffffffffffffff\n      and\n      eq\n        /* \"Qsito/carnaval.sol\":1184:1247  require(msg.sender == owner, \"Acesso restrito ao proprietario\") */\n      tag_209\n      jumpi\n      mload(0x40)\n      0x08c379a000000000000000000000000000000000000000000000000000000000\n      dup2\n      mstore\n      0x04\n      add\n      tag_210\n      swap1\n      tag_148\n      jump\t// in\n    tag_210:\n      mload(0x40)\n      dup1\n      swap2\n      sub\n      swap1\n      revert\n    tag_209:\n        /* \"Qsito/carnaval.sol\":660:662  15 */\n      0x0f\n        /* \"Qsito/carnaval.sol\":2222:2241  _currentEscolaIndex */\n      sload(0x82)\n        /* \"Qsito/carnaval.sol\":2222:2262  _currentEscolaIndex < QUANTIDADE_ESCOLAS */\n      lt\n        /* \"Qsito/carnaval.sol\":2214:2295  require(_currentEscolaIndex < QUANTIDADE_ESCOLAS, \"Quantidade maxima de escolas\") */\n      tag_212\n      jumpi\n      mload(0x40)\n      0x08c379a000000000000000000000000000000000000000000000000000000000\n      dup2\n      mstore\n      0x04\n      add\n      tag_213\n      swap1\n      tag_214\n      jump\t// in\n    tag_213:\n      mload(0x40)\n      dup1\n      swap2\n      sub\n      swap1\n      revert\n    tag_212:\n        /* \"Qsito/carnaval.sol\":2337:2389  Escola({id: _currentEscolaIndex, nome: _nomeEscola}) */\n      mload(0x40)\n      dup1\n      0x40\n      add\n      0x40\n      mstore\n      dup1\n        /* \"Qsito/carnaval.sol\":2349:2368  _currentEscolaIndex */\n      sload(0x82)\n        /* \"Qsito/carnaval.sol\":2337:2389  Escola({id: _currentEscolaIndex, nome: _nomeEscola}) */\n      dup2\n      mstore\n      0x20\n      add\n        /* \"Qsito/carnaval.sol\":2376:2387  _nomeEscola */\n      dup4\n        /* \"Qsito/carnaval.sol\":2337:2389  Escola({id: _currentEscolaIndex, nome: _nomeEscola}) */\n      dup2\n      mstore\n      pop\n        /* \"Qsito/carnaval.sol\":2306:2313  escolas */\n      0x4d\n        /* \"Qsito/carnaval.sol\":2314:2333  _currentEscolaIndex */\n      sload(0x82)\n        /* \"Qsito/carnaval.sol\":2306:2334  escolas[_currentEscolaIndex] */\n      0x0f\n      dup2\n      lt\n      tag_215\n      jumpi\n      tag_216\n      tag_155\n      jump\t// in\n    tag_216:\n    tag_215:\n      0x02\n      mul\n      add\n        /* \"Qsito/carnaval.sol\":2306:2389  escolas[_currentEscolaIndex] = Escola({id: _currentEscolaIndex, nome: _nomeEscola}) */\n      0x00\n      dup3\n      add\n      mload\n      dup2\n      0x00\n      add\n      sstore\n      0x20\n      dup3\n      add\n      mload\n      dup2\n      0x01\n      add\n      swap1\n      dup2\n      tag_218\n      swap2\n      swap1\n      tag_158\n      jump\t// in\n    tag_218:\n      pop\n      swap1\n      pop\n      pop\n        /* \"Qsito/carnaval.sol\":2405:2455  EscolaAdicionada(_currentEscolaIndex, _nomeEscola) */\n      0x9f427c381dccc81dd341800d0c9110ab44cf34bfd696503341d2a57ab3f85d88\n        /* \"Qsito/carnaval.sol\":2422:2441  _currentEscolaIndex */\n      sload(0x82)\n        /* \"Qsito/carnaval.sol\":2443:2454  _nomeEscola */\n      dup4\n        /* \"Qsito/carnaval.sol\":2405:2455  EscolaAdicionada(_currentEscolaIndex, _nomeEscola) */\n      mload(0x40)\n      tag_219\n      swap3\n      swap2\n      swap1\n      tag_108\n      jump\t// in\n    tag_219:\n      mload(0x40)\n      dup1\n      swap2\n      sub\n      swap1\n      log1\n        /* \"Qsito/carnaval.sol\":2466:2485  _currentEscolaIndex */\n      0x82\n      0x00\n        /* \"Qsito/carnaval.sol\":2466:2487  _currentEscolaIndex++ */\n      dup2\n      sload\n      dup1\n      swap3\n      swap2\n      swap1\n      tag_220\n      swap1\n      tag_161\n      jump\t// in\n    tag_220:\n      swap2\n      swap1\n      pop\n      sstore\n      pop\n        /* \"Qsito/carnaval.sol\":2533:2534  1 */\n      0x01\n        /* \"Qsito/carnaval.sol\":2511:2530  _currentEscolaIndex */\n      sload(0x82)\n        /* \"Qsito/carnaval.sol\":2511:2534  _currentEscolaIndex - 1 */\n      tag_221\n      swap2\n      swap1\n      tag_163\n      jump\t// in\n    tag_221:\n        /* \"Qsito/carnaval.sol\":2504:2534  return _currentEscolaIndex - 1 */\n      swap1\n      pop\n        /* \"Qsito/carnaval.sol\":2125:2542  function addEscola(string memory _nomeEscola) public onlyOwner returns (uint) {... */\n      swap2\n      swap1\n      pop\n      jump\t// out\n        /* \"Qsito/carnaval.sol\":729:770  Escola[QUANTIDADE_ESCOLAS] public escolas */\n    tag_106:\n      0x4d\n      dup2\n      0x0f\n      dup2\n      lt\n      tag_222\n      jumpi\n      0x00\n      dup1\n      revert\n    tag_222:\n      0x02\n      mul\n      add\n      0x00\n      swap2\n      pop\n      swap1\n      pop\n      dup1\n      0x00\n      add\n      sload\n      swap1\n      dup1\n      0x01\n      add\n      dup1\n      sload\n      tag_224\n      swap1\n      tag_135\n      jump\t// in\n    tag_224:\n      dup1\n      0x1f\n      add\n      0x20\n      dup1\n      swap2\n      div\n      mul\n      0x20\n      add\n      mload(0x40)\n      swap1\n      dup2\n      add\n      0x40\n      mstore\n      dup1\n      swap3\n      swap2\n      swap1\n      dup2\n      dup2\n      mstore\n      0x20\n      add\n      dup3\n      dup1\n      sload\n      tag_225\n      swap1\n      tag_135\n      jump\t// in\n    tag_225:\n      dup1\n      iszero\n      tag_226\n      jumpi\n      dup1\n      0x1f\n      lt\n      tag_227\n      jumpi\n      0x0100\n      dup1\n      dup4\n      sload\n      div\n      mul\n      dup4\n      mstore\n      swap2\n      0x20\n      add\n      swap2\n      jump(tag_226)\n    tag_227:\n      dup3\n      add\n      swap2\n      swap1\n      0x00\n      mstore\n      keccak256(0x00, 0x20)\n      swap1\n    tag_228:\n      dup2\n      sload\n      dup2\n      mstore\n      swap1\n      0x01\n      add\n      swap1\n      0x20\n      add\n      dup1\n      dup4\n      gt\n      tag_228\n      jumpi\n      dup3\n      swap1\n      sub\n      0x1f\n      and\n      dup3\n      add\n      swap2\n    tag_226:\n      pop\n      pop\n      pop\n      pop\n      pop\n      swap1\n      pop\n      dup3\n      jump\t// out\n        /* \"@openzeppelin/contracts/token/ERC20/ERC20.sol\":3551:3691  function allowance(address owner, address spender) public view virtual returns (uint256) {... */\n    tag_112:\n        /* \"@openzeppelin/contracts/token/ERC20/ERC20.sol\":3631:3638  uint256 */\n      0x00\n        /* \"@openzeppelin/contracts/token/ERC20/ERC20.sol\":3657:3668  _allowances */\n      0x01\n        /* \"@openzeppelin/contracts/token/ERC20/ERC20.sol\":3657:3675  _allowances[owner] */\n      0x00\n        /* \"@openzeppelin/contracts/token/ERC20/ERC20.sol\":3669:3674  owner */\n      dup5\n        /* \"@openzeppelin/contracts/token/ERC20/ERC20.sol\":3657:3675  _allowances[owner] */\n      0xffffffffffffffffffffffffffffffffffffffff\n      and\n      0xffffffffffffffffffffffffffffffffffffffff\n      and\n      dup2\n      mstore\n      0x20\n      add\n      swap1\n      dup2\n      mstore\n      0x20\n      add\n      0x00\n      keccak256\n        /* \"@openzeppelin/contracts/token/ERC20/ERC20.sol\":3657:3684  _allowances[owner][spender] */\n      0x00\n        /* \"@openzeppelin/contracts/token/ERC20/ERC20.sol\":3676:3683  spender */\n      dup4\n        /* \"@openzeppelin/contracts/token/ERC20/ERC20.sol\":3657:3684  _allowances[owner][spender] */\n      0xffffffffffffffffffffffffffffffffffffffff\n      and\n      0xffffffffffffffffffffffffffffffffffffffff\n      and\n      dup2\n      mstore\n      0x20\n      add\n      swap1\n      dup2\n      mstore\n      0x20\n      add\n      0x00\n      keccak256\n      sload\n        /* \"@openzeppelin/contracts/token/ERC20/ERC20.sol\":3650:3684  return _allowances[owner][spender] */\n      swap1\n      pop\n        /* \"@openzeppelin/contracts/token/ERC20/ERC20.sol\":3551:3691  function allowance(address owner, address spender) public view virtual returns (uint256) {... */\n      swap3\n      swap2\n      pop\n      pop\n      jump\t// out\n        /* \"Qsito/carnaval.sol\":671:722  Jurado[QUANTIDADE_JURADOS] public quantidadeJurados */\n    tag_116:\n      0x05\n      dup2\n      0x24\n      dup2\n      lt\n      tag_230\n      jumpi\n      0x00\n      dup1\n      revert\n    tag_230:\n      0x02\n      mul\n      add\n      0x00\n      swap2\n      pop\n      swap1\n      pop\n      dup1\n      0x00\n      add\n      0x00\n      swap1\n      sload\n      swap1\n      0x0100\n      exp\n      swap1\n      div\n      0xffffffffffffffffffffffffffffffffffffffff\n      and\n      swap1\n      dup1\n      0x01\n      add\n      dup1\n      sload\n      tag_232\n      swap1\n      tag_135\n      jump\t// in\n    tag_232:\n      dup1\n      0x1f\n      add\n      0x20\n      dup1\n      swap2\n      div\n      mul\n      0x20\n      add\n      mload(0x40)\n      swap1\n      dup2\n      add\n      0x40\n      mstore\n      dup1\n      swap3\n      swap2\n      swap1\n      dup2\n      dup2\n      mstore\n      0x20\n      add\n      dup3\n      dup1\n      sload\n      tag_233\n      swap1\n      tag_135\n      jump\t// in\n    tag_233:\n      dup1\n      iszero\n      tag_234\n      jumpi\n      dup1\n      0x1f\n      lt\n      tag_235\n      jumpi\n      0x0100\n      dup1\n      dup4\n      sload\n      div\n      mul\n      dup4\n      mstore\n      swap2\n      0x20\n      add\n      swap2\n      jump(tag_234)\n    tag_235:\n      dup3\n      add\n      swap2\n      swap1\n      0x00\n      mstore\n      keccak256(0x00, 0x20)\n      swap1\n    tag_236:\n      dup2\n      sload\n      dup2\n      mstore\n      swap1\n      0x01\n      add\n      swap1\n      0x20\n      add\n      dup1\n      dup4\n      gt\n      tag_236\n      jumpi\n      dup3\n      swap1\n      sub\n      0x1f\n      and\n      dup3\n      add\n      swap2\n    tag_234:\n      pop\n      pop\n      pop\n      pop\n      pop\n      swap1\n      pop\n      dup3\n      jump\t// out\n        /* \"Qsito/carnaval.sol\":3895:4295  function limparDados() public onlyOwner {... */\n    tag_119:\n        /* \"Qsito/carnaval.sol\":1206:1211  owner */\n      0x80\n      0x00\n      swap1\n      sload\n      swap1\n      0x0100\n      exp\n      swap1\n      div\n      0xffffffffffffffffffffffffffffffffffffffff\n      and\n        /* \"Qsito/carnaval.sol\":1192:1211  msg.sender == owner */\n      0xffffffffffffffffffffffffffffffffffffffff\n      and\n        /* \"Qsito/carnaval.sol\":1192:1202  msg.sender */\n      caller\n        /* \"Qsito/carnaval.sol\":1192:1211  msg.sender == owner */\n      0xffffffffffffffffffffffffffffffffffffffff\n      and\n      eq\n        /* \"Qsito/carnaval.sol\":1184:1247  require(msg.sender == owner, \"Acesso restrito ao proprietario\") */\n      tag_238\n      jumpi\n      mload(0x40)\n      0x08c379a000000000000000000000000000000000000000000000000000000000\n      dup2\n      mstore\n      0x04\n      add\n      tag_239\n      swap1\n      tag_148\n      jump\t// in\n    tag_239:\n      mload(0x40)\n      dup1\n      swap2\n      sub\n      swap1\n      revert\n    tag_238:\n        /* \"Qsito/carnaval.sol\":3953:3970  quantidadeJurados */\n      0x05\n      0x00\n        /* \"Qsito/carnaval.sol\":3946:3970  delete quantidadeJurados */\n      tag_241\n      swap2\n      swap1\n      tag_242\n      jump\t// in\n    tag_241:\n        /* \"Qsito/carnaval.sol\":3988:3995  escolas */\n      0x4d\n      0x00\n        /* \"Qsito/carnaval.sol\":3981:3995  delete escolas */\n      tag_243\n      swap2\n      swap1\n      tag_244\n      jump\t// in\n    tag_243:\n        /* \"Qsito/carnaval.sol\":4013:4021  quesitos */\n      0x6b\n      0x00\n        /* \"Qsito/carnaval.sol\":4006:4021  delete quesitos */\n      tag_245\n      swap2\n      swap1\n      tag_246\n      jump\t// in\n    tag_245:\n        /* \"Qsito/carnaval.sol\":4039:4044  notas */\n      0x7d\n      0x00\n        /* \"Qsito/carnaval.sol\":4032:4044  delete notas */\n      tag_247\n      swap2\n      swap1\n      tag_248\n      jump\t// in\n    tag_247:\n        /* \"Qsito/carnaval.sol\":4105:4111  uint i */\n      0x00\n        /* \"Qsito/carnaval.sol\":4114:4115  0 */\n      0x00\n        /* \"Qsito/carnaval.sol\":4105:4115  uint i = 0 */\n      swap1\n      pop\n        /* \"Qsito/carnaval.sol\":4100:4288  for (uint i = 0; i < QUANTIDADE_ESCOLAS; i++) {... */\n    tag_249:\n        /* \"Qsito/carnaval.sol\":660:662  15 */\n      0x0f\n        /* \"Qsito/carnaval.sol\":4117:4118  i */\n      dup2\n        /* \"Qsito/carnaval.sol\":4117:4139  i < QUANTIDADE_ESCOLAS */\n      lt\n        /* \"Qsito/carnaval.sol\":4100:4288  for (uint i = 0; i < QUANTIDADE_ESCOLAS; i++) {... */\n      iszero\n      tag_250\n      jumpi\n        /* \"Qsito/carnaval.sol\":4166:4172  uint j */\n      0x00\n        /* \"Qsito/carnaval.sol\":4175:4176  0 */\n      0x00\n        /* \"Qsito/carnaval.sol\":4166:4176  uint j = 0 */\n      swap1\n      pop\n        /* \"Qsito/carnaval.sol\":4161:4277  for (uint j = 0; j < QUANTIDADE_QUESITOS; j++) {... */\n    tag_252:\n        /* \"Qsito/carnaval.sol\":608:609  9 */\n      0x09\n        /* \"Qsito/carnaval.sol\":4178:4179  j */\n      dup2\n        /* \"Qsito/carnaval.sol\":4178:4201  j < QUANTIDADE_QUESITOS */\n      lt\n        /* \"Qsito/carnaval.sol\":4161:4277  for (uint j = 0; j < QUANTIDADE_QUESITOS; j++) {... */\n      iszero\n      tag_253\n      jumpi\n        /* \"Qsito/carnaval.sol\":4234:4255  notasPorEscolaQuesito */\n      0x7f\n        /* \"Qsito/carnaval.sol\":4234:4258  notasPorEscolaQuesito[i] */\n      0x00\n        /* \"Qsito/carnaval.sol\":4256:4257  i */\n      dup4\n        /* \"Qsito/carnaval.sol\":4234:4258  notasPorEscolaQuesito[i] */\n      dup2\n      mstore\n      0x20\n      add\n      swap1\n      dup2\n      mstore\n      0x20\n      add\n      0x00\n      keccak256\n        /* \"Qsito/carnaval.sol\":4234:4261  notasPorEscolaQuesito[i][j] */\n      0x00\n        /* \"Qsito/carnaval.sol\":4259:4260  j */\n      dup3\n        /* \"Qsito/carnaval.sol\":4234:4261  notasPorEscolaQuesito[i][j] */\n      dup2\n      mstore\n      0x20\n      add\n      swap1\n      dup2\n      mstore\n      0x20\n      add\n      0x00\n      keccak256\n      0x00\n        /* \"Qsito/carnaval.sol\":4227:4261  delete notasPorEscolaQuesito[i][j] */\n      0x00\n      dup3\n      add\n      0x00\n      swap1\n      sstore\n      0x01\n      dup3\n      add\n      0x00\n      swap1\n      sstore\n      0x02\n      dup3\n      add\n      exp(0x0100, 0x00)\n      dup2\n      sload\n      swap1\n      0xffffffffffffffffffffffffffffffffffffffff\n      mul\n      not\n      and\n      swap1\n      sstore\n      0x03\n      dup3\n      add\n      0x00\n      swap1\n      sstore\n      pop\n      pop\n        /* \"Qsito/carnaval.sol\":4203:4206  j++ */\n      dup1\n      dup1\n      0x01\n      add\n      swap2\n      pop\n      pop\n        /* \"Qsito/carnaval.sol\":4161:4277  for (uint j = 0; j < QUANTIDADE_QUESITOS; j++) {... */\n      jump(tag_252)\n    tag_253:\n      pop\n        /* \"Qsito/carnaval.sol\":4141:4144  i++ */\n      dup1\n      dup1\n      0x01\n      add\n      swap2\n      pop\n      pop\n        /* \"Qsito/carnaval.sol\":4100:4288  for (uint i = 0; i < QUANTIDADE_ESCOLAS; i++) {... */\n      jump(tag_249)\n    tag_250:\n      pop\n        /* \"Qsito/carnaval.sol\":3895:4295  function limparDados() public onlyOwner {... */\n      jump\t// out\n        /* \"Qsito/carnaval.sol\":777:821  Quesito[QUANTIDADE_QUESITOS] public quesitos */\n    tag_122:\n      0x6b\n      dup2\n      0x09\n      dup2\n      lt\n      tag_255\n      jumpi\n      0x00\n      dup1\n      revert\n    tag_255:\n      0x02\n      mul\n      add\n      0x00\n      swap2\n      pop\n      swap1\n      pop\n      dup1\n      0x00\n      add\n      sload\n      swap1\n      dup1\n      0x01\n      add\n      dup1\n      sload\n      tag_257\n      swap1\n      tag_135\n      jump\t// in\n    tag_257:\n      dup1\n      0x1f\n      add\n      0x20\n      dup1\n      swap2\n      div\n      mul\n      0x20\n      add\n      mload(0x40)\n      swap1\n      dup2\n      add\n      0x40\n      mstore\n      dup1\n      swap3\n      swap2\n      swap1\n      dup2\n      dup2\n      mstore\n      0x20\n      add\n      dup3\n      dup1\n      sload\n      tag_258\n      swap1\n      tag_135\n      jump\t// in\n    tag_258:\n      dup1\n      iszero\n      tag_259\n      jumpi\n      dup1\n      0x1f\n      lt\n      tag_260\n      jumpi\n      0x0100\n      dup1\n      dup4\n      sload\n      div\n      mul\n      dup4\n      mstore\n      swap2\n      0x20\n      add\n      swap2\n      jump(tag_259)\n    tag_260:\n      dup3\n      add\n      swap2\n      swap1\n      0x00\n      mstore\n      keccak256(0x00, 0x20)\n      swap1\n    tag_261:\n      dup2\n      sload\n      dup2\n      mstore\n      swap1\n      0x01\n      add\n      swap1\n      0x20\n      add\n      dup1\n      dup4\n      gt\n      tag_261\n      jumpi\n      dup3\n      swap1\n      sub\n      0x1f\n      and\n      dup3\n      add\n      swap2\n    tag_259:\n      pop\n      pop\n      pop\n      pop\n      pop\n      swap1\n      pop\n      dup3\n      jump\t// out\n        /* \"@openzeppelin/contracts/utils/Context.sol\":656:752  function _msgSender() internal view virtual returns (address) {... */\n    tag_142:\n        /* \"@openzeppelin/contracts/utils/Context.sol\":709:716  address */\n      0x00\n        /* \"@openzeppelin/contracts/utils/Context.sol\":735:745  msg.sender */\n      caller\n        /* \"@openzeppelin/contracts/utils/Context.sol\":728:745  return msg.sender */\n      swap1\n      pop\n        /* \"@openzeppelin/contracts/utils/Context.sol\":656:752  function _msgSender() internal view virtual returns (address) {... */\n      swap1\n      jump\t// out\n        /* \"@openzeppelin/contracts/token/ERC20/ERC20.sol\":8726:8854  function _approve(address owner, address spender, uint256 value) internal {... */\n    tag_144:\n        /* \"@openzeppelin/contracts/token/ERC20/ERC20.sol\":8810:8847  _approve(owner, spender, value, true) */\n      tag_264\n        /* \"@openzeppelin/contracts/token/ERC20/ERC20.sol\":8819:8824  owner */\n      dup4\n        /* \"@openzeppelin/contracts/token/ERC20/ERC20.sol\":8826:8833  spender */\n      dup4\n        /* \"@openzeppelin/contracts/token/ERC20/ERC20.sol\":8835:8840  value */\n      dup4\n        /* \"@openzeppelin/contracts/token/ERC20/ERC20.sol\":8842:8846  true */\n      0x01\n        /* \"@openzeppelin/contracts/token/ERC20/ERC20.sol\":8810:8818  _approve */\n      tag_265\n        /* \"@openzeppelin/contracts/token/ERC20/ERC20.sol\":8810:8847  _approve(owner, spender, value, true) */\n      jump\t// in\n    tag_264:\n        /* \"@openzeppelin/contracts/token/ERC20/ERC20.sol\":8726:8854  function _approve(address owner, address spender, uint256 value) internal {... */\n      pop\n      pop\n      pop\n      jump\t// out\n        /* \"@openzeppelin/contracts/token/ERC20/ERC20.sol\":10415:10892  function _spendAllowance(address owner, address spender, uint256 value) internal virtual {... */\n    tag_175:\n        /* \"@openzeppelin/contracts/token/ERC20/ERC20.sol\":10514:10538  uint256 currentAllowance */\n      0x00\n        /* \"@openzeppelin/contracts/token/ERC20/ERC20.sol\":10541:10566  allowance(owner, spender) */\n      tag_267\n        /* \"@openzeppelin/contracts/token/ERC20/ERC20.sol\":10551:10556  owner */\n      dup5\n        /* \"@openzeppelin/contracts/token/ERC20/ERC20.sol\":10558:10565  spender */\n      dup5\n        /* \"@openzeppelin/contracts/token/ERC20/ERC20.sol\":10541:10550  allowance */\n      tag_112\n        /* \"@openzeppelin/contracts/token/ERC20/ERC20.sol\":10541:10566  allowance(owner, spender) */\n      jump\t// in\n    tag_267:\n        /* \"@openzeppelin/contracts/token/ERC20/ERC20.sol\":10514:10566  uint256 currentAllowance = allowance(owner, spender) */\n      swap1\n      pop\n        /* \"@openzeppelin/contracts/token/ERC20/ERC20.sol\":10600:10617  type(uint256).max */\n      0xffffffffffffffffffffffffffffffffffffffffffffffffffffffffffffffff\n        /* \"@openzeppelin/contracts/token/ERC20/ERC20.sol\":10580:10596  currentAllowance */\n      dup2\n        /* \"@openzeppelin/contracts/token/ERC20/ERC20.sol\":10580:10617  currentAllowance != type(uint256).max */\n      eq\n        /* \"@openzeppelin/contracts/token/ERC20/ERC20.sol\":10576:10886  if (currentAllowance != type(uint256).max) {... */\n      tag_268\n      jumpi\n        /* \"@openzeppelin/contracts/token/ERC20/ERC20.sol\":10656:10661  value */\n      dup2\n        /* \"@openzeppelin/contracts/token/ERC20/ERC20.sol\":10637:10653  currentAllowance */\n      dup2\n        /* \"@openzeppelin/contracts/token/ERC20/ERC20.sol\":10637:10661  currentAllowance < value */\n      lt\n        /* \"@openzeppelin/contracts/token/ERC20/ERC20.sol\":10633:10763  if (currentAllowance < value) {... */\n      iszero\n      tag_269\n      jumpi\n        /* \"@openzeppelin/contracts/token/ERC20/ERC20.sol\":10715:10722  spender */\n      dup3\n        /* \"@openzeppelin/contracts/token/ERC20/ERC20.sol\":10724:10740  currentAllowance */\n      dup2\n        /* \"@openzeppelin/contracts/token/ERC20/ERC20.sol\":10742:10747  value */\n      dup4\n        /* \"@openzeppelin/contracts/token/ERC20/ERC20.sol\":10688:10748  ERC20InsufficientAllowance(spender, currentAllowance, value) */\n      mload(0x40)\n      0xfb8f41b200000000000000000000000000000000000000000000000000000000\n      dup2\n      mstore\n      0x04\n      add\n      tag_270\n      swap4\n      swap3\n      swap2\n      swap1\n      tag_271\n      jump\t// in\n    tag_270:\n      mload(0x40)\n      dup1\n      swap2\n      sub\n      swap1\n      revert\n        /* \"@openzeppelin/contracts/token/ERC20/ERC20.sol\":10633:10763  if (currentAllowance < value) {... */\n    tag_269:\n        /* \"@openzeppelin/contracts/token/ERC20/ERC20.sol\":10804:10861  _approve(owner, spender, currentAllowance - value, false) */\n      tag_272\n        /* \"@openzeppelin/contracts/token/ERC20/ERC20.sol\":10813:10818  owner */\n      dup5\n        /* \"@openzeppelin/contracts/token/ERC20/ERC20.sol\":10820:10827  spender */\n      dup5\n        /* \"@openzeppelin/contracts/token/ERC20/ERC20.sol\":10848:10853  value */\n      dup5\n        /* \"@openzeppelin/contracts/token/ERC20/ERC20.sol\":10829:10845  currentAllowance */\n      dup5\n        /* \"@openzeppelin/contracts/token/ERC20/ERC20.sol\":10829:10853  currentAllowance - value */\n      sub\n        /* \"@openzeppelin/contracts/token/ERC20/ERC20.sol\":10855:10860  false */\n      0x00\n        /* \"@openzeppelin/contracts/token/ERC20/ERC20.sol\":10804:10812  _approve */\n      tag_265\n        /* \"@openzeppelin/contracts/token/ERC20/ERC20.sol\":10804:10861  _approve(owner, spender, currentAllowance - value, false) */\n      jump\t// in\n    tag_272:\n        /* \"@openzeppelin/contracts/token/ERC20/ERC20.sol\":10576:10886  if (currentAllowance != type(uint256).max) {... */\n    tag_268:\n        /* \"@openzeppelin/contracts/token/ERC20/ERC20.sol\":10504:10892  {... */\n      pop\n        /* \"@openzeppelin/contracts/token/ERC20/ERC20.sol\":10415:10892  function _spendAllowance(address owner, address spender, uint256 value) internal virtual {... */\n      pop\n      pop\n      pop\n      jump\t// out\n        /* \"@openzeppelin/contracts/token/ERC20/ERC20.sol\":5393:5693  function _transfer(address from, address to, uint256 value) internal {... */\n    tag_177:\n        /* \"@openzeppelin/contracts/token/ERC20/ERC20.sol\":5492:5493  0 */\n      0x00\n        /* \"@openzeppelin/contracts/token/ERC20/ERC20.sol\":5476:5494  from == address(0) */\n      0xffffffffffffffffffffffffffffffffffffffff\n      and\n        /* \"@openzeppelin/contracts/token/ERC20/ERC20.sol\":5476:5480  from */\n      dup4\n        /* \"@openzeppelin/contracts/token/ERC20/ERC20.sol\":5476:5494  from == address(0) */\n      0xffffffffffffffffffffffffffffffffffffffff\n      and\n      sub\n        /* \"@openzeppelin/contracts/token/ERC20/ERC20.sol\":5472:5558  if (from == address(0)) {... */\n      tag_274\n      jumpi\n        /* \"@openzeppelin/contracts/token/ERC20/ERC20.sol\":5544:5545  0 */\n      0x00\n        /* \"@openzeppelin/contracts/token/ERC20/ERC20.sol\":5517:5547  ERC20InvalidSender(address(0)) */\n      mload(0x40)\n      0x96c6fd1e00000000000000000000000000000000000000000000000000000000\n      dup2\n      mstore\n      0x04\n      add\n      tag_275\n      swap2\n      swap1\n      tag_88\n      jump\t// in\n    tag_275:\n      mload(0x40)\n      dup1\n      swap2\n      sub\n      swap1\n      revert\n        /* \"@openzeppelin/contracts/token/ERC20/ERC20.sol\":5472:5558  if (from == address(0)) {... */\n    tag_274:\n        /* \"@openzeppelin/contracts/token/ERC20/ERC20.sol\":5585:5586  0 */\n      0x00\n        /* \"@openzeppelin/contracts/token/ERC20/ERC20.sol\":5571:5587  to == address(0) */\n      0xffffffffffffffffffffffffffffffffffffffff\n      and\n        /* \"@openzeppelin/contracts/token/ERC20/ERC20.sol\":5571:5573  to */\n      dup3\n        /* \"@openzeppelin/contracts/token/ERC20/ERC20.sol\":5571:5587  to == address(0) */\n      0xffffffffffffffffffffffffffffffffffffffff\n      and\n      sub\n        /* \"@openzeppelin/contracts/token/ERC20/ERC20.sol\":5567:5653  if (to == address(0)) {... */\n      tag_276\n      jumpi\n        /* \"@openzeppelin/contracts/token/ERC20/ERC20.sol\":5639:5640  0 */\n      0x00\n        /* \"@openzeppelin/contracts/token/ERC20/ERC20.sol\":5610:5642  ERC20InvalidReceiver(address(0)) */\n      mload(0x40)\n      0xec442f0500000000000000000000000000000000000000000000000000000000\n      dup2\n      mstore\n      0x04\n      add\n      tag_277\n      swap2\n      swap1\n      tag_88\n      jump\t// in\n    tag_277:\n      mload(0x40)\n      dup1\n      swap2\n      sub\n      swap1\n      revert\n        /* \"@openzeppelin/contracts/token/ERC20/ERC20.sol\":5567:5653  if (to == address(0)) {... */\n    tag_276:\n        /* \"@openzeppelin/contracts/token/ERC20/ERC20.sol\":5662:5686  _update(from, to, value) */\n      tag_278\n        /* \"@openzeppelin/contracts/token/ERC20/ERC20.sol\":5670:5674  from */\n      dup4\n        /* \"@openzeppelin/contracts/token/ERC20/ERC20.sol\":5676:5678  to */\n      dup4\n        /* \"@openzeppelin/contracts/token/ERC20/ERC20.sol\":5680:5685  value */\n      dup4\n        /* \"@openzeppelin/contracts/token/ERC20/ERC20.sol\":5662:5669  _update */\n      tag_279\n        /* \"@openzeppelin/contracts/token/ERC20/ERC20.sol\":5662:5686  _update(from, to, value) */\n      jump\t// in\n    tag_278:\n        /* \"@openzeppelin/contracts/token/ERC20/ERC20.sol\":5393:5693  function _transfer(address from, address to, uint256 value) internal {... */\n      pop\n      pop\n      pop\n      jump\t// out\n        /* \"@openzeppelin/contracts/token/ERC20/ERC20.sol\":9701:10133  function _approve(address owner, address spender, uint256 value, bool emitEvent) internal virtual {... */\n    tag_265:\n        /* \"@openzeppelin/contracts/token/ERC20/ERC20.sol\":9830:9831  0 */\n      0x00\n        /* \"@openzeppelin/contracts/token/ERC20/ERC20.sol\":9813:9832  owner == address(0) */\n      0xffffffffffffffffffffffffffffffffffffffff\n      and\n        /* \"@openzeppelin/contracts/token/ERC20/ERC20.sol\":9813:9818  owner */\n      dup5\n        /* \"@openzeppelin/contracts/token/ERC20/ERC20.sol\":9813:9832  owner == address(0) */\n      0xffffffffffffffffffffffffffffffffffffffff\n      and\n      sub\n        /* \"@openzeppelin/contracts/token/ERC20/ERC20.sol\":9809:9898  if (owner == address(0)) {... */\n      tag_281\n      jumpi\n        /* \"@openzeppelin/contracts/token/ERC20/ERC20.sol\":9884:9885  0 */\n      0x00\n        /* \"@openzeppelin/contracts/token/ERC20/ERC20.sol\":9855:9887  ERC20InvalidApprover(address(0)) */\n      mload(0x40)\n      0xe602df0500000000000000000000000000000000000000000000000000000000\n      dup2\n      mstore\n      0x04\n      add\n      tag_282\n      swap2\n      swap1\n      tag_88\n      jump\t// in\n    tag_282:\n      mload(0x40)\n      dup1\n      swap2\n      sub\n      swap1\n      revert\n        /* \"@openzeppelin/contracts/token/ERC20/ERC20.sol\":9809:9898  if (owner == address(0)) {... */\n    tag_281:\n        /* \"@openzeppelin/contracts/token/ERC20/ERC20.sol\":9930:9931  0 */\n      0x00\n        /* \"@openzeppelin/contracts/token/ERC20/ERC20.sol\":9911:9932  spender == address(0) */\n      0xffffffffffffffffffffffffffffffffffffffff\n      and\n        /* \"@openzeppelin/contracts/token/ERC20/ERC20.sol\":9911:9918  spender */\n      dup4\n        /* \"@openzeppelin/contracts/token/ERC20/ERC20.sol\":9911:9932  spender == address(0) */\n      0xffffffffffffffffffffffffffffffffffffffff\n      and\n      sub\n        /* \"@openzeppelin/contracts/token/ERC20/ERC20.sol\":9907:9997  if (spender == address(0)) {... */\n      tag_283\n      jumpi\n        /* \"@openzeppelin/contracts/token/ERC20/ERC20.sol\":9983:9984  0 */\n      0x00\n        /* \"@openzeppelin/contracts/token/ERC20/ERC20.sol\":9955:9986  ERC20InvalidSpender(address(0)) */\n      mload(0x40)\n      0x94280d6200000000000000000000000000000000000000000000000000000000\n      dup2\n      mstore\n      0x04\n      add\n      tag_284\n      swap2\n      swap1\n      tag_88\n      jump\t// in\n    tag_284:\n      mload(0x40)\n      dup1\n      swap2\n      sub\n      swap1\n      revert\n        /* \"@openzeppelin/contracts/token/ERC20/ERC20.sol\":9907:9997  if (spender == address(0)) {... */\n    tag_283:\n        /* \"@openzeppelin/contracts/token/ERC20/ERC20.sol\":10036:10041  value */\n      dup2\n        /* \"@openzeppelin/contracts/token/ERC20/ERC20.sol\":10006:10017  _allowances */\n      0x01\n        /* \"@openzeppelin/contracts/token/ERC20/ERC20.sol\":10006:10024  _allowances[owner] */\n      0x00\n        /* \"@openzeppelin/contracts/token/ERC20/ERC20.sol\":10018:10023  owner */\n      dup7\n        /* \"@openzeppelin/contracts/token/ERC20/ERC20.sol\":10006:10024  _allowances[owner] */\n      0xffffffffffffffffffffffffffffffffffffffff\n      and\n      0xffffffffffffffffffffffffffffffffffffffff\n      and\n      dup2\n      mstore\n      0x20\n      add\n      swap1\n      dup2\n      mstore\n      0x20\n      add\n      0x00\n      keccak256\n        /* \"@openzeppelin/contracts/token/ERC20/ERC20.sol\":10006:10033  _allowances[owner][spender] */\n      0x00\n        /* \"@openzeppelin/contracts/token/ERC20/ERC20.sol\":10025:10032  spender */\n      dup6\n        /* \"@openzeppelin/contracts/token/ERC20/ERC20.sol\":10006:10033  _allowances[owner][spender] */\n      0xffffffffffffffffffffffffffffffffffffffff\n      and\n      0xffffffffffffffffffffffffffffffffffffffff\n      and\n      dup2\n      mstore\n      0x20\n      add\n      swap1\n      dup2\n      mstore\n      0x20\n      add\n      0x00\n      keccak256\n        /* \"@openzeppelin/contracts/token/ERC20/ERC20.sol\":10006:10041  _allowances[owner][spender] = value */\n      dup2\n      swap1\n      sstore\n      pop\n        /* \"@openzeppelin/contracts/token/ERC20/ERC20.sol\":10055:10064  emitEvent */\n      dup1\n        /* \"@openzeppelin/contracts/token/ERC20/ERC20.sol\":10051:10127  if (emitEvent) {... */\n      iszero\n      tag_285\n      jumpi\n        /* \"@openzeppelin/contracts/token/ERC20/ERC20.sol\":10101:10108  spender */\n      dup3\n        /* \"@openzeppelin/contracts/token/ERC20/ERC20.sol\":10085:10116  Approval(owner, spender, value) */\n      0xffffffffffffffffffffffffffffffffffffffff\n      and\n        /* \"@openzeppelin/contracts/token/ERC20/ERC20.sol\":10094:10099  owner */\n      dup5\n        /* \"@openzeppelin/contracts/token/ERC20/ERC20.sol\":10085:10116  Approval(owner, spender, value) */\n      0xffffffffffffffffffffffffffffffffffffffff\n      and\n      0x8c5be1e5ebec7d5bd14f71427d1e84f3dd0314c0f7b2291e5b200ac8c7c3b925\n        /* \"@openzeppelin/contracts/token/ERC20/ERC20.sol\":10110:10115  value */\n      dup5\n        /* \"@openzeppelin/contracts/token/ERC20/ERC20.sol\":10085:10116  Approval(owner, spender, value) */\n      mload(0x40)\n      tag_286\n      swap2\n      swap1\n      tag_47\n      jump\t// in\n    tag_286:\n      mload(0x40)\n      dup1\n      swap2\n      sub\n      swap1\n      log3\n        /* \"@openzeppelin/contracts/token/ERC20/ERC20.sol\":10051:10127  if (emitEvent) {... */\n    tag_285:\n        /* \"@openzeppelin/contracts/token/ERC20/ERC20.sol\":9701:10133  function _approve(address owner, address spender, uint256 value, bool emitEvent) internal virtual {... */\n      pop\n      pop\n      pop\n      pop\n      jump\t// out\n        /* \"@openzeppelin/contracts/token/ERC20/ERC20.sol\":6008:7115  function _update(address from, address to, uint256 value) internal virtual {... */\n    tag_279:\n        /* \"@openzeppelin/contracts/token/ERC20/ERC20.sol\":6113:6114  0 */\n      0x00\n        /* \"@openzeppelin/contracts/token/ERC20/ERC20.sol\":6097:6115  from == address(0) */\n      0xffffffffffffffffffffffffffffffffffffffff\n      and\n        /* \"@openzeppelin/contracts/token/ERC20/ERC20.sol\":6097:6101  from */\n      dup4\n        /* \"@openzeppelin/contracts/token/ERC20/ERC20.sol\":6097:6115  from == address(0) */\n      0xffffffffffffffffffffffffffffffffffffffff\n      and\n      sub\n        /* \"@openzeppelin/contracts/token/ERC20/ERC20.sol\":6093:6633  if (from == address(0)) {... */\n      tag_288\n      jumpi\n        /* \"@openzeppelin/contracts/token/ERC20/ERC20.sol\":6249:6254  value */\n      dup1\n        /* \"@openzeppelin/contracts/token/ERC20/ERC20.sol\":6233:6245  _totalSupply */\n      0x02\n      0x00\n        /* \"@openzeppelin/contracts/token/ERC20/ERC20.sol\":6233:6254  _totalSupply += value */\n      dup3\n      dup3\n      sload\n      tag_289\n      swap2\n      swap1\n      tag_290\n      jump\t// in\n    tag_289:\n      swap3\n      pop\n      pop\n      dup2\n      swap1\n      sstore\n      pop\n        /* \"@openzeppelin/contracts/token/ERC20/ERC20.sol\":6093:6633  if (from == address(0)) {... */\n      jump(tag_291)\n    tag_288:\n        /* \"@openzeppelin/contracts/token/ERC20/ERC20.sol\":6285:6304  uint256 fromBalance */\n      0x00\n        /* \"@openzeppelin/contracts/token/ERC20/ERC20.sol\":6307:6316  _balances */\n      0x00\n        /* \"@openzeppelin/contracts/token/ERC20/ERC20.sol\":6307:6322  _balances[from] */\n      0x00\n        /* \"@openzeppelin/contracts/token/ERC20/ERC20.sol\":6317:6321  from */\n      dup6\n        /* \"@openzeppelin/contracts/token/ERC20/ERC20.sol\":6307:6322  _balances[from] */\n      0xffffffffffffffffffffffffffffffffffffffff\n      and\n      0xffffffffffffffffffffffffffffffffffffffff\n      and\n      dup2\n      mstore\n      0x20\n      add\n      swap1\n      dup2\n      mstore\n      0x20\n      add\n      0x00\n      keccak256\n      sload\n        /* \"@openzeppelin/contracts/token/ERC20/ERC20.sol\":6285:6322  uint256 fromBalance = _balances[from] */\n      swap1\n      pop\n        /* \"@openzeppelin/contracts/token/ERC20/ERC20.sol\":6354:6359  value */\n      dup2\n        /* \"@openzeppelin/contracts/token/ERC20/ERC20.sol\":6340:6351  fromBalance */\n      dup2\n        /* \"@openzeppelin/contracts/token/ERC20/ERC20.sol\":6340:6359  fromBalance < value */\n      lt\n        /* \"@openzeppelin/contracts/token/ERC20/ERC20.sol\":6336:6451  if (fromBalance < value) {... */\n      iszero\n      tag_292\n      jumpi\n        /* \"@openzeppelin/contracts/token/ERC20/ERC20.sol\":6411:6415  from */\n      dup4\n        /* \"@openzeppelin/contracts/token/ERC20/ERC20.sol\":6417:6428  fromBalance */\n      dup2\n        /* \"@openzeppelin/contracts/token/ERC20/ERC20.sol\":6430:6435  value */\n      dup4\n        /* \"@openzeppelin/contracts/token/ERC20/ERC20.sol\":6386:6436  ERC20InsufficientBalance(from, fromBalance, value) */\n      mload(0x40)\n      0xe450d38c00000000000000000000000000000000000000000000000000000000\n      dup2\n      mstore\n      0x04\n      add\n      tag_293\n      swap4\n      swap3\n      swap2\n      swap1\n      tag_271\n      jump\t// in\n    tag_293:\n      mload(0x40)\n      dup1\n      swap2\n      sub\n      swap1\n      revert\n        /* \"@openzeppelin/contracts/token/ERC20/ERC20.sol\":6336:6451  if (fromBalance < value) {... */\n    tag_292:\n        /* \"@openzeppelin/contracts/token/ERC20/ERC20.sol\":6603:6608  value */\n      dup2\n        /* \"@openzeppelin/contracts/token/ERC20/ERC20.sol\":6589:6600  fromBalance */\n      dup2\n        /* \"@openzeppelin/contracts/token/ERC20/ERC20.sol\":6589:6608  fromBalance - value */\n      sub\n        /* \"@openzeppelin/contracts/token/ERC20/ERC20.sol\":6571:6580  _balances */\n      0x00\n        /* \"@openzeppelin/contracts/token/ERC20/ERC20.sol\":6571:6586  _balances[from] */\n      0x00\n        /* \"@openzeppelin/contracts/token/ERC20/ERC20.sol\":6581:6585  from */\n      dup7\n        /* \"@openzeppelin/contracts/token/ERC20/ERC20.sol\":6571:6586  _balances[from] */\n      0xffffffffffffffffffffffffffffffffffffffff\n      and\n      0xffffffffffffffffffffffffffffffffffffffff\n      and\n      dup2\n      mstore\n      0x20\n      add\n      swap1\n      dup2\n      mstore\n      0x20\n      add\n      0x00\n      keccak256\n        /* \"@openzeppelin/contracts/token/ERC20/ERC20.sol\":6571:6608  _balances[from] = fromBalance - value */\n      dup2\n      swap1\n      sstore\n      pop\n        /* \"@openzeppelin/contracts/token/ERC20/ERC20.sol\":6271:6633  {... */\n      pop\n        /* \"@openzeppelin/contracts/token/ERC20/ERC20.sol\":6093:6633  if (from == address(0)) {... */\n    tag_291:\n        /* \"@openzeppelin/contracts/token/ERC20/ERC20.sol\":6661:6662  0 */\n      0x00\n        /* \"@openzeppelin/contracts/token/ERC20/ERC20.sol\":6647:6663  to == address(0) */\n      0xffffffffffffffffffffffffffffffffffffffff\n      and\n        /* \"@openzeppelin/contracts/token/ERC20/ERC20.sol\":6647:6649  to */\n      dup3\n        /* \"@openzeppelin/contracts/token/ERC20/ERC20.sol\":6647:6663  to == address(0) */\n      0xffffffffffffffffffffffffffffffffffffffff\n      and\n      sub\n        /* \"@openzeppelin/contracts/token/ERC20/ERC20.sol\":6643:7068  if (to == address(0)) {... */\n      tag_294\n      jumpi\n        /* \"@openzeppelin/contracts/token/ERC20/ERC20.sol\":6826:6831  value */\n      dup1\n        /* \"@openzeppelin/contracts/token/ERC20/ERC20.sol\":6810:6822  _totalSupply */\n      0x02\n      0x00\n        /* \"@openzeppelin/contracts/token/ERC20/ERC20.sol\":6810:6831  _totalSupply -= value */\n      dup3\n      dup3\n      sload\n      sub\n      swap3\n      pop\n      pop\n      dup2\n      swap1\n      sstore\n      pop\n        /* \"@openzeppelin/contracts/token/ERC20/ERC20.sol\":6643:7068  if (to == address(0)) {... */\n      jump(tag_295)\n    tag_294:\n        /* \"@openzeppelin/contracts/token/ERC20/ERC20.sol\":7038:7043  value */\n      dup1\n        /* \"@openzeppelin/contracts/token/ERC20/ERC20.sol\":7021:7030  _balances */\n      0x00\n        /* \"@openzeppelin/contracts/token/ERC20/ERC20.sol\":7021:7034  _balances[to] */\n      0x00\n        /* \"@openzeppelin/contracts/token/ERC20/ERC20.sol\":7031:7033  to */\n      dup5\n        /* \"@openzeppelin/contracts/token/ERC20/ERC20.sol\":7021:7034  _balances[to] */\n      0xffffffffffffffffffffffffffffffffffffffff\n      and\n      0xffffffffffffffffffffffffffffffffffffffff\n      and\n      dup2\n      mstore\n      0x20\n      add\n      swap1\n      dup2\n      mstore\n      0x20\n      add\n      0x00\n      keccak256\n      0x00\n        /* \"@openzeppelin/contracts/token/ERC20/ERC20.sol\":7021:7043  _balances[to] += value */\n      dup3\n      dup3\n      sload\n      add\n      swap3\n      pop\n      pop\n      dup2\n      swap1\n      sstore\n      pop\n        /* \"@openzeppelin/contracts/token/ERC20/ERC20.sol\":6643:7068  if (to == address(0)) {... */\n    tag_295:\n        /* \"@openzeppelin/contracts/token/ERC20/ERC20.sol\":7098:7100  to */\n      dup2\n        /* \"@openzeppelin/contracts/token/ERC20/ERC20.sol\":7083:7108  Transfer(from, to, value) */\n      0xffffffffffffffffffffffffffffffffffffffff\n      and\n        /* \"@openzeppelin/contracts/token/ERC20/ERC20.sol\":7092:7096  from */\n      dup4\n        /* \"@openzeppelin/contracts/token/ERC20/ERC20.sol\":7083:7108  Transfer(from, to, value) */\n      0xffffffffffffffffffffffffffffffffffffffff\n      and\n      0xddf252ad1be2c89b69c2b068fc378daa952ba7f163c4a11628f55a4df523b3ef\n        /* \"@openzeppelin/contracts/token/ERC20/ERC20.sol\":7102:7107  value */\n      dup4\n        /* \"@openzeppelin/contracts/token/ERC20/ERC20.sol\":7083:7108  Transfer(from, to, value) */\n      mload(0x40)\n      tag_296\n      swap2\n      swap1\n      tag_47\n      jump\t// in\n    tag_296:\n      mload(0x40)\n      dup1\n      swap2\n      sub\n      swap1\n      log3\n        /* \"@openzeppelin/contracts/token/ERC20/ERC20.sol\":6008:7115  function _update(address from, address to, uint256 value) internal virtual {... */\n      pop\n      pop\n      pop\n      jump\t// out\n    tag_242:\n      pop\n      dup1\n      mul(0x02, 0x24)\n      add\n      swap1\n      tag_297\n      swap2\n      swap1\n      tag_298\n      jump\t// in\n    tag_297:\n      pop\n      jump\t// out\n    tag_244:\n      pop\n      dup1\n      mul(0x02, 0x0f)\n      add\n      swap1\n      tag_299\n      swap2\n      swap1\n      tag_300\n      jump\t// in\n    tag_299:\n      pop\n      jump\t// out\n    tag_246:\n      pop\n      dup1\n      mul(0x02, 0x09)\n      add\n      swap1\n      tag_301\n      swap2\n      swap1\n      tag_302\n      jump\t// in\n    tag_301:\n      pop\n      jump\t// out\n    tag_248:\n      pop\n      dup1\n      sload\n      0x00\n      dup3\n      sstore\n      0x04\n      mul\n      swap1\n      0x00\n      mstore\n      keccak256(0x00, 0x20)\n      swap1\n      dup2\n      add\n      swap1\n      tag_304\n      swap2\n      swap1\n      tag_305\n      jump\t// in\n    tag_304:\n      pop\n      jump\t// out\n    tag_298:\n    tag_306:\n      dup1\n      dup3\n      gt\n      iszero\n      tag_307\n      jumpi\n      0x00\n      0x00\n      dup3\n      add\n      exp(0x0100, 0x00)\n      dup2\n      sload\n      swap1\n      0xffffffffffffffffffffffffffffffffffffffff\n      mul\n      not\n      and\n      swap1\n      sstore\n      0x01\n      dup3\n      add\n      0x00\n      tag_308\n      swap2\n      swap1\n      tag_309\n      jump\t// in\n    tag_308:\n      pop\n      0x02\n      add\n      jump(tag_306)\n    tag_307:\n      pop\n      swap1\n      jump\t// out\n    tag_300:\n    tag_310:\n      dup1\n      dup3\n      gt\n      iszero\n      tag_311\n      jumpi\n      0x00\n      0x00\n      dup3\n      add\n      0x00\n      swap1\n      sstore\n      0x01\n      dup3\n      add\n      0x00\n      tag_312\n      swap2\n      swap1\n      tag_309\n      jump\t// in\n    tag_312:\n      pop\n      0x02\n      add\n      jump(tag_310)\n    tag_311:\n      pop\n      swap1\n      jump\t// out\n    tag_302:\n    tag_313:\n      dup1\n      dup3\n      gt\n      iszero\n      tag_314\n      jumpi\n      0x00\n      0x00\n      dup3\n      add\n      0x00\n      swap1\n      sstore\n      0x01\n      dup3\n      add\n      0x00\n      tag_315\n      swap2\n      swap1\n      tag_309\n      jump\t// in\n    tag_315:\n      pop\n      0x02\n      add\n      jump(tag_313)\n    tag_314:\n      pop\n      swap1\n      jump\t// out\n    tag_305:\n    tag_316:\n      dup1\n      dup3\n      gt\n      iszero\n      tag_317\n      jumpi\n      0x00\n      0x00\n      dup3\n      add\n      0x00\n      swap1\n      sstore\n      0x01\n      dup3\n      add\n      0x00\n      swap1\n      sstore\n      0x02\n      dup3\n      add\n      exp(0x0100, 0x00)\n      dup2\n      sload\n      swap1\n      0xffffffffffffffffffffffffffffffffffffffff\n      mul\n      not\n      and\n      swap1\n      sstore\n      0x03\n      dup3\n      add\n      0x00\n      swap1\n      sstore\n      pop\n      0x04\n      add\n      jump(tag_316)\n    tag_317:\n      pop\n      swap1\n      jump\t// out\n    tag_309:\n      pop\n      dup1\n      sload\n      tag_318\n      swap1\n      tag_135\n      jump\t// in\n    tag_318:\n      0x00\n      dup3\n      sstore\n      dup1\n      0x1f\n      lt\n      tag_320\n      jumpi\n      pop\n      jump(tag_319)\n    tag_320:\n      0x1f\n      add\n      0x20\n      swap1\n      div\n      swap1\n      0x00\n      mstore\n      keccak256(0x00, 0x20)\n      swap1\n      dup2\n      add\n      swap1\n      tag_321\n      swap2\n      swap1\n      tag_322\n      jump\t// in\n    tag_321:\n    tag_319:\n      pop\n      jump\t// out\n    tag_322:\n    tag_323:\n      dup1\n      dup3\n      gt\n      iszero\n      tag_324\n      jumpi\n      0x00\n      dup2\n      0x00\n      swap1\n      sstore\n      pop\n      0x01\n      add\n      jump(tag_323)\n    tag_324:\n      pop\n      swap1\n      jump\t// out\n        /* \"#utility.yul\":7:82   */\n    tag_325:\n        /* \"#utility.yul\":40:46   */\n      0x00\n        /* \"#utility.yul\":73:75   */\n      0x40\n        /* \"#utility.yul\":67:76   */\n      mload\n        /* \"#utility.yul\":57:76   */\n      swap1\n      pop\n        /* \"#utility.yul\":7:82   */\n      swap1\n      jump\t// out\n        /* \"#utility.yul\":88:205   */\n    tag_326:\n        /* \"#utility.yul\":197:198   */\n      0x00\n        /* \"#utility.yul\":194:195   */\n      0x00\n        /* \"#utility.yul\":187:199   */\n      revert\n        /* \"#utility.yul\":211:328   */\n    tag_327:\n        /* \"#utility.yul\":320:321   */\n      0x00\n        /* \"#utility.yul\":317:318   */\n      0x00\n        /* \"#utility.yul\":310:322   */\n      revert\n        /* \"#utility.yul\":334:411   */\n    tag_328:\n        /* \"#utility.yul\":371:378   */\n      0x00\n        /* \"#utility.yul\":400:405   */\n      dup2\n        /* \"#utility.yul\":389:405   */\n      swap1\n      pop\n        /* \"#utility.yul\":334:411   */\n      swap2\n      swap1\n      pop\n      jump\t// out\n        /* \"#utility.yul\":417:539   */\n    tag_329:\n        /* \"#utility.yul\":490:514   */\n      tag_392\n        /* \"#utility.yul\":508:513   */\n      dup2\n        /* \"#utility.yul\":490:514   */\n      tag_328\n      jump\t// in\n    tag_392:\n        /* \"#utility.yul\":483:488   */\n      dup2\n        /* \"#utility.yul\":480:515   */\n      eq\n        /* \"#utility.yul\":470:533   */\n      tag_393\n      jumpi\n        /* \"#utility.yul\":529:530   */\n      0x00\n        /* \"#utility.yul\":526:527   */\n      0x00\n        /* \"#utility.yul\":519:531   */\n      revert\n        /* \"#utility.yul\":470:533   */\n    tag_393:\n        /* \"#utility.yul\":417:539   */\n      pop\n      jump\t// out\n        /* \"#utility.yul\":545:684   */\n    tag_330:\n        /* \"#utility.yul\":591:596   */\n      0x00\n        /* \"#utility.yul\":629:635   */\n      dup2\n        /* \"#utility.yul\":616:636   */\n      calldataload\n        /* \"#utility.yul\":607:636   */\n      swap1\n      pop\n        /* \"#utility.yul\":645:678   */\n      tag_395\n        /* \"#utility.yul\":672:677   */\n      dup2\n        /* \"#utility.yul\":645:678   */\n      tag_329\n      jump\t// in\n    tag_395:\n        /* \"#utility.yul\":545:684   */\n      swap3\n      swap2\n      pop\n      pop\n      jump\t// out\n        /* \"#utility.yul\":690:1309   */\n    tag_30:\n        /* \"#utility.yul\":767:773   */\n      0x00\n        /* \"#utility.yul\":775:781   */\n      0x00\n        /* \"#utility.yul\":783:789   */\n      0x00\n        /* \"#utility.yul\":832:834   */\n      0x60\n        /* \"#utility.yul\":820:829   */\n      dup5\n        /* \"#utility.yul\":811:818   */\n      dup7\n        /* \"#utility.yul\":807:830   */\n      sub\n        /* \"#utility.yul\":803:835   */\n      slt\n        /* \"#utility.yul\":800:919   */\n      iszero\n      tag_397\n      jumpi\n        /* \"#utility.yul\":838:917   */\n      tag_398\n      tag_326\n      jump\t// in\n    tag_398:\n        /* \"#utility.yul\":800:919   */\n    tag_397:\n        /* \"#utility.yul\":958:959   */\n      0x00\n        /* \"#utility.yul\":983:1036   */\n      tag_399\n        /* \"#utility.yul\":1028:1035   */\n      dup7\n        /* \"#utility.yul\":1019:1025   */\n      dup3\n        /* \"#utility.yul\":1008:1017   */\n      dup8\n        /* \"#utility.yul\":1004:1026   */\n      add\n        /* \"#utility.yul\":983:1036   */\n      tag_330\n      jump\t// in\n    tag_399:\n        /* \"#utility.yul\":973:1036   */\n      swap4\n      pop\n        /* \"#utility.yul\":929:1046   */\n      pop\n        /* \"#utility.yul\":1085:1087   */\n      0x20\n        /* \"#utility.yul\":1111:1164   */\n      tag_400\n        /* \"#utility.yul\":1156:1163   */\n      dup7\n        /* \"#utility.yul\":1147:1153   */\n      dup3\n        /* \"#utility.yul\":1136:1145   */\n      dup8\n        /* \"#utility.yul\":1132:1154   */\n      add\n        /* \"#utility.yul\":1111:1164   */\n      tag_330\n      jump\t// in\n    tag_400:\n        /* \"#utility.yul\":1101:1164   */\n      swap3\n      pop\n        /* \"#utility.yul\":1056:1174   */\n      pop\n        /* \"#utility.yul\":1213:1215   */\n      0x40\n        /* \"#utility.yul\":1239:1292   */\n      tag_401\n        /* \"#utility.yul\":1284:1291   */\n      dup7\n        /* \"#utility.yul\":1275:1281   */\n      dup3\n        /* \"#utility.yul\":1264:1273   */\n      dup8\n        /* \"#utility.yul\":1260:1282   */\n      add\n        /* \"#utility.yul\":1239:1292   */\n      tag_330\n      jump\t// in\n    tag_401:\n        /* \"#utility.yul\":1229:1292   */\n      swap2\n      pop\n        /* \"#utility.yul\":1184:1302   */\n      pop\n        /* \"#utility.yul\":690:1309   */\n      swap3\n      pop\n      swap3\n      pop\n      swap3\n      jump\t// out\n        /* \"#utility.yul\":1315:1414   */\n    tag_331:\n        /* \"#utility.yul\":1367:1373   */\n      0x00\n        /* \"#utility.yul\":1401:1406   */\n      dup2\n        /* \"#utility.yul\":1395:1407   */\n      mload\n        /* \"#utility.yul\":1385:1407   */\n      swap1\n      pop\n        /* \"#utility.yul\":1315:1414   */\n      swap2\n      swap1\n      pop\n      jump\t// out\n        /* \"#utility.yul\":1420:1589   */\n    tag_332:\n        /* \"#utility.yul\":1504:1515   */\n      0x00\n        /* \"#utility.yul\":1538:1544   */\n      dup3\n        /* \"#utility.yul\":1533:1536   */\n      dup3\n        /* \"#utility.yul\":1526:1545   */\n      mstore\n        /* \"#utility.yul\":1578:1582   */\n      0x20\n        /* \"#utility.yul\":1573:1576   */\n      dup3\n        /* \"#utility.yul\":1569:1583   */\n      add\n        /* \"#utility.yul\":1554:1583   */\n      swap1\n      pop\n        /* \"#utility.yul\":1420:1589   */\n      swap3\n      swap2\n      pop\n      pop\n      jump\t// out\n        /* \"#utility.yul\":1595:1734   */\n    tag_333:\n        /* \"#utility.yul\":1684:1690   */\n      dup3\n        /* \"#utility.yul\":1679:1682   */\n      dup2\n        /* \"#utility.yul\":1674:1677   */\n      dup4\n        /* \"#utility.yul\":1668:1691   */\n      mcopy\n        /* \"#utility.yul\":1725:1726   */\n      0x00\n        /* \"#utility.yul\":1716:1722   */\n      dup4\n        /* \"#utility.yul\":1711:1714   */\n      dup4\n        /* \"#utility.yul\":1707:1723   */\n      add\n        /* \"#utility.yul\":1700:1727   */\n      mstore\n        /* \"#utility.yul\":1595:1734   */\n      pop\n      pop\n      pop\n      jump\t// out\n        /* \"#utility.yul\":1740:1842   */\n    tag_334:\n        /* \"#utility.yul\":1781:1787   */\n      0x00\n        /* \"#utility.yul\":1832:1834   */\n      0x1f\n        /* \"#utility.yul\":1828:1835   */\n      not\n        /* \"#utility.yul\":1823:1825   */\n      0x1f\n        /* \"#utility.yul\":1816:1821   */\n      dup4\n        /* \"#utility.yul\":1812:1826   */\n      add\n        /* \"#utility.yul\":1808:1836   */\n      and\n        /* \"#utility.yul\":1798:1836   */\n      swap1\n      pop\n        /* \"#utility.yul\":1740:1842   */\n      swap2\n      swap1\n      pop\n      jump\t// out\n        /* \"#utility.yul\":1848:2225   */\n    tag_335:\n        /* \"#utility.yul\":1936:1939   */\n      0x00\n        /* \"#utility.yul\":1964:2003   */\n      tag_407\n        /* \"#utility.yul\":1997:2002   */\n      dup3\n        /* \"#utility.yul\":1964:2003   */\n      tag_331\n      jump\t// in\n    tag_407:\n        /* \"#utility.yul\":2019:2090   */\n      tag_408\n        /* \"#utility.yul\":2083:2089   */\n      dup2\n        /* \"#utility.yul\":2078:2081   */\n      dup6\n        /* \"#utility.yul\":2019:2090   */\n      tag_332\n      jump\t// in\n    tag_408:\n        /* \"#utility.yul\":2012:2090   */\n      swap4\n      pop\n        /* \"#utility.yul\":2099:2164   */\n      tag_409\n        /* \"#utility.yul\":2157:2163   */\n      dup2\n        /* \"#utility.yul\":2152:2155   */\n      dup6\n        /* \"#utility.yul\":2145:2149   */\n      0x20\n        /* \"#utility.yul\":2138:2143   */\n      dup7\n        /* \"#utility.yul\":2134:2150   */\n      add\n        /* \"#utility.yul\":2099:2164   */\n      tag_333\n      jump\t// in\n    tag_409:\n        /* \"#utility.yul\":2189:2218   */\n      tag_410\n        /* \"#utility.yul\":2211:2217   */\n      dup2\n        /* \"#utility.yul\":2189:2218   */\n      tag_334\n      jump\t// in\n    tag_410:\n        /* \"#utility.yul\":2184:2187   */\n      dup5\n        /* \"#utility.yul\":2180:2219   */\n      add\n        /* \"#utility.yul\":2173:2219   */\n      swap2\n      pop\n        /* \"#utility.yul\":1940:2225   */\n      pop\n        /* \"#utility.yul\":1848:2225   */\n      swap3\n      swap2\n      pop\n      pop\n      jump\t// out\n        /* \"#utility.yul\":2231:2544   */\n    tag_35:\n        /* \"#utility.yul\":2344:2348   */\n      0x00\n        /* \"#utility.yul\":2382:2384   */\n      0x20\n        /* \"#utility.yul\":2371:2380   */\n      dup3\n        /* \"#utility.yul\":2367:2385   */\n      add\n        /* \"#utility.yul\":2359:2385   */\n      swap1\n      pop\n        /* \"#utility.yul\":2431:2440   */\n      dup2\n        /* \"#utility.yul\":2425:2429   */\n      dup2\n        /* \"#utility.yul\":2421:2441   */\n      sub\n        /* \"#utility.yul\":2417:2418   */\n      0x00\n        /* \"#utility.yul\":2406:2415   */\n      dup4\n        /* \"#utility.yul\":2402:2419   */\n      add\n        /* \"#utility.yul\":2395:2442   */\n      mstore\n        /* \"#utility.yul\":2459:2537   */\n      tag_412\n        /* \"#utility.yul\":2532:2536   */\n      dup2\n        /* \"#utility.yul\":2523:2529   */\n      dup5\n        /* \"#utility.yul\":2459:2537   */\n      tag_335\n      jump\t// in\n    tag_412:\n        /* \"#utility.yul\":2451:2537   */\n      swap1\n      pop\n        /* \"#utility.yul\":2231:2544   */\n      swap3\n      swap2\n      pop\n      pop\n      jump\t// out\n        /* \"#utility.yul\":2550:2676   */\n    tag_336:\n        /* \"#utility.yul\":2587:2594   */\n      0x00\n        /* \"#utility.yul\":2627:2669   */\n      0xffffffffffffffffffffffffffffffffffffffff\n        /* \"#utility.yul\":2620:2625   */\n      dup3\n        /* \"#utility.yul\":2616:2670   */\n      and\n        /* \"#utility.yul\":2605:2670   */\n      swap1\n      pop\n        /* \"#utility.yul\":2550:2676   */\n      swap2\n      swap1\n      pop\n      jump\t// out\n        /* \"#utility.yul\":2682:2778   */\n    tag_337:\n        /* \"#utility.yul\":2719:2726   */\n      0x00\n        /* \"#utility.yul\":2748:2772   */\n      tag_415\n        /* \"#utility.yul\":2766:2771   */\n      dup3\n        /* \"#utility.yul\":2748:2772   */\n      tag_336\n      jump\t// in\n    tag_415:\n        /* \"#utility.yul\":2737:2772   */\n      swap1\n      pop\n        /* \"#utility.yul\":2682:2778   */\n      swap2\n      swap1\n      pop\n      jump\t// out\n        /* \"#utility.yul\":2784:2906   */\n    tag_338:\n        /* \"#utility.yul\":2857:2881   */\n      tag_417\n        /* \"#utility.yul\":2875:2880   */\n      dup2\n        /* \"#utility.yul\":2857:2881   */\n      tag_337\n      jump\t// in\n    tag_417:\n        /* \"#utility.yul\":2850:2855   */\n      dup2\n        /* \"#utility.yul\":2847:2882   */\n      eq\n        /* \"#utility.yul\":2837:2900   */\n      tag_418\n      jumpi\n        /* \"#utility.yul\":2896:2897   */\n      0x00\n        /* \"#utility.yul\":2893:2894   */\n      0x00\n        /* \"#utility.yul\":2886:2898   */\n      revert\n        /* \"#utility.yul\":2837:2900   */\n    tag_418:\n        /* \"#utility.yul\":2784:2906   */\n      pop\n      jump\t// out\n        /* \"#utility.yul\":2912:3051   */\n    tag_339:\n        /* \"#utility.yul\":2958:2963   */\n      0x00\n        /* \"#utility.yul\":2996:3002   */\n      dup2\n        /* \"#utility.yul\":2983:3003   */\n      calldataload\n        /* \"#utility.yul\":2974:3003   */\n      swap1\n      pop\n        /* \"#utility.yul\":3012:3045   */\n      tag_420\n        /* \"#utility.yul\":3039:3044   */\n      dup2\n        /* \"#utility.yul\":3012:3045   */\n      tag_338\n      jump\t// in\n    tag_420:\n        /* \"#utility.yul\":2912:3051   */\n      swap3\n      swap2\n      pop\n      pop\n      jump\t// out\n        /* \"#utility.yul\":3057:3531   */\n    tag_38:\n        /* \"#utility.yul\":3125:3131   */\n      0x00\n        /* \"#utility.yul\":3133:3139   */\n      0x00\n        /* \"#utility.yul\":3182:3184   */\n      0x40\n        /* \"#utility.yul\":3170:3179   */\n      dup4\n        /* \"#utility.yul\":3161:3168   */\n      dup6\n        /* \"#utility.yul\":3157:3180   */\n      sub\n        /* \"#utility.yul\":3153:3185   */\n      slt\n        /* \"#utility.yul\":3150:3269   */\n      iszero\n      tag_422\n      jumpi\n        /* \"#utility.yul\":3188:3267   */\n      tag_423\n      tag_326\n      jump\t// in\n    tag_423:\n        /* \"#utility.yul\":3150:3269   */\n    tag_422:\n        /* \"#utility.yul\":3308:3309   */\n      0x00\n        /* \"#utility.yul\":3333:3386   */\n      tag_424\n        /* \"#utility.yul\":3378:3385   */\n      dup6\n        /* \"#utility.yul\":3369:3375   */\n      dup3\n        /* \"#utility.yul\":3358:3367   */\n      dup7\n        /* \"#utility.yul\":3354:3376   */\n      add\n        /* \"#utility.yul\":3333:3386   */\n      tag_339\n      jump\t// in\n    tag_424:\n        /* \"#utility.yul\":3323:3386   */\n      swap3\n      pop\n        /* \"#utility.yul\":3279:3396   */\n      pop\n        /* \"#utility.yul\":3435:3437   */\n      0x20\n        /* \"#utility.yul\":3461:3514   */\n      tag_425\n        /* \"#utility.yul\":3506:3513   */\n      dup6\n        /* \"#utility.yul\":3497:3503   */\n      dup3\n        /* \"#utility.yul\":3486:3495   */\n      dup7\n        /* \"#utility.yul\":3482:3504   */\n      add\n        /* \"#utility.yul\":3461:3514   */\n      tag_330\n      jump\t// in\n    tag_425:\n        /* \"#utility.yul\":3451:3514   */\n      swap2\n      pop\n        /* \"#utility.yul\":3406:3524   */\n      pop\n        /* \"#utility.yul\":3057:3531   */\n      swap3\n      pop\n      swap3\n      swap1\n      pop\n      jump\t// out\n        /* \"#utility.yul\":3537:3627   */\n    tag_340:\n        /* \"#utility.yul\":3571:3578   */\n      0x00\n        /* \"#utility.yul\":3614:3619   */\n      dup2\n        /* \"#utility.yul\":3607:3620   */\n      iszero\n        /* \"#utility.yul\":3600:3621   */\n      iszero\n        /* \"#utility.yul\":3589:3621   */\n      swap1\n      pop\n        /* \"#utility.yul\":3537:3627   */\n      swap2\n      swap1\n      pop\n      jump\t// out\n        /* \"#utility.yul\":3633:3742   */\n    tag_341:\n        /* \"#utility.yul\":3714:3735   */\n      tag_428\n        /* \"#utility.yul\":3729:3734   */\n      dup2\n        /* \"#utility.yul\":3714:3735   */\n      tag_340\n      jump\t// in\n    tag_428:\n        /* \"#utility.yul\":3709:3712   */\n      dup3\n        /* \"#utility.yul\":3702:3736   */\n      mstore\n        /* \"#utility.yul\":3633:3742   */\n      pop\n      pop\n      jump\t// out\n        /* \"#utility.yul\":3748:3958   */\n    tag_41:\n        /* \"#utility.yul\":3835:3839   */\n      0x00\n        /* \"#utility.yul\":3873:3875   */\n      0x20\n        /* \"#utility.yul\":3862:3871   */\n      dup3\n        /* \"#utility.yul\":3858:3876   */\n      add\n        /* \"#utility.yul\":3850:3876   */\n      swap1\n      pop\n        /* \"#utility.yul\":3886:3951   */\n      tag_430\n        /* \"#utility.yul\":3948:3949   */\n      0x00\n        /* \"#utility.yul\":3937:3946   */\n      dup4\n        /* \"#utility.yul\":3933:3950   */\n      add\n        /* \"#utility.yul\":3924:3930   */\n      dup5\n        /* \"#utility.yul\":3886:3951   */\n      tag_341\n      jump\t// in\n    tag_430:\n        /* \"#utility.yul\":3748:3958   */\n      swap3\n      swap2\n      pop\n      pop\n      jump\t// out\n        /* \"#utility.yul\":3964:4081   */\n    tag_342:\n        /* \"#utility.yul\":4073:4074   */\n      0x00\n        /* \"#utility.yul\":4070:4071   */\n      0x00\n        /* \"#utility.yul\":4063:4075   */\n      revert\n        /* \"#utility.yul\":4087:4204   */\n    tag_343:\n        /* \"#utility.yul\":4196:4197   */\n      0x00\n        /* \"#utility.yul\":4193:4194   */\n      0x00\n        /* \"#utility.yul\":4186:4198   */\n      revert\n        /* \"#utility.yul\":4210:4390   */\n    tag_344:\n        /* \"#utility.yul\":4258:4335   */\n      0x4e487b7100000000000000000000000000000000000000000000000000000000\n        /* \"#utility.yul\":4255:4256   */\n      0x00\n        /* \"#utility.yul\":4248:4336   */\n      mstore\n        /* \"#utility.yul\":4355:4359   */\n      0x41\n        /* \"#utility.yul\":4352:4353   */\n      0x04\n        /* \"#utility.yul\":4345:4360   */\n      mstore\n        /* \"#utility.yul\":4379:4383   */\n      0x24\n        /* \"#utility.yul\":4376:4377   */\n      0x00\n        /* \"#utility.yul\":4369:4384   */\n      revert\n        /* \"#utility.yul\":4396:4677   */\n    tag_345:\n        /* \"#utility.yul\":4479:4506   */\n      tag_435\n        /* \"#utility.yul\":4501:4505   */\n      dup3\n        /* \"#utility.yul\":4479:4506   */\n      tag_334\n      jump\t// in\n    tag_435:\n        /* \"#utility.yul\":4471:4477   */\n      dup2\n        /* \"#utility.yul\":4467:4507   */\n      add\n        /* \"#utility.yul\":4609:4615   */\n      dup2\n        /* \"#utility.yul\":4597:4607   */\n      dup2\n        /* \"#utility.yul\":4594:4616   */\n      lt\n        /* \"#utility.yul\":4573:4591   */\n      0xffffffffffffffff\n        /* \"#utility.yul\":4561:4571   */\n      dup3\n        /* \"#utility.yul\":4558:4592   */\n      gt\n        /* \"#utility.yul\":4555:4617   */\n      or\n        /* \"#utility.yul\":4552:4640   */\n      iszero\n      tag_436\n      jumpi\n        /* \"#utility.yul\":4620:4638   */\n      tag_437\n      tag_344\n      jump\t// in\n    tag_437:\n        /* \"#utility.yul\":4552:4640   */\n    tag_436:\n        /* \"#utility.yul\":4660:4670   */\n      dup1\n        /* \"#utility.yul\":4656:4658   */\n      0x40\n        /* \"#utility.yul\":4649:4671   */\n      mstore\n        /* \"#utility.yul\":4439:4677   */\n      pop\n        /* \"#utility.yul\":4396:4677   */\n      pop\n      pop\n      jump\t// out\n        /* \"#utility.yul\":4683:4812   */\n    tag_346:\n        /* \"#utility.yul\":4717:4723   */\n      0x00\n        /* \"#utility.yul\":4744:4764   */\n      tag_439\n      tag_325\n      jump\t// in\n    tag_439:\n        /* \"#utility.yul\":4734:4764   */\n      swap1\n      pop\n        /* \"#utility.yul\":4773:4806   */\n      tag_440\n        /* \"#utility.yul\":4801:4805   */\n      dup3\n        /* \"#utility.yul\":4793:4799   */\n      dup3\n        /* \"#utility.yul\":4773:4806   */\n      tag_345\n      jump\t// in\n    tag_440:\n        /* \"#utility.yul\":4683:4812   */\n      swap2\n      swap1\n      pop\n      jump\t// out\n        /* \"#utility.yul\":4818:5126   */\n    tag_347:\n        /* \"#utility.yul\":4880:4884   */\n      0x00\n        /* \"#utility.yul\":4970:4988   */\n      0xffffffffffffffff\n        /* \"#utility.yul\":4962:4968   */\n      dup3\n        /* \"#utility.yul\":4959:4989   */\n      gt\n        /* \"#utility.yul\":4956:5012   */\n      iszero\n      tag_442\n      jumpi\n        /* \"#utility.yul\":4992:5010   */\n      tag_443\n      tag_344\n      jump\t// in\n    tag_443:\n        /* \"#utility.yul\":4956:5012   */\n    tag_442:\n        /* \"#utility.yul\":5030:5059   */\n      tag_444\n        /* \"#utility.yul\":5052:5058   */\n      dup3\n        /* \"#utility.yul\":5030:5059   */\n      tag_334\n      jump\t// in\n    tag_444:\n        /* \"#utility.yul\":5022:5059   */\n      swap1\n      pop\n        /* \"#utility.yul\":5114:5118   */\n      0x20\n        /* \"#utility.yul\":5108:5112   */\n      dup2\n        /* \"#utility.yul\":5104:5119   */\n      add\n        /* \"#utility.yul\":5096:5119   */\n      swap1\n      pop\n        /* \"#utility.yul\":4818:5126   */\n      swap2\n      swap1\n      pop\n      jump\t// out\n        /* \"#utility.yul\":5132:5280   */\n    tag_348:\n        /* \"#utility.yul\":5230:5236   */\n      dup3\n        /* \"#utility.yul\":5225:5228   */\n      dup2\n        /* \"#utility.yul\":5220:5223   */\n      dup4\n        /* \"#utility.yul\":5207:5237   */\n      calldatacopy\n        /* \"#utility.yul\":5271:5272   */\n      0x00\n        /* \"#utility.yul\":5262:5268   */\n      dup4\n        /* \"#utility.yul\":5257:5260   */\n      dup4\n        /* \"#utility.yul\":5253:5269   */\n      add\n        /* \"#utility.yul\":5246:5273   */\n      mstore\n        /* \"#utility.yul\":5132:5280   */\n      pop\n      pop\n      pop\n      jump\t// out\n        /* \"#utility.yul\":5286:5711   */\n    tag_349:\n        /* \"#utility.yul\":5364:5369   */\n      0x00\n        /* \"#utility.yul\":5389:5455   */\n      tag_447\n        /* \"#utility.yul\":5405:5454   */\n      tag_448\n        /* \"#utility.yul\":5447:5453   */\n      dup5\n        /* \"#utility.yul\":5405:5454   */\n      tag_347\n      jump\t// in\n    tag_448:\n        /* \"#utility.yul\":5389:5455   */\n      tag_346\n      jump\t// in\n    tag_447:\n        /* \"#utility.yul\":5380:5455   */\n      swap1\n      pop\n        /* \"#utility.yul\":5478:5484   */\n      dup3\n        /* \"#utility.yul\":5471:5476   */\n      dup2\n        /* \"#utility.yul\":5464:5485   */\n      mstore\n        /* \"#utility.yul\":5516:5520   */\n      0x20\n        /* \"#utility.yul\":5509:5514   */\n      dup2\n        /* \"#utility.yul\":5505:5521   */\n      add\n        /* \"#utility.yul\":5554:5557   */\n      dup5\n        /* \"#utility.yul\":5545:5551   */\n      dup5\n        /* \"#utility.yul\":5540:5543   */\n      dup5\n        /* \"#utility.yul\":5536:5552   */\n      add\n        /* \"#utility.yul\":5533:5558   */\n      gt\n        /* \"#utility.yul\":5530:5642   */\n      iszero\n      tag_449\n      jumpi\n        /* \"#utility.yul\":5561:5640   */\n      tag_450\n      tag_343\n      jump\t// in\n    tag_450:\n        /* \"#utility.yul\":5530:5642   */\n    tag_449:\n        /* \"#utility.yul\":5651:5705   */\n      tag_451\n        /* \"#utility.yul\":5698:5704   */\n      dup5\n        /* \"#utility.yul\":5693:5696   */\n      dup3\n        /* \"#utility.yul\":5688:5691   */\n      dup6\n        /* \"#utility.yul\":5651:5705   */\n      tag_348\n      jump\t// in\n    tag_451:\n        /* \"#utility.yul\":5370:5711   */\n      pop\n        /* \"#utility.yul\":5286:5711   */\n      swap4\n      swap3\n      pop\n      pop\n      pop\n      jump\t// out\n        /* \"#utility.yul\":5731:6071   */\n    tag_350:\n        /* \"#utility.yul\":5787:5792   */\n      0x00\n        /* \"#utility.yul\":5836:5839   */\n      dup3\n        /* \"#utility.yul\":5829:5833   */\n      0x1f\n        /* \"#utility.yul\":5821:5827   */\n      dup4\n        /* \"#utility.yul\":5817:5834   */\n      add\n        /* \"#utility.yul\":5813:5840   */\n      slt\n        /* \"#utility.yul\":5803:5925   */\n      tag_453\n      jumpi\n        /* \"#utility.yul\":5844:5923   */\n      tag_454\n      tag_342\n      jump\t// in\n    tag_454:\n        /* \"#utility.yul\":5803:5925   */\n    tag_453:\n        /* \"#utility.yul\":5961:5967   */\n      dup2\n        /* \"#utility.yul\":5948:5968   */\n      calldataload\n        /* \"#utility.yul\":5986:6065   */\n      tag_455\n        /* \"#utility.yul\":6061:6064   */\n      dup5\n        /* \"#utility.yul\":6053:6059   */\n      dup3\n        /* \"#utility.yul\":6046:6050   */\n      0x20\n        /* \"#utility.yul\":6038:6044   */\n      dup7\n        /* \"#utility.yul\":6034:6051   */\n      add\n        /* \"#utility.yul\":5986:6065   */\n      tag_349\n      jump\t// in\n    tag_455:\n        /* \"#utility.yul\":5977:6065   */\n      swap2\n      pop\n        /* \"#utility.yul\":5793:6071   */\n      pop\n        /* \"#utility.yul\":5731:6071   */\n      swap3\n      swap2\n      pop\n      pop\n      jump\t// out\n        /* \"#utility.yul\":6077:6586   */\n    tag_44:\n        /* \"#utility.yul\":6146:6152   */\n      0x00\n        /* \"#utility.yul\":6195:6197   */\n      0x20\n        /* \"#utility.yul\":6183:6192   */\n      dup3\n        /* \"#utility.yul\":6174:6181   */\n      dup5\n        /* \"#utility.yul\":6170:6193   */\n      sub\n        /* \"#utility.yul\":6166:6198   */\n      slt\n        /* \"#utility.yul\":6163:6282   */\n      iszero\n      tag_457\n      jumpi\n        /* \"#utility.yul\":6201:6280   */\n      tag_458\n      tag_326\n      jump\t// in\n    tag_458:\n        /* \"#utility.yul\":6163:6282   */\n    tag_457:\n        /* \"#utility.yul\":6349:6350   */\n      0x00\n        /* \"#utility.yul\":6338:6347   */\n      dup3\n        /* \"#utility.yul\":6334:6351   */\n      add\n        /* \"#utility.yul\":6321:6352   */\n      calldataload\n        /* \"#utility.yul\":6379:6397   */\n      0xffffffffffffffff\n        /* \"#utility.yul\":6371:6377   */\n      dup2\n        /* \"#utility.yul\":6368:6398   */\n      gt\n        /* \"#utility.yul\":6365:6482   */\n      iszero\n      tag_459\n      jumpi\n        /* \"#utility.yul\":6401:6480   */\n      tag_460\n      tag_327\n      jump\t// in\n    tag_460:\n        /* \"#utility.yul\":6365:6482   */\n    tag_459:\n        /* \"#utility.yul\":6506:6569   */\n      tag_461\n        /* \"#utility.yul\":6561:6568   */\n      dup5\n        /* \"#utility.yul\":6552:6558   */\n      dup3\n        /* \"#utility.yul\":6541:6550   */\n      dup6\n        /* \"#utility.yul\":6537:6559   */\n      add\n        /* \"#utility.yul\":6506:6569   */\n      tag_350\n      jump\t// in\n    tag_461:\n        /* \"#utility.yul\":6496:6569   */\n      swap2\n      pop\n        /* \"#utility.yul\":6292:6579   */\n      pop\n        /* \"#utility.yul\":6077:6586   */\n      swap3\n      swap2\n      pop\n      pop\n      jump\t// out\n        /* \"#utility.yul\":6592:6710   */\n    tag_351:\n        /* \"#utility.yul\":6679:6703   */\n      tag_463\n        /* \"#utility.yul\":6697:6702   */\n      dup2\n        /* \"#utility.yul\":6679:6703   */\n      tag_328\n      jump\t// in\n    tag_463:\n        /* \"#utility.yul\":6674:6677   */\n      dup3\n        /* \"#utility.yul\":6667:6704   */\n      mstore\n        /* \"#utility.yul\":6592:6710   */\n      pop\n      pop\n      jump\t// out\n        /* \"#utility.yul\":6716:6938   */\n    tag_47:\n        /* \"#utility.yul\":6809:6813   */\n      0x00\n        /* \"#utility.yul\":6847:6849   */\n      0x20\n        /* \"#utility.yul\":6836:6845   */\n      dup3\n        /* \"#utility.yul\":6832:6850   */\n      add\n        /* \"#utility.yul\":6824:6850   */\n      swap1\n      pop\n        /* \"#utility.yul\":6860:6931   */\n      tag_465\n        /* \"#utility.yul\":6928:6929   */\n      0x00\n        /* \"#utility.yul\":6917:6926   */\n      dup4\n        /* \"#utility.yul\":6913:6930   */\n      add\n        /* \"#utility.yul\":6904:6910   */\n      dup5\n        /* \"#utility.yul\":6860:6931   */\n      tag_351\n      jump\t// in\n    tag_465:\n        /* \"#utility.yul\":6716:6938   */\n      swap3\n      swap2\n      pop\n      pop\n      jump\t// out\n        /* \"#utility.yul\":6944:7273   */\n    tag_50:\n        /* \"#utility.yul\":7003:7009   */\n      0x00\n        /* \"#utility.yul\":7052:7054   */\n      0x20\n        /* \"#utility.yul\":7040:7049   */\n      dup3\n        /* \"#utility.yul\":7031:7038   */\n      dup5\n        /* \"#utility.yul\":7027:7050   */\n      sub\n        /* \"#utility.yul\":7023:7055   */\n      slt\n        /* \"#utility.yul\":7020:7139   */\n      iszero\n      tag_467\n      jumpi\n        /* \"#utility.yul\":7058:7137   */\n      tag_468\n      tag_326\n      jump\t// in\n    tag_468:\n        /* \"#utility.yul\":7020:7139   */\n    tag_467:\n        /* \"#utility.yul\":7178:7179   */\n      0x00\n        /* \"#utility.yul\":7203:7256   */\n      tag_469\n        /* \"#utility.yul\":7248:7255   */\n      dup5\n        /* \"#utility.yul\":7239:7245   */\n      dup3\n        /* \"#utility.yul\":7228:7237   */\n      dup6\n        /* \"#utility.yul\":7224:7246   */\n      add\n        /* \"#utility.yul\":7203:7256   */\n      tag_330\n      jump\t// in\n    tag_469:\n        /* \"#utility.yul\":7193:7256   */\n      swap2\n      pop\n        /* \"#utility.yul\":7149:7266   */\n      pop\n        /* \"#utility.yul\":6944:7273   */\n      swap3\n      swap2\n      pop\n      pop\n      jump\t// out\n        /* \"#utility.yul\":7279:7397   */\n    tag_352:\n        /* \"#utility.yul\":7366:7390   */\n      tag_471\n        /* \"#utility.yul\":7384:7389   */\n      dup2\n        /* \"#utility.yul\":7366:7390   */\n      tag_337\n      jump\t// in\n    tag_471:\n        /* \"#utility.yul\":7361:7364   */\n      dup3\n        /* \"#utility.yul\":7354:7391   */\n      mstore\n        /* \"#utility.yul\":7279:7397   */\n      pop\n      pop\n      jump\t// out\n        /* \"#utility.yul\":7403:7956   */\n    tag_53:\n        /* \"#utility.yul\":7580:7584   */\n      0x00\n        /* \"#utility.yul\":7618:7621   */\n      0x80\n        /* \"#utility.yul\":7607:7616   */\n      dup3\n        /* \"#utility.yul\":7603:7622   */\n      add\n        /* \"#utility.yul\":7595:7622   */\n      swap1\n      pop\n        /* \"#utility.yul\":7632:7703   */\n      tag_473\n        /* \"#utility.yul\":7700:7701   */\n      0x00\n        /* \"#utility.yul\":7689:7698   */\n      dup4\n        /* \"#utility.yul\":7685:7702   */\n      add\n        /* \"#utility.yul\":7676:7682   */\n      dup8\n        /* \"#utility.yul\":7632:7703   */\n      tag_351\n      jump\t// in\n    tag_473:\n        /* \"#utility.yul\":7713:7785   */\n      tag_474\n        /* \"#utility.yul\":7781:7783   */\n      0x20\n        /* \"#utility.yul\":7770:7779   */\n      dup4\n        /* \"#utility.yul\":7766:7784   */\n      add\n        /* \"#utility.yul\":7757:7763   */\n      dup7\n        /* \"#utility.yul\":7713:7785   */\n      tag_351\n      jump\t// in\n    tag_474:\n        /* \"#utility.yul\":7795:7867   */\n      tag_475\n        /* \"#utility.yul\":7863:7865   */\n      0x40\n        /* \"#utility.yul\":7852:7861   */\n      dup4\n        /* \"#utility.yul\":7848:7866   */\n      add\n        /* \"#utility.yul\":7839:7845   */\n      dup6\n        /* \"#utility.yul\":7795:7867   */\n      tag_352\n      jump\t// in\n    tag_475:\n        /* \"#utility.yul\":7877:7949   */\n      tag_476\n        /* \"#utility.yul\":7945:7947   */\n      0x60\n        /* \"#utility.yul\":7934:7943   */\n      dup4\n        /* \"#utility.yul\":7930:7948   */\n      add\n        /* \"#utility.yul\":7921:7927   */\n      dup5\n        /* \"#utility.yul\":7877:7949   */\n      tag_351\n      jump\t// in\n    tag_476:\n        /* \"#utility.yul\":7403:7956   */\n      swap6\n      swap5\n      pop\n      pop\n      pop\n      pop\n      pop\n      jump\t// out\n        /* \"#utility.yul\":7962:8291   */\n    tag_59:\n        /* \"#utility.yul\":8021:8027   */\n      0x00\n        /* \"#utility.yul\":8070:8072   */\n      0x20\n        /* \"#utility.yul\":8058:8067   */\n      dup3\n        /* \"#utility.yul\":8049:8056   */\n      dup5\n        /* \"#utility.yul\":8045:8068   */\n      sub\n        /* \"#utility.yul\":8041:8073   */\n      slt\n        /* \"#utility.yul\":8038:8157   */\n      iszero\n      tag_478\n      jumpi\n        /* \"#utility.yul\":8076:8155   */\n      tag_479\n      tag_326\n      jump\t// in\n    tag_479:\n        /* \"#utility.yul\":8038:8157   */\n    tag_478:\n        /* \"#utility.yul\":8196:8197   */\n      0x00\n        /* \"#utility.yul\":8221:8274   */\n      tag_480\n        /* \"#utility.yul\":8266:8273   */\n      dup5\n        /* \"#utility.yul\":8257:8263   */\n      dup3\n        /* \"#utility.yul\":8246:8255   */\n      dup6\n        /* \"#utility.yul\":8242:8264   */\n      add\n        /* \"#utility.yul\":8221:8274   */\n      tag_339\n      jump\t// in\n    tag_480:\n        /* \"#utility.yul\":8211:8274   */\n      swap2\n      pop\n        /* \"#utility.yul\":8167:8284   */\n      pop\n        /* \"#utility.yul\":7962:8291   */\n      swap3\n      swap2\n      pop\n      pop\n      jump\t// out\n        /* \"#utility.yul\":8297:8720   */\n    tag_62:\n        /* \"#utility.yul\":8438:8442   */\n      0x00\n        /* \"#utility.yul\":8476:8478   */\n      0x40\n        /* \"#utility.yul\":8465:8474   */\n      dup3\n        /* \"#utility.yul\":8461:8479   */\n      add\n        /* \"#utility.yul\":8453:8479   */\n      swap1\n      pop\n        /* \"#utility.yul\":8489:8560   */\n      tag_482\n        /* \"#utility.yul\":8557:8558   */\n      0x00\n        /* \"#utility.yul\":8546:8555   */\n      dup4\n        /* \"#utility.yul\":8542:8559   */\n      add\n        /* \"#utility.yul\":8533:8539   */\n      dup6\n        /* \"#utility.yul\":8489:8560   */\n      tag_352\n      jump\t// in\n    tag_482:\n        /* \"#utility.yul\":8607:8616   */\n      dup2\n        /* \"#utility.yul\":8601:8605   */\n      dup2\n        /* \"#utility.yul\":8597:8617   */\n      sub\n        /* \"#utility.yul\":8592:8594   */\n      0x20\n        /* \"#utility.yul\":8581:8590   */\n      dup4\n        /* \"#utility.yul\":8577:8595   */\n      add\n        /* \"#utility.yul\":8570:8618   */\n      mstore\n        /* \"#utility.yul\":8635:8713   */\n      tag_483\n        /* \"#utility.yul\":8708:8712   */\n      dup2\n        /* \"#utility.yul\":8699:8705   */\n      dup5\n        /* \"#utility.yul\":8635:8713   */\n      tag_335\n      jump\t// in\n    tag_483:\n        /* \"#utility.yul\":8627:8713   */\n      swap1\n      pop\n        /* \"#utility.yul\":8297:8720   */\n      swap4\n      swap3\n      pop\n      pop\n      pop\n      jump\t// out\n        /* \"#utility.yul\":8726:9345   */\n    tag_65:\n        /* \"#utility.yul\":8803:8809   */\n      0x00\n        /* \"#utility.yul\":8811:8817   */\n      0x00\n        /* \"#utility.yul\":8819:8825   */\n      0x00\n        /* \"#utility.yul\":8868:8870   */\n      0x60\n        /* \"#utility.yul\":8856:8865   */\n      dup5\n        /* \"#utility.yul\":8847:8854   */\n      dup7\n        /* \"#utility.yul\":8843:8866   */\n      sub\n        /* \"#utility.yul\":8839:8871   */\n      slt\n        /* \"#utility.yul\":8836:8955   */\n      iszero\n      tag_485\n      jumpi\n        /* \"#utility.yul\":8874:8953   */\n      tag_486\n      tag_326\n      jump\t// in\n    tag_486:\n        /* \"#utility.yul\":8836:8955   */\n    tag_485:\n        /* \"#utility.yul\":8994:8995   */\n      0x00\n        /* \"#utility.yul\":9019:9072   */\n      tag_487\n        /* \"#utility.yul\":9064:9071   */\n      dup7\n        /* \"#utility.yul\":9055:9061   */\n      dup3\n        /* \"#utility.yul\":9044:9053   */\n      dup8\n        /* \"#utility.yul\":9040:9062   */\n      add\n        /* \"#utility.yul\":9019:9072   */\n      tag_339\n      jump\t// in\n    tag_487:\n        /* \"#utility.yul\":9009:9072   */\n      swap4\n      pop\n        /* \"#utility.yul\":8965:9082   */\n      pop\n        /* \"#utility.yul\":9121:9123   */\n      0x20\n        /* \"#utility.yul\":9147:9200   */\n      tag_488\n        /* \"#utility.yul\":9192:9199   */\n      dup7\n        /* \"#utility.yul\":9183:9189   */\n      dup3\n        /* \"#utility.yul\":9172:9181   */\n      dup8\n        /* \"#utility.yul\":9168:9190   */\n      add\n        /* \"#utility.yul\":9147:9200   */\n      tag_339\n      jump\t// in\n    tag_488:\n        /* \"#utility.yul\":9137:9200   */\n      swap3\n      pop\n        /* \"#utility.yul\":9092:9210   */\n      pop\n        /* \"#utility.yul\":9249:9251   */\n      0x40\n        /* \"#utility.yul\":9275:9328   */\n      tag_489\n        /* \"#utility.yul\":9320:9327   */\n      dup7\n        /* \"#utility.yul\":9311:9317   */\n      dup3\n        /* \"#utility.yul\":9300:9309   */\n      dup8\n        /* \"#utility.yul\":9296:9318   */\n      add\n        /* \"#utility.yul\":9275:9328   */\n      tag_330\n      jump\t// in\n    tag_489:\n        /* \"#utility.yul\":9265:9328   */\n      swap2\n      pop\n        /* \"#utility.yul\":9220:9338   */\n      pop\n        /* \"#utility.yul\":8726:9345   */\n      swap3\n      pop\n      swap3\n      pop\n      swap3\n      jump\t// out\n        /* \"#utility.yul\":9351:9437   */\n    tag_353:\n        /* \"#utility.yul\":9386:9393   */\n      0x00\n        /* \"#utility.yul\":9426:9430   */\n      0xff\n        /* \"#utility.yul\":9419:9424   */\n      dup3\n        /* \"#utility.yul\":9415:9431   */\n      and\n        /* \"#utility.yul\":9404:9431   */\n      swap1\n      pop\n        /* \"#utility.yul\":9351:9437   */\n      swap2\n      swap1\n      pop\n      jump\t// out\n        /* \"#utility.yul\":9443:9555   */\n    tag_354:\n        /* \"#utility.yul\":9526:9548   */\n      tag_492\n        /* \"#utility.yul\":9542:9547   */\n      dup2\n        /* \"#utility.yul\":9526:9548   */\n      tag_353\n      jump\t// in\n    tag_492:\n        /* \"#utility.yul\":9521:9524   */\n      dup3\n        /* \"#utility.yul\":9514:9549   */\n      mstore\n        /* \"#utility.yul\":9443:9555   */\n      pop\n      pop\n      jump\t// out\n        /* \"#utility.yul\":9561:9775   */\n    tag_71:\n        /* \"#utility.yul\":9650:9654   */\n      0x00\n        /* \"#utility.yul\":9688:9690   */\n      0x20\n        /* \"#utility.yul\":9677:9686   */\n      dup3\n        /* \"#utility.yul\":9673:9691   */\n      add\n        /* \"#utility.yul\":9665:9691   */\n      swap1\n      pop\n        /* \"#utility.yul\":9701:9768   */\n      tag_494\n        /* \"#utility.yul\":9765:9766   */\n      0x00\n        /* \"#utility.yul\":9754:9763   */\n      dup4\n        /* \"#utility.yul\":9750:9767   */\n      add\n        /* \"#utility.yul\":9741:9747   */\n      dup5\n        /* \"#utility.yul\":9701:9768   */\n      tag_354\n      jump\t// in\n    tag_494:\n        /* \"#utility.yul\":9561:9775   */\n      swap3\n      swap2\n      pop\n      pop\n      jump\t// out\n        /* \"#utility.yul\":9781:10255   */\n    tag_78:\n        /* \"#utility.yul\":9849:9855   */\n      0x00\n        /* \"#utility.yul\":9857:9863   */\n      0x00\n        /* \"#utility.yul\":9906:9908   */\n      0x40\n        /* \"#utility.yul\":9894:9903   */\n      dup4\n        /* \"#utility.yul\":9885:9892   */\n      dup6\n        /* \"#utility.yul\":9881:9904   */\n      sub\n        /* \"#utility.yul\":9877:9909   */\n      slt\n        /* \"#utility.yul\":9874:9993   */\n      iszero\n      tag_496\n      jumpi\n        /* \"#utility.yul\":9912:9991   */\n      tag_497\n      tag_326\n      jump\t// in\n    tag_497:\n        /* \"#utility.yul\":9874:9993   */\n    tag_496:\n        /* \"#utility.yul\":10032:10033   */\n      0x00\n        /* \"#utility.yul\":10057:10110   */\n      tag_498\n        /* \"#utility.yul\":10102:10109   */\n      dup6\n        /* \"#utility.yul\":10093:10099   */\n      dup3\n        /* \"#utility.yul\":10082:10091   */\n      dup7\n        /* \"#utility.yul\":10078:10100   */\n      add\n        /* \"#utility.yul\":10057:10110   */\n      tag_330\n      jump\t// in\n    tag_498:\n        /* \"#utility.yul\":10047:10110   */\n      swap3\n      pop\n        /* \"#utility.yul\":10003:10120   */\n      pop\n        /* \"#utility.yul\":10159:10161   */\n      0x20\n        /* \"#utility.yul\":10185:10238   */\n      tag_499\n        /* \"#utility.yul\":10230:10237   */\n      dup6\n        /* \"#utility.yul\":10221:10227   */\n      dup3\n        /* \"#utility.yul\":10210:10219   */\n      dup7\n        /* \"#utility.yul\":10206:10228   */\n      add\n        /* \"#utility.yul\":10185:10238   */\n      tag_330\n      jump\t// in\n    tag_499:\n        /* \"#utility.yul\":10175:10238   */\n      swap2\n      pop\n        /* \"#utility.yul\":10130:10248   */\n      pop\n        /* \"#utility.yul\":9781:10255   */\n      swap3\n      pop\n      swap3\n      swap1\n      pop\n      jump\t// out\n        /* \"#utility.yul\":10261:10483   */\n    tag_88:\n        /* \"#utility.yul\":10354:10358   */\n      0x00\n        /* \"#utility.yul\":10392:10394   */\n      0x20\n        /* \"#utility.yul\":10381:10390   */\n      dup3\n        /* \"#utility.yul\":10377:10395   */\n      add\n        /* \"#utility.yul\":10369:10395   */\n      swap1\n      pop\n        /* \"#utility.yul\":10405:10476   */\n      tag_501\n        /* \"#utility.yul\":10473:10474   */\n      0x00\n        /* \"#utility.yul\":10462:10471   */\n      dup4\n        /* \"#utility.yul\":10458:10475   */\n      add\n        /* \"#utility.yul\":10449:10455   */\n      dup5\n        /* \"#utility.yul\":10405:10476   */\n      tag_352\n      jump\t// in\n    tag_501:\n        /* \"#utility.yul\":10261:10483   */\n      swap3\n      swap2\n      pop\n      pop\n      jump\t// out\n        /* \"#utility.yul\":10489:10912   */\n    tag_108:\n        /* \"#utility.yul\":10630:10634   */\n      0x00\n        /* \"#utility.yul\":10668:10670   */\n      0x40\n        /* \"#utility.yul\":10657:10666   */\n      dup3\n        /* \"#utility.yul\":10653:10671   */\n      add\n        /* \"#utility.yul\":10645:10671   */\n      swap1\n      pop\n        /* \"#utility.yul\":10681:10752   */\n      tag_503\n        /* \"#utility.yul\":10749:10750   */\n      0x00\n        /* \"#utility.yul\":10738:10747   */\n      dup4\n        /* \"#utility.yul\":10734:10751   */\n      add\n        /* \"#utility.yul\":10725:10731   */\n      dup6\n        /* \"#utility.yul\":10681:10752   */\n      tag_351\n      jump\t// in\n    tag_503:\n        /* \"#utility.yul\":10799:10808   */\n      dup2\n        /* \"#utility.yul\":10793:10797   */\n      dup2\n        /* \"#utility.yul\":10789:10809   */\n      sub\n        /* \"#utility.yul\":10784:10786   */\n      0x20\n        /* \"#utility.yul\":10773:10782   */\n      dup4\n        /* \"#utility.yul\":10769:10787   */\n      add\n        /* \"#utility.yul\":10762:10810   */\n      mstore\n        /* \"#utility.yul\":10827:10905   */\n      tag_504\n        /* \"#utility.yul\":10900:10904   */\n      dup2\n        /* \"#utility.yul\":10891:10897   */\n      dup5\n        /* \"#utility.yul\":10827:10905   */\n      tag_335\n      jump\t// in\n    tag_504:\n        /* \"#utility.yul\":10819:10905   */\n      swap1\n      pop\n        /* \"#utility.yul\":10489:10912   */\n      swap4\n      swap3\n      pop\n      pop\n      pop\n      jump\t// out\n        /* \"#utility.yul\":10918:11392   */\n    tag_111:\n        /* \"#utility.yul\":10986:10992   */\n      0x00\n        /* \"#utility.yul\":10994:11000   */\n      0x00\n        /* \"#utility.yul\":11043:11045   */\n      0x40\n        /* \"#utility.yul\":11031:11040   */\n      dup4\n        /* \"#utility.yul\":11022:11029   */\n      dup6\n        /* \"#utility.yul\":11018:11041   */\n      sub\n        /* \"#utility.yul\":11014:11046   */\n      slt\n        /* \"#utility.yul\":11011:11130   */\n      iszero\n      tag_506\n      jumpi\n        /* \"#utility.yul\":11049:11128   */\n      tag_507\n      tag_326\n      jump\t// in\n    tag_507:\n        /* \"#utility.yul\":11011:11130   */\n    tag_506:\n        /* \"#utility.yul\":11169:11170   */\n      0x00\n        /* \"#utility.yul\":11194:11247   */\n      tag_508\n        /* \"#utility.yul\":11239:11246   */\n      dup6\n        /* \"#utility.yul\":11230:11236   */\n      dup3\n        /* \"#utility.yul\":11219:11228   */\n      dup7\n        /* \"#utility.yul\":11215:11237   */\n      add\n        /* \"#utility.yul\":11194:11247   */\n      tag_339\n      jump\t// in\n    tag_508:\n        /* \"#utility.yul\":11184:11247   */\n      swap3\n      pop\n        /* \"#utility.yul\":11140:11257   */\n      pop\n        /* \"#utility.yul\":11296:11298   */\n      0x20\n        /* \"#utility.yul\":11322:11375   */\n      tag_509\n        /* \"#utility.yul\":11367:11374   */\n      dup6\n        /* \"#utility.yul\":11358:11364   */\n      dup3\n        /* \"#utility.yul\":11347:11356   */\n      dup7\n        /* \"#utility.yul\":11343:11365   */\n      add\n        /* \"#utility.yul\":11322:11375   */\n      tag_339\n      jump\t// in\n    tag_509:\n        /* \"#utility.yul\":11312:11375   */\n      swap2\n      pop\n        /* \"#utility.yul\":11267:11385   */\n      pop\n        /* \"#utility.yul\":10918:11392   */\n      swap3\n      pop\n      swap3\n      swap1\n      pop\n      jump\t// out\n        /* \"#utility.yul\":11398:11579   */\n    tag_355:\n        /* \"#utility.yul\":11538:11571   */\n      0x536f6d656e7465206a757261646f7320706f64656d2072656769737472617200\n        /* \"#utility.yul\":11534:11535   */\n      0x00\n        /* \"#utility.yul\":11526:11532   */\n      dup3\n        /* \"#utility.yul\":11522:11536   */\n      add\n        /* \"#utility.yul\":11515:11572   */\n      mstore\n        /* \"#utility.yul\":11398:11579   */\n      pop\n      jump\t// out\n        /* \"#utility.yul\":11585:11951   */\n    tag_356:\n        /* \"#utility.yul\":11727:11730   */\n      0x00\n        /* \"#utility.yul\":11748:11815   */\n      tag_512\n        /* \"#utility.yul\":11812:11814   */\n      0x1f\n        /* \"#utility.yul\":11807:11810   */\n      dup4\n        /* \"#utility.yul\":11748:11815   */\n      tag_332\n      jump\t// in\n    tag_512:\n        /* \"#utility.yul\":11741:11815   */\n      swap2\n      pop\n        /* \"#utility.yul\":11824:11917   */\n      tag_513\n        /* \"#utility.yul\":11913:11916   */\n      dup3\n        /* \"#utility.yul\":11824:11917   */\n      tag_355\n      jump\t// in\n    tag_513:\n        /* \"#utility.yul\":11942:11944   */\n      0x20\n        /* \"#utility.yul\":11937:11940   */\n      dup3\n        /* \"#utility.yul\":11933:11945   */\n      add\n        /* \"#utility.yul\":11926:11945   */\n      swap1\n      pop\n        /* \"#utility.yul\":11585:11951   */\n      swap2\n      swap1\n      pop\n      jump\t// out\n        /* \"#utility.yul\":11957:12376   */\n    tag_127:\n        /* \"#utility.yul\":12123:12127   */\n      0x00\n        /* \"#utility.yul\":12161:12163   */\n      0x20\n        /* \"#utility.yul\":12150:12159   */\n      dup3\n        /* \"#utility.yul\":12146:12164   */\n      add\n        /* \"#utility.yul\":12138:12164   */\n      swap1\n      pop\n        /* \"#utility.yul\":12210:12219   */\n      dup2\n        /* \"#utility.yul\":12204:12208   */\n      dup2\n        /* \"#utility.yul\":12200:12220   */\n      sub\n        /* \"#utility.yul\":12196:12197   */\n      0x00\n        /* \"#utility.yul\":12185:12194   */\n      dup4\n        /* \"#utility.yul\":12181:12198   */\n      add\n        /* \"#utility.yul\":12174:12221   */\n      mstore\n        /* \"#utility.yul\":12238:12369   */\n      tag_515\n        /* \"#utility.yul\":12364:12368   */\n      dup2\n        /* \"#utility.yul\":12238:12369   */\n      tag_356\n      jump\t// in\n    tag_515:\n        /* \"#utility.yul\":12230:12369   */\n      swap1\n      pop\n        /* \"#utility.yul\":11957:12376   */\n      swap2\n      swap1\n      pop\n      jump\t// out\n        /* \"#utility.yul\":12382:12547   */\n    tag_357:\n        /* \"#utility.yul\":12522:12539   */\n      0x4e6f746120696d706f73736976656c0000000000000000000000000000000000\n        /* \"#utility.yul\":12518:12519   */\n      0x00\n        /* \"#utility.yul\":12510:12516   */\n      dup3\n        /* \"#utility.yul\":12506:12520   */\n      add\n        /* \"#utility.yul\":12499:12540   */\n      mstore\n        /* \"#utility.yul\":12382:12547   */\n      pop\n      jump\t// out\n        /* \"#utility.yul\":12553:12919   */\n    tag_358:\n        /* \"#utility.yul\":12695:12698   */\n      0x00\n        /* \"#utility.yul\":12716:12783   */\n      tag_518\n        /* \"#utility.yul\":12780:12782   */\n      0x0f\n        /* \"#utility.yul\":12775:12778   */\n      dup4\n        /* \"#utility.yul\":12716:12783   */\n      tag_332\n      jump\t// in\n    tag_518:\n        /* \"#utility.yul\":12709:12783   */\n      swap2\n      pop\n        /* \"#utility.yul\":12792:12885   */\n      tag_519\n        /* \"#utility.yul\":12881:12884   */\n      dup3\n        /* \"#utility.yul\":12792:12885   */\n      tag_357\n      jump\t// in\n    tag_519:\n        /* \"#utility.yul\":12910:12912   */\n      0x20\n        /* \"#utility.yul\":12905:12908   */\n      dup3\n        /* \"#utility.yul\":12901:12913   */\n      add\n        /* \"#utility.yul\":12894:12913   */\n      swap1\n      pop\n        /* \"#utility.yul\":12553:12919   */\n      swap2\n      swap1\n      pop\n      jump\t// out\n        /* \"#utility.yul\":12925:13344   */\n    tag_131:\n        /* \"#utility.yul\":13091:13095   */\n      0x00\n        /* \"#utility.yul\":13129:13131   */\n      0x20\n        /* \"#utility.yul\":13118:13127   */\n      dup3\n        /* \"#utility.yul\":13114:13132   */\n      add\n        /* \"#utility.yul\":13106:13132   */\n      swap1\n      pop\n        /* \"#utility.yul\":13178:13187   */\n      dup2\n        /* \"#utility.yul\":13172:13176   */\n      dup2\n        /* \"#utility.yul\":13168:13188   */\n      sub\n        /* \"#utility.yul\":13164:13165   */\n      0x00\n        /* \"#utility.yul\":13153:13162   */\n      dup4\n        /* \"#utility.yul\":13149:13166   */\n      add\n        /* \"#utility.yul\":13142:13189   */\n      mstore\n        /* \"#utility.yul\":13206:13337   */\n      tag_521\n        /* \"#utility.yul\":13332:13336   */\n      dup2\n        /* \"#utility.yul\":13206:13337   */\n      tag_358\n      jump\t// in\n    tag_521:\n        /* \"#utility.yul\":13198:13337   */\n      swap1\n      pop\n        /* \"#utility.yul\":12925:13344   */\n      swap2\n      swap1\n      pop\n      jump\t// out\n        /* \"#utility.yul\":13350:13530   */\n    tag_359:\n        /* \"#utility.yul\":13398:13475   */\n      0x4e487b7100000000000000000000000000000000000000000000000000000000\n        /* \"#utility.yul\":13395:13396   */\n      0x00\n        /* \"#utility.yul\":13388:13476   */\n      mstore\n        /* \"#utility.yul\":13495:13499   */\n      0x22\n        /* \"#utility.yul\":13492:13493   */\n      0x04\n        /* \"#utility.yul\":13485:13500   */\n      mstore\n        /* \"#utility.yul\":13519:13523   */\n      0x24\n        /* \"#utility.yul\":13516:13517   */\n      0x00\n        /* \"#utility.yul\":13509:13524   */\n      revert\n        /* \"#utility.yul\":13536:13856   */\n    tag_135:\n        /* \"#utility.yul\":13580:13586   */\n      0x00\n        /* \"#utility.yul\":13617:13618   */\n      0x02\n        /* \"#utility.yul\":13611:13615   */\n      dup3\n        /* \"#utility.yul\":13607:13619   */\n      div\n        /* \"#utility.yul\":13597:13619   */\n      swap1\n      pop\n        /* \"#utility.yul\":13664:13665   */\n      0x01\n        /* \"#utility.yul\":13658:13662   */\n      dup3\n        /* \"#utility.yul\":13654:13666   */\n      and\n        /* \"#utility.yul\":13685:13703   */\n      dup1\n        /* \"#utility.yul\":13675:13756   */\n      tag_524\n      jumpi\n        /* \"#utility.yul\":13741:13745   */\n      0x7f\n        /* \"#utility.yul\":13733:13739   */\n      dup3\n        /* \"#utility.yul\":13729:13746   */\n      and\n        /* \"#utility.yul\":13719:13746   */\n      swap2\n      pop\n        /* \"#utility.yul\":13675:13756   */\n    tag_524:\n        /* \"#utility.yul\":13803:13805   */\n      0x20\n        /* \"#utility.yul\":13795:13801   */\n      dup3\n        /* \"#utility.yul\":13792:13806   */\n      lt\n        /* \"#utility.yul\":13772:13790   */\n      dup2\n        /* \"#utility.yul\":13769:13807   */\n      sub\n        /* \"#utility.yul\":13766:13850   */\n      tag_525\n      jumpi\n        /* \"#utility.yul\":13822:13840   */\n      tag_526\n      tag_359\n      jump\t// in\n    tag_526:\n        /* \"#utility.yul\":13766:13850   */\n    tag_525:\n        /* \"#utility.yul\":13587:13856   */\n      pop\n        /* \"#utility.yul\":13536:13856   */\n      swap2\n      swap1\n      pop\n      jump\t// out\n        /* \"#utility.yul\":13862:14043   */\n    tag_360:\n        /* \"#utility.yul\":14002:14035   */\n      0x41636573736f20726573747269746f20616f2070726f70726965746172696f00\n        /* \"#utility.yul\":13998:13999   */\n      0x00\n        /* \"#utility.yul\":13990:13996   */\n      dup3\n        /* \"#utility.yul\":13986:14000   */\n      add\n        /* \"#utility.yul\":13979:14036   */\n      mstore\n        /* \"#utility.yul\":13862:14043   */\n      pop\n      jump\t// out\n        /* \"#utility.yul\":14049:14415   */\n    tag_361:\n        /* \"#utility.yul\":14191:14194   */\n      0x00\n        /* \"#utility.yul\":14212:14279   */\n      tag_529\n        /* \"#utility.yul\":14276:14278   */\n      0x1f\n        /* \"#utility.yul\":14271:14274   */\n      dup4\n        /* \"#utility.yul\":14212:14279   */\n      tag_332\n      jump\t// in\n    tag_529:\n        /* \"#utility.yul\":14205:14279   */\n      swap2\n      pop\n        /* \"#utility.yul\":14288:14381   */\n      tag_530\n        /* \"#utility.yul\":14377:14380   */\n      dup3\n        /* \"#utility.yul\":14288:14381   */\n      tag_360\n      jump\t// in\n    tag_530:\n        /* \"#utility.yul\":14406:14408   */\n      0x20\n        /* \"#utility.yul\":14401:14404   */\n      dup3\n        /* \"#utility.yul\":14397:14409   */\n      add\n        /* \"#utility.yul\":14390:14409   */\n      swap1\n      pop\n        /* \"#utility.yul\":14049:14415   */\n      swap2\n      swap1\n      pop\n      jump\t// out\n        /* \"#utility.yul\":14421:14840   */\n    tag_148:\n        /* \"#utility.yul\":14587:14591   */\n      0x00\n        /* \"#utility.yul\":14625:14627   */\n      0x20\n        /* \"#utility.yul\":14614:14623   */\n      dup3\n        /* \"#utility.yul\":14610:14628   */\n      add\n        /* \"#utility.yul\":14602:14628   */\n      swap1\n      pop\n        /* \"#utility.yul\":14674:14683   */\n      dup2\n        /* \"#utility.yul\":14668:14672   */\n      dup2\n        /* \"#utility.yul\":14664:14684   */\n      sub\n        /* \"#utility.yul\":14660:14661   */\n      0x00\n        /* \"#utility.yul\":14649:14658   */\n      dup4\n        /* \"#utility.yul\":14645:14662   */\n      add\n        /* \"#utility.yul\":14638:14685   */\n      mstore\n        /* \"#utility.yul\":14702:14833   */\n      tag_532\n        /* \"#utility.yul\":14828:14832   */\n      dup2\n        /* \"#utility.yul\":14702:14833   */\n      tag_361\n      jump\t// in\n    tag_532:\n        /* \"#utility.yul\":14694:14833   */\n      swap1\n      pop\n        /* \"#utility.yul\":14421:14840   */\n      swap2\n      swap1\n      pop\n      jump\t// out\n        /* \"#utility.yul\":14846:15025   */\n    tag_362:\n        /* \"#utility.yul\":14986:15017   */\n      0x5175616e746964616465206d6178696d61206465207175657369746f73000000\n        /* \"#utility.yul\":14982:14983   */\n      0x00\n        /* \"#utility.yul\":14974:14980   */\n      dup3\n        /* \"#utility.yul\":14970:14984   */\n      add\n        /* \"#utility.yul\":14963:15018   */\n      mstore\n        /* \"#utility.yul\":14846:15025   */\n      pop\n      jump\t// out\n        /* \"#utility.yul\":15031:15397   */\n    tag_363:\n        /* \"#utility.yul\":15173:15176   */\n      0x00\n        /* \"#utility.yul\":15194:15261   */\n      tag_535\n        /* \"#utility.yul\":15258:15260   */\n      0x1d\n        /* \"#utility.yul\":15253:15256   */\n      dup4\n        /* \"#utility.yul\":15194:15261   */\n      tag_332\n      jump\t// in\n    tag_535:\n        /* \"#utility.yul\":15187:15261   */\n      swap2\n      pop\n        /* \"#utility.yul\":15270:15363   */\n      tag_536\n        /* \"#utility.yul\":15359:15362   */\n      dup3\n        /* \"#utility.yul\":15270:15363   */\n      tag_362\n      jump\t// in\n    tag_536:\n        /* \"#utility.yul\":15388:15390   */\n      0x20\n        /* \"#utility.yul\":15383:15386   */\n      dup3\n        /* \"#utility.yul\":15379:15391   */\n      add\n        /* \"#utility.yul\":15372:15391   */\n      swap1\n      pop\n        /* \"#utility.yul\":15031:15397   */\n      swap2\n      swap1\n      pop\n      jump\t// out\n        /* \"#utility.yul\":15403:15822   */\n    tag_152:\n        /* \"#utility.yul\":15569:15573   */\n      0x00\n        /* \"#utility.yul\":15607:15609   */\n      0x20\n        /* \"#utility.yul\":15596:15605   */\n      dup3\n        /* \"#utility.yul\":15592:15610   */\n      add\n        /* \"#utility.yul\":15584:15610   */\n      swap1\n      pop\n        /* \"#utility.yul\":15656:15665   */\n      dup2\n        /* \"#utility.yul\":15650:15654   */\n      dup2\n        /* \"#utility.yul\":15646:15666   */\n      sub\n        /* \"#utility.yul\":15642:15643   */\n      0x00\n        /* \"#utility.yul\":15631:15640   */\n      dup4\n        /* \"#utility.yul\":15627:15644   */\n      add\n        /* \"#utility.yul\":15620:15667   */\n      mstore\n        /* \"#utility.yul\":15684:15815   */\n      tag_538\n        /* \"#utility.yul\":15810:15814   */\n      dup2\n        /* \"#utility.yul\":15684:15815   */\n      tag_363\n      jump\t// in\n    tag_538:\n        /* \"#utility.yul\":15676:15815   */\n      swap1\n      pop\n        /* \"#utility.yul\":15403:15822   */\n      swap2\n      swap1\n      pop\n      jump\t// out\n        /* \"#utility.yul\":15828:16008   */\n    tag_155:\n        /* \"#utility.yul\":15876:15953   */\n      0x4e487b7100000000000000000000000000000000000000000000000000000000\n        /* \"#utility.yul\":15873:15874   */\n      0x00\n        /* \"#utility.yul\":15866:15954   */\n      mstore\n        /* \"#utility.yul\":15973:15977   */\n      0x32\n        /* \"#utility.yul\":15970:15971   */\n      0x04\n        /* \"#utility.yul\":15963:15978   */\n      mstore\n        /* \"#utility.yul\":15997:16001   */\n      0x24\n        /* \"#utility.yul\":15994:15995   */\n      0x00\n        /* \"#utility.yul\":15987:16002   */\n      revert\n        /* \"#utility.yul\":16014:16155   */\n    tag_364:\n        /* \"#utility.yul\":16063:16067   */\n      0x00\n        /* \"#utility.yul\":16086:16089   */\n      dup2\n        /* \"#utility.yul\":16078:16089   */\n      swap1\n      pop\n        /* \"#utility.yul\":16109:16112   */\n      dup2\n        /* \"#utility.yul\":16106:16107   */\n      0x00\n        /* \"#utility.yul\":16099:16113   */\n      mstore\n        /* \"#utility.yul\":16143:16147   */\n      0x20\n        /* \"#utility.yul\":16140:16141   */\n      0x00\n        /* \"#utility.yul\":16130:16148   */\n      keccak256\n        /* \"#utility.yul\":16122:16148   */\n      swap1\n      pop\n        /* \"#utility.yul\":16014:16155   */\n      swap2\n      swap1\n      pop\n      jump\t// out\n        /* \"#utility.yul\":16161:16254   */\n    tag_365:\n        /* \"#utility.yul\":16198:16204   */\n      0x00\n        /* \"#utility.yul\":16245:16247   */\n      0x20\n        /* \"#utility.yul\":16240:16242   */\n      0x1f\n        /* \"#utility.yul\":16233:16238   */\n      dup4\n        /* \"#utility.yul\":16229:16243   */\n      add\n        /* \"#utility.yul\":16225:16248   */\n      div\n        /* \"#utility.yul\":16215:16248   */\n      swap1\n      pop\n        /* \"#utility.yul\":16161:16254   */\n      swap2\n      swap1\n      pop\n      jump\t// out\n        /* \"#utility.yul\":16260:16367   */\n    tag_366:\n        /* \"#utility.yul\":16304:16312   */\n      0x00\n        /* \"#utility.yul\":16354:16359   */\n      dup3\n        /* \"#utility.yul\":16348:16352   */\n      dup3\n        /* \"#utility.yul\":16344:16360   */\n      shl\n        /* \"#utility.yul\":16323:16360   */\n      swap1\n      pop\n        /* \"#utility.yul\":16260:16367   */\n      swap3\n      swap2\n      pop\n      pop\n      jump\t// out\n        /* \"#utility.yul\":16373:16766   */\n    tag_367:\n        /* \"#utility.yul\":16442:16448   */\n      0x00\n        /* \"#utility.yul\":16492:16493   */\n      0x08\n        /* \"#utility.yul\":16480:16490   */\n      dup4\n        /* \"#utility.yul\":16476:16494   */\n      mul\n        /* \"#utility.yul\":16515:16612   */\n      tag_544\n        /* \"#utility.yul\":16545:16611   */\n      0xffffffffffffffffffffffffffffffffffffffffffffffffffffffffffffffff\n        /* \"#utility.yul\":16534:16543   */\n      dup3\n        /* \"#utility.yul\":16515:16612   */\n      tag_366\n      jump\t// in\n    tag_544:\n        /* \"#utility.yul\":16633:16672   */\n      tag_545\n        /* \"#utility.yul\":16663:16671   */\n      dup7\n        /* \"#utility.yul\":16652:16661   */\n      dup4\n        /* \"#utility.yul\":16633:16672   */\n      tag_366\n      jump\t// in\n    tag_545:\n        /* \"#utility.yul\":16621:16672   */\n      swap6\n      pop\n        /* \"#utility.yul\":16705:16709   */\n      dup1\n        /* \"#utility.yul\":16701:16710   */\n      not\n        /* \"#utility.yul\":16694:16699   */\n      dup5\n        /* \"#utility.yul\":16690:16711   */\n      and\n        /* \"#utility.yul\":16681:16711   */\n      swap4\n      pop\n        /* \"#utility.yul\":16754:16758   */\n      dup1\n        /* \"#utility.yul\":16744:16752   */\n      dup7\n        /* \"#utility.yul\":16740:16759   */\n      and\n        /* \"#utility.yul\":16733:16738   */\n      dup5\n        /* \"#utility.yul\":16730:16760   */\n      or\n        /* \"#utility.yul\":16720:16760   */\n      swap3\n      pop\n        /* \"#utility.yul\":16449:16766   */\n      pop\n      pop\n        /* \"#utility.yul\":16373:16766   */\n      swap4\n      swap3\n      pop\n      pop\n      pop\n      jump\t// out\n        /* \"#utility.yul\":16772:16832   */\n    tag_368:\n        /* \"#utility.yul\":16800:16803   */\n      0x00\n        /* \"#utility.yul\":16821:16826   */\n      dup2\n        /* \"#utility.yul\":16814:16826   */\n      swap1\n      pop\n        /* \"#utility.yul\":16772:16832   */\n      swap2\n      swap1\n      pop\n      jump\t// out\n        /* \"#utility.yul\":16838:16980   */\n    tag_369:\n        /* \"#utility.yul\":16888:16897   */\n      0x00\n        /* \"#utility.yul\":16921:16974   */\n      tag_548\n        /* \"#utility.yul\":16939:16973   */\n      tag_549\n        /* \"#utility.yul\":16948:16972   */\n      tag_550\n        /* \"#utility.yul\":16966:16971   */\n      dup5\n        /* \"#utility.yul\":16948:16972   */\n      tag_328\n      jump\t// in\n    tag_550:\n        /* \"#utility.yul\":16939:16973   */\n      tag_368\n      jump\t// in\n    tag_549:\n        /* \"#utility.yul\":16921:16974   */\n      tag_328\n      jump\t// in\n    tag_548:\n        /* \"#utility.yul\":16908:16974   */\n      swap1\n      pop\n        /* \"#utility.yul\":16838:16980   */\n      swap2\n      swap1\n      pop\n      jump\t// out\n        /* \"#utility.yul\":16986:17061   */\n    tag_370:\n        /* \"#utility.yul\":17029:17032   */\n      0x00\n        /* \"#utility.yul\":17050:17055   */\n      dup2\n        /* \"#utility.yul\":17043:17055   */\n      swap1\n      pop\n        /* \"#utility.yul\":16986:17061   */\n      swap2\n      swap1\n      pop\n      jump\t// out\n        /* \"#utility.yul\":17067:17336   */\n    tag_371:\n        /* \"#utility.yul\":17177:17216   */\n      tag_553\n        /* \"#utility.yul\":17208:17215   */\n      dup4\n        /* \"#utility.yul\":17177:17216   */\n      tag_369\n      jump\t// in\n    tag_553:\n        /* \"#utility.yul\":17238:17329   */\n      tag_554\n        /* \"#utility.yul\":17287:17328   */\n      tag_555\n        /* \"#utility.yul\":17311:17327   */\n      dup3\n        /* \"#utility.yul\":17287:17328   */\n      tag_370\n      jump\t// in\n    tag_555:\n        /* \"#utility.yul\":17279:17285   */\n      dup5\n        /* \"#utility.yul\":17272:17276   */\n      dup5\n        /* \"#utility.yul\":17266:17277   */\n      sload\n        /* \"#utility.yul\":17238:17329   */\n      tag_367\n      jump\t// in\n    tag_554:\n        /* \"#utility.yul\":17232:17236   */\n      dup3\n        /* \"#utility.yul\":17225:17330   */\n      sstore\n        /* \"#utility.yul\":17143:17336   */\n      pop\n        /* \"#utility.yul\":17067:17336   */\n      pop\n      pop\n      pop\n      jump\t// out\n        /* \"#utility.yul\":17342:17415   */\n    tag_372:\n        /* \"#utility.yul\":17387:17390   */\n      0x00\n        /* \"#utility.yul\":17408:17409   */\n      0x00\n        /* \"#utility.yul\":17401:17409   */\n      swap1\n      pop\n        /* \"#utility.yul\":17342:17415   */\n      swap1\n      jump\t// out\n        /* \"#utility.yul\":17421:17610   */\n    tag_373:\n        /* \"#utility.yul\":17498:17530   */\n      tag_558\n      tag_372\n      jump\t// in\n    tag_558:\n        /* \"#utility.yul\":17539:17604   */\n      tag_559\n        /* \"#utility.yul\":17597:17603   */\n      dup2\n        /* \"#utility.yul\":17589:17595   */\n      dup5\n        /* \"#utility.yul\":17583:17587   */\n      dup5\n        /* \"#utility.yul\":17539:17604   */\n      tag_371\n      jump\t// in\n    tag_559:\n        /* \"#utility.yul\":17474:17610   */\n      pop\n        /* \"#utility.yul\":17421:17610   */\n      pop\n      pop\n      jump\t// out\n        /* \"#utility.yul\":17616:17802   */\n    tag_374:\n        /* \"#utility.yul\":17676:17796   */\n    tag_561:\n        /* \"#utility.yul\":17693:17696   */\n      dup2\n        /* \"#utility.yul\":17686:17691   */\n      dup2\n        /* \"#utility.yul\":17683:17697   */\n      lt\n        /* \"#utility.yul\":17676:17796   */\n      iszero\n      tag_563\n      jumpi\n        /* \"#utility.yul\":17747:17786   */\n      tag_564\n        /* \"#utility.yul\":17784:17785   */\n      0x00\n        /* \"#utility.yul\":17777:17782   */\n      dup3\n        /* \"#utility.yul\":17747:17786   */\n      tag_373\n      jump\t// in\n    tag_564:\n        /* \"#utility.yul\":17720:17721   */\n      0x01\n        /* \"#utility.yul\":17713:17718   */\n      dup2\n        /* \"#utility.yul\":17709:17722   */\n      add\n        /* \"#utility.yul\":17700:17722   */\n      swap1\n      pop\n        /* \"#utility.yul\":17676:17796   */\n      jump(tag_561)\n    tag_563:\n        /* \"#utility.yul\":17616:17802   */\n      pop\n      pop\n      jump\t// out\n        /* \"#utility.yul\":17808:18351   */\n    tag_375:\n        /* \"#utility.yul\":17909:17911   */\n      0x1f\n        /* \"#utility.yul\":17904:17907   */\n      dup3\n        /* \"#utility.yul\":17901:17912   */\n      gt\n        /* \"#utility.yul\":17898:18344   */\n      iszero\n      tag_566\n      jumpi\n        /* \"#utility.yul\":17943:17981   */\n      tag_567\n        /* \"#utility.yul\":17975:17980   */\n      dup2\n        /* \"#utility.yul\":17943:17981   */\n      tag_364\n      jump\t// in\n    tag_567:\n        /* \"#utility.yul\":18027:18056   */\n      tag_568\n        /* \"#utility.yul\":18045:18055   */\n      dup5\n        /* \"#utility.yul\":18027:18056   */\n      tag_365\n      jump\t// in\n    tag_568:\n        /* \"#utility.yul\":18017:18025   */\n      dup2\n        /* \"#utility.yul\":18013:18057   */\n      add\n        /* \"#utility.yul\":18210:18212   */\n      0x20\n        /* \"#utility.yul\":18198:18208   */\n      dup6\n        /* \"#utility.yul\":18195:18213   */\n      lt\n        /* \"#utility.yul\":18192:18241   */\n      iszero\n      tag_569\n      jumpi\n        /* \"#utility.yul\":18231:18239   */\n      dup2\n        /* \"#utility.yul\":18216:18239   */\n      swap1\n      pop\n        /* \"#utility.yul\":18192:18241   */\n    tag_569:\n        /* \"#utility.yul\":18254:18334   */\n      tag_570\n        /* \"#utility.yul\":18310:18332   */\n      tag_571\n        /* \"#utility.yul\":18328:18331   */\n      dup6\n        /* \"#utility.yul\":18310:18332   */\n      tag_365\n      jump\t// in\n    tag_571:\n        /* \"#utility.yul\":18300:18308   */\n      dup4\n        /* \"#utility.yul\":18296:18333   */\n      add\n        /* \"#utility.yul\":18283:18294   */\n      dup3\n        /* \"#utility.yul\":18254:18334   */\n      tag_374\n      jump\t// in\n    tag_570:\n        /* \"#utility.yul\":17913:18344   */\n      pop\n      pop\n        /* \"#utility.yul\":17898:18344   */\n    tag_566:\n        /* \"#utility.yul\":17808:18351   */\n      pop\n      pop\n      pop\n      jump\t// out\n        /* \"#utility.yul\":18357:18474   */\n    tag_376:\n        /* \"#utility.yul\":18411:18419   */\n      0x00\n        /* \"#utility.yul\":18461:18466   */\n      dup3\n        /* \"#utility.yul\":18455:18459   */\n      dup3\n        /* \"#utility.yul\":18451:18467   */\n      shr\n        /* \"#utility.yul\":18430:18467   */\n      swap1\n      pop\n        /* \"#utility.yul\":18357:18474   */\n      swap3\n      swap2\n      pop\n      pop\n      jump\t// out\n        /* \"#utility.yul\":18480:18649   */\n    tag_377:\n        /* \"#utility.yul\":18524:18530   */\n      0x00\n        /* \"#utility.yul\":18557:18608   */\n      tag_574\n        /* \"#utility.yul\":18605:18606   */\n      0x00\n        /* \"#utility.yul\":18601:18607   */\n      not\n        /* \"#utility.yul\":18593:18598   */\n      dup5\n        /* \"#utility.yul\":18590:18591   */\n      0x08\n        /* \"#utility.yul\":18586:18599   */\n      mul\n        /* \"#utility.yul\":18557:18608   */\n      tag_376\n      jump\t// in\n    tag_574:\n        /* \"#utility.yul\":18553:18609   */\n      not\n        /* \"#utility.yul\":18638:18642   */\n      dup1\n        /* \"#utility.yul\":18632:18636   */\n      dup4\n        /* \"#utility.yul\":18628:18643   */\n      and\n        /* \"#utility.yul\":18618:18643   */\n      swap2\n      pop\n        /* \"#utility.yul\":18531:18649   */\n      pop\n        /* \"#utility.yul\":18480:18649   */\n      swap3\n      swap2\n      pop\n      pop\n      jump\t// out\n        /* \"#utility.yul\":18654:18949   */\n    tag_378:\n        /* \"#utility.yul\":18730:18734   */\n      0x00\n        /* \"#utility.yul\":18876:18905   */\n      tag_576\n        /* \"#utility.yul\":18901:18904   */\n      dup4\n        /* \"#utility.yul\":18895:18899   */\n      dup4\n        /* \"#utility.yul\":18876:18905   */\n      tag_377\n      jump\t// in\n    tag_576:\n        /* \"#utility.yul\":18868:18905   */\n      swap2\n      pop\n        /* \"#utility.yul\":18938:18941   */\n      dup3\n        /* \"#utility.yul\":18935:18936   */\n      0x02\n        /* \"#utility.yul\":18931:18942   */\n      mul\n        /* \"#utility.yul\":18925:18929   */\n      dup3\n        /* \"#utility.yul\":18922:18943   */\n      or\n        /* \"#utility.yul\":18914:18943   */\n      swap1\n      pop\n        /* \"#utility.yul\":18654:18949   */\n      swap3\n      swap2\n      pop\n      pop\n      jump\t// out\n        /* \"#utility.yul\":18954:20349   */\n    tag_158:\n        /* \"#utility.yul\":19071:19108   */\n      tag_578\n        /* \"#utility.yul\":19104:19107   */\n      dup3\n        /* \"#utility.yul\":19071:19108   */\n      tag_331\n      jump\t// in\n    tag_578:\n        /* \"#utility.yul\":19173:19191   */\n      0xffffffffffffffff\n        /* \"#utility.yul\":19165:19171   */\n      dup2\n        /* \"#utility.yul\":19162:19192   */\n      gt\n        /* \"#utility.yul\":19159:19215   */\n      iszero\n      tag_579\n      jumpi\n        /* \"#utility.yul\":19195:19213   */\n      tag_580\n      tag_344\n      jump\t// in\n    tag_580:\n        /* \"#utility.yul\":19159:19215   */\n    tag_579:\n        /* \"#utility.yul\":19239:19277   */\n      tag_581\n        /* \"#utility.yul\":19271:19275   */\n      dup3\n        /* \"#utility.yul\":19265:19276   */\n      sload\n        /* \"#utility.yul\":19239:19277   */\n      tag_135\n      jump\t// in\n    tag_581:\n        /* \"#utility.yul\":19324:19391   */\n      tag_582\n        /* \"#utility.yul\":19384:19390   */\n      dup3\n        /* \"#utility.yul\":19376:19382   */\n      dup3\n        /* \"#utility.yul\":19370:19374   */\n      dup6\n        /* \"#utility.yul\":19324:19391   */\n      tag_375\n      jump\t// in\n    tag_582:\n        /* \"#utility.yul\":19418:19419   */\n      0x00\n        /* \"#utility.yul\":19442:19446   */\n      0x20\n        /* \"#utility.yul\":19429:19446   */\n      swap1\n      pop\n        /* \"#utility.yul\":19474:19476   */\n      0x1f\n        /* \"#utility.yul\":19466:19472   */\n      dup4\n        /* \"#utility.yul\":19463:19477   */\n      gt\n        /* \"#utility.yul\":19491:19492   */\n      0x01\n        /* \"#utility.yul\":19486:20104   */\n      dup2\n      eq\n      tag_584\n      jumpi\n        /* \"#utility.yul\":20148:20149   */\n      0x00\n        /* \"#utility.yul\":20165:20171   */\n      dup5\n        /* \"#utility.yul\":20162:20239   */\n      iszero\n      tag_585\n      jumpi\n        /* \"#utility.yul\":20214:20223   */\n      dup3\n        /* \"#utility.yul\":20209:20212   */\n      dup8\n        /* \"#utility.yul\":20205:20224   */\n      add\n        /* \"#utility.yul\":20199:20225   */\n      mload\n        /* \"#utility.yul\":20190:20225   */\n      swap1\n      pop\n        /* \"#utility.yul\":20162:20239   */\n    tag_585:\n        /* \"#utility.yul\":20265:20332   */\n      tag_586\n        /* \"#utility.yul\":20325:20331   */\n      dup6\n        /* \"#utility.yul\":20318:20323   */\n      dup3\n        /* \"#utility.yul\":20265:20332   */\n      tag_378\n      jump\t// in\n    tag_586:\n        /* \"#utility.yul\":20259:20263   */\n      dup7\n        /* \"#utility.yul\":20252:20333   */\n      sstore\n        /* \"#utility.yul\":20121:20343   */\n      pop\n        /* \"#utility.yul\":19456:20343   */\n      jump(tag_583)\n        /* \"#utility.yul\":19486:20104   */\n    tag_584:\n        /* \"#utility.yul\":19538:19542   */\n      0x1f\n        /* \"#utility.yul\":19534:19543   */\n      not\n        /* \"#utility.yul\":19526:19532   */\n      dup5\n        /* \"#utility.yul\":19522:19544   */\n      and\n        /* \"#utility.yul\":19572:19609   */\n      tag_587\n        /* \"#utility.yul\":19604:19608   */\n      dup7\n        /* \"#utility.yul\":19572:19609   */\n      tag_364\n      jump\t// in\n    tag_587:\n        /* \"#utility.yul\":19631:19632   */\n      0x00\n        /* \"#utility.yul\":19645:19853   */\n    tag_588:\n        /* \"#utility.yul\":19659:19666   */\n      dup3\n        /* \"#utility.yul\":19656:19657   */\n      dup2\n        /* \"#utility.yul\":19653:19667   */\n      lt\n        /* \"#utility.yul\":19645:19853   */\n      iszero\n      tag_590\n      jumpi\n        /* \"#utility.yul\":19738:19747   */\n      dup5\n        /* \"#utility.yul\":19733:19736   */\n      dup10\n        /* \"#utility.yul\":19729:19748   */\n      add\n        /* \"#utility.yul\":19723:19749   */\n      mload\n        /* \"#utility.yul\":19715:19721   */\n      dup3\n        /* \"#utility.yul\":19708:19750   */\n      sstore\n        /* \"#utility.yul\":19789:19790   */\n      0x01\n        /* \"#utility.yul\":19781:19787   */\n      dup3\n        /* \"#utility.yul\":19777:19791   */\n      add\n        /* \"#utility.yul\":19767:19791   */\n      swap2\n      pop\n        /* \"#utility.yul\":19836:19838   */\n      0x20\n        /* \"#utility.yul\":19825:19834   */\n      dup6\n        /* \"#utility.yul\":19821:19839   */\n      add\n        /* \"#utility.yul\":19808:19839   */\n      swap5\n      pop\n        /* \"#utility.yul\":19682:19686   */\n      0x20\n        /* \"#utility.yul\":19679:19680   */\n      dup2\n        /* \"#utility.yul\":19675:19687   */\n      add\n        /* \"#utility.yul\":19670:19687   */\n      swap1\n      pop\n        /* \"#utility.yul\":19645:19853   */\n      jump(tag_588)\n    tag_590:\n        /* \"#utility.yul\":19881:19887   */\n      dup7\n        /* \"#utility.yul\":19872:19879   */\n      dup4\n        /* \"#utility.yul\":19869:19888   */\n      lt\n        /* \"#utility.yul\":19866:20045   */\n      iszero\n      tag_591\n      jumpi\n        /* \"#utility.yul\":19939:19948   */\n      dup5\n        /* \"#utility.yul\":19934:19937   */\n      dup10\n        /* \"#utility.yul\":19930:19949   */\n      add\n        /* \"#utility.yul\":19924:19950   */\n      mload\n        /* \"#utility.yul\":19982:20030   */\n      tag_592\n        /* \"#utility.yul\":20024:20028   */\n      0x1f\n        /* \"#utility.yul\":20016:20022   */\n      dup10\n        /* \"#utility.yul\":20012:20029   */\n      and\n        /* \"#utility.yul\":20001:20010   */\n      dup3\n        /* \"#utility.yul\":19982:20030   */\n      tag_377\n      jump\t// in\n    tag_592:\n        /* \"#utility.yul\":19974:19980   */\n      dup4\n        /* \"#utility.yul\":19967:20031   */\n      sstore\n        /* \"#utility.yul\":19889:20045   */\n      pop\n        /* \"#utility.yul\":19866:20045   */\n    tag_591:\n        /* \"#utility.yul\":20091:20092   */\n      0x01\n        /* \"#utility.yul\":20087:20088   */\n      0x02\n        /* \"#utility.yul\":20079:20085   */\n      dup9\n        /* \"#utility.yul\":20075:20089   */\n      mul\n        /* \"#utility.yul\":20071:20093   */\n      add\n        /* \"#utility.yul\":20065:20069   */\n      dup9\n        /* \"#utility.yul\":20058:20094   */\n      sstore\n        /* \"#utility.yul\":19493:20104   */\n      pop\n      pop\n      pop\n        /* \"#utility.yul\":19456:20343   */\n    tag_583:\n      pop\n        /* \"#utility.yul\":19046:20349   */\n      pop\n      pop\n      pop\n        /* \"#utility.yul\":18954:20349   */\n      pop\n      pop\n      jump\t// out\n        /* \"#utility.yul\":20355:20535   */\n    tag_379:\n        /* \"#utility.yul\":20403:20480   */\n      0x4e487b7100000000000000000000000000000000000000000000000000000000\n        /* \"#utility.yul\":20400:20401   */\n      0x00\n        /* \"#utility.yul\":20393:20481   */\n      mstore\n        /* \"#utility.yul\":20500:20504   */\n      0x11\n        /* \"#utility.yul\":20497:20498   */\n      0x04\n        /* \"#utility.yul\":20490:20505   */\n      mstore\n        /* \"#utility.yul\":20524:20528   */\n      0x24\n        /* \"#utility.yul\":20521:20522   */\n      0x00\n        /* \"#utility.yul\":20514:20529   */\n      revert\n        /* \"#utility.yul\":20541:20774   */\n    tag_161:\n        /* \"#utility.yul\":20580:20583   */\n      0x00\n        /* \"#utility.yul\":20603:20627   */\n      tag_595\n        /* \"#utility.yul\":20621:20626   */\n      dup3\n        /* \"#utility.yul\":20603:20627   */\n      tag_328\n      jump\t// in\n    tag_595:\n        /* \"#utility.yul\":20594:20627   */\n      swap2\n      pop\n        /* \"#utility.yul\":20649:20715   */\n      0xffffffffffffffffffffffffffffffffffffffffffffffffffffffffffffffff\n        /* \"#utility.yul\":20642:20647   */\n      dup3\n        /* \"#utility.yul\":20639:20716   */\n      sub\n        /* \"#utility.yul\":20636:20739   */\n      tag_596\n      jumpi\n        /* \"#utility.yul\":20719:20737   */\n      tag_597\n      tag_379\n      jump\t// in\n    tag_597:\n        /* \"#utility.yul\":20636:20739   */\n    tag_596:\n        /* \"#utility.yul\":20766:20767   */\n      0x01\n        /* \"#utility.yul\":20759:20764   */\n      dup3\n        /* \"#utility.yul\":20755:20768   */\n      add\n        /* \"#utility.yul\":20748:20768   */\n      swap1\n      pop\n        /* \"#utility.yul\":20541:20774   */\n      swap2\n      swap1\n      pop\n      jump\t// out\n        /* \"#utility.yul\":20780:20974   */\n    tag_163:\n        /* \"#utility.yul\":20820:20824   */\n      0x00\n        /* \"#utility.yul\":20840:20860   */\n      tag_599\n        /* \"#utility.yul\":20858:20859   */\n      dup3\n        /* \"#utility.yul\":20840:20860   */\n      tag_328\n      jump\t// in\n    tag_599:\n        /* \"#utility.yul\":20835:20860   */\n      swap2\n      pop\n        /* \"#utility.yul\":20874:20894   */\n      tag_600\n        /* \"#utility.yul\":20892:20893   */\n      dup4\n        /* \"#utility.yul\":20874:20894   */\n      tag_328\n      jump\t// in\n    tag_600:\n        /* \"#utility.yul\":20869:20894   */\n      swap3\n      pop\n        /* \"#utility.yul\":20918:20919   */\n      dup3\n        /* \"#utility.yul\":20915:20916   */\n      dup3\n        /* \"#utility.yul\":20911:20920   */\n      sub\n        /* \"#utility.yul\":20903:20920   */\n      swap1\n      pop\n        /* \"#utility.yul\":20942:20943   */\n      dup2\n        /* \"#utility.yul\":20936:20940   */\n      dup2\n        /* \"#utility.yul\":20933:20944   */\n      gt\n        /* \"#utility.yul\":20930:20967   */\n      iszero\n      tag_601\n      jumpi\n        /* \"#utility.yul\":20947:20965   */\n      tag_602\n      tag_379\n      jump\t// in\n    tag_602:\n        /* \"#utility.yul\":20930:20967   */\n    tag_601:\n        /* \"#utility.yul\":20780:20974   */\n      swap3\n      swap2\n      pop\n      pop\n      jump\t// out\n        /* \"#utility.yul\":20980:21158   */\n    tag_380:\n        /* \"#utility.yul\":21120:21150   */\n      0x5175616e746964616465206d6178696d61206465206a757261646f7300000000\n        /* \"#utility.yul\":21116:21117   */\n      0x00\n        /* \"#utility.yul\":21108:21114   */\n      dup3\n        /* \"#utility.yul\":21104:21118   */\n      add\n        /* \"#utility.yul\":21097:21151   */\n      mstore\n        /* \"#utility.yul\":20980:21158   */\n      pop\n      jump\t// out\n        /* \"#utility.yul\":21164:21530   */\n    tag_381:\n        /* \"#utility.yul\":21306:21309   */\n      0x00\n        /* \"#utility.yul\":21327:21394   */\n      tag_605\n        /* \"#utility.yul\":21391:21393   */\n      0x1c\n        /* \"#utility.yul\":21386:21389   */\n      dup4\n        /* \"#utility.yul\":21327:21394   */\n      tag_332\n      jump\t// in\n    tag_605:\n        /* \"#utility.yul\":21320:21394   */\n      swap2\n      pop\n        /* \"#utility.yul\":21403:21496   */\n      tag_606\n        /* \"#utility.yul\":21492:21495   */\n      dup3\n        /* \"#utility.yul\":21403:21496   */\n      tag_380\n      jump\t// in\n    tag_606:\n        /* \"#utility.yul\":21521:21523   */\n      0x20\n        /* \"#utility.yul\":21516:21519   */\n      dup3\n        /* \"#utility.yul\":21512:21524   */\n      add\n        /* \"#utility.yul\":21505:21524   */\n      swap1\n      pop\n        /* \"#utility.yul\":21164:21530   */\n      swap2\n      swap1\n      pop\n      jump\t// out\n        /* \"#utility.yul\":21536:21955   */\n    tag_185:\n        /* \"#utility.yul\":21702:21706   */\n      0x00\n        /* \"#utility.yul\":21740:21742   */\n      0x20\n        /* \"#utility.yul\":21729:21738   */\n      dup3\n        /* \"#utility.yul\":21725:21743   */\n      add\n        /* \"#utility.yul\":21717:21743   */\n      swap1\n      pop\n        /* \"#utility.yul\":21789:21798   */\n      dup2\n        /* \"#utility.yul\":21783:21787   */\n      dup2\n        /* \"#utility.yul\":21779:21799   */\n      sub\n        /* \"#utility.yul\":21775:21776   */\n      0x00\n        /* \"#utility.yul\":21764:21773   */\n      dup4\n        /* \"#utility.yul\":21760:21777   */\n      add\n        /* \"#utility.yul\":21753:21800   */\n      mstore\n        /* \"#utility.yul\":21817:21948   */\n      tag_608\n        /* \"#utility.yul\":21943:21947   */\n      dup2\n        /* \"#utility.yul\":21817:21948   */\n      tag_381\n      jump\t// in\n    tag_608:\n        /* \"#utility.yul\":21809:21948   */\n      swap1\n      pop\n        /* \"#utility.yul\":21536:21955   */\n      swap2\n      swap1\n      pop\n      jump\t// out\n        /* \"#utility.yul\":21961:22130   */\n    tag_382:\n        /* \"#utility.yul\":22101:22122   */\n      0x4e6f7461206e616f20656e636f6e747261646100000000000000000000000000\n        /* \"#utility.yul\":22097:22098   */\n      0x00\n        /* \"#utility.yul\":22089:22095   */\n      dup3\n        /* \"#utility.yul\":22085:22099   */\n      add\n        /* \"#utility.yul\":22078:22123   */\n      mstore\n        /* \"#utility.yul\":21961:22130   */\n      pop\n      jump\t// out\n        /* \"#utility.yul\":22136:22502   */\n    tag_383:\n        /* \"#utility.yul\":22278:22281   */\n      0x00\n        /* \"#utility.yul\":22299:22366   */\n      tag_611\n        /* \"#utility.yul\":22363:22365   */\n      0x13\n        /* \"#utility.yul\":22358:22361   */\n      dup4\n        /* \"#utility.yul\":22299:22366   */\n      tag_332\n      jump\t// in\n    tag_611:\n        /* \"#utility.yul\":22292:22366   */\n      swap2\n      pop\n        /* \"#utility.yul\":22375:22468   */\n      tag_612\n        /* \"#utility.yul\":22464:22467   */\n      dup3\n        /* \"#utility.yul\":22375:22468   */\n      tag_382\n      jump\t// in\n    tag_612:\n        /* \"#utility.yul\":22493:22495   */\n      0x20\n        /* \"#utility.yul\":22488:22491   */\n      dup3\n        /* \"#utility.yul\":22484:22496   */\n      add\n        /* \"#utility.yul\":22477:22496   */\n      swap1\n      pop\n        /* \"#utility.yul\":22136:22502   */\n      swap2\n      swap1\n      pop\n      jump\t// out\n        /* \"#utility.yul\":22508:22927   */\n    tag_197:\n        /* \"#utility.yul\":22674:22678   */\n      0x00\n        /* \"#utility.yul\":22712:22714   */\n      0x20\n        /* \"#utility.yul\":22701:22710   */\n      dup3\n        /* \"#utility.yul\":22697:22715   */\n      add\n        /* \"#utility.yul\":22689:22715   */\n      swap1\n      pop\n        /* \"#utility.yul\":22761:22770   */\n      dup2\n        /* \"#utility.yul\":22755:22759   */\n      dup2\n        /* \"#utility.yul\":22751:22771   */\n      sub\n        /* \"#utility.yul\":22747:22748   */\n      0x00\n        /* \"#utility.yul\":22736:22745   */\n      dup4\n        /* \"#utility.yul\":22732:22749   */\n      add\n        /* \"#utility.yul\":22725:22772   */\n      mstore\n        /* \"#utility.yul\":22789:22920   */\n      tag_614\n        /* \"#utility.yul\":22915:22919   */\n      dup2\n        /* \"#utility.yul\":22789:22920   */\n      tag_383\n      jump\t// in\n    tag_614:\n        /* \"#utility.yul\":22781:22920   */\n      swap1\n      pop\n        /* \"#utility.yul\":22508:22927   */\n      swap2\n      swap1\n      pop\n      jump\t// out\n        /* \"#utility.yul\":22933:23111   */\n    tag_384:\n        /* \"#utility.yul\":23073:23103   */\n      0x5175616e746964616465206d6178696d61206465206573636f6c617300000000\n        /* \"#utility.yul\":23069:23070   */\n      0x00\n        /* \"#utility.yul\":23061:23067   */\n      dup3\n        /* \"#utility.yul\":23057:23071   */\n      add\n        /* \"#utility.yul\":23050:23104   */\n      mstore\n        /* \"#utility.yul\":22933:23111   */\n      pop\n      jump\t// out\n        /* \"#utility.yul\":23117:23483   */\n    tag_385:\n        /* \"#utility.yul\":23259:23262   */\n      0x00\n        /* \"#utility.yul\":23280:23347   */\n      tag_617\n        /* \"#utility.yul\":23344:23346   */\n      0x1c\n        /* \"#utility.yul\":23339:23342   */\n      dup4\n        /* \"#utility.yul\":23280:23347   */\n      tag_332\n      jump\t// in\n    tag_617:\n        /* \"#utility.yul\":23273:23347   */\n      swap2\n      pop\n        /* \"#utility.yul\":23356:23449   */\n      tag_618\n        /* \"#utility.yul\":23445:23448   */\n      dup3\n        /* \"#utility.yul\":23356:23449   */\n      tag_384\n      jump\t// in\n    tag_618:\n        /* \"#utility.yul\":23474:23476   */\n      0x20\n        /* \"#utility.yul\":23469:23472   */\n      dup3\n        /* \"#utility.yul\":23465:23477   */\n      add\n        /* \"#utility.yul\":23458:23477   */\n      swap1\n      pop\n        /* \"#utility.yul\":23117:23483   */\n      swap2\n      swap1\n      pop\n      jump\t// out\n        /* \"#utility.yul\":23489:23908   */\n    tag_214:\n        /* \"#utility.yul\":23655:23659   */\n      0x00\n        /* \"#utility.yul\":23693:23695   */\n      0x20\n        /* \"#utility.yul\":23682:23691   */\n      dup3\n        /* \"#utility.yul\":23678:23696   */\n      add\n        /* \"#utility.yul\":23670:23696   */\n      swap1\n      pop\n        /* \"#utility.yul\":23742:23751   */\n      dup2\n        /* \"#utility.yul\":23736:23740   */\n      dup2\n        /* \"#utility.yul\":23732:23752   */\n      sub\n        /* \"#utility.yul\":23728:23729   */\n      0x00\n        /* \"#utility.yul\":23717:23726   */\n      dup4\n        /* \"#utility.yul\":23713:23730   */\n      add\n        /* \"#utility.yul\":23706:23753   */\n      mstore\n        /* \"#utility.yul\":23770:23901   */\n      tag_620\n        /* \"#utility.yul\":23896:23900   */\n      dup2\n        /* \"#utility.yul\":23770:23901   */\n      tag_385\n      jump\t// in\n    tag_620:\n        /* \"#utility.yul\":23762:23901   */\n      swap1\n      pop\n        /* \"#utility.yul\":23489:23908   */\n      swap2\n      swap1\n      pop\n      jump\t// out\n        /* \"#utility.yul\":23914:24356   */\n    tag_271:\n        /* \"#utility.yul\":24063:24067   */\n      0x00\n        /* \"#utility.yul\":24101:24103   */\n      0x60\n        /* \"#utility.yul\":24090:24099   */\n      dup3\n        /* \"#utility.yul\":24086:24104   */\n      add\n        /* \"#utility.yul\":24078:24104   */\n      swap1\n      pop\n        /* \"#utility.yul\":24114:24185   */\n      tag_622\n        /* \"#utility.yul\":24182:24183   */\n      0x00\n        /* \"#utility.yul\":24171:24180   */\n      dup4\n        /* \"#utility.yul\":24167:24184   */\n      add\n        /* \"#utility.yul\":24158:24164   */\n      dup7\n        /* \"#utility.yul\":24114:24185   */\n      tag_352\n      jump\t// in\n    tag_622:\n        /* \"#utility.yul\":24195:24267   */\n      tag_623\n        /* \"#utility.yul\":24263:24265   */\n      0x20\n        /* \"#utility.yul\":24252:24261   */\n      dup4\n        /* \"#utility.yul\":24248:24266   */\n      add\n        /* \"#utility.yul\":24239:24245   */\n      dup6\n        /* \"#utility.yul\":24195:24267   */\n      tag_351\n      jump\t// in\n    tag_623:\n        /* \"#utility.yul\":24277:24349   */\n      tag_624\n        /* \"#utility.yul\":24345:24347   */\n      0x40\n        /* \"#utility.yul\":24334:24343   */\n      dup4\n        /* \"#utility.yul\":24330:24348   */\n      add\n        /* \"#utility.yul\":24321:24327   */\n      dup5\n        /* \"#utility.yul\":24277:24349   */\n      tag_351\n      jump\t// in\n    tag_624:\n        /* \"#utility.yul\":23914:24356   */\n      swap5\n      swap4\n      pop\n      pop\n      pop\n      pop\n      jump\t// out\n        /* \"#utility.yul\":24362:24553   */\n    tag_290:\n        /* \"#utility.yul\":24402:24405   */\n      0x00\n        /* \"#utility.yul\":24421:24441   */\n      tag_626\n        /* \"#utility.yul\":24439:24440   */\n      dup3\n        /* \"#utility.yul\":24421:24441   */\n      tag_328\n      jump\t// in\n    tag_626:\n        /* \"#utility.yul\":24416:24441   */\n      swap2\n      pop\n        /* \"#utility.yul\":24455:24475   */\n      tag_627\n        /* \"#utility.yul\":24473:24474   */\n      dup4\n        /* \"#utility.yul\":24455:24475   */\n      tag_328\n      jump\t// in\n    tag_627:\n        /* \"#utility.yul\":24450:24475   */\n      swap3\n      pop\n        /* \"#utility.yul\":24498:24499   */\n      dup3\n        /* \"#utility.yul\":24495:24496   */\n      dup3\n        /* \"#utility.yul\":24491:24500   */\n      add\n        /* \"#utility.yul\":24484:24500   */\n      swap1\n      pop\n        /* \"#utility.yul\":24519:24522   */\n      dup1\n        /* \"#utility.yul\":24516:24517   */\n      dup3\n        /* \"#utility.yul\":24513:24523   */\n      gt\n        /* \"#utility.yul\":24510:24546   */\n      iszero\n      tag_628\n      jumpi\n        /* \"#utility.yul\":24526:24544   */\n      tag_629\n      tag_379\n      jump\t// in\n    tag_629:\n        /* \"#utility.yul\":24510:24546   */\n    tag_628:\n        /* \"#utility.yul\":24362:24553   */\n      swap3\n      swap2\n      pop\n      pop\n      jump\t// out\n\n    auxdata: 0xa264697066735822122003492d433ed47031b5ee5a29aebc423077cb2f630ff2bc32f46ff4dd5af7a16e64736f6c634300081c0033\n}\n",
				"bytecode": {
					"linkReferences": {},
					"object": "60806040525f6081555f6082555f60835534801561001b575f5ffd5b506040518060400160405280600e81526020017f4361726e6176616c53636f7265730000000000000000000000000000000000008152506040518060400160405280600381526020017f43435300000000000000000000000000000000000000000000000000000000008152508160039081610097919061032c565b5080600490816100a7919061032c565b5050503360805f6101000a81548173ffffffffffffffffffffffffffffffffffffffff021916908373ffffffffffffffffffffffffffffffffffffffff1602179055506103fb565b5f81519050919050565b7f4e487b71000000000000000000000000000000000000000000000000000000005f52604160045260245ffd5b7f4e487b71000000000000000000000000000000000000000000000000000000005f52602260045260245ffd5b5f600282049050600182168061016a57607f821691505b60208210810361017d5761017c610126565b5b50919050565b5f819050815f5260205f209050919050565b5f6020601f8301049050919050565b5f82821b905092915050565b5f600883026101df7fffffffffffffffffffffffffffffffffffffffffffffffffffffffffffffffff826101a4565b6101e986836101a4565b95508019841693508086168417925050509392505050565b5f819050919050565b5f819050919050565b5f61022d61022861022384610201565b61020a565b610201565b9050919050565b5f819050919050565b61024683610213565b61025a61025282610234565b8484546101b0565b825550505050565b5f5f905090565b610271610262565b61027c81848461023d565b505050565b5b8181101561029f576102945f82610269565b600181019050610282565b5050565b601f8211156102e4576102b581610183565b6102be84610195565b810160208510156102cd578190505b6102e16102d985610195565b830182610281565b50505b505050565b5f82821c905092915050565b5f6103045f19846008026102e9565b1980831691505092915050565b5f61031c83836102f5565b9150826002028217905092915050565b610335826100ef565b67ffffffffffffffff81111561034e5761034d6100f9565b5b6103588254610153565b6103638282856102a3565b5f60209050601f831160018114610394575f8415610382578287015190505b61038c8582610311565b8655506103f3565b601f1984166103a286610183565b5f5b828110156103c9578489015182556001820191506020850194506020810190506103a4565b868310156103e657848901516103e2601f8916826102f5565b8355505b6001600288020188555050505b505050505050565b612926806104085f395ff3fe608060405234801561000f575f5ffd5b5060043610610140575f3560e01c806370a08231116100b6578063bb7b36711161007a578063bb7b3671146103dd578063d3dea54d1461040d578063dd62ed3e1461043e578063e2eae4db1461046e578063e49a39dc1461049f578063eb75e0b8146104a957610140565b806370a082311461030e5780638da5cb5b1461033e57806395d89b411461035c578063a9059cbb1461037a578063a916b987146103aa57610140565b806318160ddd1161010857806318160ddd146102115780631f12a0151461022f57806323b872dd14610260578063313ce567146102905780633bdff5ba146102ae57806366885744146102de57610140565b806305ae501e1461014457806306fdde0314610160578063095ea7b31461017e578063140b24f5146101ae578063162f17a9146101de575b5f5ffd5b61015e60048036038101906101599190611cad565b6104da565b005b61016861074c565b6040516101759190611d6d565b60405180910390f35b61019860048036038101906101939190611de7565b6107dc565b6040516101a59190611e3f565b60405180910390f35b6101c860048036038101906101c39190611f84565b6107fe565b6040516101d59190611fda565b60405180910390f35b6101f860048036038101906101f39190611ff3565b61098d565b604051610208949392919061202d565b60405180910390f35b6102196109e7565b6040516102269190611fda565b60405180910390f35b61024960048036038101906102449190612070565b6109f0565b60405161025792919061209b565b60405180910390f35b61027a600480360381019061027591906120c9565b610ab5565b6040516102879190611e3f565b60405180910390f35b610298610ae3565b6040516102a59190612134565b60405180910390f35b6102c860048036038101906102c39190611f84565b610aeb565b6040516102d59190611fda565b60405180910390f35b6102f860048036038101906102f3919061214d565b610da2565b6040516103059190611fda565b60405180910390f35b61032860048036038101906103239190612070565b610e34565b6040516103359190611fda565b60405180910390f35b610346610e79565b604051610353919061218b565b60405180910390f35b610364610e9e565b6040516103719190611d6d565b60405180910390f35b610394600480360381019061038f9190611de7565b610f2e565b6040516103a19190611e3f565b60405180910390f35b6103c460048036038101906103bf919061214d565b610f50565b6040516103d4949392919061202d565b60405180910390f35b6103f760048036038101906103f29190611f84565b610fa6565b6040516104049190611fda565b60405180910390f35b61042760048036038101906104229190611ff3565b611135565b6040516104359291906121a4565b60405180910390f35b610458600480360381019061045391906121d2565b6111e2565b6040516104659190611fda565b60405180910390f35b61048860048036038101906104839190611ff3565b611264565b60405161049692919061209b565b60405180910390f35b6104a7611330565b005b6104c360048036038101906104be9190611ff3565b61148a565b6040516104d19291906121a4565b60405180910390f35b3373ffffffffffffffffffffffffffffffffffffffff16607e5f3373ffffffffffffffffffffffffffffffffffffffff1673ffffffffffffffffffffffffffffffffffffffff1681526020019081526020015f205f015f9054906101000a900473ffffffffffffffffffffffffffffffffffffffff1673ffffffffffffffffffffffffffffffffffffffff16146105a6576040517f08c379a000000000000000000000000000000000000000000000000000000000815260040161059d9061225a565b60405180910390fd5b61038481101580156105ba57506103e88111155b6105f9576040517f08c379a00000000000000000000000000000000000000000000000000000000081526004016105f0906122c2565b60405180910390fd5b5f60405180608001604052808581526020018481526020013373ffffffffffffffffffffffffffffffffffffffff168152602001838152509050607d81908060018154018082558091505060019003905f5260205f2090600402015f909190919091505f820151815f0155602082015181600101556040820151816002015f6101000a81548173ffffffffffffffffffffffffffffffffffffffff021916908373ffffffffffffffffffffffffffffffffffffffff16021790555060608201518160030155505080607f5f8681526020019081526020015f205f8581526020019081526020015f205f820151815f0155602082015181600101556040820151816002015f6101000a81548173ffffffffffffffffffffffffffffffffffffffff021916908373ffffffffffffffffffffffffffffffffffffffff1602179055506060820151816003015590505050505050565b60606003805461075b9061230d565b80601f01602080910402602001604051908101604052809291908181526020018280546107879061230d565b80156107d25780601f106107a9576101008083540402835291602001916107d2565b820191905f5260205f20905b8154815290600101906020018083116107b557829003601f168201915b5050505050905090565b5f5f6107e6611537565b90506107f381858561153e565b600191505092915050565b5f60805f9054906101000a900473ffffffffffffffffffffffffffffffffffffffff1673ffffffffffffffffffffffffffffffffffffffff163373ffffffffffffffffffffffffffffffffffffffff161461088e576040517f08c379a000000000000000000000000000000000000000000000000000000000815260040161088590612387565b60405180910390fd5b6009608354106108d3576040517f08c379a00000000000000000000000000000000000000000000000000000000081526004016108ca906123ef565b60405180910390fd5b6040518060400160405280608354815260200183815250606b60835460098110610900576108ff61240d565b5b600202015f820151815f0155602082015181600101908161092191906125da565b509050507f2172c9b27bd3270f486343bab2b6782d3ae51304775fe33c8ea502c9fe2fccab608354836040516109589291906121a4565b60405180910390a160835f815480929190610972906126d6565b91905055506001608354610986919061271d565b9050919050565b607d818154811061099c575f80fd5b905f5260205f2090600402015f91509050805f015490806001015490806002015f9054906101000a900473ffffffffffffffffffffffffffffffffffffffff16908060030154905084565b5f600254905090565b607e602052805f5260405f205f91509050805f015f9054906101000a900473ffffffffffffffffffffffffffffffffffffffff1690806001018054610a349061230d565b80601f0160208091040260200160405190810160405280929190818152602001828054610a609061230d565b8015610aab5780601f10610a8257610100808354040283529160200191610aab565b820191905f5260205f20905b815481529060010190602001808311610a8e57829003601f168201915b5050505050905082565b5f5f610abf611537565b9050610acc858285611550565b610ad78585856115e2565b60019150509392505050565b5f6012905090565b5f60805f9054906101000a900473ffffffffffffffffffffffffffffffffffffffff1673ffffffffffffffffffffffffffffffffffffffff163373ffffffffffffffffffffffffffffffffffffffff1614610b7b576040517f08c379a0000000000000000000000000000000000000000000000000000000008152600401610b7290612387565b60405180910390fd5b602460815410610bc0576040517f08c379a0000000000000000000000000000000000000000000000000000000008152600401610bb79061279a565b60405180910390fd5b60405180604001604052803373ffffffffffffffffffffffffffffffffffffffff16815260200183815250607e5f3373ffffffffffffffffffffffffffffffffffffffff1673ffffffffffffffffffffffffffffffffffffffff1681526020019081526020015f205f820151815f015f6101000a81548173ffffffffffffffffffffffffffffffffffffffff021916908373ffffffffffffffffffffffffffffffffffffffff1602179055506020820151816001019081610c8191906125da565b5090505060405180604001604052803373ffffffffffffffffffffffffffffffffffffffff16815260200183815250600560815460248110610cc657610cc561240d565b5b600202015f820151815f015f6101000a81548173ffffffffffffffffffffffffffffffffffffffff021916908373ffffffffffffffffffffffffffffffffffffffff1602179055506020820151816001019081610d2391906125da565b5090505060815f815480929190610d39906126d6565b91905055503373ffffffffffffffffffffffffffffffffffffffff167fa1fb37ecddd4c220fd008a54a22fb96ce4db7248e0f4987e445259dc6e55188b83604051610d849190611d6d565b60405180910390a26001608154610d9b919061271d565b9050919050565b5f5f607f5f8581526020019081526020015f205f8481526020019081526020015f206003015411610e08576040517f08c379a0000000000000000000000000000000000000000000000000000000008152600401610dff90612802565b60405180910390fd5b607f5f8481526020019081526020015f205f8381526020019081526020015f2060030154905092915050565b5f5f5f8373ffffffffffffffffffffffffffffffffffffffff1673ffffffffffffffffffffffffffffffffffffffff1681526020019081526020015f20549050919050565b60805f9054906101000a900473ffffffffffffffffffffffffffffffffffffffff1681565b606060048054610ead9061230d565b80601f0160208091040260200160405190810160405280929190818152602001828054610ed99061230d565b8015610f245780601f10610efb57610100808354040283529160200191610f24565b820191905f5260205f20905b815481529060010190602001808311610f0757829003601f168201915b5050505050905090565b5f5f610f38611537565b9050610f458185856115e2565b600191505092915050565b607f602052815f5260405f20602052805f5260405f205f9150915050805f015490806001015490806002015f9054906101000a900473ffffffffffffffffffffffffffffffffffffffff16908060030154905084565b5f60805f9054906101000a900473ffffffffffffffffffffffffffffffffffffffff1673ffffffffffffffffffffffffffffffffffffffff163373ffffffffffffffffffffffffffffffffffffffff1614611036576040517f08c379a000000000000000000000000000000000000000000000000000000000815260040161102d90612387565b60405180910390fd5b600f6082541061107b576040517f08c379a00000000000000000000000000000000000000000000000000000000081526004016110729061286a565b60405180910390fd5b6040518060400160405280608254815260200183815250604d608254600f81106110a8576110a761240d565b5b600202015f820151815f015560208201518160010190816110c991906125da565b509050507f9f427c381dccc81dd341800d0c9110ab44cf34bfd696503341d2a57ab3f85d88608254836040516111009291906121a4565b60405180910390a160825f81548092919061111a906126d6565b9190505550600160825461112e919061271d565b9050919050565b604d81600f8110611144575f80fd5b600202015f91509050805f0154908060010180546111619061230d565b80601f016020809104026020016040519081016040528092919081815260200182805461118d9061230d565b80156111d85780601f106111af576101008083540402835291602001916111d8565b820191905f5260205f20905b8154815290600101906020018083116111bb57829003601f168201915b5050505050905082565b5f60015f8473ffffffffffffffffffffffffffffffffffffffff1673ffffffffffffffffffffffffffffffffffffffff1681526020019081526020015f205f8373ffffffffffffffffffffffffffffffffffffffff1673ffffffffffffffffffffffffffffffffffffffff1681526020019081526020015f2054905092915050565b60058160248110611273575f80fd5b600202015f91509050805f015f9054906101000a900473ffffffffffffffffffffffffffffffffffffffff16908060010180546112af9061230d565b80601f01602080910402602001604051908101604052809291908181526020018280546112db9061230d565b80156113265780601f106112fd57610100808354040283529160200191611326565b820191905f5260205f20905b81548152906001019060200180831161130957829003601f168201915b5050505050905082565b60805f9054906101000a900473ffffffffffffffffffffffffffffffffffffffff1673ffffffffffffffffffffffffffffffffffffffff163373ffffffffffffffffffffffffffffffffffffffff16146113bf576040517f08c379a00000000000000000000000000000000000000000000000000000000081526004016113b690612387565b60405180910390fd5b60055f6113cc9190611aba565b604d5f6113d99190611ad0565b606b5f6113e69190611ae6565b607d5f6113f39190611afc565b5f5f90505b600f811015611487575f5f90505b600981101561147957607f5f8381526020019081526020015f205f8281526020019081526020015f205f5f82015f9055600182015f9055600282015f6101000a81549073ffffffffffffffffffffffffffffffffffffffff0219169055600382015f905550508080600101915050611406565b5080806001019150506113f8565b50565b606b8160098110611499575f80fd5b600202015f91509050805f0154908060010180546114b69061230d565b80601f01602080910402602001604051908101604052809291908181526020018280546114e29061230d565b801561152d5780601f106115045761010080835404028352916020019161152d565b820191905f5260205f20905b81548152906001019060200180831161151057829003601f168201915b5050505050905082565b5f33905090565b61154b83838360016116d2565b505050565b5f61155b84846111e2565b90507fffffffffffffffffffffffffffffffffffffffffffffffffffffffffffffffff81146115dc57818110156115cd578281836040517ffb8f41b20000000000000000000000000000000000000000000000000000000081526004016115c493929190612888565b60405180910390fd5b6115db84848484035f6116d2565b5b50505050565b5f73ffffffffffffffffffffffffffffffffffffffff168373ffffffffffffffffffffffffffffffffffffffff1603611652575f6040517f96c6fd1e000000000000000000000000000000000000000000000000000000008152600401611649919061218b565b60405180910390fd5b5f73ffffffffffffffffffffffffffffffffffffffff168273ffffffffffffffffffffffffffffffffffffffff16036116c2575f6040517fec442f050000000000000000000000000000000000000000000000000000000081526004016116b9919061218b565b60405180910390fd5b6116cd8383836118a1565b505050565b5f73ffffffffffffffffffffffffffffffffffffffff168473ffffffffffffffffffffffffffffffffffffffff1603611742575f6040517fe602df05000000000000000000000000000000000000000000000000000000008152600401611739919061218b565b60405180910390fd5b5f73ffffffffffffffffffffffffffffffffffffffff168373ffffffffffffffffffffffffffffffffffffffff16036117b2575f6040517f94280d620000000000000000000000000000000000000000000000000000000081526004016117a9919061218b565b60405180910390fd5b8160015f8673ffffffffffffffffffffffffffffffffffffffff1673ffffffffffffffffffffffffffffffffffffffff1681526020019081526020015f205f8573ffffffffffffffffffffffffffffffffffffffff1673ffffffffffffffffffffffffffffffffffffffff1681526020019081526020015f2081905550801561189b578273ffffffffffffffffffffffffffffffffffffffff168473ffffffffffffffffffffffffffffffffffffffff167f8c5be1e5ebec7d5bd14f71427d1e84f3dd0314c0f7b2291e5b200ac8c7c3b925846040516118929190611fda565b60405180910390a35b50505050565b5f73ffffffffffffffffffffffffffffffffffffffff168373ffffffffffffffffffffffffffffffffffffffff16036118f1578060025f8282546118e591906128bd565b925050819055506119bf565b5f5f5f8573ffffffffffffffffffffffffffffffffffffffff1673ffffffffffffffffffffffffffffffffffffffff1681526020019081526020015f205490508181101561197a578381836040517fe450d38c00000000000000000000000000000000000000000000000000000000815260040161197193929190612888565b60405180910390fd5b8181035f5f8673ffffffffffffffffffffffffffffffffffffffff1673ffffffffffffffffffffffffffffffffffffffff1681526020019081526020015f2081905550505b5f73ffffffffffffffffffffffffffffffffffffffff168273ffffffffffffffffffffffffffffffffffffffff1603611a06578060025f8282540392505081905550611a50565b805f5f8473ffffffffffffffffffffffffffffffffffffffff1673ffffffffffffffffffffffffffffffffffffffff1681526020019081526020015f205f82825401925050819055505b8173ffffffffffffffffffffffffffffffffffffffff168373ffffffffffffffffffffffffffffffffffffffff167fddf252ad1be2c89b69c2b068fc378daa952ba7f163c4a11628f55a4df523b3ef83604051611aad9190611fda565b60405180910390a3505050565b508060246002020190611acd9190611b1d565b50565b5080600f6002020190611ae39190611b68565b50565b508060096002020190611af99190611b94565b50565b5080545f8255600402905f5260205f2090810190611b1a9190611bc0565b50565b5b80821115611b64575f5f82015f6101000a81549073ffffffffffffffffffffffffffffffffffffffff0219169055600182015f611b5b9190611c11565b50600201611b1e565b5090565b5b80821115611b90575f5f82015f9055600182015f611b879190611c11565b50600201611b69565b5090565b5b80821115611bbc575f5f82015f9055600182015f611bb39190611c11565b50600201611b95565b5090565b5b80821115611c0d575f5f82015f9055600182015f9055600282015f6101000a81549073ffffffffffffffffffffffffffffffffffffffff0219169055600382015f905550600401611bc1565b5090565b508054611c1d9061230d565b5f825580601f10611c2e5750611c4b565b601f0160209004905f5260205f2090810190611c4a9190611c4e565b5b50565b5b80821115611c65575f815f905550600101611c4f565b5090565b5f604051905090565b5f5ffd5b5f5ffd5b5f819050919050565b611c8c81611c7a565b8114611c96575f5ffd5b50565b5f81359050611ca781611c83565b92915050565b5f5f5f60608486031215611cc457611cc3611c72565b5b5f611cd186828701611c99565b9350506020611ce286828701611c99565b9250506040611cf386828701611c99565b9150509250925092565b5f81519050919050565b5f82825260208201905092915050565b8281835e5f83830152505050565b5f601f19601f8301169050919050565b5f611d3f82611cfd565b611d498185611d07565b9350611d59818560208601611d17565b611d6281611d25565b840191505092915050565b5f6020820190508181035f830152611d858184611d35565b905092915050565b5f73ffffffffffffffffffffffffffffffffffffffff82169050919050565b5f611db682611d8d565b9050919050565b611dc681611dac565b8114611dd0575f5ffd5b50565b5f81359050611de181611dbd565b92915050565b5f5f60408385031215611dfd57611dfc611c72565b5b5f611e0a85828601611dd3565b9250506020611e1b85828601611c99565b9150509250929050565b5f8115159050919050565b611e3981611e25565b82525050565b5f602082019050611e525f830184611e30565b92915050565b5f5ffd5b5f5ffd5b7f4e487b71000000000000000000000000000000000000000000000000000000005f52604160045260245ffd5b611e9682611d25565b810181811067ffffffffffffffff82111715611eb557611eb4611e60565b5b80604052505050565b5f611ec7611c69565b9050611ed38282611e8d565b919050565b5f67ffffffffffffffff821115611ef257611ef1611e60565b5b611efb82611d25565b9050602081019050919050565b828183375f83830152505050565b5f611f28611f2384611ed8565b611ebe565b905082815260208101848484011115611f4457611f43611e5c565b5b611f4f848285611f08565b509392505050565b5f82601f830112611f6b57611f6a611e58565b5b8135611f7b848260208601611f16565b91505092915050565b5f60208284031215611f9957611f98611c72565b5b5f82013567ffffffffffffffff811115611fb657611fb5611c76565b5b611fc284828501611f57565b91505092915050565b611fd481611c7a565b82525050565b5f602082019050611fed5f830184611fcb565b92915050565b5f6020828403121561200857612007611c72565b5b5f61201584828501611c99565b91505092915050565b61202781611dac565b82525050565b5f6080820190506120405f830187611fcb565b61204d6020830186611fcb565b61205a604083018561201e565b6120676060830184611fcb565b95945050505050565b5f6020828403121561208557612084611c72565b5b5f61209284828501611dd3565b91505092915050565b5f6040820190506120ae5f83018561201e565b81810360208301526120c08184611d35565b90509392505050565b5f5f5f606084860312156120e0576120df611c72565b5b5f6120ed86828701611dd3565b93505060206120fe86828701611dd3565b925050604061210f86828701611c99565b9150509250925092565b5f60ff82169050919050565b61212e81612119565b82525050565b5f6020820190506121475f830184612125565b92915050565b5f5f6040838503121561216357612162611c72565b5b5f61217085828601611c99565b925050602061218185828601611c99565b9150509250929050565b5f60208201905061219e5f83018461201e565b92915050565b5f6040820190506121b75f830185611fcb565b81810360208301526121c98184611d35565b90509392505050565b5f5f604083850312156121e8576121e7611c72565b5b5f6121f585828601611dd3565b925050602061220685828601611dd3565b9150509250929050565b7f536f6d656e7465206a757261646f7320706f64656d20726567697374726172005f82015250565b5f612244601f83611d07565b915061224f82612210565b602082019050919050565b5f6020820190508181035f83015261227181612238565b9050919050565b7f4e6f746120696d706f73736976656c00000000000000000000000000000000005f82015250565b5f6122ac600f83611d07565b91506122b782612278565b602082019050919050565b5f6020820190508181035f8301526122d9816122a0565b9050919050565b7f4e487b71000000000000000000000000000000000000000000000000000000005f52602260045260245ffd5b5f600282049050600182168061232457607f821691505b602082108103612337576123366122e0565b5b50919050565b7f41636573736f20726573747269746f20616f2070726f70726965746172696f005f82015250565b5f612371601f83611d07565b915061237c8261233d565b602082019050919050565b5f6020820190508181035f83015261239e81612365565b9050919050565b7f5175616e746964616465206d6178696d61206465207175657369746f730000005f82015250565b5f6123d9601d83611d07565b91506123e4826123a5565b602082019050919050565b5f6020820190508181035f830152612406816123cd565b9050919050565b7f4e487b71000000000000000000000000000000000000000000000000000000005f52603260045260245ffd5b5f819050815f5260205f209050919050565b5f6020601f8301049050919050565b5f82821b905092915050565b5f600883026124967fffffffffffffffffffffffffffffffffffffffffffffffffffffffffffffffff8261245b565b6124a0868361245b565b95508019841693508086168417925050509392505050565b5f819050919050565b5f6124db6124d66124d184611c7a565b6124b8565b611c7a565b9050919050565b5f819050919050565b6124f4836124c1565b612508612500826124e2565b848454612467565b825550505050565b5f5f905090565b61251f612510565b61252a8184846124eb565b505050565b5b8181101561254d576125425f82612517565b600181019050612530565b5050565b601f821115612592576125638161243a565b61256c8461244c565b8101602085101561257b578190505b61258f6125878561244c565b83018261252f565b50505b505050565b5f82821c905092915050565b5f6125b25f1984600802612597565b1980831691505092915050565b5f6125ca83836125a3565b9150826002028217905092915050565b6125e382611cfd565b67ffffffffffffffff8111156125fc576125fb611e60565b5b612606825461230d565b612611828285612551565b5f60209050601f831160018114612642575f8415612630578287015190505b61263a85826125bf565b8655506126a1565b601f1984166126508661243a565b5f5b8281101561267757848901518255600182019150602085019450602081019050612652565b868310156126945784890151612690601f8916826125a3565b8355505b6001600288020188555050505b505050505050565b7f4e487b71000000000000000000000000000000000000000000000000000000005f52601160045260245ffd5b5f6126e082611c7a565b91507fffffffffffffffffffffffffffffffffffffffffffffffffffffffffffffffff8203612712576127116126a9565b5b600182019050919050565b5f61272782611c7a565b915061273283611c7a565b925082820390508181111561274a576127496126a9565b5b92915050565b7f5175616e746964616465206d6178696d61206465206a757261646f73000000005f82015250565b5f612784601c83611d07565b915061278f82612750565b602082019050919050565b5f6020820190508181035f8301526127b181612778565b9050919050565b7f4e6f7461206e616f20656e636f6e7472616461000000000000000000000000005f82015250565b5f6127ec601383611d07565b91506127f7826127b8565b602082019050919050565b5f6020820190508181035f830152612819816127e0565b9050919050565b7f5175616e746964616465206d6178696d61206465206573636f6c6173000000005f82015250565b5f612854601c83611d07565b915061285f82612820565b602082019050919050565b5f6020820190508181035f83015261288181612848565b9050919050565b5f60608201905061289b5f83018661201e565b6128a86020830185611fcb565b6128b56040830184611fcb565b949350505050565b5f6128c782611c7a565b91506128d283611c7a565b92508282019050808211156128ea576128e96126a9565b5b9291505056fea264697066735822122003492d433ed47031b5ee5a29aebc423077cb2f630ff2bc32f46ff4dd5af7a16e64736f6c634300081c0033",
					"opcodes": "PUSH1 0x80 PUSH1 0x40 MSTORE PUSH0 PUSH1 0x81 SSTORE PUSH0 PUSH1 0x82 SSTORE PUSH0 PUSH1 0x83 SSTORE CALLVALUE DUP1 ISZERO PUSH2 0x1B JUMPI PUSH0 PUSH0 REVERT JUMPDEST POP PUSH1 0x40 MLOAD DUP1 PUSH1 0x40 ADD PUSH1 0x40 MSTORE DUP1 PUSH1 0xE DUP2 MSTORE PUSH1 0x20 ADD PUSH32 0x4361726E6176616C53636F726573000000000000000000000000000000000000 DUP2 MSTORE POP PUSH1 0x40 MLOAD DUP1 PUSH1 0x40 ADD PUSH1 0x40 MSTORE DUP1 PUSH1 0x3 DUP2 MSTORE PUSH1 0x20 ADD PUSH32 0x4343530000000000000000000000000000000000000000000000000000000000 DUP2 MSTORE POP DUP2 PUSH1 0x3 SWAP1 DUP2 PUSH2 0x97 SWAP2 SWAP1 PUSH2 0x32C JUMP JUMPDEST POP DUP1 PUSH1 0x4 SWAP1 DUP2 PUSH2 0xA7 SWAP2 SWAP1 PUSH2 0x32C JUMP JUMPDEST POP POP POP CALLER PUSH1 0x80 PUSH0 PUSH2 0x100 EXP DUP2 SLOAD DUP2 PUSH20 0xFFFFFFFFFFFFFFFFFFFFFFFFFFFFFFFFFFFFFFFF MUL NOT AND SWAP1 DUP4 PUSH20 0xFFFFFFFFFFFFFFFFFFFFFFFFFFFFFFFFFFFFFFFF AND MUL OR SWAP1 SSTORE POP PUSH2 0x3FB JUMP JUMPDEST PUSH0 DUP2 MLOAD SWAP1 POP SWAP2 SWAP1 POP JUMP JUMPDEST PUSH32 0x4E487B7100000000000000000000000000000000000000000000000000000000 PUSH0 MSTORE PUSH1 0x41 PUSH1 0x4 MSTORE PUSH1 0x24 PUSH0 REVERT JUMPDEST PUSH32 0x4E487B7100000000000000000000000000000000000000000000000000000000 PUSH0 MSTORE PUSH1 0x22 PUSH1 0x4 MSTORE PUSH1 0x24 PUSH0 REVERT JUMPDEST PUSH0 PUSH1 0x2 DUP3 DIV SWAP1 POP PUSH1 0x1 DUP3 AND DUP1 PUSH2 0x16A JUMPI PUSH1 0x7F DUP3 AND SWAP2 POP JUMPDEST PUSH1 0x20 DUP3 LT DUP2 SUB PUSH2 0x17D JUMPI PUSH2 0x17C PUSH2 0x126 JUMP JUMPDEST JUMPDEST POP SWAP2 SWAP1 POP JUMP JUMPDEST PUSH0 DUP2 SWAP1 POP DUP2 PUSH0 MSTORE PUSH1 0x20 PUSH0 KECCAK256 SWAP1 POP SWAP2 SWAP1 POP JUMP JUMPDEST PUSH0 PUSH1 0x20 PUSH1 0x1F DUP4 ADD DIV SWAP1 POP SWAP2 SWAP1 POP JUMP JUMPDEST PUSH0 DUP3 DUP3 SHL SWAP1 POP SWAP3 SWAP2 POP POP JUMP JUMPDEST PUSH0 PUSH1 0x8 DUP4 MUL PUSH2 0x1DF PUSH32 0xFFFFFFFFFFFFFFFFFFFFFFFFFFFFFFFFFFFFFFFFFFFFFFFFFFFFFFFFFFFFFFFF DUP3 PUSH2 0x1A4 JUMP JUMPDEST PUSH2 0x1E9 DUP7 DUP4 PUSH2 0x1A4 JUMP JUMPDEST SWAP6 POP DUP1 NOT DUP5 AND SWAP4 POP DUP1 DUP7 AND DUP5 OR SWAP3 POP POP POP SWAP4 SWAP3 POP POP POP JUMP JUMPDEST PUSH0 DUP2 SWAP1 POP SWAP2 SWAP1 POP JUMP JUMPDEST PUSH0 DUP2 SWAP1 POP SWAP2 SWAP1 POP JUMP JUMPDEST PUSH0 PUSH2 0x22D PUSH2 0x228 PUSH2 0x223 DUP5 PUSH2 0x201 JUMP JUMPDEST PUSH2 0x20A JUMP JUMPDEST PUSH2 0x201 JUMP JUMPDEST SWAP1 POP SWAP2 SWAP1 POP JUMP JUMPDEST PUSH0 DUP2 SWAP1 POP SWAP2 SWAP1 POP JUMP JUMPDEST PUSH2 0x246 DUP4 PUSH2 0x213 JUMP JUMPDEST PUSH2 0x25A PUSH2 0x252 DUP3 PUSH2 0x234 JUMP JUMPDEST DUP5 DUP5 SLOAD PUSH2 0x1B0 JUMP JUMPDEST DUP3 SSTORE POP POP POP POP JUMP JUMPDEST PUSH0 PUSH0 SWAP1 POP SWAP1 JUMP JUMPDEST PUSH2 0x271 PUSH2 0x262 JUMP JUMPDEST PUSH2 0x27C DUP2 DUP5 DUP5 PUSH2 0x23D JUMP JUMPDEST POP POP POP JUMP JUMPDEST JUMPDEST DUP2 DUP2 LT ISZERO PUSH2 0x29F JUMPI PUSH2 0x294 PUSH0 DUP3 PUSH2 0x269 JUMP JUMPDEST PUSH1 0x1 DUP2 ADD SWAP1 POP PUSH2 0x282 JUMP JUMPDEST POP POP JUMP JUMPDEST PUSH1 0x1F DUP3 GT ISZERO PUSH2 0x2E4 JUMPI PUSH2 0x2B5 DUP2 PUSH2 0x183 JUMP JUMPDEST PUSH2 0x2BE DUP5 PUSH2 0x195 JUMP JUMPDEST DUP2 ADD PUSH1 0x20 DUP6 LT ISZERO PUSH2 0x2CD JUMPI DUP2 SWAP1 POP JUMPDEST PUSH2 0x2E1 PUSH2 0x2D9 DUP6 PUSH2 0x195 JUMP JUMPDEST DUP4 ADD DUP3 PUSH2 0x281 JUMP JUMPDEST POP POP JUMPDEST POP POP POP JUMP JUMPDEST PUSH0 DUP3 DUP3 SHR SWAP1 POP SWAP3 SWAP2 POP POP JUMP JUMPDEST PUSH0 PUSH2 0x304 PUSH0 NOT DUP5 PUSH1 0x8 MUL PUSH2 0x2E9 JUMP JUMPDEST NOT DUP1 DUP4 AND SWAP2 POP POP SWAP3 SWAP2 POP POP JUMP JUMPDEST PUSH0 PUSH2 0x31C DUP4 DUP4 PUSH2 0x2F5 JUMP JUMPDEST SWAP2 POP DUP3 PUSH1 0x2 MUL DUP3 OR SWAP1 POP SWAP3 SWAP2 POP POP JUMP JUMPDEST PUSH2 0x335 DUP3 PUSH2 0xEF JUMP JUMPDEST PUSH8 0xFFFFFFFFFFFFFFFF DUP2 GT ISZERO PUSH2 0x34E JUMPI PUSH2 0x34D PUSH2 0xF9 JUMP JUMPDEST JUMPDEST PUSH2 0x358 DUP3 SLOAD PUSH2 0x153 JUMP JUMPDEST PUSH2 0x363 DUP3 DUP3 DUP6 PUSH2 0x2A3 JUMP JUMPDEST PUSH0 PUSH1 0x20 SWAP1 POP PUSH1 0x1F DUP4 GT PUSH1 0x1 DUP2 EQ PUSH2 0x394 JUMPI PUSH0 DUP5 ISZERO PUSH2 0x382 JUMPI DUP3 DUP8 ADD MLOAD SWAP1 POP JUMPDEST PUSH2 0x38C DUP6 DUP3 PUSH2 0x311 JUMP JUMPDEST DUP7 SSTORE POP PUSH2 0x3F3 JUMP JUMPDEST PUSH1 0x1F NOT DUP5 AND PUSH2 0x3A2 DUP7 PUSH2 0x183 JUMP JUMPDEST PUSH0 JUMPDEST DUP3 DUP2 LT ISZERO PUSH2 0x3C9 JUMPI DUP5 DUP10 ADD MLOAD DUP3 SSTORE PUSH1 0x1 DUP3 ADD SWAP2 POP PUSH1 0x20 DUP6 ADD SWAP5 POP PUSH1 0x20 DUP2 ADD SWAP1 POP PUSH2 0x3A4 JUMP JUMPDEST DUP7 DUP4 LT ISZERO PUSH2 0x3E6 JUMPI DUP5 DUP10 ADD MLOAD PUSH2 0x3E2 PUSH1 0x1F DUP10 AND DUP3 PUSH2 0x2F5 JUMP JUMPDEST DUP4 SSTORE POP JUMPDEST PUSH1 0x1 PUSH1 0x2 DUP9 MUL ADD DUP9 SSTORE POP POP POP JUMPDEST POP POP POP POP POP POP JUMP JUMPDEST PUSH2 0x2926 DUP1 PUSH2 0x408 PUSH0 CODECOPY PUSH0 RETURN INVALID PUSH1 0x80 PUSH1 0x40 MSTORE CALLVALUE DUP1 ISZERO PUSH2 0xF JUMPI PUSH0 PUSH0 REVERT JUMPDEST POP PUSH1 0x4 CALLDATASIZE LT PUSH2 0x140 JUMPI PUSH0 CALLDATALOAD PUSH1 0xE0 SHR DUP1 PUSH4 0x70A08231 GT PUSH2 0xB6 JUMPI DUP1 PUSH4 0xBB7B3671 GT PUSH2 0x7A JUMPI DUP1 PUSH4 0xBB7B3671 EQ PUSH2 0x3DD JUMPI DUP1 PUSH4 0xD3DEA54D EQ PUSH2 0x40D JUMPI DUP1 PUSH4 0xDD62ED3E EQ PUSH2 0x43E JUMPI DUP1 PUSH4 0xE2EAE4DB EQ PUSH2 0x46E JUMPI DUP1 PUSH4 0xE49A39DC EQ PUSH2 0x49F JUMPI DUP1 PUSH4 0xEB75E0B8 EQ PUSH2 0x4A9 JUMPI PUSH2 0x140 JUMP JUMPDEST DUP1 PUSH4 0x70A08231 EQ PUSH2 0x30E JUMPI DUP1 PUSH4 0x8DA5CB5B EQ PUSH2 0x33E JUMPI DUP1 PUSH4 0x95D89B41 EQ PUSH2 0x35C JUMPI DUP1 PUSH4 0xA9059CBB EQ PUSH2 0x37A JUMPI DUP1 PUSH4 0xA916B987 EQ PUSH2 0x3AA JUMPI PUSH2 0x140 JUMP JUMPDEST DUP1 PUSH4 0x18160DDD GT PUSH2 0x108 JUMPI DUP1 PUSH4 0x18160DDD EQ PUSH2 0x211 JUMPI DUP1 PUSH4 0x1F12A015 EQ PUSH2 0x22F JUMPI DUP1 PUSH4 0x23B872DD EQ PUSH2 0x260 JUMPI DUP1 PUSH4 0x313CE567 EQ PUSH2 0x290 JUMPI DUP1 PUSH4 0x3BDFF5BA EQ PUSH2 0x2AE JUMPI DUP1 PUSH4 0x66885744 EQ PUSH2 0x2DE JUMPI PUSH2 0x140 JUMP JUMPDEST DUP1 PUSH4 0x5AE501E EQ PUSH2 0x144 JUMPI DUP1 PUSH4 0x6FDDE03 EQ PUSH2 0x160 JUMPI DUP1 PUSH4 0x95EA7B3 EQ PUSH2 0x17E JUMPI DUP1 PUSH4 0x140B24F5 EQ PUSH2 0x1AE JUMPI DUP1 PUSH4 0x162F17A9 EQ PUSH2 0x1DE JUMPI JUMPDEST PUSH0 PUSH0 REVERT JUMPDEST PUSH2 0x15E PUSH1 0x4 DUP1 CALLDATASIZE SUB DUP2 ADD SWAP1 PUSH2 0x159 SWAP2 SWAP1 PUSH2 0x1CAD JUMP JUMPDEST PUSH2 0x4DA JUMP JUMPDEST STOP JUMPDEST PUSH2 0x168 PUSH2 0x74C JUMP JUMPDEST PUSH1 0x40 MLOAD PUSH2 0x175 SWAP2 SWAP1 PUSH2 0x1D6D JUMP JUMPDEST PUSH1 0x40 MLOAD DUP1 SWAP2 SUB SWAP1 RETURN JUMPDEST PUSH2 0x198 PUSH1 0x4 DUP1 CALLDATASIZE SUB DUP2 ADD SWAP1 PUSH2 0x193 SWAP2 SWAP1 PUSH2 0x1DE7 JUMP JUMPDEST PUSH2 0x7DC JUMP JUMPDEST PUSH1 0x40 MLOAD PUSH2 0x1A5 SWAP2 SWAP1 PUSH2 0x1E3F JUMP JUMPDEST PUSH1 0x40 MLOAD DUP1 SWAP2 SUB SWAP1 RETURN JUMPDEST PUSH2 0x1C8 PUSH1 0x4 DUP1 CALLDATASIZE SUB DUP2 ADD SWAP1 PUSH2 0x1C3 SWAP2 SWAP1 PUSH2 0x1F84 JUMP JUMPDEST PUSH2 0x7FE JUMP JUMPDEST PUSH1 0x40 MLOAD PUSH2 0x1D5 SWAP2 SWAP1 PUSH2 0x1FDA JUMP JUMPDEST PUSH1 0x40 MLOAD DUP1 SWAP2 SUB SWAP1 RETURN JUMPDEST PUSH2 0x1F8 PUSH1 0x4 DUP1 CALLDATASIZE SUB DUP2 ADD SWAP1 PUSH2 0x1F3 SWAP2 SWAP1 PUSH2 0x1FF3 JUMP JUMPDEST PUSH2 0x98D JUMP JUMPDEST PUSH1 0x40 MLOAD PUSH2 0x208 SWAP5 SWAP4 SWAP3 SWAP2 SWAP1 PUSH2 0x202D JUMP JUMPDEST PUSH1 0x40 MLOAD DUP1 SWAP2 SUB SWAP1 RETURN JUMPDEST PUSH2 0x219 PUSH2 0x9E7 JUMP JUMPDEST PUSH1 0x40 MLOAD PUSH2 0x226 SWAP2 SWAP1 PUSH2 0x1FDA JUMP JUMPDEST PUSH1 0x40 MLOAD DUP1 SWAP2 SUB SWAP1 RETURN JUMPDEST PUSH2 0x249 PUSH1 0x4 DUP1 CALLDATASIZE SUB DUP2 ADD SWAP1 PUSH2 0x244 SWAP2 SWAP1 PUSH2 0x2070 JUMP JUMPDEST PUSH2 0x9F0 JUMP JUMPDEST PUSH1 0x40 MLOAD PUSH2 0x257 SWAP3 SWAP2 SWAP1 PUSH2 0x209B JUMP JUMPDEST PUSH1 0x40 MLOAD DUP1 SWAP2 SUB SWAP1 RETURN JUMPDEST PUSH2 0x27A PUSH1 0x4 DUP1 CALLDATASIZE SUB DUP2 ADD SWAP1 PUSH2 0x275 SWAP2 SWAP1 PUSH2 0x20C9 JUMP JUMPDEST PUSH2 0xAB5 JUMP JUMPDEST PUSH1 0x40 MLOAD PUSH2 0x287 SWAP2 SWAP1 PUSH2 0x1E3F JUMP JUMPDEST PUSH1 0x40 MLOAD DUP1 SWAP2 SUB SWAP1 RETURN JUMPDEST PUSH2 0x298 PUSH2 0xAE3 JUMP JUMPDEST PUSH1 0x40 MLOAD PUSH2 0x2A5 SWAP2 SWAP1 PUSH2 0x2134 JUMP JUMPDEST PUSH1 0x40 MLOAD DUP1 SWAP2 SUB SWAP1 RETURN JUMPDEST PUSH2 0x2C8 PUSH1 0x4 DUP1 CALLDATASIZE SUB DUP2 ADD SWAP1 PUSH2 0x2C3 SWAP2 SWAP1 PUSH2 0x1F84 JUMP JUMPDEST PUSH2 0xAEB JUMP JUMPDEST PUSH1 0x40 MLOAD PUSH2 0x2D5 SWAP2 SWAP1 PUSH2 0x1FDA JUMP JUMPDEST PUSH1 0x40 MLOAD DUP1 SWAP2 SUB SWAP1 RETURN JUMPDEST PUSH2 0x2F8 PUSH1 0x4 DUP1 CALLDATASIZE SUB DUP2 ADD SWAP1 PUSH2 0x2F3 SWAP2 SWAP1 PUSH2 0x214D JUMP JUMPDEST PUSH2 0xDA2 JUMP JUMPDEST PUSH1 0x40 MLOAD PUSH2 0x305 SWAP2 SWAP1 PUSH2 0x1FDA JUMP JUMPDEST PUSH1 0x40 MLOAD DUP1 SWAP2 SUB SWAP1 RETURN JUMPDEST PUSH2 0x328 PUSH1 0x4 DUP1 CALLDATASIZE SUB DUP2 ADD SWAP1 PUSH2 0x323 SWAP2 SWAP1 PUSH2 0x2070 JUMP JUMPDEST PUSH2 0xE34 JUMP JUMPDEST PUSH1 0x40 MLOAD PUSH2 0x335 SWAP2 SWAP1 PUSH2 0x1FDA JUMP JUMPDEST PUSH1 0x40 MLOAD DUP1 SWAP2 SUB SWAP1 RETURN JUMPDEST PUSH2 0x346 PUSH2 0xE79 JUMP JUMPDEST PUSH1 0x40 MLOAD PUSH2 0x353 SWAP2 SWAP1 PUSH2 0x218B JUMP JUMPDEST PUSH1 0x40 MLOAD DUP1 SWAP2 SUB SWAP1 RETURN JUMPDEST PUSH2 0x364 PUSH2 0xE9E JUMP JUMPDEST PUSH1 0x40 MLOAD PUSH2 0x371 SWAP2 SWAP1 PUSH2 0x1D6D JUMP JUMPDEST PUSH1 0x40 MLOAD DUP1 SWAP2 SUB SWAP1 RETURN JUMPDEST PUSH2 0x394 PUSH1 0x4 DUP1 CALLDATASIZE SUB DUP2 ADD SWAP1 PUSH2 0x38F SWAP2 SWAP1 PUSH2 0x1DE7 JUMP JUMPDEST PUSH2 0xF2E JUMP JUMPDEST PUSH1 0x40 MLOAD PUSH2 0x3A1 SWAP2 SWAP1 PUSH2 0x1E3F JUMP JUMPDEST PUSH1 0x40 MLOAD DUP1 SWAP2 SUB SWAP1 RETURN JUMPDEST PUSH2 0x3C4 PUSH1 0x4 DUP1 CALLDATASIZE SUB DUP2 ADD SWAP1 PUSH2 0x3BF SWAP2 SWAP1 PUSH2 0x214D JUMP JUMPDEST PUSH2 0xF50 JUMP JUMPDEST PUSH1 0x40 MLOAD PUSH2 0x3D4 SWAP5 SWAP4 SWAP3 SWAP2 SWAP1 PUSH2 0x202D JUMP JUMPDEST PUSH1 0x40 MLOAD DUP1 SWAP2 SUB SWAP1 RETURN JUMPDEST PUSH2 0x3F7 PUSH1 0x4 DUP1 CALLDATASIZE SUB DUP2 ADD SWAP1 PUSH2 0x3F2 SWAP2 SWAP1 PUSH2 0x1F84 JUMP JUMPDEST PUSH2 0xFA6 JUMP JUMPDEST PUSH1 0x40 MLOAD PUSH2 0x404 SWAP2 SWAP1 PUSH2 0x1FDA JUMP JUMPDEST PUSH1 0x40 MLOAD DUP1 SWAP2 SUB SWAP1 RETURN JUMPDEST PUSH2 0x427 PUSH1 0x4 DUP1 CALLDATASIZE SUB DUP2 ADD SWAP1 PUSH2 0x422 SWAP2 SWAP1 PUSH2 0x1FF3 JUMP JUMPDEST PUSH2 0x1135 JUMP JUMPDEST PUSH1 0x40 MLOAD PUSH2 0x435 SWAP3 SWAP2 SWAP1 PUSH2 0x21A4 JUMP JUMPDEST PUSH1 0x40 MLOAD DUP1 SWAP2 SUB SWAP1 RETURN JUMPDEST PUSH2 0x458 PUSH1 0x4 DUP1 CALLDATASIZE SUB DUP2 ADD SWAP1 PUSH2 0x453 SWAP2 SWAP1 PUSH2 0x21D2 JUMP JUMPDEST PUSH2 0x11E2 JUMP JUMPDEST PUSH1 0x40 MLOAD PUSH2 0x465 SWAP2 SWAP1 PUSH2 0x1FDA JUMP JUMPDEST PUSH1 0x40 MLOAD DUP1 SWAP2 SUB SWAP1 RETURN JUMPDEST PUSH2 0x488 PUSH1 0x4 DUP1 CALLDATASIZE SUB DUP2 ADD SWAP1 PUSH2 0x483 SWAP2 SWAP1 PUSH2 0x1FF3 JUMP JUMPDEST PUSH2 0x1264 JUMP JUMPDEST PUSH1 0x40 MLOAD PUSH2 0x496 SWAP3 SWAP2 SWAP1 PUSH2 0x209B JUMP JUMPDEST PUSH1 0x40 MLOAD DUP1 SWAP2 SUB SWAP1 RETURN JUMPDEST PUSH2 0x4A7 PUSH2 0x1330 JUMP JUMPDEST STOP JUMPDEST PUSH2 0x4C3 PUSH1 0x4 DUP1 CALLDATASIZE SUB DUP2 ADD SWAP1 PUSH2 0x4BE SWAP2 SWAP1 PUSH2 0x1FF3 JUMP JUMPDEST PUSH2 0x148A JUMP JUMPDEST PUSH1 0x40 MLOAD PUSH2 0x4D1 SWAP3 SWAP2 SWAP1 PUSH2 0x21A4 JUMP JUMPDEST PUSH1 0x40 MLOAD DUP1 SWAP2 SUB SWAP1 RETURN JUMPDEST CALLER PUSH20 0xFFFFFFFFFFFFFFFFFFFFFFFFFFFFFFFFFFFFFFFF AND PUSH1 0x7E PUSH0 CALLER PUSH20 0xFFFFFFFFFFFFFFFFFFFFFFFFFFFFFFFFFFFFFFFF AND PUSH20 0xFFFFFFFFFFFFFFFFFFFFFFFFFFFFFFFFFFFFFFFF AND DUP2 MSTORE PUSH1 0x20 ADD SWAP1 DUP2 MSTORE PUSH1 0x20 ADD PUSH0 KECCAK256 PUSH0 ADD PUSH0 SWAP1 SLOAD SWAP1 PUSH2 0x100 EXP SWAP1 DIV PUSH20 0xFFFFFFFFFFFFFFFFFFFFFFFFFFFFFFFFFFFFFFFF AND PUSH20 0xFFFFFFFFFFFFFFFFFFFFFFFFFFFFFFFFFFFFFFFF AND EQ PUSH2 0x5A6 JUMPI PUSH1 0x40 MLOAD PUSH32 0x8C379A000000000000000000000000000000000000000000000000000000000 DUP2 MSTORE PUSH1 0x4 ADD PUSH2 0x59D SWAP1 PUSH2 0x225A JUMP JUMPDEST PUSH1 0x40 MLOAD DUP1 SWAP2 SUB SWAP1 REVERT JUMPDEST PUSH2 0x384 DUP2 LT ISZERO DUP1 ISZERO PUSH2 0x5BA JUMPI POP PUSH2 0x3E8 DUP2 GT ISZERO JUMPDEST PUSH2 0x5F9 JUMPI PUSH1 0x40 MLOAD PUSH32 0x8C379A000000000000000000000000000000000000000000000000000000000 DUP2 MSTORE PUSH1 0x4 ADD PUSH2 0x5F0 SWAP1 PUSH2 0x22C2 JUMP JUMPDEST PUSH1 0x40 MLOAD DUP1 SWAP2 SUB SWAP1 REVERT JUMPDEST PUSH0 PUSH1 0x40 MLOAD DUP1 PUSH1 0x80 ADD PUSH1 0x40 MSTORE DUP1 DUP6 DUP2 MSTORE PUSH1 0x20 ADD DUP5 DUP2 MSTORE PUSH1 0x20 ADD CALLER PUSH20 0xFFFFFFFFFFFFFFFFFFFFFFFFFFFFFFFFFFFFFFFF AND DUP2 MSTORE PUSH1 0x20 ADD DUP4 DUP2 MSTORE POP SWAP1 POP PUSH1 0x7D DUP2 SWAP1 DUP1 PUSH1 0x1 DUP2 SLOAD ADD DUP1 DUP3 SSTORE DUP1 SWAP2 POP POP PUSH1 0x1 SWAP1 SUB SWAP1 PUSH0 MSTORE PUSH1 0x20 PUSH0 KECCAK256 SWAP1 PUSH1 0x4 MUL ADD PUSH0 SWAP1 SWAP2 SWAP1 SWAP2 SWAP1 SWAP2 POP PUSH0 DUP3 ADD MLOAD DUP2 PUSH0 ADD SSTORE PUSH1 0x20 DUP3 ADD MLOAD DUP2 PUSH1 0x1 ADD SSTORE PUSH1 0x40 DUP3 ADD MLOAD DUP2 PUSH1 0x2 ADD PUSH0 PUSH2 0x100 EXP DUP2 SLOAD DUP2 PUSH20 0xFFFFFFFFFFFFFFFFFFFFFFFFFFFFFFFFFFFFFFFF MUL NOT AND SWAP1 DUP4 PUSH20 0xFFFFFFFFFFFFFFFFFFFFFFFFFFFFFFFFFFFFFFFF AND MUL OR SWAP1 SSTORE POP PUSH1 0x60 DUP3 ADD MLOAD DUP2 PUSH1 0x3 ADD SSTORE POP POP DUP1 PUSH1 0x7F PUSH0 DUP7 DUP2 MSTORE PUSH1 0x20 ADD SWAP1 DUP2 MSTORE PUSH1 0x20 ADD PUSH0 KECCAK256 PUSH0 DUP6 DUP2 MSTORE PUSH1 0x20 ADD SWAP1 DUP2 MSTORE PUSH1 0x20 ADD PUSH0 KECCAK256 PUSH0 DUP3 ADD MLOAD DUP2 PUSH0 ADD SSTORE PUSH1 0x20 DUP3 ADD MLOAD DUP2 PUSH1 0x1 ADD SSTORE PUSH1 0x40 DUP3 ADD MLOAD DUP2 PUSH1 0x2 ADD PUSH0 PUSH2 0x100 EXP DUP2 SLOAD DUP2 PUSH20 0xFFFFFFFFFFFFFFFFFFFFFFFFFFFFFFFFFFFFFFFF MUL NOT AND SWAP1 DUP4 PUSH20 0xFFFFFFFFFFFFFFFFFFFFFFFFFFFFFFFFFFFFFFFF AND MUL OR SWAP1 SSTORE POP PUSH1 0x60 DUP3 ADD MLOAD DUP2 PUSH1 0x3 ADD SSTORE SWAP1 POP POP POP POP POP POP JUMP JUMPDEST PUSH1 0x60 PUSH1 0x3 DUP1 SLOAD PUSH2 0x75B SWAP1 PUSH2 0x230D JUMP JUMPDEST DUP1 PUSH1 0x1F ADD PUSH1 0x20 DUP1 SWAP2 DIV MUL PUSH1 0x20 ADD PUSH1 0x40 MLOAD SWAP1 DUP2 ADD PUSH1 0x40 MSTORE DUP1 SWAP3 SWAP2 SWAP1 DUP2 DUP2 MSTORE PUSH1 0x20 ADD DUP3 DUP1 SLOAD PUSH2 0x787 SWAP1 PUSH2 0x230D JUMP JUMPDEST DUP1 ISZERO PUSH2 0x7D2 JUMPI DUP1 PUSH1 0x1F LT PUSH2 0x7A9 JUMPI PUSH2 0x100 DUP1 DUP4 SLOAD DIV MUL DUP4 MSTORE SWAP2 PUSH1 0x20 ADD SWAP2 PUSH2 0x7D2 JUMP JUMPDEST DUP3 ADD SWAP2 SWAP1 PUSH0 MSTORE PUSH1 0x20 PUSH0 KECCAK256 SWAP1 JUMPDEST DUP2 SLOAD DUP2 MSTORE SWAP1 PUSH1 0x1 ADD SWAP1 PUSH1 0x20 ADD DUP1 DUP4 GT PUSH2 0x7B5 JUMPI DUP3 SWAP1 SUB PUSH1 0x1F AND DUP3 ADD SWAP2 JUMPDEST POP POP POP POP POP SWAP1 POP SWAP1 JUMP JUMPDEST PUSH0 PUSH0 PUSH2 0x7E6 PUSH2 0x1537 JUMP JUMPDEST SWAP1 POP PUSH2 0x7F3 DUP2 DUP6 DUP6 PUSH2 0x153E JUMP JUMPDEST PUSH1 0x1 SWAP2 POP POP SWAP3 SWAP2 POP POP JUMP JUMPDEST PUSH0 PUSH1 0x80 PUSH0 SWAP1 SLOAD SWAP1 PUSH2 0x100 EXP SWAP1 DIV PUSH20 0xFFFFFFFFFFFFFFFFFFFFFFFFFFFFFFFFFFFFFFFF AND PUSH20 0xFFFFFFFFFFFFFFFFFFFFFFFFFFFFFFFFFFFFFFFF AND CALLER PUSH20 0xFFFFFFFFFFFFFFFFFFFFFFFFFFFFFFFFFFFFFFFF AND EQ PUSH2 0x88E JUMPI PUSH1 0x40 MLOAD PUSH32 0x8C379A000000000000000000000000000000000000000000000000000000000 DUP2 MSTORE PUSH1 0x4 ADD PUSH2 0x885 SWAP1 PUSH2 0x2387 JUMP JUMPDEST PUSH1 0x40 MLOAD DUP1 SWAP2 SUB SWAP1 REVERT JUMPDEST PUSH1 0x9 PUSH1 0x83 SLOAD LT PUSH2 0x8D3 JUMPI PUSH1 0x40 MLOAD PUSH32 0x8C379A000000000000000000000000000000000000000000000000000000000 DUP2 MSTORE PUSH1 0x4 ADD PUSH2 0x8CA SWAP1 PUSH2 0x23EF JUMP JUMPDEST PUSH1 0x40 MLOAD DUP1 SWAP2 SUB SWAP1 REVERT JUMPDEST PUSH1 0x40 MLOAD DUP1 PUSH1 0x40 ADD PUSH1 0x40 MSTORE DUP1 PUSH1 0x83 SLOAD DUP2 MSTORE PUSH1 0x20 ADD DUP4 DUP2 MSTORE POP PUSH1 0x6B PUSH1 0x83 SLOAD PUSH1 0x9 DUP2 LT PUSH2 0x900 JUMPI PUSH2 0x8FF PUSH2 0x240D JUMP JUMPDEST JUMPDEST PUSH1 0x2 MUL ADD PUSH0 DUP3 ADD MLOAD DUP2 PUSH0 ADD SSTORE PUSH1 0x20 DUP3 ADD MLOAD DUP2 PUSH1 0x1 ADD SWAP1 DUP2 PUSH2 0x921 SWAP2 SWAP1 PUSH2 0x25DA JUMP JUMPDEST POP SWAP1 POP POP PUSH32 0x2172C9B27BD3270F486343BAB2B6782D3AE51304775FE33C8EA502C9FE2FCCAB PUSH1 0x83 SLOAD DUP4 PUSH1 0x40 MLOAD PUSH2 0x958 SWAP3 SWAP2 SWAP1 PUSH2 0x21A4 JUMP JUMPDEST PUSH1 0x40 MLOAD DUP1 SWAP2 SUB SWAP1 LOG1 PUSH1 0x83 PUSH0 DUP2 SLOAD DUP1 SWAP3 SWAP2 SWAP1 PUSH2 0x972 SWAP1 PUSH2 0x26D6 JUMP JUMPDEST SWAP2 SWAP1 POP SSTORE POP PUSH1 0x1 PUSH1 0x83 SLOAD PUSH2 0x986 SWAP2 SWAP1 PUSH2 0x271D JUMP JUMPDEST SWAP1 POP SWAP2 SWAP1 POP JUMP JUMPDEST PUSH1 0x7D DUP2 DUP2 SLOAD DUP2 LT PUSH2 0x99C JUMPI PUSH0 DUP1 REVERT JUMPDEST SWAP1 PUSH0 MSTORE PUSH1 0x20 PUSH0 KECCAK256 SWAP1 PUSH1 0x4 MUL ADD PUSH0 SWAP2 POP SWAP1 POP DUP1 PUSH0 ADD SLOAD SWAP1 DUP1 PUSH1 0x1 ADD SLOAD SWAP1 DUP1 PUSH1 0x2 ADD PUSH0 SWAP1 SLOAD SWAP1 PUSH2 0x100 EXP SWAP1 DIV PUSH20 0xFFFFFFFFFFFFFFFFFFFFFFFFFFFFFFFFFFFFFFFF AND SWAP1 DUP1 PUSH1 0x3 ADD SLOAD SWAP1 POP DUP5 JUMP JUMPDEST PUSH0 PUSH1 0x2 SLOAD SWAP1 POP SWAP1 JUMP JUMPDEST PUSH1 0x7E PUSH1 0x20 MSTORE DUP1 PUSH0 MSTORE PUSH1 0x40 PUSH0 KECCAK256 PUSH0 SWAP2 POP SWAP1 POP DUP1 PUSH0 ADD PUSH0 SWAP1 SLOAD SWAP1 PUSH2 0x100 EXP SWAP1 DIV PUSH20 0xFFFFFFFFFFFFFFFFFFFFFFFFFFFFFFFFFFFFFFFF AND SWAP1 DUP1 PUSH1 0x1 ADD DUP1 SLOAD PUSH2 0xA34 SWAP1 PUSH2 0x230D JUMP JUMPDEST DUP1 PUSH1 0x1F ADD PUSH1 0x20 DUP1 SWAP2 DIV MUL PUSH1 0x20 ADD PUSH1 0x40 MLOAD SWAP1 DUP2 ADD PUSH1 0x40 MSTORE DUP1 SWAP3 SWAP2 SWAP1 DUP2 DUP2 MSTORE PUSH1 0x20 ADD DUP3 DUP1 SLOAD PUSH2 0xA60 SWAP1 PUSH2 0x230D JUMP JUMPDEST DUP1 ISZERO PUSH2 0xAAB JUMPI DUP1 PUSH1 0x1F LT PUSH2 0xA82 JUMPI PUSH2 0x100 DUP1 DUP4 SLOAD DIV MUL DUP4 MSTORE SWAP2 PUSH1 0x20 ADD SWAP2 PUSH2 0xAAB JUMP JUMPDEST DUP3 ADD SWAP2 SWAP1 PUSH0 MSTORE PUSH1 0x20 PUSH0 KECCAK256 SWAP1 JUMPDEST DUP2 SLOAD DUP2 MSTORE SWAP1 PUSH1 0x1 ADD SWAP1 PUSH1 0x20 ADD DUP1 DUP4 GT PUSH2 0xA8E JUMPI DUP3 SWAP1 SUB PUSH1 0x1F AND DUP3 ADD SWAP2 JUMPDEST POP POP POP POP POP SWAP1 POP DUP3 JUMP JUMPDEST PUSH0 PUSH0 PUSH2 0xABF PUSH2 0x1537 JUMP JUMPDEST SWAP1 POP PUSH2 0xACC DUP6 DUP3 DUP6 PUSH2 0x1550 JUMP JUMPDEST PUSH2 0xAD7 DUP6 DUP6 DUP6 PUSH2 0x15E2 JUMP JUMPDEST PUSH1 0x1 SWAP2 POP POP SWAP4 SWAP3 POP POP POP JUMP JUMPDEST PUSH0 PUSH1 0x12 SWAP1 POP SWAP1 JUMP JUMPDEST PUSH0 PUSH1 0x80 PUSH0 SWAP1 SLOAD SWAP1 PUSH2 0x100 EXP SWAP1 DIV PUSH20 0xFFFFFFFFFFFFFFFFFFFFFFFFFFFFFFFFFFFFFFFF AND PUSH20 0xFFFFFFFFFFFFFFFFFFFFFFFFFFFFFFFFFFFFFFFF AND CALLER PUSH20 0xFFFFFFFFFFFFFFFFFFFFFFFFFFFFFFFFFFFFFFFF AND EQ PUSH2 0xB7B JUMPI PUSH1 0x40 MLOAD PUSH32 0x8C379A000000000000000000000000000000000000000000000000000000000 DUP2 MSTORE PUSH1 0x4 ADD PUSH2 0xB72 SWAP1 PUSH2 0x2387 JUMP JUMPDEST PUSH1 0x40 MLOAD DUP1 SWAP2 SUB SWAP1 REVERT JUMPDEST PUSH1 0x24 PUSH1 0x81 SLOAD LT PUSH2 0xBC0 JUMPI PUSH1 0x40 MLOAD PUSH32 0x8C379A000000000000000000000000000000000000000000000000000000000 DUP2 MSTORE PUSH1 0x4 ADD PUSH2 0xBB7 SWAP1 PUSH2 0x279A JUMP JUMPDEST PUSH1 0x40 MLOAD DUP1 SWAP2 SUB SWAP1 REVERT JUMPDEST PUSH1 0x40 MLOAD DUP1 PUSH1 0x40 ADD PUSH1 0x40 MSTORE DUP1 CALLER PUSH20 0xFFFFFFFFFFFFFFFFFFFFFFFFFFFFFFFFFFFFFFFF AND DUP2 MSTORE PUSH1 0x20 ADD DUP4 DUP2 MSTORE POP PUSH1 0x7E PUSH0 CALLER PUSH20 0xFFFFFFFFFFFFFFFFFFFFFFFFFFFFFFFFFFFFFFFF AND PUSH20 0xFFFFFFFFFFFFFFFFFFFFFFFFFFFFFFFFFFFFFFFF AND DUP2 MSTORE PUSH1 0x20 ADD SWAP1 DUP2 MSTORE PUSH1 0x20 ADD PUSH0 KECCAK256 PUSH0 DUP3 ADD MLOAD DUP2 PUSH0 ADD PUSH0 PUSH2 0x100 EXP DUP2 SLOAD DUP2 PUSH20 0xFFFFFFFFFFFFFFFFFFFFFFFFFFFFFFFFFFFFFFFF MUL NOT AND SWAP1 DUP4 PUSH20 0xFFFFFFFFFFFFFFFFFFFFFFFFFFFFFFFFFFFFFFFF AND MUL OR SWAP1 SSTORE POP PUSH1 0x20 DUP3 ADD MLOAD DUP2 PUSH1 0x1 ADD SWAP1 DUP2 PUSH2 0xC81 SWAP2 SWAP1 PUSH2 0x25DA JUMP JUMPDEST POP SWAP1 POP POP PUSH1 0x40 MLOAD DUP1 PUSH1 0x40 ADD PUSH1 0x40 MSTORE DUP1 CALLER PUSH20 0xFFFFFFFFFFFFFFFFFFFFFFFFFFFFFFFFFFFFFFFF AND DUP2 MSTORE PUSH1 0x20 ADD DUP4 DUP2 MSTORE POP PUSH1 0x5 PUSH1 0x81 SLOAD PUSH1 0x24 DUP2 LT PUSH2 0xCC6 JUMPI PUSH2 0xCC5 PUSH2 0x240D JUMP JUMPDEST JUMPDEST PUSH1 0x2 MUL ADD PUSH0 DUP3 ADD MLOAD DUP2 PUSH0 ADD PUSH0 PUSH2 0x100 EXP DUP2 SLOAD DUP2 PUSH20 0xFFFFFFFFFFFFFFFFFFFFFFFFFFFFFFFFFFFFFFFF MUL NOT AND SWAP1 DUP4 PUSH20 0xFFFFFFFFFFFFFFFFFFFFFFFFFFFFFFFFFFFFFFFF AND MUL OR SWAP1 SSTORE POP PUSH1 0x20 DUP3 ADD MLOAD DUP2 PUSH1 0x1 ADD SWAP1 DUP2 PUSH2 0xD23 SWAP2 SWAP1 PUSH2 0x25DA JUMP JUMPDEST POP SWAP1 POP POP PUSH1 0x81 PUSH0 DUP2 SLOAD DUP1 SWAP3 SWAP2 SWAP1 PUSH2 0xD39 SWAP1 PUSH2 0x26D6 JUMP JUMPDEST SWAP2 SWAP1 POP SSTORE POP CALLER PUSH20 0xFFFFFFFFFFFFFFFFFFFFFFFFFFFFFFFFFFFFFFFF AND PUSH32 0xA1FB37ECDDD4C220FD008A54A22FB96CE4DB7248E0F4987E445259DC6E55188B DUP4 PUSH1 0x40 MLOAD PUSH2 0xD84 SWAP2 SWAP1 PUSH2 0x1D6D JUMP JUMPDEST PUSH1 0x40 MLOAD DUP1 SWAP2 SUB SWAP1 LOG2 PUSH1 0x1 PUSH1 0x81 SLOAD PUSH2 0xD9B SWAP2 SWAP1 PUSH2 0x271D JUMP JUMPDEST SWAP1 POP SWAP2 SWAP1 POP JUMP JUMPDEST PUSH0 PUSH0 PUSH1 0x7F PUSH0 DUP6 DUP2 MSTORE PUSH1 0x20 ADD SWAP1 DUP2 MSTORE PUSH1 0x20 ADD PUSH0 KECCAK256 PUSH0 DUP5 DUP2 MSTORE PUSH1 0x20 ADD SWAP1 DUP2 MSTORE PUSH1 0x20 ADD PUSH0 KECCAK256 PUSH1 0x3 ADD SLOAD GT PUSH2 0xE08 JUMPI PUSH1 0x40 MLOAD PUSH32 0x8C379A000000000000000000000000000000000000000000000000000000000 DUP2 MSTORE PUSH1 0x4 ADD PUSH2 0xDFF SWAP1 PUSH2 0x2802 JUMP JUMPDEST PUSH1 0x40 MLOAD DUP1 SWAP2 SUB SWAP1 REVERT JUMPDEST PUSH1 0x7F PUSH0 DUP5 DUP2 MSTORE PUSH1 0x20 ADD SWAP1 DUP2 MSTORE PUSH1 0x20 ADD PUSH0 KECCAK256 PUSH0 DUP4 DUP2 MSTORE PUSH1 0x20 ADD SWAP1 DUP2 MSTORE PUSH1 0x20 ADD PUSH0 KECCAK256 PUSH1 0x3 ADD SLOAD SWAP1 POP SWAP3 SWAP2 POP POP JUMP JUMPDEST PUSH0 PUSH0 PUSH0 DUP4 PUSH20 0xFFFFFFFFFFFFFFFFFFFFFFFFFFFFFFFFFFFFFFFF AND PUSH20 0xFFFFFFFFFFFFFFFFFFFFFFFFFFFFFFFFFFFFFFFF AND DUP2 MSTORE PUSH1 0x20 ADD SWAP1 DUP2 MSTORE PUSH1 0x20 ADD PUSH0 KECCAK256 SLOAD SWAP1 POP SWAP2 SWAP1 POP JUMP JUMPDEST PUSH1 0x80 PUSH0 SWAP1 SLOAD SWAP1 PUSH2 0x100 EXP SWAP1 DIV PUSH20 0xFFFFFFFFFFFFFFFFFFFFFFFFFFFFFFFFFFFFFFFF AND DUP2 JUMP JUMPDEST PUSH1 0x60 PUSH1 0x4 DUP1 SLOAD PUSH2 0xEAD SWAP1 PUSH2 0x230D JUMP JUMPDEST DUP1 PUSH1 0x1F ADD PUSH1 0x20 DUP1 SWAP2 DIV MUL PUSH1 0x20 ADD PUSH1 0x40 MLOAD SWAP1 DUP2 ADD PUSH1 0x40 MSTORE DUP1 SWAP3 SWAP2 SWAP1 DUP2 DUP2 MSTORE PUSH1 0x20 ADD DUP3 DUP1 SLOAD PUSH2 0xED9 SWAP1 PUSH2 0x230D JUMP JUMPDEST DUP1 ISZERO PUSH2 0xF24 JUMPI DUP1 PUSH1 0x1F LT PUSH2 0xEFB JUMPI PUSH2 0x100 DUP1 DUP4 SLOAD DIV MUL DUP4 MSTORE SWAP2 PUSH1 0x20 ADD SWAP2 PUSH2 0xF24 JUMP JUMPDEST DUP3 ADD SWAP2 SWAP1 PUSH0 MSTORE PUSH1 0x20 PUSH0 KECCAK256 SWAP1 JUMPDEST DUP2 SLOAD DUP2 MSTORE SWAP1 PUSH1 0x1 ADD SWAP1 PUSH1 0x20 ADD DUP1 DUP4 GT PUSH2 0xF07 JUMPI DUP3 SWAP1 SUB PUSH1 0x1F AND DUP3 ADD SWAP2 JUMPDEST POP POP POP POP POP SWAP1 POP SWAP1 JUMP JUMPDEST PUSH0 PUSH0 PUSH2 0xF38 PUSH2 0x1537 JUMP JUMPDEST SWAP1 POP PUSH2 0xF45 DUP2 DUP6 DUP6 PUSH2 0x15E2 JUMP JUMPDEST PUSH1 0x1 SWAP2 POP POP SWAP3 SWAP2 POP POP JUMP JUMPDEST PUSH1 0x7F PUSH1 0x20 MSTORE DUP2 PUSH0 MSTORE PUSH1 0x40 PUSH0 KECCAK256 PUSH1 0x20 MSTORE DUP1 PUSH0 MSTORE PUSH1 0x40 PUSH0 KECCAK256 PUSH0 SWAP2 POP SWAP2 POP POP DUP1 PUSH0 ADD SLOAD SWAP1 DUP1 PUSH1 0x1 ADD SLOAD SWAP1 DUP1 PUSH1 0x2 ADD PUSH0 SWAP1 SLOAD SWAP1 PUSH2 0x100 EXP SWAP1 DIV PUSH20 0xFFFFFFFFFFFFFFFFFFFFFFFFFFFFFFFFFFFFFFFF AND SWAP1 DUP1 PUSH1 0x3 ADD SLOAD SWAP1 POP DUP5 JUMP JUMPDEST PUSH0 PUSH1 0x80 PUSH0 SWAP1 SLOAD SWAP1 PUSH2 0x100 EXP SWAP1 DIV PUSH20 0xFFFFFFFFFFFFFFFFFFFFFFFFFFFFFFFFFFFFFFFF AND PUSH20 0xFFFFFFFFFFFFFFFFFFFFFFFFFFFFFFFFFFFFFFFF AND CALLER PUSH20 0xFFFFFFFFFFFFFFFFFFFFFFFFFFFFFFFFFFFFFFFF AND EQ PUSH2 0x1036 JUMPI PUSH1 0x40 MLOAD PUSH32 0x8C379A000000000000000000000000000000000000000000000000000000000 DUP2 MSTORE PUSH1 0x4 ADD PUSH2 0x102D SWAP1 PUSH2 0x2387 JUMP JUMPDEST PUSH1 0x40 MLOAD DUP1 SWAP2 SUB SWAP1 REVERT JUMPDEST PUSH1 0xF PUSH1 0x82 SLOAD LT PUSH2 0x107B JUMPI PUSH1 0x40 MLOAD PUSH32 0x8C379A000000000000000000000000000000000000000000000000000000000 DUP2 MSTORE PUSH1 0x4 ADD PUSH2 0x1072 SWAP1 PUSH2 0x286A JUMP JUMPDEST PUSH1 0x40 MLOAD DUP1 SWAP2 SUB SWAP1 REVERT JUMPDEST PUSH1 0x40 MLOAD DUP1 PUSH1 0x40 ADD PUSH1 0x40 MSTORE DUP1 PUSH1 0x82 SLOAD DUP2 MSTORE PUSH1 0x20 ADD DUP4 DUP2 MSTORE POP PUSH1 0x4D PUSH1 0x82 SLOAD PUSH1 0xF DUP2 LT PUSH2 0x10A8 JUMPI PUSH2 0x10A7 PUSH2 0x240D JUMP JUMPDEST JUMPDEST PUSH1 0x2 MUL ADD PUSH0 DUP3 ADD MLOAD DUP2 PUSH0 ADD SSTORE PUSH1 0x20 DUP3 ADD MLOAD DUP2 PUSH1 0x1 ADD SWAP1 DUP2 PUSH2 0x10C9 SWAP2 SWAP1 PUSH2 0x25DA JUMP JUMPDEST POP SWAP1 POP POP PUSH32 0x9F427C381DCCC81DD341800D0C9110AB44CF34BFD696503341D2A57AB3F85D88 PUSH1 0x82 SLOAD DUP4 PUSH1 0x40 MLOAD PUSH2 0x1100 SWAP3 SWAP2 SWAP1 PUSH2 0x21A4 JUMP JUMPDEST PUSH1 0x40 MLOAD DUP1 SWAP2 SUB SWAP1 LOG1 PUSH1 0x82 PUSH0 DUP2 SLOAD DUP1 SWAP3 SWAP2 SWAP1 PUSH2 0x111A SWAP1 PUSH2 0x26D6 JUMP JUMPDEST SWAP2 SWAP1 POP SSTORE POP PUSH1 0x1 PUSH1 0x82 SLOAD PUSH2 0x112E SWAP2 SWAP1 PUSH2 0x271D JUMP JUMPDEST SWAP1 POP SWAP2 SWAP1 POP JUMP JUMPDEST PUSH1 0x4D DUP2 PUSH1 0xF DUP2 LT PUSH2 0x1144 JUMPI PUSH0 DUP1 REVERT JUMPDEST PUSH1 0x2 MUL ADD PUSH0 SWAP2 POP SWAP1 POP DUP1 PUSH0 ADD SLOAD SWAP1 DUP1 PUSH1 0x1 ADD DUP1 SLOAD PUSH2 0x1161 SWAP1 PUSH2 0x230D JUMP JUMPDEST DUP1 PUSH1 0x1F ADD PUSH1 0x20 DUP1 SWAP2 DIV MUL PUSH1 0x20 ADD PUSH1 0x40 MLOAD SWAP1 DUP2 ADD PUSH1 0x40 MSTORE DUP1 SWAP3 SWAP2 SWAP1 DUP2 DUP2 MSTORE PUSH1 0x20 ADD DUP3 DUP1 SLOAD PUSH2 0x118D SWAP1 PUSH2 0x230D JUMP JUMPDEST DUP1 ISZERO PUSH2 0x11D8 JUMPI DUP1 PUSH1 0x1F LT PUSH2 0x11AF JUMPI PUSH2 0x100 DUP1 DUP4 SLOAD DIV MUL DUP4 MSTORE SWAP2 PUSH1 0x20 ADD SWAP2 PUSH2 0x11D8 JUMP JUMPDEST DUP3 ADD SWAP2 SWAP1 PUSH0 MSTORE PUSH1 0x20 PUSH0 KECCAK256 SWAP1 JUMPDEST DUP2 SLOAD DUP2 MSTORE SWAP1 PUSH1 0x1 ADD SWAP1 PUSH1 0x20 ADD DUP1 DUP4 GT PUSH2 0x11BB JUMPI DUP3 SWAP1 SUB PUSH1 0x1F AND DUP3 ADD SWAP2 JUMPDEST POP POP POP POP POP SWAP1 POP DUP3 JUMP JUMPDEST PUSH0 PUSH1 0x1 PUSH0 DUP5 PUSH20 0xFFFFFFFFFFFFFFFFFFFFFFFFFFFFFFFFFFFFFFFF AND PUSH20 0xFFFFFFFFFFFFFFFFFFFFFFFFFFFFFFFFFFFFFFFF AND DUP2 MSTORE PUSH1 0x20 ADD SWAP1 DUP2 MSTORE PUSH1 0x20 ADD PUSH0 KECCAK256 PUSH0 DUP4 PUSH20 0xFFFFFFFFFFFFFFFFFFFFFFFFFFFFFFFFFFFFFFFF AND PUSH20 0xFFFFFFFFFFFFFFFFFFFFFFFFFFFFFFFFFFFFFFFF AND DUP2 MSTORE PUSH1 0x20 ADD SWAP1 DUP2 MSTORE PUSH1 0x20 ADD PUSH0 KECCAK256 SLOAD SWAP1 POP SWAP3 SWAP2 POP POP JUMP JUMPDEST PUSH1 0x5 DUP2 PUSH1 0x24 DUP2 LT PUSH2 0x1273 JUMPI PUSH0 DUP1 REVERT JUMPDEST PUSH1 0x2 MUL ADD PUSH0 SWAP2 POP SWAP1 POP DUP1 PUSH0 ADD PUSH0 SWAP1 SLOAD SWAP1 PUSH2 0x100 EXP SWAP1 DIV PUSH20 0xFFFFFFFFFFFFFFFFFFFFFFFFFFFFFFFFFFFFFFFF AND SWAP1 DUP1 PUSH1 0x1 ADD DUP1 SLOAD PUSH2 0x12AF SWAP1 PUSH2 0x230D JUMP JUMPDEST DUP1 PUSH1 0x1F ADD PUSH1 0x20 DUP1 SWAP2 DIV MUL PUSH1 0x20 ADD PUSH1 0x40 MLOAD SWAP1 DUP2 ADD PUSH1 0x40 MSTORE DUP1 SWAP3 SWAP2 SWAP1 DUP2 DUP2 MSTORE PUSH1 0x20 ADD DUP3 DUP1 SLOAD PUSH2 0x12DB SWAP1 PUSH2 0x230D JUMP JUMPDEST DUP1 ISZERO PUSH2 0x1326 JUMPI DUP1 PUSH1 0x1F LT PUSH2 0x12FD JUMPI PUSH2 0x100 DUP1 DUP4 SLOAD DIV MUL DUP4 MSTORE SWAP2 PUSH1 0x20 ADD SWAP2 PUSH2 0x1326 JUMP JUMPDEST DUP3 ADD SWAP2 SWAP1 PUSH0 MSTORE PUSH1 0x20 PUSH0 KECCAK256 SWAP1 JUMPDEST DUP2 SLOAD DUP2 MSTORE SWAP1 PUSH1 0x1 ADD SWAP1 PUSH1 0x20 ADD DUP1 DUP4 GT PUSH2 0x1309 JUMPI DUP3 SWAP1 SUB PUSH1 0x1F AND DUP3 ADD SWAP2 JUMPDEST POP POP POP POP POP SWAP1 POP DUP3 JUMP JUMPDEST PUSH1 0x80 PUSH0 SWAP1 SLOAD SWAP1 PUSH2 0x100 EXP SWAP1 DIV PUSH20 0xFFFFFFFFFFFFFFFFFFFFFFFFFFFFFFFFFFFFFFFF AND PUSH20 0xFFFFFFFFFFFFFFFFFFFFFFFFFFFFFFFFFFFFFFFF AND CALLER PUSH20 0xFFFFFFFFFFFFFFFFFFFFFFFFFFFFFFFFFFFFFFFF AND EQ PUSH2 0x13BF JUMPI PUSH1 0x40 MLOAD PUSH32 0x8C379A000000000000000000000000000000000000000000000000000000000 DUP2 MSTORE PUSH1 0x4 ADD PUSH2 0x13B6 SWAP1 PUSH2 0x2387 JUMP JUMPDEST PUSH1 0x40 MLOAD DUP1 SWAP2 SUB SWAP1 REVERT JUMPDEST PUSH1 0x5 PUSH0 PUSH2 0x13CC SWAP2 SWAP1 PUSH2 0x1ABA JUMP JUMPDEST PUSH1 0x4D PUSH0 PUSH2 0x13D9 SWAP2 SWAP1 PUSH2 0x1AD0 JUMP JUMPDEST PUSH1 0x6B PUSH0 PUSH2 0x13E6 SWAP2 SWAP1 PUSH2 0x1AE6 JUMP JUMPDEST PUSH1 0x7D PUSH0 PUSH2 0x13F3 SWAP2 SWAP1 PUSH2 0x1AFC JUMP JUMPDEST PUSH0 PUSH0 SWAP1 POP JUMPDEST PUSH1 0xF DUP2 LT ISZERO PUSH2 0x1487 JUMPI PUSH0 PUSH0 SWAP1 POP JUMPDEST PUSH1 0x9 DUP2 LT ISZERO PUSH2 0x1479 JUMPI PUSH1 0x7F PUSH0 DUP4 DUP2 MSTORE PUSH1 0x20 ADD SWAP1 DUP2 MSTORE PUSH1 0x20 ADD PUSH0 KECCAK256 PUSH0 DUP3 DUP2 MSTORE PUSH1 0x20 ADD SWAP1 DUP2 MSTORE PUSH1 0x20 ADD PUSH0 KECCAK256 PUSH0 PUSH0 DUP3 ADD PUSH0 SWAP1 SSTORE PUSH1 0x1 DUP3 ADD PUSH0 SWAP1 SSTORE PUSH1 0x2 DUP3 ADD PUSH0 PUSH2 0x100 EXP DUP2 SLOAD SWAP1 PUSH20 0xFFFFFFFFFFFFFFFFFFFFFFFFFFFFFFFFFFFFFFFF MUL NOT AND SWAP1 SSTORE PUSH1 0x3 DUP3 ADD PUSH0 SWAP1 SSTORE POP POP DUP1 DUP1 PUSH1 0x1 ADD SWAP2 POP POP PUSH2 0x1406 JUMP JUMPDEST POP DUP1 DUP1 PUSH1 0x1 ADD SWAP2 POP POP PUSH2 0x13F8 JUMP JUMPDEST POP JUMP JUMPDEST PUSH1 0x6B DUP2 PUSH1 0x9 DUP2 LT PUSH2 0x1499 JUMPI PUSH0 DUP1 REVERT JUMPDEST PUSH1 0x2 MUL ADD PUSH0 SWAP2 POP SWAP1 POP DUP1 PUSH0 ADD SLOAD SWAP1 DUP1 PUSH1 0x1 ADD DUP1 SLOAD PUSH2 0x14B6 SWAP1 PUSH2 0x230D JUMP JUMPDEST DUP1 PUSH1 0x1F ADD PUSH1 0x20 DUP1 SWAP2 DIV MUL PUSH1 0x20 ADD PUSH1 0x40 MLOAD SWAP1 DUP2 ADD PUSH1 0x40 MSTORE DUP1 SWAP3 SWAP2 SWAP1 DUP2 DUP2 MSTORE PUSH1 0x20 ADD DUP3 DUP1 SLOAD PUSH2 0x14E2 SWAP1 PUSH2 0x230D JUMP JUMPDEST DUP1 ISZERO PUSH2 0x152D JUMPI DUP1 PUSH1 0x1F LT PUSH2 0x1504 JUMPI PUSH2 0x100 DUP1 DUP4 SLOAD DIV MUL DUP4 MSTORE SWAP2 PUSH1 0x20 ADD SWAP2 PUSH2 0x152D JUMP JUMPDEST DUP3 ADD SWAP2 SWAP1 PUSH0 MSTORE PUSH1 0x20 PUSH0 KECCAK256 SWAP1 JUMPDEST DUP2 SLOAD DUP2 MSTORE SWAP1 PUSH1 0x1 ADD SWAP1 PUSH1 0x20 ADD DUP1 DUP4 GT PUSH2 0x1510 JUMPI DUP3 SWAP1 SUB PUSH1 0x1F AND DUP3 ADD SWAP2 JUMPDEST POP POP POP POP POP SWAP1 POP DUP3 JUMP JUMPDEST PUSH0 CALLER SWAP1 POP SWAP1 JUMP JUMPDEST PUSH2 0x154B DUP4 DUP4 DUP4 PUSH1 0x1 PUSH2 0x16D2 JUMP JUMPDEST POP POP POP JUMP JUMPDEST PUSH0 PUSH2 0x155B DUP5 DUP5 PUSH2 0x11E2 JUMP JUMPDEST SWAP1 POP PUSH32 0xFFFFFFFFFFFFFFFFFFFFFFFFFFFFFFFFFFFFFFFFFFFFFFFFFFFFFFFFFFFFFFFF DUP2 EQ PUSH2 0x15DC JUMPI DUP2 DUP2 LT ISZERO PUSH2 0x15CD JUMPI DUP3 DUP2 DUP4 PUSH1 0x40 MLOAD PUSH32 0xFB8F41B200000000000000000000000000000000000000000000000000000000 DUP2 MSTORE PUSH1 0x4 ADD PUSH2 0x15C4 SWAP4 SWAP3 SWAP2 SWAP1 PUSH2 0x2888 JUMP JUMPDEST PUSH1 0x40 MLOAD DUP1 SWAP2 SUB SWAP1 REVERT JUMPDEST PUSH2 0x15DB DUP5 DUP5 DUP5 DUP5 SUB PUSH0 PUSH2 0x16D2 JUMP JUMPDEST JUMPDEST POP POP POP POP JUMP JUMPDEST PUSH0 PUSH20 0xFFFFFFFFFFFFFFFFFFFFFFFFFFFFFFFFFFFFFFFF AND DUP4 PUSH20 0xFFFFFFFFFFFFFFFFFFFFFFFFFFFFFFFFFFFFFFFF AND SUB PUSH2 0x1652 JUMPI PUSH0 PUSH1 0x40 MLOAD PUSH32 0x96C6FD1E00000000000000000000000000000000000000000000000000000000 DUP2 MSTORE PUSH1 0x4 ADD PUSH2 0x1649 SWAP2 SWAP1 PUSH2 0x218B JUMP JUMPDEST PUSH1 0x40 MLOAD DUP1 SWAP2 SUB SWAP1 REVERT JUMPDEST PUSH0 PUSH20 0xFFFFFFFFFFFFFFFFFFFFFFFFFFFFFFFFFFFFFFFF AND DUP3 PUSH20 0xFFFFFFFFFFFFFFFFFFFFFFFFFFFFFFFFFFFFFFFF AND SUB PUSH2 0x16C2 JUMPI PUSH0 PUSH1 0x40 MLOAD PUSH32 0xEC442F0500000000000000000000000000000000000000000000000000000000 DUP2 MSTORE PUSH1 0x4 ADD PUSH2 0x16B9 SWAP2 SWAP1 PUSH2 0x218B JUMP JUMPDEST PUSH1 0x40 MLOAD DUP1 SWAP2 SUB SWAP1 REVERT JUMPDEST PUSH2 0x16CD DUP4 DUP4 DUP4 PUSH2 0x18A1 JUMP JUMPDEST POP POP POP JUMP JUMPDEST PUSH0 PUSH20 0xFFFFFFFFFFFFFFFFFFFFFFFFFFFFFFFFFFFFFFFF AND DUP5 PUSH20 0xFFFFFFFFFFFFFFFFFFFFFFFFFFFFFFFFFFFFFFFF AND SUB PUSH2 0x1742 JUMPI PUSH0 PUSH1 0x40 MLOAD PUSH32 0xE602DF0500000000000000000000000000000000000000000000000000000000 DUP2 MSTORE PUSH1 0x4 ADD PUSH2 0x1739 SWAP2 SWAP1 PUSH2 0x218B JUMP JUMPDEST PUSH1 0x40 MLOAD DUP1 SWAP2 SUB SWAP1 REVERT JUMPDEST PUSH0 PUSH20 0xFFFFFFFFFFFFFFFFFFFFFFFFFFFFFFFFFFFFFFFF AND DUP4 PUSH20 0xFFFFFFFFFFFFFFFFFFFFFFFFFFFFFFFFFFFFFFFF AND SUB PUSH2 0x17B2 JUMPI PUSH0 PUSH1 0x40 MLOAD PUSH32 0x94280D6200000000000000000000000000000000000000000000000000000000 DUP2 MSTORE PUSH1 0x4 ADD PUSH2 0x17A9 SWAP2 SWAP1 PUSH2 0x218B JUMP JUMPDEST PUSH1 0x40 MLOAD DUP1 SWAP2 SUB SWAP1 REVERT JUMPDEST DUP2 PUSH1 0x1 PUSH0 DUP7 PUSH20 0xFFFFFFFFFFFFFFFFFFFFFFFFFFFFFFFFFFFFFFFF AND PUSH20 0xFFFFFFFFFFFFFFFFFFFFFFFFFFFFFFFFFFFFFFFF AND DUP2 MSTORE PUSH1 0x20 ADD SWAP1 DUP2 MSTORE PUSH1 0x20 ADD PUSH0 KECCAK256 PUSH0 DUP6 PUSH20 0xFFFFFFFFFFFFFFFFFFFFFFFFFFFFFFFFFFFFFFFF AND PUSH20 0xFFFFFFFFFFFFFFFFFFFFFFFFFFFFFFFFFFFFFFFF AND DUP2 MSTORE PUSH1 0x20 ADD SWAP1 DUP2 MSTORE PUSH1 0x20 ADD PUSH0 KECCAK256 DUP2 SWAP1 SSTORE POP DUP1 ISZERO PUSH2 0x189B JUMPI DUP3 PUSH20 0xFFFFFFFFFFFFFFFFFFFFFFFFFFFFFFFFFFFFFFFF AND DUP5 PUSH20 0xFFFFFFFFFFFFFFFFFFFFFFFFFFFFFFFFFFFFFFFF AND PUSH32 0x8C5BE1E5EBEC7D5BD14F71427D1E84F3DD0314C0F7B2291E5B200AC8C7C3B925 DUP5 PUSH1 0x40 MLOAD PUSH2 0x1892 SWAP2 SWAP1 PUSH2 0x1FDA JUMP JUMPDEST PUSH1 0x40 MLOAD DUP1 SWAP2 SUB SWAP1 LOG3 JUMPDEST POP POP POP POP JUMP JUMPDEST PUSH0 PUSH20 0xFFFFFFFFFFFFFFFFFFFFFFFFFFFFFFFFFFFFFFFF AND DUP4 PUSH20 0xFFFFFFFFFFFFFFFFFFFFFFFFFFFFFFFFFFFFFFFF AND SUB PUSH2 0x18F1 JUMPI DUP1 PUSH1 0x2 PUSH0 DUP3 DUP3 SLOAD PUSH2 0x18E5 SWAP2 SWAP1 PUSH2 0x28BD JUMP JUMPDEST SWAP3 POP POP DUP2 SWAP1 SSTORE POP PUSH2 0x19BF JUMP JUMPDEST PUSH0 PUSH0 PUSH0 DUP6 PUSH20 0xFFFFFFFFFFFFFFFFFFFFFFFFFFFFFFFFFFFFFFFF AND PUSH20 0xFFFFFFFFFFFFFFFFFFFFFFFFFFFFFFFFFFFFFFFF AND DUP2 MSTORE PUSH1 0x20 ADD SWAP1 DUP2 MSTORE PUSH1 0x20 ADD PUSH0 KECCAK256 SLOAD SWAP1 POP DUP2 DUP2 LT ISZERO PUSH2 0x197A JUMPI DUP4 DUP2 DUP4 PUSH1 0x40 MLOAD PUSH32 0xE450D38C00000000000000000000000000000000000000000000000000000000 DUP2 MSTORE PUSH1 0x4 ADD PUSH2 0x1971 SWAP4 SWAP3 SWAP2 SWAP1 PUSH2 0x2888 JUMP JUMPDEST PUSH1 0x40 MLOAD DUP1 SWAP2 SUB SWAP1 REVERT JUMPDEST DUP2 DUP2 SUB PUSH0 PUSH0 DUP7 PUSH20 0xFFFFFFFFFFFFFFFFFFFFFFFFFFFFFFFFFFFFFFFF AND PUSH20 0xFFFFFFFFFFFFFFFFFFFFFFFFFFFFFFFFFFFFFFFF AND DUP2 MSTORE PUSH1 0x20 ADD SWAP1 DUP2 MSTORE PUSH1 0x20 ADD PUSH0 KECCAK256 DUP2 SWAP1 SSTORE POP POP JUMPDEST PUSH0 PUSH20 0xFFFFFFFFFFFFFFFFFFFFFFFFFFFFFFFFFFFFFFFF AND DUP3 PUSH20 0xFFFFFFFFFFFFFFFFFFFFFFFFFFFFFFFFFFFFFFFF AND SUB PUSH2 0x1A06 JUMPI DUP1 PUSH1 0x2 PUSH0 DUP3 DUP3 SLOAD SUB SWAP3 POP POP DUP2 SWAP1 SSTORE POP PUSH2 0x1A50 JUMP JUMPDEST DUP1 PUSH0 PUSH0 DUP5 PUSH20 0xFFFFFFFFFFFFFFFFFFFFFFFFFFFFFFFFFFFFFFFF AND PUSH20 0xFFFFFFFFFFFFFFFFFFFFFFFFFFFFFFFFFFFFFFFF AND DUP2 MSTORE PUSH1 0x20 ADD SWAP1 DUP2 MSTORE PUSH1 0x20 ADD PUSH0 KECCAK256 PUSH0 DUP3 DUP3 SLOAD ADD SWAP3 POP POP DUP2 SWAP1 SSTORE POP JUMPDEST DUP2 PUSH20 0xFFFFFFFFFFFFFFFFFFFFFFFFFFFFFFFFFFFFFFFF AND DUP4 PUSH20 0xFFFFFFFFFFFFFFFFFFFFFFFFFFFFFFFFFFFFFFFF AND PUSH32 0xDDF252AD1BE2C89B69C2B068FC378DAA952BA7F163C4A11628F55A4DF523B3EF DUP4 PUSH1 0x40 MLOAD PUSH2 0x1AAD SWAP2 SWAP1 PUSH2 0x1FDA JUMP JUMPDEST PUSH1 0x40 MLOAD DUP1 SWAP2 SUB SWAP1 LOG3 POP POP POP JUMP JUMPDEST POP DUP1 PUSH1 0x24 PUSH1 0x2 MUL ADD SWAP1 PUSH2 0x1ACD SWAP2 SWAP1 PUSH2 0x1B1D JUMP JUMPDEST POP JUMP JUMPDEST POP DUP1 PUSH1 0xF PUSH1 0x2 MUL ADD SWAP1 PUSH2 0x1AE3 SWAP2 SWAP1 PUSH2 0x1B68 JUMP JUMPDEST POP JUMP JUMPDEST POP DUP1 PUSH1 0x9 PUSH1 0x2 MUL ADD SWAP1 PUSH2 0x1AF9 SWAP2 SWAP1 PUSH2 0x1B94 JUMP JUMPDEST POP JUMP JUMPDEST POP DUP1 SLOAD PUSH0 DUP3 SSTORE PUSH1 0x4 MUL SWAP1 PUSH0 MSTORE PUSH1 0x20 PUSH0 KECCAK256 SWAP1 DUP2 ADD SWAP1 PUSH2 0x1B1A SWAP2 SWAP1 PUSH2 0x1BC0 JUMP JUMPDEST POP JUMP JUMPDEST JUMPDEST DUP1 DUP3 GT ISZERO PUSH2 0x1B64 JUMPI PUSH0 PUSH0 DUP3 ADD PUSH0 PUSH2 0x100 EXP DUP2 SLOAD SWAP1 PUSH20 0xFFFFFFFFFFFFFFFFFFFFFFFFFFFFFFFFFFFFFFFF MUL NOT AND SWAP1 SSTORE PUSH1 0x1 DUP3 ADD PUSH0 PUSH2 0x1B5B SWAP2 SWAP1 PUSH2 0x1C11 JUMP JUMPDEST POP PUSH1 0x2 ADD PUSH2 0x1B1E JUMP JUMPDEST POP SWAP1 JUMP JUMPDEST JUMPDEST DUP1 DUP3 GT ISZERO PUSH2 0x1B90 JUMPI PUSH0 PUSH0 DUP3 ADD PUSH0 SWAP1 SSTORE PUSH1 0x1 DUP3 ADD PUSH0 PUSH2 0x1B87 SWAP2 SWAP1 PUSH2 0x1C11 JUMP JUMPDEST POP PUSH1 0x2 ADD PUSH2 0x1B69 JUMP JUMPDEST POP SWAP1 JUMP JUMPDEST JUMPDEST DUP1 DUP3 GT ISZERO PUSH2 0x1BBC JUMPI PUSH0 PUSH0 DUP3 ADD PUSH0 SWAP1 SSTORE PUSH1 0x1 DUP3 ADD PUSH0 PUSH2 0x1BB3 SWAP2 SWAP1 PUSH2 0x1C11 JUMP JUMPDEST POP PUSH1 0x2 ADD PUSH2 0x1B95 JUMP JUMPDEST POP SWAP1 JUMP JUMPDEST JUMPDEST DUP1 DUP3 GT ISZERO PUSH2 0x1C0D JUMPI PUSH0 PUSH0 DUP3 ADD PUSH0 SWAP1 SSTORE PUSH1 0x1 DUP3 ADD PUSH0 SWAP1 SSTORE PUSH1 0x2 DUP3 ADD PUSH0 PUSH2 0x100 EXP DUP2 SLOAD SWAP1 PUSH20 0xFFFFFFFFFFFFFFFFFFFFFFFFFFFFFFFFFFFFFFFF MUL NOT AND SWAP1 SSTORE PUSH1 0x3 DUP3 ADD PUSH0 SWAP1 SSTORE POP PUSH1 0x4 ADD PUSH2 0x1BC1 JUMP JUMPDEST POP SWAP1 JUMP JUMPDEST POP DUP1 SLOAD PUSH2 0x1C1D SWAP1 PUSH2 0x230D JUMP JUMPDEST PUSH0 DUP3 SSTORE DUP1 PUSH1 0x1F LT PUSH2 0x1C2E JUMPI POP PUSH2 0x1C4B JUMP JUMPDEST PUSH1 0x1F ADD PUSH1 0x20 SWAP1 DIV SWAP1 PUSH0 MSTORE PUSH1 0x20 PUSH0 KECCAK256 SWAP1 DUP2 ADD SWAP1 PUSH2 0x1C4A SWAP2 SWAP1 PUSH2 0x1C4E JUMP JUMPDEST JUMPDEST POP JUMP JUMPDEST JUMPDEST DUP1 DUP3 GT ISZERO PUSH2 0x1C65 JUMPI PUSH0 DUP2 PUSH0 SWAP1 SSTORE POP PUSH1 0x1 ADD PUSH2 0x1C4F JUMP JUMPDEST POP SWAP1 JUMP JUMPDEST PUSH0 PUSH1 0x40 MLOAD SWAP1 POP SWAP1 JUMP JUMPDEST PUSH0 PUSH0 REVERT JUMPDEST PUSH0 PUSH0 REVERT JUMPDEST PUSH0 DUP2 SWAP1 POP SWAP2 SWAP1 POP JUMP JUMPDEST PUSH2 0x1C8C DUP2 PUSH2 0x1C7A JUMP JUMPDEST DUP2 EQ PUSH2 0x1C96 JUMPI PUSH0 PUSH0 REVERT JUMPDEST POP JUMP JUMPDEST PUSH0 DUP2 CALLDATALOAD SWAP1 POP PUSH2 0x1CA7 DUP2 PUSH2 0x1C83 JUMP JUMPDEST SWAP3 SWAP2 POP POP JUMP JUMPDEST PUSH0 PUSH0 PUSH0 PUSH1 0x60 DUP5 DUP7 SUB SLT ISZERO PUSH2 0x1CC4 JUMPI PUSH2 0x1CC3 PUSH2 0x1C72 JUMP JUMPDEST JUMPDEST PUSH0 PUSH2 0x1CD1 DUP7 DUP3 DUP8 ADD PUSH2 0x1C99 JUMP JUMPDEST SWAP4 POP POP PUSH1 0x20 PUSH2 0x1CE2 DUP7 DUP3 DUP8 ADD PUSH2 0x1C99 JUMP JUMPDEST SWAP3 POP POP PUSH1 0x40 PUSH2 0x1CF3 DUP7 DUP3 DUP8 ADD PUSH2 0x1C99 JUMP JUMPDEST SWAP2 POP POP SWAP3 POP SWAP3 POP SWAP3 JUMP JUMPDEST PUSH0 DUP2 MLOAD SWAP1 POP SWAP2 SWAP1 POP JUMP JUMPDEST PUSH0 DUP3 DUP3 MSTORE PUSH1 0x20 DUP3 ADD SWAP1 POP SWAP3 SWAP2 POP POP JUMP JUMPDEST DUP3 DUP2 DUP4 MCOPY PUSH0 DUP4 DUP4 ADD MSTORE POP POP POP JUMP JUMPDEST PUSH0 PUSH1 0x1F NOT PUSH1 0x1F DUP4 ADD AND SWAP1 POP SWAP2 SWAP1 POP JUMP JUMPDEST PUSH0 PUSH2 0x1D3F DUP3 PUSH2 0x1CFD JUMP JUMPDEST PUSH2 0x1D49 DUP2 DUP6 PUSH2 0x1D07 JUMP JUMPDEST SWAP4 POP PUSH2 0x1D59 DUP2 DUP6 PUSH1 0x20 DUP7 ADD PUSH2 0x1D17 JUMP JUMPDEST PUSH2 0x1D62 DUP2 PUSH2 0x1D25 JUMP JUMPDEST DUP5 ADD SWAP2 POP POP SWAP3 SWAP2 POP POP JUMP JUMPDEST PUSH0 PUSH1 0x20 DUP3 ADD SWAP1 POP DUP2 DUP2 SUB PUSH0 DUP4 ADD MSTORE PUSH2 0x1D85 DUP2 DUP5 PUSH2 0x1D35 JUMP JUMPDEST SWAP1 POP SWAP3 SWAP2 POP POP JUMP JUMPDEST PUSH0 PUSH20 0xFFFFFFFFFFFFFFFFFFFFFFFFFFFFFFFFFFFFFFFF DUP3 AND SWAP1 POP SWAP2 SWAP1 POP JUMP JUMPDEST PUSH0 PUSH2 0x1DB6 DUP3 PUSH2 0x1D8D JUMP JUMPDEST SWAP1 POP SWAP2 SWAP1 POP JUMP JUMPDEST PUSH2 0x1DC6 DUP2 PUSH2 0x1DAC JUMP JUMPDEST DUP2 EQ PUSH2 0x1DD0 JUMPI PUSH0 PUSH0 REVERT JUMPDEST POP JUMP JUMPDEST PUSH0 DUP2 CALLDATALOAD SWAP1 POP PUSH2 0x1DE1 DUP2 PUSH2 0x1DBD JUMP JUMPDEST SWAP3 SWAP2 POP POP JUMP JUMPDEST PUSH0 PUSH0 PUSH1 0x40 DUP4 DUP6 SUB SLT ISZERO PUSH2 0x1DFD JUMPI PUSH2 0x1DFC PUSH2 0x1C72 JUMP JUMPDEST JUMPDEST PUSH0 PUSH2 0x1E0A DUP6 DUP3 DUP7 ADD PUSH2 0x1DD3 JUMP JUMPDEST SWAP3 POP POP PUSH1 0x20 PUSH2 0x1E1B DUP6 DUP3 DUP7 ADD PUSH2 0x1C99 JUMP JUMPDEST SWAP2 POP POP SWAP3 POP SWAP3 SWAP1 POP JUMP JUMPDEST PUSH0 DUP2 ISZERO ISZERO SWAP1 POP SWAP2 SWAP1 POP JUMP JUMPDEST PUSH2 0x1E39 DUP2 PUSH2 0x1E25 JUMP JUMPDEST DUP3 MSTORE POP POP JUMP JUMPDEST PUSH0 PUSH1 0x20 DUP3 ADD SWAP1 POP PUSH2 0x1E52 PUSH0 DUP4 ADD DUP5 PUSH2 0x1E30 JUMP JUMPDEST SWAP3 SWAP2 POP POP JUMP JUMPDEST PUSH0 PUSH0 REVERT JUMPDEST PUSH0 PUSH0 REVERT JUMPDEST PUSH32 0x4E487B7100000000000000000000000000000000000000000000000000000000 PUSH0 MSTORE PUSH1 0x41 PUSH1 0x4 MSTORE PUSH1 0x24 PUSH0 REVERT JUMPDEST PUSH2 0x1E96 DUP3 PUSH2 0x1D25 JUMP JUMPDEST DUP2 ADD DUP2 DUP2 LT PUSH8 0xFFFFFFFFFFFFFFFF DUP3 GT OR ISZERO PUSH2 0x1EB5 JUMPI PUSH2 0x1EB4 PUSH2 0x1E60 JUMP JUMPDEST JUMPDEST DUP1 PUSH1 0x40 MSTORE POP POP POP JUMP JUMPDEST PUSH0 PUSH2 0x1EC7 PUSH2 0x1C69 JUMP JUMPDEST SWAP1 POP PUSH2 0x1ED3 DUP3 DUP3 PUSH2 0x1E8D JUMP JUMPDEST SWAP2 SWAP1 POP JUMP JUMPDEST PUSH0 PUSH8 0xFFFFFFFFFFFFFFFF DUP3 GT ISZERO PUSH2 0x1EF2 JUMPI PUSH2 0x1EF1 PUSH2 0x1E60 JUMP JUMPDEST JUMPDEST PUSH2 0x1EFB DUP3 PUSH2 0x1D25 JUMP JUMPDEST SWAP1 POP PUSH1 0x20 DUP2 ADD SWAP1 POP SWAP2 SWAP1 POP JUMP JUMPDEST DUP3 DUP2 DUP4 CALLDATACOPY PUSH0 DUP4 DUP4 ADD MSTORE POP POP POP JUMP JUMPDEST PUSH0 PUSH2 0x1F28 PUSH2 0x1F23 DUP5 PUSH2 0x1ED8 JUMP JUMPDEST PUSH2 0x1EBE JUMP JUMPDEST SWAP1 POP DUP3 DUP2 MSTORE PUSH1 0x20 DUP2 ADD DUP5 DUP5 DUP5 ADD GT ISZERO PUSH2 0x1F44 JUMPI PUSH2 0x1F43 PUSH2 0x1E5C JUMP JUMPDEST JUMPDEST PUSH2 0x1F4F DUP5 DUP3 DUP6 PUSH2 0x1F08 JUMP JUMPDEST POP SWAP4 SWAP3 POP POP POP JUMP JUMPDEST PUSH0 DUP3 PUSH1 0x1F DUP4 ADD SLT PUSH2 0x1F6B JUMPI PUSH2 0x1F6A PUSH2 0x1E58 JUMP JUMPDEST JUMPDEST DUP2 CALLDATALOAD PUSH2 0x1F7B DUP5 DUP3 PUSH1 0x20 DUP7 ADD PUSH2 0x1F16 JUMP JUMPDEST SWAP2 POP POP SWAP3 SWAP2 POP POP JUMP JUMPDEST PUSH0 PUSH1 0x20 DUP3 DUP5 SUB SLT ISZERO PUSH2 0x1F99 JUMPI PUSH2 0x1F98 PUSH2 0x1C72 JUMP JUMPDEST JUMPDEST PUSH0 DUP3 ADD CALLDATALOAD PUSH8 0xFFFFFFFFFFFFFFFF DUP2 GT ISZERO PUSH2 0x1FB6 JUMPI PUSH2 0x1FB5 PUSH2 0x1C76 JUMP JUMPDEST JUMPDEST PUSH2 0x1FC2 DUP5 DUP3 DUP6 ADD PUSH2 0x1F57 JUMP JUMPDEST SWAP2 POP POP SWAP3 SWAP2 POP POP JUMP JUMPDEST PUSH2 0x1FD4 DUP2 PUSH2 0x1C7A JUMP JUMPDEST DUP3 MSTORE POP POP JUMP JUMPDEST PUSH0 PUSH1 0x20 DUP3 ADD SWAP1 POP PUSH2 0x1FED PUSH0 DUP4 ADD DUP5 PUSH2 0x1FCB JUMP JUMPDEST SWAP3 SWAP2 POP POP JUMP JUMPDEST PUSH0 PUSH1 0x20 DUP3 DUP5 SUB SLT ISZERO PUSH2 0x2008 JUMPI PUSH2 0x2007 PUSH2 0x1C72 JUMP JUMPDEST JUMPDEST PUSH0 PUSH2 0x2015 DUP5 DUP3 DUP6 ADD PUSH2 0x1C99 JUMP JUMPDEST SWAP2 POP POP SWAP3 SWAP2 POP POP JUMP JUMPDEST PUSH2 0x2027 DUP2 PUSH2 0x1DAC JUMP JUMPDEST DUP3 MSTORE POP POP JUMP JUMPDEST PUSH0 PUSH1 0x80 DUP3 ADD SWAP1 POP PUSH2 0x2040 PUSH0 DUP4 ADD DUP8 PUSH2 0x1FCB JUMP JUMPDEST PUSH2 0x204D PUSH1 0x20 DUP4 ADD DUP7 PUSH2 0x1FCB JUMP JUMPDEST PUSH2 0x205A PUSH1 0x40 DUP4 ADD DUP6 PUSH2 0x201E JUMP JUMPDEST PUSH2 0x2067 PUSH1 0x60 DUP4 ADD DUP5 PUSH2 0x1FCB JUMP JUMPDEST SWAP6 SWAP5 POP POP POP POP POP JUMP JUMPDEST PUSH0 PUSH1 0x20 DUP3 DUP5 SUB SLT ISZERO PUSH2 0x2085 JUMPI PUSH2 0x2084 PUSH2 0x1C72 JUMP JUMPDEST JUMPDEST PUSH0 PUSH2 0x2092 DUP5 DUP3 DUP6 ADD PUSH2 0x1DD3 JUMP JUMPDEST SWAP2 POP POP SWAP3 SWAP2 POP POP JUMP JUMPDEST PUSH0 PUSH1 0x40 DUP3 ADD SWAP1 POP PUSH2 0x20AE PUSH0 DUP4 ADD DUP6 PUSH2 0x201E JUMP JUMPDEST DUP2 DUP2 SUB PUSH1 0x20 DUP4 ADD MSTORE PUSH2 0x20C0 DUP2 DUP5 PUSH2 0x1D35 JUMP JUMPDEST SWAP1 POP SWAP4 SWAP3 POP POP POP JUMP JUMPDEST PUSH0 PUSH0 PUSH0 PUSH1 0x60 DUP5 DUP7 SUB SLT ISZERO PUSH2 0x20E0 JUMPI PUSH2 0x20DF PUSH2 0x1C72 JUMP JUMPDEST JUMPDEST PUSH0 PUSH2 0x20ED DUP7 DUP3 DUP8 ADD PUSH2 0x1DD3 JUMP JUMPDEST SWAP4 POP POP PUSH1 0x20 PUSH2 0x20FE DUP7 DUP3 DUP8 ADD PUSH2 0x1DD3 JUMP JUMPDEST SWAP3 POP POP PUSH1 0x40 PUSH2 0x210F DUP7 DUP3 DUP8 ADD PUSH2 0x1C99 JUMP JUMPDEST SWAP2 POP POP SWAP3 POP SWAP3 POP SWAP3 JUMP JUMPDEST PUSH0 PUSH1 0xFF DUP3 AND SWAP1 POP SWAP2 SWAP1 POP JUMP JUMPDEST PUSH2 0x212E DUP2 PUSH2 0x2119 JUMP JUMPDEST DUP3 MSTORE POP POP JUMP JUMPDEST PUSH0 PUSH1 0x20 DUP3 ADD SWAP1 POP PUSH2 0x2147 PUSH0 DUP4 ADD DUP5 PUSH2 0x2125 JUMP JUMPDEST SWAP3 SWAP2 POP POP JUMP JUMPDEST PUSH0 PUSH0 PUSH1 0x40 DUP4 DUP6 SUB SLT ISZERO PUSH2 0x2163 JUMPI PUSH2 0x2162 PUSH2 0x1C72 JUMP JUMPDEST JUMPDEST PUSH0 PUSH2 0x2170 DUP6 DUP3 DUP7 ADD PUSH2 0x1C99 JUMP JUMPDEST SWAP3 POP POP PUSH1 0x20 PUSH2 0x2181 DUP6 DUP3 DUP7 ADD PUSH2 0x1C99 JUMP JUMPDEST SWAP2 POP POP SWAP3 POP SWAP3 SWAP1 POP JUMP JUMPDEST PUSH0 PUSH1 0x20 DUP3 ADD SWAP1 POP PUSH2 0x219E PUSH0 DUP4 ADD DUP5 PUSH2 0x201E JUMP JUMPDEST SWAP3 SWAP2 POP POP JUMP JUMPDEST PUSH0 PUSH1 0x40 DUP3 ADD SWAP1 POP PUSH2 0x21B7 PUSH0 DUP4 ADD DUP6 PUSH2 0x1FCB JUMP JUMPDEST DUP2 DUP2 SUB PUSH1 0x20 DUP4 ADD MSTORE PUSH2 0x21C9 DUP2 DUP5 PUSH2 0x1D35 JUMP JUMPDEST SWAP1 POP SWAP4 SWAP3 POP POP POP JUMP JUMPDEST PUSH0 PUSH0 PUSH1 0x40 DUP4 DUP6 SUB SLT ISZERO PUSH2 0x21E8 JUMPI PUSH2 0x21E7 PUSH2 0x1C72 JUMP JUMPDEST JUMPDEST PUSH0 PUSH2 0x21F5 DUP6 DUP3 DUP7 ADD PUSH2 0x1DD3 JUMP JUMPDEST SWAP3 POP POP PUSH1 0x20 PUSH2 0x2206 DUP6 DUP3 DUP7 ADD PUSH2 0x1DD3 JUMP JUMPDEST SWAP2 POP POP SWAP3 POP SWAP3 SWAP1 POP JUMP JUMPDEST PUSH32 0x536F6D656E7465206A757261646F7320706F64656D2072656769737472617200 PUSH0 DUP3 ADD MSTORE POP JUMP JUMPDEST PUSH0 PUSH2 0x2244 PUSH1 0x1F DUP4 PUSH2 0x1D07 JUMP JUMPDEST SWAP2 POP PUSH2 0x224F DUP3 PUSH2 0x2210 JUMP JUMPDEST PUSH1 0x20 DUP3 ADD SWAP1 POP SWAP2 SWAP1 POP JUMP JUMPDEST PUSH0 PUSH1 0x20 DUP3 ADD SWAP1 POP DUP2 DUP2 SUB PUSH0 DUP4 ADD MSTORE PUSH2 0x2271 DUP2 PUSH2 0x2238 JUMP JUMPDEST SWAP1 POP SWAP2 SWAP1 POP JUMP JUMPDEST PUSH32 0x4E6F746120696D706F73736976656C0000000000000000000000000000000000 PUSH0 DUP3 ADD MSTORE POP JUMP JUMPDEST PUSH0 PUSH2 0x22AC PUSH1 0xF DUP4 PUSH2 0x1D07 JUMP JUMPDEST SWAP2 POP PUSH2 0x22B7 DUP3 PUSH2 0x2278 JUMP JUMPDEST PUSH1 0x20 DUP3 ADD SWAP1 POP SWAP2 SWAP1 POP JUMP JUMPDEST PUSH0 PUSH1 0x20 DUP3 ADD SWAP1 POP DUP2 DUP2 SUB PUSH0 DUP4 ADD MSTORE PUSH2 0x22D9 DUP2 PUSH2 0x22A0 JUMP JUMPDEST SWAP1 POP SWAP2 SWAP1 POP JUMP JUMPDEST PUSH32 0x4E487B7100000000000000000000000000000000000000000000000000000000 PUSH0 MSTORE PUSH1 0x22 PUSH1 0x4 MSTORE PUSH1 0x24 PUSH0 REVERT JUMPDEST PUSH0 PUSH1 0x2 DUP3 DIV SWAP1 POP PUSH1 0x1 DUP3 AND DUP1 PUSH2 0x2324 JUMPI PUSH1 0x7F DUP3 AND SWAP2 POP JUMPDEST PUSH1 0x20 DUP3 LT DUP2 SUB PUSH2 0x2337 JUMPI PUSH2 0x2336 PUSH2 0x22E0 JUMP JUMPDEST JUMPDEST POP SWAP2 SWAP1 POP JUMP JUMPDEST PUSH32 0x41636573736F20726573747269746F20616F2070726F70726965746172696F00 PUSH0 DUP3 ADD MSTORE POP JUMP JUMPDEST PUSH0 PUSH2 0x2371 PUSH1 0x1F DUP4 PUSH2 0x1D07 JUMP JUMPDEST SWAP2 POP PUSH2 0x237C DUP3 PUSH2 0x233D JUMP JUMPDEST PUSH1 0x20 DUP3 ADD SWAP1 POP SWAP2 SWAP1 POP JUMP JUMPDEST PUSH0 PUSH1 0x20 DUP3 ADD SWAP1 POP DUP2 DUP2 SUB PUSH0 DUP4 ADD MSTORE PUSH2 0x239E DUP2 PUSH2 0x2365 JUMP JUMPDEST SWAP1 POP SWAP2 SWAP1 POP JUMP JUMPDEST PUSH32 0x5175616E746964616465206D6178696D61206465207175657369746F73000000 PUSH0 DUP3 ADD MSTORE POP JUMP JUMPDEST PUSH0 PUSH2 0x23D9 PUSH1 0x1D DUP4 PUSH2 0x1D07 JUMP JUMPDEST SWAP2 POP PUSH2 0x23E4 DUP3 PUSH2 0x23A5 JUMP JUMPDEST PUSH1 0x20 DUP3 ADD SWAP1 POP SWAP2 SWAP1 POP JUMP JUMPDEST PUSH0 PUSH1 0x20 DUP3 ADD SWAP1 POP DUP2 DUP2 SUB PUSH0 DUP4 ADD MSTORE PUSH2 0x2406 DUP2 PUSH2 0x23CD JUMP JUMPDEST SWAP1 POP SWAP2 SWAP1 POP JUMP JUMPDEST PUSH32 0x4E487B7100000000000000000000000000000000000000000000000000000000 PUSH0 MSTORE PUSH1 0x32 PUSH1 0x4 MSTORE PUSH1 0x24 PUSH0 REVERT JUMPDEST PUSH0 DUP2 SWAP1 POP DUP2 PUSH0 MSTORE PUSH1 0x20 PUSH0 KECCAK256 SWAP1 POP SWAP2 SWAP1 POP JUMP JUMPDEST PUSH0 PUSH1 0x20 PUSH1 0x1F DUP4 ADD DIV SWAP1 POP SWAP2 SWAP1 POP JUMP JUMPDEST PUSH0 DUP3 DUP3 SHL SWAP1 POP SWAP3 SWAP2 POP POP JUMP JUMPDEST PUSH0 PUSH1 0x8 DUP4 MUL PUSH2 0x2496 PUSH32 0xFFFFFFFFFFFFFFFFFFFFFFFFFFFFFFFFFFFFFFFFFFFFFFFFFFFFFFFFFFFFFFFF DUP3 PUSH2 0x245B JUMP JUMPDEST PUSH2 0x24A0 DUP7 DUP4 PUSH2 0x245B JUMP JUMPDEST SWAP6 POP DUP1 NOT DUP5 AND SWAP4 POP DUP1 DUP7 AND DUP5 OR SWAP3 POP POP POP SWAP4 SWAP3 POP POP POP JUMP JUMPDEST PUSH0 DUP2 SWAP1 POP SWAP2 SWAP1 POP JUMP JUMPDEST PUSH0 PUSH2 0x24DB PUSH2 0x24D6 PUSH2 0x24D1 DUP5 PUSH2 0x1C7A JUMP JUMPDEST PUSH2 0x24B8 JUMP JUMPDEST PUSH2 0x1C7A JUMP JUMPDEST SWAP1 POP SWAP2 SWAP1 POP JUMP JUMPDEST PUSH0 DUP2 SWAP1 POP SWAP2 SWAP1 POP JUMP JUMPDEST PUSH2 0x24F4 DUP4 PUSH2 0x24C1 JUMP JUMPDEST PUSH2 0x2508 PUSH2 0x2500 DUP3 PUSH2 0x24E2 JUMP JUMPDEST DUP5 DUP5 SLOAD PUSH2 0x2467 JUMP JUMPDEST DUP3 SSTORE POP POP POP POP JUMP JUMPDEST PUSH0 PUSH0 SWAP1 POP SWAP1 JUMP JUMPDEST PUSH2 0x251F PUSH2 0x2510 JUMP JUMPDEST PUSH2 0x252A DUP2 DUP5 DUP5 PUSH2 0x24EB JUMP JUMPDEST POP POP POP JUMP JUMPDEST JUMPDEST DUP2 DUP2 LT ISZERO PUSH2 0x254D JUMPI PUSH2 0x2542 PUSH0 DUP3 PUSH2 0x2517 JUMP JUMPDEST PUSH1 0x1 DUP2 ADD SWAP1 POP PUSH2 0x2530 JUMP JUMPDEST POP POP JUMP JUMPDEST PUSH1 0x1F DUP3 GT ISZERO PUSH2 0x2592 JUMPI PUSH2 0x2563 DUP2 PUSH2 0x243A JUMP JUMPDEST PUSH2 0x256C DUP5 PUSH2 0x244C JUMP JUMPDEST DUP2 ADD PUSH1 0x20 DUP6 LT ISZERO PUSH2 0x257B JUMPI DUP2 SWAP1 POP JUMPDEST PUSH2 0x258F PUSH2 0x2587 DUP6 PUSH2 0x244C JUMP JUMPDEST DUP4 ADD DUP3 PUSH2 0x252F JUMP JUMPDEST POP POP JUMPDEST POP POP POP JUMP JUMPDEST PUSH0 DUP3 DUP3 SHR SWAP1 POP SWAP3 SWAP2 POP POP JUMP JUMPDEST PUSH0 PUSH2 0x25B2 PUSH0 NOT DUP5 PUSH1 0x8 MUL PUSH2 0x2597 JUMP JUMPDEST NOT DUP1 DUP4 AND SWAP2 POP POP SWAP3 SWAP2 POP POP JUMP JUMPDEST PUSH0 PUSH2 0x25CA DUP4 DUP4 PUSH2 0x25A3 JUMP JUMPDEST SWAP2 POP DUP3 PUSH1 0x2 MUL DUP3 OR SWAP1 POP SWAP3 SWAP2 POP POP JUMP JUMPDEST PUSH2 0x25E3 DUP3 PUSH2 0x1CFD JUMP JUMPDEST PUSH8 0xFFFFFFFFFFFFFFFF DUP2 GT ISZERO PUSH2 0x25FC JUMPI PUSH2 0x25FB PUSH2 0x1E60 JUMP JUMPDEST JUMPDEST PUSH2 0x2606 DUP3 SLOAD PUSH2 0x230D JUMP JUMPDEST PUSH2 0x2611 DUP3 DUP3 DUP6 PUSH2 0x2551 JUMP JUMPDEST PUSH0 PUSH1 0x20 SWAP1 POP PUSH1 0x1F DUP4 GT PUSH1 0x1 DUP2 EQ PUSH2 0x2642 JUMPI PUSH0 DUP5 ISZERO PUSH2 0x2630 JUMPI DUP3 DUP8 ADD MLOAD SWAP1 POP JUMPDEST PUSH2 0x263A DUP6 DUP3 PUSH2 0x25BF JUMP JUMPDEST DUP7 SSTORE POP PUSH2 0x26A1 JUMP JUMPDEST PUSH1 0x1F NOT DUP5 AND PUSH2 0x2650 DUP7 PUSH2 0x243A JUMP JUMPDEST PUSH0 JUMPDEST DUP3 DUP2 LT ISZERO PUSH2 0x2677 JUMPI DUP5 DUP10 ADD MLOAD DUP3 SSTORE PUSH1 0x1 DUP3 ADD SWAP2 POP PUSH1 0x20 DUP6 ADD SWAP5 POP PUSH1 0x20 DUP2 ADD SWAP1 POP PUSH2 0x2652 JUMP JUMPDEST DUP7 DUP4 LT ISZERO PUSH2 0x2694 JUMPI DUP5 DUP10 ADD MLOAD PUSH2 0x2690 PUSH1 0x1F DUP10 AND DUP3 PUSH2 0x25A3 JUMP JUMPDEST DUP4 SSTORE POP JUMPDEST PUSH1 0x1 PUSH1 0x2 DUP9 MUL ADD DUP9 SSTORE POP POP POP JUMPDEST POP POP POP POP POP POP JUMP JUMPDEST PUSH32 0x4E487B7100000000000000000000000000000000000000000000000000000000 PUSH0 MSTORE PUSH1 0x11 PUSH1 0x4 MSTORE PUSH1 0x24 PUSH0 REVERT JUMPDEST PUSH0 PUSH2 0x26E0 DUP3 PUSH2 0x1C7A JUMP JUMPDEST SWAP2 POP PUSH32 0xFFFFFFFFFFFFFFFFFFFFFFFFFFFFFFFFFFFFFFFFFFFFFFFFFFFFFFFFFFFFFFFF DUP3 SUB PUSH2 0x2712 JUMPI PUSH2 0x2711 PUSH2 0x26A9 JUMP JUMPDEST JUMPDEST PUSH1 0x1 DUP3 ADD SWAP1 POP SWAP2 SWAP1 POP JUMP JUMPDEST PUSH0 PUSH2 0x2727 DUP3 PUSH2 0x1C7A JUMP JUMPDEST SWAP2 POP PUSH2 0x2732 DUP4 PUSH2 0x1C7A JUMP JUMPDEST SWAP3 POP DUP3 DUP3 SUB SWAP1 POP DUP2 DUP2 GT ISZERO PUSH2 0x274A JUMPI PUSH2 0x2749 PUSH2 0x26A9 JUMP JUMPDEST JUMPDEST SWAP3 SWAP2 POP POP JUMP JUMPDEST PUSH32 0x5175616E746964616465206D6178696D61206465206A757261646F7300000000 PUSH0 DUP3 ADD MSTORE POP JUMP JUMPDEST PUSH0 PUSH2 0x2784 PUSH1 0x1C DUP4 PUSH2 0x1D07 JUMP JUMPDEST SWAP2 POP PUSH2 0x278F DUP3 PUSH2 0x2750 JUMP JUMPDEST PUSH1 0x20 DUP3 ADD SWAP1 POP SWAP2 SWAP1 POP JUMP JUMPDEST PUSH0 PUSH1 0x20 DUP3 ADD SWAP1 POP DUP2 DUP2 SUB PUSH0 DUP4 ADD MSTORE PUSH2 0x27B1 DUP2 PUSH2 0x2778 JUMP JUMPDEST SWAP1 POP SWAP2 SWAP1 POP JUMP JUMPDEST PUSH32 0x4E6F7461206E616F20656E636F6E747261646100000000000000000000000000 PUSH0 DUP3 ADD MSTORE POP JUMP JUMPDEST PUSH0 PUSH2 0x27EC PUSH1 0x13 DUP4 PUSH2 0x1D07 JUMP JUMPDEST SWAP2 POP PUSH2 0x27F7 DUP3 PUSH2 0x27B8 JUMP JUMPDEST PUSH1 0x20 DUP3 ADD SWAP1 POP SWAP2 SWAP1 POP JUMP JUMPDEST PUSH0 PUSH1 0x20 DUP3 ADD SWAP1 POP DUP2 DUP2 SUB PUSH0 DUP4 ADD MSTORE PUSH2 0x2819 DUP2 PUSH2 0x27E0 JUMP JUMPDEST SWAP1 POP SWAP2 SWAP1 POP JUMP JUMPDEST PUSH32 0x5175616E746964616465206D6178696D61206465206573636F6C617300000000 PUSH0 DUP3 ADD MSTORE POP JUMP JUMPDEST PUSH0 PUSH2 0x2854 PUSH1 0x1C DUP4 PUSH2 0x1D07 JUMP JUMPDEST SWAP2 POP PUSH2 0x285F DUP3 PUSH2 0x2820 JUMP JUMPDEST PUSH1 0x20 DUP3 ADD SWAP1 POP SWAP2 SWAP1 POP JUMP JUMPDEST PUSH0 PUSH1 0x20 DUP3 ADD SWAP1 POP DUP2 DUP2 SUB PUSH0 DUP4 ADD MSTORE PUSH2 0x2881 DUP2 PUSH2 0x2848 JUMP JUMPDEST SWAP1 POP SWAP2 SWAP1 POP JUMP JUMPDEST PUSH0 PUSH1 0x60 DUP3 ADD SWAP1 POP PUSH2 0x289B PUSH0 DUP4 ADD DUP7 PUSH2 0x201E JUMP JUMPDEST PUSH2 0x28A8 PUSH1 0x20 DUP4 ADD DUP6 PUSH2 0x1FCB JUMP JUMPDEST PUSH2 0x28B5 PUSH1 0x40 DUP4 ADD DUP5 PUSH2 0x1FCB JUMP JUMPDEST SWAP5 SWAP4 POP POP POP POP JUMP JUMPDEST PUSH0 PUSH2 0x28C7 DUP3 PUSH2 0x1C7A JUMP JUMPDEST SWAP2 POP PUSH2 0x28D2 DUP4 PUSH2 0x1C7A JUMP JUMPDEST SWAP3 POP DUP3 DUP3 ADD SWAP1 POP DUP1 DUP3 GT ISZERO PUSH2 0x28EA JUMPI PUSH2 0x28E9 PUSH2 0x26A9 JUMP JUMPDEST JUMPDEST SWAP3 SWAP2 POP POP JUMP INVALID LOG2 PUSH5 0x6970667358 0x22 SLT KECCAK256 SUB BLOBHASH 0x2D NUMBER RETURNDATACOPY 0xD4 PUSH17 0x31B5EE5A29AEBC423077CB2F630FF2BC32 DELEGATECALL PUSH16 0xF4DD5AF7A16E64736F6C634300081C00 CALLER "
				},
				"gasEstimates": {
					"creation": {
						"codeDepositCost": "2106800",
						"executionCost": "infinite",
						"totalCost": "infinite"
					},
					"external": {
						"addEscola(string)": "infinite",
						"addJurado(string)": "infinite",
						"addQuesito(string)": "infinite",
						"allowance(address,address)": "infinite",
						"approve(address,uint256)": "infinite",
						"balanceOf(address)": "2851",
						"decimals()": "427",
						"escolas(uint256)": "infinite",
						"getNota(uint256,uint256)": "infinite",
						"jurados(address)": "infinite",
						"limparDados()": "infinite",
						"name()": "infinite",
						"notas(uint256)": "infinite",
						"notasPorEscolaQuesito(uint256,uint256)": "infinite",
						"owner()": "2553",
						"quantidadeJurados(uint256)": "infinite",
						"quesitos(uint256)": "infinite",
						"registrarNota(uint256,uint256,uint256)": "infinite",
						"symbol()": "infinite",
						"totalSupply()": "2455",
						"transfer(address,uint256)": "infinite",
						"transferFrom(address,address,uint256)": "infinite"
					}
				},
				"methodIdentifiers": {
					"addEscola(string)": "bb7b3671",
					"addJurado(string)": "3bdff5ba",
					"addQuesito(string)": "140b24f5",
					"allowance(address,address)": "dd62ed3e",
					"approve(address,uint256)": "095ea7b3",
					"balanceOf(address)": "70a08231",
					"decimals()": "313ce567",
					"escolas(uint256)": "d3dea54d",
					"getNota(uint256,uint256)": "66885744",
					"jurados(address)": "1f12a015",
					"limparDados()": "e49a39dc",
					"name()": "06fdde03",
					"notas(uint256)": "162f17a9",
					"notasPorEscolaQuesito(uint256,uint256)": "a916b987",
					"owner()": "8da5cb5b",
					"quantidadeJurados(uint256)": "e2eae4db",
					"quesitos(uint256)": "eb75e0b8",
					"registrarNota(uint256,uint256,uint256)": "05ae501e",
					"symbol()": "95d89b41",
					"totalSupply()": "18160ddd",
					"transfer(address,uint256)": "a9059cbb",
					"transferFrom(address,address,uint256)": "23b872dd"
				}
			},
			"storageLayout": {
				"storage": [
					{
						"astId": 159,
						"contract": "Qsito/carnaval.sol:CarnavalScores",
						"label": "_balances",
						"offset": 0,
						"slot": "0",
						"type": "t_mapping(t_address,t_uint256)"
					},
					{
						"astId": 165,
						"contract": "Qsito/carnaval.sol:CarnavalScores",
						"label": "_allowances",
						"offset": 0,
						"slot": "1",
						"type": "t_mapping(t_address,t_mapping(t_address,t_uint256))"
					},
					{
						"astId": 167,
						"contract": "Qsito/carnaval.sol:CarnavalScores",
						"label": "_totalSupply",
						"offset": 0,
						"slot": "2",
						"type": "t_uint256"
					},
					{
						"astId": 169,
						"contract": "Qsito/carnaval.sol:CarnavalScores",
						"label": "_name",
						"offset": 0,
						"slot": "3",
						"type": "t_string_storage"
					},
					{
						"astId": 171,
						"contract": "Qsito/carnaval.sol:CarnavalScores",
						"label": "_symbol",
						"offset": 0,
						"slot": "4",
						"type": "t_string_storage"
					},
					{
						"astId": 828,
						"contract": "Qsito/carnaval.sol:CarnavalScores",
						"label": "quantidadeJurados",
						"offset": 0,
						"slot": "5",
						"type": "t_array(t_struct(Jurado)795_storage)36_storage"
					},
					{
						"astId": 833,
						"contract": "Qsito/carnaval.sol:CarnavalScores",
						"label": "escolas",
						"offset": 0,
						"slot": "77",
						"type": "t_array(t_struct(Escola)800_storage)15_storage"
					},
					{
						"astId": 838,
						"contract": "Qsito/carnaval.sol:CarnavalScores",
						"label": "quesitos",
						"offset": 0,
						"slot": "107",
						"type": "t_array(t_struct(Quesito)805_storage)9_storage"
					},
					{
						"astId": 842,
						"contract": "Qsito/carnaval.sol:CarnavalScores",
						"label": "notas",
						"offset": 0,
						"slot": "125",
						"type": "t_array(t_struct(Nota)814_storage)dyn_storage"
					},
					{
						"astId": 847,
						"contract": "Qsito/carnaval.sol:CarnavalScores",
						"label": "jurados",
						"offset": 0,
						"slot": "126",
						"type": "t_mapping(t_address,t_struct(Jurado)795_storage)"
					},
					{
						"astId": 854,
						"contract": "Qsito/carnaval.sol:CarnavalScores",
						"label": "notasPorEscolaQuesito",
						"offset": 0,
						"slot": "127",
						"type": "t_mapping(t_uint256,t_mapping(t_uint256,t_struct(Nota)814_storage))"
					},
					{
						"astId": 856,
						"contract": "Qsito/carnaval.sol:CarnavalScores",
						"label": "owner",
						"offset": 0,
						"slot": "128",
						"type": "t_address"
					},
					{
						"astId": 884,
						"contract": "Qsito/carnaval.sol:CarnavalScores",
						"label": "_currentJuradoIndex",
						"offset": 0,
						"slot": "129",
						"type": "t_uint256"
					},
					{
						"astId": 887,
						"contract": "Qsito/carnaval.sol:CarnavalScores",
						"label": "_currentEscolaIndex",
						"offset": 0,
						"slot": "130",
						"type": "t_uint256"
					},
					{
						"astId": 890,
						"contract": "Qsito/carnaval.sol:CarnavalScores",
						"label": "_currentQuesitoIndex",
						"offset": 0,
						"slot": "131",
						"type": "t_uint256"
					}
				],
				"types": {
					"t_address": {
						"encoding": "inplace",
						"label": "address",
						"numberOfBytes": "20"
					},
					"t_array(t_struct(Escola)800_storage)15_storage": {
						"base": "t_struct(Escola)800_storage",
						"encoding": "inplace",
						"label": "struct CarnavalScores.Escola[15]",
						"numberOfBytes": "960"
					},
					"t_array(t_struct(Jurado)795_storage)36_storage": {
						"base": "t_struct(Jurado)795_storage",
						"encoding": "inplace",
						"label": "struct CarnavalScores.Jurado[36]",
						"numberOfBytes": "2304"
					},
					"t_array(t_struct(Nota)814_storage)dyn_storage": {
						"base": "t_struct(Nota)814_storage",
						"encoding": "dynamic_array",
						"label": "struct CarnavalScores.Nota[]",
						"numberOfBytes": "32"
					},
					"t_array(t_struct(Quesito)805_storage)9_storage": {
						"base": "t_struct(Quesito)805_storage",
						"encoding": "inplace",
						"label": "struct CarnavalScores.Quesito[9]",
						"numberOfBytes": "576"
					},
					"t_mapping(t_address,t_mapping(t_address,t_uint256))": {
						"encoding": "mapping",
						"key": "t_address",
						"label": "mapping(address => mapping(address => uint256))",
						"numberOfBytes": "32",
						"value": "t_mapping(t_address,t_uint256)"
					},
					"t_mapping(t_address,t_struct(Jurado)795_storage)": {
						"encoding": "mapping",
						"key": "t_address",
						"label": "mapping(address => struct CarnavalScores.Jurado)",
						"numberOfBytes": "32",
						"value": "t_struct(Jurado)795_storage"
					},
					"t_mapping(t_address,t_uint256)": {
						"encoding": "mapping",
						"key": "t_address",
						"label": "mapping(address => uint256)",
						"numberOfBytes": "32",
						"value": "t_uint256"
					},
					"t_mapping(t_uint256,t_mapping(t_uint256,t_struct(Nota)814_storage))": {
						"encoding": "mapping",
						"key": "t_uint256",
						"label": "mapping(uint256 => mapping(uint256 => struct CarnavalScores.Nota))",
						"numberOfBytes": "32",
						"value": "t_mapping(t_uint256,t_struct(Nota)814_storage)"
					},
					"t_mapping(t_uint256,t_struct(Nota)814_storage)": {
						"encoding": "mapping",
						"key": "t_uint256",
						"label": "mapping(uint256 => struct CarnavalScores.Nota)",
						"numberOfBytes": "32",
						"value": "t_struct(Nota)814_storage"
					},
					"t_string_storage": {
						"encoding": "bytes",
						"label": "string",
						"numberOfBytes": "32"
					},
					"t_struct(Escola)800_storage": {
						"encoding": "inplace",
						"label": "struct CarnavalScores.Escola",
						"members": [
							{
								"astId": 797,
								"contract": "Qsito/carnaval.sol:CarnavalScores",
								"label": "id",
								"offset": 0,
								"slot": "0",
								"type": "t_uint256"
							},
							{
								"astId": 799,
								"contract": "Qsito/carnaval.sol:CarnavalScores",
								"label": "nome",
								"offset": 0,
								"slot": "1",
								"type": "t_string_storage"
							}
						],
						"numberOfBytes": "64"
					},
					"t_struct(Jurado)795_storage": {
						"encoding": "inplace",
						"label": "struct CarnavalScores.Jurado",
						"members": [
							{
								"astId": 792,
								"contract": "Qsito/carnaval.sol:CarnavalScores",
								"label": "endereco",
								"offset": 0,
								"slot": "0",
								"type": "t_address"
							},
							{
								"astId": 794,
								"contract": "Qsito/carnaval.sol:CarnavalScores",
								"label": "nome",
								"offset": 0,
								"slot": "1",
								"type": "t_string_storage"
							}
						],
						"numberOfBytes": "64"
					},
					"t_struct(Nota)814_storage": {
						"encoding": "inplace",
						"label": "struct CarnavalScores.Nota",
						"members": [
							{
								"astId": 807,
								"contract": "Qsito/carnaval.sol:CarnavalScores",
								"label": "escolaId",
								"offset": 0,
								"slot": "0",
								"type": "t_uint256"
							},
							{
								"astId": 809,
								"contract": "Qsito/carnaval.sol:CarnavalScores",
								"label": "quesitoId",
								"offset": 0,
								"slot": "1",
								"type": "t_uint256"
							},
							{
								"astId": 811,
								"contract": "Qsito/carnaval.sol:CarnavalScores",
								"label": "juradoId",
								"offset": 0,
								"slot": "2",
								"type": "t_address"
							},
							{
								"astId": 813,
								"contract": "Qsito/carnaval.sol:CarnavalScores",
								"label": "nota",
								"offset": 0,
								"slot": "3",
								"type": "t_uint256"
							}
						],
						"numberOfBytes": "128"
					},
					"t_struct(Quesito)805_storage": {
						"encoding": "inplace",
						"label": "struct CarnavalScores.Quesito",
						"members": [
							{
								"astId": 802,
								"contract": "Qsito/carnaval.sol:CarnavalScores",
								"label": "id",
								"offset": 0,
								"slot": "0",
								"type": "t_uint256"
							},
							{
								"astId": 804,
								"contract": "Qsito/carnaval.sol:CarnavalScores",
								"label": "nome",
								"offset": 0,
								"slot": "1",
								"type": "t_string_storage"
							}
						],
						"numberOfBytes": "64"
					},
					"t_uint256": {
						"encoding": "inplace",
						"label": "uint256",
						"numberOfBytes": "32"
					}
				}
			},
			"userdoc": {
				"kind": "user",
				"methods": {},
				"version": 1
			}
		}
	}
}