{
	"Qsito/carnaval.sol": {
		"CarnavalScores": {
			"abi": [
				{
					"inputs": [],
					"stateMutability": "nonpayable",
					"type": "constructor"
				},
				{
					"inputs": [
						{
							"internalType": "address",
							"name": "spender",
							"type": "address"
						},
						{
							"internalType": "uint256",
							"name": "allowance",
							"type": "uint256"
						},
						{
							"internalType": "uint256",
							"name": "needed",
							"type": "uint256"
						}
					],
					"name": "ERC20InsufficientAllowance",
					"type": "error"
				},
				{
					"inputs": [
						{
							"internalType": "address",
							"name": "sender",
							"type": "address"
						},
						{
							"internalType": "uint256",
							"name": "balance",
							"type": "uint256"
						},
						{
							"internalType": "uint256",
							"name": "needed",
							"type": "uint256"
						}
					],
					"name": "ERC20InsufficientBalance",
					"type": "error"
				},
				{
					"inputs": [
						{
							"internalType": "address",
							"name": "approver",
							"type": "address"
						}
					],
					"name": "ERC20InvalidApprover",
					"type": "error"
				},
				{
					"inputs": [
						{
							"internalType": "address",
							"name": "receiver",
							"type": "address"
						}
					],
					"name": "ERC20InvalidReceiver",
					"type": "error"
				},
				{
					"inputs": [
						{
							"internalType": "address",
							"name": "sender",
							"type": "address"
						}
					],
					"name": "ERC20InvalidSender",
					"type": "error"
				},
				{
					"inputs": [
						{
							"internalType": "address",
							"name": "spender",
							"type": "address"
						}
					],
					"name": "ERC20InvalidSpender",
					"type": "error"
				},
				{
					"anonymous": false,
					"inputs": [
						{
							"indexed": true,
							"internalType": "address",
							"name": "owner",
							"type": "address"
						},
						{
							"indexed": true,
							"internalType": "address",
							"name": "spender",
							"type": "address"
						},
						{
							"indexed": false,
							"internalType": "uint256",
							"name": "value",
							"type": "uint256"
						}
					],
					"name": "Approval",
					"type": "event"
				},
				{
					"anonymous": false,
					"inputs": [
						{
							"indexed": false,
							"internalType": "uint256",
							"name": "id",
							"type": "uint256"
						},
						{
							"indexed": false,
							"internalType": "string",
							"name": "_nome",
							"type": "string"
						}
					],
					"name": "EscolaAdicionada",
					"type": "event"
				},
				{
					"anonymous": false,
					"inputs": [
						{
							"indexed": true,
							"internalType": "address",
							"name": "jurado",
							"type": "address"
						},
						{
							"indexed": false,
							"internalType": "string",
							"name": "_nome",
							"type": "string"
						}
					],
					"name": "JuradoAdicionado",
					"type": "event"
				},
				{
					"anonymous": false,
					"inputs": [
						{
							"indexed": false,
							"internalType": "uint8",
							"name": "id",
							"type": "uint8"
						},
						{
							"indexed": false,
							"internalType": "string",
							"name": "_nome",
							"type": "string"
						}
					],
					"name": "QuesitoAdicionado",
					"type": "event"
				},
				{
					"anonymous": false,
					"inputs": [
						{
							"indexed": true,
							"internalType": "address",
							"name": "from",
							"type": "address"
						},
						{
							"indexed": true,
							"internalType": "address",
							"name": "to",
							"type": "address"
						},
						{
							"indexed": false,
							"internalType": "uint256",
							"name": "value",
							"type": "uint256"
						}
					],
					"name": "Transfer",
					"type": "event"
				},
				{
					"inputs": [
						{
							"internalType": "string",
							"name": "_nomeEscola",
							"type": "string"
						}
					],
					"name": "addEscola",
					"outputs": [
						{
							"internalType": "uint256",
							"name": "",
							"type": "uint256"
						}
					],
					"stateMutability": "nonpayable",
					"type": "function"
				},
				{
					"inputs": [
						{
							"internalType": "string",
							"name": "_nomeJurado",
							"type": "string"
						}
					],
					"name": "addJurado",
					"outputs": [
						{
							"internalType": "uint256",
							"name": "",
							"type": "uint256"
						}
					],
					"stateMutability": "nonpayable",
					"type": "function"
				},
				{
					"inputs": [
						{
							"internalType": "string",
							"name": "_nomeQuesito",
							"type": "string"
						}
					],
					"name": "addQuesito",
					"outputs": [
						{
							"internalType": "uint256",
							"name": "",
							"type": "uint256"
						}
					],
					"stateMutability": "nonpayable",
					"type": "function"
				},
				{
					"inputs": [
						{
							"internalType": "address",
							"name": "owner",
							"type": "address"
						},
						{
							"internalType": "address",
							"name": "spender",
							"type": "address"
						}
					],
					"name": "allowance",
					"outputs": [
						{
							"internalType": "uint256",
							"name": "",
							"type": "uint256"
						}
					],
					"stateMutability": "view",
					"type": "function"
				},
				{
					"inputs": [
						{
							"internalType": "address",
							"name": "spender",
							"type": "address"
						},
						{
							"internalType": "uint256",
							"name": "value",
							"type": "uint256"
						}
					],
					"name": "approve",
					"outputs": [
						{
							"internalType": "bool",
							"name": "",
							"type": "bool"
						}
					],
					"stateMutability": "nonpayable",
					"type": "function"
				},
				{
					"inputs": [
						{
							"internalType": "address",
							"name": "account",
							"type": "address"
						}
					],
					"name": "balanceOf",
					"outputs": [
						{
							"internalType": "uint256",
							"name": "",
							"type": "uint256"
						}
					],
					"stateMutability": "view",
					"type": "function"
				},
				{
					"inputs": [],
					"name": "decimals",
					"outputs": [
						{
							"internalType": "uint8",
							"name": "",
							"type": "uint8"
						}
					],
					"stateMutability": "view",
					"type": "function"
				},
				{
					"inputs": [
						{
							"internalType": "uint256",
							"name": "",
							"type": "uint256"
						}
					],
					"name": "escolas",
					"outputs": [
						{
							"internalType": "uint256",
							"name": "id",
							"type": "uint256"
						},
						{
							"internalType": "string",
							"name": "nome",
							"type": "string"
						}
					],
					"stateMutability": "view",
					"type": "function"
				},
				{
					"inputs": [
						{
							"internalType": "uint256",
							"name": "_escolaId",
							"type": "uint256"
						},
						{
							"internalType": "uint256",
							"name": "_quesitoId",
							"type": "uint256"
						}
					],
					"name": "getNota",
					"outputs": [
						{
							"internalType": "uint256",
							"name": "",
							"type": "uint256"
						}
					],
					"stateMutability": "view",
					"type": "function"
				},
				{
					"inputs": [
						{
							"internalType": "address",
							"name": "",
							"type": "address"
						}
					],
					"name": "jurados",
					"outputs": [
						{
							"internalType": "address",
							"name": "endereco",
							"type": "address"
						},
						{
							"internalType": "string",
							"name": "nome",
							"type": "string"
						}
					],
					"stateMutability": "view",
					"type": "function"
				},
				{
					"inputs": [],
					"name": "limparDados",
					"outputs": [],
					"stateMutability": "nonpayable",
					"type": "function"
				},
				{
					"inputs": [],
					"name": "name",
					"outputs": [
						{
							"internalType": "string",
							"name": "",
							"type": "string"
						}
					],
					"stateMutability": "view",
					"type": "function"
				},
				{
					"inputs": [
						{
							"internalType": "uint256",
							"name": "",
							"type": "uint256"
						}
					],
					"name": "notas",
					"outputs": [
						{
							"internalType": "uint256",
							"name": "escolaId",
							"type": "uint256"
						},
						{
							"internalType": "uint256",
							"name": "quesitoId",
							"type": "uint256"
						},
						{
							"internalType": "address",
							"name": "juradoId",
							"type": "address"
						},
						{
							"internalType": "uint256",
							"name": "nota",
							"type": "uint256"
						}
					],
					"stateMutability": "view",
					"type": "function"
				},
				{
					"inputs": [
						{
							"internalType": "uint256",
							"name": "",
							"type": "uint256"
						},
						{
							"internalType": "uint256",
							"name": "",
							"type": "uint256"
						}
					],
					"name": "notasPorEscolaQuesito",
					"outputs": [
						{
							"internalType": "uint256",
							"name": "escolaId",
							"type": "uint256"
						},
						{
							"internalType": "uint256",
							"name": "quesitoId",
							"type": "uint256"
						},
						{
							"internalType": "address",
							"name": "juradoId",
							"type": "address"
						},
						{
							"internalType": "uint256",
							"name": "nota",
							"type": "uint256"
						}
					],
					"stateMutability": "view",
					"type": "function"
				},
				{
					"inputs": [
						{
							"internalType": "uint256",
							"name": "",
							"type": "uint256"
						}
					],
					"name": "quantidadeJurados",
					"outputs": [
						{
							"internalType": "address",
							"name": "endereco",
							"type": "address"
						},
						{
							"internalType": "string",
							"name": "nome",
							"type": "string"
						}
					],
					"stateMutability": "view",
					"type": "function"
				},
				{
					"inputs": [
						{
							"internalType": "uint256",
							"name": "",
							"type": "uint256"
						}
					],
					"name": "quesitos",
					"outputs": [
						{
							"internalType": "uint256",
							"name": "id",
							"type": "uint256"
						},
						{
							"internalType": "string",
							"name": "nome",
							"type": "string"
						}
					],
					"stateMutability": "view",
					"type": "function"
				},
				{
					"inputs": [
						{
							"internalType": "uint8",
							"name": "_escolaId",
							"type": "uint8"
						},
						{
							"internalType": "uint8",
							"name": "_quesitoId",
							"type": "uint8"
						},
						{
							"internalType": "uint16",
							"name": "_nota",
							"type": "uint16"
						}
					],
					"name": "registrarNota",
					"outputs": [],
					"stateMutability": "nonpayable",
					"type": "function"
				},
				{
					"inputs": [],
					"name": "symbol",
					"outputs": [
						{
							"internalType": "string",
							"name": "",
							"type": "string"
						}
					],
					"stateMutability": "view",
					"type": "function"
				},
				{
					"inputs": [],
					"name": "totalSupply",
					"outputs": [
						{
							"internalType": "uint256",
							"name": "",
							"type": "uint256"
						}
					],
					"stateMutability": "view",
					"type": "function"
				},
				{
					"inputs": [
						{
							"internalType": "address",
							"name": "to",
							"type": "address"
						},
						{
							"internalType": "uint256",
							"name": "value",
							"type": "uint256"
						}
					],
					"name": "transfer",
					"outputs": [
						{
							"internalType": "bool",
							"name": "",
							"type": "bool"
						}
					],
					"stateMutability": "nonpayable",
					"type": "function"
				},
				{
					"inputs": [
						{
							"internalType": "address",
							"name": "from",
							"type": "address"
						},
						{
							"internalType": "address",
							"name": "to",
							"type": "address"
						},
						{
							"internalType": "uint256",
							"name": "value",
							"type": "uint256"
						}
					],
					"name": "transferFrom",
					"outputs": [
						{
							"internalType": "bool",
							"name": "",
							"type": "bool"
						}
					],
					"stateMutability": "nonpayable",
					"type": "function"
				}
			],
			"devdoc": {
				"errors": {
					"ERC20InsufficientAllowance(address,uint256,uint256)": [
						{
							"details": "Indicates a failure with the `spender`’s `allowance`. Used in transfers.",
							"params": {
								"allowance": "Amount of tokens a `spender` is allowed to operate with.",
								"needed": "Minimum amount required to perform a transfer.",
								"spender": "Address that may be allowed to operate on tokens without being their owner."
							}
						}
					],
					"ERC20InsufficientBalance(address,uint256,uint256)": [
						{
							"details": "Indicates an error related to the current `balance` of a `sender`. Used in transfers.",
							"params": {
								"balance": "Current balance for the interacting account.",
								"needed": "Minimum amount required to perform a transfer.",
								"sender": "Address whose tokens are being transferred."
							}
						}
					],
					"ERC20InvalidApprover(address)": [
						{
							"details": "Indicates a failure with the `approver` of a token to be approved. Used in approvals.",
							"params": {
								"approver": "Address initiating an approval operation."
							}
						}
					],
					"ERC20InvalidReceiver(address)": [
						{
							"details": "Indicates a failure with the token `receiver`. Used in transfers.",
							"params": {
								"receiver": "Address to which tokens are being transferred."
							}
						}
					],
					"ERC20InvalidSender(address)": [
						{
							"details": "Indicates a failure with the token `sender`. Used in transfers.",
							"params": {
								"sender": "Address whose tokens are being transferred."
							}
						}
					],
					"ERC20InvalidSpender(address)": [
						{
							"details": "Indicates a failure with the `spender` to be approved. Used in approvals.",
							"params": {
								"spender": "Address that may be allowed to operate on tokens without being their owner."
							}
						}
					]
				},
				"events": {
					"Approval(address,address,uint256)": {
						"details": "Emitted when the allowance of a `spender` for an `owner` is set by a call to {approve}. `value` is the new allowance."
					},
					"Transfer(address,address,uint256)": {
						"details": "Emitted when `value` tokens are moved from one account (`from`) to another (`to`). Note that `value` may be zero."
					}
				},
				"kind": "dev",
				"methods": {
					"allowance(address,address)": {
						"details": "See {IERC20-allowance}."
					},
					"approve(address,uint256)": {
						"details": "See {IERC20-approve}. NOTE: If `value` is the maximum `uint256`, the allowance is not updated on `transferFrom`. This is semantically equivalent to an infinite approval. Requirements: - `spender` cannot be the zero address."
					},
					"balanceOf(address)": {
						"details": "See {IERC20-balanceOf}."
					},
					"decimals()": {
						"details": "Returns the number of decimals used to get its user representation. For example, if `decimals` equals `2`, a balance of `505` tokens should be displayed to a user as `5.05` (`505 / 10 ** 2`). Tokens usually opt for a value of 18, imitating the relationship between Ether and Wei. This is the default value returned by this function, unless it's overridden. NOTE: This information is only used for _display_ purposes: it in no way affects any of the arithmetic of the contract, including {IERC20-balanceOf} and {IERC20-transfer}."
					},
					"name()": {
						"details": "Returns the name of the token."
					},
					"symbol()": {
						"details": "Returns the symbol of the token, usually a shorter version of the name."
					},
					"totalSupply()": {
						"details": "See {IERC20-totalSupply}."
					},
					"transfer(address,uint256)": {
						"details": "See {IERC20-transfer}. Requirements: - `to` cannot be the zero address. - the caller must have a balance of at least `value`."
					},
					"transferFrom(address,address,uint256)": {
						"details": "See {IERC20-transferFrom}. Skips emitting an {Approval} event indicating an allowance update. This is not required by the ERC. See {xref-ERC20-_approve-address-address-uint256-bool-}[_approve]. NOTE: Does not update the allowance if the current allowance is the maximum `uint256`. Requirements: - `from` and `to` cannot be the zero address. - `from` must have a balance of at least `value`. - the caller must have allowance for ``from``'s tokens of at least `value`."
					}
				},
				"version": 1
			},
			"evm": {
				"assembly": "    /* \"Qsito/carnaval.sol\":119:4005  contract CarnavalScores is ERC20 {... */\n  mstore(0x40, 0x80)\n    /* \"Qsito/carnaval.sol\":1128:1129  0 */\n  0x00\n    /* \"Qsito/carnaval.sol\":1093:1129  uint8 private currentJuradoIndex = 0 */\n  0x80\n  exp(0x0100, 0x00)\n  dup2\n  sload\n  dup2\n  0xff\n  mul\n  not\n  and\n  swap1\n  dup4\n  0xff\n  and\n  mul\n  or\n  swap1\n  sstore\n  pop\n    /* \"Qsito/carnaval.sol\":1171:1172  0 */\n  0x00\n    /* \"Qsito/carnaval.sol\":1136:1172  uint8 private currentEscolaIndex = 0 */\n  0x80\n  exp(0x0100, 0x01)\n  dup2\n  sload\n  dup2\n  0xff\n  mul\n  not\n  and\n  swap1\n  dup4\n  0xff\n  and\n  mul\n  or\n  swap1\n  sstore\n  pop\n    /* \"Qsito/carnaval.sol\":1215:1216  0 */\n  0x00\n    /* \"Qsito/carnaval.sol\":1179:1216  uint8 private currentQuesitoIndex = 0 */\n  0x80\n  exp(0x0100, 0x02)\n  dup2\n  sload\n  dup2\n  0xff\n  mul\n  not\n  and\n  swap1\n  dup4\n  0xff\n  and\n  mul\n  or\n  swap1\n  sstore\n  pop\n    /* \"Qsito/carnaval.sol\":1032:1079  constructor() ERC20(\"CarnavalScores\", \"CCS\") {} */\n  callvalue\n  dup1\n  iszero\n  tag_1\n  jumpi\n  revert(0x00, 0x00)\ntag_1:\n  pop\n    /* \"@openzeppelin/contracts/token/ERC20/ERC20.sol\":1601:1714  constructor(string memory name_, string memory symbol_) {... */\n  mload(0x40)\n  dup1\n  0x40\n  add\n  0x40\n  mstore\n  dup1\n  0x0e\n  dup2\n  mstore\n  0x20\n  add\n  0x4361726e6176616c53636f726573000000000000000000000000000000000000\n  dup2\n  mstore\n  pop\n  mload(0x40)\n  dup1\n  0x40\n  add\n  0x40\n  mstore\n  dup1\n  0x03\n  dup2\n  mstore\n  0x20\n  add\n  0x4343530000000000000000000000000000000000000000000000000000000000\n  dup2\n  mstore\n  pop\n    /* \"@openzeppelin/contracts/token/ERC20/ERC20.sol\":1675:1680  name_ */\n  dup2\n    /* \"@openzeppelin/contracts/token/ERC20/ERC20.sol\":1667:1672  _name */\n  0x03\n    /* \"@openzeppelin/contracts/token/ERC20/ERC20.sol\":1667:1680  _name = name_ */\n  swap1\n  dup2\n  tag_5\n  swap2\n  swap1\n  tag_6\n  jump\t// in\ntag_5:\n  pop\n    /* \"@openzeppelin/contracts/token/ERC20/ERC20.sol\":1700:1707  symbol_ */\n  dup1\n    /* \"@openzeppelin/contracts/token/ERC20/ERC20.sol\":1690:1697  _symbol */\n  0x04\n    /* \"@openzeppelin/contracts/token/ERC20/ERC20.sol\":1690:1707  _symbol = symbol_ */\n  swap1\n  dup2\n  tag_7\n  swap2\n  swap1\n  tag_6\n  jump\t// in\ntag_7:\n  pop\n    /* \"@openzeppelin/contracts/token/ERC20/ERC20.sol\":1601:1714  constructor(string memory name_, string memory symbol_) {... */\n  pop\n  pop\n    /* \"Qsito/carnaval.sol\":119:4005  contract CarnavalScores is ERC20 {... */\n  jump(tag_9)\n    /* \"#utility.yul\":7:106   */\ntag_10:\n    /* \"#utility.yul\":59:65   */\n  0x00\n    /* \"#utility.yul\":93:98   */\n  dup2\n    /* \"#utility.yul\":87:99   */\n  mload\n    /* \"#utility.yul\":77:99   */\n  swap1\n  pop\n    /* \"#utility.yul\":7:106   */\n  swap2\n  swap1\n  pop\n  jump\t// out\n    /* \"#utility.yul\":112:292   */\ntag_11:\n    /* \"#utility.yul\":160:237   */\n  0x4e487b7100000000000000000000000000000000000000000000000000000000\n    /* \"#utility.yul\":157:158   */\n  0x00\n    /* \"#utility.yul\":150:238   */\n  mstore\n    /* \"#utility.yul\":257:261   */\n  0x41\n    /* \"#utility.yul\":254:255   */\n  0x04\n    /* \"#utility.yul\":247:262   */\n  mstore\n    /* \"#utility.yul\":281:285   */\n  0x24\n    /* \"#utility.yul\":278:279   */\n  0x00\n    /* \"#utility.yul\":271:286   */\n  revert\n    /* \"#utility.yul\":298:478   */\ntag_12:\n    /* \"#utility.yul\":346:423   */\n  0x4e487b7100000000000000000000000000000000000000000000000000000000\n    /* \"#utility.yul\":343:344   */\n  0x00\n    /* \"#utility.yul\":336:424   */\n  mstore\n    /* \"#utility.yul\":443:447   */\n  0x22\n    /* \"#utility.yul\":440:441   */\n  0x04\n    /* \"#utility.yul\":433:448   */\n  mstore\n    /* \"#utility.yul\":467:471   */\n  0x24\n    /* \"#utility.yul\":464:465   */\n  0x00\n    /* \"#utility.yul\":457:472   */\n  revert\n    /* \"#utility.yul\":484:804   */\ntag_13:\n    /* \"#utility.yul\":528:534   */\n  0x00\n    /* \"#utility.yul\":565:566   */\n  0x02\n    /* \"#utility.yul\":559:563   */\n  dup3\n    /* \"#utility.yul\":555:567   */\n  div\n    /* \"#utility.yul\":545:567   */\n  swap1\n  pop\n    /* \"#utility.yul\":612:613   */\n  0x01\n    /* \"#utility.yul\":606:610   */\n  dup3\n    /* \"#utility.yul\":602:614   */\n  and\n    /* \"#utility.yul\":633:651   */\n  dup1\n    /* \"#utility.yul\":623:704   */\n  tag_35\n  jumpi\n    /* \"#utility.yul\":689:693   */\n  0x7f\n    /* \"#utility.yul\":681:687   */\n  dup3\n    /* \"#utility.yul\":677:694   */\n  and\n    /* \"#utility.yul\":667:694   */\n  swap2\n  pop\n    /* \"#utility.yul\":623:704   */\ntag_35:\n    /* \"#utility.yul\":751:753   */\n  0x20\n    /* \"#utility.yul\":743:749   */\n  dup3\n    /* \"#utility.yul\":740:754   */\n  lt\n    /* \"#utility.yul\":720:738   */\n  dup2\n    /* \"#utility.yul\":717:755   */\n  sub\n    /* \"#utility.yul\":714:798   */\n  tag_36\n  jumpi\n    /* \"#utility.yul\":770:788   */\n  tag_37\n  tag_12\n  jump\t// in\ntag_37:\n    /* \"#utility.yul\":714:798   */\ntag_36:\n    /* \"#utility.yul\":535:804   */\n  pop\n    /* \"#utility.yul\":484:804   */\n  swap2\n  swap1\n  pop\n  jump\t// out\n    /* \"#utility.yul\":810:951   */\ntag_14:\n    /* \"#utility.yul\":859:863   */\n  0x00\n    /* \"#utility.yul\":882:885   */\n  dup2\n    /* \"#utility.yul\":874:885   */\n  swap1\n  pop\n    /* \"#utility.yul\":905:908   */\n  dup2\n    /* \"#utility.yul\":902:903   */\n  0x00\n    /* \"#utility.yul\":895:909   */\n  mstore\n    /* \"#utility.yul\":939:943   */\n  0x20\n    /* \"#utility.yul\":936:937   */\n  0x00\n    /* \"#utility.yul\":926:944   */\n  keccak256\n    /* \"#utility.yul\":918:944   */\n  swap1\n  pop\n    /* \"#utility.yul\":810:951   */\n  swap2\n  swap1\n  pop\n  jump\t// out\n    /* \"#utility.yul\":957:1050   */\ntag_15:\n    /* \"#utility.yul\":994:1000   */\n  0x00\n    /* \"#utility.yul\":1041:1043   */\n  0x20\n    /* \"#utility.yul\":1036:1038   */\n  0x1f\n    /* \"#utility.yul\":1029:1034   */\n  dup4\n    /* \"#utility.yul\":1025:1039   */\n  add\n    /* \"#utility.yul\":1021:1044   */\n  div\n    /* \"#utility.yul\":1011:1044   */\n  swap1\n  pop\n    /* \"#utility.yul\":957:1050   */\n  swap2\n  swap1\n  pop\n  jump\t// out\n    /* \"#utility.yul\":1056:1163   */\ntag_16:\n    /* \"#utility.yul\":1100:1108   */\n  0x00\n    /* \"#utility.yul\":1150:1155   */\n  dup3\n    /* \"#utility.yul\":1144:1148   */\n  dup3\n    /* \"#utility.yul\":1140:1156   */\n  shl\n    /* \"#utility.yul\":1119:1156   */\n  swap1\n  pop\n    /* \"#utility.yul\":1056:1163   */\n  swap3\n  swap2\n  pop\n  pop\n  jump\t// out\n    /* \"#utility.yul\":1169:1562   */\ntag_17:\n    /* \"#utility.yul\":1238:1244   */\n  0x00\n    /* \"#utility.yul\":1288:1289   */\n  0x08\n    /* \"#utility.yul\":1276:1286   */\n  dup4\n    /* \"#utility.yul\":1272:1290   */\n  mul\n    /* \"#utility.yul\":1311:1408   */\n  tag_42\n    /* \"#utility.yul\":1341:1407   */\n  0xffffffffffffffffffffffffffffffffffffffffffffffffffffffffffffffff\n    /* \"#utility.yul\":1330:1339   */\n  dup3\n    /* \"#utility.yul\":1311:1408   */\n  tag_16\n  jump\t// in\ntag_42:\n    /* \"#utility.yul\":1429:1468   */\n  tag_43\n    /* \"#utility.yul\":1459:1467   */\n  dup7\n    /* \"#utility.yul\":1448:1457   */\n  dup4\n    /* \"#utility.yul\":1429:1468   */\n  tag_16\n  jump\t// in\ntag_43:\n    /* \"#utility.yul\":1417:1468   */\n  swap6\n  pop\n    /* \"#utility.yul\":1501:1505   */\n  dup1\n    /* \"#utility.yul\":1497:1506   */\n  not\n    /* \"#utility.yul\":1490:1495   */\n  dup5\n    /* \"#utility.yul\":1486:1507   */\n  and\n    /* \"#utility.yul\":1477:1507   */\n  swap4\n  pop\n    /* \"#utility.yul\":1550:1554   */\n  dup1\n    /* \"#utility.yul\":1540:1548   */\n  dup7\n    /* \"#utility.yul\":1536:1555   */\n  and\n    /* \"#utility.yul\":1529:1534   */\n  dup5\n    /* \"#utility.yul\":1526:1556   */\n  or\n    /* \"#utility.yul\":1516:1556   */\n  swap3\n  pop\n    /* \"#utility.yul\":1245:1562   */\n  pop\n  pop\n    /* \"#utility.yul\":1169:1562   */\n  swap4\n  swap3\n  pop\n  pop\n  pop\n  jump\t// out\n    /* \"#utility.yul\":1568:1645   */\ntag_18:\n    /* \"#utility.yul\":1605:1612   */\n  0x00\n    /* \"#utility.yul\":1634:1639   */\n  dup2\n    /* \"#utility.yul\":1623:1639   */\n  swap1\n  pop\n    /* \"#utility.yul\":1568:1645   */\n  swap2\n  swap1\n  pop\n  jump\t// out\n    /* \"#utility.yul\":1651:1711   */\ntag_19:\n    /* \"#utility.yul\":1679:1682   */\n  0x00\n    /* \"#utility.yul\":1700:1705   */\n  dup2\n    /* \"#utility.yul\":1693:1705   */\n  swap1\n  pop\n    /* \"#utility.yul\":1651:1711   */\n  swap2\n  swap1\n  pop\n  jump\t// out\n    /* \"#utility.yul\":1717:1859   */\ntag_20:\n    /* \"#utility.yul\":1767:1776   */\n  0x00\n    /* \"#utility.yul\":1800:1853   */\n  tag_47\n    /* \"#utility.yul\":1818:1852   */\n  tag_48\n    /* \"#utility.yul\":1827:1851   */\n  tag_49\n    /* \"#utility.yul\":1845:1850   */\n  dup5\n    /* \"#utility.yul\":1827:1851   */\n  tag_18\n  jump\t// in\ntag_49:\n    /* \"#utility.yul\":1818:1852   */\n  tag_19\n  jump\t// in\ntag_48:\n    /* \"#utility.yul\":1800:1853   */\n  tag_18\n  jump\t// in\ntag_47:\n    /* \"#utility.yul\":1787:1853   */\n  swap1\n  pop\n    /* \"#utility.yul\":1717:1859   */\n  swap2\n  swap1\n  pop\n  jump\t// out\n    /* \"#utility.yul\":1865:1940   */\ntag_21:\n    /* \"#utility.yul\":1908:1911   */\n  0x00\n    /* \"#utility.yul\":1929:1934   */\n  dup2\n    /* \"#utility.yul\":1922:1934   */\n  swap1\n  pop\n    /* \"#utility.yul\":1865:1940   */\n  swap2\n  swap1\n  pop\n  jump\t// out\n    /* \"#utility.yul\":1946:2215   */\ntag_22:\n    /* \"#utility.yul\":2056:2095   */\n  tag_52\n    /* \"#utility.yul\":2087:2094   */\n  dup4\n    /* \"#utility.yul\":2056:2095   */\n  tag_20\n  jump\t// in\ntag_52:\n    /* \"#utility.yul\":2117:2208   */\n  tag_53\n    /* \"#utility.yul\":2166:2207   */\n  tag_54\n    /* \"#utility.yul\":2190:2206   */\n  dup3\n    /* \"#utility.yul\":2166:2207   */\n  tag_21\n  jump\t// in\ntag_54:\n    /* \"#utility.yul\":2158:2164   */\n  dup5\n    /* \"#utility.yul\":2151:2155   */\n  dup5\n    /* \"#utility.yul\":2145:2156   */\n  sload\n    /* \"#utility.yul\":2117:2208   */\n  tag_17\n  jump\t// in\ntag_53:\n    /* \"#utility.yul\":2111:2115   */\n  dup3\n    /* \"#utility.yul\":2104:2209   */\n  sstore\n    /* \"#utility.yul\":2022:2215   */\n  pop\n    /* \"#utility.yul\":1946:2215   */\n  pop\n  pop\n  pop\n  jump\t// out\n    /* \"#utility.yul\":2221:2294   */\ntag_23:\n    /* \"#utility.yul\":2266:2269   */\n  0x00\n    /* \"#utility.yul\":2287:2288   */\n  0x00\n    /* \"#utility.yul\":2280:2288   */\n  swap1\n  pop\n    /* \"#utility.yul\":2221:2294   */\n  swap1\n  jump\t// out\n    /* \"#utility.yul\":2300:2489   */\ntag_24:\n    /* \"#utility.yul\":2377:2409   */\n  tag_57\n  tag_23\n  jump\t// in\ntag_57:\n    /* \"#utility.yul\":2418:2483   */\n  tag_58\n    /* \"#utility.yul\":2476:2482   */\n  dup2\n    /* \"#utility.yul\":2468:2474   */\n  dup5\n    /* \"#utility.yul\":2462:2466   */\n  dup5\n    /* \"#utility.yul\":2418:2483   */\n  tag_22\n  jump\t// in\ntag_58:\n    /* \"#utility.yul\":2353:2489   */\n  pop\n    /* \"#utility.yul\":2300:2489   */\n  pop\n  pop\n  jump\t// out\n    /* \"#utility.yul\":2495:2681   */\ntag_25:\n    /* \"#utility.yul\":2555:2675   */\ntag_60:\n    /* \"#utility.yul\":2572:2575   */\n  dup2\n    /* \"#utility.yul\":2565:2570   */\n  dup2\n    /* \"#utility.yul\":2562:2576   */\n  lt\n    /* \"#utility.yul\":2555:2675   */\n  iszero\n  tag_62\n  jumpi\n    /* \"#utility.yul\":2626:2665   */\n  tag_63\n    /* \"#utility.yul\":2663:2664   */\n  0x00\n    /* \"#utility.yul\":2656:2661   */\n  dup3\n    /* \"#utility.yul\":2626:2665   */\n  tag_24\n  jump\t// in\ntag_63:\n    /* \"#utility.yul\":2599:2600   */\n  0x01\n    /* \"#utility.yul\":2592:2597   */\n  dup2\n    /* \"#utility.yul\":2588:2601   */\n  add\n    /* \"#utility.yul\":2579:2601   */\n  swap1\n  pop\n    /* \"#utility.yul\":2555:2675   */\n  jump(tag_60)\ntag_62:\n    /* \"#utility.yul\":2495:2681   */\n  pop\n  pop\n  jump\t// out\n    /* \"#utility.yul\":2687:3230   */\ntag_26:\n    /* \"#utility.yul\":2788:2790   */\n  0x1f\n    /* \"#utility.yul\":2783:2786   */\n  dup3\n    /* \"#utility.yul\":2780:2791   */\n  gt\n    /* \"#utility.yul\":2777:3223   */\n  iszero\n  tag_65\n  jumpi\n    /* \"#utility.yul\":2822:2860   */\n  tag_66\n    /* \"#utility.yul\":2854:2859   */\n  dup2\n    /* \"#utility.yul\":2822:2860   */\n  tag_14\n  jump\t// in\ntag_66:\n    /* \"#utility.yul\":2906:2935   */\n  tag_67\n    /* \"#utility.yul\":2924:2934   */\n  dup5\n    /* \"#utility.yul\":2906:2935   */\n  tag_15\n  jump\t// in\ntag_67:\n    /* \"#utility.yul\":2896:2904   */\n  dup2\n    /* \"#utility.yul\":2892:2936   */\n  add\n    /* \"#utility.yul\":3089:3091   */\n  0x20\n    /* \"#utility.yul\":3077:3087   */\n  dup6\n    /* \"#utility.yul\":3074:3092   */\n  lt\n    /* \"#utility.yul\":3071:3120   */\n  iszero\n  tag_68\n  jumpi\n    /* \"#utility.yul\":3110:3118   */\n  dup2\n    /* \"#utility.yul\":3095:3118   */\n  swap1\n  pop\n    /* \"#utility.yul\":3071:3120   */\ntag_68:\n    /* \"#utility.yul\":3133:3213   */\n  tag_69\n    /* \"#utility.yul\":3189:3211   */\n  tag_70\n    /* \"#utility.yul\":3207:3210   */\n  dup6\n    /* \"#utility.yul\":3189:3211   */\n  tag_15\n  jump\t// in\ntag_70:\n    /* \"#utility.yul\":3179:3187   */\n  dup4\n    /* \"#utility.yul\":3175:3212   */\n  add\n    /* \"#utility.yul\":3162:3173   */\n  dup3\n    /* \"#utility.yul\":3133:3213   */\n  tag_25\n  jump\t// in\ntag_69:\n    /* \"#utility.yul\":2792:3223   */\n  pop\n  pop\n    /* \"#utility.yul\":2777:3223   */\ntag_65:\n    /* \"#utility.yul\":2687:3230   */\n  pop\n  pop\n  pop\n  jump\t// out\n    /* \"#utility.yul\":3236:3353   */\ntag_27:\n    /* \"#utility.yul\":3290:3298   */\n  0x00\n    /* \"#utility.yul\":3340:3345   */\n  dup3\n    /* \"#utility.yul\":3334:3338   */\n  dup3\n    /* \"#utility.yul\":3330:3346   */\n  shr\n    /* \"#utility.yul\":3309:3346   */\n  swap1\n  pop\n    /* \"#utility.yul\":3236:3353   */\n  swap3\n  swap2\n  pop\n  pop\n  jump\t// out\n    /* \"#utility.yul\":3359:3528   */\ntag_28:\n    /* \"#utility.yul\":3403:3409   */\n  0x00\n    /* \"#utility.yul\":3436:3487   */\n  tag_73\n    /* \"#utility.yul\":3484:3485   */\n  0x00\n    /* \"#utility.yul\":3480:3486   */\n  not\n    /* \"#utility.yul\":3472:3477   */\n  dup5\n    /* \"#utility.yul\":3469:3470   */\n  0x08\n    /* \"#utility.yul\":3465:3478   */\n  mul\n    /* \"#utility.yul\":3436:3487   */\n  tag_27\n  jump\t// in\ntag_73:\n    /* \"#utility.yul\":3432:3488   */\n  not\n    /* \"#utility.yul\":3517:3521   */\n  dup1\n    /* \"#utility.yul\":3511:3515   */\n  dup4\n    /* \"#utility.yul\":3507:3522   */\n  and\n    /* \"#utility.yul\":3497:3522   */\n  swap2\n  pop\n    /* \"#utility.yul\":3410:3528   */\n  pop\n    /* \"#utility.yul\":3359:3528   */\n  swap3\n  swap2\n  pop\n  pop\n  jump\t// out\n    /* \"#utility.yul\":3533:3828   */\ntag_29:\n    /* \"#utility.yul\":3609:3613   */\n  0x00\n    /* \"#utility.yul\":3755:3784   */\n  tag_75\n    /* \"#utility.yul\":3780:3783   */\n  dup4\n    /* \"#utility.yul\":3774:3778   */\n  dup4\n    /* \"#utility.yul\":3755:3784   */\n  tag_28\n  jump\t// in\ntag_75:\n    /* \"#utility.yul\":3747:3784   */\n  swap2\n  pop\n    /* \"#utility.yul\":3817:3820   */\n  dup3\n    /* \"#utility.yul\":3814:3815   */\n  0x02\n    /* \"#utility.yul\":3810:3821   */\n  mul\n    /* \"#utility.yul\":3804:3808   */\n  dup3\n    /* \"#utility.yul\":3801:3822   */\n  or\n    /* \"#utility.yul\":3793:3822   */\n  swap1\n  pop\n    /* \"#utility.yul\":3533:3828   */\n  swap3\n  swap2\n  pop\n  pop\n  jump\t// out\n    /* \"#utility.yul\":3833:5228   */\ntag_6:\n    /* \"#utility.yul\":3950:3987   */\n  tag_77\n    /* \"#utility.yul\":3983:3986   */\n  dup3\n    /* \"#utility.yul\":3950:3987   */\n  tag_10\n  jump\t// in\ntag_77:\n    /* \"#utility.yul\":4052:4070   */\n  0xffffffffffffffff\n    /* \"#utility.yul\":4044:4050   */\n  dup2\n    /* \"#utility.yul\":4041:4071   */\n  gt\n    /* \"#utility.yul\":4038:4094   */\n  iszero\n  tag_78\n  jumpi\n    /* \"#utility.yul\":4074:4092   */\n  tag_79\n  tag_11\n  jump\t// in\ntag_79:\n    /* \"#utility.yul\":4038:4094   */\ntag_78:\n    /* \"#utility.yul\":4118:4156   */\n  tag_80\n    /* \"#utility.yul\":4150:4154   */\n  dup3\n    /* \"#utility.yul\":4144:4155   */\n  sload\n    /* \"#utility.yul\":4118:4156   */\n  tag_13\n  jump\t// in\ntag_80:\n    /* \"#utility.yul\":4203:4270   */\n  tag_81\n    /* \"#utility.yul\":4263:4269   */\n  dup3\n    /* \"#utility.yul\":4255:4261   */\n  dup3\n    /* \"#utility.yul\":4249:4253   */\n  dup6\n    /* \"#utility.yul\":4203:4270   */\n  tag_26\n  jump\t// in\ntag_81:\n    /* \"#utility.yul\":4297:4298   */\n  0x00\n    /* \"#utility.yul\":4321:4325   */\n  0x20\n    /* \"#utility.yul\":4308:4325   */\n  swap1\n  pop\n    /* \"#utility.yul\":4353:4355   */\n  0x1f\n    /* \"#utility.yul\":4345:4351   */\n  dup4\n    /* \"#utility.yul\":4342:4356   */\n  gt\n    /* \"#utility.yul\":4370:4371   */\n  0x01\n    /* \"#utility.yul\":4365:4983   */\n  dup2\n  eq\n  tag_83\n  jumpi\n    /* \"#utility.yul\":5027:5028   */\n  0x00\n    /* \"#utility.yul\":5044:5050   */\n  dup5\n    /* \"#utility.yul\":5041:5118   */\n  iszero\n  tag_84\n  jumpi\n    /* \"#utility.yul\":5093:5102   */\n  dup3\n    /* \"#utility.yul\":5088:5091   */\n  dup8\n    /* \"#utility.yul\":5084:5103   */\n  add\n    /* \"#utility.yul\":5078:5104   */\n  mload\n    /* \"#utility.yul\":5069:5104   */\n  swap1\n  pop\n    /* \"#utility.yul\":5041:5118   */\ntag_84:\n    /* \"#utility.yul\":5144:5211   */\n  tag_85\n    /* \"#utility.yul\":5204:5210   */\n  dup6\n    /* \"#utility.yul\":5197:5202   */\n  dup3\n    /* \"#utility.yul\":5144:5211   */\n  tag_29\n  jump\t// in\ntag_85:\n    /* \"#utility.yul\":5138:5142   */\n  dup7\n    /* \"#utility.yul\":5131:5212   */\n  sstore\n    /* \"#utility.yul\":5000:5222   */\n  pop\n    /* \"#utility.yul\":4335:5222   */\n  jump(tag_82)\n    /* \"#utility.yul\":4365:4983   */\ntag_83:\n    /* \"#utility.yul\":4417:4421   */\n  0x1f\n    /* \"#utility.yul\":4413:4422   */\n  not\n    /* \"#utility.yul\":4405:4411   */\n  dup5\n    /* \"#utility.yul\":4401:4423   */\n  and\n    /* \"#utility.yul\":4451:4488   */\n  tag_86\n    /* \"#utility.yul\":4483:4487   */\n  dup7\n    /* \"#utility.yul\":4451:4488   */\n  tag_14\n  jump\t// in\ntag_86:\n    /* \"#utility.yul\":4510:4511   */\n  0x00\n    /* \"#utility.yul\":4524:4732   */\ntag_87:\n    /* \"#utility.yul\":4538:4545   */\n  dup3\n    /* \"#utility.yul\":4535:4536   */\n  dup2\n    /* \"#utility.yul\":4532:4546   */\n  lt\n    /* \"#utility.yul\":4524:4732   */\n  iszero\n  tag_89\n  jumpi\n    /* \"#utility.yul\":4617:4626   */\n  dup5\n    /* \"#utility.yul\":4612:4615   */\n  dup10\n    /* \"#utility.yul\":4608:4627   */\n  add\n    /* \"#utility.yul\":4602:4628   */\n  mload\n    /* \"#utility.yul\":4594:4600   */\n  dup3\n    /* \"#utility.yul\":4587:4629   */\n  sstore\n    /* \"#utility.yul\":4668:4669   */\n  0x01\n    /* \"#utility.yul\":4660:4666   */\n  dup3\n    /* \"#utility.yul\":4656:4670   */\n  add\n    /* \"#utility.yul\":4646:4670   */\n  swap2\n  pop\n    /* \"#utility.yul\":4715:4717   */\n  0x20\n    /* \"#utility.yul\":4704:4713   */\n  dup6\n    /* \"#utility.yul\":4700:4718   */\n  add\n    /* \"#utility.yul\":4687:4718   */\n  swap5\n  pop\n    /* \"#utility.yul\":4561:4565   */\n  0x20\n    /* \"#utility.yul\":4558:4559   */\n  dup2\n    /* \"#utility.yul\":4554:4566   */\n  add\n    /* \"#utility.yul\":4549:4566   */\n  swap1\n  pop\n    /* \"#utility.yul\":4524:4732   */\n  jump(tag_87)\ntag_89:\n    /* \"#utility.yul\":4760:4766   */\n  dup7\n    /* \"#utility.yul\":4751:4758   */\n  dup4\n    /* \"#utility.yul\":4748:4767   */\n  lt\n    /* \"#utility.yul\":4745:4924   */\n  iszero\n  tag_90\n  jumpi\n    /* \"#utility.yul\":4818:4827   */\n  dup5\n    /* \"#utility.yul\":4813:4816   */\n  dup10\n    /* \"#utility.yul\":4809:4828   */\n  add\n    /* \"#utility.yul\":4803:4829   */\n  mload\n    /* \"#utility.yul\":4861:4909   */\n  tag_91\n    /* \"#utility.yul\":4903:4907   */\n  0x1f\n    /* \"#utility.yul\":4895:4901   */\n  dup10\n    /* \"#utility.yul\":4891:4908   */\n  and\n    /* \"#utility.yul\":4880:4889   */\n  dup3\n    /* \"#utility.yul\":4861:4909   */\n  tag_28\n  jump\t// in\ntag_91:\n    /* \"#utility.yul\":4853:4859   */\n  dup4\n    /* \"#utility.yul\":4846:4910   */\n  sstore\n    /* \"#utility.yul\":4768:4924   */\n  pop\n    /* \"#utility.yul\":4745:4924   */\ntag_90:\n    /* \"#utility.yul\":4970:4971   */\n  0x01\n    /* \"#utility.yul\":4966:4967   */\n  0x02\n    /* \"#utility.yul\":4958:4964   */\n  dup9\n    /* \"#utility.yul\":4954:4968   */\n  mul\n    /* \"#utility.yul\":4950:4972   */\n  add\n    /* \"#utility.yul\":4944:4948   */\n  dup9\n    /* \"#utility.yul\":4937:4973   */\n  sstore\n    /* \"#utility.yul\":4372:4983   */\n  pop\n  pop\n  pop\n    /* \"#utility.yul\":4335:5222   */\ntag_82:\n  pop\n    /* \"#utility.yul\":3925:5228   */\n  pop\n  pop\n  pop\n    /* \"#utility.yul\":3833:5228   */\n  pop\n  pop\n  jump\t// out\n    /* \"Qsito/carnaval.sol\":119:4005  contract CarnavalScores is ERC20 {... */\ntag_9:\n  dataSize(sub_0)\n  dup1\n  dataOffset(sub_0)\n  0x00\n  codecopy\n  0x00\n  return\nstop\n\nsub_0: assembly {\n        /* \"Qsito/carnaval.sol\":119:4005  contract CarnavalScores is ERC20 {... */\n      mstore(0x40, 0x80)\n      callvalue\n      dup1\n      iszero\n      tag_1\n      jumpi\n      revert(0x00, 0x00)\n    tag_1:\n      pop\n      jumpi(tag_2, lt(calldatasize, 0x04))\n      shr(0xe0, calldataload(0x00))\n      dup1\n      0x66885744\n      gt\n      tag_24\n      jumpi\n      dup1\n      0xbb7b3671\n      gt\n      tag_25\n      jumpi\n      dup1\n      0xbb7b3671\n      eq\n      tag_18\n      jumpi\n      dup1\n      0xd3dea54d\n      eq\n      tag_19\n      jumpi\n      dup1\n      0xdd62ed3e\n      eq\n      tag_20\n      jumpi\n      dup1\n      0xe2eae4db\n      eq\n      tag_21\n      jumpi\n      dup1\n      0xe49a39dc\n      eq\n      tag_22\n      jumpi\n      dup1\n      0xeb75e0b8\n      eq\n      tag_23\n      jumpi\n      jump(tag_2)\n    tag_25:\n      dup1\n      0x66885744\n      eq\n      tag_13\n      jumpi\n      dup1\n      0x70a08231\n      eq\n      tag_14\n      jumpi\n      dup1\n      0x95d89b41\n      eq\n      tag_15\n      jumpi\n      dup1\n      0xa9059cbb\n      eq\n      tag_16\n      jumpi\n      dup1\n      0xa916b987\n      eq\n      tag_17\n      jumpi\n      jump(tag_2)\n    tag_24:\n      dup1\n      0x18160ddd\n      gt\n      tag_26\n      jumpi\n      dup1\n      0x18160ddd\n      eq\n      tag_8\n      jumpi\n      dup1\n      0x1f12a015\n      eq\n      tag_9\n      jumpi\n      dup1\n      0x23b872dd\n      eq\n      tag_10\n      jumpi\n      dup1\n      0x313ce567\n      eq\n      tag_11\n      jumpi\n      dup1\n      0x3bdff5ba\n      eq\n      tag_12\n      jumpi\n      jump(tag_2)\n    tag_26:\n      dup1\n      0x0350173f\n      eq\n      tag_3\n      jumpi\n      dup1\n      0x06fdde03\n      eq\n      tag_4\n      jumpi\n      dup1\n      0x095ea7b3\n      eq\n      tag_5\n      jumpi\n      dup1\n      0x140b24f5\n      eq\n      tag_6\n      jumpi\n      dup1\n      0x162f17a9\n      eq\n      tag_7\n      jumpi\n    tag_2:\n      revert(0x00, 0x00)\n        /* \"Qsito/carnaval.sol\":2795:3349  function registrarNota(uint8 _escolaId, uint8 _quesitoId, uint16 _nota) public {... */\n    tag_3:\n      tag_27\n      0x04\n      dup1\n      calldatasize\n      sub\n      dup2\n      add\n      swap1\n      tag_28\n      swap2\n      swap1\n      tag_29\n      jump\t// in\n    tag_28:\n      tag_30\n      jump\t// in\n    tag_27:\n      stop\n        /* \"@openzeppelin/contracts/token/ERC20/ERC20.sol\":1779:1868  function name() public view virtual returns (string memory) {... */\n    tag_4:\n      tag_31\n      tag_32\n      jump\t// in\n    tag_31:\n      mload(0x40)\n      tag_33\n      swap2\n      swap1\n      tag_34\n      jump\t// in\n    tag_33:\n      mload(0x40)\n      dup1\n      swap2\n      sub\n      swap1\n      return\n        /* \"@openzeppelin/contracts/token/ERC20/ERC20.sol\":3998:4184  function approve(address spender, uint256 value) public virtual returns (bool) {... */\n    tag_5:\n      tag_35\n      0x04\n      dup1\n      calldatasize\n      sub\n      dup2\n      add\n      swap1\n      tag_36\n      swap2\n      swap1\n      tag_37\n      jump\t// in\n    tag_36:\n      tag_38\n      jump\t// in\n    tag_35:\n      mload(0x40)\n      tag_39\n      swap2\n      swap1\n      tag_40\n      jump\t// in\n    tag_39:\n      mload(0x40)\n      dup1\n      swap2\n      sub\n      swap1\n      return\n        /* \"Qsito/carnaval.sol\":2357:2766  function addQuesito(string memory _nomeQuesito) public returns (uint) {... */\n    tag_6:\n      tag_41\n      0x04\n      dup1\n      calldatasize\n      sub\n      dup2\n      add\n      swap1\n      tag_42\n      swap2\n      swap1\n      tag_43\n      jump\t// in\n    tag_42:\n      tag_44\n      jump\t// in\n    tag_41:\n      mload(0x40)\n      tag_45\n      swap2\n      swap1\n      tag_46\n      jump\t// in\n    tag_45:\n      mload(0x40)\n      dup1\n      swap2\n      sub\n      swap1\n      return\n        /* \"Qsito/carnaval.sol\":831:850  Nota[] public notas */\n    tag_7:\n      tag_47\n      0x04\n      dup1\n      calldatasize\n      sub\n      dup2\n      add\n      swap1\n      tag_48\n      swap2\n      swap1\n      tag_49\n      jump\t// in\n    tag_48:\n      tag_50\n      jump\t// in\n    tag_47:\n      mload(0x40)\n      tag_51\n      swap5\n      swap4\n      swap3\n      swap2\n      swap1\n      tag_52\n      jump\t// in\n    tag_51:\n      mload(0x40)\n      dup1\n      swap2\n      sub\n      swap1\n      return\n        /* \"@openzeppelin/contracts/token/ERC20/ERC20.sol\":2849:2946  function totalSupply() public view virtual returns (uint256) {... */\n    tag_8:\n      tag_53\n      tag_54\n      jump\t// in\n    tag_53:\n      mload(0x40)\n      tag_55\n      swap2\n      swap1\n      tag_46\n      jump\t// in\n    tag_55:\n      mload(0x40)\n      dup1\n      swap2\n      sub\n      swap1\n      return\n        /* \"Qsito/carnaval.sol\":863:904  mapping(address => Jurado) public jurados */\n    tag_9:\n      tag_56\n      0x04\n      dup1\n      calldatasize\n      sub\n      dup2\n      add\n      swap1\n      tag_57\n      swap2\n      swap1\n      tag_58\n      jump\t// in\n    tag_57:\n      tag_59\n      jump\t// in\n    tag_56:\n      mload(0x40)\n      tag_60\n      swap3\n      swap2\n      swap1\n      tag_61\n      jump\t// in\n    tag_60:\n      mload(0x40)\n      dup1\n      swap2\n      sub\n      swap1\n      return\n        /* \"@openzeppelin/contracts/token/ERC20/ERC20.sol\":4776:5020  function transferFrom(address from, address to, uint256 value) public virtual returns (bool) {... */\n    tag_10:\n      tag_62\n      0x04\n      dup1\n      calldatasize\n      sub\n      dup2\n      add\n      swap1\n      tag_63\n      swap2\n      swap1\n      tag_64\n      jump\t// in\n    tag_63:\n      tag_65\n      jump\t// in\n    tag_62:\n      mload(0x40)\n      tag_66\n      swap2\n      swap1\n      tag_40\n      jump\t// in\n    tag_66:\n      mload(0x40)\n      dup1\n      swap2\n      sub\n      swap1\n      return\n        /* \"@openzeppelin/contracts/token/ERC20/ERC20.sol\":2707:2789  function decimals() public view virtual returns (uint8) {... */\n    tag_11:\n      tag_67\n      tag_68\n      jump\t// in\n    tag_67:\n      mload(0x40)\n      tag_69\n      swap2\n      swap1\n      tag_70\n      jump\t// in\n    tag_69:\n      mload(0x40)\n      dup1\n      swap2\n      sub\n      swap1\n      return\n        /* \"Qsito/carnaval.sol\":1419:1896  function addJurado(string memory _nomeJurado) public returns (uint) {... */\n    tag_12:\n      tag_71\n      0x04\n      dup1\n      calldatasize\n      sub\n      dup2\n      add\n      swap1\n      tag_72\n      swap2\n      swap1\n      tag_43\n      jump\t// in\n    tag_72:\n      tag_73\n      jump\t// in\n    tag_71:\n      mload(0x40)\n      tag_74\n      swap2\n      swap1\n      tag_46\n      jump\t// in\n    tag_74:\n      mload(0x40)\n      dup1\n      swap2\n      sub\n      swap1\n      return\n        /* \"Qsito/carnaval.sol\":3394:3581  function getNota(uint _escolaId, uint _quesitoId) public view returns (uint) {... */\n    tag_13:\n      tag_75\n      0x04\n      dup1\n      calldatasize\n      sub\n      dup2\n      add\n      swap1\n      tag_76\n      swap2\n      swap1\n      tag_77\n      jump\t// in\n    tag_76:\n      tag_78\n      jump\t// in\n    tag_75:\n      mload(0x40)\n      tag_79\n      swap2\n      swap1\n      tag_46\n      jump\t// in\n    tag_79:\n      mload(0x40)\n      dup1\n      swap2\n      sub\n      swap1\n      return\n        /* \"@openzeppelin/contracts/token/ERC20/ERC20.sol\":3004:3120  function balanceOf(address account) public view virtual returns (uint256) {... */\n    tag_14:\n      tag_80\n      0x04\n      dup1\n      calldatasize\n      sub\n      dup2\n      add\n      swap1\n      tag_81\n      swap2\n      swap1\n      tag_58\n      jump\t// in\n    tag_81:\n      tag_82\n      jump\t// in\n    tag_80:\n      mload(0x40)\n      tag_83\n      swap2\n      swap1\n      tag_46\n      jump\t// in\n    tag_83:\n      mload(0x40)\n      dup1\n      swap2\n      sub\n      swap1\n      return\n        /* \"@openzeppelin/contracts/token/ERC20/ERC20.sol\":1981:2074  function symbol() public view virtual returns (string memory) {... */\n    tag_15:\n      tag_84\n      tag_85\n      jump\t// in\n    tag_84:\n      mload(0x40)\n      tag_86\n      swap2\n      swap1\n      tag_34\n      jump\t// in\n    tag_86:\n      mload(0x40)\n      dup1\n      swap2\n      sub\n      swap1\n      return\n        /* \"@openzeppelin/contracts/token/ERC20/ERC20.sol\":3315:3493  function transfer(address to, uint256 value) public virtual returns (bool) {... */\n    tag_16:\n      tag_87\n      0x04\n      dup1\n      calldatasize\n      sub\n      dup2\n      add\n      swap1\n      tag_88\n      swap2\n      swap1\n      tag_37\n      jump\t// in\n    tag_88:\n      tag_89\n      jump\t// in\n    tag_87:\n      mload(0x40)\n      tag_90\n      swap2\n      swap1\n      tag_40\n      jump\t// in\n    tag_90:\n      mload(0x40)\n      dup1\n      swap2\n      sub\n      swap1\n      return\n        /* \"Qsito/carnaval.sol\":911:978  mapping(uint => mapping(uint => Nota)) public notasPorEscolaQuesito */\n    tag_17:\n      tag_91\n      0x04\n      dup1\n      calldatasize\n      sub\n      dup2\n      add\n      swap1\n      tag_92\n      swap2\n      swap1\n      tag_77\n      jump\t// in\n    tag_92:\n      tag_93\n      jump\t// in\n    tag_91:\n      mload(0x40)\n      tag_94\n      swap5\n      swap4\n      swap3\n      swap2\n      swap1\n      tag_52\n      jump\t// in\n    tag_94:\n      mload(0x40)\n      dup1\n      swap2\n      sub\n      swap1\n      return\n        /* \"Qsito/carnaval.sol\":1925:2325  function addEscola(string memory _nomeEscola) public returns (uint) {... */\n    tag_18:\n      tag_95\n      0x04\n      dup1\n      calldatasize\n      sub\n      dup2\n      add\n      swap1\n      tag_96\n      swap2\n      swap1\n      tag_43\n      jump\t// in\n    tag_96:\n      tag_97\n      jump\t// in\n    tag_95:\n      mload(0x40)\n      tag_98\n      swap2\n      swap1\n      tag_46\n      jump\t// in\n    tag_98:\n      mload(0x40)\n      dup1\n      swap2\n      sub\n      swap1\n      return\n        /* \"Qsito/carnaval.sol\":732:773  Escola[QUANTIDADE_ESCOLAS] public escolas */\n    tag_19:\n      tag_99\n      0x04\n      dup1\n      calldatasize\n      sub\n      dup2\n      add\n      swap1\n      tag_100\n      swap2\n      swap1\n      tag_49\n      jump\t// in\n    tag_100:\n      tag_101\n      jump\t// in\n    tag_99:\n      mload(0x40)\n      tag_102\n      swap3\n      swap2\n      swap1\n      tag_103\n      jump\t// in\n    tag_102:\n      mload(0x40)\n      dup1\n      swap2\n      sub\n      swap1\n      return\n        /* \"@openzeppelin/contracts/token/ERC20/ERC20.sol\":3551:3691  function allowance(address owner, address spender) public view virtual returns (uint256) {... */\n    tag_20:\n      tag_104\n      0x04\n      dup1\n      calldatasize\n      sub\n      dup2\n      add\n      swap1\n      tag_105\n      swap2\n      swap1\n      tag_106\n      jump\t// in\n    tag_105:\n      tag_107\n      jump\t// in\n    tag_104:\n      mload(0x40)\n      tag_108\n      swap2\n      swap1\n      tag_46\n      jump\t// in\n    tag_108:\n      mload(0x40)\n      dup1\n      swap2\n      sub\n      swap1\n      return\n        /* \"Qsito/carnaval.sol\":674:725  Jurado[QUANTIDADE_JURADOS] public quantidadeJurados */\n    tag_21:\n      tag_109\n      0x04\n      dup1\n      calldatasize\n      sub\n      dup2\n      add\n      swap1\n      tag_110\n      swap2\n      swap1\n      tag_49\n      jump\t// in\n    tag_110:\n      tag_111\n      jump\t// in\n    tag_109:\n      mload(0x40)\n      tag_112\n      swap3\n      swap2\n      swap1\n      tag_61\n      jump\t// in\n    tag_112:\n      mload(0x40)\n      dup1\n      swap2\n      sub\n      swap1\n      return\n        /* \"Qsito/carnaval.sol\":3619:4002  function limparDados() public {... */\n    tag_22:\n      tag_113\n      tag_114\n      jump\t// in\n    tag_113:\n      stop\n        /* \"Qsito/carnaval.sol\":780:824  Quesito[QUANTIDADE_QUESITOS] public quesitos */\n    tag_23:\n      tag_115\n      0x04\n      dup1\n      calldatasize\n      sub\n      dup2\n      add\n      swap1\n      tag_116\n      swap2\n      swap1\n      tag_49\n      jump\t// in\n    tag_116:\n      tag_117\n      jump\t// in\n    tag_115:\n      mload(0x40)\n      tag_118\n      swap3\n      swap2\n      swap1\n      tag_103\n      jump\t// in\n    tag_118:\n      mload(0x40)\n      dup1\n      swap2\n      sub\n      swap1\n      return\n        /* \"Qsito/carnaval.sol\":2795:3349  function registrarNota(uint8 _escolaId, uint8 _quesitoId, uint16 _nota) public {... */\n    tag_30:\n        /* \"Qsito/carnaval.sol\":2925:2935  msg.sender */\n      caller\n        /* \"Qsito/carnaval.sol\":2893:2935  jurados[msg.sender].endereco == msg.sender */\n      0xffffffffffffffffffffffffffffffffffffffff\n      and\n        /* \"Qsito/carnaval.sol\":2893:2900  jurados */\n      0x7e\n        /* \"Qsito/carnaval.sol\":2893:2912  jurados[msg.sender] */\n      0x00\n        /* \"Qsito/carnaval.sol\":2901:2911  msg.sender */\n      caller\n        /* \"Qsito/carnaval.sol\":2893:2912  jurados[msg.sender] */\n      0xffffffffffffffffffffffffffffffffffffffff\n      and\n      0xffffffffffffffffffffffffffffffffffffffff\n      and\n      dup2\n      mstore\n      0x20\n      add\n      swap1\n      dup2\n      mstore\n      0x20\n      add\n      0x00\n      keccak256\n        /* \"Qsito/carnaval.sol\":2893:2921  jurados[msg.sender].endereco */\n      0x00\n      add\n      0x00\n      swap1\n      sload\n      swap1\n      0x0100\n      exp\n      swap1\n      div\n      0xffffffffffffffffffffffffffffffffffffffff\n      and\n        /* \"Qsito/carnaval.sol\":2893:2935  jurados[msg.sender].endereco == msg.sender */\n      0xffffffffffffffffffffffffffffffffffffffff\n      and\n      eq\n        /* \"Qsito/carnaval.sol\":2885:2971  require(jurados[msg.sender].endereco == msg.sender, \"Somente jurados podem registrar\") */\n      tag_120\n      jumpi\n      mload(0x40)\n      0x08c379a000000000000000000000000000000000000000000000000000000000\n      dup2\n      mstore\n      0x04\n      add\n      tag_121\n      swap1\n      tag_122\n      jump\t// in\n    tag_121:\n      mload(0x40)\n      dup1\n      swap2\n      sub\n      swap1\n      revert\n    tag_120:\n        /* \"Qsito/carnaval.sol\":2999:3002  900 */\n      0x0384\n        /* \"Qsito/carnaval.sol\":2990:2995  _nota */\n      dup2\n        /* \"Qsito/carnaval.sol\":2990:3002  _nota >= 900 */\n      0xffff\n      and\n      lt\n      iszero\n        /* \"Qsito/carnaval.sol\":2990:3019  _nota >= 900 && _nota <= 1000 */\n      dup1\n      iszero\n      tag_123\n      jumpi\n      pop\n        /* \"Qsito/carnaval.sol\":3015:3019  1000 */\n      0x03e8\n        /* \"Qsito/carnaval.sol\":3006:3011  _nota */\n      dup2\n        /* \"Qsito/carnaval.sol\":3006:3019  _nota <= 1000 */\n      0xffff\n      and\n      gt\n      iszero\n        /* \"Qsito/carnaval.sol\":2990:3019  _nota >= 900 && _nota <= 1000 */\n    tag_123:\n        /* \"Qsito/carnaval.sol\":2982:3039  require(_nota >= 900 && _nota <= 1000, \"Nota impossivel\") */\n      tag_124\n      jumpi\n      mload(0x40)\n      0x08c379a000000000000000000000000000000000000000000000000000000000\n      dup2\n      mstore\n      0x04\n      add\n      tag_125\n      swap1\n      tag_126\n      jump\t// in\n    tag_125:\n      mload(0x40)\n      dup1\n      swap2\n      sub\n      swap1\n      revert\n    tag_124:\n        /* \"Qsito/carnaval.sol\":3050:3066  Nota memory nota */\n      0x00\n        /* \"Qsito/carnaval.sol\":3069:3252  Nota({escolaId:_escolaId,... */\n      mload(0x40)\n      dup1\n      0x80\n      add\n      0x40\n      mstore\n      dup1\n        /* \"Qsito/carnaval.sol\":3084:3093  _escolaId */\n      dup6\n        /* \"Qsito/carnaval.sol\":3069:3252  Nota({escolaId:_escolaId,... */\n      0xff\n      and\n      dup2\n      mstore\n      0x20\n      add\n        /* \"Qsito/carnaval.sol\":3137:3147  _quesitoId */\n      dup5\n        /* \"Qsito/carnaval.sol\":3069:3252  Nota({escolaId:_escolaId,... */\n      0xff\n      and\n      dup2\n      mstore\n      0x20\n      add\n        /* \"Qsito/carnaval.sol\":3191:3201  msg.sender */\n      caller\n        /* \"Qsito/carnaval.sol\":3069:3252  Nota({escolaId:_escolaId,... */\n      0xffffffffffffffffffffffffffffffffffffffff\n      and\n      dup2\n      mstore\n      0x20\n      add\n        /* \"Qsito/carnaval.sol\":3245:3250  _nota */\n      dup4\n        /* \"Qsito/carnaval.sol\":3069:3252  Nota({escolaId:_escolaId,... */\n      0xffff\n      and\n      dup2\n      mstore\n      pop\n        /* \"Qsito/carnaval.sol\":3050:3252  Nota memory nota = Nota({escolaId:_escolaId,... */\n      swap1\n      pop\n        /* \"Qsito/carnaval.sol\":3263:3268  notas */\n      0x7d\n        /* \"Qsito/carnaval.sol\":3274:3278  nota */\n      dup2\n        /* \"Qsito/carnaval.sol\":3263:3279  notas.push(nota) */\n      swap1\n      dup1\n      0x01\n      dup2\n      sload\n      add\n      dup1\n      dup3\n      sstore\n      dup1\n      swap2\n      pop\n      pop\n      0x01\n      swap1\n      sub\n      swap1\n      0x00\n      mstore\n      keccak256(0x00, 0x20)\n      swap1\n      0x04\n      mul\n      add\n      0x00\n      swap1\n      swap2\n      swap1\n      swap2\n      swap1\n      swap2\n      pop\n      0x00\n      dup3\n      add\n      mload\n      dup2\n      0x00\n      add\n      sstore\n      0x20\n      dup3\n      add\n      mload\n      dup2\n      0x01\n      add\n      sstore\n      0x40\n      dup3\n      add\n      mload\n      dup2\n      0x02\n      add\n      exp(0x0100, 0x00)\n      dup2\n      sload\n      dup2\n      0xffffffffffffffffffffffffffffffffffffffff\n      mul\n      not\n      and\n      swap1\n      dup4\n      0xffffffffffffffffffffffffffffffffffffffff\n      and\n      mul\n      or\n      swap1\n      sstore\n      pop\n      0x60\n      dup3\n      add\n      mload\n      dup2\n      0x03\n      add\n      sstore\n      pop\n      pop\n        /* \"Qsito/carnaval.sol\":3337:3341  nota */\n      dup1\n        /* \"Qsito/carnaval.sol\":3290:3311  notasPorEscolaQuesito */\n      0x7f\n        /* \"Qsito/carnaval.sol\":3290:3322  notasPorEscolaQuesito[_escolaId] */\n      0x00\n        /* \"Qsito/carnaval.sol\":3312:3321  _escolaId */\n      dup7\n        /* \"Qsito/carnaval.sol\":3290:3322  notasPorEscolaQuesito[_escolaId] */\n      0xff\n      and\n      dup2\n      mstore\n      0x20\n      add\n      swap1\n      dup2\n      mstore\n      0x20\n      add\n      0x00\n      keccak256\n        /* \"Qsito/carnaval.sol\":3290:3334  notasPorEscolaQuesito[_escolaId][_quesitoId] */\n      0x00\n        /* \"Qsito/carnaval.sol\":3323:3333  _quesitoId */\n      dup6\n        /* \"Qsito/carnaval.sol\":3290:3334  notasPorEscolaQuesito[_escolaId][_quesitoId] */\n      0xff\n      and\n      dup2\n      mstore\n      0x20\n      add\n      swap1\n      dup2\n      mstore\n      0x20\n      add\n      0x00\n      keccak256\n        /* \"Qsito/carnaval.sol\":3290:3341  notasPorEscolaQuesito[_escolaId][_quesitoId] = nota */\n      0x00\n      dup3\n      add\n      mload\n      dup2\n      0x00\n      add\n      sstore\n      0x20\n      dup3\n      add\n      mload\n      dup2\n      0x01\n      add\n      sstore\n      0x40\n      dup3\n      add\n      mload\n      dup2\n      0x02\n      add\n      exp(0x0100, 0x00)\n      dup2\n      sload\n      dup2\n      0xffffffffffffffffffffffffffffffffffffffff\n      mul\n      not\n      and\n      swap1\n      dup4\n      0xffffffffffffffffffffffffffffffffffffffff\n      and\n      mul\n      or\n      swap1\n      sstore\n      pop\n      0x60\n      dup3\n      add\n      mload\n      dup2\n      0x03\n      add\n      sstore\n      swap1\n      pop\n      pop\n        /* \"Qsito/carnaval.sol\":2874:3349  {... */\n      pop\n        /* \"Qsito/carnaval.sol\":2795:3349  function registrarNota(uint8 _escolaId, uint8 _quesitoId, uint16 _nota) public {... */\n      pop\n      pop\n      pop\n      jump\t// out\n        /* \"@openzeppelin/contracts/token/ERC20/ERC20.sol\":1779:1868  function name() public view virtual returns (string memory) {... */\n    tag_32:\n        /* \"@openzeppelin/contracts/token/ERC20/ERC20.sol\":1824:1837  string memory */\n      0x60\n        /* \"@openzeppelin/contracts/token/ERC20/ERC20.sol\":1856:1861  _name */\n      0x03\n        /* \"@openzeppelin/contracts/token/ERC20/ERC20.sol\":1849:1861  return _name */\n      dup1\n      sload\n      tag_129\n      swap1\n      tag_130\n      jump\t// in\n    tag_129:\n      dup1\n      0x1f\n      add\n      0x20\n      dup1\n      swap2\n      div\n      mul\n      0x20\n      add\n      mload(0x40)\n      swap1\n      dup2\n      add\n      0x40\n      mstore\n      dup1\n      swap3\n      swap2\n      swap1\n      dup2\n      dup2\n      mstore\n      0x20\n      add\n      dup3\n      dup1\n      sload\n      tag_131\n      swap1\n      tag_130\n      jump\t// in\n    tag_131:\n      dup1\n      iszero\n      tag_132\n      jumpi\n      dup1\n      0x1f\n      lt\n      tag_133\n      jumpi\n      0x0100\n      dup1\n      dup4\n      sload\n      div\n      mul\n      dup4\n      mstore\n      swap2\n      0x20\n      add\n      swap2\n      jump(tag_132)\n    tag_133:\n      dup3\n      add\n      swap2\n      swap1\n      0x00\n      mstore\n      keccak256(0x00, 0x20)\n      swap1\n    tag_134:\n      dup2\n      sload\n      dup2\n      mstore\n      swap1\n      0x01\n      add\n      swap1\n      0x20\n      add\n      dup1\n      dup4\n      gt\n      tag_134\n      jumpi\n      dup3\n      swap1\n      sub\n      0x1f\n      and\n      dup3\n      add\n      swap2\n    tag_132:\n      pop\n      pop\n      pop\n      pop\n      pop\n      swap1\n      pop\n        /* \"@openzeppelin/contracts/token/ERC20/ERC20.sol\":1779:1868  function name() public view virtual returns (string memory) {... */\n      swap1\n      jump\t// out\n        /* \"@openzeppelin/contracts/token/ERC20/ERC20.sol\":3998:4184  function approve(address spender, uint256 value) public virtual returns (bool) {... */\n    tag_38:\n        /* \"@openzeppelin/contracts/token/ERC20/ERC20.sol\":4071:4075  bool */\n      0x00\n        /* \"@openzeppelin/contracts/token/ERC20/ERC20.sol\":4087:4100  address owner */\n      0x00\n        /* \"@openzeppelin/contracts/token/ERC20/ERC20.sol\":4103:4115  _msgSender() */\n      tag_136\n        /* \"@openzeppelin/contracts/token/ERC20/ERC20.sol\":4103:4113  _msgSender */\n      tag_137\n        /* \"@openzeppelin/contracts/token/ERC20/ERC20.sol\":4103:4115  _msgSender() */\n      jump\t// in\n    tag_136:\n        /* \"@openzeppelin/contracts/token/ERC20/ERC20.sol\":4087:4115  address owner = _msgSender() */\n      swap1\n      pop\n        /* \"@openzeppelin/contracts/token/ERC20/ERC20.sol\":4125:4156  _approve(owner, spender, value) */\n      tag_138\n        /* \"@openzeppelin/contracts/token/ERC20/ERC20.sol\":4134:4139  owner */\n      dup2\n        /* \"@openzeppelin/contracts/token/ERC20/ERC20.sol\":4141:4148  spender */\n      dup6\n        /* \"@openzeppelin/contracts/token/ERC20/ERC20.sol\":4150:4155  value */\n      dup6\n        /* \"@openzeppelin/contracts/token/ERC20/ERC20.sol\":4125:4133  _approve */\n      tag_139\n        /* \"@openzeppelin/contracts/token/ERC20/ERC20.sol\":4125:4156  _approve(owner, spender, value) */\n      jump\t// in\n    tag_138:\n        /* \"@openzeppelin/contracts/token/ERC20/ERC20.sol\":4173:4177  true */\n      0x01\n        /* \"@openzeppelin/contracts/token/ERC20/ERC20.sol\":4166:4177  return true */\n      swap2\n      pop\n      pop\n        /* \"@openzeppelin/contracts/token/ERC20/ERC20.sol\":3998:4184  function approve(address spender, uint256 value) public virtual returns (bool) {... */\n      swap3\n      swap2\n      pop\n      pop\n      jump\t// out\n        /* \"Qsito/carnaval.sol\":2357:2766  function addQuesito(string memory _nomeQuesito) public returns (uint) {... */\n    tag_44:\n        /* \"Qsito/carnaval.sol\":2421:2425  uint */\n      0x00\n        /* \"Qsito/carnaval.sol\":610:611  9 */\n      0x09\n        /* \"Qsito/carnaval.sol\":2446:2487  currentQuesitoIndex < QUANTIDADE_QUESITOS */\n      0xff\n      and\n        /* \"Qsito/carnaval.sol\":2446:2465  currentQuesitoIndex */\n      0x80\n      0x02\n      swap1\n      sload\n      swap1\n      0x0100\n      exp\n      swap1\n      div\n      0xff\n      and\n        /* \"Qsito/carnaval.sol\":2446:2487  currentQuesitoIndex < QUANTIDADE_QUESITOS */\n      0xff\n      and\n      lt\n        /* \"Qsito/carnaval.sol\":2438:2521  require(currentQuesitoIndex < QUANTIDADE_QUESITOS, \"Quantidade maxima de quesitos\") */\n      tag_141\n      jumpi\n      mload(0x40)\n      0x08c379a000000000000000000000000000000000000000000000000000000000\n      dup2\n      mstore\n      0x04\n      add\n      tag_142\n      swap1\n      tag_143\n      jump\t// in\n    tag_142:\n      mload(0x40)\n      dup1\n      swap2\n      sub\n      swap1\n      revert\n    tag_141:\n        /* \"Qsito/carnaval.sol\":2564:2618  Quesito({id: currentQuesitoIndex, nome: _nomeQuesito}) */\n      mload(0x40)\n      dup1\n      0x40\n      add\n      0x40\n      mstore\n      dup1\n        /* \"Qsito/carnaval.sol\":2577:2596  currentQuesitoIndex */\n      0x80\n      0x02\n      swap1\n      sload\n      swap1\n      0x0100\n      exp\n      swap1\n      div\n      0xff\n      and\n        /* \"Qsito/carnaval.sol\":2564:2618  Quesito({id: currentQuesitoIndex, nome: _nomeQuesito}) */\n      0xff\n      and\n      dup2\n      mstore\n      0x20\n      add\n        /* \"Qsito/carnaval.sol\":2604:2616  _nomeQuesito */\n      dup4\n        /* \"Qsito/carnaval.sol\":2564:2618  Quesito({id: currentQuesitoIndex, nome: _nomeQuesito}) */\n      dup2\n      mstore\n      pop\n        /* \"Qsito/carnaval.sol\":2532:2540  quesitos */\n      0x6b\n        /* \"Qsito/carnaval.sol\":2541:2560  currentQuesitoIndex */\n      0x80\n      0x02\n      swap1\n      sload\n      swap1\n      0x0100\n      exp\n      swap1\n      div\n      0xff\n      and\n        /* \"Qsito/carnaval.sol\":2532:2561  quesitos[currentQuesitoIndex] */\n      0xff\n      and\n      0x09\n      dup2\n      lt\n      tag_144\n      jumpi\n      tag_145\n      tag_146\n      jump\t// in\n    tag_145:\n    tag_144:\n      0x02\n      mul\n      add\n        /* \"Qsito/carnaval.sol\":2532:2618  quesitos[currentQuesitoIndex] = Quesito({id: currentQuesitoIndex, nome: _nomeQuesito}) */\n      0x00\n      dup3\n      add\n      mload\n      dup2\n      0x00\n      add\n      sstore\n      0x20\n      dup3\n      add\n      mload\n      dup2\n      0x01\n      add\n      swap1\n      dup2\n      tag_148\n      swap2\n      swap1\n      tag_149\n      jump\t// in\n    tag_148:\n      pop\n      swap1\n      pop\n      pop\n        /* \"Qsito/carnaval.sol\":2634:2685  QuesitoAdicionado(currentQuesitoIndex,_nomeQuesito) */\n      0xabb741f082d0e258d6001cf83d689c372fab57c59d4eae923999f75f5ecfad7e\n        /* \"Qsito/carnaval.sol\":2652:2671  currentQuesitoIndex */\n      0x80\n      0x02\n      swap1\n      sload\n      swap1\n      0x0100\n      exp\n      swap1\n      div\n      0xff\n      and\n        /* \"Qsito/carnaval.sol\":2672:2684  _nomeQuesito */\n      dup4\n        /* \"Qsito/carnaval.sol\":2634:2685  QuesitoAdicionado(currentQuesitoIndex,_nomeQuesito) */\n      mload(0x40)\n      tag_150\n      swap3\n      swap2\n      swap1\n      tag_151\n      jump\t// in\n    tag_150:\n      mload(0x40)\n      dup1\n      swap2\n      sub\n      swap1\n      log1\n        /* \"Qsito/carnaval.sol\":2696:2715  currentQuesitoIndex */\n      0x80\n      0x02\n        /* \"Qsito/carnaval.sol\":2696:2717  currentQuesitoIndex++ */\n      dup2\n      dup2\n      swap1\n      sload\n      swap1\n      0x0100\n      exp\n      swap1\n      div\n      0xff\n      and\n      dup1\n      swap3\n      swap2\n      swap1\n      tag_152\n      swap1\n      tag_153\n      jump\t// in\n    tag_152:\n      swap2\n      swap1\n      0x0100\n      exp\n      dup2\n      sload\n      dup2\n      0xff\n      mul\n      not\n      and\n      swap1\n      dup4\n      0xff\n      and\n      mul\n      or\n      swap1\n      sstore\n      pop\n      pop\n        /* \"Qsito/carnaval.sol\":2757:2758  1 */\n      0x01\n        /* \"Qsito/carnaval.sol\":2735:2754  currentQuesitoIndex */\n      0x80\n      0x02\n      swap1\n      sload\n      swap1\n      0x0100\n      exp\n      swap1\n      div\n      0xff\n      and\n        /* \"Qsito/carnaval.sol\":2735:2758  currentQuesitoIndex - 1 */\n      tag_154\n      swap2\n      swap1\n      tag_155\n      jump\t// in\n    tag_154:\n        /* \"Qsito/carnaval.sol\":2728:2758  return currentQuesitoIndex - 1 */\n      0xff\n      and\n      swap1\n      pop\n        /* \"Qsito/carnaval.sol\":2357:2766  function addQuesito(string memory _nomeQuesito) public returns (uint) {... */\n      swap2\n      swap1\n      pop\n      jump\t// out\n        /* \"Qsito/carnaval.sol\":831:850  Nota[] public notas */\n    tag_50:\n      0x7d\n      dup2\n      dup2\n      sload\n      dup2\n      lt\n      tag_156\n      jumpi\n      0x00\n      dup1\n      revert\n    tag_156:\n      swap1\n      0x00\n      mstore\n      keccak256(0x00, 0x20)\n      swap1\n      0x04\n      mul\n      add\n      0x00\n      swap2\n      pop\n      swap1\n      pop\n      dup1\n      0x00\n      add\n      sload\n      swap1\n      dup1\n      0x01\n      add\n      sload\n      swap1\n      dup1\n      0x02\n      add\n      0x00\n      swap1\n      sload\n      swap1\n      0x0100\n      exp\n      swap1\n      div\n      0xffffffffffffffffffffffffffffffffffffffff\n      and\n      swap1\n      dup1\n      0x03\n      add\n      sload\n      swap1\n      pop\n      dup5\n      jump\t// out\n        /* \"@openzeppelin/contracts/token/ERC20/ERC20.sol\":2849:2946  function totalSupply() public view virtual returns (uint256) {... */\n    tag_54:\n        /* \"@openzeppelin/contracts/token/ERC20/ERC20.sol\":2901:2908  uint256 */\n      0x00\n        /* \"@openzeppelin/contracts/token/ERC20/ERC20.sol\":2927:2939  _totalSupply */\n      sload(0x02)\n        /* \"@openzeppelin/contracts/token/ERC20/ERC20.sol\":2920:2939  return _totalSupply */\n      swap1\n      pop\n        /* \"@openzeppelin/contracts/token/ERC20/ERC20.sol\":2849:2946  function totalSupply() public view virtual returns (uint256) {... */\n      swap1\n      jump\t// out\n        /* \"Qsito/carnaval.sol\":863:904  mapping(address => Jurado) public jurados */\n    tag_59:\n      mstore(0x20, 0x7e)\n      dup1\n      0x00\n      mstore\n      keccak256(0x00, 0x40)\n      0x00\n      swap2\n      pop\n      swap1\n      pop\n      dup1\n      0x00\n      add\n      0x00\n      swap1\n      sload\n      swap1\n      0x0100\n      exp\n      swap1\n      div\n      0xffffffffffffffffffffffffffffffffffffffff\n      and\n      swap1\n      dup1\n      0x01\n      add\n      dup1\n      sload\n      tag_159\n      swap1\n      tag_130\n      jump\t// in\n    tag_159:\n      dup1\n      0x1f\n      add\n      0x20\n      dup1\n      swap2\n      div\n      mul\n      0x20\n      add\n      mload(0x40)\n      swap1\n      dup2\n      add\n      0x40\n      mstore\n      dup1\n      swap3\n      swap2\n      swap1\n      dup2\n      dup2\n      mstore\n      0x20\n      add\n      dup3\n      dup1\n      sload\n      tag_160\n      swap1\n      tag_130\n      jump\t// in\n    tag_160:\n      dup1\n      iszero\n      tag_161\n      jumpi\n      dup1\n      0x1f\n      lt\n      tag_162\n      jumpi\n      0x0100\n      dup1\n      dup4\n      sload\n      div\n      mul\n      dup4\n      mstore\n      swap2\n      0x20\n      add\n      swap2\n      jump(tag_161)\n    tag_162:\n      dup3\n      add\n      swap2\n      swap1\n      0x00\n      mstore\n      keccak256(0x00, 0x20)\n      swap1\n    tag_163:\n      dup2\n      sload\n      dup2\n      mstore\n      swap1\n      0x01\n      add\n      swap1\n      0x20\n      add\n      dup1\n      dup4\n      gt\n      tag_163\n      jumpi\n      dup3\n      swap1\n      sub\n      0x1f\n      and\n      dup3\n      add\n      swap2\n    tag_161:\n      pop\n      pop\n      pop\n      pop\n      pop\n      swap1\n      pop\n      dup3\n      jump\t// out\n        /* \"@openzeppelin/contracts/token/ERC20/ERC20.sol\":4776:5020  function transferFrom(address from, address to, uint256 value) public virtual returns (bool) {... */\n    tag_65:\n        /* \"@openzeppelin/contracts/token/ERC20/ERC20.sol\":4863:4867  bool */\n      0x00\n        /* \"@openzeppelin/contracts/token/ERC20/ERC20.sol\":4879:4894  address spender */\n      0x00\n        /* \"@openzeppelin/contracts/token/ERC20/ERC20.sol\":4897:4909  _msgSender() */\n      tag_165\n        /* \"@openzeppelin/contracts/token/ERC20/ERC20.sol\":4897:4907  _msgSender */\n      tag_137\n        /* \"@openzeppelin/contracts/token/ERC20/ERC20.sol\":4897:4909  _msgSender() */\n      jump\t// in\n    tag_165:\n        /* \"@openzeppelin/contracts/token/ERC20/ERC20.sol\":4879:4909  address spender = _msgSender() */\n      swap1\n      pop\n        /* \"@openzeppelin/contracts/token/ERC20/ERC20.sol\":4919:4956  _spendAllowance(from, spender, value) */\n      tag_166\n        /* \"@openzeppelin/contracts/token/ERC20/ERC20.sol\":4935:4939  from */\n      dup6\n        /* \"@openzeppelin/contracts/token/ERC20/ERC20.sol\":4941:4948  spender */\n      dup3\n        /* \"@openzeppelin/contracts/token/ERC20/ERC20.sol\":4950:4955  value */\n      dup6\n        /* \"@openzeppelin/contracts/token/ERC20/ERC20.sol\":4919:4934  _spendAllowance */\n      tag_167\n        /* \"@openzeppelin/contracts/token/ERC20/ERC20.sol\":4919:4956  _spendAllowance(from, spender, value) */\n      jump\t// in\n    tag_166:\n        /* \"@openzeppelin/contracts/token/ERC20/ERC20.sol\":4966:4992  _transfer(from, to, value) */\n      tag_168\n        /* \"@openzeppelin/contracts/token/ERC20/ERC20.sol\":4976:4980  from */\n      dup6\n        /* \"@openzeppelin/contracts/token/ERC20/ERC20.sol\":4982:4984  to */\n      dup6\n        /* \"@openzeppelin/contracts/token/ERC20/ERC20.sol\":4986:4991  value */\n      dup6\n        /* \"@openzeppelin/contracts/token/ERC20/ERC20.sol\":4966:4975  _transfer */\n      tag_169\n        /* \"@openzeppelin/contracts/token/ERC20/ERC20.sol\":4966:4992  _transfer(from, to, value) */\n      jump\t// in\n    tag_168:\n        /* \"@openzeppelin/contracts/token/ERC20/ERC20.sol\":5009:5013  true */\n      0x01\n        /* \"@openzeppelin/contracts/token/ERC20/ERC20.sol\":5002:5013  return true */\n      swap2\n      pop\n      pop\n        /* \"@openzeppelin/contracts/token/ERC20/ERC20.sol\":4776:5020  function transferFrom(address from, address to, uint256 value) public virtual returns (bool) {... */\n      swap4\n      swap3\n      pop\n      pop\n      pop\n      jump\t// out\n        /* \"@openzeppelin/contracts/token/ERC20/ERC20.sol\":2707:2789  function decimals() public view virtual returns (uint8) {... */\n    tag_68:\n        /* \"@openzeppelin/contracts/token/ERC20/ERC20.sol\":2756:2761  uint8 */\n      0x00\n        /* \"@openzeppelin/contracts/token/ERC20/ERC20.sol\":2780:2782  18 */\n      0x12\n        /* \"@openzeppelin/contracts/token/ERC20/ERC20.sol\":2773:2782  return 18 */\n      swap1\n      pop\n        /* \"@openzeppelin/contracts/token/ERC20/ERC20.sol\":2707:2789  function decimals() public view virtual returns (uint8) {... */\n      swap1\n      jump\t// out\n        /* \"Qsito/carnaval.sol\":1419:1896  function addJurado(string memory _nomeJurado) public returns (uint) {... */\n    tag_73:\n        /* \"Qsito/carnaval.sol\":1481:1485  uint */\n      0x00\n        /* \"Qsito/carnaval.sol\":555:557  36 */\n      0x24\n        /* \"Qsito/carnaval.sol\":1506:1545  currentJuradoIndex < QUANTIDADE_JURADOS */\n      0xff\n      and\n        /* \"Qsito/carnaval.sol\":1506:1524  currentJuradoIndex */\n      0x80\n      0x00\n      swap1\n      sload\n      swap1\n      0x0100\n      exp\n      swap1\n      div\n      0xff\n      and\n        /* \"Qsito/carnaval.sol\":1506:1545  currentJuradoIndex < QUANTIDADE_JURADOS */\n      0xff\n      and\n      lt\n        /* \"Qsito/carnaval.sol\":1498:1578  require(currentJuradoIndex < QUANTIDADE_JURADOS, \"Quantidade maxima de jurados\") */\n      tag_172\n      jumpi\n      mload(0x40)\n      0x08c379a000000000000000000000000000000000000000000000000000000000\n      dup2\n      mstore\n      0x04\n      add\n      tag_173\n      swap1\n      tag_174\n      jump\t// in\n    tag_173:\n      mload(0x40)\n      dup1\n      swap2\n      sub\n      swap1\n      revert\n    tag_172:\n        /* \"Qsito/carnaval.sol\":1611:1660  Jurado({endereco: msg.sender, nome: _nomeJurado}) */\n      mload(0x40)\n      dup1\n      0x40\n      add\n      0x40\n      mstore\n      dup1\n        /* \"Qsito/carnaval.sol\":1629:1639  msg.sender */\n      caller\n        /* \"Qsito/carnaval.sol\":1611:1660  Jurado({endereco: msg.sender, nome: _nomeJurado}) */\n      0xffffffffffffffffffffffffffffffffffffffff\n      and\n      dup2\n      mstore\n      0x20\n      add\n        /* \"Qsito/carnaval.sol\":1647:1658  _nomeJurado */\n      dup4\n        /* \"Qsito/carnaval.sol\":1611:1660  Jurado({endereco: msg.sender, nome: _nomeJurado}) */\n      dup2\n      mstore\n      pop\n        /* \"Qsito/carnaval.sol\":1589:1596  jurados */\n      0x7e\n        /* \"Qsito/carnaval.sol\":1589:1608  jurados[msg.sender] */\n      0x00\n        /* \"Qsito/carnaval.sol\":1597:1607  msg.sender */\n      caller\n        /* \"Qsito/carnaval.sol\":1589:1608  jurados[msg.sender] */\n      0xffffffffffffffffffffffffffffffffffffffff\n      and\n      0xffffffffffffffffffffffffffffffffffffffff\n      and\n      dup2\n      mstore\n      0x20\n      add\n      swap1\n      dup2\n      mstore\n      0x20\n      add\n      0x00\n      keccak256\n        /* \"Qsito/carnaval.sol\":1589:1660  jurados[msg.sender] = Jurado({endereco: msg.sender, nome: _nomeJurado}) */\n      0x00\n      dup3\n      add\n      mload\n      dup2\n      0x00\n      add\n      exp(0x0100, 0x00)\n      dup2\n      sload\n      dup2\n      0xffffffffffffffffffffffffffffffffffffffff\n      mul\n      not\n      and\n      swap1\n      dup4\n      0xffffffffffffffffffffffffffffffffffffffff\n      and\n      mul\n      or\n      swap1\n      sstore\n      pop\n      0x20\n      dup3\n      add\n      mload\n      dup2\n      0x01\n      add\n      swap1\n      dup2\n      tag_175\n      swap2\n      swap1\n      tag_149\n      jump\t// in\n    tag_175:\n      pop\n      swap1\n      pop\n      pop\n        /* \"Qsito/carnaval.sol\":1711:1760  Jurado({endereco: msg.sender, nome: _nomeJurado}) */\n      mload(0x40)\n      dup1\n      0x40\n      add\n      0x40\n      mstore\n      dup1\n        /* \"Qsito/carnaval.sol\":1729:1739  msg.sender */\n      caller\n        /* \"Qsito/carnaval.sol\":1711:1760  Jurado({endereco: msg.sender, nome: _nomeJurado}) */\n      0xffffffffffffffffffffffffffffffffffffffff\n      and\n      dup2\n      mstore\n      0x20\n      add\n        /* \"Qsito/carnaval.sol\":1747:1758  _nomeJurado */\n      dup4\n        /* \"Qsito/carnaval.sol\":1711:1760  Jurado({endereco: msg.sender, nome: _nomeJurado}) */\n      dup2\n      mstore\n      pop\n        /* \"Qsito/carnaval.sol\":1671:1688  quantidadeJurados */\n      0x05\n        /* \"Qsito/carnaval.sol\":1689:1707  currentJuradoIndex */\n      0x80\n      0x00\n      swap1\n      sload\n      swap1\n      0x0100\n      exp\n      swap1\n      div\n      0xff\n      and\n        /* \"Qsito/carnaval.sol\":1671:1708  quantidadeJurados[currentJuradoIndex] */\n      0xff\n      and\n      0x24\n      dup2\n      lt\n      tag_176\n      jumpi\n      tag_177\n      tag_146\n      jump\t// in\n    tag_177:\n    tag_176:\n      0x02\n      mul\n      add\n        /* \"Qsito/carnaval.sol\":1671:1760  quantidadeJurados[currentJuradoIndex] = Jurado({endereco: msg.sender, nome: _nomeJurado}) */\n      0x00\n      dup3\n      add\n      mload\n      dup2\n      0x00\n      add\n      exp(0x0100, 0x00)\n      dup2\n      sload\n      dup2\n      0xffffffffffffffffffffffffffffffffffffffff\n      mul\n      not\n      and\n      swap1\n      dup4\n      0xffffffffffffffffffffffffffffffffffffffff\n      and\n      mul\n      or\n      swap1\n      sstore\n      pop\n      0x20\n      dup3\n      add\n      mload\n      dup2\n      0x01\n      add\n      swap1\n      dup2\n      tag_179\n      swap2\n      swap1\n      tag_149\n      jump\t// in\n    tag_179:\n      pop\n      swap1\n      pop\n      pop\n        /* \"Qsito/carnaval.sol\":1771:1789  currentJuradoIndex */\n      0x80\n      0x00\n        /* \"Qsito/carnaval.sol\":1771:1791  currentJuradoIndex++ */\n      dup2\n      dup2\n      swap1\n      sload\n      swap1\n      0x0100\n      exp\n      swap1\n      div\n      0xff\n      and\n      dup1\n      swap3\n      swap2\n      swap1\n      tag_180\n      swap1\n      tag_153\n      jump\t// in\n    tag_180:\n      swap2\n      swap1\n      0x0100\n      exp\n      dup2\n      sload\n      dup2\n      0xff\n      mul\n      not\n      and\n      swap1\n      dup4\n      0xff\n      and\n      mul\n      or\n      swap1\n      sstore\n      pop\n      pop\n        /* \"Qsito/carnaval.sol\":1824:1834  msg.sender */\n      caller\n        /* \"Qsito/carnaval.sol\":1807:1848  JuradoAdicionado(msg.sender, _nomeJurado) */\n      0xffffffffffffffffffffffffffffffffffffffff\n      and\n      0xa1fb37ecddd4c220fd008a54a22fb96ce4db7248e0f4987e445259dc6e55188b\n        /* \"Qsito/carnaval.sol\":1836:1847  _nomeJurado */\n      dup4\n        /* \"Qsito/carnaval.sol\":1807:1848  JuradoAdicionado(msg.sender, _nomeJurado) */\n      mload(0x40)\n      tag_181\n      swap2\n      swap1\n      tag_34\n      jump\t// in\n    tag_181:\n      mload(0x40)\n      dup1\n      swap2\n      sub\n      swap1\n      log2\n        /* \"Qsito/carnaval.sol\":1887:1888  1 */\n      0x01\n        /* \"Qsito/carnaval.sol\":1866:1884  currentJuradoIndex */\n      0x80\n      0x00\n      swap1\n      sload\n      swap1\n      0x0100\n      exp\n      swap1\n      div\n      0xff\n      and\n        /* \"Qsito/carnaval.sol\":1866:1888  currentJuradoIndex - 1 */\n      tag_182\n      swap2\n      swap1\n      tag_155\n      jump\t// in\n    tag_182:\n        /* \"Qsito/carnaval.sol\":1859:1888  return currentJuradoIndex - 1 */\n      0xff\n      and\n      swap1\n      pop\n        /* \"Qsito/carnaval.sol\":1419:1896  function addJurado(string memory _nomeJurado) public returns (uint) {... */\n      swap2\n      swap1\n      pop\n      jump\t// out\n        /* \"Qsito/carnaval.sol\":3394:3581  function getNota(uint _escolaId, uint _quesitoId) public view returns (uint) {... */\n    tag_78:\n        /* \"Qsito/carnaval.sol\":3465:3469  uint */\n      0x00\n        /* \"Qsito/carnaval.sol\":3482:3499  Nota storage nota */\n      0x00\n        /* \"Qsito/carnaval.sol\":3502:3523  notasPorEscolaQuesito */\n      0x7f\n        /* \"Qsito/carnaval.sol\":3502:3534  notasPorEscolaQuesito[_escolaId] */\n      0x00\n        /* \"Qsito/carnaval.sol\":3524:3533  _escolaId */\n      dup6\n        /* \"Qsito/carnaval.sol\":3502:3534  notasPorEscolaQuesito[_escolaId] */\n      dup2\n      mstore\n      0x20\n      add\n      swap1\n      dup2\n      mstore\n      0x20\n      add\n      0x00\n      keccak256\n        /* \"Qsito/carnaval.sol\":3502:3546  notasPorEscolaQuesito[_escolaId][_quesitoId] */\n      0x00\n        /* \"Qsito/carnaval.sol\":3535:3545  _quesitoId */\n      dup5\n        /* \"Qsito/carnaval.sol\":3502:3546  notasPorEscolaQuesito[_escolaId][_quesitoId] */\n      dup2\n      mstore\n      0x20\n      add\n      swap1\n      dup2\n      mstore\n      0x20\n      add\n      0x00\n      keccak256\n        /* \"Qsito/carnaval.sol\":3482:3546  Nota storage nota = notasPorEscolaQuesito[_escolaId][_quesitoId] */\n      swap1\n      pop\n        /* \"Qsito/carnaval.sol\":3564:3568  nota */\n      dup1\n        /* \"Qsito/carnaval.sol\":3564:3573  nota.nota */\n      0x03\n      add\n      sload\n        /* \"Qsito/carnaval.sol\":3557:3573  return nota.nota */\n      swap2\n      pop\n      pop\n        /* \"Qsito/carnaval.sol\":3394:3581  function getNota(uint _escolaId, uint _quesitoId) public view returns (uint) {... */\n      swap3\n      swap2\n      pop\n      pop\n      jump\t// out\n        /* \"@openzeppelin/contracts/token/ERC20/ERC20.sol\":3004:3120  function balanceOf(address account) public view virtual returns (uint256) {... */\n    tag_82:\n        /* \"@openzeppelin/contracts/token/ERC20/ERC20.sol\":3069:3076  uint256 */\n      0x00\n        /* \"@openzeppelin/contracts/token/ERC20/ERC20.sol\":3095:3104  _balances */\n      0x00\n        /* \"@openzeppelin/contracts/token/ERC20/ERC20.sol\":3095:3113  _balances[account] */\n      0x00\n        /* \"@openzeppelin/contracts/token/ERC20/ERC20.sol\":3105:3112  account */\n      dup4\n        /* \"@openzeppelin/contracts/token/ERC20/ERC20.sol\":3095:3113  _balances[account] */\n      0xffffffffffffffffffffffffffffffffffffffff\n      and\n      0xffffffffffffffffffffffffffffffffffffffff\n      and\n      dup2\n      mstore\n      0x20\n      add\n      swap1\n      dup2\n      mstore\n      0x20\n      add\n      0x00\n      keccak256\n      sload\n        /* \"@openzeppelin/contracts/token/ERC20/ERC20.sol\":3088:3113  return _balances[account] */\n      swap1\n      pop\n        /* \"@openzeppelin/contracts/token/ERC20/ERC20.sol\":3004:3120  function balanceOf(address account) public view virtual returns (uint256) {... */\n      swap2\n      swap1\n      pop\n      jump\t// out\n        /* \"@openzeppelin/contracts/token/ERC20/ERC20.sol\":1981:2074  function symbol() public view virtual returns (string memory) {... */\n    tag_85:\n        /* \"@openzeppelin/contracts/token/ERC20/ERC20.sol\":2028:2041  string memory */\n      0x60\n        /* \"@openzeppelin/contracts/token/ERC20/ERC20.sol\":2060:2067  _symbol */\n      0x04\n        /* \"@openzeppelin/contracts/token/ERC20/ERC20.sol\":2053:2067  return _symbol */\n      dup1\n      sload\n      tag_186\n      swap1\n      tag_130\n      jump\t// in\n    tag_186:\n      dup1\n      0x1f\n      add\n      0x20\n      dup1\n      swap2\n      div\n      mul\n      0x20\n      add\n      mload(0x40)\n      swap1\n      dup2\n      add\n      0x40\n      mstore\n      dup1\n      swap3\n      swap2\n      swap1\n      dup2\n      dup2\n      mstore\n      0x20\n      add\n      dup3\n      dup1\n      sload\n      tag_187\n      swap1\n      tag_130\n      jump\t// in\n    tag_187:\n      dup1\n      iszero\n      tag_188\n      jumpi\n      dup1\n      0x1f\n      lt\n      tag_189\n      jumpi\n      0x0100\n      dup1\n      dup4\n      sload\n      div\n      mul\n      dup4\n      mstore\n      swap2\n      0x20\n      add\n      swap2\n      jump(tag_188)\n    tag_189:\n      dup3\n      add\n      swap2\n      swap1\n      0x00\n      mstore\n      keccak256(0x00, 0x20)\n      swap1\n    tag_190:\n      dup2\n      sload\n      dup2\n      mstore\n      swap1\n      0x01\n      add\n      swap1\n      0x20\n      add\n      dup1\n      dup4\n      gt\n      tag_190\n      jumpi\n      dup3\n      swap1\n      sub\n      0x1f\n      and\n      dup3\n      add\n      swap2\n    tag_188:\n      pop\n      pop\n      pop\n      pop\n      pop\n      swap1\n      pop\n        /* \"@openzeppelin/contracts/token/ERC20/ERC20.sol\":1981:2074  function symbol() public view virtual returns (string memory) {... */\n      swap1\n      jump\t// out\n        /* \"@openzeppelin/contracts/token/ERC20/ERC20.sol\":3315:3493  function transfer(address to, uint256 value) public virtual returns (bool) {... */\n    tag_89:\n        /* \"@openzeppelin/contracts/token/ERC20/ERC20.sol\":3384:3388  bool */\n      0x00\n        /* \"@openzeppelin/contracts/token/ERC20/ERC20.sol\":3400:3413  address owner */\n      0x00\n        /* \"@openzeppelin/contracts/token/ERC20/ERC20.sol\":3416:3428  _msgSender() */\n      tag_192\n        /* \"@openzeppelin/contracts/token/ERC20/ERC20.sol\":3416:3426  _msgSender */\n      tag_137\n        /* \"@openzeppelin/contracts/token/ERC20/ERC20.sol\":3416:3428  _msgSender() */\n      jump\t// in\n    tag_192:\n        /* \"@openzeppelin/contracts/token/ERC20/ERC20.sol\":3400:3428  address owner = _msgSender() */\n      swap1\n      pop\n        /* \"@openzeppelin/contracts/token/ERC20/ERC20.sol\":3438:3465  _transfer(owner, to, value) */\n      tag_193\n        /* \"@openzeppelin/contracts/token/ERC20/ERC20.sol\":3448:3453  owner */\n      dup2\n        /* \"@openzeppelin/contracts/token/ERC20/ERC20.sol\":3455:3457  to */\n      dup6\n        /* \"@openzeppelin/contracts/token/ERC20/ERC20.sol\":3459:3464  value */\n      dup6\n        /* \"@openzeppelin/contracts/token/ERC20/ERC20.sol\":3438:3447  _transfer */\n      tag_169\n        /* \"@openzeppelin/contracts/token/ERC20/ERC20.sol\":3438:3465  _transfer(owner, to, value) */\n      jump\t// in\n    tag_193:\n        /* \"@openzeppelin/contracts/token/ERC20/ERC20.sol\":3482:3486  true */\n      0x01\n        /* \"@openzeppelin/contracts/token/ERC20/ERC20.sol\":3475:3486  return true */\n      swap2\n      pop\n      pop\n        /* \"@openzeppelin/contracts/token/ERC20/ERC20.sol\":3315:3493  function transfer(address to, uint256 value) public virtual returns (bool) {... */\n      swap3\n      swap2\n      pop\n      pop\n      jump\t// out\n        /* \"Qsito/carnaval.sol\":911:978  mapping(uint => mapping(uint => Nota)) public notasPorEscolaQuesito */\n    tag_93:\n      mstore(0x20, 0x7f)\n      dup2\n      0x00\n      mstore\n      mstore(0x20, keccak256(0x00, 0x40))\n      dup1\n      0x00\n      mstore\n      keccak256(0x00, 0x40)\n      0x00\n      swap2\n      pop\n      swap2\n      pop\n      pop\n      dup1\n      0x00\n      add\n      sload\n      swap1\n      dup1\n      0x01\n      add\n      sload\n      swap1\n      dup1\n      0x02\n      add\n      0x00\n      swap1\n      sload\n      swap1\n      0x0100\n      exp\n      swap1\n      div\n      0xffffffffffffffffffffffffffffffffffffffff\n      and\n      swap1\n      dup1\n      0x03\n      add\n      sload\n      swap1\n      pop\n      dup5\n      jump\t// out\n        /* \"Qsito/carnaval.sol\":1925:2325  function addEscola(string memory _nomeEscola) public returns (uint) {... */\n    tag_97:\n        /* \"Qsito/carnaval.sol\":1987:1991  uint */\n      0x00\n        /* \"Qsito/carnaval.sol\":663:665  15 */\n      0x0f\n        /* \"Qsito/carnaval.sol\":2012:2051  currentEscolaIndex < QUANTIDADE_ESCOLAS */\n      0xff\n      and\n        /* \"Qsito/carnaval.sol\":2012:2030  currentEscolaIndex */\n      0x80\n      0x01\n      swap1\n      sload\n      swap1\n      0x0100\n      exp\n      swap1\n      div\n      0xff\n      and\n        /* \"Qsito/carnaval.sol\":2012:2051  currentEscolaIndex < QUANTIDADE_ESCOLAS */\n      0xff\n      and\n      lt\n        /* \"Qsito/carnaval.sol\":2004:2084  require(currentEscolaIndex < QUANTIDADE_ESCOLAS, \"Quantidade maxima de escolas\") */\n      tag_195\n      jumpi\n      mload(0x40)\n      0x08c379a000000000000000000000000000000000000000000000000000000000\n      dup2\n      mstore\n      0x04\n      add\n      tag_196\n      swap1\n      tag_197\n      jump\t// in\n    tag_196:\n      mload(0x40)\n      dup1\n      swap2\n      sub\n      swap1\n      revert\n    tag_195:\n        /* \"Qsito/carnaval.sol\":2124:2175  Escola({id: currentEscolaIndex, nome: _nomeEscola}) */\n      mload(0x40)\n      dup1\n      0x40\n      add\n      0x40\n      mstore\n      dup1\n        /* \"Qsito/carnaval.sol\":2136:2154  currentEscolaIndex */\n      0x80\n      0x01\n      swap1\n      sload\n      swap1\n      0x0100\n      exp\n      swap1\n      div\n      0xff\n      and\n        /* \"Qsito/carnaval.sol\":2124:2175  Escola({id: currentEscolaIndex, nome: _nomeEscola}) */\n      0xff\n      and\n      dup2\n      mstore\n      0x20\n      add\n        /* \"Qsito/carnaval.sol\":2162:2173  _nomeEscola */\n      dup4\n        /* \"Qsito/carnaval.sol\":2124:2175  Escola({id: currentEscolaIndex, nome: _nomeEscola}) */\n      dup2\n      mstore\n      pop\n        /* \"Qsito/carnaval.sol\":2095:2102  escolas */\n      0x4d\n        /* \"Qsito/carnaval.sol\":2103:2121  currentEscolaIndex */\n      0x80\n      0x01\n      swap1\n      sload\n      swap1\n      0x0100\n      exp\n      swap1\n      div\n      0xff\n      and\n        /* \"Qsito/carnaval.sol\":2095:2122  escolas[currentEscolaIndex] */\n      0xff\n      and\n      0x0f\n      dup2\n      lt\n      tag_198\n      jumpi\n      tag_199\n      tag_146\n      jump\t// in\n    tag_199:\n    tag_198:\n      0x02\n      mul\n      add\n        /* \"Qsito/carnaval.sol\":2095:2175  escolas[currentEscolaIndex]= Escola({id: currentEscolaIndex, nome: _nomeEscola}) */\n      0x00\n      dup3\n      add\n      mload\n      dup2\n      0x00\n      add\n      sstore\n      0x20\n      dup3\n      add\n      mload\n      dup2\n      0x01\n      add\n      swap1\n      dup2\n      tag_201\n      swap2\n      swap1\n      tag_149\n      jump\t// in\n    tag_201:\n      pop\n      swap1\n      pop\n      pop\n        /* \"Qsito/carnaval.sol\":2191:2240  EscolaAdicionada(currentEscolaIndex, _nomeEscola) */\n      0x9f427c381dccc81dd341800d0c9110ab44cf34bfd696503341d2a57ab3f85d88\n        /* \"Qsito/carnaval.sol\":2208:2226  currentEscolaIndex */\n      0x80\n      0x01\n      swap1\n      sload\n      swap1\n      0x0100\n      exp\n      swap1\n      div\n      0xff\n      and\n        /* \"Qsito/carnaval.sol\":2228:2239  _nomeEscola */\n      dup4\n        /* \"Qsito/carnaval.sol\":2191:2240  EscolaAdicionada(currentEscolaIndex, _nomeEscola) */\n      mload(0x40)\n      tag_202\n      swap3\n      swap2\n      swap1\n      tag_203\n      jump\t// in\n    tag_202:\n      mload(0x40)\n      dup1\n      swap2\n      sub\n      swap1\n      log1\n        /* \"Qsito/carnaval.sol\":2251:2269  currentEscolaIndex */\n      0x80\n      0x01\n        /* \"Qsito/carnaval.sol\":2251:2271  currentEscolaIndex++ */\n      dup2\n      dup2\n      swap1\n      sload\n      swap1\n      0x0100\n      exp\n      swap1\n      div\n      0xff\n      and\n      dup1\n      swap3\n      swap2\n      swap1\n      tag_204\n      swap1\n      tag_153\n      jump\t// in\n    tag_204:\n      swap2\n      swap1\n      0x0100\n      exp\n      dup2\n      sload\n      dup2\n      0xff\n      mul\n      not\n      and\n      swap1\n      dup4\n      0xff\n      and\n      mul\n      or\n      swap1\n      sstore\n      pop\n      pop\n        /* \"Qsito/carnaval.sol\":2316:2317  1 */\n      0x01\n        /* \"Qsito/carnaval.sol\":2295:2313  currentEscolaIndex */\n      0x80\n      0x01\n      swap1\n      sload\n      swap1\n      0x0100\n      exp\n      swap1\n      div\n      0xff\n      and\n        /* \"Qsito/carnaval.sol\":2295:2317  currentEscolaIndex - 1 */\n      tag_205\n      swap2\n      swap1\n      tag_155\n      jump\t// in\n    tag_205:\n        /* \"Qsito/carnaval.sol\":2288:2317  return currentEscolaIndex - 1 */\n      0xff\n      and\n      swap1\n      pop\n        /* \"Qsito/carnaval.sol\":1925:2325  function addEscola(string memory _nomeEscola) public returns (uint) {... */\n      swap2\n      swap1\n      pop\n      jump\t// out\n        /* \"Qsito/carnaval.sol\":732:773  Escola[QUANTIDADE_ESCOLAS] public escolas */\n    tag_101:\n      0x4d\n      dup2\n      0x0f\n      dup2\n      lt\n      tag_206\n      jumpi\n      0x00\n      dup1\n      revert\n    tag_206:\n      0x02\n      mul\n      add\n      0x00\n      swap2\n      pop\n      swap1\n      pop\n      dup1\n      0x00\n      add\n      sload\n      swap1\n      dup1\n      0x01\n      add\n      dup1\n      sload\n      tag_208\n      swap1\n      tag_130\n      jump\t// in\n    tag_208:\n      dup1\n      0x1f\n      add\n      0x20\n      dup1\n      swap2\n      div\n      mul\n      0x20\n      add\n      mload(0x40)\n      swap1\n      dup2\n      add\n      0x40\n      mstore\n      dup1\n      swap3\n      swap2\n      swap1\n      dup2\n      dup2\n      mstore\n      0x20\n      add\n      dup3\n      dup1\n      sload\n      tag_209\n      swap1\n      tag_130\n      jump\t// in\n    tag_209:\n      dup1\n      iszero\n      tag_210\n      jumpi\n      dup1\n      0x1f\n      lt\n      tag_211\n      jumpi\n      0x0100\n      dup1\n      dup4\n      sload\n      div\n      mul\n      dup4\n      mstore\n      swap2\n      0x20\n      add\n      swap2\n      jump(tag_210)\n    tag_211:\n      dup3\n      add\n      swap2\n      swap1\n      0x00\n      mstore\n      keccak256(0x00, 0x20)\n      swap1\n    tag_212:\n      dup2\n      sload\n      dup2\n      mstore\n      swap1\n      0x01\n      add\n      swap1\n      0x20\n      add\n      dup1\n      dup4\n      gt\n      tag_212\n      jumpi\n      dup3\n      swap1\n      sub\n      0x1f\n      and\n      dup3\n      add\n      swap2\n    tag_210:\n      pop\n      pop\n      pop\n      pop\n      pop\n      swap1\n      pop\n      dup3\n      jump\t// out\n        /* \"@openzeppelin/contracts/token/ERC20/ERC20.sol\":3551:3691  function allowance(address owner, address spender) public view virtual returns (uint256) {... */\n    tag_107:\n        /* \"@openzeppelin/contracts/token/ERC20/ERC20.sol\":3631:3638  uint256 */\n      0x00\n        /* \"@openzeppelin/contracts/token/ERC20/ERC20.sol\":3657:3668  _allowances */\n      0x01\n        /* \"@openzeppelin/contracts/token/ERC20/ERC20.sol\":3657:3675  _allowances[owner] */\n      0x00\n        /* \"@openzeppelin/contracts/token/ERC20/ERC20.sol\":3669:3674  owner */\n      dup5\n        /* \"@openzeppelin/contracts/token/ERC20/ERC20.sol\":3657:3675  _allowances[owner] */\n      0xffffffffffffffffffffffffffffffffffffffff\n      and\n      0xffffffffffffffffffffffffffffffffffffffff\n      and\n      dup2\n      mstore\n      0x20\n      add\n      swap1\n      dup2\n      mstore\n      0x20\n      add\n      0x00\n      keccak256\n        /* \"@openzeppelin/contracts/token/ERC20/ERC20.sol\":3657:3684  _allowances[owner][spender] */\n      0x00\n        /* \"@openzeppelin/contracts/token/ERC20/ERC20.sol\":3676:3683  spender */\n      dup4\n        /* \"@openzeppelin/contracts/token/ERC20/ERC20.sol\":3657:3684  _allowances[owner][spender] */\n      0xffffffffffffffffffffffffffffffffffffffff\n      and\n      0xffffffffffffffffffffffffffffffffffffffff\n      and\n      dup2\n      mstore\n      0x20\n      add\n      swap1\n      dup2\n      mstore\n      0x20\n      add\n      0x00\n      keccak256\n      sload\n        /* \"@openzeppelin/contracts/token/ERC20/ERC20.sol\":3650:3684  return _allowances[owner][spender] */\n      swap1\n      pop\n        /* \"@openzeppelin/contracts/token/ERC20/ERC20.sol\":3551:3691  function allowance(address owner, address spender) public view virtual returns (uint256) {... */\n      swap3\n      swap2\n      pop\n      pop\n      jump\t// out\n        /* \"Qsito/carnaval.sol\":674:725  Jurado[QUANTIDADE_JURADOS] public quantidadeJurados */\n    tag_111:\n      0x05\n      dup2\n      0x24\n      dup2\n      lt\n      tag_214\n      jumpi\n      0x00\n      dup1\n      revert\n    tag_214:\n      0x02\n      mul\n      add\n      0x00\n      swap2\n      pop\n      swap1\n      pop\n      dup1\n      0x00\n      add\n      0x00\n      swap1\n      sload\n      swap1\n      0x0100\n      exp\n      swap1\n      div\n      0xffffffffffffffffffffffffffffffffffffffff\n      and\n      swap1\n      dup1\n      0x01\n      add\n      dup1\n      sload\n      tag_216\n      swap1\n      tag_130\n      jump\t// in\n    tag_216:\n      dup1\n      0x1f\n      add\n      0x20\n      dup1\n      swap2\n      div\n      mul\n      0x20\n      add\n      mload(0x40)\n      swap1\n      dup2\n      add\n      0x40\n      mstore\n      dup1\n      swap3\n      swap2\n      swap1\n      dup2\n      dup2\n      mstore\n      0x20\n      add\n      dup3\n      dup1\n      sload\n      tag_217\n      swap1\n      tag_130\n      jump\t// in\n    tag_217:\n      dup1\n      iszero\n      tag_218\n      jumpi\n      dup1\n      0x1f\n      lt\n      tag_219\n      jumpi\n      0x0100\n      dup1\n      dup4\n      sload\n      div\n      mul\n      dup4\n      mstore\n      swap2\n      0x20\n      add\n      swap2\n      jump(tag_218)\n    tag_219:\n      dup3\n      add\n      swap2\n      swap1\n      0x00\n      mstore\n      keccak256(0x00, 0x20)\n      swap1\n    tag_220:\n      dup2\n      sload\n      dup2\n      mstore\n      swap1\n      0x01\n      add\n      swap1\n      0x20\n      add\n      dup1\n      dup4\n      gt\n      tag_220\n      jumpi\n      dup3\n      swap1\n      sub\n      0x1f\n      and\n      dup3\n      add\n      swap2\n    tag_218:\n      pop\n      pop\n      pop\n      pop\n      pop\n      swap1\n      pop\n      dup3\n      jump\t// out\n        /* \"Qsito/carnaval.sol\":3619:4002  function limparDados() public {... */\n    tag_114:\n        /* \"Qsito/carnaval.sol\":3667:3684  quantidadeJurados */\n      0x05\n      0x00\n        /* \"Qsito/carnaval.sol\":3660:3684  delete quantidadeJurados */\n      tag_222\n      swap2\n      swap1\n      tag_223\n      jump\t// in\n    tag_222:\n        /* \"Qsito/carnaval.sol\":3702:3709  escolas */\n      0x4d\n      0x00\n        /* \"Qsito/carnaval.sol\":3695:3709  delete escolas */\n      tag_224\n      swap2\n      swap1\n      tag_225\n      jump\t// in\n    tag_224:\n        /* \"Qsito/carnaval.sol\":3727:3735  quesitos */\n      0x6b\n      0x00\n        /* \"Qsito/carnaval.sol\":3720:3735  delete quesitos */\n      tag_226\n      swap2\n      swap1\n      tag_227\n      jump\t// in\n    tag_226:\n        /* \"Qsito/carnaval.sol\":3753:3758  notas */\n      0x7d\n      0x00\n        /* \"Qsito/carnaval.sol\":3746:3758  delete notas */\n      tag_228\n      swap2\n      swap1\n      tag_229\n      jump\t// in\n    tag_228:\n        /* \"Qsito/carnaval.sol\":3812:3818  uint i */\n      0x00\n        /* \"Qsito/carnaval.sol\":3821:3822  0 */\n      0x00\n        /* \"Qsito/carnaval.sol\":3812:3822  uint i = 0 */\n      swap1\n      pop\n        /* \"Qsito/carnaval.sol\":3807:3995  for (uint i = 0; i < QUANTIDADE_ESCOLAS; i++) {... */\n    tag_230:\n        /* \"Qsito/carnaval.sol\":663:665  15 */\n      0x0f\n        /* \"Qsito/carnaval.sol\":3824:3846  i < QUANTIDADE_ESCOLAS */\n      0xff\n      and\n        /* \"Qsito/carnaval.sol\":3824:3825  i */\n      dup2\n        /* \"Qsito/carnaval.sol\":3824:3846  i < QUANTIDADE_ESCOLAS */\n      lt\n        /* \"Qsito/carnaval.sol\":3807:3995  for (uint i = 0; i < QUANTIDADE_ESCOLAS; i++) {... */\n      iszero\n      tag_231\n      jumpi\n        /* \"Qsito/carnaval.sol\":3873:3879  uint j */\n      0x00\n        /* \"Qsito/carnaval.sol\":3882:3883  0 */\n      0x00\n        /* \"Qsito/carnaval.sol\":3873:3883  uint j = 0 */\n      swap1\n      pop\n        /* \"Qsito/carnaval.sol\":3868:3984  for (uint j = 0; j < QUANTIDADE_QUESITOS; j++) {... */\n    tag_233:\n        /* \"Qsito/carnaval.sol\":610:611  9 */\n      0x09\n        /* \"Qsito/carnaval.sol\":3885:3908  j < QUANTIDADE_QUESITOS */\n      0xff\n      and\n        /* \"Qsito/carnaval.sol\":3885:3886  j */\n      dup2\n        /* \"Qsito/carnaval.sol\":3885:3908  j < QUANTIDADE_QUESITOS */\n      lt\n        /* \"Qsito/carnaval.sol\":3868:3984  for (uint j = 0; j < QUANTIDADE_QUESITOS; j++) {... */\n      iszero\n      tag_234\n      jumpi\n        /* \"Qsito/carnaval.sol\":3941:3962  notasPorEscolaQuesito */\n      0x7f\n        /* \"Qsito/carnaval.sol\":3941:3965  notasPorEscolaQuesito[i] */\n      0x00\n        /* \"Qsito/carnaval.sol\":3963:3964  i */\n      dup4\n        /* \"Qsito/carnaval.sol\":3941:3965  notasPorEscolaQuesito[i] */\n      dup2\n      mstore\n      0x20\n      add\n      swap1\n      dup2\n      mstore\n      0x20\n      add\n      0x00\n      keccak256\n        /* \"Qsito/carnaval.sol\":3941:3968  notasPorEscolaQuesito[i][j] */\n      0x00\n        /* \"Qsito/carnaval.sol\":3966:3967  j */\n      dup3\n        /* \"Qsito/carnaval.sol\":3941:3968  notasPorEscolaQuesito[i][j] */\n      dup2\n      mstore\n      0x20\n      add\n      swap1\n      dup2\n      mstore\n      0x20\n      add\n      0x00\n      keccak256\n      0x00\n        /* \"Qsito/carnaval.sol\":3934:3968  delete notasPorEscolaQuesito[i][j] */\n      0x00\n      dup3\n      add\n      0x00\n      swap1\n      sstore\n      0x01\n      dup3\n      add\n      0x00\n      swap1\n      sstore\n      0x02\n      dup3\n      add\n      exp(0x0100, 0x00)\n      dup2\n      sload\n      swap1\n      0xffffffffffffffffffffffffffffffffffffffff\n      mul\n      not\n      and\n      swap1\n      sstore\n      0x03\n      dup3\n      add\n      0x00\n      swap1\n      sstore\n      pop\n      pop\n        /* \"Qsito/carnaval.sol\":3910:3913  j++ */\n      dup1\n      dup1\n      0x01\n      add\n      swap2\n      pop\n      pop\n        /* \"Qsito/carnaval.sol\":3868:3984  for (uint j = 0; j < QUANTIDADE_QUESITOS; j++) {... */\n      jump(tag_233)\n    tag_234:\n      pop\n        /* \"Qsito/carnaval.sol\":3848:3851  i++ */\n      dup1\n      dup1\n      0x01\n      add\n      swap2\n      pop\n      pop\n        /* \"Qsito/carnaval.sol\":3807:3995  for (uint i = 0; i < QUANTIDADE_ESCOLAS; i++) {... */\n      jump(tag_230)\n    tag_231:\n      pop\n        /* \"Qsito/carnaval.sol\":3619:4002  function limparDados() public {... */\n      jump\t// out\n        /* \"Qsito/carnaval.sol\":780:824  Quesito[QUANTIDADE_QUESITOS] public quesitos */\n    tag_117:\n      0x6b\n      dup2\n      0x09\n      dup2\n      lt\n      tag_236\n      jumpi\n      0x00\n      dup1\n      revert\n    tag_236:\n      0x02\n      mul\n      add\n      0x00\n      swap2\n      pop\n      swap1\n      pop\n      dup1\n      0x00\n      add\n      sload\n      swap1\n      dup1\n      0x01\n      add\n      dup1\n      sload\n      tag_238\n      swap1\n      tag_130\n      jump\t// in\n    tag_238:\n      dup1\n      0x1f\n      add\n      0x20\n      dup1\n      swap2\n      div\n      mul\n      0x20\n      add\n      mload(0x40)\n      swap1\n      dup2\n      add\n      0x40\n      mstore\n      dup1\n      swap3\n      swap2\n      swap1\n      dup2\n      dup2\n      mstore\n      0x20\n      add\n      dup3\n      dup1\n      sload\n      tag_239\n      swap1\n      tag_130\n      jump\t// in\n    tag_239:\n      dup1\n      iszero\n      tag_240\n      jumpi\n      dup1\n      0x1f\n      lt\n      tag_241\n      jumpi\n      0x0100\n      dup1\n      dup4\n      sload\n      div\n      mul\n      dup4\n      mstore\n      swap2\n      0x20\n      add\n      swap2\n      jump(tag_240)\n    tag_241:\n      dup3\n      add\n      swap2\n      swap1\n      0x00\n      mstore\n      keccak256(0x00, 0x20)\n      swap1\n    tag_242:\n      dup2\n      sload\n      dup2\n      mstore\n      swap1\n      0x01\n      add\n      swap1\n      0x20\n      add\n      dup1\n      dup4\n      gt\n      tag_242\n      jumpi\n      dup3\n      swap1\n      sub\n      0x1f\n      and\n      dup3\n      add\n      swap2\n    tag_240:\n      pop\n      pop\n      pop\n      pop\n      pop\n      swap1\n      pop\n      dup3\n      jump\t// out\n        /* \"@openzeppelin/contracts/utils/Context.sol\":656:752  function _msgSender() internal view virtual returns (address) {... */\n    tag_137:\n        /* \"@openzeppelin/contracts/utils/Context.sol\":709:716  address */\n      0x00\n        /* \"@openzeppelin/contracts/utils/Context.sol\":735:745  msg.sender */\n      caller\n        /* \"@openzeppelin/contracts/utils/Context.sol\":728:745  return msg.sender */\n      swap1\n      pop\n        /* \"@openzeppelin/contracts/utils/Context.sol\":656:752  function _msgSender() internal view virtual returns (address) {... */\n      swap1\n      jump\t// out\n        /* \"@openzeppelin/contracts/token/ERC20/ERC20.sol\":8726:8854  function _approve(address owner, address spender, uint256 value) internal {... */\n    tag_139:\n        /* \"@openzeppelin/contracts/token/ERC20/ERC20.sol\":8810:8847  _approve(owner, spender, value, true) */\n      tag_245\n        /* \"@openzeppelin/contracts/token/ERC20/ERC20.sol\":8819:8824  owner */\n      dup4\n        /* \"@openzeppelin/contracts/token/ERC20/ERC20.sol\":8826:8833  spender */\n      dup4\n        /* \"@openzeppelin/contracts/token/ERC20/ERC20.sol\":8835:8840  value */\n      dup4\n        /* \"@openzeppelin/contracts/token/ERC20/ERC20.sol\":8842:8846  true */\n      0x01\n        /* \"@openzeppelin/contracts/token/ERC20/ERC20.sol\":8810:8818  _approve */\n      tag_246\n        /* \"@openzeppelin/contracts/token/ERC20/ERC20.sol\":8810:8847  _approve(owner, spender, value, true) */\n      jump\t// in\n    tag_245:\n        /* \"@openzeppelin/contracts/token/ERC20/ERC20.sol\":8726:8854  function _approve(address owner, address spender, uint256 value) internal {... */\n      pop\n      pop\n      pop\n      jump\t// out\n        /* \"@openzeppelin/contracts/token/ERC20/ERC20.sol\":10415:10892  function _spendAllowance(address owner, address spender, uint256 value) internal virtual {... */\n    tag_167:\n        /* \"@openzeppelin/contracts/token/ERC20/ERC20.sol\":10514:10538  uint256 currentAllowance */\n      0x00\n        /* \"@openzeppelin/contracts/token/ERC20/ERC20.sol\":10541:10566  allowance(owner, spender) */\n      tag_248\n        /* \"@openzeppelin/contracts/token/ERC20/ERC20.sol\":10551:10556  owner */\n      dup5\n        /* \"@openzeppelin/contracts/token/ERC20/ERC20.sol\":10558:10565  spender */\n      dup5\n        /* \"@openzeppelin/contracts/token/ERC20/ERC20.sol\":10541:10550  allowance */\n      tag_107\n        /* \"@openzeppelin/contracts/token/ERC20/ERC20.sol\":10541:10566  allowance(owner, spender) */\n      jump\t// in\n    tag_248:\n        /* \"@openzeppelin/contracts/token/ERC20/ERC20.sol\":10514:10566  uint256 currentAllowance = allowance(owner, spender) */\n      swap1\n      pop\n        /* \"@openzeppelin/contracts/token/ERC20/ERC20.sol\":10600:10617  type(uint256).max */\n      0xffffffffffffffffffffffffffffffffffffffffffffffffffffffffffffffff\n        /* \"@openzeppelin/contracts/token/ERC20/ERC20.sol\":10580:10596  currentAllowance */\n      dup2\n        /* \"@openzeppelin/contracts/token/ERC20/ERC20.sol\":10580:10617  currentAllowance != type(uint256).max */\n      eq\n        /* \"@openzeppelin/contracts/token/ERC20/ERC20.sol\":10576:10886  if (currentAllowance != type(uint256).max) {... */\n      tag_249\n      jumpi\n        /* \"@openzeppelin/contracts/token/ERC20/ERC20.sol\":10656:10661  value */\n      dup2\n        /* \"@openzeppelin/contracts/token/ERC20/ERC20.sol\":10637:10653  currentAllowance */\n      dup2\n        /* \"@openzeppelin/contracts/token/ERC20/ERC20.sol\":10637:10661  currentAllowance < value */\n      lt\n        /* \"@openzeppelin/contracts/token/ERC20/ERC20.sol\":10633:10763  if (currentAllowance < value) {... */\n      iszero\n      tag_250\n      jumpi\n        /* \"@openzeppelin/contracts/token/ERC20/ERC20.sol\":10715:10722  spender */\n      dup3\n        /* \"@openzeppelin/contracts/token/ERC20/ERC20.sol\":10724:10740  currentAllowance */\n      dup2\n        /* \"@openzeppelin/contracts/token/ERC20/ERC20.sol\":10742:10747  value */\n      dup4\n        /* \"@openzeppelin/contracts/token/ERC20/ERC20.sol\":10688:10748  ERC20InsufficientAllowance(spender, currentAllowance, value) */\n      mload(0x40)\n      0xfb8f41b200000000000000000000000000000000000000000000000000000000\n      dup2\n      mstore\n      0x04\n      add\n      tag_251\n      swap4\n      swap3\n      swap2\n      swap1\n      tag_252\n      jump\t// in\n    tag_251:\n      mload(0x40)\n      dup1\n      swap2\n      sub\n      swap1\n      revert\n        /* \"@openzeppelin/contracts/token/ERC20/ERC20.sol\":10633:10763  if (currentAllowance < value) {... */\n    tag_250:\n        /* \"@openzeppelin/contracts/token/ERC20/ERC20.sol\":10804:10861  _approve(owner, spender, currentAllowance - value, false) */\n      tag_253\n        /* \"@openzeppelin/contracts/token/ERC20/ERC20.sol\":10813:10818  owner */\n      dup5\n        /* \"@openzeppelin/contracts/token/ERC20/ERC20.sol\":10820:10827  spender */\n      dup5\n        /* \"@openzeppelin/contracts/token/ERC20/ERC20.sol\":10848:10853  value */\n      dup5\n        /* \"@openzeppelin/contracts/token/ERC20/ERC20.sol\":10829:10845  currentAllowance */\n      dup5\n        /* \"@openzeppelin/contracts/token/ERC20/ERC20.sol\":10829:10853  currentAllowance - value */\n      sub\n        /* \"@openzeppelin/contracts/token/ERC20/ERC20.sol\":10855:10860  false */\n      0x00\n        /* \"@openzeppelin/contracts/token/ERC20/ERC20.sol\":10804:10812  _approve */\n      tag_246\n        /* \"@openzeppelin/contracts/token/ERC20/ERC20.sol\":10804:10861  _approve(owner, spender, currentAllowance - value, false) */\n      jump\t// in\n    tag_253:\n        /* \"@openzeppelin/contracts/token/ERC20/ERC20.sol\":10576:10886  if (currentAllowance != type(uint256).max) {... */\n    tag_249:\n        /* \"@openzeppelin/contracts/token/ERC20/ERC20.sol\":10504:10892  {... */\n      pop\n        /* \"@openzeppelin/contracts/token/ERC20/ERC20.sol\":10415:10892  function _spendAllowance(address owner, address spender, uint256 value) internal virtual {... */\n      pop\n      pop\n      pop\n      jump\t// out\n        /* \"@openzeppelin/contracts/token/ERC20/ERC20.sol\":5393:5693  function _transfer(address from, address to, uint256 value) internal {... */\n    tag_169:\n        /* \"@openzeppelin/contracts/token/ERC20/ERC20.sol\":5492:5493  0 */\n      0x00\n        /* \"@openzeppelin/contracts/token/ERC20/ERC20.sol\":5476:5494  from == address(0) */\n      0xffffffffffffffffffffffffffffffffffffffff\n      and\n        /* \"@openzeppelin/contracts/token/ERC20/ERC20.sol\":5476:5480  from */\n      dup4\n        /* \"@openzeppelin/contracts/token/ERC20/ERC20.sol\":5476:5494  from == address(0) */\n      0xffffffffffffffffffffffffffffffffffffffff\n      and\n      sub\n        /* \"@openzeppelin/contracts/token/ERC20/ERC20.sol\":5472:5558  if (from == address(0)) {... */\n      tag_255\n      jumpi\n        /* \"@openzeppelin/contracts/token/ERC20/ERC20.sol\":5544:5545  0 */\n      0x00\n        /* \"@openzeppelin/contracts/token/ERC20/ERC20.sol\":5517:5547  ERC20InvalidSender(address(0)) */\n      mload(0x40)\n      0x96c6fd1e00000000000000000000000000000000000000000000000000000000\n      dup2\n      mstore\n      0x04\n      add\n      tag_256\n      swap2\n      swap1\n      tag_257\n      jump\t// in\n    tag_256:\n      mload(0x40)\n      dup1\n      swap2\n      sub\n      swap1\n      revert\n        /* \"@openzeppelin/contracts/token/ERC20/ERC20.sol\":5472:5558  if (from == address(0)) {... */\n    tag_255:\n        /* \"@openzeppelin/contracts/token/ERC20/ERC20.sol\":5585:5586  0 */\n      0x00\n        /* \"@openzeppelin/contracts/token/ERC20/ERC20.sol\":5571:5587  to == address(0) */\n      0xffffffffffffffffffffffffffffffffffffffff\n      and\n        /* \"@openzeppelin/contracts/token/ERC20/ERC20.sol\":5571:5573  to */\n      dup3\n        /* \"@openzeppelin/contracts/token/ERC20/ERC20.sol\":5571:5587  to == address(0) */\n      0xffffffffffffffffffffffffffffffffffffffff\n      and\n      sub\n        /* \"@openzeppelin/contracts/token/ERC20/ERC20.sol\":5567:5653  if (to == address(0)) {... */\n      tag_258\n      jumpi\n        /* \"@openzeppelin/contracts/token/ERC20/ERC20.sol\":5639:5640  0 */\n      0x00\n        /* \"@openzeppelin/contracts/token/ERC20/ERC20.sol\":5610:5642  ERC20InvalidReceiver(address(0)) */\n      mload(0x40)\n      0xec442f0500000000000000000000000000000000000000000000000000000000\n      dup2\n      mstore\n      0x04\n      add\n      tag_259\n      swap2\n      swap1\n      tag_257\n      jump\t// in\n    tag_259:\n      mload(0x40)\n      dup1\n      swap2\n      sub\n      swap1\n      revert\n        /* \"@openzeppelin/contracts/token/ERC20/ERC20.sol\":5567:5653  if (to == address(0)) {... */\n    tag_258:\n        /* \"@openzeppelin/contracts/token/ERC20/ERC20.sol\":5662:5686  _update(from, to, value) */\n      tag_260\n        /* \"@openzeppelin/contracts/token/ERC20/ERC20.sol\":5670:5674  from */\n      dup4\n        /* \"@openzeppelin/contracts/token/ERC20/ERC20.sol\":5676:5678  to */\n      dup4\n        /* \"@openzeppelin/contracts/token/ERC20/ERC20.sol\":5680:5685  value */\n      dup4\n        /* \"@openzeppelin/contracts/token/ERC20/ERC20.sol\":5662:5669  _update */\n      tag_261\n        /* \"@openzeppelin/contracts/token/ERC20/ERC20.sol\":5662:5686  _update(from, to, value) */\n      jump\t// in\n    tag_260:\n        /* \"@openzeppelin/contracts/token/ERC20/ERC20.sol\":5393:5693  function _transfer(address from, address to, uint256 value) internal {... */\n      pop\n      pop\n      pop\n      jump\t// out\n        /* \"@openzeppelin/contracts/token/ERC20/ERC20.sol\":9701:10133  function _approve(address owner, address spender, uint256 value, bool emitEvent) internal virtual {... */\n    tag_246:\n        /* \"@openzeppelin/contracts/token/ERC20/ERC20.sol\":9830:9831  0 */\n      0x00\n        /* \"@openzeppelin/contracts/token/ERC20/ERC20.sol\":9813:9832  owner == address(0) */\n      0xffffffffffffffffffffffffffffffffffffffff\n      and\n        /* \"@openzeppelin/contracts/token/ERC20/ERC20.sol\":9813:9818  owner */\n      dup5\n        /* \"@openzeppelin/contracts/token/ERC20/ERC20.sol\":9813:9832  owner == address(0) */\n      0xffffffffffffffffffffffffffffffffffffffff\n      and\n      sub\n        /* \"@openzeppelin/contracts/token/ERC20/ERC20.sol\":9809:9898  if (owner == address(0)) {... */\n      tag_263\n      jumpi\n        /* \"@openzeppelin/contracts/token/ERC20/ERC20.sol\":9884:9885  0 */\n      0x00\n        /* \"@openzeppelin/contracts/token/ERC20/ERC20.sol\":9855:9887  ERC20InvalidApprover(address(0)) */\n      mload(0x40)\n      0xe602df0500000000000000000000000000000000000000000000000000000000\n      dup2\n      mstore\n      0x04\n      add\n      tag_264\n      swap2\n      swap1\n      tag_257\n      jump\t// in\n    tag_264:\n      mload(0x40)\n      dup1\n      swap2\n      sub\n      swap1\n      revert\n        /* \"@openzeppelin/contracts/token/ERC20/ERC20.sol\":9809:9898  if (owner == address(0)) {... */\n    tag_263:\n        /* \"@openzeppelin/contracts/token/ERC20/ERC20.sol\":9930:9931  0 */\n      0x00\n        /* \"@openzeppelin/contracts/token/ERC20/ERC20.sol\":9911:9932  spender == address(0) */\n      0xffffffffffffffffffffffffffffffffffffffff\n      and\n        /* \"@openzeppelin/contracts/token/ERC20/ERC20.sol\":9911:9918  spender */\n      dup4\n        /* \"@openzeppelin/contracts/token/ERC20/ERC20.sol\":9911:9932  spender == address(0) */\n      0xffffffffffffffffffffffffffffffffffffffff\n      and\n      sub\n        /* \"@openzeppelin/contracts/token/ERC20/ERC20.sol\":9907:9997  if (spender == address(0)) {... */\n      tag_265\n      jumpi\n        /* \"@openzeppelin/contracts/token/ERC20/ERC20.sol\":9983:9984  0 */\n      0x00\n        /* \"@openzeppelin/contracts/token/ERC20/ERC20.sol\":9955:9986  ERC20InvalidSpender(address(0)) */\n      mload(0x40)\n      0x94280d6200000000000000000000000000000000000000000000000000000000\n      dup2\n      mstore\n      0x04\n      add\n      tag_266\n      swap2\n      swap1\n      tag_257\n      jump\t// in\n    tag_266:\n      mload(0x40)\n      dup1\n      swap2\n      sub\n      swap1\n      revert\n        /* \"@openzeppelin/contracts/token/ERC20/ERC20.sol\":9907:9997  if (spender == address(0)) {... */\n    tag_265:\n        /* \"@openzeppelin/contracts/token/ERC20/ERC20.sol\":10036:10041  value */\n      dup2\n        /* \"@openzeppelin/contracts/token/ERC20/ERC20.sol\":10006:10017  _allowances */\n      0x01\n        /* \"@openzeppelin/contracts/token/ERC20/ERC20.sol\":10006:10024  _allowances[owner] */\n      0x00\n        /* \"@openzeppelin/contracts/token/ERC20/ERC20.sol\":10018:10023  owner */\n      dup7\n        /* \"@openzeppelin/contracts/token/ERC20/ERC20.sol\":10006:10024  _allowances[owner] */\n      0xffffffffffffffffffffffffffffffffffffffff\n      and\n      0xffffffffffffffffffffffffffffffffffffffff\n      and\n      dup2\n      mstore\n      0x20\n      add\n      swap1\n      dup2\n      mstore\n      0x20\n      add\n      0x00\n      keccak256\n        /* \"@openzeppelin/contracts/token/ERC20/ERC20.sol\":10006:10033  _allowances[owner][spender] */\n      0x00\n        /* \"@openzeppelin/contracts/token/ERC20/ERC20.sol\":10025:10032  spender */\n      dup6\n        /* \"@openzeppelin/contracts/token/ERC20/ERC20.sol\":10006:10033  _allowances[owner][spender] */\n      0xffffffffffffffffffffffffffffffffffffffff\n      and\n      0xffffffffffffffffffffffffffffffffffffffff\n      and\n      dup2\n      mstore\n      0x20\n      add\n      swap1\n      dup2\n      mstore\n      0x20\n      add\n      0x00\n      keccak256\n        /* \"@openzeppelin/contracts/token/ERC20/ERC20.sol\":10006:10041  _allowances[owner][spender] = value */\n      dup2\n      swap1\n      sstore\n      pop\n        /* \"@openzeppelin/contracts/token/ERC20/ERC20.sol\":10055:10064  emitEvent */\n      dup1\n        /* \"@openzeppelin/contracts/token/ERC20/ERC20.sol\":10051:10127  if (emitEvent) {... */\n      iszero\n      tag_267\n      jumpi\n        /* \"@openzeppelin/contracts/token/ERC20/ERC20.sol\":10101:10108  spender */\n      dup3\n        /* \"@openzeppelin/contracts/token/ERC20/ERC20.sol\":10085:10116  Approval(owner, spender, value) */\n      0xffffffffffffffffffffffffffffffffffffffff\n      and\n        /* \"@openzeppelin/contracts/token/ERC20/ERC20.sol\":10094:10099  owner */\n      dup5\n        /* \"@openzeppelin/contracts/token/ERC20/ERC20.sol\":10085:10116  Approval(owner, spender, value) */\n      0xffffffffffffffffffffffffffffffffffffffff\n      and\n      0x8c5be1e5ebec7d5bd14f71427d1e84f3dd0314c0f7b2291e5b200ac8c7c3b925\n        /* \"@openzeppelin/contracts/token/ERC20/ERC20.sol\":10110:10115  value */\n      dup5\n        /* \"@openzeppelin/contracts/token/ERC20/ERC20.sol\":10085:10116  Approval(owner, spender, value) */\n      mload(0x40)\n      tag_268\n      swap2\n      swap1\n      tag_46\n      jump\t// in\n    tag_268:\n      mload(0x40)\n      dup1\n      swap2\n      sub\n      swap1\n      log3\n        /* \"@openzeppelin/contracts/token/ERC20/ERC20.sol\":10051:10127  if (emitEvent) {... */\n    tag_267:\n        /* \"@openzeppelin/contracts/token/ERC20/ERC20.sol\":9701:10133  function _approve(address owner, address spender, uint256 value, bool emitEvent) internal virtual {... */\n      pop\n      pop\n      pop\n      pop\n      jump\t// out\n        /* \"@openzeppelin/contracts/token/ERC20/ERC20.sol\":6008:7115  function _update(address from, address to, uint256 value) internal virtual {... */\n    tag_261:\n        /* \"@openzeppelin/contracts/token/ERC20/ERC20.sol\":6113:6114  0 */\n      0x00\n        /* \"@openzeppelin/contracts/token/ERC20/ERC20.sol\":6097:6115  from == address(0) */\n      0xffffffffffffffffffffffffffffffffffffffff\n      and\n        /* \"@openzeppelin/contracts/token/ERC20/ERC20.sol\":6097:6101  from */\n      dup4\n        /* \"@openzeppelin/contracts/token/ERC20/ERC20.sol\":6097:6115  from == address(0) */\n      0xffffffffffffffffffffffffffffffffffffffff\n      and\n      sub\n        /* \"@openzeppelin/contracts/token/ERC20/ERC20.sol\":6093:6633  if (from == address(0)) {... */\n      tag_270\n      jumpi\n        /* \"@openzeppelin/contracts/token/ERC20/ERC20.sol\":6249:6254  value */\n      dup1\n        /* \"@openzeppelin/contracts/token/ERC20/ERC20.sol\":6233:6245  _totalSupply */\n      0x02\n      0x00\n        /* \"@openzeppelin/contracts/token/ERC20/ERC20.sol\":6233:6254  _totalSupply += value */\n      dup3\n      dup3\n      sload\n      tag_271\n      swap2\n      swap1\n      tag_272\n      jump\t// in\n    tag_271:\n      swap3\n      pop\n      pop\n      dup2\n      swap1\n      sstore\n      pop\n        /* \"@openzeppelin/contracts/token/ERC20/ERC20.sol\":6093:6633  if (from == address(0)) {... */\n      jump(tag_273)\n    tag_270:\n        /* \"@openzeppelin/contracts/token/ERC20/ERC20.sol\":6285:6304  uint256 fromBalance */\n      0x00\n        /* \"@openzeppelin/contracts/token/ERC20/ERC20.sol\":6307:6316  _balances */\n      0x00\n        /* \"@openzeppelin/contracts/token/ERC20/ERC20.sol\":6307:6322  _balances[from] */\n      0x00\n        /* \"@openzeppelin/contracts/token/ERC20/ERC20.sol\":6317:6321  from */\n      dup6\n        /* \"@openzeppelin/contracts/token/ERC20/ERC20.sol\":6307:6322  _balances[from] */\n      0xffffffffffffffffffffffffffffffffffffffff\n      and\n      0xffffffffffffffffffffffffffffffffffffffff\n      and\n      dup2\n      mstore\n      0x20\n      add\n      swap1\n      dup2\n      mstore\n      0x20\n      add\n      0x00\n      keccak256\n      sload\n        /* \"@openzeppelin/contracts/token/ERC20/ERC20.sol\":6285:6322  uint256 fromBalance = _balances[from] */\n      swap1\n      pop\n        /* \"@openzeppelin/contracts/token/ERC20/ERC20.sol\":6354:6359  value */\n      dup2\n        /* \"@openzeppelin/contracts/token/ERC20/ERC20.sol\":6340:6351  fromBalance */\n      dup2\n        /* \"@openzeppelin/contracts/token/ERC20/ERC20.sol\":6340:6359  fromBalance < value */\n      lt\n        /* \"@openzeppelin/contracts/token/ERC20/ERC20.sol\":6336:6451  if (fromBalance < value) {... */\n      iszero\n      tag_274\n      jumpi\n        /* \"@openzeppelin/contracts/token/ERC20/ERC20.sol\":6411:6415  from */\n      dup4\n        /* \"@openzeppelin/contracts/token/ERC20/ERC20.sol\":6417:6428  fromBalance */\n      dup2\n        /* \"@openzeppelin/contracts/token/ERC20/ERC20.sol\":6430:6435  value */\n      dup4\n        /* \"@openzeppelin/contracts/token/ERC20/ERC20.sol\":6386:6436  ERC20InsufficientBalance(from, fromBalance, value) */\n      mload(0x40)\n      0xe450d38c00000000000000000000000000000000000000000000000000000000\n      dup2\n      mstore\n      0x04\n      add\n      tag_275\n      swap4\n      swap3\n      swap2\n      swap1\n      tag_252\n      jump\t// in\n    tag_275:\n      mload(0x40)\n      dup1\n      swap2\n      sub\n      swap1\n      revert\n        /* \"@openzeppelin/contracts/token/ERC20/ERC20.sol\":6336:6451  if (fromBalance < value) {... */\n    tag_274:\n        /* \"@openzeppelin/contracts/token/ERC20/ERC20.sol\":6603:6608  value */\n      dup2\n        /* \"@openzeppelin/contracts/token/ERC20/ERC20.sol\":6589:6600  fromBalance */\n      dup2\n        /* \"@openzeppelin/contracts/token/ERC20/ERC20.sol\":6589:6608  fromBalance - value */\n      sub\n        /* \"@openzeppelin/contracts/token/ERC20/ERC20.sol\":6571:6580  _balances */\n      0x00\n        /* \"@openzeppelin/contracts/token/ERC20/ERC20.sol\":6571:6586  _balances[from] */\n      0x00\n        /* \"@openzeppelin/contracts/token/ERC20/ERC20.sol\":6581:6585  from */\n      dup7\n        /* \"@openzeppelin/contracts/token/ERC20/ERC20.sol\":6571:6586  _balances[from] */\n      0xffffffffffffffffffffffffffffffffffffffff\n      and\n      0xffffffffffffffffffffffffffffffffffffffff\n      and\n      dup2\n      mstore\n      0x20\n      add\n      swap1\n      dup2\n      mstore\n      0x20\n      add\n      0x00\n      keccak256\n        /* \"@openzeppelin/contracts/token/ERC20/ERC20.sol\":6571:6608  _balances[from] = fromBalance - value */\n      dup2\n      swap1\n      sstore\n      pop\n        /* \"@openzeppelin/contracts/token/ERC20/ERC20.sol\":6271:6633  {... */\n      pop\n        /* \"@openzeppelin/contracts/token/ERC20/ERC20.sol\":6093:6633  if (from == address(0)) {... */\n    tag_273:\n        /* \"@openzeppelin/contracts/token/ERC20/ERC20.sol\":6661:6662  0 */\n      0x00\n        /* \"@openzeppelin/contracts/token/ERC20/ERC20.sol\":6647:6663  to == address(0) */\n      0xffffffffffffffffffffffffffffffffffffffff\n      and\n        /* \"@openzeppelin/contracts/token/ERC20/ERC20.sol\":6647:6649  to */\n      dup3\n        /* \"@openzeppelin/contracts/token/ERC20/ERC20.sol\":6647:6663  to == address(0) */\n      0xffffffffffffffffffffffffffffffffffffffff\n      and\n      sub\n        /* \"@openzeppelin/contracts/token/ERC20/ERC20.sol\":6643:7068  if (to == address(0)) {... */\n      tag_276\n      jumpi\n        /* \"@openzeppelin/contracts/token/ERC20/ERC20.sol\":6826:6831  value */\n      dup1\n        /* \"@openzeppelin/contracts/token/ERC20/ERC20.sol\":6810:6822  _totalSupply */\n      0x02\n      0x00\n        /* \"@openzeppelin/contracts/token/ERC20/ERC20.sol\":6810:6831  _totalSupply -= value */\n      dup3\n      dup3\n      sload\n      sub\n      swap3\n      pop\n      pop\n      dup2\n      swap1\n      sstore\n      pop\n        /* \"@openzeppelin/contracts/token/ERC20/ERC20.sol\":6643:7068  if (to == address(0)) {... */\n      jump(tag_277)\n    tag_276:\n        /* \"@openzeppelin/contracts/token/ERC20/ERC20.sol\":7038:7043  value */\n      dup1\n        /* \"@openzeppelin/contracts/token/ERC20/ERC20.sol\":7021:7030  _balances */\n      0x00\n        /* \"@openzeppelin/contracts/token/ERC20/ERC20.sol\":7021:7034  _balances[to] */\n      0x00\n        /* \"@openzeppelin/contracts/token/ERC20/ERC20.sol\":7031:7033  to */\n      dup5\n        /* \"@openzeppelin/contracts/token/ERC20/ERC20.sol\":7021:7034  _balances[to] */\n      0xffffffffffffffffffffffffffffffffffffffff\n      and\n      0xffffffffffffffffffffffffffffffffffffffff\n      and\n      dup2\n      mstore\n      0x20\n      add\n      swap1\n      dup2\n      mstore\n      0x20\n      add\n      0x00\n      keccak256\n      0x00\n        /* \"@openzeppelin/contracts/token/ERC20/ERC20.sol\":7021:7043  _balances[to] += value */\n      dup3\n      dup3\n      sload\n      add\n      swap3\n      pop\n      pop\n      dup2\n      swap1\n      sstore\n      pop\n        /* \"@openzeppelin/contracts/token/ERC20/ERC20.sol\":6643:7068  if (to == address(0)) {... */\n    tag_277:\n        /* \"@openzeppelin/contracts/token/ERC20/ERC20.sol\":7098:7100  to */\n      dup2\n        /* \"@openzeppelin/contracts/token/ERC20/ERC20.sol\":7083:7108  Transfer(from, to, value) */\n      0xffffffffffffffffffffffffffffffffffffffff\n      and\n        /* \"@openzeppelin/contracts/token/ERC20/ERC20.sol\":7092:7096  from */\n      dup4\n        /* \"@openzeppelin/contracts/token/ERC20/ERC20.sol\":7083:7108  Transfer(from, to, value) */\n      0xffffffffffffffffffffffffffffffffffffffff\n      and\n      0xddf252ad1be2c89b69c2b068fc378daa952ba7f163c4a11628f55a4df523b3ef\n        /* \"@openzeppelin/contracts/token/ERC20/ERC20.sol\":7102:7107  value */\n      dup4\n        /* \"@openzeppelin/contracts/token/ERC20/ERC20.sol\":7083:7108  Transfer(from, to, value) */\n      mload(0x40)\n      tag_278\n      swap2\n      swap1\n      tag_46\n      jump\t// in\n    tag_278:\n      mload(0x40)\n      dup1\n      swap2\n      sub\n      swap1\n      log3\n        /* \"@openzeppelin/contracts/token/ERC20/ERC20.sol\":6008:7115  function _update(address from, address to, uint256 value) internal virtual {... */\n      pop\n      pop\n      pop\n      jump\t// out\n    tag_223:\n      pop\n      dup1\n      mul(0x02, 0x24)\n      add\n      swap1\n      tag_279\n      swap2\n      swap1\n      tag_280\n      jump\t// in\n    tag_279:\n      pop\n      jump\t// out\n    tag_225:\n      pop\n      dup1\n      mul(0x02, 0x0f)\n      add\n      swap1\n      tag_281\n      swap2\n      swap1\n      tag_282\n      jump\t// in\n    tag_281:\n      pop\n      jump\t// out\n    tag_227:\n      pop\n      dup1\n      mul(0x02, 0x09)\n      add\n      swap1\n      tag_283\n      swap2\n      swap1\n      tag_284\n      jump\t// in\n    tag_283:\n      pop\n      jump\t// out\n    tag_229:\n      pop\n      dup1\n      sload\n      0x00\n      dup3\n      sstore\n      0x04\n      mul\n      swap1\n      0x00\n      mstore\n      keccak256(0x00, 0x20)\n      swap1\n      dup2\n      add\n      swap1\n      tag_286\n      swap2\n      swap1\n      tag_287\n      jump\t// in\n    tag_286:\n      pop\n      jump\t// out\n    tag_280:\n    tag_288:\n      dup1\n      dup3\n      gt\n      iszero\n      tag_289\n      jumpi\n      0x00\n      0x00\n      dup3\n      add\n      exp(0x0100, 0x00)\n      dup2\n      sload\n      swap1\n      0xffffffffffffffffffffffffffffffffffffffff\n      mul\n      not\n      and\n      swap1\n      sstore\n      0x01\n      dup3\n      add\n      0x00\n      tag_290\n      swap2\n      swap1\n      tag_291\n      jump\t// in\n    tag_290:\n      pop\n      0x02\n      add\n      jump(tag_288)\n    tag_289:\n      pop\n      swap1\n      jump\t// out\n    tag_282:\n    tag_292:\n      dup1\n      dup3\n      gt\n      iszero\n      tag_293\n      jumpi\n      0x00\n      0x00\n      dup3\n      add\n      0x00\n      swap1\n      sstore\n      0x01\n      dup3\n      add\n      0x00\n      tag_294\n      swap2\n      swap1\n      tag_291\n      jump\t// in\n    tag_294:\n      pop\n      0x02\n      add\n      jump(tag_292)\n    tag_293:\n      pop\n      swap1\n      jump\t// out\n    tag_284:\n    tag_295:\n      dup1\n      dup3\n      gt\n      iszero\n      tag_296\n      jumpi\n      0x00\n      0x00\n      dup3\n      add\n      0x00\n      swap1\n      sstore\n      0x01\n      dup3\n      add\n      0x00\n      tag_297\n      swap2\n      swap1\n      tag_291\n      jump\t// in\n    tag_297:\n      pop\n      0x02\n      add\n      jump(tag_295)\n    tag_296:\n      pop\n      swap1\n      jump\t// out\n    tag_287:\n    tag_298:\n      dup1\n      dup3\n      gt\n      iszero\n      tag_299\n      jumpi\n      0x00\n      0x00\n      dup3\n      add\n      0x00\n      swap1\n      sstore\n      0x01\n      dup3\n      add\n      0x00\n      swap1\n      sstore\n      0x02\n      dup3\n      add\n      exp(0x0100, 0x00)\n      dup2\n      sload\n      swap1\n      0xffffffffffffffffffffffffffffffffffffffff\n      mul\n      not\n      and\n      swap1\n      sstore\n      0x03\n      dup3\n      add\n      0x00\n      swap1\n      sstore\n      pop\n      0x04\n      add\n      jump(tag_298)\n    tag_299:\n      pop\n      swap1\n      jump\t// out\n    tag_291:\n      pop\n      dup1\n      sload\n      tag_300\n      swap1\n      tag_130\n      jump\t// in\n    tag_300:\n      0x00\n      dup3\n      sstore\n      dup1\n      0x1f\n      lt\n      tag_302\n      jumpi\n      pop\n      jump(tag_301)\n    tag_302:\n      0x1f\n      add\n      0x20\n      swap1\n      div\n      swap1\n      0x00\n      mstore\n      keccak256(0x00, 0x20)\n      swap1\n      dup2\n      add\n      swap1\n      tag_303\n      swap2\n      swap1\n      tag_304\n      jump\t// in\n    tag_303:\n    tag_301:\n      pop\n      jump\t// out\n    tag_304:\n    tag_305:\n      dup1\n      dup3\n      gt\n      iszero\n      tag_306\n      jumpi\n      0x00\n      dup2\n      0x00\n      swap1\n      sstore\n      pop\n      0x01\n      add\n      jump(tag_305)\n    tag_306:\n      pop\n      swap1\n      jump\t// out\n        /* \"#utility.yul\":7:82   */\n    tag_307:\n        /* \"#utility.yul\":40:46   */\n      0x00\n        /* \"#utility.yul\":73:75   */\n      0x40\n        /* \"#utility.yul\":67:76   */\n      mload\n        /* \"#utility.yul\":57:76   */\n      swap1\n      pop\n        /* \"#utility.yul\":7:82   */\n      swap1\n      jump\t// out\n        /* \"#utility.yul\":88:205   */\n    tag_308:\n        /* \"#utility.yul\":197:198   */\n      0x00\n        /* \"#utility.yul\":194:195   */\n      0x00\n        /* \"#utility.yul\":187:199   */\n      revert\n        /* \"#utility.yul\":211:328   */\n    tag_309:\n        /* \"#utility.yul\":320:321   */\n      0x00\n        /* \"#utility.yul\":317:318   */\n      0x00\n        /* \"#utility.yul\":310:322   */\n      revert\n        /* \"#utility.yul\":334:420   */\n    tag_310:\n        /* \"#utility.yul\":369:376   */\n      0x00\n        /* \"#utility.yul\":409:413   */\n      0xff\n        /* \"#utility.yul\":402:407   */\n      dup3\n        /* \"#utility.yul\":398:414   */\n      and\n        /* \"#utility.yul\":387:414   */\n      swap1\n      pop\n        /* \"#utility.yul\":334:420   */\n      swap2\n      swap1\n      pop\n      jump\t// out\n        /* \"#utility.yul\":426:544   */\n    tag_311:\n        /* \"#utility.yul\":497:519   */\n      tag_377\n        /* \"#utility.yul\":513:518   */\n      dup2\n        /* \"#utility.yul\":497:519   */\n      tag_310\n      jump\t// in\n    tag_377:\n        /* \"#utility.yul\":490:495   */\n      dup2\n        /* \"#utility.yul\":487:520   */\n      eq\n        /* \"#utility.yul\":477:538   */\n      tag_378\n      jumpi\n        /* \"#utility.yul\":534:535   */\n      0x00\n        /* \"#utility.yul\":531:532   */\n      0x00\n        /* \"#utility.yul\":524:536   */\n      revert\n        /* \"#utility.yul\":477:538   */\n    tag_378:\n        /* \"#utility.yul\":426:544   */\n      pop\n      jump\t// out\n        /* \"#utility.yul\":550:685   */\n    tag_312:\n        /* \"#utility.yul\":594:599   */\n      0x00\n        /* \"#utility.yul\":632:638   */\n      dup2\n        /* \"#utility.yul\":619:639   */\n      calldataload\n        /* \"#utility.yul\":610:639   */\n      swap1\n      pop\n        /* \"#utility.yul\":648:679   */\n      tag_380\n        /* \"#utility.yul\":673:678   */\n      dup2\n        /* \"#utility.yul\":648:679   */\n      tag_311\n      jump\t// in\n    tag_380:\n        /* \"#utility.yul\":550:685   */\n      swap3\n      swap2\n      pop\n      pop\n      jump\t// out\n        /* \"#utility.yul\":691:780   */\n    tag_313:\n        /* \"#utility.yul\":727:734   */\n      0x00\n        /* \"#utility.yul\":767:773   */\n      0xffff\n        /* \"#utility.yul\":760:765   */\n      dup3\n        /* \"#utility.yul\":756:774   */\n      and\n        /* \"#utility.yul\":745:774   */\n      swap1\n      pop\n        /* \"#utility.yul\":691:780   */\n      swap2\n      swap1\n      pop\n      jump\t// out\n        /* \"#utility.yul\":786:906   */\n    tag_314:\n        /* \"#utility.yul\":858:881   */\n      tag_383\n        /* \"#utility.yul\":875:880   */\n      dup2\n        /* \"#utility.yul\":858:881   */\n      tag_313\n      jump\t// in\n    tag_383:\n        /* \"#utility.yul\":851:856   */\n      dup2\n        /* \"#utility.yul\":848:882   */\n      eq\n        /* \"#utility.yul\":838:900   */\n      tag_384\n      jumpi\n        /* \"#utility.yul\":896:897   */\n      0x00\n        /* \"#utility.yul\":893:894   */\n      0x00\n        /* \"#utility.yul\":886:898   */\n      revert\n        /* \"#utility.yul\":838:900   */\n    tag_384:\n        /* \"#utility.yul\":786:906   */\n      pop\n      jump\t// out\n        /* \"#utility.yul\":912:1049   */\n    tag_315:\n        /* \"#utility.yul\":957:962   */\n      0x00\n        /* \"#utility.yul\":995:1001   */\n      dup2\n        /* \"#utility.yul\":982:1002   */\n      calldataload\n        /* \"#utility.yul\":973:1002   */\n      swap1\n      pop\n        /* \"#utility.yul\":1011:1043   */\n      tag_386\n        /* \"#utility.yul\":1037:1042   */\n      dup2\n        /* \"#utility.yul\":1011:1043   */\n      tag_314\n      jump\t// in\n    tag_386:\n        /* \"#utility.yul\":912:1049   */\n      swap3\n      swap2\n      pop\n      pop\n      jump\t// out\n        /* \"#utility.yul\":1055:1664   */\n    tag_29:\n        /* \"#utility.yul\":1127:1133   */\n      0x00\n        /* \"#utility.yul\":1135:1141   */\n      0x00\n        /* \"#utility.yul\":1143:1149   */\n      0x00\n        /* \"#utility.yul\":1192:1194   */\n      0x60\n        /* \"#utility.yul\":1180:1189   */\n      dup5\n        /* \"#utility.yul\":1171:1178   */\n      dup7\n        /* \"#utility.yul\":1167:1190   */\n      sub\n        /* \"#utility.yul\":1163:1195   */\n      slt\n        /* \"#utility.yul\":1160:1279   */\n      iszero\n      tag_388\n      jumpi\n        /* \"#utility.yul\":1198:1277   */\n      tag_389\n      tag_308\n      jump\t// in\n    tag_389:\n        /* \"#utility.yul\":1160:1279   */\n    tag_388:\n        /* \"#utility.yul\":1318:1319   */\n      0x00\n        /* \"#utility.yul\":1343:1394   */\n      tag_390\n        /* \"#utility.yul\":1386:1393   */\n      dup7\n        /* \"#utility.yul\":1377:1383   */\n      dup3\n        /* \"#utility.yul\":1366:1375   */\n      dup8\n        /* \"#utility.yul\":1362:1384   */\n      add\n        /* \"#utility.yul\":1343:1394   */\n      tag_312\n      jump\t// in\n    tag_390:\n        /* \"#utility.yul\":1333:1394   */\n      swap4\n      pop\n        /* \"#utility.yul\":1289:1404   */\n      pop\n        /* \"#utility.yul\":1443:1445   */\n      0x20\n        /* \"#utility.yul\":1469:1520   */\n      tag_391\n        /* \"#utility.yul\":1512:1519   */\n      dup7\n        /* \"#utility.yul\":1503:1509   */\n      dup3\n        /* \"#utility.yul\":1492:1501   */\n      dup8\n        /* \"#utility.yul\":1488:1510   */\n      add\n        /* \"#utility.yul\":1469:1520   */\n      tag_312\n      jump\t// in\n    tag_391:\n        /* \"#utility.yul\":1459:1520   */\n      swap3\n      pop\n        /* \"#utility.yul\":1414:1530   */\n      pop\n        /* \"#utility.yul\":1569:1571   */\n      0x40\n        /* \"#utility.yul\":1595:1647   */\n      tag_392\n        /* \"#utility.yul\":1639:1646   */\n      dup7\n        /* \"#utility.yul\":1630:1636   */\n      dup3\n        /* \"#utility.yul\":1619:1628   */\n      dup8\n        /* \"#utility.yul\":1615:1637   */\n      add\n        /* \"#utility.yul\":1595:1647   */\n      tag_315\n      jump\t// in\n    tag_392:\n        /* \"#utility.yul\":1585:1647   */\n      swap2\n      pop\n        /* \"#utility.yul\":1540:1657   */\n      pop\n        /* \"#utility.yul\":1055:1664   */\n      swap3\n      pop\n      swap3\n      pop\n      swap3\n      jump\t// out\n        /* \"#utility.yul\":1670:1769   */\n    tag_316:\n        /* \"#utility.yul\":1722:1728   */\n      0x00\n        /* \"#utility.yul\":1756:1761   */\n      dup2\n        /* \"#utility.yul\":1750:1762   */\n      mload\n        /* \"#utility.yul\":1740:1762   */\n      swap1\n      pop\n        /* \"#utility.yul\":1670:1769   */\n      swap2\n      swap1\n      pop\n      jump\t// out\n        /* \"#utility.yul\":1775:1944   */\n    tag_317:\n        /* \"#utility.yul\":1859:1870   */\n      0x00\n        /* \"#utility.yul\":1893:1899   */\n      dup3\n        /* \"#utility.yul\":1888:1891   */\n      dup3\n        /* \"#utility.yul\":1881:1900   */\n      mstore\n        /* \"#utility.yul\":1933:1937   */\n      0x20\n        /* \"#utility.yul\":1928:1931   */\n      dup3\n        /* \"#utility.yul\":1924:1938   */\n      add\n        /* \"#utility.yul\":1909:1938   */\n      swap1\n      pop\n        /* \"#utility.yul\":1775:1944   */\n      swap3\n      swap2\n      pop\n      pop\n      jump\t// out\n        /* \"#utility.yul\":1950:2089   */\n    tag_318:\n        /* \"#utility.yul\":2039:2045   */\n      dup3\n        /* \"#utility.yul\":2034:2037   */\n      dup2\n        /* \"#utility.yul\":2029:2032   */\n      dup4\n        /* \"#utility.yul\":2023:2046   */\n      mcopy\n        /* \"#utility.yul\":2080:2081   */\n      0x00\n        /* \"#utility.yul\":2071:2077   */\n      dup4\n        /* \"#utility.yul\":2066:2069   */\n      dup4\n        /* \"#utility.yul\":2062:2078   */\n      add\n        /* \"#utility.yul\":2055:2082   */\n      mstore\n        /* \"#utility.yul\":1950:2089   */\n      pop\n      pop\n      pop\n      jump\t// out\n        /* \"#utility.yul\":2095:2197   */\n    tag_319:\n        /* \"#utility.yul\":2136:2142   */\n      0x00\n        /* \"#utility.yul\":2187:2189   */\n      0x1f\n        /* \"#utility.yul\":2183:2190   */\n      not\n        /* \"#utility.yul\":2178:2180   */\n      0x1f\n        /* \"#utility.yul\":2171:2176   */\n      dup4\n        /* \"#utility.yul\":2167:2181   */\n      add\n        /* \"#utility.yul\":2163:2191   */\n      and\n        /* \"#utility.yul\":2153:2191   */\n      swap1\n      pop\n        /* \"#utility.yul\":2095:2197   */\n      swap2\n      swap1\n      pop\n      jump\t// out\n        /* \"#utility.yul\":2203:2580   */\n    tag_320:\n        /* \"#utility.yul\":2291:2294   */\n      0x00\n        /* \"#utility.yul\":2319:2358   */\n      tag_398\n        /* \"#utility.yul\":2352:2357   */\n      dup3\n        /* \"#utility.yul\":2319:2358   */\n      tag_316\n      jump\t// in\n    tag_398:\n        /* \"#utility.yul\":2374:2445   */\n      tag_399\n        /* \"#utility.yul\":2438:2444   */\n      dup2\n        /* \"#utility.yul\":2433:2436   */\n      dup6\n        /* \"#utility.yul\":2374:2445   */\n      tag_317\n      jump\t// in\n    tag_399:\n        /* \"#utility.yul\":2367:2445   */\n      swap4\n      pop\n        /* \"#utility.yul\":2454:2519   */\n      tag_400\n        /* \"#utility.yul\":2512:2518   */\n      dup2\n        /* \"#utility.yul\":2507:2510   */\n      dup6\n        /* \"#utility.yul\":2500:2504   */\n      0x20\n        /* \"#utility.yul\":2493:2498   */\n      dup7\n        /* \"#utility.yul\":2489:2505   */\n      add\n        /* \"#utility.yul\":2454:2519   */\n      tag_318\n      jump\t// in\n    tag_400:\n        /* \"#utility.yul\":2544:2573   */\n      tag_401\n        /* \"#utility.yul\":2566:2572   */\n      dup2\n        /* \"#utility.yul\":2544:2573   */\n      tag_319\n      jump\t// in\n    tag_401:\n        /* \"#utility.yul\":2539:2542   */\n      dup5\n        /* \"#utility.yul\":2535:2574   */\n      add\n        /* \"#utility.yul\":2528:2574   */\n      swap2\n      pop\n        /* \"#utility.yul\":2295:2580   */\n      pop\n        /* \"#utility.yul\":2203:2580   */\n      swap3\n      swap2\n      pop\n      pop\n      jump\t// out\n        /* \"#utility.yul\":2586:2899   */\n    tag_34:\n        /* \"#utility.yul\":2699:2703   */\n      0x00\n        /* \"#utility.yul\":2737:2739   */\n      0x20\n        /* \"#utility.yul\":2726:2735   */\n      dup3\n        /* \"#utility.yul\":2722:2740   */\n      add\n        /* \"#utility.yul\":2714:2740   */\n      swap1\n      pop\n        /* \"#utility.yul\":2786:2795   */\n      dup2\n        /* \"#utility.yul\":2780:2784   */\n      dup2\n        /* \"#utility.yul\":2776:2796   */\n      sub\n        /* \"#utility.yul\":2772:2773   */\n      0x00\n        /* \"#utility.yul\":2761:2770   */\n      dup4\n        /* \"#utility.yul\":2757:2774   */\n      add\n        /* \"#utility.yul\":2750:2797   */\n      mstore\n        /* \"#utility.yul\":2814:2892   */\n      tag_403\n        /* \"#utility.yul\":2887:2891   */\n      dup2\n        /* \"#utility.yul\":2878:2884   */\n      dup5\n        /* \"#utility.yul\":2814:2892   */\n      tag_320\n      jump\t// in\n    tag_403:\n        /* \"#utility.yul\":2806:2892   */\n      swap1\n      pop\n        /* \"#utility.yul\":2586:2899   */\n      swap3\n      swap2\n      pop\n      pop\n      jump\t// out\n        /* \"#utility.yul\":2905:3031   */\n    tag_321:\n        /* \"#utility.yul\":2942:2949   */\n      0x00\n        /* \"#utility.yul\":2982:3024   */\n      0xffffffffffffffffffffffffffffffffffffffff\n        /* \"#utility.yul\":2975:2980   */\n      dup3\n        /* \"#utility.yul\":2971:3025   */\n      and\n        /* \"#utility.yul\":2960:3025   */\n      swap1\n      pop\n        /* \"#utility.yul\":2905:3031   */\n      swap2\n      swap1\n      pop\n      jump\t// out\n        /* \"#utility.yul\":3037:3133   */\n    tag_322:\n        /* \"#utility.yul\":3074:3081   */\n      0x00\n        /* \"#utility.yul\":3103:3127   */\n      tag_406\n        /* \"#utility.yul\":3121:3126   */\n      dup3\n        /* \"#utility.yul\":3103:3127   */\n      tag_321\n      jump\t// in\n    tag_406:\n        /* \"#utility.yul\":3092:3127   */\n      swap1\n      pop\n        /* \"#utility.yul\":3037:3133   */\n      swap2\n      swap1\n      pop\n      jump\t// out\n        /* \"#utility.yul\":3139:3261   */\n    tag_323:\n        /* \"#utility.yul\":3212:3236   */\n      tag_408\n        /* \"#utility.yul\":3230:3235   */\n      dup2\n        /* \"#utility.yul\":3212:3236   */\n      tag_322\n      jump\t// in\n    tag_408:\n        /* \"#utility.yul\":3205:3210   */\n      dup2\n        /* \"#utility.yul\":3202:3237   */\n      eq\n        /* \"#utility.yul\":3192:3255   */\n      tag_409\n      jumpi\n        /* \"#utility.yul\":3251:3252   */\n      0x00\n        /* \"#utility.yul\":3248:3249   */\n      0x00\n        /* \"#utility.yul\":3241:3253   */\n      revert\n        /* \"#utility.yul\":3192:3255   */\n    tag_409:\n        /* \"#utility.yul\":3139:3261   */\n      pop\n      jump\t// out\n        /* \"#utility.yul\":3267:3406   */\n    tag_324:\n        /* \"#utility.yul\":3313:3318   */\n      0x00\n        /* \"#utility.yul\":3351:3357   */\n      dup2\n        /* \"#utility.yul\":3338:3358   */\n      calldataload\n        /* \"#utility.yul\":3329:3358   */\n      swap1\n      pop\n        /* \"#utility.yul\":3367:3400   */\n      tag_411\n        /* \"#utility.yul\":3394:3399   */\n      dup2\n        /* \"#utility.yul\":3367:3400   */\n      tag_323\n      jump\t// in\n    tag_411:\n        /* \"#utility.yul\":3267:3406   */\n      swap3\n      swap2\n      pop\n      pop\n      jump\t// out\n        /* \"#utility.yul\":3412:3489   */\n    tag_325:\n        /* \"#utility.yul\":3449:3456   */\n      0x00\n        /* \"#utility.yul\":3478:3483   */\n      dup2\n        /* \"#utility.yul\":3467:3483   */\n      swap1\n      pop\n        /* \"#utility.yul\":3412:3489   */\n      swap2\n      swap1\n      pop\n      jump\t// out\n        /* \"#utility.yul\":3495:3617   */\n    tag_326:\n        /* \"#utility.yul\":3568:3592   */\n      tag_414\n        /* \"#utility.yul\":3586:3591   */\n      dup2\n        /* \"#utility.yul\":3568:3592   */\n      tag_325\n      jump\t// in\n    tag_414:\n        /* \"#utility.yul\":3561:3566   */\n      dup2\n        /* \"#utility.yul\":3558:3593   */\n      eq\n        /* \"#utility.yul\":3548:3611   */\n      tag_415\n      jumpi\n        /* \"#utility.yul\":3607:3608   */\n      0x00\n        /* \"#utility.yul\":3604:3605   */\n      0x00\n        /* \"#utility.yul\":3597:3609   */\n      revert\n        /* \"#utility.yul\":3548:3611   */\n    tag_415:\n        /* \"#utility.yul\":3495:3617   */\n      pop\n      jump\t// out\n        /* \"#utility.yul\":3623:3762   */\n    tag_327:\n        /* \"#utility.yul\":3669:3674   */\n      0x00\n        /* \"#utility.yul\":3707:3713   */\n      dup2\n        /* \"#utility.yul\":3694:3714   */\n      calldataload\n        /* \"#utility.yul\":3685:3714   */\n      swap1\n      pop\n        /* \"#utility.yul\":3723:3756   */\n      tag_417\n        /* \"#utility.yul\":3750:3755   */\n      dup2\n        /* \"#utility.yul\":3723:3756   */\n      tag_326\n      jump\t// in\n    tag_417:\n        /* \"#utility.yul\":3623:3762   */\n      swap3\n      swap2\n      pop\n      pop\n      jump\t// out\n        /* \"#utility.yul\":3768:4242   */\n    tag_37:\n        /* \"#utility.yul\":3836:3842   */\n      0x00\n        /* \"#utility.yul\":3844:3850   */\n      0x00\n        /* \"#utility.yul\":3893:3895   */\n      0x40\n        /* \"#utility.yul\":3881:3890   */\n      dup4\n        /* \"#utility.yul\":3872:3879   */\n      dup6\n        /* \"#utility.yul\":3868:3891   */\n      sub\n        /* \"#utility.yul\":3864:3896   */\n      slt\n        /* \"#utility.yul\":3861:3980   */\n      iszero\n      tag_419\n      jumpi\n        /* \"#utility.yul\":3899:3978   */\n      tag_420\n      tag_308\n      jump\t// in\n    tag_420:\n        /* \"#utility.yul\":3861:3980   */\n    tag_419:\n        /* \"#utility.yul\":4019:4020   */\n      0x00\n        /* \"#utility.yul\":4044:4097   */\n      tag_421\n        /* \"#utility.yul\":4089:4096   */\n      dup6\n        /* \"#utility.yul\":4080:4086   */\n      dup3\n        /* \"#utility.yul\":4069:4078   */\n      dup7\n        /* \"#utility.yul\":4065:4087   */\n      add\n        /* \"#utility.yul\":4044:4097   */\n      tag_324\n      jump\t// in\n    tag_421:\n        /* \"#utility.yul\":4034:4097   */\n      swap3\n      pop\n        /* \"#utility.yul\":3990:4107   */\n      pop\n        /* \"#utility.yul\":4146:4148   */\n      0x20\n        /* \"#utility.yul\":4172:4225   */\n      tag_422\n        /* \"#utility.yul\":4217:4224   */\n      dup6\n        /* \"#utility.yul\":4208:4214   */\n      dup3\n        /* \"#utility.yul\":4197:4206   */\n      dup7\n        /* \"#utility.yul\":4193:4215   */\n      add\n        /* \"#utility.yul\":4172:4225   */\n      tag_327\n      jump\t// in\n    tag_422:\n        /* \"#utility.yul\":4162:4225   */\n      swap2\n      pop\n        /* \"#utility.yul\":4117:4235   */\n      pop\n        /* \"#utility.yul\":3768:4242   */\n      swap3\n      pop\n      swap3\n      swap1\n      pop\n      jump\t// out\n        /* \"#utility.yul\":4248:4338   */\n    tag_328:\n        /* \"#utility.yul\":4282:4289   */\n      0x00\n        /* \"#utility.yul\":4325:4330   */\n      dup2\n        /* \"#utility.yul\":4318:4331   */\n      iszero\n        /* \"#utility.yul\":4311:4332   */\n      iszero\n        /* \"#utility.yul\":4300:4332   */\n      swap1\n      pop\n        /* \"#utility.yul\":4248:4338   */\n      swap2\n      swap1\n      pop\n      jump\t// out\n        /* \"#utility.yul\":4344:4453   */\n    tag_329:\n        /* \"#utility.yul\":4425:4446   */\n      tag_425\n        /* \"#utility.yul\":4440:4445   */\n      dup2\n        /* \"#utility.yul\":4425:4446   */\n      tag_328\n      jump\t// in\n    tag_425:\n        /* \"#utility.yul\":4420:4423   */\n      dup3\n        /* \"#utility.yul\":4413:4447   */\n      mstore\n        /* \"#utility.yul\":4344:4453   */\n      pop\n      pop\n      jump\t// out\n        /* \"#utility.yul\":4459:4669   */\n    tag_40:\n        /* \"#utility.yul\":4546:4550   */\n      0x00\n        /* \"#utility.yul\":4584:4586   */\n      0x20\n        /* \"#utility.yul\":4573:4582   */\n      dup3\n        /* \"#utility.yul\":4569:4587   */\n      add\n        /* \"#utility.yul\":4561:4587   */\n      swap1\n      pop\n        /* \"#utility.yul\":4597:4662   */\n      tag_427\n        /* \"#utility.yul\":4659:4660   */\n      0x00\n        /* \"#utility.yul\":4648:4657   */\n      dup4\n        /* \"#utility.yul\":4644:4661   */\n      add\n        /* \"#utility.yul\":4635:4641   */\n      dup5\n        /* \"#utility.yul\":4597:4662   */\n      tag_329\n      jump\t// in\n    tag_427:\n        /* \"#utility.yul\":4459:4669   */\n      swap3\n      swap2\n      pop\n      pop\n      jump\t// out\n        /* \"#utility.yul\":4675:4792   */\n    tag_330:\n        /* \"#utility.yul\":4784:4785   */\n      0x00\n        /* \"#utility.yul\":4781:4782   */\n      0x00\n        /* \"#utility.yul\":4774:4786   */\n      revert\n        /* \"#utility.yul\":4798:4915   */\n    tag_331:\n        /* \"#utility.yul\":4907:4908   */\n      0x00\n        /* \"#utility.yul\":4904:4905   */\n      0x00\n        /* \"#utility.yul\":4897:4909   */\n      revert\n        /* \"#utility.yul\":4921:5101   */\n    tag_332:\n        /* \"#utility.yul\":4969:5046   */\n      0x4e487b7100000000000000000000000000000000000000000000000000000000\n        /* \"#utility.yul\":4966:4967   */\n      0x00\n        /* \"#utility.yul\":4959:5047   */\n      mstore\n        /* \"#utility.yul\":5066:5070   */\n      0x41\n        /* \"#utility.yul\":5063:5064   */\n      0x04\n        /* \"#utility.yul\":5056:5071   */\n      mstore\n        /* \"#utility.yul\":5090:5094   */\n      0x24\n        /* \"#utility.yul\":5087:5088   */\n      0x00\n        /* \"#utility.yul\":5080:5095   */\n      revert\n        /* \"#utility.yul\":5107:5388   */\n    tag_333:\n        /* \"#utility.yul\":5190:5217   */\n      tag_432\n        /* \"#utility.yul\":5212:5216   */\n      dup3\n        /* \"#utility.yul\":5190:5217   */\n      tag_319\n      jump\t// in\n    tag_432:\n        /* \"#utility.yul\":5182:5188   */\n      dup2\n        /* \"#utility.yul\":5178:5218   */\n      add\n        /* \"#utility.yul\":5320:5326   */\n      dup2\n        /* \"#utility.yul\":5308:5318   */\n      dup2\n        /* \"#utility.yul\":5305:5327   */\n      lt\n        /* \"#utility.yul\":5284:5302   */\n      0xffffffffffffffff\n        /* \"#utility.yul\":5272:5282   */\n      dup3\n        /* \"#utility.yul\":5269:5303   */\n      gt\n        /* \"#utility.yul\":5266:5328   */\n      or\n        /* \"#utility.yul\":5263:5351   */\n      iszero\n      tag_433\n      jumpi\n        /* \"#utility.yul\":5331:5349   */\n      tag_434\n      tag_332\n      jump\t// in\n    tag_434:\n        /* \"#utility.yul\":5263:5351   */\n    tag_433:\n        /* \"#utility.yul\":5371:5381   */\n      dup1\n        /* \"#utility.yul\":5367:5369   */\n      0x40\n        /* \"#utility.yul\":5360:5382   */\n      mstore\n        /* \"#utility.yul\":5150:5388   */\n      pop\n        /* \"#utility.yul\":5107:5388   */\n      pop\n      pop\n      jump\t// out\n        /* \"#utility.yul\":5394:5523   */\n    tag_334:\n        /* \"#utility.yul\":5428:5434   */\n      0x00\n        /* \"#utility.yul\":5455:5475   */\n      tag_436\n      tag_307\n      jump\t// in\n    tag_436:\n        /* \"#utility.yul\":5445:5475   */\n      swap1\n      pop\n        /* \"#utility.yul\":5484:5517   */\n      tag_437\n        /* \"#utility.yul\":5512:5516   */\n      dup3\n        /* \"#utility.yul\":5504:5510   */\n      dup3\n        /* \"#utility.yul\":5484:5517   */\n      tag_333\n      jump\t// in\n    tag_437:\n        /* \"#utility.yul\":5394:5523   */\n      swap2\n      swap1\n      pop\n      jump\t// out\n        /* \"#utility.yul\":5529:5837   */\n    tag_335:\n        /* \"#utility.yul\":5591:5595   */\n      0x00\n        /* \"#utility.yul\":5681:5699   */\n      0xffffffffffffffff\n        /* \"#utility.yul\":5673:5679   */\n      dup3\n        /* \"#utility.yul\":5670:5700   */\n      gt\n        /* \"#utility.yul\":5667:5723   */\n      iszero\n      tag_439\n      jumpi\n        /* \"#utility.yul\":5703:5721   */\n      tag_440\n      tag_332\n      jump\t// in\n    tag_440:\n        /* \"#utility.yul\":5667:5723   */\n    tag_439:\n        /* \"#utility.yul\":5741:5770   */\n      tag_441\n        /* \"#utility.yul\":5763:5769   */\n      dup3\n        /* \"#utility.yul\":5741:5770   */\n      tag_319\n      jump\t// in\n    tag_441:\n        /* \"#utility.yul\":5733:5770   */\n      swap1\n      pop\n        /* \"#utility.yul\":5825:5829   */\n      0x20\n        /* \"#utility.yul\":5819:5823   */\n      dup2\n        /* \"#utility.yul\":5815:5830   */\n      add\n        /* \"#utility.yul\":5807:5830   */\n      swap1\n      pop\n        /* \"#utility.yul\":5529:5837   */\n      swap2\n      swap1\n      pop\n      jump\t// out\n        /* \"#utility.yul\":5843:5991   */\n    tag_336:\n        /* \"#utility.yul\":5941:5947   */\n      dup3\n        /* \"#utility.yul\":5936:5939   */\n      dup2\n        /* \"#utility.yul\":5931:5934   */\n      dup4\n        /* \"#utility.yul\":5918:5948   */\n      calldatacopy\n        /* \"#utility.yul\":5982:5983   */\n      0x00\n        /* \"#utility.yul\":5973:5979   */\n      dup4\n        /* \"#utility.yul\":5968:5971   */\n      dup4\n        /* \"#utility.yul\":5964:5980   */\n      add\n        /* \"#utility.yul\":5957:5984   */\n      mstore\n        /* \"#utility.yul\":5843:5991   */\n      pop\n      pop\n      pop\n      jump\t// out\n        /* \"#utility.yul\":5997:6422   */\n    tag_337:\n        /* \"#utility.yul\":6075:6080   */\n      0x00\n        /* \"#utility.yul\":6100:6166   */\n      tag_444\n        /* \"#utility.yul\":6116:6165   */\n      tag_445\n        /* \"#utility.yul\":6158:6164   */\n      dup5\n        /* \"#utility.yul\":6116:6165   */\n      tag_335\n      jump\t// in\n    tag_445:\n        /* \"#utility.yul\":6100:6166   */\n      tag_334\n      jump\t// in\n    tag_444:\n        /* \"#utility.yul\":6091:6166   */\n      swap1\n      pop\n        /* \"#utility.yul\":6189:6195   */\n      dup3\n        /* \"#utility.yul\":6182:6187   */\n      dup2\n        /* \"#utility.yul\":6175:6196   */\n      mstore\n        /* \"#utility.yul\":6227:6231   */\n      0x20\n        /* \"#utility.yul\":6220:6225   */\n      dup2\n        /* \"#utility.yul\":6216:6232   */\n      add\n        /* \"#utility.yul\":6265:6268   */\n      dup5\n        /* \"#utility.yul\":6256:6262   */\n      dup5\n        /* \"#utility.yul\":6251:6254   */\n      dup5\n        /* \"#utility.yul\":6247:6263   */\n      add\n        /* \"#utility.yul\":6244:6269   */\n      gt\n        /* \"#utility.yul\":6241:6353   */\n      iszero\n      tag_446\n      jumpi\n        /* \"#utility.yul\":6272:6351   */\n      tag_447\n      tag_331\n      jump\t// in\n    tag_447:\n        /* \"#utility.yul\":6241:6353   */\n    tag_446:\n        /* \"#utility.yul\":6362:6416   */\n      tag_448\n        /* \"#utility.yul\":6409:6415   */\n      dup5\n        /* \"#utility.yul\":6404:6407   */\n      dup3\n        /* \"#utility.yul\":6399:6402   */\n      dup6\n        /* \"#utility.yul\":6362:6416   */\n      tag_336\n      jump\t// in\n    tag_448:\n        /* \"#utility.yul\":6081:6422   */\n      pop\n        /* \"#utility.yul\":5997:6422   */\n      swap4\n      swap3\n      pop\n      pop\n      pop\n      jump\t// out\n        /* \"#utility.yul\":6442:6782   */\n    tag_338:\n        /* \"#utility.yul\":6498:6503   */\n      0x00\n        /* \"#utility.yul\":6547:6550   */\n      dup3\n        /* \"#utility.yul\":6540:6544   */\n      0x1f\n        /* \"#utility.yul\":6532:6538   */\n      dup4\n        /* \"#utility.yul\":6528:6545   */\n      add\n        /* \"#utility.yul\":6524:6551   */\n      slt\n        /* \"#utility.yul\":6514:6636   */\n      tag_450\n      jumpi\n        /* \"#utility.yul\":6555:6634   */\n      tag_451\n      tag_330\n      jump\t// in\n    tag_451:\n        /* \"#utility.yul\":6514:6636   */\n    tag_450:\n        /* \"#utility.yul\":6672:6678   */\n      dup2\n        /* \"#utility.yul\":6659:6679   */\n      calldataload\n        /* \"#utility.yul\":6697:6776   */\n      tag_452\n        /* \"#utility.yul\":6772:6775   */\n      dup5\n        /* \"#utility.yul\":6764:6770   */\n      dup3\n        /* \"#utility.yul\":6757:6761   */\n      0x20\n        /* \"#utility.yul\":6749:6755   */\n      dup7\n        /* \"#utility.yul\":6745:6762   */\n      add\n        /* \"#utility.yul\":6697:6776   */\n      tag_337\n      jump\t// in\n    tag_452:\n        /* \"#utility.yul\":6688:6776   */\n      swap2\n      pop\n        /* \"#utility.yul\":6504:6782   */\n      pop\n        /* \"#utility.yul\":6442:6782   */\n      swap3\n      swap2\n      pop\n      pop\n      jump\t// out\n        /* \"#utility.yul\":6788:7297   */\n    tag_43:\n        /* \"#utility.yul\":6857:6863   */\n      0x00\n        /* \"#utility.yul\":6906:6908   */\n      0x20\n        /* \"#utility.yul\":6894:6903   */\n      dup3\n        /* \"#utility.yul\":6885:6892   */\n      dup5\n        /* \"#utility.yul\":6881:6904   */\n      sub\n        /* \"#utility.yul\":6877:6909   */\n      slt\n        /* \"#utility.yul\":6874:6993   */\n      iszero\n      tag_454\n      jumpi\n        /* \"#utility.yul\":6912:6991   */\n      tag_455\n      tag_308\n      jump\t// in\n    tag_455:\n        /* \"#utility.yul\":6874:6993   */\n    tag_454:\n        /* \"#utility.yul\":7060:7061   */\n      0x00\n        /* \"#utility.yul\":7049:7058   */\n      dup3\n        /* \"#utility.yul\":7045:7062   */\n      add\n        /* \"#utility.yul\":7032:7063   */\n      calldataload\n        /* \"#utility.yul\":7090:7108   */\n      0xffffffffffffffff\n        /* \"#utility.yul\":7082:7088   */\n      dup2\n        /* \"#utility.yul\":7079:7109   */\n      gt\n        /* \"#utility.yul\":7076:7193   */\n      iszero\n      tag_456\n      jumpi\n        /* \"#utility.yul\":7112:7191   */\n      tag_457\n      tag_309\n      jump\t// in\n    tag_457:\n        /* \"#utility.yul\":7076:7193   */\n    tag_456:\n        /* \"#utility.yul\":7217:7280   */\n      tag_458\n        /* \"#utility.yul\":7272:7279   */\n      dup5\n        /* \"#utility.yul\":7263:7269   */\n      dup3\n        /* \"#utility.yul\":7252:7261   */\n      dup6\n        /* \"#utility.yul\":7248:7270   */\n      add\n        /* \"#utility.yul\":7217:7280   */\n      tag_338\n      jump\t// in\n    tag_458:\n        /* \"#utility.yul\":7207:7280   */\n      swap2\n      pop\n        /* \"#utility.yul\":7003:7290   */\n      pop\n        /* \"#utility.yul\":6788:7297   */\n      swap3\n      swap2\n      pop\n      pop\n      jump\t// out\n        /* \"#utility.yul\":7303:7421   */\n    tag_339:\n        /* \"#utility.yul\":7390:7414   */\n      tag_460\n        /* \"#utility.yul\":7408:7413   */\n      dup2\n        /* \"#utility.yul\":7390:7414   */\n      tag_325\n      jump\t// in\n    tag_460:\n        /* \"#utility.yul\":7385:7388   */\n      dup3\n        /* \"#utility.yul\":7378:7415   */\n      mstore\n        /* \"#utility.yul\":7303:7421   */\n      pop\n      pop\n      jump\t// out\n        /* \"#utility.yul\":7427:7649   */\n    tag_46:\n        /* \"#utility.yul\":7520:7524   */\n      0x00\n        /* \"#utility.yul\":7558:7560   */\n      0x20\n        /* \"#utility.yul\":7547:7556   */\n      dup3\n        /* \"#utility.yul\":7543:7561   */\n      add\n        /* \"#utility.yul\":7535:7561   */\n      swap1\n      pop\n        /* \"#utility.yul\":7571:7642   */\n      tag_462\n        /* \"#utility.yul\":7639:7640   */\n      0x00\n        /* \"#utility.yul\":7628:7637   */\n      dup4\n        /* \"#utility.yul\":7624:7641   */\n      add\n        /* \"#utility.yul\":7615:7621   */\n      dup5\n        /* \"#utility.yul\":7571:7642   */\n      tag_339\n      jump\t// in\n    tag_462:\n        /* \"#utility.yul\":7427:7649   */\n      swap3\n      swap2\n      pop\n      pop\n      jump\t// out\n        /* \"#utility.yul\":7655:7984   */\n    tag_49:\n        /* \"#utility.yul\":7714:7720   */\n      0x00\n        /* \"#utility.yul\":7763:7765   */\n      0x20\n        /* \"#utility.yul\":7751:7760   */\n      dup3\n        /* \"#utility.yul\":7742:7749   */\n      dup5\n        /* \"#utility.yul\":7738:7761   */\n      sub\n        /* \"#utility.yul\":7734:7766   */\n      slt\n        /* \"#utility.yul\":7731:7850   */\n      iszero\n      tag_464\n      jumpi\n        /* \"#utility.yul\":7769:7848   */\n      tag_465\n      tag_308\n      jump\t// in\n    tag_465:\n        /* \"#utility.yul\":7731:7850   */\n    tag_464:\n        /* \"#utility.yul\":7889:7890   */\n      0x00\n        /* \"#utility.yul\":7914:7967   */\n      tag_466\n        /* \"#utility.yul\":7959:7966   */\n      dup5\n        /* \"#utility.yul\":7950:7956   */\n      dup3\n        /* \"#utility.yul\":7939:7948   */\n      dup6\n        /* \"#utility.yul\":7935:7957   */\n      add\n        /* \"#utility.yul\":7914:7967   */\n      tag_327\n      jump\t// in\n    tag_466:\n        /* \"#utility.yul\":7904:7967   */\n      swap2\n      pop\n        /* \"#utility.yul\":7860:7977   */\n      pop\n        /* \"#utility.yul\":7655:7984   */\n      swap3\n      swap2\n      pop\n      pop\n      jump\t// out\n        /* \"#utility.yul\":7990:8108   */\n    tag_340:\n        /* \"#utility.yul\":8077:8101   */\n      tag_468\n        /* \"#utility.yul\":8095:8100   */\n      dup2\n        /* \"#utility.yul\":8077:8101   */\n      tag_322\n      jump\t// in\n    tag_468:\n        /* \"#utility.yul\":8072:8075   */\n      dup3\n        /* \"#utility.yul\":8065:8102   */\n      mstore\n        /* \"#utility.yul\":7990:8108   */\n      pop\n      pop\n      jump\t// out\n        /* \"#utility.yul\":8114:8667   */\n    tag_52:\n        /* \"#utility.yul\":8291:8295   */\n      0x00\n        /* \"#utility.yul\":8329:8332   */\n      0x80\n        /* \"#utility.yul\":8318:8327   */\n      dup3\n        /* \"#utility.yul\":8314:8333   */\n      add\n        /* \"#utility.yul\":8306:8333   */\n      swap1\n      pop\n        /* \"#utility.yul\":8343:8414   */\n      tag_470\n        /* \"#utility.yul\":8411:8412   */\n      0x00\n        /* \"#utility.yul\":8400:8409   */\n      dup4\n        /* \"#utility.yul\":8396:8413   */\n      add\n        /* \"#utility.yul\":8387:8393   */\n      dup8\n        /* \"#utility.yul\":8343:8414   */\n      tag_339\n      jump\t// in\n    tag_470:\n        /* \"#utility.yul\":8424:8496   */\n      tag_471\n        /* \"#utility.yul\":8492:8494   */\n      0x20\n        /* \"#utility.yul\":8481:8490   */\n      dup4\n        /* \"#utility.yul\":8477:8495   */\n      add\n        /* \"#utility.yul\":8468:8474   */\n      dup7\n        /* \"#utility.yul\":8424:8496   */\n      tag_339\n      jump\t// in\n    tag_471:\n        /* \"#utility.yul\":8506:8578   */\n      tag_472\n        /* \"#utility.yul\":8574:8576   */\n      0x40\n        /* \"#utility.yul\":8563:8572   */\n      dup4\n        /* \"#utility.yul\":8559:8577   */\n      add\n        /* \"#utility.yul\":8550:8556   */\n      dup6\n        /* \"#utility.yul\":8506:8578   */\n      tag_340\n      jump\t// in\n    tag_472:\n        /* \"#utility.yul\":8588:8660   */\n      tag_473\n        /* \"#utility.yul\":8656:8658   */\n      0x60\n        /* \"#utility.yul\":8645:8654   */\n      dup4\n        /* \"#utility.yul\":8641:8659   */\n      add\n        /* \"#utility.yul\":8632:8638   */\n      dup5\n        /* \"#utility.yul\":8588:8660   */\n      tag_339\n      jump\t// in\n    tag_473:\n        /* \"#utility.yul\":8114:8667   */\n      swap6\n      swap5\n      pop\n      pop\n      pop\n      pop\n      pop\n      jump\t// out\n        /* \"#utility.yul\":8673:9002   */\n    tag_58:\n        /* \"#utility.yul\":8732:8738   */\n      0x00\n        /* \"#utility.yul\":8781:8783   */\n      0x20\n        /* \"#utility.yul\":8769:8778   */\n      dup3\n        /* \"#utility.yul\":8760:8767   */\n      dup5\n        /* \"#utility.yul\":8756:8779   */\n      sub\n        /* \"#utility.yul\":8752:8784   */\n      slt\n        /* \"#utility.yul\":8749:8868   */\n      iszero\n      tag_475\n      jumpi\n        /* \"#utility.yul\":8787:8866   */\n      tag_476\n      tag_308\n      jump\t// in\n    tag_476:\n        /* \"#utility.yul\":8749:8868   */\n    tag_475:\n        /* \"#utility.yul\":8907:8908   */\n      0x00\n        /* \"#utility.yul\":8932:8985   */\n      tag_477\n        /* \"#utility.yul\":8977:8984   */\n      dup5\n        /* \"#utility.yul\":8968:8974   */\n      dup3\n        /* \"#utility.yul\":8957:8966   */\n      dup6\n        /* \"#utility.yul\":8953:8975   */\n      add\n        /* \"#utility.yul\":8932:8985   */\n      tag_324\n      jump\t// in\n    tag_477:\n        /* \"#utility.yul\":8922:8985   */\n      swap2\n      pop\n        /* \"#utility.yul\":8878:8995   */\n      pop\n        /* \"#utility.yul\":8673:9002   */\n      swap3\n      swap2\n      pop\n      pop\n      jump\t// out\n        /* \"#utility.yul\":9008:9431   */\n    tag_61:\n        /* \"#utility.yul\":9149:9153   */\n      0x00\n        /* \"#utility.yul\":9187:9189   */\n      0x40\n        /* \"#utility.yul\":9176:9185   */\n      dup3\n        /* \"#utility.yul\":9172:9190   */\n      add\n        /* \"#utility.yul\":9164:9190   */\n      swap1\n      pop\n        /* \"#utility.yul\":9200:9271   */\n      tag_479\n        /* \"#utility.yul\":9268:9269   */\n      0x00\n        /* \"#utility.yul\":9257:9266   */\n      dup4\n        /* \"#utility.yul\":9253:9270   */\n      add\n        /* \"#utility.yul\":9244:9250   */\n      dup6\n        /* \"#utility.yul\":9200:9271   */\n      tag_340\n      jump\t// in\n    tag_479:\n        /* \"#utility.yul\":9318:9327   */\n      dup2\n        /* \"#utility.yul\":9312:9316   */\n      dup2\n        /* \"#utility.yul\":9308:9328   */\n      sub\n        /* \"#utility.yul\":9303:9305   */\n      0x20\n        /* \"#utility.yul\":9292:9301   */\n      dup4\n        /* \"#utility.yul\":9288:9306   */\n      add\n        /* \"#utility.yul\":9281:9329   */\n      mstore\n        /* \"#utility.yul\":9346:9424   */\n      tag_480\n        /* \"#utility.yul\":9419:9423   */\n      dup2\n        /* \"#utility.yul\":9410:9416   */\n      dup5\n        /* \"#utility.yul\":9346:9424   */\n      tag_320\n      jump\t// in\n    tag_480:\n        /* \"#utility.yul\":9338:9424   */\n      swap1\n      pop\n        /* \"#utility.yul\":9008:9431   */\n      swap4\n      swap3\n      pop\n      pop\n      pop\n      jump\t// out\n        /* \"#utility.yul\":9437:10056   */\n    tag_64:\n        /* \"#utility.yul\":9514:9520   */\n      0x00\n        /* \"#utility.yul\":9522:9528   */\n      0x00\n        /* \"#utility.yul\":9530:9536   */\n      0x00\n        /* \"#utility.yul\":9579:9581   */\n      0x60\n        /* \"#utility.yul\":9567:9576   */\n      dup5\n        /* \"#utility.yul\":9558:9565   */\n      dup7\n        /* \"#utility.yul\":9554:9577   */\n      sub\n        /* \"#utility.yul\":9550:9582   */\n      slt\n        /* \"#utility.yul\":9547:9666   */\n      iszero\n      tag_482\n      jumpi\n        /* \"#utility.yul\":9585:9664   */\n      tag_483\n      tag_308\n      jump\t// in\n    tag_483:\n        /* \"#utility.yul\":9547:9666   */\n    tag_482:\n        /* \"#utility.yul\":9705:9706   */\n      0x00\n        /* \"#utility.yul\":9730:9783   */\n      tag_484\n        /* \"#utility.yul\":9775:9782   */\n      dup7\n        /* \"#utility.yul\":9766:9772   */\n      dup3\n        /* \"#utility.yul\":9755:9764   */\n      dup8\n        /* \"#utility.yul\":9751:9773   */\n      add\n        /* \"#utility.yul\":9730:9783   */\n      tag_324\n      jump\t// in\n    tag_484:\n        /* \"#utility.yul\":9720:9783   */\n      swap4\n      pop\n        /* \"#utility.yul\":9676:9793   */\n      pop\n        /* \"#utility.yul\":9832:9834   */\n      0x20\n        /* \"#utility.yul\":9858:9911   */\n      tag_485\n        /* \"#utility.yul\":9903:9910   */\n      dup7\n        /* \"#utility.yul\":9894:9900   */\n      dup3\n        /* \"#utility.yul\":9883:9892   */\n      dup8\n        /* \"#utility.yul\":9879:9901   */\n      add\n        /* \"#utility.yul\":9858:9911   */\n      tag_324\n      jump\t// in\n    tag_485:\n        /* \"#utility.yul\":9848:9911   */\n      swap3\n      pop\n        /* \"#utility.yul\":9803:9921   */\n      pop\n        /* \"#utility.yul\":9960:9962   */\n      0x40\n        /* \"#utility.yul\":9986:10039   */\n      tag_486\n        /* \"#utility.yul\":10031:10038   */\n      dup7\n        /* \"#utility.yul\":10022:10028   */\n      dup3\n        /* \"#utility.yul\":10011:10020   */\n      dup8\n        /* \"#utility.yul\":10007:10029   */\n      add\n        /* \"#utility.yul\":9986:10039   */\n      tag_327\n      jump\t// in\n    tag_486:\n        /* \"#utility.yul\":9976:10039   */\n      swap2\n      pop\n        /* \"#utility.yul\":9931:10049   */\n      pop\n        /* \"#utility.yul\":9437:10056   */\n      swap3\n      pop\n      swap3\n      pop\n      swap3\n      jump\t// out\n        /* \"#utility.yul\":10062:10174   */\n    tag_341:\n        /* \"#utility.yul\":10145:10167   */\n      tag_488\n        /* \"#utility.yul\":10161:10166   */\n      dup2\n        /* \"#utility.yul\":10145:10167   */\n      tag_310\n      jump\t// in\n    tag_488:\n        /* \"#utility.yul\":10140:10143   */\n      dup3\n        /* \"#utility.yul\":10133:10168   */\n      mstore\n        /* \"#utility.yul\":10062:10174   */\n      pop\n      pop\n      jump\t// out\n        /* \"#utility.yul\":10180:10394   */\n    tag_70:\n        /* \"#utility.yul\":10269:10273   */\n      0x00\n        /* \"#utility.yul\":10307:10309   */\n      0x20\n        /* \"#utility.yul\":10296:10305   */\n      dup3\n        /* \"#utility.yul\":10292:10310   */\n      add\n        /* \"#utility.yul\":10284:10310   */\n      swap1\n      pop\n        /* \"#utility.yul\":10320:10387   */\n      tag_490\n        /* \"#utility.yul\":10384:10385   */\n      0x00\n        /* \"#utility.yul\":10373:10382   */\n      dup4\n        /* \"#utility.yul\":10369:10386   */\n      add\n        /* \"#utility.yul\":10360:10366   */\n      dup5\n        /* \"#utility.yul\":10320:10387   */\n      tag_341\n      jump\t// in\n    tag_490:\n        /* \"#utility.yul\":10180:10394   */\n      swap3\n      swap2\n      pop\n      pop\n      jump\t// out\n        /* \"#utility.yul\":10400:10874   */\n    tag_77:\n        /* \"#utility.yul\":10468:10474   */\n      0x00\n        /* \"#utility.yul\":10476:10482   */\n      0x00\n        /* \"#utility.yul\":10525:10527   */\n      0x40\n        /* \"#utility.yul\":10513:10522   */\n      dup4\n        /* \"#utility.yul\":10504:10511   */\n      dup6\n        /* \"#utility.yul\":10500:10523   */\n      sub\n        /* \"#utility.yul\":10496:10528   */\n      slt\n        /* \"#utility.yul\":10493:10612   */\n      iszero\n      tag_492\n      jumpi\n        /* \"#utility.yul\":10531:10610   */\n      tag_493\n      tag_308\n      jump\t// in\n    tag_493:\n        /* \"#utility.yul\":10493:10612   */\n    tag_492:\n        /* \"#utility.yul\":10651:10652   */\n      0x00\n        /* \"#utility.yul\":10676:10729   */\n      tag_494\n        /* \"#utility.yul\":10721:10728   */\n      dup6\n        /* \"#utility.yul\":10712:10718   */\n      dup3\n        /* \"#utility.yul\":10701:10710   */\n      dup7\n        /* \"#utility.yul\":10697:10719   */\n      add\n        /* \"#utility.yul\":10676:10729   */\n      tag_327\n      jump\t// in\n    tag_494:\n        /* \"#utility.yul\":10666:10729   */\n      swap3\n      pop\n        /* \"#utility.yul\":10622:10739   */\n      pop\n        /* \"#utility.yul\":10778:10780   */\n      0x20\n        /* \"#utility.yul\":10804:10857   */\n      tag_495\n        /* \"#utility.yul\":10849:10856   */\n      dup6\n        /* \"#utility.yul\":10840:10846   */\n      dup3\n        /* \"#utility.yul\":10829:10838   */\n      dup7\n        /* \"#utility.yul\":10825:10847   */\n      add\n        /* \"#utility.yul\":10804:10857   */\n      tag_327\n      jump\t// in\n    tag_495:\n        /* \"#utility.yul\":10794:10857   */\n      swap2\n      pop\n        /* \"#utility.yul\":10749:10867   */\n      pop\n        /* \"#utility.yul\":10400:10874   */\n      swap3\n      pop\n      swap3\n      swap1\n      pop\n      jump\t// out\n        /* \"#utility.yul\":10880:11303   */\n    tag_103:\n        /* \"#utility.yul\":11021:11025   */\n      0x00\n        /* \"#utility.yul\":11059:11061   */\n      0x40\n        /* \"#utility.yul\":11048:11057   */\n      dup3\n        /* \"#utility.yul\":11044:11062   */\n      add\n        /* \"#utility.yul\":11036:11062   */\n      swap1\n      pop\n        /* \"#utility.yul\":11072:11143   */\n      tag_497\n        /* \"#utility.yul\":11140:11141   */\n      0x00\n        /* \"#utility.yul\":11129:11138   */\n      dup4\n        /* \"#utility.yul\":11125:11142   */\n      add\n        /* \"#utility.yul\":11116:11122   */\n      dup6\n        /* \"#utility.yul\":11072:11143   */\n      tag_339\n      jump\t// in\n    tag_497:\n        /* \"#utility.yul\":11190:11199   */\n      dup2\n        /* \"#utility.yul\":11184:11188   */\n      dup2\n        /* \"#utility.yul\":11180:11200   */\n      sub\n        /* \"#utility.yul\":11175:11177   */\n      0x20\n        /* \"#utility.yul\":11164:11173   */\n      dup4\n        /* \"#utility.yul\":11160:11178   */\n      add\n        /* \"#utility.yul\":11153:11201   */\n      mstore\n        /* \"#utility.yul\":11218:11296   */\n      tag_498\n        /* \"#utility.yul\":11291:11295   */\n      dup2\n        /* \"#utility.yul\":11282:11288   */\n      dup5\n        /* \"#utility.yul\":11218:11296   */\n      tag_320\n      jump\t// in\n    tag_498:\n        /* \"#utility.yul\":11210:11296   */\n      swap1\n      pop\n        /* \"#utility.yul\":10880:11303   */\n      swap4\n      swap3\n      pop\n      pop\n      pop\n      jump\t// out\n        /* \"#utility.yul\":11309:11783   */\n    tag_106:\n        /* \"#utility.yul\":11377:11383   */\n      0x00\n        /* \"#utility.yul\":11385:11391   */\n      0x00\n        /* \"#utility.yul\":11434:11436   */\n      0x40\n        /* \"#utility.yul\":11422:11431   */\n      dup4\n        /* \"#utility.yul\":11413:11420   */\n      dup6\n        /* \"#utility.yul\":11409:11432   */\n      sub\n        /* \"#utility.yul\":11405:11437   */\n      slt\n        /* \"#utility.yul\":11402:11521   */\n      iszero\n      tag_500\n      jumpi\n        /* \"#utility.yul\":11440:11519   */\n      tag_501\n      tag_308\n      jump\t// in\n    tag_501:\n        /* \"#utility.yul\":11402:11521   */\n    tag_500:\n        /* \"#utility.yul\":11560:11561   */\n      0x00\n        /* \"#utility.yul\":11585:11638   */\n      tag_502\n        /* \"#utility.yul\":11630:11637   */\n      dup6\n        /* \"#utility.yul\":11621:11627   */\n      dup3\n        /* \"#utility.yul\":11610:11619   */\n      dup7\n        /* \"#utility.yul\":11606:11628   */\n      add\n        /* \"#utility.yul\":11585:11638   */\n      tag_324\n      jump\t// in\n    tag_502:\n        /* \"#utility.yul\":11575:11638   */\n      swap3\n      pop\n        /* \"#utility.yul\":11531:11648   */\n      pop\n        /* \"#utility.yul\":11687:11689   */\n      0x20\n        /* \"#utility.yul\":11713:11766   */\n      tag_503\n        /* \"#utility.yul\":11758:11765   */\n      dup6\n        /* \"#utility.yul\":11749:11755   */\n      dup3\n        /* \"#utility.yul\":11738:11747   */\n      dup7\n        /* \"#utility.yul\":11734:11756   */\n      add\n        /* \"#utility.yul\":11713:11766   */\n      tag_324\n      jump\t// in\n    tag_503:\n        /* \"#utility.yul\":11703:11766   */\n      swap2\n      pop\n        /* \"#utility.yul\":11658:11776   */\n      pop\n        /* \"#utility.yul\":11309:11783   */\n      swap3\n      pop\n      swap3\n      swap1\n      pop\n      jump\t// out\n        /* \"#utility.yul\":11789:11970   */\n    tag_342:\n        /* \"#utility.yul\":11929:11962   */\n      0x536f6d656e7465206a757261646f7320706f64656d2072656769737472617200\n        /* \"#utility.yul\":11925:11926   */\n      0x00\n        /* \"#utility.yul\":11917:11923   */\n      dup3\n        /* \"#utility.yul\":11913:11927   */\n      add\n        /* \"#utility.yul\":11906:11963   */\n      mstore\n        /* \"#utility.yul\":11789:11970   */\n      pop\n      jump\t// out\n        /* \"#utility.yul\":11976:12342   */\n    tag_343:\n        /* \"#utility.yul\":12118:12121   */\n      0x00\n        /* \"#utility.yul\":12139:12206   */\n      tag_506\n        /* \"#utility.yul\":12203:12205   */\n      0x1f\n        /* \"#utility.yul\":12198:12201   */\n      dup4\n        /* \"#utility.yul\":12139:12206   */\n      tag_317\n      jump\t// in\n    tag_506:\n        /* \"#utility.yul\":12132:12206   */\n      swap2\n      pop\n        /* \"#utility.yul\":12215:12308   */\n      tag_507\n        /* \"#utility.yul\":12304:12307   */\n      dup3\n        /* \"#utility.yul\":12215:12308   */\n      tag_342\n      jump\t// in\n    tag_507:\n        /* \"#utility.yul\":12333:12335   */\n      0x20\n        /* \"#utility.yul\":12328:12331   */\n      dup3\n        /* \"#utility.yul\":12324:12336   */\n      add\n        /* \"#utility.yul\":12317:12336   */\n      swap1\n      pop\n        /* \"#utility.yul\":11976:12342   */\n      swap2\n      swap1\n      pop\n      jump\t// out\n        /* \"#utility.yul\":12348:12767   */\n    tag_122:\n        /* \"#utility.yul\":12514:12518   */\n      0x00\n        /* \"#utility.yul\":12552:12554   */\n      0x20\n        /* \"#utility.yul\":12541:12550   */\n      dup3\n        /* \"#utility.yul\":12537:12555   */\n      add\n        /* \"#utility.yul\":12529:12555   */\n      swap1\n      pop\n        /* \"#utility.yul\":12601:12610   */\n      dup2\n        /* \"#utility.yul\":12595:12599   */\n      dup2\n        /* \"#utility.yul\":12591:12611   */\n      sub\n        /* \"#utility.yul\":12587:12588   */\n      0x00\n        /* \"#utility.yul\":12576:12585   */\n      dup4\n        /* \"#utility.yul\":12572:12589   */\n      add\n        /* \"#utility.yul\":12565:12612   */\n      mstore\n        /* \"#utility.yul\":12629:12760   */\n      tag_509\n        /* \"#utility.yul\":12755:12759   */\n      dup2\n        /* \"#utility.yul\":12629:12760   */\n      tag_343\n      jump\t// in\n    tag_509:\n        /* \"#utility.yul\":12621:12760   */\n      swap1\n      pop\n        /* \"#utility.yul\":12348:12767   */\n      swap2\n      swap1\n      pop\n      jump\t// out\n        /* \"#utility.yul\":12773:12938   */\n    tag_344:\n        /* \"#utility.yul\":12913:12930   */\n      0x4e6f746120696d706f73736976656c0000000000000000000000000000000000\n        /* \"#utility.yul\":12909:12910   */\n      0x00\n        /* \"#utility.yul\":12901:12907   */\n      dup3\n        /* \"#utility.yul\":12897:12911   */\n      add\n        /* \"#utility.yul\":12890:12931   */\n      mstore\n        /* \"#utility.yul\":12773:12938   */\n      pop\n      jump\t// out\n        /* \"#utility.yul\":12944:13310   */\n    tag_345:\n        /* \"#utility.yul\":13086:13089   */\n      0x00\n        /* \"#utility.yul\":13107:13174   */\n      tag_512\n        /* \"#utility.yul\":13171:13173   */\n      0x0f\n        /* \"#utility.yul\":13166:13169   */\n      dup4\n        /* \"#utility.yul\":13107:13174   */\n      tag_317\n      jump\t// in\n    tag_512:\n        /* \"#utility.yul\":13100:13174   */\n      swap2\n      pop\n        /* \"#utility.yul\":13183:13276   */\n      tag_513\n        /* \"#utility.yul\":13272:13275   */\n      dup3\n        /* \"#utility.yul\":13183:13276   */\n      tag_344\n      jump\t// in\n    tag_513:\n        /* \"#utility.yul\":13301:13303   */\n      0x20\n        /* \"#utility.yul\":13296:13299   */\n      dup3\n        /* \"#utility.yul\":13292:13304   */\n      add\n        /* \"#utility.yul\":13285:13304   */\n      swap1\n      pop\n        /* \"#utility.yul\":12944:13310   */\n      swap2\n      swap1\n      pop\n      jump\t// out\n        /* \"#utility.yul\":13316:13735   */\n    tag_126:\n        /* \"#utility.yul\":13482:13486   */\n      0x00\n        /* \"#utility.yul\":13520:13522   */\n      0x20\n        /* \"#utility.yul\":13509:13518   */\n      dup3\n        /* \"#utility.yul\":13505:13523   */\n      add\n        /* \"#utility.yul\":13497:13523   */\n      swap1\n      pop\n        /* \"#utility.yul\":13569:13578   */\n      dup2\n        /* \"#utility.yul\":13563:13567   */\n      dup2\n        /* \"#utility.yul\":13559:13579   */\n      sub\n        /* \"#utility.yul\":13555:13556   */\n      0x00\n        /* \"#utility.yul\":13544:13553   */\n      dup4\n        /* \"#utility.yul\":13540:13557   */\n      add\n        /* \"#utility.yul\":13533:13580   */\n      mstore\n        /* \"#utility.yul\":13597:13728   */\n      tag_515\n        /* \"#utility.yul\":13723:13727   */\n      dup2\n        /* \"#utility.yul\":13597:13728   */\n      tag_345\n      jump\t// in\n    tag_515:\n        /* \"#utility.yul\":13589:13728   */\n      swap1\n      pop\n        /* \"#utility.yul\":13316:13735   */\n      swap2\n      swap1\n      pop\n      jump\t// out\n        /* \"#utility.yul\":13741:13921   */\n    tag_346:\n        /* \"#utility.yul\":13789:13866   */\n      0x4e487b7100000000000000000000000000000000000000000000000000000000\n        /* \"#utility.yul\":13786:13787   */\n      0x00\n        /* \"#utility.yul\":13779:13867   */\n      mstore\n        /* \"#utility.yul\":13886:13890   */\n      0x22\n        /* \"#utility.yul\":13883:13884   */\n      0x04\n        /* \"#utility.yul\":13876:13891   */\n      mstore\n        /* \"#utility.yul\":13910:13914   */\n      0x24\n        /* \"#utility.yul\":13907:13908   */\n      0x00\n        /* \"#utility.yul\":13900:13915   */\n      revert\n        /* \"#utility.yul\":13927:14247   */\n    tag_130:\n        /* \"#utility.yul\":13971:13977   */\n      0x00\n        /* \"#utility.yul\":14008:14009   */\n      0x02\n        /* \"#utility.yul\":14002:14006   */\n      dup3\n        /* \"#utility.yul\":13998:14010   */\n      div\n        /* \"#utility.yul\":13988:14010   */\n      swap1\n      pop\n        /* \"#utility.yul\":14055:14056   */\n      0x01\n        /* \"#utility.yul\":14049:14053   */\n      dup3\n        /* \"#utility.yul\":14045:14057   */\n      and\n        /* \"#utility.yul\":14076:14094   */\n      dup1\n        /* \"#utility.yul\":14066:14147   */\n      tag_518\n      jumpi\n        /* \"#utility.yul\":14132:14136   */\n      0x7f\n        /* \"#utility.yul\":14124:14130   */\n      dup3\n        /* \"#utility.yul\":14120:14137   */\n      and\n        /* \"#utility.yul\":14110:14137   */\n      swap2\n      pop\n        /* \"#utility.yul\":14066:14147   */\n    tag_518:\n        /* \"#utility.yul\":14194:14196   */\n      0x20\n        /* \"#utility.yul\":14186:14192   */\n      dup3\n        /* \"#utility.yul\":14183:14197   */\n      lt\n        /* \"#utility.yul\":14163:14181   */\n      dup2\n        /* \"#utility.yul\":14160:14198   */\n      sub\n        /* \"#utility.yul\":14157:14241   */\n      tag_519\n      jumpi\n        /* \"#utility.yul\":14213:14231   */\n      tag_520\n      tag_346\n      jump\t// in\n    tag_520:\n        /* \"#utility.yul\":14157:14241   */\n    tag_519:\n        /* \"#utility.yul\":13978:14247   */\n      pop\n        /* \"#utility.yul\":13927:14247   */\n      swap2\n      swap1\n      pop\n      jump\t// out\n        /* \"#utility.yul\":14253:14432   */\n    tag_347:\n        /* \"#utility.yul\":14393:14424   */\n      0x5175616e746964616465206d6178696d61206465207175657369746f73000000\n        /* \"#utility.yul\":14389:14390   */\n      0x00\n        /* \"#utility.yul\":14381:14387   */\n      dup3\n        /* \"#utility.yul\":14377:14391   */\n      add\n        /* \"#utility.yul\":14370:14425   */\n      mstore\n        /* \"#utility.yul\":14253:14432   */\n      pop\n      jump\t// out\n        /* \"#utility.yul\":14438:14804   */\n    tag_348:\n        /* \"#utility.yul\":14580:14583   */\n      0x00\n        /* \"#utility.yul\":14601:14668   */\n      tag_523\n        /* \"#utility.yul\":14665:14667   */\n      0x1d\n        /* \"#utility.yul\":14660:14663   */\n      dup4\n        /* \"#utility.yul\":14601:14668   */\n      tag_317\n      jump\t// in\n    tag_523:\n        /* \"#utility.yul\":14594:14668   */\n      swap2\n      pop\n        /* \"#utility.yul\":14677:14770   */\n      tag_524\n        /* \"#utility.yul\":14766:14769   */\n      dup3\n        /* \"#utility.yul\":14677:14770   */\n      tag_347\n      jump\t// in\n    tag_524:\n        /* \"#utility.yul\":14795:14797   */\n      0x20\n        /* \"#utility.yul\":14790:14793   */\n      dup3\n        /* \"#utility.yul\":14786:14798   */\n      add\n        /* \"#utility.yul\":14779:14798   */\n      swap1\n      pop\n        /* \"#utility.yul\":14438:14804   */\n      swap2\n      swap1\n      pop\n      jump\t// out\n        /* \"#utility.yul\":14810:15229   */\n    tag_143:\n        /* \"#utility.yul\":14976:14980   */\n      0x00\n        /* \"#utility.yul\":15014:15016   */\n      0x20\n        /* \"#utility.yul\":15003:15012   */\n      dup3\n        /* \"#utility.yul\":14999:15017   */\n      add\n        /* \"#utility.yul\":14991:15017   */\n      swap1\n      pop\n        /* \"#utility.yul\":15063:15072   */\n      dup2\n        /* \"#utility.yul\":15057:15061   */\n      dup2\n        /* \"#utility.yul\":15053:15073   */\n      sub\n        /* \"#utility.yul\":15049:15050   */\n      0x00\n        /* \"#utility.yul\":15038:15047   */\n      dup4\n        /* \"#utility.yul\":15034:15051   */\n      add\n        /* \"#utility.yul\":15027:15074   */\n      mstore\n        /* \"#utility.yul\":15091:15222   */\n      tag_526\n        /* \"#utility.yul\":15217:15221   */\n      dup2\n        /* \"#utility.yul\":15091:15222   */\n      tag_348\n      jump\t// in\n    tag_526:\n        /* \"#utility.yul\":15083:15222   */\n      swap1\n      pop\n        /* \"#utility.yul\":14810:15229   */\n      swap2\n      swap1\n      pop\n      jump\t// out\n        /* \"#utility.yul\":15235:15415   */\n    tag_146:\n        /* \"#utility.yul\":15283:15360   */\n      0x4e487b7100000000000000000000000000000000000000000000000000000000\n        /* \"#utility.yul\":15280:15281   */\n      0x00\n        /* \"#utility.yul\":15273:15361   */\n      mstore\n        /* \"#utility.yul\":15380:15384   */\n      0x32\n        /* \"#utility.yul\":15377:15378   */\n      0x04\n        /* \"#utility.yul\":15370:15385   */\n      mstore\n        /* \"#utility.yul\":15404:15408   */\n      0x24\n        /* \"#utility.yul\":15401:15402   */\n      0x00\n        /* \"#utility.yul\":15394:15409   */\n      revert\n        /* \"#utility.yul\":15421:15562   */\n    tag_349:\n        /* \"#utility.yul\":15470:15474   */\n      0x00\n        /* \"#utility.yul\":15493:15496   */\n      dup2\n        /* \"#utility.yul\":15485:15496   */\n      swap1\n      pop\n        /* \"#utility.yul\":15516:15519   */\n      dup2\n        /* \"#utility.yul\":15513:15514   */\n      0x00\n        /* \"#utility.yul\":15506:15520   */\n      mstore\n        /* \"#utility.yul\":15550:15554   */\n      0x20\n        /* \"#utility.yul\":15547:15548   */\n      0x00\n        /* \"#utility.yul\":15537:15555   */\n      keccak256\n        /* \"#utility.yul\":15529:15555   */\n      swap1\n      pop\n        /* \"#utility.yul\":15421:15562   */\n      swap2\n      swap1\n      pop\n      jump\t// out\n        /* \"#utility.yul\":15568:15661   */\n    tag_350:\n        /* \"#utility.yul\":15605:15611   */\n      0x00\n        /* \"#utility.yul\":15652:15654   */\n      0x20\n        /* \"#utility.yul\":15647:15649   */\n      0x1f\n        /* \"#utility.yul\":15640:15645   */\n      dup4\n        /* \"#utility.yul\":15636:15650   */\n      add\n        /* \"#utility.yul\":15632:15655   */\n      div\n        /* \"#utility.yul\":15622:15655   */\n      swap1\n      pop\n        /* \"#utility.yul\":15568:15661   */\n      swap2\n      swap1\n      pop\n      jump\t// out\n        /* \"#utility.yul\":15667:15774   */\n    tag_351:\n        /* \"#utility.yul\":15711:15719   */\n      0x00\n        /* \"#utility.yul\":15761:15766   */\n      dup3\n        /* \"#utility.yul\":15755:15759   */\n      dup3\n        /* \"#utility.yul\":15751:15767   */\n      shl\n        /* \"#utility.yul\":15730:15767   */\n      swap1\n      pop\n        /* \"#utility.yul\":15667:15774   */\n      swap3\n      swap2\n      pop\n      pop\n      jump\t// out\n        /* \"#utility.yul\":15780:16173   */\n    tag_352:\n        /* \"#utility.yul\":15849:15855   */\n      0x00\n        /* \"#utility.yul\":15899:15900   */\n      0x08\n        /* \"#utility.yul\":15887:15897   */\n      dup4\n        /* \"#utility.yul\":15883:15901   */\n      mul\n        /* \"#utility.yul\":15922:16019   */\n      tag_532\n        /* \"#utility.yul\":15952:16018   */\n      0xffffffffffffffffffffffffffffffffffffffffffffffffffffffffffffffff\n        /* \"#utility.yul\":15941:15950   */\n      dup3\n        /* \"#utility.yul\":15922:16019   */\n      tag_351\n      jump\t// in\n    tag_532:\n        /* \"#utility.yul\":16040:16079   */\n      tag_533\n        /* \"#utility.yul\":16070:16078   */\n      dup7\n        /* \"#utility.yul\":16059:16068   */\n      dup4\n        /* \"#utility.yul\":16040:16079   */\n      tag_351\n      jump\t// in\n    tag_533:\n        /* \"#utility.yul\":16028:16079   */\n      swap6\n      pop\n        /* \"#utility.yul\":16112:16116   */\n      dup1\n        /* \"#utility.yul\":16108:16117   */\n      not\n        /* \"#utility.yul\":16101:16106   */\n      dup5\n        /* \"#utility.yul\":16097:16118   */\n      and\n        /* \"#utility.yul\":16088:16118   */\n      swap4\n      pop\n        /* \"#utility.yul\":16161:16165   */\n      dup1\n        /* \"#utility.yul\":16151:16159   */\n      dup7\n        /* \"#utility.yul\":16147:16166   */\n      and\n        /* \"#utility.yul\":16140:16145   */\n      dup5\n        /* \"#utility.yul\":16137:16167   */\n      or\n        /* \"#utility.yul\":16127:16167   */\n      swap3\n      pop\n        /* \"#utility.yul\":15856:16173   */\n      pop\n      pop\n        /* \"#utility.yul\":15780:16173   */\n      swap4\n      swap3\n      pop\n      pop\n      pop\n      jump\t// out\n        /* \"#utility.yul\":16179:16239   */\n    tag_353:\n        /* \"#utility.yul\":16207:16210   */\n      0x00\n        /* \"#utility.yul\":16228:16233   */\n      dup2\n        /* \"#utility.yul\":16221:16233   */\n      swap1\n      pop\n        /* \"#utility.yul\":16179:16239   */\n      swap2\n      swap1\n      pop\n      jump\t// out\n        /* \"#utility.yul\":16245:16387   */\n    tag_354:\n        /* \"#utility.yul\":16295:16304   */\n      0x00\n        /* \"#utility.yul\":16328:16381   */\n      tag_536\n        /* \"#utility.yul\":16346:16380   */\n      tag_537\n        /* \"#utility.yul\":16355:16379   */\n      tag_538\n        /* \"#utility.yul\":16373:16378   */\n      dup5\n        /* \"#utility.yul\":16355:16379   */\n      tag_325\n      jump\t// in\n    tag_538:\n        /* \"#utility.yul\":16346:16380   */\n      tag_353\n      jump\t// in\n    tag_537:\n        /* \"#utility.yul\":16328:16381   */\n      tag_325\n      jump\t// in\n    tag_536:\n        /* \"#utility.yul\":16315:16381   */\n      swap1\n      pop\n        /* \"#utility.yul\":16245:16387   */\n      swap2\n      swap1\n      pop\n      jump\t// out\n        /* \"#utility.yul\":16393:16468   */\n    tag_355:\n        /* \"#utility.yul\":16436:16439   */\n      0x00\n        /* \"#utility.yul\":16457:16462   */\n      dup2\n        /* \"#utility.yul\":16450:16462   */\n      swap1\n      pop\n        /* \"#utility.yul\":16393:16468   */\n      swap2\n      swap1\n      pop\n      jump\t// out\n        /* \"#utility.yul\":16474:16743   */\n    tag_356:\n        /* \"#utility.yul\":16584:16623   */\n      tag_541\n        /* \"#utility.yul\":16615:16622   */\n      dup4\n        /* \"#utility.yul\":16584:16623   */\n      tag_354\n      jump\t// in\n    tag_541:\n        /* \"#utility.yul\":16645:16736   */\n      tag_542\n        /* \"#utility.yul\":16694:16735   */\n      tag_543\n        /* \"#utility.yul\":16718:16734   */\n      dup3\n        /* \"#utility.yul\":16694:16735   */\n      tag_355\n      jump\t// in\n    tag_543:\n        /* \"#utility.yul\":16686:16692   */\n      dup5\n        /* \"#utility.yul\":16679:16683   */\n      dup5\n        /* \"#utility.yul\":16673:16684   */\n      sload\n        /* \"#utility.yul\":16645:16736   */\n      tag_352\n      jump\t// in\n    tag_542:\n        /* \"#utility.yul\":16639:16643   */\n      dup3\n        /* \"#utility.yul\":16632:16737   */\n      sstore\n        /* \"#utility.yul\":16550:16743   */\n      pop\n        /* \"#utility.yul\":16474:16743   */\n      pop\n      pop\n      pop\n      jump\t// out\n        /* \"#utility.yul\":16749:16822   */\n    tag_357:\n        /* \"#utility.yul\":16794:16797   */\n      0x00\n        /* \"#utility.yul\":16815:16816   */\n      0x00\n        /* \"#utility.yul\":16808:16816   */\n      swap1\n      pop\n        /* \"#utility.yul\":16749:16822   */\n      swap1\n      jump\t// out\n        /* \"#utility.yul\":16828:17017   */\n    tag_358:\n        /* \"#utility.yul\":16905:16937   */\n      tag_546\n      tag_357\n      jump\t// in\n    tag_546:\n        /* \"#utility.yul\":16946:17011   */\n      tag_547\n        /* \"#utility.yul\":17004:17010   */\n      dup2\n        /* \"#utility.yul\":16996:17002   */\n      dup5\n        /* \"#utility.yul\":16990:16994   */\n      dup5\n        /* \"#utility.yul\":16946:17011   */\n      tag_356\n      jump\t// in\n    tag_547:\n        /* \"#utility.yul\":16881:17017   */\n      pop\n        /* \"#utility.yul\":16828:17017   */\n      pop\n      pop\n      jump\t// out\n        /* \"#utility.yul\":17023:17209   */\n    tag_359:\n        /* \"#utility.yul\":17083:17203   */\n    tag_549:\n        /* \"#utility.yul\":17100:17103   */\n      dup2\n        /* \"#utility.yul\":17093:17098   */\n      dup2\n        /* \"#utility.yul\":17090:17104   */\n      lt\n        /* \"#utility.yul\":17083:17203   */\n      iszero\n      tag_551\n      jumpi\n        /* \"#utility.yul\":17154:17193   */\n      tag_552\n        /* \"#utility.yul\":17191:17192   */\n      0x00\n        /* \"#utility.yul\":17184:17189   */\n      dup3\n        /* \"#utility.yul\":17154:17193   */\n      tag_358\n      jump\t// in\n    tag_552:\n        /* \"#utility.yul\":17127:17128   */\n      0x01\n        /* \"#utility.yul\":17120:17125   */\n      dup2\n        /* \"#utility.yul\":17116:17129   */\n      add\n        /* \"#utility.yul\":17107:17129   */\n      swap1\n      pop\n        /* \"#utility.yul\":17083:17203   */\n      jump(tag_549)\n    tag_551:\n        /* \"#utility.yul\":17023:17209   */\n      pop\n      pop\n      jump\t// out\n        /* \"#utility.yul\":17215:17758   */\n    tag_360:\n        /* \"#utility.yul\":17316:17318   */\n      0x1f\n        /* \"#utility.yul\":17311:17314   */\n      dup3\n        /* \"#utility.yul\":17308:17319   */\n      gt\n        /* \"#utility.yul\":17305:17751   */\n      iszero\n      tag_554\n      jumpi\n        /* \"#utility.yul\":17350:17388   */\n      tag_555\n        /* \"#utility.yul\":17382:17387   */\n      dup2\n        /* \"#utility.yul\":17350:17388   */\n      tag_349\n      jump\t// in\n    tag_555:\n        /* \"#utility.yul\":17434:17463   */\n      tag_556\n        /* \"#utility.yul\":17452:17462   */\n      dup5\n        /* \"#utility.yul\":17434:17463   */\n      tag_350\n      jump\t// in\n    tag_556:\n        /* \"#utility.yul\":17424:17432   */\n      dup2\n        /* \"#utility.yul\":17420:17464   */\n      add\n        /* \"#utility.yul\":17617:17619   */\n      0x20\n        /* \"#utility.yul\":17605:17615   */\n      dup6\n        /* \"#utility.yul\":17602:17620   */\n      lt\n        /* \"#utility.yul\":17599:17648   */\n      iszero\n      tag_557\n      jumpi\n        /* \"#utility.yul\":17638:17646   */\n      dup2\n        /* \"#utility.yul\":17623:17646   */\n      swap1\n      pop\n        /* \"#utility.yul\":17599:17648   */\n    tag_557:\n        /* \"#utility.yul\":17661:17741   */\n      tag_558\n        /* \"#utility.yul\":17717:17739   */\n      tag_559\n        /* \"#utility.yul\":17735:17738   */\n      dup6\n        /* \"#utility.yul\":17717:17739   */\n      tag_350\n      jump\t// in\n    tag_559:\n        /* \"#utility.yul\":17707:17715   */\n      dup4\n        /* \"#utility.yul\":17703:17740   */\n      add\n        /* \"#utility.yul\":17690:17701   */\n      dup3\n        /* \"#utility.yul\":17661:17741   */\n      tag_359\n      jump\t// in\n    tag_558:\n        /* \"#utility.yul\":17320:17751   */\n      pop\n      pop\n        /* \"#utility.yul\":17305:17751   */\n    tag_554:\n        /* \"#utility.yul\":17215:17758   */\n      pop\n      pop\n      pop\n      jump\t// out\n        /* \"#utility.yul\":17764:17881   */\n    tag_361:\n        /* \"#utility.yul\":17818:17826   */\n      0x00\n        /* \"#utility.yul\":17868:17873   */\n      dup3\n        /* \"#utility.yul\":17862:17866   */\n      dup3\n        /* \"#utility.yul\":17858:17874   */\n      shr\n        /* \"#utility.yul\":17837:17874   */\n      swap1\n      pop\n        /* \"#utility.yul\":17764:17881   */\n      swap3\n      swap2\n      pop\n      pop\n      jump\t// out\n        /* \"#utility.yul\":17887:18056   */\n    tag_362:\n        /* \"#utility.yul\":17931:17937   */\n      0x00\n        /* \"#utility.yul\":17964:18015   */\n      tag_562\n        /* \"#utility.yul\":18012:18013   */\n      0x00\n        /* \"#utility.yul\":18008:18014   */\n      not\n        /* \"#utility.yul\":18000:18005   */\n      dup5\n        /* \"#utility.yul\":17997:17998   */\n      0x08\n        /* \"#utility.yul\":17993:18006   */\n      mul\n        /* \"#utility.yul\":17964:18015   */\n      tag_361\n      jump\t// in\n    tag_562:\n        /* \"#utility.yul\":17960:18016   */\n      not\n        /* \"#utility.yul\":18045:18049   */\n      dup1\n        /* \"#utility.yul\":18039:18043   */\n      dup4\n        /* \"#utility.yul\":18035:18050   */\n      and\n        /* \"#utility.yul\":18025:18050   */\n      swap2\n      pop\n        /* \"#utility.yul\":17938:18056   */\n      pop\n        /* \"#utility.yul\":17887:18056   */\n      swap3\n      swap2\n      pop\n      pop\n      jump\t// out\n        /* \"#utility.yul\":18061:18356   */\n    tag_363:\n        /* \"#utility.yul\":18137:18141   */\n      0x00\n        /* \"#utility.yul\":18283:18312   */\n      tag_564\n        /* \"#utility.yul\":18308:18311   */\n      dup4\n        /* \"#utility.yul\":18302:18306   */\n      dup4\n        /* \"#utility.yul\":18283:18312   */\n      tag_362\n      jump\t// in\n    tag_564:\n        /* \"#utility.yul\":18275:18312   */\n      swap2\n      pop\n        /* \"#utility.yul\":18345:18348   */\n      dup3\n        /* \"#utility.yul\":18342:18343   */\n      0x02\n        /* \"#utility.yul\":18338:18349   */\n      mul\n        /* \"#utility.yul\":18332:18336   */\n      dup3\n        /* \"#utility.yul\":18329:18350   */\n      or\n        /* \"#utility.yul\":18321:18350   */\n      swap1\n      pop\n        /* \"#utility.yul\":18061:18356   */\n      swap3\n      swap2\n      pop\n      pop\n      jump\t// out\n        /* \"#utility.yul\":18361:19756   */\n    tag_149:\n        /* \"#utility.yul\":18478:18515   */\n      tag_566\n        /* \"#utility.yul\":18511:18514   */\n      dup3\n        /* \"#utility.yul\":18478:18515   */\n      tag_316\n      jump\t// in\n    tag_566:\n        /* \"#utility.yul\":18580:18598   */\n      0xffffffffffffffff\n        /* \"#utility.yul\":18572:18578   */\n      dup2\n        /* \"#utility.yul\":18569:18599   */\n      gt\n        /* \"#utility.yul\":18566:18622   */\n      iszero\n      tag_567\n      jumpi\n        /* \"#utility.yul\":18602:18620   */\n      tag_568\n      tag_332\n      jump\t// in\n    tag_568:\n        /* \"#utility.yul\":18566:18622   */\n    tag_567:\n        /* \"#utility.yul\":18646:18684   */\n      tag_569\n        /* \"#utility.yul\":18678:18682   */\n      dup3\n        /* \"#utility.yul\":18672:18683   */\n      sload\n        /* \"#utility.yul\":18646:18684   */\n      tag_130\n      jump\t// in\n    tag_569:\n        /* \"#utility.yul\":18731:18798   */\n      tag_570\n        /* \"#utility.yul\":18791:18797   */\n      dup3\n        /* \"#utility.yul\":18783:18789   */\n      dup3\n        /* \"#utility.yul\":18777:18781   */\n      dup6\n        /* \"#utility.yul\":18731:18798   */\n      tag_360\n      jump\t// in\n    tag_570:\n        /* \"#utility.yul\":18825:18826   */\n      0x00\n        /* \"#utility.yul\":18849:18853   */\n      0x20\n        /* \"#utility.yul\":18836:18853   */\n      swap1\n      pop\n        /* \"#utility.yul\":18881:18883   */\n      0x1f\n        /* \"#utility.yul\":18873:18879   */\n      dup4\n        /* \"#utility.yul\":18870:18884   */\n      gt\n        /* \"#utility.yul\":18898:18899   */\n      0x01\n        /* \"#utility.yul\":18893:19511   */\n      dup2\n      eq\n      tag_572\n      jumpi\n        /* \"#utility.yul\":19555:19556   */\n      0x00\n        /* \"#utility.yul\":19572:19578   */\n      dup5\n        /* \"#utility.yul\":19569:19646   */\n      iszero\n      tag_573\n      jumpi\n        /* \"#utility.yul\":19621:19630   */\n      dup3\n        /* \"#utility.yul\":19616:19619   */\n      dup8\n        /* \"#utility.yul\":19612:19631   */\n      add\n        /* \"#utility.yul\":19606:19632   */\n      mload\n        /* \"#utility.yul\":19597:19632   */\n      swap1\n      pop\n        /* \"#utility.yul\":19569:19646   */\n    tag_573:\n        /* \"#utility.yul\":19672:19739   */\n      tag_574\n        /* \"#utility.yul\":19732:19738   */\n      dup6\n        /* \"#utility.yul\":19725:19730   */\n      dup3\n        /* \"#utility.yul\":19672:19739   */\n      tag_363\n      jump\t// in\n    tag_574:\n        /* \"#utility.yul\":19666:19670   */\n      dup7\n        /* \"#utility.yul\":19659:19740   */\n      sstore\n        /* \"#utility.yul\":19528:19750   */\n      pop\n        /* \"#utility.yul\":18863:19750   */\n      jump(tag_571)\n        /* \"#utility.yul\":18893:19511   */\n    tag_572:\n        /* \"#utility.yul\":18945:18949   */\n      0x1f\n        /* \"#utility.yul\":18941:18950   */\n      not\n        /* \"#utility.yul\":18933:18939   */\n      dup5\n        /* \"#utility.yul\":18929:18951   */\n      and\n        /* \"#utility.yul\":18979:19016   */\n      tag_575\n        /* \"#utility.yul\":19011:19015   */\n      dup7\n        /* \"#utility.yul\":18979:19016   */\n      tag_349\n      jump\t// in\n    tag_575:\n        /* \"#utility.yul\":19038:19039   */\n      0x00\n        /* \"#utility.yul\":19052:19260   */\n    tag_576:\n        /* \"#utility.yul\":19066:19073   */\n      dup3\n        /* \"#utility.yul\":19063:19064   */\n      dup2\n        /* \"#utility.yul\":19060:19074   */\n      lt\n        /* \"#utility.yul\":19052:19260   */\n      iszero\n      tag_578\n      jumpi\n        /* \"#utility.yul\":19145:19154   */\n      dup5\n        /* \"#utility.yul\":19140:19143   */\n      dup10\n        /* \"#utility.yul\":19136:19155   */\n      add\n        /* \"#utility.yul\":19130:19156   */\n      mload\n        /* \"#utility.yul\":19122:19128   */\n      dup3\n        /* \"#utility.yul\":19115:19157   */\n      sstore\n        /* \"#utility.yul\":19196:19197   */\n      0x01\n        /* \"#utility.yul\":19188:19194   */\n      dup3\n        /* \"#utility.yul\":19184:19198   */\n      add\n        /* \"#utility.yul\":19174:19198   */\n      swap2\n      pop\n        /* \"#utility.yul\":19243:19245   */\n      0x20\n        /* \"#utility.yul\":19232:19241   */\n      dup6\n        /* \"#utility.yul\":19228:19246   */\n      add\n        /* \"#utility.yul\":19215:19246   */\n      swap5\n      pop\n        /* \"#utility.yul\":19089:19093   */\n      0x20\n        /* \"#utility.yul\":19086:19087   */\n      dup2\n        /* \"#utility.yul\":19082:19094   */\n      add\n        /* \"#utility.yul\":19077:19094   */\n      swap1\n      pop\n        /* \"#utility.yul\":19052:19260   */\n      jump(tag_576)\n    tag_578:\n        /* \"#utility.yul\":19288:19294   */\n      dup7\n        /* \"#utility.yul\":19279:19286   */\n      dup4\n        /* \"#utility.yul\":19276:19295   */\n      lt\n        /* \"#utility.yul\":19273:19452   */\n      iszero\n      tag_579\n      jumpi\n        /* \"#utility.yul\":19346:19355   */\n      dup5\n        /* \"#utility.yul\":19341:19344   */\n      dup10\n        /* \"#utility.yul\":19337:19356   */\n      add\n        /* \"#utility.yul\":19331:19357   */\n      mload\n        /* \"#utility.yul\":19389:19437   */\n      tag_580\n        /* \"#utility.yul\":19431:19435   */\n      0x1f\n        /* \"#utility.yul\":19423:19429   */\n      dup10\n        /* \"#utility.yul\":19419:19436   */\n      and\n        /* \"#utility.yul\":19408:19417   */\n      dup3\n        /* \"#utility.yul\":19389:19437   */\n      tag_362\n      jump\t// in\n    tag_580:\n        /* \"#utility.yul\":19381:19387   */\n      dup4\n        /* \"#utility.yul\":19374:19438   */\n      sstore\n        /* \"#utility.yul\":19296:19452   */\n      pop\n        /* \"#utility.yul\":19273:19452   */\n    tag_579:\n        /* \"#utility.yul\":19498:19499   */\n      0x01\n        /* \"#utility.yul\":19494:19495   */\n      0x02\n        /* \"#utility.yul\":19486:19492   */\n      dup9\n        /* \"#utility.yul\":19482:19496   */\n      mul\n        /* \"#utility.yul\":19478:19500   */\n      add\n        /* \"#utility.yul\":19472:19476   */\n      dup9\n        /* \"#utility.yul\":19465:19501   */\n      sstore\n        /* \"#utility.yul\":18900:19511   */\n      pop\n      pop\n      pop\n        /* \"#utility.yul\":18863:19750   */\n    tag_571:\n      pop\n        /* \"#utility.yul\":18453:19756   */\n      pop\n      pop\n      pop\n        /* \"#utility.yul\":18361:19756   */\n      pop\n      pop\n      jump\t// out\n        /* \"#utility.yul\":19762:20177   */\n    tag_151:\n        /* \"#utility.yul\":19899:19903   */\n      0x00\n        /* \"#utility.yul\":19937:19939   */\n      0x40\n        /* \"#utility.yul\":19926:19935   */\n      dup3\n        /* \"#utility.yul\":19922:19940   */\n      add\n        /* \"#utility.yul\":19914:19940   */\n      swap1\n      pop\n        /* \"#utility.yul\":19950:20017   */\n      tag_582\n        /* \"#utility.yul\":20014:20015   */\n      0x00\n        /* \"#utility.yul\":20003:20012   */\n      dup4\n        /* \"#utility.yul\":19999:20016   */\n      add\n        /* \"#utility.yul\":19990:19996   */\n      dup6\n        /* \"#utility.yul\":19950:20017   */\n      tag_341\n      jump\t// in\n    tag_582:\n        /* \"#utility.yul\":20064:20073   */\n      dup2\n        /* \"#utility.yul\":20058:20062   */\n      dup2\n        /* \"#utility.yul\":20054:20074   */\n      sub\n        /* \"#utility.yul\":20049:20051   */\n      0x20\n        /* \"#utility.yul\":20038:20047   */\n      dup4\n        /* \"#utility.yul\":20034:20052   */\n      add\n        /* \"#utility.yul\":20027:20075   */\n      mstore\n        /* \"#utility.yul\":20092:20170   */\n      tag_583\n        /* \"#utility.yul\":20165:20169   */\n      dup2\n        /* \"#utility.yul\":20156:20162   */\n      dup5\n        /* \"#utility.yul\":20092:20170   */\n      tag_320\n      jump\t// in\n    tag_583:\n        /* \"#utility.yul\":20084:20170   */\n      swap1\n      pop\n        /* \"#utility.yul\":19762:20177   */\n      swap4\n      swap3\n      pop\n      pop\n      pop\n      jump\t// out\n        /* \"#utility.yul\":20183:20363   */\n    tag_364:\n        /* \"#utility.yul\":20231:20308   */\n      0x4e487b7100000000000000000000000000000000000000000000000000000000\n        /* \"#utility.yul\":20228:20229   */\n      0x00\n        /* \"#utility.yul\":20221:20309   */\n      mstore\n        /* \"#utility.yul\":20328:20332   */\n      0x11\n        /* \"#utility.yul\":20325:20326   */\n      0x04\n        /* \"#utility.yul\":20318:20333   */\n      mstore\n        /* \"#utility.yul\":20352:20356   */\n      0x24\n        /* \"#utility.yul\":20349:20350   */\n      0x00\n        /* \"#utility.yul\":20342:20357   */\n      revert\n        /* \"#utility.yul\":20369:20536   */\n    tag_153:\n        /* \"#utility.yul\":20406:20409   */\n      0x00\n        /* \"#utility.yul\":20429:20451   */\n      tag_586\n        /* \"#utility.yul\":20445:20450   */\n      dup3\n        /* \"#utility.yul\":20429:20451   */\n      tag_310\n      jump\t// in\n    tag_586:\n        /* \"#utility.yul\":20420:20451   */\n      swap2\n      pop\n        /* \"#utility.yul\":20473:20477   */\n      0xff\n        /* \"#utility.yul\":20466:20471   */\n      dup3\n        /* \"#utility.yul\":20463:20478   */\n      sub\n        /* \"#utility.yul\":20460:20501   */\n      tag_587\n      jumpi\n        /* \"#utility.yul\":20481:20499   */\n      tag_588\n      tag_364\n      jump\t// in\n    tag_588:\n        /* \"#utility.yul\":20460:20501   */\n    tag_587:\n        /* \"#utility.yul\":20528:20529   */\n      0x01\n        /* \"#utility.yul\":20521:20526   */\n      dup3\n        /* \"#utility.yul\":20517:20530   */\n      add\n        /* \"#utility.yul\":20510:20530   */\n      swap1\n      pop\n        /* \"#utility.yul\":20369:20536   */\n      swap2\n      swap1\n      pop\n      jump\t// out\n        /* \"#utility.yul\":20542:20733   */\n    tag_155:\n        /* \"#utility.yul\":20580:20584   */\n      0x00\n        /* \"#utility.yul\":20600:20618   */\n      tag_590\n        /* \"#utility.yul\":20616:20617   */\n      dup3\n        /* \"#utility.yul\":20600:20618   */\n      tag_310\n      jump\t// in\n    tag_590:\n        /* \"#utility.yul\":20595:20618   */\n      swap2\n      pop\n        /* \"#utility.yul\":20632:20650   */\n      tag_591\n        /* \"#utility.yul\":20648:20649   */\n      dup4\n        /* \"#utility.yul\":20632:20650   */\n      tag_310\n      jump\t// in\n    tag_591:\n        /* \"#utility.yul\":20627:20650   */\n      swap3\n      pop\n        /* \"#utility.yul\":20674:20675   */\n      dup3\n        /* \"#utility.yul\":20671:20672   */\n      dup3\n        /* \"#utility.yul\":20667:20676   */\n      sub\n        /* \"#utility.yul\":20659:20676   */\n      swap1\n      pop\n        /* \"#utility.yul\":20698:20702   */\n      0xff\n        /* \"#utility.yul\":20692:20696   */\n      dup2\n        /* \"#utility.yul\":20689:20703   */\n      gt\n        /* \"#utility.yul\":20686:20726   */\n      iszero\n      tag_592\n      jumpi\n        /* \"#utility.yul\":20706:20724   */\n      tag_593\n      tag_364\n      jump\t// in\n    tag_593:\n        /* \"#utility.yul\":20686:20726   */\n    tag_592:\n        /* \"#utility.yul\":20542:20733   */\n      swap3\n      swap2\n      pop\n      pop\n      jump\t// out\n        /* \"#utility.yul\":20739:20917   */\n    tag_365:\n        /* \"#utility.yul\":20879:20909   */\n      0x5175616e746964616465206d6178696d61206465206a757261646f7300000000\n        /* \"#utility.yul\":20875:20876   */\n      0x00\n        /* \"#utility.yul\":20867:20873   */\n      dup3\n        /* \"#utility.yul\":20863:20877   */\n      add\n        /* \"#utility.yul\":20856:20910   */\n      mstore\n        /* \"#utility.yul\":20739:20917   */\n      pop\n      jump\t// out\n        /* \"#utility.yul\":20923:21289   */\n    tag_366:\n        /* \"#utility.yul\":21065:21068   */\n      0x00\n        /* \"#utility.yul\":21086:21153   */\n      tag_596\n        /* \"#utility.yul\":21150:21152   */\n      0x1c\n        /* \"#utility.yul\":21145:21148   */\n      dup4\n        /* \"#utility.yul\":21086:21153   */\n      tag_317\n      jump\t// in\n    tag_596:\n        /* \"#utility.yul\":21079:21153   */\n      swap2\n      pop\n        /* \"#utility.yul\":21162:21255   */\n      tag_597\n        /* \"#utility.yul\":21251:21254   */\n      dup3\n        /* \"#utility.yul\":21162:21255   */\n      tag_365\n      jump\t// in\n    tag_597:\n        /* \"#utility.yul\":21280:21282   */\n      0x20\n        /* \"#utility.yul\":21275:21278   */\n      dup3\n        /* \"#utility.yul\":21271:21283   */\n      add\n        /* \"#utility.yul\":21264:21283   */\n      swap1\n      pop\n        /* \"#utility.yul\":20923:21289   */\n      swap2\n      swap1\n      pop\n      jump\t// out\n        /* \"#utility.yul\":21295:21714   */\n    tag_174:\n        /* \"#utility.yul\":21461:21465   */\n      0x00\n        /* \"#utility.yul\":21499:21501   */\n      0x20\n        /* \"#utility.yul\":21488:21497   */\n      dup3\n        /* \"#utility.yul\":21484:21502   */\n      add\n        /* \"#utility.yul\":21476:21502   */\n      swap1\n      pop\n        /* \"#utility.yul\":21548:21557   */\n      dup2\n        /* \"#utility.yul\":21542:21546   */\n      dup2\n        /* \"#utility.yul\":21538:21558   */\n      sub\n        /* \"#utility.yul\":21534:21535   */\n      0x00\n        /* \"#utility.yul\":21523:21532   */\n      dup4\n        /* \"#utility.yul\":21519:21536   */\n      add\n        /* \"#utility.yul\":21512:21559   */\n      mstore\n        /* \"#utility.yul\":21576:21707   */\n      tag_599\n        /* \"#utility.yul\":21702:21706   */\n      dup2\n        /* \"#utility.yul\":21576:21707   */\n      tag_366\n      jump\t// in\n    tag_599:\n        /* \"#utility.yul\":21568:21707   */\n      swap1\n      pop\n        /* \"#utility.yul\":21295:21714   */\n      swap2\n      swap1\n      pop\n      jump\t// out\n        /* \"#utility.yul\":21720:21898   */\n    tag_367:\n        /* \"#utility.yul\":21860:21890   */\n      0x5175616e746964616465206d6178696d61206465206573636f6c617300000000\n        /* \"#utility.yul\":21856:21857   */\n      0x00\n        /* \"#utility.yul\":21848:21854   */\n      dup3\n        /* \"#utility.yul\":21844:21858   */\n      add\n        /* \"#utility.yul\":21837:21891   */\n      mstore\n        /* \"#utility.yul\":21720:21898   */\n      pop\n      jump\t// out\n        /* \"#utility.yul\":21904:22270   */\n    tag_368:\n        /* \"#utility.yul\":22046:22049   */\n      0x00\n        /* \"#utility.yul\":22067:22134   */\n      tag_602\n        /* \"#utility.yul\":22131:22133   */\n      0x1c\n        /* \"#utility.yul\":22126:22129   */\n      dup4\n        /* \"#utility.yul\":22067:22134   */\n      tag_317\n      jump\t// in\n    tag_602:\n        /* \"#utility.yul\":22060:22134   */\n      swap2\n      pop\n        /* \"#utility.yul\":22143:22236   */\n      tag_603\n        /* \"#utility.yul\":22232:22235   */\n      dup3\n        /* \"#utility.yul\":22143:22236   */\n      tag_367\n      jump\t// in\n    tag_603:\n        /* \"#utility.yul\":22261:22263   */\n      0x20\n        /* \"#utility.yul\":22256:22259   */\n      dup3\n        /* \"#utility.yul\":22252:22264   */\n      add\n        /* \"#utility.yul\":22245:22264   */\n      swap1\n      pop\n        /* \"#utility.yul\":21904:22270   */\n      swap2\n      swap1\n      pop\n      jump\t// out\n        /* \"#utility.yul\":22276:22695   */\n    tag_197:\n        /* \"#utility.yul\":22442:22446   */\n      0x00\n        /* \"#utility.yul\":22480:22482   */\n      0x20\n        /* \"#utility.yul\":22469:22478   */\n      dup3\n        /* \"#utility.yul\":22465:22483   */\n      add\n        /* \"#utility.yul\":22457:22483   */\n      swap1\n      pop\n        /* \"#utility.yul\":22529:22538   */\n      dup2\n        /* \"#utility.yul\":22523:22527   */\n      dup2\n        /* \"#utility.yul\":22519:22539   */\n      sub\n        /* \"#utility.yul\":22515:22516   */\n      0x00\n        /* \"#utility.yul\":22504:22513   */\n      dup4\n        /* \"#utility.yul\":22500:22517   */\n      add\n        /* \"#utility.yul\":22493:22540   */\n      mstore\n        /* \"#utility.yul\":22557:22688   */\n      tag_605\n        /* \"#utility.yul\":22683:22687   */\n      dup2\n        /* \"#utility.yul\":22557:22688   */\n      tag_368\n      jump\t// in\n    tag_605:\n        /* \"#utility.yul\":22549:22688   */\n      swap1\n      pop\n        /* \"#utility.yul\":22276:22695   */\n      swap2\n      swap1\n      pop\n      jump\t// out\n        /* \"#utility.yul\":22701:22839   */\n    tag_369:\n        /* \"#utility.yul\":22749:22758   */\n      0x00\n        /* \"#utility.yul\":22782:22833   */\n      tag_607\n        /* \"#utility.yul\":22800:22832   */\n      tag_608\n        /* \"#utility.yul\":22809:22831   */\n      tag_609\n        /* \"#utility.yul\":22825:22830   */\n      dup5\n        /* \"#utility.yul\":22809:22831   */\n      tag_310\n      jump\t// in\n    tag_609:\n        /* \"#utility.yul\":22800:22832   */\n      tag_353\n      jump\t// in\n    tag_608:\n        /* \"#utility.yul\":22782:22833   */\n      tag_325\n      jump\t// in\n    tag_607:\n        /* \"#utility.yul\":22769:22833   */\n      swap1\n      pop\n        /* \"#utility.yul\":22701:22839   */\n      swap2\n      swap1\n      pop\n      jump\t// out\n        /* \"#utility.yul\":22845:22972   */\n    tag_370:\n        /* \"#utility.yul\":22930:22965   */\n      tag_611\n        /* \"#utility.yul\":22959:22964   */\n      dup2\n        /* \"#utility.yul\":22930:22965   */\n      tag_369\n      jump\t// in\n    tag_611:\n        /* \"#utility.yul\":22925:22928   */\n      dup3\n        /* \"#utility.yul\":22918:22966   */\n      mstore\n        /* \"#utility.yul\":22845:22972   */\n      pop\n      pop\n      jump\t// out\n        /* \"#utility.yul\":22978:23397   */\n    tag_203:\n        /* \"#utility.yul\":23117:23121   */\n      0x00\n        /* \"#utility.yul\":23155:23157   */\n      0x40\n        /* \"#utility.yul\":23144:23153   */\n      dup3\n        /* \"#utility.yul\":23140:23158   */\n      add\n        /* \"#utility.yul\":23132:23158   */\n      swap1\n      pop\n        /* \"#utility.yul\":23168:23237   */\n      tag_613\n        /* \"#utility.yul\":23234:23235   */\n      0x00\n        /* \"#utility.yul\":23223:23232   */\n      dup4\n        /* \"#utility.yul\":23219:23236   */\n      add\n        /* \"#utility.yul\":23210:23216   */\n      dup6\n        /* \"#utility.yul\":23168:23237   */\n      tag_370\n      jump\t// in\n    tag_613:\n        /* \"#utility.yul\":23284:23293   */\n      dup2\n        /* \"#utility.yul\":23278:23282   */\n      dup2\n        /* \"#utility.yul\":23274:23294   */\n      sub\n        /* \"#utility.yul\":23269:23271   */\n      0x20\n        /* \"#utility.yul\":23258:23267   */\n      dup4\n        /* \"#utility.yul\":23254:23272   */\n      add\n        /* \"#utility.yul\":23247:23295   */\n      mstore\n        /* \"#utility.yul\":23312:23390   */\n      tag_614\n        /* \"#utility.yul\":23385:23389   */\n      dup2\n        /* \"#utility.yul\":23376:23382   */\n      dup5\n        /* \"#utility.yul\":23312:23390   */\n      tag_320\n      jump\t// in\n    tag_614:\n        /* \"#utility.yul\":23304:23390   */\n      swap1\n      pop\n        /* \"#utility.yul\":22978:23397   */\n      swap4\n      swap3\n      pop\n      pop\n      pop\n      jump\t// out\n        /* \"#utility.yul\":23403:23845   */\n    tag_252:\n        /* \"#utility.yul\":23552:23556   */\n      0x00\n        /* \"#utility.yul\":23590:23592   */\n      0x60\n        /* \"#utility.yul\":23579:23588   */\n      dup3\n        /* \"#utility.yul\":23575:23593   */\n      add\n        /* \"#utility.yul\":23567:23593   */\n      swap1\n      pop\n        /* \"#utility.yul\":23603:23674   */\n      tag_616\n        /* \"#utility.yul\":23671:23672   */\n      0x00\n        /* \"#utility.yul\":23660:23669   */\n      dup4\n        /* \"#utility.yul\":23656:23673   */\n      add\n        /* \"#utility.yul\":23647:23653   */\n      dup7\n        /* \"#utility.yul\":23603:23674   */\n      tag_340\n      jump\t// in\n    tag_616:\n        /* \"#utility.yul\":23684:23756   */\n      tag_617\n        /* \"#utility.yul\":23752:23754   */\n      0x20\n        /* \"#utility.yul\":23741:23750   */\n      dup4\n        /* \"#utility.yul\":23737:23755   */\n      add\n        /* \"#utility.yul\":23728:23734   */\n      dup6\n        /* \"#utility.yul\":23684:23756   */\n      tag_339\n      jump\t// in\n    tag_617:\n        /* \"#utility.yul\":23766:23838   */\n      tag_618\n        /* \"#utility.yul\":23834:23836   */\n      0x40\n        /* \"#utility.yul\":23823:23832   */\n      dup4\n        /* \"#utility.yul\":23819:23837   */\n      add\n        /* \"#utility.yul\":23810:23816   */\n      dup5\n        /* \"#utility.yul\":23766:23838   */\n      tag_339\n      jump\t// in\n    tag_618:\n        /* \"#utility.yul\":23403:23845   */\n      swap5\n      swap4\n      pop\n      pop\n      pop\n      pop\n      jump\t// out\n        /* \"#utility.yul\":23851:24073   */\n    tag_257:\n        /* \"#utility.yul\":23944:23948   */\n      0x00\n        /* \"#utility.yul\":23982:23984   */\n      0x20\n        /* \"#utility.yul\":23971:23980   */\n      dup3\n        /* \"#utility.yul\":23967:23985   */\n      add\n        /* \"#utility.yul\":23959:23985   */\n      swap1\n      pop\n        /* \"#utility.yul\":23995:24066   */\n      tag_620\n        /* \"#utility.yul\":24063:24064   */\n      0x00\n        /* \"#utility.yul\":24052:24061   */\n      dup4\n        /* \"#utility.yul\":24048:24065   */\n      add\n        /* \"#utility.yul\":24039:24045   */\n      dup5\n        /* \"#utility.yul\":23995:24066   */\n      tag_340\n      jump\t// in\n    tag_620:\n        /* \"#utility.yul\":23851:24073   */\n      swap3\n      swap2\n      pop\n      pop\n      jump\t// out\n        /* \"#utility.yul\":24079:24270   */\n    tag_272:\n        /* \"#utility.yul\":24119:24122   */\n      0x00\n        /* \"#utility.yul\":24138:24158   */\n      tag_622\n        /* \"#utility.yul\":24156:24157   */\n      dup3\n        /* \"#utility.yul\":24138:24158   */\n      tag_325\n      jump\t// in\n    tag_622:\n        /* \"#utility.yul\":24133:24158   */\n      swap2\n      pop\n        /* \"#utility.yul\":24172:24192   */\n      tag_623\n        /* \"#utility.yul\":24190:24191   */\n      dup4\n        /* \"#utility.yul\":24172:24192   */\n      tag_325\n      jump\t// in\n    tag_623:\n        /* \"#utility.yul\":24167:24192   */\n      swap3\n      pop\n        /* \"#utility.yul\":24215:24216   */\n      dup3\n        /* \"#utility.yul\":24212:24213   */\n      dup3\n        /* \"#utility.yul\":24208:24217   */\n      add\n        /* \"#utility.yul\":24201:24217   */\n      swap1\n      pop\n        /* \"#utility.yul\":24236:24239   */\n      dup1\n        /* \"#utility.yul\":24233:24234   */\n      dup3\n        /* \"#utility.yul\":24230:24240   */\n      gt\n        /* \"#utility.yul\":24227:24263   */\n      iszero\n      tag_624\n      jumpi\n        /* \"#utility.yul\":24243:24261   */\n      tag_625\n      tag_364\n      jump\t// in\n    tag_625:\n        /* \"#utility.yul\":24227:24263   */\n    tag_624:\n        /* \"#utility.yul\":24079:24270   */\n      swap3\n      swap2\n      pop\n      pop\n      jump\t// out\n\n    auxdata: 0xa2646970667358221220a9d2d1f46dde67ceb07ebbe5b85afb6cf93316fadfb60957f14a512ccad9afd864736f6c634300081c0033\n}\n",
				"bytecode": {
					"linkReferences": {},
					"object": "60806040525f60805f6101000a81548160ff021916908360ff1602179055505f608060016101000a81548160ff021916908360ff1602179055505f608060026101000a81548160ff021916908360ff16021790555034801561005f575f5ffd5b506040518060400160405280600e81526020017f4361726e6176616c53636f7265730000000000000000000000000000000000008152506040518060400160405280600381526020017f434353000000000000000000000000000000000000000000000000000000000081525081600390816100db9190610330565b5080600490816100eb9190610330565b5050506103ff565b5f81519050919050565b7f4e487b71000000000000000000000000000000000000000000000000000000005f52604160045260245ffd5b7f4e487b71000000000000000000000000000000000000000000000000000000005f52602260045260245ffd5b5f600282049050600182168061016e57607f821691505b6020821081036101815761018061012a565b5b50919050565b5f819050815f5260205f209050919050565b5f6020601f8301049050919050565b5f82821b905092915050565b5f600883026101e37fffffffffffffffffffffffffffffffffffffffffffffffffffffffffffffffff826101a8565b6101ed86836101a8565b95508019841693508086168417925050509392505050565b5f819050919050565b5f819050919050565b5f61023161022c61022784610205565b61020e565b610205565b9050919050565b5f819050919050565b61024a83610217565b61025e61025682610238565b8484546101b4565b825550505050565b5f5f905090565b610275610266565b610280818484610241565b505050565b5b818110156102a3576102985f8261026d565b600181019050610286565b5050565b601f8211156102e8576102b981610187565b6102c284610199565b810160208510156102d1578190505b6102e56102dd85610199565b830182610285565b50505b505050565b5f82821c905092915050565b5f6103085f19846008026102ed565b1980831691505092915050565b5f61032083836102f9565b9150826002028217905092915050565b610339826100f3565b67ffffffffffffffff811115610352576103516100fd565b5b61035c8254610157565b6103678282856102a7565b5f60209050601f831160018114610398575f8415610386578287015190505b6103908582610315565b8655506103f7565b601f1984166103a686610187565b5f5b828110156103cd578489015182556001820191506020850194506020810190506103a8565b868310156103ea57848901516103e6601f8916826102f9565b8355505b6001600288020188555050505b505050505050565b61278b8061040c5f395ff3fe608060405234801561000f575f5ffd5b5060043610610135575f3560e01c806366885744116100b6578063bb7b36711161007a578063bb7b3671146103b4578063d3dea54d146103e4578063dd62ed3e14610415578063e2eae4db14610445578063e49a39dc14610476578063eb75e0b81461048057610135565b806366885744146102d357806370a082311461030357806395d89b4114610333578063a9059cbb14610351578063a916b9871461038157610135565b806318160ddd116100fd57806318160ddd146102065780631f12a0151461022457806323b872dd14610255578063313ce567146102855780633bdff5ba146102a357610135565b80630350173f1461013957806306fdde0314610155578063095ea7b314610173578063140b24f5146101a3578063162f17a9146101d3575b5f5ffd5b610153600480360381019061014e9190611b4d565b6104b1565b005b61015d61073b565b60405161016a9190611c0d565b60405180910390f35b61018d60048036038101906101889190611cba565b6107cb565b60405161019a9190611d12565b60405180910390f35b6101bd60048036038101906101b89190611e57565b6107ed565b6040516101ca9190611ead565b60405180910390f35b6101ed60048036038101906101e89190611ec6565b61095e565b6040516101fd9493929190611f00565b60405180910390f35b61020e6109b8565b60405161021b9190611ead565b60405180910390f35b61023e60048036038101906102399190611f43565b6109c1565b60405161024c929190611f6e565b60405180910390f35b61026f600480360381019061026a9190611f9c565b610a86565b60405161027c9190611d12565b60405180910390f35b61028d610ab4565b60405161029a9190611ffb565b60405180910390f35b6102bd60048036038101906102b89190611e57565b610abc565b6040516102ca9190611ead565b60405180910390f35b6102ed60048036038101906102e89190612014565b610d34565b6040516102fa9190611ead565b60405180910390f35b61031d60048036038101906103189190611f43565b610d66565b60405161032a9190611ead565b60405180910390f35b61033b610dab565b6040516103489190611c0d565b60405180910390f35b61036b60048036038101906103669190611cba565b610e3b565b6040516103789190611d12565b60405180910390f35b61039b60048036038101906103969190612014565b610e5d565b6040516103ab9493929190611f00565b60405180910390f35b6103ce60048036038101906103c99190611e57565b610eb3565b6040516103db9190611ead565b60405180910390f35b6103fe60048036038101906103f99190611ec6565b611024565b60405161040c929190612052565b60405180910390f35b61042f600480360381019061042a9190612080565b6110d1565b60405161043c9190611ead565b60405180910390f35b61045f600480360381019061045a9190611ec6565b611153565b60405161046d929190611f6e565b60405180910390f35b61047e61121f565b005b61049a60048036038101906104959190611ec6565b6112f0565b6040516104a8929190612052565b60405180910390f35b3373ffffffffffffffffffffffffffffffffffffffff16607e5f3373ffffffffffffffffffffffffffffffffffffffff1673ffffffffffffffffffffffffffffffffffffffff1681526020019081526020015f205f015f9054906101000a900473ffffffffffffffffffffffffffffffffffffffff1673ffffffffffffffffffffffffffffffffffffffff161461057d576040517f08c379a000000000000000000000000000000000000000000000000000000000815260040161057490612108565b60405180910390fd5b6103848161ffff161015801561059957506103e88161ffff1611155b6105d8576040517f08c379a00000000000000000000000000000000000000000000000000000000081526004016105cf90612170565b60405180910390fd5b5f60405180608001604052808560ff1681526020018460ff1681526020013373ffffffffffffffffffffffffffffffffffffffff1681526020018361ffff168152509050607d81908060018154018082558091505060019003905f5260205f2090600402015f909190919091505f820151815f0155602082015181600101556040820151816002015f6101000a81548173ffffffffffffffffffffffffffffffffffffffff021916908373ffffffffffffffffffffffffffffffffffffffff16021790555060608201518160030155505080607f5f8660ff1681526020019081526020015f205f8560ff1681526020019081526020015f205f820151815f0155602082015181600101556040820151816002015f6101000a81548173ffffffffffffffffffffffffffffffffffffffff021916908373ffffffffffffffffffffffffffffffffffffffff1602179055506060820151816003015590505050505050565b60606003805461074a906121bb565b80601f0160208091040260200160405190810160405280929190818152602001828054610776906121bb565b80156107c15780601f10610798576101008083540402835291602001916107c1565b820191905f5260205f20905b8154815290600101906020018083116107a457829003601f168201915b5050505050905090565b5f5f6107d561139d565b90506107e28185856113a4565b600191505092915050565b5f600960ff16608060029054906101000a900460ff1660ff1610610846576040517f08c379a000000000000000000000000000000000000000000000000000000000815260040161083d90612235565b60405180910390fd5b6040518060400160405280608060029054906101000a900460ff1660ff16815260200183815250606b608060029054906101000a900460ff1660ff166009811061089357610892612253565b5b600202015f820151815f015560208201518160010190816108b49190612420565b509050507fabb741f082d0e258d6001cf83d689c372fab57c59d4eae923999f75f5ecfad7e608060029054906101000a900460ff16836040516108f89291906124ef565b60405180910390a16080600281819054906101000a900460ff168092919061091f9061254a565b91906101000a81548160ff021916908360ff160217905550506001608060029054906101000a900460ff166109549190612572565b60ff169050919050565b607d818154811061096d575f80fd5b905f5260205f2090600402015f91509050805f015490806001015490806002015f9054906101000a900473ffffffffffffffffffffffffffffffffffffffff16908060030154905084565b5f600254905090565b607e602052805f5260405f205f91509050805f015f9054906101000a900473ffffffffffffffffffffffffffffffffffffffff1690806001018054610a05906121bb565b80601f0160208091040260200160405190810160405280929190818152602001828054610a31906121bb565b8015610a7c5780601f10610a5357610100808354040283529160200191610a7c565b820191905f5260205f20905b815481529060010190602001808311610a5f57829003601f168201915b5050505050905082565b5f5f610a9061139d565b9050610a9d8582856113b6565b610aa8858585611448565b60019150509392505050565b5f6012905090565b5f602460ff1660805f9054906101000a900460ff1660ff1610610b14576040517f08c379a0000000000000000000000000000000000000000000000000000000008152600401610b0b906125f0565b60405180910390fd5b60405180604001604052803373ffffffffffffffffffffffffffffffffffffffff16815260200183815250607e5f3373ffffffffffffffffffffffffffffffffffffffff1673ffffffffffffffffffffffffffffffffffffffff1681526020019081526020015f205f820151815f015f6101000a81548173ffffffffffffffffffffffffffffffffffffffff021916908373ffffffffffffffffffffffffffffffffffffffff1602179055506020820151816001019081610bd59190612420565b5090505060405180604001604052803373ffffffffffffffffffffffffffffffffffffffff16815260200183815250600560805f9054906101000a900460ff1660ff1660248110610c2957610c28612253565b5b600202015f820151815f015f6101000a81548173ffffffffffffffffffffffffffffffffffffffff021916908373ffffffffffffffffffffffffffffffffffffffff1602179055506020820151816001019081610c869190612420565b5090505060805f81819054906101000a900460ff1680929190610ca89061254a565b91906101000a81548160ff021916908360ff160217905550503373ffffffffffffffffffffffffffffffffffffffff167fa1fb37ecddd4c220fd008a54a22fb96ce4db7248e0f4987e445259dc6e55188b83604051610d079190611c0d565b60405180910390a2600160805f9054906101000a900460ff16610d2a9190612572565b60ff169050919050565b5f5f607f5f8581526020019081526020015f205f8481526020019081526020015f209050806003015491505092915050565b5f5f5f8373ffffffffffffffffffffffffffffffffffffffff1673ffffffffffffffffffffffffffffffffffffffff1681526020019081526020015f20549050919050565b606060048054610dba906121bb565b80601f0160208091040260200160405190810160405280929190818152602001828054610de6906121bb565b8015610e315780601f10610e0857610100808354040283529160200191610e31565b820191905f5260205f20905b815481529060010190602001808311610e1457829003601f168201915b5050505050905090565b5f5f610e4561139d565b9050610e52818585611448565b600191505092915050565b607f602052815f5260405f20602052805f5260405f205f9150915050805f015490806001015490806002015f9054906101000a900473ffffffffffffffffffffffffffffffffffffffff16908060030154905084565b5f600f60ff16608060019054906101000a900460ff1660ff1610610f0c576040517f08c379a0000000000000000000000000000000000000000000000000000000008152600401610f0390612658565b60405180910390fd5b6040518060400160405280608060019054906101000a900460ff1660ff16815260200183815250604d608060019054906101000a900460ff1660ff16600f8110610f5957610f58612253565b5b600202015f820151815f01556020820151816001019081610f7a9190612420565b509050507f9f427c381dccc81dd341800d0c9110ab44cf34bfd696503341d2a57ab3f85d88608060019054906101000a900460ff1683604051610fbe9291906126a6565b60405180910390a16080600181819054906101000a900460ff1680929190610fe59061254a565b91906101000a81548160ff021916908360ff160217905550506001608060019054906101000a900460ff1661101a9190612572565b60ff169050919050565b604d81600f8110611033575f80fd5b600202015f91509050805f015490806001018054611050906121bb565b80601f016020809104026020016040519081016040528092919081815260200182805461107c906121bb565b80156110c75780601f1061109e576101008083540402835291602001916110c7565b820191905f5260205f20905b8154815290600101906020018083116110aa57829003601f168201915b5050505050905082565b5f60015f8473ffffffffffffffffffffffffffffffffffffffff1673ffffffffffffffffffffffffffffffffffffffff1681526020019081526020015f205f8373ffffffffffffffffffffffffffffffffffffffff1673ffffffffffffffffffffffffffffffffffffffff1681526020019081526020015f2054905092915050565b60058160248110611162575f80fd5b600202015f91509050805f015f9054906101000a900473ffffffffffffffffffffffffffffffffffffffff169080600101805461119e906121bb565b80601f01602080910402602001604051908101604052809291908181526020018280546111ca906121bb565b80156112155780601f106111ec57610100808354040283529160200191611215565b820191905f5260205f20905b8154815290600101906020018083116111f857829003601f168201915b5050505050905082565b60055f61122c9190611920565b604d5f6112399190611936565b606b5f611246919061194c565b607d5f6112539190611962565b5f5f90505b600f60ff168110156112ed575f5f90505b600960ff168110156112df57607f5f8381526020019081526020015f205f8281526020019081526020015f205f5f82015f9055600182015f9055600282015f6101000a81549073ffffffffffffffffffffffffffffffffffffffff0219169055600382015f905550508080600101915050611269565b508080600101915050611258565b50565b606b81600981106112ff575f80fd5b600202015f91509050805f01549080600101805461131c906121bb565b80601f0160208091040260200160405190810160405280929190818152602001828054611348906121bb565b80156113935780601f1061136a57610100808354040283529160200191611393565b820191905f5260205f20905b81548152906001019060200180831161137657829003601f168201915b5050505050905082565b5f33905090565b6113b18383836001611538565b505050565b5f6113c184846110d1565b90507fffffffffffffffffffffffffffffffffffffffffffffffffffffffffffffffff81146114425781811015611433578281836040517ffb8f41b200000000000000000000000000000000000000000000000000000000815260040161142a939291906126d4565b60405180910390fd5b61144184848484035f611538565b5b50505050565b5f73ffffffffffffffffffffffffffffffffffffffff168373ffffffffffffffffffffffffffffffffffffffff16036114b8575f6040517f96c6fd1e0000000000000000000000000000000000000000000000000000000081526004016114af9190612709565b60405180910390fd5b5f73ffffffffffffffffffffffffffffffffffffffff168273ffffffffffffffffffffffffffffffffffffffff1603611528575f6040517fec442f0500000000000000000000000000000000000000000000000000000000815260040161151f9190612709565b60405180910390fd5b611533838383611707565b505050565b5f73ffffffffffffffffffffffffffffffffffffffff168473ffffffffffffffffffffffffffffffffffffffff16036115a8575f6040517fe602df0500000000000000000000000000000000000000000000000000000000815260040161159f9190612709565b60405180910390fd5b5f73ffffffffffffffffffffffffffffffffffffffff168373ffffffffffffffffffffffffffffffffffffffff1603611618575f6040517f94280d6200000000000000000000000000000000000000000000000000000000815260040161160f9190612709565b60405180910390fd5b8160015f8673ffffffffffffffffffffffffffffffffffffffff1673ffffffffffffffffffffffffffffffffffffffff1681526020019081526020015f205f8573ffffffffffffffffffffffffffffffffffffffff1673ffffffffffffffffffffffffffffffffffffffff1681526020019081526020015f20819055508015611701578273ffffffffffffffffffffffffffffffffffffffff168473ffffffffffffffffffffffffffffffffffffffff167f8c5be1e5ebec7d5bd14f71427d1e84f3dd0314c0f7b2291e5b200ac8c7c3b925846040516116f89190611ead565b60405180910390a35b50505050565b5f73ffffffffffffffffffffffffffffffffffffffff168373ffffffffffffffffffffffffffffffffffffffff1603611757578060025f82825461174b9190612722565b92505081905550611825565b5f5f5f8573ffffffffffffffffffffffffffffffffffffffff1673ffffffffffffffffffffffffffffffffffffffff1681526020019081526020015f20549050818110156117e0578381836040517fe450d38c0000000000000000000000000000000000000000000000000000000081526004016117d7939291906126d4565b60405180910390fd5b8181035f5f8673ffffffffffffffffffffffffffffffffffffffff1673ffffffffffffffffffffffffffffffffffffffff1681526020019081526020015f2081905550505b5f73ffffffffffffffffffffffffffffffffffffffff168273ffffffffffffffffffffffffffffffffffffffff160361186c578060025f82825403925050819055506118b6565b805f5f8473ffffffffffffffffffffffffffffffffffffffff1673ffffffffffffffffffffffffffffffffffffffff1681526020019081526020015f205f82825401925050819055505b8173ffffffffffffffffffffffffffffffffffffffff168373ffffffffffffffffffffffffffffffffffffffff167fddf252ad1be2c89b69c2b068fc378daa952ba7f163c4a11628f55a4df523b3ef836040516119139190611ead565b60405180910390a3505050565b5080602460020201906119339190611983565b50565b5080600f600202019061194991906119ce565b50565b50806009600202019061195f91906119fa565b50565b5080545f8255600402905f5260205f20908101906119809190611a26565b50565b5b808211156119ca575f5f82015f6101000a81549073ffffffffffffffffffffffffffffffffffffffff0219169055600182015f6119c19190611a77565b50600201611984565b5090565b5b808211156119f6575f5f82015f9055600182015f6119ed9190611a77565b506002016119cf565b5090565b5b80821115611a22575f5f82015f9055600182015f611a199190611a77565b506002016119fb565b5090565b5b80821115611a73575f5f82015f9055600182015f9055600282015f6101000a81549073ffffffffffffffffffffffffffffffffffffffff0219169055600382015f905550600401611a27565b5090565b508054611a83906121bb565b5f825580601f10611a945750611ab1565b601f0160209004905f5260205f2090810190611ab09190611ab4565b5b50565b5b80821115611acb575f815f905550600101611ab5565b5090565b5f604051905090565b5f5ffd5b5f5ffd5b5f60ff82169050919050565b611af581611ae0565b8114611aff575f5ffd5b50565b5f81359050611b1081611aec565b92915050565b5f61ffff82169050919050565b611b2c81611b16565b8114611b36575f5ffd5b50565b5f81359050611b4781611b23565b92915050565b5f5f5f60608486031215611b6457611b63611ad8565b5b5f611b7186828701611b02565b9350506020611b8286828701611b02565b9250506040611b9386828701611b39565b9150509250925092565b5f81519050919050565b5f82825260208201905092915050565b8281835e5f83830152505050565b5f601f19601f8301169050919050565b5f611bdf82611b9d565b611be98185611ba7565b9350611bf9818560208601611bb7565b611c0281611bc5565b840191505092915050565b5f6020820190508181035f830152611c258184611bd5565b905092915050565b5f73ffffffffffffffffffffffffffffffffffffffff82169050919050565b5f611c5682611c2d565b9050919050565b611c6681611c4c565b8114611c70575f5ffd5b50565b5f81359050611c8181611c5d565b92915050565b5f819050919050565b611c9981611c87565b8114611ca3575f5ffd5b50565b5f81359050611cb481611c90565b92915050565b5f5f60408385031215611cd057611ccf611ad8565b5b5f611cdd85828601611c73565b9250506020611cee85828601611ca6565b9150509250929050565b5f8115159050919050565b611d0c81611cf8565b82525050565b5f602082019050611d255f830184611d03565b92915050565b5f5ffd5b5f5ffd5b7f4e487b71000000000000000000000000000000000000000000000000000000005f52604160045260245ffd5b611d6982611bc5565b810181811067ffffffffffffffff82111715611d8857611d87611d33565b5b80604052505050565b5f611d9a611acf565b9050611da68282611d60565b919050565b5f67ffffffffffffffff821115611dc557611dc4611d33565b5b611dce82611bc5565b9050602081019050919050565b828183375f83830152505050565b5f611dfb611df684611dab565b611d91565b905082815260208101848484011115611e1757611e16611d2f565b5b611e22848285611ddb565b509392505050565b5f82601f830112611e3e57611e3d611d2b565b5b8135611e4e848260208601611de9565b91505092915050565b5f60208284031215611e6c57611e6b611ad8565b5b5f82013567ffffffffffffffff811115611e8957611e88611adc565b5b611e9584828501611e2a565b91505092915050565b611ea781611c87565b82525050565b5f602082019050611ec05f830184611e9e565b92915050565b5f60208284031215611edb57611eda611ad8565b5b5f611ee884828501611ca6565b91505092915050565b611efa81611c4c565b82525050565b5f608082019050611f135f830187611e9e565b611f206020830186611e9e565b611f2d6040830185611ef1565b611f3a6060830184611e9e565b95945050505050565b5f60208284031215611f5857611f57611ad8565b5b5f611f6584828501611c73565b91505092915050565b5f604082019050611f815f830185611ef1565b8181036020830152611f938184611bd5565b90509392505050565b5f5f5f60608486031215611fb357611fb2611ad8565b5b5f611fc086828701611c73565b9350506020611fd186828701611c73565b9250506040611fe286828701611ca6565b9150509250925092565b611ff581611ae0565b82525050565b5f60208201905061200e5f830184611fec565b92915050565b5f5f6040838503121561202a57612029611ad8565b5b5f61203785828601611ca6565b925050602061204885828601611ca6565b9150509250929050565b5f6040820190506120655f830185611e9e565b81810360208301526120778184611bd5565b90509392505050565b5f5f6040838503121561209657612095611ad8565b5b5f6120a385828601611c73565b92505060206120b485828601611c73565b9150509250929050565b7f536f6d656e7465206a757261646f7320706f64656d20726567697374726172005f82015250565b5f6120f2601f83611ba7565b91506120fd826120be565b602082019050919050565b5f6020820190508181035f83015261211f816120e6565b9050919050565b7f4e6f746120696d706f73736976656c00000000000000000000000000000000005f82015250565b5f61215a600f83611ba7565b915061216582612126565b602082019050919050565b5f6020820190508181035f8301526121878161214e565b9050919050565b7f4e487b71000000000000000000000000000000000000000000000000000000005f52602260045260245ffd5b5f60028204905060018216806121d257607f821691505b6020821081036121e5576121e461218e565b5b50919050565b7f5175616e746964616465206d6178696d61206465207175657369746f730000005f82015250565b5f61221f601d83611ba7565b915061222a826121eb565b602082019050919050565b5f6020820190508181035f83015261224c81612213565b9050919050565b7f4e487b71000000000000000000000000000000000000000000000000000000005f52603260045260245ffd5b5f819050815f5260205f209050919050565b5f6020601f8301049050919050565b5f82821b905092915050565b5f600883026122dc7fffffffffffffffffffffffffffffffffffffffffffffffffffffffffffffffff826122a1565b6122e686836122a1565b95508019841693508086168417925050509392505050565b5f819050919050565b5f61232161231c61231784611c87565b6122fe565b611c87565b9050919050565b5f819050919050565b61233a83612307565b61234e61234682612328565b8484546122ad565b825550505050565b5f5f905090565b612365612356565b612370818484612331565b505050565b5b81811015612393576123885f8261235d565b600181019050612376565b5050565b601f8211156123d8576123a981612280565b6123b284612292565b810160208510156123c1578190505b6123d56123cd85612292565b830182612375565b50505b505050565b5f82821c905092915050565b5f6123f85f19846008026123dd565b1980831691505092915050565b5f61241083836123e9565b9150826002028217905092915050565b61242982611b9d565b67ffffffffffffffff81111561244257612441611d33565b5b61244c82546121bb565b612457828285612397565b5f60209050601f831160018114612488575f8415612476578287015190505b6124808582612405565b8655506124e7565b601f19841661249686612280565b5f5b828110156124bd57848901518255600182019150602085019450602081019050612498565b868310156124da57848901516124d6601f8916826123e9565b8355505b6001600288020188555050505b505050505050565b5f6040820190506125025f830185611fec565b81810360208301526125148184611bd5565b90509392505050565b7f4e487b71000000000000000000000000000000000000000000000000000000005f52601160045260245ffd5b5f61255482611ae0565b915060ff82036125675761256661251d565b5b600182019050919050565b5f61257c82611ae0565b915061258783611ae0565b9250828203905060ff8111156125a05761259f61251d565b5b92915050565b7f5175616e746964616465206d6178696d61206465206a757261646f73000000005f82015250565b5f6125da601c83611ba7565b91506125e5826125a6565b602082019050919050565b5f6020820190508181035f830152612607816125ce565b9050919050565b7f5175616e746964616465206d6178696d61206465206573636f6c6173000000005f82015250565b5f612642601c83611ba7565b915061264d8261260e565b602082019050919050565b5f6020820190508181035f83015261266f81612636565b9050919050565b5f61269061268b61268684611ae0565b6122fe565b611c87565b9050919050565b6126a081612676565b82525050565b5f6040820190506126b95f830185612697565b81810360208301526126cb8184611bd5565b90509392505050565b5f6060820190506126e75f830186611ef1565b6126f46020830185611e9e565b6127016040830184611e9e565b949350505050565b5f60208201905061271c5f830184611ef1565b92915050565b5f61272c82611c87565b915061273783611c87565b925082820190508082111561274f5761274e61251d565b5b9291505056fea2646970667358221220a9d2d1f46dde67ceb07ebbe5b85afb6cf93316fadfb60957f14a512ccad9afd864736f6c634300081c0033",
					"opcodes": "PUSH1 0x80 PUSH1 0x40 MSTORE PUSH0 PUSH1 0x80 PUSH0 PUSH2 0x100 EXP DUP2 SLOAD DUP2 PUSH1 0xFF MUL NOT AND SWAP1 DUP4 PUSH1 0xFF AND MUL OR SWAP1 SSTORE POP PUSH0 PUSH1 0x80 PUSH1 0x1 PUSH2 0x100 EXP DUP2 SLOAD DUP2 PUSH1 0xFF MUL NOT AND SWAP1 DUP4 PUSH1 0xFF AND MUL OR SWAP1 SSTORE POP PUSH0 PUSH1 0x80 PUSH1 0x2 PUSH2 0x100 EXP DUP2 SLOAD DUP2 PUSH1 0xFF MUL NOT AND SWAP1 DUP4 PUSH1 0xFF AND MUL OR SWAP1 SSTORE POP CALLVALUE DUP1 ISZERO PUSH2 0x5F JUMPI PUSH0 PUSH0 REVERT JUMPDEST POP PUSH1 0x40 MLOAD DUP1 PUSH1 0x40 ADD PUSH1 0x40 MSTORE DUP1 PUSH1 0xE DUP2 MSTORE PUSH1 0x20 ADD PUSH32 0x4361726E6176616C53636F726573000000000000000000000000000000000000 DUP2 MSTORE POP PUSH1 0x40 MLOAD DUP1 PUSH1 0x40 ADD PUSH1 0x40 MSTORE DUP1 PUSH1 0x3 DUP2 MSTORE PUSH1 0x20 ADD PUSH32 0x4343530000000000000000000000000000000000000000000000000000000000 DUP2 MSTORE POP DUP2 PUSH1 0x3 SWAP1 DUP2 PUSH2 0xDB SWAP2 SWAP1 PUSH2 0x330 JUMP JUMPDEST POP DUP1 PUSH1 0x4 SWAP1 DUP2 PUSH2 0xEB SWAP2 SWAP1 PUSH2 0x330 JUMP JUMPDEST POP POP POP PUSH2 0x3FF JUMP JUMPDEST PUSH0 DUP2 MLOAD SWAP1 POP SWAP2 SWAP1 POP JUMP JUMPDEST PUSH32 0x4E487B7100000000000000000000000000000000000000000000000000000000 PUSH0 MSTORE PUSH1 0x41 PUSH1 0x4 MSTORE PUSH1 0x24 PUSH0 REVERT JUMPDEST PUSH32 0x4E487B7100000000000000000000000000000000000000000000000000000000 PUSH0 MSTORE PUSH1 0x22 PUSH1 0x4 MSTORE PUSH1 0x24 PUSH0 REVERT JUMPDEST PUSH0 PUSH1 0x2 DUP3 DIV SWAP1 POP PUSH1 0x1 DUP3 AND DUP1 PUSH2 0x16E JUMPI PUSH1 0x7F DUP3 AND SWAP2 POP JUMPDEST PUSH1 0x20 DUP3 LT DUP2 SUB PUSH2 0x181 JUMPI PUSH2 0x180 PUSH2 0x12A JUMP JUMPDEST JUMPDEST POP SWAP2 SWAP1 POP JUMP JUMPDEST PUSH0 DUP2 SWAP1 POP DUP2 PUSH0 MSTORE PUSH1 0x20 PUSH0 KECCAK256 SWAP1 POP SWAP2 SWAP1 POP JUMP JUMPDEST PUSH0 PUSH1 0x20 PUSH1 0x1F DUP4 ADD DIV SWAP1 POP SWAP2 SWAP1 POP JUMP JUMPDEST PUSH0 DUP3 DUP3 SHL SWAP1 POP SWAP3 SWAP2 POP POP JUMP JUMPDEST PUSH0 PUSH1 0x8 DUP4 MUL PUSH2 0x1E3 PUSH32 0xFFFFFFFFFFFFFFFFFFFFFFFFFFFFFFFFFFFFFFFFFFFFFFFFFFFFFFFFFFFFFFFF DUP3 PUSH2 0x1A8 JUMP JUMPDEST PUSH2 0x1ED DUP7 DUP4 PUSH2 0x1A8 JUMP JUMPDEST SWAP6 POP DUP1 NOT DUP5 AND SWAP4 POP DUP1 DUP7 AND DUP5 OR SWAP3 POP POP POP SWAP4 SWAP3 POP POP POP JUMP JUMPDEST PUSH0 DUP2 SWAP1 POP SWAP2 SWAP1 POP JUMP JUMPDEST PUSH0 DUP2 SWAP1 POP SWAP2 SWAP1 POP JUMP JUMPDEST PUSH0 PUSH2 0x231 PUSH2 0x22C PUSH2 0x227 DUP5 PUSH2 0x205 JUMP JUMPDEST PUSH2 0x20E JUMP JUMPDEST PUSH2 0x205 JUMP JUMPDEST SWAP1 POP SWAP2 SWAP1 POP JUMP JUMPDEST PUSH0 DUP2 SWAP1 POP SWAP2 SWAP1 POP JUMP JUMPDEST PUSH2 0x24A DUP4 PUSH2 0x217 JUMP JUMPDEST PUSH2 0x25E PUSH2 0x256 DUP3 PUSH2 0x238 JUMP JUMPDEST DUP5 DUP5 SLOAD PUSH2 0x1B4 JUMP JUMPDEST DUP3 SSTORE POP POP POP POP JUMP JUMPDEST PUSH0 PUSH0 SWAP1 POP SWAP1 JUMP JUMPDEST PUSH2 0x275 PUSH2 0x266 JUMP JUMPDEST PUSH2 0x280 DUP2 DUP5 DUP5 PUSH2 0x241 JUMP JUMPDEST POP POP POP JUMP JUMPDEST JUMPDEST DUP2 DUP2 LT ISZERO PUSH2 0x2A3 JUMPI PUSH2 0x298 PUSH0 DUP3 PUSH2 0x26D JUMP JUMPDEST PUSH1 0x1 DUP2 ADD SWAP1 POP PUSH2 0x286 JUMP JUMPDEST POP POP JUMP JUMPDEST PUSH1 0x1F DUP3 GT ISZERO PUSH2 0x2E8 JUMPI PUSH2 0x2B9 DUP2 PUSH2 0x187 JUMP JUMPDEST PUSH2 0x2C2 DUP5 PUSH2 0x199 JUMP JUMPDEST DUP2 ADD PUSH1 0x20 DUP6 LT ISZERO PUSH2 0x2D1 JUMPI DUP2 SWAP1 POP JUMPDEST PUSH2 0x2E5 PUSH2 0x2DD DUP6 PUSH2 0x199 JUMP JUMPDEST DUP4 ADD DUP3 PUSH2 0x285 JUMP JUMPDEST POP POP JUMPDEST POP POP POP JUMP JUMPDEST PUSH0 DUP3 DUP3 SHR SWAP1 POP SWAP3 SWAP2 POP POP JUMP JUMPDEST PUSH0 PUSH2 0x308 PUSH0 NOT DUP5 PUSH1 0x8 MUL PUSH2 0x2ED JUMP JUMPDEST NOT DUP1 DUP4 AND SWAP2 POP POP SWAP3 SWAP2 POP POP JUMP JUMPDEST PUSH0 PUSH2 0x320 DUP4 DUP4 PUSH2 0x2F9 JUMP JUMPDEST SWAP2 POP DUP3 PUSH1 0x2 MUL DUP3 OR SWAP1 POP SWAP3 SWAP2 POP POP JUMP JUMPDEST PUSH2 0x339 DUP3 PUSH2 0xF3 JUMP JUMPDEST PUSH8 0xFFFFFFFFFFFFFFFF DUP2 GT ISZERO PUSH2 0x352 JUMPI PUSH2 0x351 PUSH2 0xFD JUMP JUMPDEST JUMPDEST PUSH2 0x35C DUP3 SLOAD PUSH2 0x157 JUMP JUMPDEST PUSH2 0x367 DUP3 DUP3 DUP6 PUSH2 0x2A7 JUMP JUMPDEST PUSH0 PUSH1 0x20 SWAP1 POP PUSH1 0x1F DUP4 GT PUSH1 0x1 DUP2 EQ PUSH2 0x398 JUMPI PUSH0 DUP5 ISZERO PUSH2 0x386 JUMPI DUP3 DUP8 ADD MLOAD SWAP1 POP JUMPDEST PUSH2 0x390 DUP6 DUP3 PUSH2 0x315 JUMP JUMPDEST DUP7 SSTORE POP PUSH2 0x3F7 JUMP JUMPDEST PUSH1 0x1F NOT DUP5 AND PUSH2 0x3A6 DUP7 PUSH2 0x187 JUMP JUMPDEST PUSH0 JUMPDEST DUP3 DUP2 LT ISZERO PUSH2 0x3CD JUMPI DUP5 DUP10 ADD MLOAD DUP3 SSTORE PUSH1 0x1 DUP3 ADD SWAP2 POP PUSH1 0x20 DUP6 ADD SWAP5 POP PUSH1 0x20 DUP2 ADD SWAP1 POP PUSH2 0x3A8 JUMP JUMPDEST DUP7 DUP4 LT ISZERO PUSH2 0x3EA JUMPI DUP5 DUP10 ADD MLOAD PUSH2 0x3E6 PUSH1 0x1F DUP10 AND DUP3 PUSH2 0x2F9 JUMP JUMPDEST DUP4 SSTORE POP JUMPDEST PUSH1 0x1 PUSH1 0x2 DUP9 MUL ADD DUP9 SSTORE POP POP POP JUMPDEST POP POP POP POP POP POP JUMP JUMPDEST PUSH2 0x278B DUP1 PUSH2 0x40C PUSH0 CODECOPY PUSH0 RETURN INVALID PUSH1 0x80 PUSH1 0x40 MSTORE CALLVALUE DUP1 ISZERO PUSH2 0xF JUMPI PUSH0 PUSH0 REVERT JUMPDEST POP PUSH1 0x4 CALLDATASIZE LT PUSH2 0x135 JUMPI PUSH0 CALLDATALOAD PUSH1 0xE0 SHR DUP1 PUSH4 0x66885744 GT PUSH2 0xB6 JUMPI DUP1 PUSH4 0xBB7B3671 GT PUSH2 0x7A JUMPI DUP1 PUSH4 0xBB7B3671 EQ PUSH2 0x3B4 JUMPI DUP1 PUSH4 0xD3DEA54D EQ PUSH2 0x3E4 JUMPI DUP1 PUSH4 0xDD62ED3E EQ PUSH2 0x415 JUMPI DUP1 PUSH4 0xE2EAE4DB EQ PUSH2 0x445 JUMPI DUP1 PUSH4 0xE49A39DC EQ PUSH2 0x476 JUMPI DUP1 PUSH4 0xEB75E0B8 EQ PUSH2 0x480 JUMPI PUSH2 0x135 JUMP JUMPDEST DUP1 PUSH4 0x66885744 EQ PUSH2 0x2D3 JUMPI DUP1 PUSH4 0x70A08231 EQ PUSH2 0x303 JUMPI DUP1 PUSH4 0x95D89B41 EQ PUSH2 0x333 JUMPI DUP1 PUSH4 0xA9059CBB EQ PUSH2 0x351 JUMPI DUP1 PUSH4 0xA916B987 EQ PUSH2 0x381 JUMPI PUSH2 0x135 JUMP JUMPDEST DUP1 PUSH4 0x18160DDD GT PUSH2 0xFD JUMPI DUP1 PUSH4 0x18160DDD EQ PUSH2 0x206 JUMPI DUP1 PUSH4 0x1F12A015 EQ PUSH2 0x224 JUMPI DUP1 PUSH4 0x23B872DD EQ PUSH2 0x255 JUMPI DUP1 PUSH4 0x313CE567 EQ PUSH2 0x285 JUMPI DUP1 PUSH4 0x3BDFF5BA EQ PUSH2 0x2A3 JUMPI PUSH2 0x135 JUMP JUMPDEST DUP1 PUSH4 0x350173F EQ PUSH2 0x139 JUMPI DUP1 PUSH4 0x6FDDE03 EQ PUSH2 0x155 JUMPI DUP1 PUSH4 0x95EA7B3 EQ PUSH2 0x173 JUMPI DUP1 PUSH4 0x140B24F5 EQ PUSH2 0x1A3 JUMPI DUP1 PUSH4 0x162F17A9 EQ PUSH2 0x1D3 JUMPI JUMPDEST PUSH0 PUSH0 REVERT JUMPDEST PUSH2 0x153 PUSH1 0x4 DUP1 CALLDATASIZE SUB DUP2 ADD SWAP1 PUSH2 0x14E SWAP2 SWAP1 PUSH2 0x1B4D JUMP JUMPDEST PUSH2 0x4B1 JUMP JUMPDEST STOP JUMPDEST PUSH2 0x15D PUSH2 0x73B JUMP JUMPDEST PUSH1 0x40 MLOAD PUSH2 0x16A SWAP2 SWAP1 PUSH2 0x1C0D JUMP JUMPDEST PUSH1 0x40 MLOAD DUP1 SWAP2 SUB SWAP1 RETURN JUMPDEST PUSH2 0x18D PUSH1 0x4 DUP1 CALLDATASIZE SUB DUP2 ADD SWAP1 PUSH2 0x188 SWAP2 SWAP1 PUSH2 0x1CBA JUMP JUMPDEST PUSH2 0x7CB JUMP JUMPDEST PUSH1 0x40 MLOAD PUSH2 0x19A SWAP2 SWAP1 PUSH2 0x1D12 JUMP JUMPDEST PUSH1 0x40 MLOAD DUP1 SWAP2 SUB SWAP1 RETURN JUMPDEST PUSH2 0x1BD PUSH1 0x4 DUP1 CALLDATASIZE SUB DUP2 ADD SWAP1 PUSH2 0x1B8 SWAP2 SWAP1 PUSH2 0x1E57 JUMP JUMPDEST PUSH2 0x7ED JUMP JUMPDEST PUSH1 0x40 MLOAD PUSH2 0x1CA SWAP2 SWAP1 PUSH2 0x1EAD JUMP JUMPDEST PUSH1 0x40 MLOAD DUP1 SWAP2 SUB SWAP1 RETURN JUMPDEST PUSH2 0x1ED PUSH1 0x4 DUP1 CALLDATASIZE SUB DUP2 ADD SWAP1 PUSH2 0x1E8 SWAP2 SWAP1 PUSH2 0x1EC6 JUMP JUMPDEST PUSH2 0x95E JUMP JUMPDEST PUSH1 0x40 MLOAD PUSH2 0x1FD SWAP5 SWAP4 SWAP3 SWAP2 SWAP1 PUSH2 0x1F00 JUMP JUMPDEST PUSH1 0x40 MLOAD DUP1 SWAP2 SUB SWAP1 RETURN JUMPDEST PUSH2 0x20E PUSH2 0x9B8 JUMP JUMPDEST PUSH1 0x40 MLOAD PUSH2 0x21B SWAP2 SWAP1 PUSH2 0x1EAD JUMP JUMPDEST PUSH1 0x40 MLOAD DUP1 SWAP2 SUB SWAP1 RETURN JUMPDEST PUSH2 0x23E PUSH1 0x4 DUP1 CALLDATASIZE SUB DUP2 ADD SWAP1 PUSH2 0x239 SWAP2 SWAP1 PUSH2 0x1F43 JUMP JUMPDEST PUSH2 0x9C1 JUMP JUMPDEST PUSH1 0x40 MLOAD PUSH2 0x24C SWAP3 SWAP2 SWAP1 PUSH2 0x1F6E JUMP JUMPDEST PUSH1 0x40 MLOAD DUP1 SWAP2 SUB SWAP1 RETURN JUMPDEST PUSH2 0x26F PUSH1 0x4 DUP1 CALLDATASIZE SUB DUP2 ADD SWAP1 PUSH2 0x26A SWAP2 SWAP1 PUSH2 0x1F9C JUMP JUMPDEST PUSH2 0xA86 JUMP JUMPDEST PUSH1 0x40 MLOAD PUSH2 0x27C SWAP2 SWAP1 PUSH2 0x1D12 JUMP JUMPDEST PUSH1 0x40 MLOAD DUP1 SWAP2 SUB SWAP1 RETURN JUMPDEST PUSH2 0x28D PUSH2 0xAB4 JUMP JUMPDEST PUSH1 0x40 MLOAD PUSH2 0x29A SWAP2 SWAP1 PUSH2 0x1FFB JUMP JUMPDEST PUSH1 0x40 MLOAD DUP1 SWAP2 SUB SWAP1 RETURN JUMPDEST PUSH2 0x2BD PUSH1 0x4 DUP1 CALLDATASIZE SUB DUP2 ADD SWAP1 PUSH2 0x2B8 SWAP2 SWAP1 PUSH2 0x1E57 JUMP JUMPDEST PUSH2 0xABC JUMP JUMPDEST PUSH1 0x40 MLOAD PUSH2 0x2CA SWAP2 SWAP1 PUSH2 0x1EAD JUMP JUMPDEST PUSH1 0x40 MLOAD DUP1 SWAP2 SUB SWAP1 RETURN JUMPDEST PUSH2 0x2ED PUSH1 0x4 DUP1 CALLDATASIZE SUB DUP2 ADD SWAP1 PUSH2 0x2E8 SWAP2 SWAP1 PUSH2 0x2014 JUMP JUMPDEST PUSH2 0xD34 JUMP JUMPDEST PUSH1 0x40 MLOAD PUSH2 0x2FA SWAP2 SWAP1 PUSH2 0x1EAD JUMP JUMPDEST PUSH1 0x40 MLOAD DUP1 SWAP2 SUB SWAP1 RETURN JUMPDEST PUSH2 0x31D PUSH1 0x4 DUP1 CALLDATASIZE SUB DUP2 ADD SWAP1 PUSH2 0x318 SWAP2 SWAP1 PUSH2 0x1F43 JUMP JUMPDEST PUSH2 0xD66 JUMP JUMPDEST PUSH1 0x40 MLOAD PUSH2 0x32A SWAP2 SWAP1 PUSH2 0x1EAD JUMP JUMPDEST PUSH1 0x40 MLOAD DUP1 SWAP2 SUB SWAP1 RETURN JUMPDEST PUSH2 0x33B PUSH2 0xDAB JUMP JUMPDEST PUSH1 0x40 MLOAD PUSH2 0x348 SWAP2 SWAP1 PUSH2 0x1C0D JUMP JUMPDEST PUSH1 0x40 MLOAD DUP1 SWAP2 SUB SWAP1 RETURN JUMPDEST PUSH2 0x36B PUSH1 0x4 DUP1 CALLDATASIZE SUB DUP2 ADD SWAP1 PUSH2 0x366 SWAP2 SWAP1 PUSH2 0x1CBA JUMP JUMPDEST PUSH2 0xE3B JUMP JUMPDEST PUSH1 0x40 MLOAD PUSH2 0x378 SWAP2 SWAP1 PUSH2 0x1D12 JUMP JUMPDEST PUSH1 0x40 MLOAD DUP1 SWAP2 SUB SWAP1 RETURN JUMPDEST PUSH2 0x39B PUSH1 0x4 DUP1 CALLDATASIZE SUB DUP2 ADD SWAP1 PUSH2 0x396 SWAP2 SWAP1 PUSH2 0x2014 JUMP JUMPDEST PUSH2 0xE5D JUMP JUMPDEST PUSH1 0x40 MLOAD PUSH2 0x3AB SWAP5 SWAP4 SWAP3 SWAP2 SWAP1 PUSH2 0x1F00 JUMP JUMPDEST PUSH1 0x40 MLOAD DUP1 SWAP2 SUB SWAP1 RETURN JUMPDEST PUSH2 0x3CE PUSH1 0x4 DUP1 CALLDATASIZE SUB DUP2 ADD SWAP1 PUSH2 0x3C9 SWAP2 SWAP1 PUSH2 0x1E57 JUMP JUMPDEST PUSH2 0xEB3 JUMP JUMPDEST PUSH1 0x40 MLOAD PUSH2 0x3DB SWAP2 SWAP1 PUSH2 0x1EAD JUMP JUMPDEST PUSH1 0x40 MLOAD DUP1 SWAP2 SUB SWAP1 RETURN JUMPDEST PUSH2 0x3FE PUSH1 0x4 DUP1 CALLDATASIZE SUB DUP2 ADD SWAP1 PUSH2 0x3F9 SWAP2 SWAP1 PUSH2 0x1EC6 JUMP JUMPDEST PUSH2 0x1024 JUMP JUMPDEST PUSH1 0x40 MLOAD PUSH2 0x40C SWAP3 SWAP2 SWAP1 PUSH2 0x2052 JUMP JUMPDEST PUSH1 0x40 MLOAD DUP1 SWAP2 SUB SWAP1 RETURN JUMPDEST PUSH2 0x42F PUSH1 0x4 DUP1 CALLDATASIZE SUB DUP2 ADD SWAP1 PUSH2 0x42A SWAP2 SWAP1 PUSH2 0x2080 JUMP JUMPDEST PUSH2 0x10D1 JUMP JUMPDEST PUSH1 0x40 MLOAD PUSH2 0x43C SWAP2 SWAP1 PUSH2 0x1EAD JUMP JUMPDEST PUSH1 0x40 MLOAD DUP1 SWAP2 SUB SWAP1 RETURN JUMPDEST PUSH2 0x45F PUSH1 0x4 DUP1 CALLDATASIZE SUB DUP2 ADD SWAP1 PUSH2 0x45A SWAP2 SWAP1 PUSH2 0x1EC6 JUMP JUMPDEST PUSH2 0x1153 JUMP JUMPDEST PUSH1 0x40 MLOAD PUSH2 0x46D SWAP3 SWAP2 SWAP1 PUSH2 0x1F6E JUMP JUMPDEST PUSH1 0x40 MLOAD DUP1 SWAP2 SUB SWAP1 RETURN JUMPDEST PUSH2 0x47E PUSH2 0x121F JUMP JUMPDEST STOP JUMPDEST PUSH2 0x49A PUSH1 0x4 DUP1 CALLDATASIZE SUB DUP2 ADD SWAP1 PUSH2 0x495 SWAP2 SWAP1 PUSH2 0x1EC6 JUMP JUMPDEST PUSH2 0x12F0 JUMP JUMPDEST PUSH1 0x40 MLOAD PUSH2 0x4A8 SWAP3 SWAP2 SWAP1 PUSH2 0x2052 JUMP JUMPDEST PUSH1 0x40 MLOAD DUP1 SWAP2 SUB SWAP1 RETURN JUMPDEST CALLER PUSH20 0xFFFFFFFFFFFFFFFFFFFFFFFFFFFFFFFFFFFFFFFF AND PUSH1 0x7E PUSH0 CALLER PUSH20 0xFFFFFFFFFFFFFFFFFFFFFFFFFFFFFFFFFFFFFFFF AND PUSH20 0xFFFFFFFFFFFFFFFFFFFFFFFFFFFFFFFFFFFFFFFF AND DUP2 MSTORE PUSH1 0x20 ADD SWAP1 DUP2 MSTORE PUSH1 0x20 ADD PUSH0 KECCAK256 PUSH0 ADD PUSH0 SWAP1 SLOAD SWAP1 PUSH2 0x100 EXP SWAP1 DIV PUSH20 0xFFFFFFFFFFFFFFFFFFFFFFFFFFFFFFFFFFFFFFFF AND PUSH20 0xFFFFFFFFFFFFFFFFFFFFFFFFFFFFFFFFFFFFFFFF AND EQ PUSH2 0x57D JUMPI PUSH1 0x40 MLOAD PUSH32 0x8C379A000000000000000000000000000000000000000000000000000000000 DUP2 MSTORE PUSH1 0x4 ADD PUSH2 0x574 SWAP1 PUSH2 0x2108 JUMP JUMPDEST PUSH1 0x40 MLOAD DUP1 SWAP2 SUB SWAP1 REVERT JUMPDEST PUSH2 0x384 DUP2 PUSH2 0xFFFF AND LT ISZERO DUP1 ISZERO PUSH2 0x599 JUMPI POP PUSH2 0x3E8 DUP2 PUSH2 0xFFFF AND GT ISZERO JUMPDEST PUSH2 0x5D8 JUMPI PUSH1 0x40 MLOAD PUSH32 0x8C379A000000000000000000000000000000000000000000000000000000000 DUP2 MSTORE PUSH1 0x4 ADD PUSH2 0x5CF SWAP1 PUSH2 0x2170 JUMP JUMPDEST PUSH1 0x40 MLOAD DUP1 SWAP2 SUB SWAP1 REVERT JUMPDEST PUSH0 PUSH1 0x40 MLOAD DUP1 PUSH1 0x80 ADD PUSH1 0x40 MSTORE DUP1 DUP6 PUSH1 0xFF AND DUP2 MSTORE PUSH1 0x20 ADD DUP5 PUSH1 0xFF AND DUP2 MSTORE PUSH1 0x20 ADD CALLER PUSH20 0xFFFFFFFFFFFFFFFFFFFFFFFFFFFFFFFFFFFFFFFF AND DUP2 MSTORE PUSH1 0x20 ADD DUP4 PUSH2 0xFFFF AND DUP2 MSTORE POP SWAP1 POP PUSH1 0x7D DUP2 SWAP1 DUP1 PUSH1 0x1 DUP2 SLOAD ADD DUP1 DUP3 SSTORE DUP1 SWAP2 POP POP PUSH1 0x1 SWAP1 SUB SWAP1 PUSH0 MSTORE PUSH1 0x20 PUSH0 KECCAK256 SWAP1 PUSH1 0x4 MUL ADD PUSH0 SWAP1 SWAP2 SWAP1 SWAP2 SWAP1 SWAP2 POP PUSH0 DUP3 ADD MLOAD DUP2 PUSH0 ADD SSTORE PUSH1 0x20 DUP3 ADD MLOAD DUP2 PUSH1 0x1 ADD SSTORE PUSH1 0x40 DUP3 ADD MLOAD DUP2 PUSH1 0x2 ADD PUSH0 PUSH2 0x100 EXP DUP2 SLOAD DUP2 PUSH20 0xFFFFFFFFFFFFFFFFFFFFFFFFFFFFFFFFFFFFFFFF MUL NOT AND SWAP1 DUP4 PUSH20 0xFFFFFFFFFFFFFFFFFFFFFFFFFFFFFFFFFFFFFFFF AND MUL OR SWAP1 SSTORE POP PUSH1 0x60 DUP3 ADD MLOAD DUP2 PUSH1 0x3 ADD SSTORE POP POP DUP1 PUSH1 0x7F PUSH0 DUP7 PUSH1 0xFF AND DUP2 MSTORE PUSH1 0x20 ADD SWAP1 DUP2 MSTORE PUSH1 0x20 ADD PUSH0 KECCAK256 PUSH0 DUP6 PUSH1 0xFF AND DUP2 MSTORE PUSH1 0x20 ADD SWAP1 DUP2 MSTORE PUSH1 0x20 ADD PUSH0 KECCAK256 PUSH0 DUP3 ADD MLOAD DUP2 PUSH0 ADD SSTORE PUSH1 0x20 DUP3 ADD MLOAD DUP2 PUSH1 0x1 ADD SSTORE PUSH1 0x40 DUP3 ADD MLOAD DUP2 PUSH1 0x2 ADD PUSH0 PUSH2 0x100 EXP DUP2 SLOAD DUP2 PUSH20 0xFFFFFFFFFFFFFFFFFFFFFFFFFFFFFFFFFFFFFFFF MUL NOT AND SWAP1 DUP4 PUSH20 0xFFFFFFFFFFFFFFFFFFFFFFFFFFFFFFFFFFFFFFFF AND MUL OR SWAP1 SSTORE POP PUSH1 0x60 DUP3 ADD MLOAD DUP2 PUSH1 0x3 ADD SSTORE SWAP1 POP POP POP POP POP POP JUMP JUMPDEST PUSH1 0x60 PUSH1 0x3 DUP1 SLOAD PUSH2 0x74A SWAP1 PUSH2 0x21BB JUMP JUMPDEST DUP1 PUSH1 0x1F ADD PUSH1 0x20 DUP1 SWAP2 DIV MUL PUSH1 0x20 ADD PUSH1 0x40 MLOAD SWAP1 DUP2 ADD PUSH1 0x40 MSTORE DUP1 SWAP3 SWAP2 SWAP1 DUP2 DUP2 MSTORE PUSH1 0x20 ADD DUP3 DUP1 SLOAD PUSH2 0x776 SWAP1 PUSH2 0x21BB JUMP JUMPDEST DUP1 ISZERO PUSH2 0x7C1 JUMPI DUP1 PUSH1 0x1F LT PUSH2 0x798 JUMPI PUSH2 0x100 DUP1 DUP4 SLOAD DIV MUL DUP4 MSTORE SWAP2 PUSH1 0x20 ADD SWAP2 PUSH2 0x7C1 JUMP JUMPDEST DUP3 ADD SWAP2 SWAP1 PUSH0 MSTORE PUSH1 0x20 PUSH0 KECCAK256 SWAP1 JUMPDEST DUP2 SLOAD DUP2 MSTORE SWAP1 PUSH1 0x1 ADD SWAP1 PUSH1 0x20 ADD DUP1 DUP4 GT PUSH2 0x7A4 JUMPI DUP3 SWAP1 SUB PUSH1 0x1F AND DUP3 ADD SWAP2 JUMPDEST POP POP POP POP POP SWAP1 POP SWAP1 JUMP JUMPDEST PUSH0 PUSH0 PUSH2 0x7D5 PUSH2 0x139D JUMP JUMPDEST SWAP1 POP PUSH2 0x7E2 DUP2 DUP6 DUP6 PUSH2 0x13A4 JUMP JUMPDEST PUSH1 0x1 SWAP2 POP POP SWAP3 SWAP2 POP POP JUMP JUMPDEST PUSH0 PUSH1 0x9 PUSH1 0xFF AND PUSH1 0x80 PUSH1 0x2 SWAP1 SLOAD SWAP1 PUSH2 0x100 EXP SWAP1 DIV PUSH1 0xFF AND PUSH1 0xFF AND LT PUSH2 0x846 JUMPI PUSH1 0x40 MLOAD PUSH32 0x8C379A000000000000000000000000000000000000000000000000000000000 DUP2 MSTORE PUSH1 0x4 ADD PUSH2 0x83D SWAP1 PUSH2 0x2235 JUMP JUMPDEST PUSH1 0x40 MLOAD DUP1 SWAP2 SUB SWAP1 REVERT JUMPDEST PUSH1 0x40 MLOAD DUP1 PUSH1 0x40 ADD PUSH1 0x40 MSTORE DUP1 PUSH1 0x80 PUSH1 0x2 SWAP1 SLOAD SWAP1 PUSH2 0x100 EXP SWAP1 DIV PUSH1 0xFF AND PUSH1 0xFF AND DUP2 MSTORE PUSH1 0x20 ADD DUP4 DUP2 MSTORE POP PUSH1 0x6B PUSH1 0x80 PUSH1 0x2 SWAP1 SLOAD SWAP1 PUSH2 0x100 EXP SWAP1 DIV PUSH1 0xFF AND PUSH1 0xFF AND PUSH1 0x9 DUP2 LT PUSH2 0x893 JUMPI PUSH2 0x892 PUSH2 0x2253 JUMP JUMPDEST JUMPDEST PUSH1 0x2 MUL ADD PUSH0 DUP3 ADD MLOAD DUP2 PUSH0 ADD SSTORE PUSH1 0x20 DUP3 ADD MLOAD DUP2 PUSH1 0x1 ADD SWAP1 DUP2 PUSH2 0x8B4 SWAP2 SWAP1 PUSH2 0x2420 JUMP JUMPDEST POP SWAP1 POP POP PUSH32 0xABB741F082D0E258D6001CF83D689C372FAB57C59D4EAE923999F75F5ECFAD7E PUSH1 0x80 PUSH1 0x2 SWAP1 SLOAD SWAP1 PUSH2 0x100 EXP SWAP1 DIV PUSH1 0xFF AND DUP4 PUSH1 0x40 MLOAD PUSH2 0x8F8 SWAP3 SWAP2 SWAP1 PUSH2 0x24EF JUMP JUMPDEST PUSH1 0x40 MLOAD DUP1 SWAP2 SUB SWAP1 LOG1 PUSH1 0x80 PUSH1 0x2 DUP2 DUP2 SWAP1 SLOAD SWAP1 PUSH2 0x100 EXP SWAP1 DIV PUSH1 0xFF AND DUP1 SWAP3 SWAP2 SWAP1 PUSH2 0x91F SWAP1 PUSH2 0x254A JUMP JUMPDEST SWAP2 SWAP1 PUSH2 0x100 EXP DUP2 SLOAD DUP2 PUSH1 0xFF MUL NOT AND SWAP1 DUP4 PUSH1 0xFF AND MUL OR SWAP1 SSTORE POP POP PUSH1 0x1 PUSH1 0x80 PUSH1 0x2 SWAP1 SLOAD SWAP1 PUSH2 0x100 EXP SWAP1 DIV PUSH1 0xFF AND PUSH2 0x954 SWAP2 SWAP1 PUSH2 0x2572 JUMP JUMPDEST PUSH1 0xFF AND SWAP1 POP SWAP2 SWAP1 POP JUMP JUMPDEST PUSH1 0x7D DUP2 DUP2 SLOAD DUP2 LT PUSH2 0x96D JUMPI PUSH0 DUP1 REVERT JUMPDEST SWAP1 PUSH0 MSTORE PUSH1 0x20 PUSH0 KECCAK256 SWAP1 PUSH1 0x4 MUL ADD PUSH0 SWAP2 POP SWAP1 POP DUP1 PUSH0 ADD SLOAD SWAP1 DUP1 PUSH1 0x1 ADD SLOAD SWAP1 DUP1 PUSH1 0x2 ADD PUSH0 SWAP1 SLOAD SWAP1 PUSH2 0x100 EXP SWAP1 DIV PUSH20 0xFFFFFFFFFFFFFFFFFFFFFFFFFFFFFFFFFFFFFFFF AND SWAP1 DUP1 PUSH1 0x3 ADD SLOAD SWAP1 POP DUP5 JUMP JUMPDEST PUSH0 PUSH1 0x2 SLOAD SWAP1 POP SWAP1 JUMP JUMPDEST PUSH1 0x7E PUSH1 0x20 MSTORE DUP1 PUSH0 MSTORE PUSH1 0x40 PUSH0 KECCAK256 PUSH0 SWAP2 POP SWAP1 POP DUP1 PUSH0 ADD PUSH0 SWAP1 SLOAD SWAP1 PUSH2 0x100 EXP SWAP1 DIV PUSH20 0xFFFFFFFFFFFFFFFFFFFFFFFFFFFFFFFFFFFFFFFF AND SWAP1 DUP1 PUSH1 0x1 ADD DUP1 SLOAD PUSH2 0xA05 SWAP1 PUSH2 0x21BB JUMP JUMPDEST DUP1 PUSH1 0x1F ADD PUSH1 0x20 DUP1 SWAP2 DIV MUL PUSH1 0x20 ADD PUSH1 0x40 MLOAD SWAP1 DUP2 ADD PUSH1 0x40 MSTORE DUP1 SWAP3 SWAP2 SWAP1 DUP2 DUP2 MSTORE PUSH1 0x20 ADD DUP3 DUP1 SLOAD PUSH2 0xA31 SWAP1 PUSH2 0x21BB JUMP JUMPDEST DUP1 ISZERO PUSH2 0xA7C JUMPI DUP1 PUSH1 0x1F LT PUSH2 0xA53 JUMPI PUSH2 0x100 DUP1 DUP4 SLOAD DIV MUL DUP4 MSTORE SWAP2 PUSH1 0x20 ADD SWAP2 PUSH2 0xA7C JUMP JUMPDEST DUP3 ADD SWAP2 SWAP1 PUSH0 MSTORE PUSH1 0x20 PUSH0 KECCAK256 SWAP1 JUMPDEST DUP2 SLOAD DUP2 MSTORE SWAP1 PUSH1 0x1 ADD SWAP1 PUSH1 0x20 ADD DUP1 DUP4 GT PUSH2 0xA5F JUMPI DUP3 SWAP1 SUB PUSH1 0x1F AND DUP3 ADD SWAP2 JUMPDEST POP POP POP POP POP SWAP1 POP DUP3 JUMP JUMPDEST PUSH0 PUSH0 PUSH2 0xA90 PUSH2 0x139D JUMP JUMPDEST SWAP1 POP PUSH2 0xA9D DUP6 DUP3 DUP6 PUSH2 0x13B6 JUMP JUMPDEST PUSH2 0xAA8 DUP6 DUP6 DUP6 PUSH2 0x1448 JUMP JUMPDEST PUSH1 0x1 SWAP2 POP POP SWAP4 SWAP3 POP POP POP JUMP JUMPDEST PUSH0 PUSH1 0x12 SWAP1 POP SWAP1 JUMP JUMPDEST PUSH0 PUSH1 0x24 PUSH1 0xFF AND PUSH1 0x80 PUSH0 SWAP1 SLOAD SWAP1 PUSH2 0x100 EXP SWAP1 DIV PUSH1 0xFF AND PUSH1 0xFF AND LT PUSH2 0xB14 JUMPI PUSH1 0x40 MLOAD PUSH32 0x8C379A000000000000000000000000000000000000000000000000000000000 DUP2 MSTORE PUSH1 0x4 ADD PUSH2 0xB0B SWAP1 PUSH2 0x25F0 JUMP JUMPDEST PUSH1 0x40 MLOAD DUP1 SWAP2 SUB SWAP1 REVERT JUMPDEST PUSH1 0x40 MLOAD DUP1 PUSH1 0x40 ADD PUSH1 0x40 MSTORE DUP1 CALLER PUSH20 0xFFFFFFFFFFFFFFFFFFFFFFFFFFFFFFFFFFFFFFFF AND DUP2 MSTORE PUSH1 0x20 ADD DUP4 DUP2 MSTORE POP PUSH1 0x7E PUSH0 CALLER PUSH20 0xFFFFFFFFFFFFFFFFFFFFFFFFFFFFFFFFFFFFFFFF AND PUSH20 0xFFFFFFFFFFFFFFFFFFFFFFFFFFFFFFFFFFFFFFFF AND DUP2 MSTORE PUSH1 0x20 ADD SWAP1 DUP2 MSTORE PUSH1 0x20 ADD PUSH0 KECCAK256 PUSH0 DUP3 ADD MLOAD DUP2 PUSH0 ADD PUSH0 PUSH2 0x100 EXP DUP2 SLOAD DUP2 PUSH20 0xFFFFFFFFFFFFFFFFFFFFFFFFFFFFFFFFFFFFFFFF MUL NOT AND SWAP1 DUP4 PUSH20 0xFFFFFFFFFFFFFFFFFFFFFFFFFFFFFFFFFFFFFFFF AND MUL OR SWAP1 SSTORE POP PUSH1 0x20 DUP3 ADD MLOAD DUP2 PUSH1 0x1 ADD SWAP1 DUP2 PUSH2 0xBD5 SWAP2 SWAP1 PUSH2 0x2420 JUMP JUMPDEST POP SWAP1 POP POP PUSH1 0x40 MLOAD DUP1 PUSH1 0x40 ADD PUSH1 0x40 MSTORE DUP1 CALLER PUSH20 0xFFFFFFFFFFFFFFFFFFFFFFFFFFFFFFFFFFFFFFFF AND DUP2 MSTORE PUSH1 0x20 ADD DUP4 DUP2 MSTORE POP PUSH1 0x5 PUSH1 0x80 PUSH0 SWAP1 SLOAD SWAP1 PUSH2 0x100 EXP SWAP1 DIV PUSH1 0xFF AND PUSH1 0xFF AND PUSH1 0x24 DUP2 LT PUSH2 0xC29 JUMPI PUSH2 0xC28 PUSH2 0x2253 JUMP JUMPDEST JUMPDEST PUSH1 0x2 MUL ADD PUSH0 DUP3 ADD MLOAD DUP2 PUSH0 ADD PUSH0 PUSH2 0x100 EXP DUP2 SLOAD DUP2 PUSH20 0xFFFFFFFFFFFFFFFFFFFFFFFFFFFFFFFFFFFFFFFF MUL NOT AND SWAP1 DUP4 PUSH20 0xFFFFFFFFFFFFFFFFFFFFFFFFFFFFFFFFFFFFFFFF AND MUL OR SWAP1 SSTORE POP PUSH1 0x20 DUP3 ADD MLOAD DUP2 PUSH1 0x1 ADD SWAP1 DUP2 PUSH2 0xC86 SWAP2 SWAP1 PUSH2 0x2420 JUMP JUMPDEST POP SWAP1 POP POP PUSH1 0x80 PUSH0 DUP2 DUP2 SWAP1 SLOAD SWAP1 PUSH2 0x100 EXP SWAP1 DIV PUSH1 0xFF AND DUP1 SWAP3 SWAP2 SWAP1 PUSH2 0xCA8 SWAP1 PUSH2 0x254A JUMP JUMPDEST SWAP2 SWAP1 PUSH2 0x100 EXP DUP2 SLOAD DUP2 PUSH1 0xFF MUL NOT AND SWAP1 DUP4 PUSH1 0xFF AND MUL OR SWAP1 SSTORE POP POP CALLER PUSH20 0xFFFFFFFFFFFFFFFFFFFFFFFFFFFFFFFFFFFFFFFF AND PUSH32 0xA1FB37ECDDD4C220FD008A54A22FB96CE4DB7248E0F4987E445259DC6E55188B DUP4 PUSH1 0x40 MLOAD PUSH2 0xD07 SWAP2 SWAP1 PUSH2 0x1C0D JUMP JUMPDEST PUSH1 0x40 MLOAD DUP1 SWAP2 SUB SWAP1 LOG2 PUSH1 0x1 PUSH1 0x80 PUSH0 SWAP1 SLOAD SWAP1 PUSH2 0x100 EXP SWAP1 DIV PUSH1 0xFF AND PUSH2 0xD2A SWAP2 SWAP1 PUSH2 0x2572 JUMP JUMPDEST PUSH1 0xFF AND SWAP1 POP SWAP2 SWAP1 POP JUMP JUMPDEST PUSH0 PUSH0 PUSH1 0x7F PUSH0 DUP6 DUP2 MSTORE PUSH1 0x20 ADD SWAP1 DUP2 MSTORE PUSH1 0x20 ADD PUSH0 KECCAK256 PUSH0 DUP5 DUP2 MSTORE PUSH1 0x20 ADD SWAP1 DUP2 MSTORE PUSH1 0x20 ADD PUSH0 KECCAK256 SWAP1 POP DUP1 PUSH1 0x3 ADD SLOAD SWAP2 POP POP SWAP3 SWAP2 POP POP JUMP JUMPDEST PUSH0 PUSH0 PUSH0 DUP4 PUSH20 0xFFFFFFFFFFFFFFFFFFFFFFFFFFFFFFFFFFFFFFFF AND PUSH20 0xFFFFFFFFFFFFFFFFFFFFFFFFFFFFFFFFFFFFFFFF AND DUP2 MSTORE PUSH1 0x20 ADD SWAP1 DUP2 MSTORE PUSH1 0x20 ADD PUSH0 KECCAK256 SLOAD SWAP1 POP SWAP2 SWAP1 POP JUMP JUMPDEST PUSH1 0x60 PUSH1 0x4 DUP1 SLOAD PUSH2 0xDBA SWAP1 PUSH2 0x21BB JUMP JUMPDEST DUP1 PUSH1 0x1F ADD PUSH1 0x20 DUP1 SWAP2 DIV MUL PUSH1 0x20 ADD PUSH1 0x40 MLOAD SWAP1 DUP2 ADD PUSH1 0x40 MSTORE DUP1 SWAP3 SWAP2 SWAP1 DUP2 DUP2 MSTORE PUSH1 0x20 ADD DUP3 DUP1 SLOAD PUSH2 0xDE6 SWAP1 PUSH2 0x21BB JUMP JUMPDEST DUP1 ISZERO PUSH2 0xE31 JUMPI DUP1 PUSH1 0x1F LT PUSH2 0xE08 JUMPI PUSH2 0x100 DUP1 DUP4 SLOAD DIV MUL DUP4 MSTORE SWAP2 PUSH1 0x20 ADD SWAP2 PUSH2 0xE31 JUMP JUMPDEST DUP3 ADD SWAP2 SWAP1 PUSH0 MSTORE PUSH1 0x20 PUSH0 KECCAK256 SWAP1 JUMPDEST DUP2 SLOAD DUP2 MSTORE SWAP1 PUSH1 0x1 ADD SWAP1 PUSH1 0x20 ADD DUP1 DUP4 GT PUSH2 0xE14 JUMPI DUP3 SWAP1 SUB PUSH1 0x1F AND DUP3 ADD SWAP2 JUMPDEST POP POP POP POP POP SWAP1 POP SWAP1 JUMP JUMPDEST PUSH0 PUSH0 PUSH2 0xE45 PUSH2 0x139D JUMP JUMPDEST SWAP1 POP PUSH2 0xE52 DUP2 DUP6 DUP6 PUSH2 0x1448 JUMP JUMPDEST PUSH1 0x1 SWAP2 POP POP SWAP3 SWAP2 POP POP JUMP JUMPDEST PUSH1 0x7F PUSH1 0x20 MSTORE DUP2 PUSH0 MSTORE PUSH1 0x40 PUSH0 KECCAK256 PUSH1 0x20 MSTORE DUP1 PUSH0 MSTORE PUSH1 0x40 PUSH0 KECCAK256 PUSH0 SWAP2 POP SWAP2 POP POP DUP1 PUSH0 ADD SLOAD SWAP1 DUP1 PUSH1 0x1 ADD SLOAD SWAP1 DUP1 PUSH1 0x2 ADD PUSH0 SWAP1 SLOAD SWAP1 PUSH2 0x100 EXP SWAP1 DIV PUSH20 0xFFFFFFFFFFFFFFFFFFFFFFFFFFFFFFFFFFFFFFFF AND SWAP1 DUP1 PUSH1 0x3 ADD SLOAD SWAP1 POP DUP5 JUMP JUMPDEST PUSH0 PUSH1 0xF PUSH1 0xFF AND PUSH1 0x80 PUSH1 0x1 SWAP1 SLOAD SWAP1 PUSH2 0x100 EXP SWAP1 DIV PUSH1 0xFF AND PUSH1 0xFF AND LT PUSH2 0xF0C JUMPI PUSH1 0x40 MLOAD PUSH32 0x8C379A000000000000000000000000000000000000000000000000000000000 DUP2 MSTORE PUSH1 0x4 ADD PUSH2 0xF03 SWAP1 PUSH2 0x2658 JUMP JUMPDEST PUSH1 0x40 MLOAD DUP1 SWAP2 SUB SWAP1 REVERT JUMPDEST PUSH1 0x40 MLOAD DUP1 PUSH1 0x40 ADD PUSH1 0x40 MSTORE DUP1 PUSH1 0x80 PUSH1 0x1 SWAP1 SLOAD SWAP1 PUSH2 0x100 EXP SWAP1 DIV PUSH1 0xFF AND PUSH1 0xFF AND DUP2 MSTORE PUSH1 0x20 ADD DUP4 DUP2 MSTORE POP PUSH1 0x4D PUSH1 0x80 PUSH1 0x1 SWAP1 SLOAD SWAP1 PUSH2 0x100 EXP SWAP1 DIV PUSH1 0xFF AND PUSH1 0xFF AND PUSH1 0xF DUP2 LT PUSH2 0xF59 JUMPI PUSH2 0xF58 PUSH2 0x2253 JUMP JUMPDEST JUMPDEST PUSH1 0x2 MUL ADD PUSH0 DUP3 ADD MLOAD DUP2 PUSH0 ADD SSTORE PUSH1 0x20 DUP3 ADD MLOAD DUP2 PUSH1 0x1 ADD SWAP1 DUP2 PUSH2 0xF7A SWAP2 SWAP1 PUSH2 0x2420 JUMP JUMPDEST POP SWAP1 POP POP PUSH32 0x9F427C381DCCC81DD341800D0C9110AB44CF34BFD696503341D2A57AB3F85D88 PUSH1 0x80 PUSH1 0x1 SWAP1 SLOAD SWAP1 PUSH2 0x100 EXP SWAP1 DIV PUSH1 0xFF AND DUP4 PUSH1 0x40 MLOAD PUSH2 0xFBE SWAP3 SWAP2 SWAP1 PUSH2 0x26A6 JUMP JUMPDEST PUSH1 0x40 MLOAD DUP1 SWAP2 SUB SWAP1 LOG1 PUSH1 0x80 PUSH1 0x1 DUP2 DUP2 SWAP1 SLOAD SWAP1 PUSH2 0x100 EXP SWAP1 DIV PUSH1 0xFF AND DUP1 SWAP3 SWAP2 SWAP1 PUSH2 0xFE5 SWAP1 PUSH2 0x254A JUMP JUMPDEST SWAP2 SWAP1 PUSH2 0x100 EXP DUP2 SLOAD DUP2 PUSH1 0xFF MUL NOT AND SWAP1 DUP4 PUSH1 0xFF AND MUL OR SWAP1 SSTORE POP POP PUSH1 0x1 PUSH1 0x80 PUSH1 0x1 SWAP1 SLOAD SWAP1 PUSH2 0x100 EXP SWAP1 DIV PUSH1 0xFF AND PUSH2 0x101A SWAP2 SWAP1 PUSH2 0x2572 JUMP JUMPDEST PUSH1 0xFF AND SWAP1 POP SWAP2 SWAP1 POP JUMP JUMPDEST PUSH1 0x4D DUP2 PUSH1 0xF DUP2 LT PUSH2 0x1033 JUMPI PUSH0 DUP1 REVERT JUMPDEST PUSH1 0x2 MUL ADD PUSH0 SWAP2 POP SWAP1 POP DUP1 PUSH0 ADD SLOAD SWAP1 DUP1 PUSH1 0x1 ADD DUP1 SLOAD PUSH2 0x1050 SWAP1 PUSH2 0x21BB JUMP JUMPDEST DUP1 PUSH1 0x1F ADD PUSH1 0x20 DUP1 SWAP2 DIV MUL PUSH1 0x20 ADD PUSH1 0x40 MLOAD SWAP1 DUP2 ADD PUSH1 0x40 MSTORE DUP1 SWAP3 SWAP2 SWAP1 DUP2 DUP2 MSTORE PUSH1 0x20 ADD DUP3 DUP1 SLOAD PUSH2 0x107C SWAP1 PUSH2 0x21BB JUMP JUMPDEST DUP1 ISZERO PUSH2 0x10C7 JUMPI DUP1 PUSH1 0x1F LT PUSH2 0x109E JUMPI PUSH2 0x100 DUP1 DUP4 SLOAD DIV MUL DUP4 MSTORE SWAP2 PUSH1 0x20 ADD SWAP2 PUSH2 0x10C7 JUMP JUMPDEST DUP3 ADD SWAP2 SWAP1 PUSH0 MSTORE PUSH1 0x20 PUSH0 KECCAK256 SWAP1 JUMPDEST DUP2 SLOAD DUP2 MSTORE SWAP1 PUSH1 0x1 ADD SWAP1 PUSH1 0x20 ADD DUP1 DUP4 GT PUSH2 0x10AA JUMPI DUP3 SWAP1 SUB PUSH1 0x1F AND DUP3 ADD SWAP2 JUMPDEST POP POP POP POP POP SWAP1 POP DUP3 JUMP JUMPDEST PUSH0 PUSH1 0x1 PUSH0 DUP5 PUSH20 0xFFFFFFFFFFFFFFFFFFFFFFFFFFFFFFFFFFFFFFFF AND PUSH20 0xFFFFFFFFFFFFFFFFFFFFFFFFFFFFFFFFFFFFFFFF AND DUP2 MSTORE PUSH1 0x20 ADD SWAP1 DUP2 MSTORE PUSH1 0x20 ADD PUSH0 KECCAK256 PUSH0 DUP4 PUSH20 0xFFFFFFFFFFFFFFFFFFFFFFFFFFFFFFFFFFFFFFFF AND PUSH20 0xFFFFFFFFFFFFFFFFFFFFFFFFFFFFFFFFFFFFFFFF AND DUP2 MSTORE PUSH1 0x20 ADD SWAP1 DUP2 MSTORE PUSH1 0x20 ADD PUSH0 KECCAK256 SLOAD SWAP1 POP SWAP3 SWAP2 POP POP JUMP JUMPDEST PUSH1 0x5 DUP2 PUSH1 0x24 DUP2 LT PUSH2 0x1162 JUMPI PUSH0 DUP1 REVERT JUMPDEST PUSH1 0x2 MUL ADD PUSH0 SWAP2 POP SWAP1 POP DUP1 PUSH0 ADD PUSH0 SWAP1 SLOAD SWAP1 PUSH2 0x100 EXP SWAP1 DIV PUSH20 0xFFFFFFFFFFFFFFFFFFFFFFFFFFFFFFFFFFFFFFFF AND SWAP1 DUP1 PUSH1 0x1 ADD DUP1 SLOAD PUSH2 0x119E SWAP1 PUSH2 0x21BB JUMP JUMPDEST DUP1 PUSH1 0x1F ADD PUSH1 0x20 DUP1 SWAP2 DIV MUL PUSH1 0x20 ADD PUSH1 0x40 MLOAD SWAP1 DUP2 ADD PUSH1 0x40 MSTORE DUP1 SWAP3 SWAP2 SWAP1 DUP2 DUP2 MSTORE PUSH1 0x20 ADD DUP3 DUP1 SLOAD PUSH2 0x11CA SWAP1 PUSH2 0x21BB JUMP JUMPDEST DUP1 ISZERO PUSH2 0x1215 JUMPI DUP1 PUSH1 0x1F LT PUSH2 0x11EC JUMPI PUSH2 0x100 DUP1 DUP4 SLOAD DIV MUL DUP4 MSTORE SWAP2 PUSH1 0x20 ADD SWAP2 PUSH2 0x1215 JUMP JUMPDEST DUP3 ADD SWAP2 SWAP1 PUSH0 MSTORE PUSH1 0x20 PUSH0 KECCAK256 SWAP1 JUMPDEST DUP2 SLOAD DUP2 MSTORE SWAP1 PUSH1 0x1 ADD SWAP1 PUSH1 0x20 ADD DUP1 DUP4 GT PUSH2 0x11F8 JUMPI DUP3 SWAP1 SUB PUSH1 0x1F AND DUP3 ADD SWAP2 JUMPDEST POP POP POP POP POP SWAP1 POP DUP3 JUMP JUMPDEST PUSH1 0x5 PUSH0 PUSH2 0x122C SWAP2 SWAP1 PUSH2 0x1920 JUMP JUMPDEST PUSH1 0x4D PUSH0 PUSH2 0x1239 SWAP2 SWAP1 PUSH2 0x1936 JUMP JUMPDEST PUSH1 0x6B PUSH0 PUSH2 0x1246 SWAP2 SWAP1 PUSH2 0x194C JUMP JUMPDEST PUSH1 0x7D PUSH0 PUSH2 0x1253 SWAP2 SWAP1 PUSH2 0x1962 JUMP JUMPDEST PUSH0 PUSH0 SWAP1 POP JUMPDEST PUSH1 0xF PUSH1 0xFF AND DUP2 LT ISZERO PUSH2 0x12ED JUMPI PUSH0 PUSH0 SWAP1 POP JUMPDEST PUSH1 0x9 PUSH1 0xFF AND DUP2 LT ISZERO PUSH2 0x12DF JUMPI PUSH1 0x7F PUSH0 DUP4 DUP2 MSTORE PUSH1 0x20 ADD SWAP1 DUP2 MSTORE PUSH1 0x20 ADD PUSH0 KECCAK256 PUSH0 DUP3 DUP2 MSTORE PUSH1 0x20 ADD SWAP1 DUP2 MSTORE PUSH1 0x20 ADD PUSH0 KECCAK256 PUSH0 PUSH0 DUP3 ADD PUSH0 SWAP1 SSTORE PUSH1 0x1 DUP3 ADD PUSH0 SWAP1 SSTORE PUSH1 0x2 DUP3 ADD PUSH0 PUSH2 0x100 EXP DUP2 SLOAD SWAP1 PUSH20 0xFFFFFFFFFFFFFFFFFFFFFFFFFFFFFFFFFFFFFFFF MUL NOT AND SWAP1 SSTORE PUSH1 0x3 DUP3 ADD PUSH0 SWAP1 SSTORE POP POP DUP1 DUP1 PUSH1 0x1 ADD SWAP2 POP POP PUSH2 0x1269 JUMP JUMPDEST POP DUP1 DUP1 PUSH1 0x1 ADD SWAP2 POP POP PUSH2 0x1258 JUMP JUMPDEST POP JUMP JUMPDEST PUSH1 0x6B DUP2 PUSH1 0x9 DUP2 LT PUSH2 0x12FF JUMPI PUSH0 DUP1 REVERT JUMPDEST PUSH1 0x2 MUL ADD PUSH0 SWAP2 POP SWAP1 POP DUP1 PUSH0 ADD SLOAD SWAP1 DUP1 PUSH1 0x1 ADD DUP1 SLOAD PUSH2 0x131C SWAP1 PUSH2 0x21BB JUMP JUMPDEST DUP1 PUSH1 0x1F ADD PUSH1 0x20 DUP1 SWAP2 DIV MUL PUSH1 0x20 ADD PUSH1 0x40 MLOAD SWAP1 DUP2 ADD PUSH1 0x40 MSTORE DUP1 SWAP3 SWAP2 SWAP1 DUP2 DUP2 MSTORE PUSH1 0x20 ADD DUP3 DUP1 SLOAD PUSH2 0x1348 SWAP1 PUSH2 0x21BB JUMP JUMPDEST DUP1 ISZERO PUSH2 0x1393 JUMPI DUP1 PUSH1 0x1F LT PUSH2 0x136A JUMPI PUSH2 0x100 DUP1 DUP4 SLOAD DIV MUL DUP4 MSTORE SWAP2 PUSH1 0x20 ADD SWAP2 PUSH2 0x1393 JUMP JUMPDEST DUP3 ADD SWAP2 SWAP1 PUSH0 MSTORE PUSH1 0x20 PUSH0 KECCAK256 SWAP1 JUMPDEST DUP2 SLOAD DUP2 MSTORE SWAP1 PUSH1 0x1 ADD SWAP1 PUSH1 0x20 ADD DUP1 DUP4 GT PUSH2 0x1376 JUMPI DUP3 SWAP1 SUB PUSH1 0x1F AND DUP3 ADD SWAP2 JUMPDEST POP POP POP POP POP SWAP1 POP DUP3 JUMP JUMPDEST PUSH0 CALLER SWAP1 POP SWAP1 JUMP JUMPDEST PUSH2 0x13B1 DUP4 DUP4 DUP4 PUSH1 0x1 PUSH2 0x1538 JUMP JUMPDEST POP POP POP JUMP JUMPDEST PUSH0 PUSH2 0x13C1 DUP5 DUP5 PUSH2 0x10D1 JUMP JUMPDEST SWAP1 POP PUSH32 0xFFFFFFFFFFFFFFFFFFFFFFFFFFFFFFFFFFFFFFFFFFFFFFFFFFFFFFFFFFFFFFFF DUP2 EQ PUSH2 0x1442 JUMPI DUP2 DUP2 LT ISZERO PUSH2 0x1433 JUMPI DUP3 DUP2 DUP4 PUSH1 0x40 MLOAD PUSH32 0xFB8F41B200000000000000000000000000000000000000000000000000000000 DUP2 MSTORE PUSH1 0x4 ADD PUSH2 0x142A SWAP4 SWAP3 SWAP2 SWAP1 PUSH2 0x26D4 JUMP JUMPDEST PUSH1 0x40 MLOAD DUP1 SWAP2 SUB SWAP1 REVERT JUMPDEST PUSH2 0x1441 DUP5 DUP5 DUP5 DUP5 SUB PUSH0 PUSH2 0x1538 JUMP JUMPDEST JUMPDEST POP POP POP POP JUMP JUMPDEST PUSH0 PUSH20 0xFFFFFFFFFFFFFFFFFFFFFFFFFFFFFFFFFFFFFFFF AND DUP4 PUSH20 0xFFFFFFFFFFFFFFFFFFFFFFFFFFFFFFFFFFFFFFFF AND SUB PUSH2 0x14B8 JUMPI PUSH0 PUSH1 0x40 MLOAD PUSH32 0x96C6FD1E00000000000000000000000000000000000000000000000000000000 DUP2 MSTORE PUSH1 0x4 ADD PUSH2 0x14AF SWAP2 SWAP1 PUSH2 0x2709 JUMP JUMPDEST PUSH1 0x40 MLOAD DUP1 SWAP2 SUB SWAP1 REVERT JUMPDEST PUSH0 PUSH20 0xFFFFFFFFFFFFFFFFFFFFFFFFFFFFFFFFFFFFFFFF AND DUP3 PUSH20 0xFFFFFFFFFFFFFFFFFFFFFFFFFFFFFFFFFFFFFFFF AND SUB PUSH2 0x1528 JUMPI PUSH0 PUSH1 0x40 MLOAD PUSH32 0xEC442F0500000000000000000000000000000000000000000000000000000000 DUP2 MSTORE PUSH1 0x4 ADD PUSH2 0x151F SWAP2 SWAP1 PUSH2 0x2709 JUMP JUMPDEST PUSH1 0x40 MLOAD DUP1 SWAP2 SUB SWAP1 REVERT JUMPDEST PUSH2 0x1533 DUP4 DUP4 DUP4 PUSH2 0x1707 JUMP JUMPDEST POP POP POP JUMP JUMPDEST PUSH0 PUSH20 0xFFFFFFFFFFFFFFFFFFFFFFFFFFFFFFFFFFFFFFFF AND DUP5 PUSH20 0xFFFFFFFFFFFFFFFFFFFFFFFFFFFFFFFFFFFFFFFF AND SUB PUSH2 0x15A8 JUMPI PUSH0 PUSH1 0x40 MLOAD PUSH32 0xE602DF0500000000000000000000000000000000000000000000000000000000 DUP2 MSTORE PUSH1 0x4 ADD PUSH2 0x159F SWAP2 SWAP1 PUSH2 0x2709 JUMP JUMPDEST PUSH1 0x40 MLOAD DUP1 SWAP2 SUB SWAP1 REVERT JUMPDEST PUSH0 PUSH20 0xFFFFFFFFFFFFFFFFFFFFFFFFFFFFFFFFFFFFFFFF AND DUP4 PUSH20 0xFFFFFFFFFFFFFFFFFFFFFFFFFFFFFFFFFFFFFFFF AND SUB PUSH2 0x1618 JUMPI PUSH0 PUSH1 0x40 MLOAD PUSH32 0x94280D6200000000000000000000000000000000000000000000000000000000 DUP2 MSTORE PUSH1 0x4 ADD PUSH2 0x160F SWAP2 SWAP1 PUSH2 0x2709 JUMP JUMPDEST PUSH1 0x40 MLOAD DUP1 SWAP2 SUB SWAP1 REVERT JUMPDEST DUP2 PUSH1 0x1 PUSH0 DUP7 PUSH20 0xFFFFFFFFFFFFFFFFFFFFFFFFFFFFFFFFFFFFFFFF AND PUSH20 0xFFFFFFFFFFFFFFFFFFFFFFFFFFFFFFFFFFFFFFFF AND DUP2 MSTORE PUSH1 0x20 ADD SWAP1 DUP2 MSTORE PUSH1 0x20 ADD PUSH0 KECCAK256 PUSH0 DUP6 PUSH20 0xFFFFFFFFFFFFFFFFFFFFFFFFFFFFFFFFFFFFFFFF AND PUSH20 0xFFFFFFFFFFFFFFFFFFFFFFFFFFFFFFFFFFFFFFFF AND DUP2 MSTORE PUSH1 0x20 ADD SWAP1 DUP2 MSTORE PUSH1 0x20 ADD PUSH0 KECCAK256 DUP2 SWAP1 SSTORE POP DUP1 ISZERO PUSH2 0x1701 JUMPI DUP3 PUSH20 0xFFFFFFFFFFFFFFFFFFFFFFFFFFFFFFFFFFFFFFFF AND DUP5 PUSH20 0xFFFFFFFFFFFFFFFFFFFFFFFFFFFFFFFFFFFFFFFF AND PUSH32 0x8C5BE1E5EBEC7D5BD14F71427D1E84F3DD0314C0F7B2291E5B200AC8C7C3B925 DUP5 PUSH1 0x40 MLOAD PUSH2 0x16F8 SWAP2 SWAP1 PUSH2 0x1EAD JUMP JUMPDEST PUSH1 0x40 MLOAD DUP1 SWAP2 SUB SWAP1 LOG3 JUMPDEST POP POP POP POP JUMP JUMPDEST PUSH0 PUSH20 0xFFFFFFFFFFFFFFFFFFFFFFFFFFFFFFFFFFFFFFFF AND DUP4 PUSH20 0xFFFFFFFFFFFFFFFFFFFFFFFFFFFFFFFFFFFFFFFF AND SUB PUSH2 0x1757 JUMPI DUP1 PUSH1 0x2 PUSH0 DUP3 DUP3 SLOAD PUSH2 0x174B SWAP2 SWAP1 PUSH2 0x2722 JUMP JUMPDEST SWAP3 POP POP DUP2 SWAP1 SSTORE POP PUSH2 0x1825 JUMP JUMPDEST PUSH0 PUSH0 PUSH0 DUP6 PUSH20 0xFFFFFFFFFFFFFFFFFFFFFFFFFFFFFFFFFFFFFFFF AND PUSH20 0xFFFFFFFFFFFFFFFFFFFFFFFFFFFFFFFFFFFFFFFF AND DUP2 MSTORE PUSH1 0x20 ADD SWAP1 DUP2 MSTORE PUSH1 0x20 ADD PUSH0 KECCAK256 SLOAD SWAP1 POP DUP2 DUP2 LT ISZERO PUSH2 0x17E0 JUMPI DUP4 DUP2 DUP4 PUSH1 0x40 MLOAD PUSH32 0xE450D38C00000000000000000000000000000000000000000000000000000000 DUP2 MSTORE PUSH1 0x4 ADD PUSH2 0x17D7 SWAP4 SWAP3 SWAP2 SWAP1 PUSH2 0x26D4 JUMP JUMPDEST PUSH1 0x40 MLOAD DUP1 SWAP2 SUB SWAP1 REVERT JUMPDEST DUP2 DUP2 SUB PUSH0 PUSH0 DUP7 PUSH20 0xFFFFFFFFFFFFFFFFFFFFFFFFFFFFFFFFFFFFFFFF AND PUSH20 0xFFFFFFFFFFFFFFFFFFFFFFFFFFFFFFFFFFFFFFFF AND DUP2 MSTORE PUSH1 0x20 ADD SWAP1 DUP2 MSTORE PUSH1 0x20 ADD PUSH0 KECCAK256 DUP2 SWAP1 SSTORE POP POP JUMPDEST PUSH0 PUSH20 0xFFFFFFFFFFFFFFFFFFFFFFFFFFFFFFFFFFFFFFFF AND DUP3 PUSH20 0xFFFFFFFFFFFFFFFFFFFFFFFFFFFFFFFFFFFFFFFF AND SUB PUSH2 0x186C JUMPI DUP1 PUSH1 0x2 PUSH0 DUP3 DUP3 SLOAD SUB SWAP3 POP POP DUP2 SWAP1 SSTORE POP PUSH2 0x18B6 JUMP JUMPDEST DUP1 PUSH0 PUSH0 DUP5 PUSH20 0xFFFFFFFFFFFFFFFFFFFFFFFFFFFFFFFFFFFFFFFF AND PUSH20 0xFFFFFFFFFFFFFFFFFFFFFFFFFFFFFFFFFFFFFFFF AND DUP2 MSTORE PUSH1 0x20 ADD SWAP1 DUP2 MSTORE PUSH1 0x20 ADD PUSH0 KECCAK256 PUSH0 DUP3 DUP3 SLOAD ADD SWAP3 POP POP DUP2 SWAP1 SSTORE POP JUMPDEST DUP2 PUSH20 0xFFFFFFFFFFFFFFFFFFFFFFFFFFFFFFFFFFFFFFFF AND DUP4 PUSH20 0xFFFFFFFFFFFFFFFFFFFFFFFFFFFFFFFFFFFFFFFF AND PUSH32 0xDDF252AD1BE2C89B69C2B068FC378DAA952BA7F163C4A11628F55A4DF523B3EF DUP4 PUSH1 0x40 MLOAD PUSH2 0x1913 SWAP2 SWAP1 PUSH2 0x1EAD JUMP JUMPDEST PUSH1 0x40 MLOAD DUP1 SWAP2 SUB SWAP1 LOG3 POP POP POP JUMP JUMPDEST POP DUP1 PUSH1 0x24 PUSH1 0x2 MUL ADD SWAP1 PUSH2 0x1933 SWAP2 SWAP1 PUSH2 0x1983 JUMP JUMPDEST POP JUMP JUMPDEST POP DUP1 PUSH1 0xF PUSH1 0x2 MUL ADD SWAP1 PUSH2 0x1949 SWAP2 SWAP1 PUSH2 0x19CE JUMP JUMPDEST POP JUMP JUMPDEST POP DUP1 PUSH1 0x9 PUSH1 0x2 MUL ADD SWAP1 PUSH2 0x195F SWAP2 SWAP1 PUSH2 0x19FA JUMP JUMPDEST POP JUMP JUMPDEST POP DUP1 SLOAD PUSH0 DUP3 SSTORE PUSH1 0x4 MUL SWAP1 PUSH0 MSTORE PUSH1 0x20 PUSH0 KECCAK256 SWAP1 DUP2 ADD SWAP1 PUSH2 0x1980 SWAP2 SWAP1 PUSH2 0x1A26 JUMP JUMPDEST POP JUMP JUMPDEST JUMPDEST DUP1 DUP3 GT ISZERO PUSH2 0x19CA JUMPI PUSH0 PUSH0 DUP3 ADD PUSH0 PUSH2 0x100 EXP DUP2 SLOAD SWAP1 PUSH20 0xFFFFFFFFFFFFFFFFFFFFFFFFFFFFFFFFFFFFFFFF MUL NOT AND SWAP1 SSTORE PUSH1 0x1 DUP3 ADD PUSH0 PUSH2 0x19C1 SWAP2 SWAP1 PUSH2 0x1A77 JUMP JUMPDEST POP PUSH1 0x2 ADD PUSH2 0x1984 JUMP JUMPDEST POP SWAP1 JUMP JUMPDEST JUMPDEST DUP1 DUP3 GT ISZERO PUSH2 0x19F6 JUMPI PUSH0 PUSH0 DUP3 ADD PUSH0 SWAP1 SSTORE PUSH1 0x1 DUP3 ADD PUSH0 PUSH2 0x19ED SWAP2 SWAP1 PUSH2 0x1A77 JUMP JUMPDEST POP PUSH1 0x2 ADD PUSH2 0x19CF JUMP JUMPDEST POP SWAP1 JUMP JUMPDEST JUMPDEST DUP1 DUP3 GT ISZERO PUSH2 0x1A22 JUMPI PUSH0 PUSH0 DUP3 ADD PUSH0 SWAP1 SSTORE PUSH1 0x1 DUP3 ADD PUSH0 PUSH2 0x1A19 SWAP2 SWAP1 PUSH2 0x1A77 JUMP JUMPDEST POP PUSH1 0x2 ADD PUSH2 0x19FB JUMP JUMPDEST POP SWAP1 JUMP JUMPDEST JUMPDEST DUP1 DUP3 GT ISZERO PUSH2 0x1A73 JUMPI PUSH0 PUSH0 DUP3 ADD PUSH0 SWAP1 SSTORE PUSH1 0x1 DUP3 ADD PUSH0 SWAP1 SSTORE PUSH1 0x2 DUP3 ADD PUSH0 PUSH2 0x100 EXP DUP2 SLOAD SWAP1 PUSH20 0xFFFFFFFFFFFFFFFFFFFFFFFFFFFFFFFFFFFFFFFF MUL NOT AND SWAP1 SSTORE PUSH1 0x3 DUP3 ADD PUSH0 SWAP1 SSTORE POP PUSH1 0x4 ADD PUSH2 0x1A27 JUMP JUMPDEST POP SWAP1 JUMP JUMPDEST POP DUP1 SLOAD PUSH2 0x1A83 SWAP1 PUSH2 0x21BB JUMP JUMPDEST PUSH0 DUP3 SSTORE DUP1 PUSH1 0x1F LT PUSH2 0x1A94 JUMPI POP PUSH2 0x1AB1 JUMP JUMPDEST PUSH1 0x1F ADD PUSH1 0x20 SWAP1 DIV SWAP1 PUSH0 MSTORE PUSH1 0x20 PUSH0 KECCAK256 SWAP1 DUP2 ADD SWAP1 PUSH2 0x1AB0 SWAP2 SWAP1 PUSH2 0x1AB4 JUMP JUMPDEST JUMPDEST POP JUMP JUMPDEST JUMPDEST DUP1 DUP3 GT ISZERO PUSH2 0x1ACB JUMPI PUSH0 DUP2 PUSH0 SWAP1 SSTORE POP PUSH1 0x1 ADD PUSH2 0x1AB5 JUMP JUMPDEST POP SWAP1 JUMP JUMPDEST PUSH0 PUSH1 0x40 MLOAD SWAP1 POP SWAP1 JUMP JUMPDEST PUSH0 PUSH0 REVERT JUMPDEST PUSH0 PUSH0 REVERT JUMPDEST PUSH0 PUSH1 0xFF DUP3 AND SWAP1 POP SWAP2 SWAP1 POP JUMP JUMPDEST PUSH2 0x1AF5 DUP2 PUSH2 0x1AE0 JUMP JUMPDEST DUP2 EQ PUSH2 0x1AFF JUMPI PUSH0 PUSH0 REVERT JUMPDEST POP JUMP JUMPDEST PUSH0 DUP2 CALLDATALOAD SWAP1 POP PUSH2 0x1B10 DUP2 PUSH2 0x1AEC JUMP JUMPDEST SWAP3 SWAP2 POP POP JUMP JUMPDEST PUSH0 PUSH2 0xFFFF DUP3 AND SWAP1 POP SWAP2 SWAP1 POP JUMP JUMPDEST PUSH2 0x1B2C DUP2 PUSH2 0x1B16 JUMP JUMPDEST DUP2 EQ PUSH2 0x1B36 JUMPI PUSH0 PUSH0 REVERT JUMPDEST POP JUMP JUMPDEST PUSH0 DUP2 CALLDATALOAD SWAP1 POP PUSH2 0x1B47 DUP2 PUSH2 0x1B23 JUMP JUMPDEST SWAP3 SWAP2 POP POP JUMP JUMPDEST PUSH0 PUSH0 PUSH0 PUSH1 0x60 DUP5 DUP7 SUB SLT ISZERO PUSH2 0x1B64 JUMPI PUSH2 0x1B63 PUSH2 0x1AD8 JUMP JUMPDEST JUMPDEST PUSH0 PUSH2 0x1B71 DUP7 DUP3 DUP8 ADD PUSH2 0x1B02 JUMP JUMPDEST SWAP4 POP POP PUSH1 0x20 PUSH2 0x1B82 DUP7 DUP3 DUP8 ADD PUSH2 0x1B02 JUMP JUMPDEST SWAP3 POP POP PUSH1 0x40 PUSH2 0x1B93 DUP7 DUP3 DUP8 ADD PUSH2 0x1B39 JUMP JUMPDEST SWAP2 POP POP SWAP3 POP SWAP3 POP SWAP3 JUMP JUMPDEST PUSH0 DUP2 MLOAD SWAP1 POP SWAP2 SWAP1 POP JUMP JUMPDEST PUSH0 DUP3 DUP3 MSTORE PUSH1 0x20 DUP3 ADD SWAP1 POP SWAP3 SWAP2 POP POP JUMP JUMPDEST DUP3 DUP2 DUP4 MCOPY PUSH0 DUP4 DUP4 ADD MSTORE POP POP POP JUMP JUMPDEST PUSH0 PUSH1 0x1F NOT PUSH1 0x1F DUP4 ADD AND SWAP1 POP SWAP2 SWAP1 POP JUMP JUMPDEST PUSH0 PUSH2 0x1BDF DUP3 PUSH2 0x1B9D JUMP JUMPDEST PUSH2 0x1BE9 DUP2 DUP6 PUSH2 0x1BA7 JUMP JUMPDEST SWAP4 POP PUSH2 0x1BF9 DUP2 DUP6 PUSH1 0x20 DUP7 ADD PUSH2 0x1BB7 JUMP JUMPDEST PUSH2 0x1C02 DUP2 PUSH2 0x1BC5 JUMP JUMPDEST DUP5 ADD SWAP2 POP POP SWAP3 SWAP2 POP POP JUMP JUMPDEST PUSH0 PUSH1 0x20 DUP3 ADD SWAP1 POP DUP2 DUP2 SUB PUSH0 DUP4 ADD MSTORE PUSH2 0x1C25 DUP2 DUP5 PUSH2 0x1BD5 JUMP JUMPDEST SWAP1 POP SWAP3 SWAP2 POP POP JUMP JUMPDEST PUSH0 PUSH20 0xFFFFFFFFFFFFFFFFFFFFFFFFFFFFFFFFFFFFFFFF DUP3 AND SWAP1 POP SWAP2 SWAP1 POP JUMP JUMPDEST PUSH0 PUSH2 0x1C56 DUP3 PUSH2 0x1C2D JUMP JUMPDEST SWAP1 POP SWAP2 SWAP1 POP JUMP JUMPDEST PUSH2 0x1C66 DUP2 PUSH2 0x1C4C JUMP JUMPDEST DUP2 EQ PUSH2 0x1C70 JUMPI PUSH0 PUSH0 REVERT JUMPDEST POP JUMP JUMPDEST PUSH0 DUP2 CALLDATALOAD SWAP1 POP PUSH2 0x1C81 DUP2 PUSH2 0x1C5D JUMP JUMPDEST SWAP3 SWAP2 POP POP JUMP JUMPDEST PUSH0 DUP2 SWAP1 POP SWAP2 SWAP1 POP JUMP JUMPDEST PUSH2 0x1C99 DUP2 PUSH2 0x1C87 JUMP JUMPDEST DUP2 EQ PUSH2 0x1CA3 JUMPI PUSH0 PUSH0 REVERT JUMPDEST POP JUMP JUMPDEST PUSH0 DUP2 CALLDATALOAD SWAP1 POP PUSH2 0x1CB4 DUP2 PUSH2 0x1C90 JUMP JUMPDEST SWAP3 SWAP2 POP POP JUMP JUMPDEST PUSH0 PUSH0 PUSH1 0x40 DUP4 DUP6 SUB SLT ISZERO PUSH2 0x1CD0 JUMPI PUSH2 0x1CCF PUSH2 0x1AD8 JUMP JUMPDEST JUMPDEST PUSH0 PUSH2 0x1CDD DUP6 DUP3 DUP7 ADD PUSH2 0x1C73 JUMP JUMPDEST SWAP3 POP POP PUSH1 0x20 PUSH2 0x1CEE DUP6 DUP3 DUP7 ADD PUSH2 0x1CA6 JUMP JUMPDEST SWAP2 POP POP SWAP3 POP SWAP3 SWAP1 POP JUMP JUMPDEST PUSH0 DUP2 ISZERO ISZERO SWAP1 POP SWAP2 SWAP1 POP JUMP JUMPDEST PUSH2 0x1D0C DUP2 PUSH2 0x1CF8 JUMP JUMPDEST DUP3 MSTORE POP POP JUMP JUMPDEST PUSH0 PUSH1 0x20 DUP3 ADD SWAP1 POP PUSH2 0x1D25 PUSH0 DUP4 ADD DUP5 PUSH2 0x1D03 JUMP JUMPDEST SWAP3 SWAP2 POP POP JUMP JUMPDEST PUSH0 PUSH0 REVERT JUMPDEST PUSH0 PUSH0 REVERT JUMPDEST PUSH32 0x4E487B7100000000000000000000000000000000000000000000000000000000 PUSH0 MSTORE PUSH1 0x41 PUSH1 0x4 MSTORE PUSH1 0x24 PUSH0 REVERT JUMPDEST PUSH2 0x1D69 DUP3 PUSH2 0x1BC5 JUMP JUMPDEST DUP2 ADD DUP2 DUP2 LT PUSH8 0xFFFFFFFFFFFFFFFF DUP3 GT OR ISZERO PUSH2 0x1D88 JUMPI PUSH2 0x1D87 PUSH2 0x1D33 JUMP JUMPDEST JUMPDEST DUP1 PUSH1 0x40 MSTORE POP POP POP JUMP JUMPDEST PUSH0 PUSH2 0x1D9A PUSH2 0x1ACF JUMP JUMPDEST SWAP1 POP PUSH2 0x1DA6 DUP3 DUP3 PUSH2 0x1D60 JUMP JUMPDEST SWAP2 SWAP1 POP JUMP JUMPDEST PUSH0 PUSH8 0xFFFFFFFFFFFFFFFF DUP3 GT ISZERO PUSH2 0x1DC5 JUMPI PUSH2 0x1DC4 PUSH2 0x1D33 JUMP JUMPDEST JUMPDEST PUSH2 0x1DCE DUP3 PUSH2 0x1BC5 JUMP JUMPDEST SWAP1 POP PUSH1 0x20 DUP2 ADD SWAP1 POP SWAP2 SWAP1 POP JUMP JUMPDEST DUP3 DUP2 DUP4 CALLDATACOPY PUSH0 DUP4 DUP4 ADD MSTORE POP POP POP JUMP JUMPDEST PUSH0 PUSH2 0x1DFB PUSH2 0x1DF6 DUP5 PUSH2 0x1DAB JUMP JUMPDEST PUSH2 0x1D91 JUMP JUMPDEST SWAP1 POP DUP3 DUP2 MSTORE PUSH1 0x20 DUP2 ADD DUP5 DUP5 DUP5 ADD GT ISZERO PUSH2 0x1E17 JUMPI PUSH2 0x1E16 PUSH2 0x1D2F JUMP JUMPDEST JUMPDEST PUSH2 0x1E22 DUP5 DUP3 DUP6 PUSH2 0x1DDB JUMP JUMPDEST POP SWAP4 SWAP3 POP POP POP JUMP JUMPDEST PUSH0 DUP3 PUSH1 0x1F DUP4 ADD SLT PUSH2 0x1E3E JUMPI PUSH2 0x1E3D PUSH2 0x1D2B JUMP JUMPDEST JUMPDEST DUP2 CALLDATALOAD PUSH2 0x1E4E DUP5 DUP3 PUSH1 0x20 DUP7 ADD PUSH2 0x1DE9 JUMP JUMPDEST SWAP2 POP POP SWAP3 SWAP2 POP POP JUMP JUMPDEST PUSH0 PUSH1 0x20 DUP3 DUP5 SUB SLT ISZERO PUSH2 0x1E6C JUMPI PUSH2 0x1E6B PUSH2 0x1AD8 JUMP JUMPDEST JUMPDEST PUSH0 DUP3 ADD CALLDATALOAD PUSH8 0xFFFFFFFFFFFFFFFF DUP2 GT ISZERO PUSH2 0x1E89 JUMPI PUSH2 0x1E88 PUSH2 0x1ADC JUMP JUMPDEST JUMPDEST PUSH2 0x1E95 DUP5 DUP3 DUP6 ADD PUSH2 0x1E2A JUMP JUMPDEST SWAP2 POP POP SWAP3 SWAP2 POP POP JUMP JUMPDEST PUSH2 0x1EA7 DUP2 PUSH2 0x1C87 JUMP JUMPDEST DUP3 MSTORE POP POP JUMP JUMPDEST PUSH0 PUSH1 0x20 DUP3 ADD SWAP1 POP PUSH2 0x1EC0 PUSH0 DUP4 ADD DUP5 PUSH2 0x1E9E JUMP JUMPDEST SWAP3 SWAP2 POP POP JUMP JUMPDEST PUSH0 PUSH1 0x20 DUP3 DUP5 SUB SLT ISZERO PUSH2 0x1EDB JUMPI PUSH2 0x1EDA PUSH2 0x1AD8 JUMP JUMPDEST JUMPDEST PUSH0 PUSH2 0x1EE8 DUP5 DUP3 DUP6 ADD PUSH2 0x1CA6 JUMP JUMPDEST SWAP2 POP POP SWAP3 SWAP2 POP POP JUMP JUMPDEST PUSH2 0x1EFA DUP2 PUSH2 0x1C4C JUMP JUMPDEST DUP3 MSTORE POP POP JUMP JUMPDEST PUSH0 PUSH1 0x80 DUP3 ADD SWAP1 POP PUSH2 0x1F13 PUSH0 DUP4 ADD DUP8 PUSH2 0x1E9E JUMP JUMPDEST PUSH2 0x1F20 PUSH1 0x20 DUP4 ADD DUP7 PUSH2 0x1E9E JUMP JUMPDEST PUSH2 0x1F2D PUSH1 0x40 DUP4 ADD DUP6 PUSH2 0x1EF1 JUMP JUMPDEST PUSH2 0x1F3A PUSH1 0x60 DUP4 ADD DUP5 PUSH2 0x1E9E JUMP JUMPDEST SWAP6 SWAP5 POP POP POP POP POP JUMP JUMPDEST PUSH0 PUSH1 0x20 DUP3 DUP5 SUB SLT ISZERO PUSH2 0x1F58 JUMPI PUSH2 0x1F57 PUSH2 0x1AD8 JUMP JUMPDEST JUMPDEST PUSH0 PUSH2 0x1F65 DUP5 DUP3 DUP6 ADD PUSH2 0x1C73 JUMP JUMPDEST SWAP2 POP POP SWAP3 SWAP2 POP POP JUMP JUMPDEST PUSH0 PUSH1 0x40 DUP3 ADD SWAP1 POP PUSH2 0x1F81 PUSH0 DUP4 ADD DUP6 PUSH2 0x1EF1 JUMP JUMPDEST DUP2 DUP2 SUB PUSH1 0x20 DUP4 ADD MSTORE PUSH2 0x1F93 DUP2 DUP5 PUSH2 0x1BD5 JUMP JUMPDEST SWAP1 POP SWAP4 SWAP3 POP POP POP JUMP JUMPDEST PUSH0 PUSH0 PUSH0 PUSH1 0x60 DUP5 DUP7 SUB SLT ISZERO PUSH2 0x1FB3 JUMPI PUSH2 0x1FB2 PUSH2 0x1AD8 JUMP JUMPDEST JUMPDEST PUSH0 PUSH2 0x1FC0 DUP7 DUP3 DUP8 ADD PUSH2 0x1C73 JUMP JUMPDEST SWAP4 POP POP PUSH1 0x20 PUSH2 0x1FD1 DUP7 DUP3 DUP8 ADD PUSH2 0x1C73 JUMP JUMPDEST SWAP3 POP POP PUSH1 0x40 PUSH2 0x1FE2 DUP7 DUP3 DUP8 ADD PUSH2 0x1CA6 JUMP JUMPDEST SWAP2 POP POP SWAP3 POP SWAP3 POP SWAP3 JUMP JUMPDEST PUSH2 0x1FF5 DUP2 PUSH2 0x1AE0 JUMP JUMPDEST DUP3 MSTORE POP POP JUMP JUMPDEST PUSH0 PUSH1 0x20 DUP3 ADD SWAP1 POP PUSH2 0x200E PUSH0 DUP4 ADD DUP5 PUSH2 0x1FEC JUMP JUMPDEST SWAP3 SWAP2 POP POP JUMP JUMPDEST PUSH0 PUSH0 PUSH1 0x40 DUP4 DUP6 SUB SLT ISZERO PUSH2 0x202A JUMPI PUSH2 0x2029 PUSH2 0x1AD8 JUMP JUMPDEST JUMPDEST PUSH0 PUSH2 0x2037 DUP6 DUP3 DUP7 ADD PUSH2 0x1CA6 JUMP JUMPDEST SWAP3 POP POP PUSH1 0x20 PUSH2 0x2048 DUP6 DUP3 DUP7 ADD PUSH2 0x1CA6 JUMP JUMPDEST SWAP2 POP POP SWAP3 POP SWAP3 SWAP1 POP JUMP JUMPDEST PUSH0 PUSH1 0x40 DUP3 ADD SWAP1 POP PUSH2 0x2065 PUSH0 DUP4 ADD DUP6 PUSH2 0x1E9E JUMP JUMPDEST DUP2 DUP2 SUB PUSH1 0x20 DUP4 ADD MSTORE PUSH2 0x2077 DUP2 DUP5 PUSH2 0x1BD5 JUMP JUMPDEST SWAP1 POP SWAP4 SWAP3 POP POP POP JUMP JUMPDEST PUSH0 PUSH0 PUSH1 0x40 DUP4 DUP6 SUB SLT ISZERO PUSH2 0x2096 JUMPI PUSH2 0x2095 PUSH2 0x1AD8 JUMP JUMPDEST JUMPDEST PUSH0 PUSH2 0x20A3 DUP6 DUP3 DUP7 ADD PUSH2 0x1C73 JUMP JUMPDEST SWAP3 POP POP PUSH1 0x20 PUSH2 0x20B4 DUP6 DUP3 DUP7 ADD PUSH2 0x1C73 JUMP JUMPDEST SWAP2 POP POP SWAP3 POP SWAP3 SWAP1 POP JUMP JUMPDEST PUSH32 0x536F6D656E7465206A757261646F7320706F64656D2072656769737472617200 PUSH0 DUP3 ADD MSTORE POP JUMP JUMPDEST PUSH0 PUSH2 0x20F2 PUSH1 0x1F DUP4 PUSH2 0x1BA7 JUMP JUMPDEST SWAP2 POP PUSH2 0x20FD DUP3 PUSH2 0x20BE JUMP JUMPDEST PUSH1 0x20 DUP3 ADD SWAP1 POP SWAP2 SWAP1 POP JUMP JUMPDEST PUSH0 PUSH1 0x20 DUP3 ADD SWAP1 POP DUP2 DUP2 SUB PUSH0 DUP4 ADD MSTORE PUSH2 0x211F DUP2 PUSH2 0x20E6 JUMP JUMPDEST SWAP1 POP SWAP2 SWAP1 POP JUMP JUMPDEST PUSH32 0x4E6F746120696D706F73736976656C0000000000000000000000000000000000 PUSH0 DUP3 ADD MSTORE POP JUMP JUMPDEST PUSH0 PUSH2 0x215A PUSH1 0xF DUP4 PUSH2 0x1BA7 JUMP JUMPDEST SWAP2 POP PUSH2 0x2165 DUP3 PUSH2 0x2126 JUMP JUMPDEST PUSH1 0x20 DUP3 ADD SWAP1 POP SWAP2 SWAP1 POP JUMP JUMPDEST PUSH0 PUSH1 0x20 DUP3 ADD SWAP1 POP DUP2 DUP2 SUB PUSH0 DUP4 ADD MSTORE PUSH2 0x2187 DUP2 PUSH2 0x214E JUMP JUMPDEST SWAP1 POP SWAP2 SWAP1 POP JUMP JUMPDEST PUSH32 0x4E487B7100000000000000000000000000000000000000000000000000000000 PUSH0 MSTORE PUSH1 0x22 PUSH1 0x4 MSTORE PUSH1 0x24 PUSH0 REVERT JUMPDEST PUSH0 PUSH1 0x2 DUP3 DIV SWAP1 POP PUSH1 0x1 DUP3 AND DUP1 PUSH2 0x21D2 JUMPI PUSH1 0x7F DUP3 AND SWAP2 POP JUMPDEST PUSH1 0x20 DUP3 LT DUP2 SUB PUSH2 0x21E5 JUMPI PUSH2 0x21E4 PUSH2 0x218E JUMP JUMPDEST JUMPDEST POP SWAP2 SWAP1 POP JUMP JUMPDEST PUSH32 0x5175616E746964616465206D6178696D61206465207175657369746F73000000 PUSH0 DUP3 ADD MSTORE POP JUMP JUMPDEST PUSH0 PUSH2 0x221F PUSH1 0x1D DUP4 PUSH2 0x1BA7 JUMP JUMPDEST SWAP2 POP PUSH2 0x222A DUP3 PUSH2 0x21EB JUMP JUMPDEST PUSH1 0x20 DUP3 ADD SWAP1 POP SWAP2 SWAP1 POP JUMP JUMPDEST PUSH0 PUSH1 0x20 DUP3 ADD SWAP1 POP DUP2 DUP2 SUB PUSH0 DUP4 ADD MSTORE PUSH2 0x224C DUP2 PUSH2 0x2213 JUMP JUMPDEST SWAP1 POP SWAP2 SWAP1 POP JUMP JUMPDEST PUSH32 0x4E487B7100000000000000000000000000000000000000000000000000000000 PUSH0 MSTORE PUSH1 0x32 PUSH1 0x4 MSTORE PUSH1 0x24 PUSH0 REVERT JUMPDEST PUSH0 DUP2 SWAP1 POP DUP2 PUSH0 MSTORE PUSH1 0x20 PUSH0 KECCAK256 SWAP1 POP SWAP2 SWAP1 POP JUMP JUMPDEST PUSH0 PUSH1 0x20 PUSH1 0x1F DUP4 ADD DIV SWAP1 POP SWAP2 SWAP1 POP JUMP JUMPDEST PUSH0 DUP3 DUP3 SHL SWAP1 POP SWAP3 SWAP2 POP POP JUMP JUMPDEST PUSH0 PUSH1 0x8 DUP4 MUL PUSH2 0x22DC PUSH32 0xFFFFFFFFFFFFFFFFFFFFFFFFFFFFFFFFFFFFFFFFFFFFFFFFFFFFFFFFFFFFFFFF DUP3 PUSH2 0x22A1 JUMP JUMPDEST PUSH2 0x22E6 DUP7 DUP4 PUSH2 0x22A1 JUMP JUMPDEST SWAP6 POP DUP1 NOT DUP5 AND SWAP4 POP DUP1 DUP7 AND DUP5 OR SWAP3 POP POP POP SWAP4 SWAP3 POP POP POP JUMP JUMPDEST PUSH0 DUP2 SWAP1 POP SWAP2 SWAP1 POP JUMP JUMPDEST PUSH0 PUSH2 0x2321 PUSH2 0x231C PUSH2 0x2317 DUP5 PUSH2 0x1C87 JUMP JUMPDEST PUSH2 0x22FE JUMP JUMPDEST PUSH2 0x1C87 JUMP JUMPDEST SWAP1 POP SWAP2 SWAP1 POP JUMP JUMPDEST PUSH0 DUP2 SWAP1 POP SWAP2 SWAP1 POP JUMP JUMPDEST PUSH2 0x233A DUP4 PUSH2 0x2307 JUMP JUMPDEST PUSH2 0x234E PUSH2 0x2346 DUP3 PUSH2 0x2328 JUMP JUMPDEST DUP5 DUP5 SLOAD PUSH2 0x22AD JUMP JUMPDEST DUP3 SSTORE POP POP POP POP JUMP JUMPDEST PUSH0 PUSH0 SWAP1 POP SWAP1 JUMP JUMPDEST PUSH2 0x2365 PUSH2 0x2356 JUMP JUMPDEST PUSH2 0x2370 DUP2 DUP5 DUP5 PUSH2 0x2331 JUMP JUMPDEST POP POP POP JUMP JUMPDEST JUMPDEST DUP2 DUP2 LT ISZERO PUSH2 0x2393 JUMPI PUSH2 0x2388 PUSH0 DUP3 PUSH2 0x235D JUMP JUMPDEST PUSH1 0x1 DUP2 ADD SWAP1 POP PUSH2 0x2376 JUMP JUMPDEST POP POP JUMP JUMPDEST PUSH1 0x1F DUP3 GT ISZERO PUSH2 0x23D8 JUMPI PUSH2 0x23A9 DUP2 PUSH2 0x2280 JUMP JUMPDEST PUSH2 0x23B2 DUP5 PUSH2 0x2292 JUMP JUMPDEST DUP2 ADD PUSH1 0x20 DUP6 LT ISZERO PUSH2 0x23C1 JUMPI DUP2 SWAP1 POP JUMPDEST PUSH2 0x23D5 PUSH2 0x23CD DUP6 PUSH2 0x2292 JUMP JUMPDEST DUP4 ADD DUP3 PUSH2 0x2375 JUMP JUMPDEST POP POP JUMPDEST POP POP POP JUMP JUMPDEST PUSH0 DUP3 DUP3 SHR SWAP1 POP SWAP3 SWAP2 POP POP JUMP JUMPDEST PUSH0 PUSH2 0x23F8 PUSH0 NOT DUP5 PUSH1 0x8 MUL PUSH2 0x23DD JUMP JUMPDEST NOT DUP1 DUP4 AND SWAP2 POP POP SWAP3 SWAP2 POP POP JUMP JUMPDEST PUSH0 PUSH2 0x2410 DUP4 DUP4 PUSH2 0x23E9 JUMP JUMPDEST SWAP2 POP DUP3 PUSH1 0x2 MUL DUP3 OR SWAP1 POP SWAP3 SWAP2 POP POP JUMP JUMPDEST PUSH2 0x2429 DUP3 PUSH2 0x1B9D JUMP JUMPDEST PUSH8 0xFFFFFFFFFFFFFFFF DUP2 GT ISZERO PUSH2 0x2442 JUMPI PUSH2 0x2441 PUSH2 0x1D33 JUMP JUMPDEST JUMPDEST PUSH2 0x244C DUP3 SLOAD PUSH2 0x21BB JUMP JUMPDEST PUSH2 0x2457 DUP3 DUP3 DUP6 PUSH2 0x2397 JUMP JUMPDEST PUSH0 PUSH1 0x20 SWAP1 POP PUSH1 0x1F DUP4 GT PUSH1 0x1 DUP2 EQ PUSH2 0x2488 JUMPI PUSH0 DUP5 ISZERO PUSH2 0x2476 JUMPI DUP3 DUP8 ADD MLOAD SWAP1 POP JUMPDEST PUSH2 0x2480 DUP6 DUP3 PUSH2 0x2405 JUMP JUMPDEST DUP7 SSTORE POP PUSH2 0x24E7 JUMP JUMPDEST PUSH1 0x1F NOT DUP5 AND PUSH2 0x2496 DUP7 PUSH2 0x2280 JUMP JUMPDEST PUSH0 JUMPDEST DUP3 DUP2 LT ISZERO PUSH2 0x24BD JUMPI DUP5 DUP10 ADD MLOAD DUP3 SSTORE PUSH1 0x1 DUP3 ADD SWAP2 POP PUSH1 0x20 DUP6 ADD SWAP5 POP PUSH1 0x20 DUP2 ADD SWAP1 POP PUSH2 0x2498 JUMP JUMPDEST DUP7 DUP4 LT ISZERO PUSH2 0x24DA JUMPI DUP5 DUP10 ADD MLOAD PUSH2 0x24D6 PUSH1 0x1F DUP10 AND DUP3 PUSH2 0x23E9 JUMP JUMPDEST DUP4 SSTORE POP JUMPDEST PUSH1 0x1 PUSH1 0x2 DUP9 MUL ADD DUP9 SSTORE POP POP POP JUMPDEST POP POP POP POP POP POP JUMP JUMPDEST PUSH0 PUSH1 0x40 DUP3 ADD SWAP1 POP PUSH2 0x2502 PUSH0 DUP4 ADD DUP6 PUSH2 0x1FEC JUMP JUMPDEST DUP2 DUP2 SUB PUSH1 0x20 DUP4 ADD MSTORE PUSH2 0x2514 DUP2 DUP5 PUSH2 0x1BD5 JUMP JUMPDEST SWAP1 POP SWAP4 SWAP3 POP POP POP JUMP JUMPDEST PUSH32 0x4E487B7100000000000000000000000000000000000000000000000000000000 PUSH0 MSTORE PUSH1 0x11 PUSH1 0x4 MSTORE PUSH1 0x24 PUSH0 REVERT JUMPDEST PUSH0 PUSH2 0x2554 DUP3 PUSH2 0x1AE0 JUMP JUMPDEST SWAP2 POP PUSH1 0xFF DUP3 SUB PUSH2 0x2567 JUMPI PUSH2 0x2566 PUSH2 0x251D JUMP JUMPDEST JUMPDEST PUSH1 0x1 DUP3 ADD SWAP1 POP SWAP2 SWAP1 POP JUMP JUMPDEST PUSH0 PUSH2 0x257C DUP3 PUSH2 0x1AE0 JUMP JUMPDEST SWAP2 POP PUSH2 0x2587 DUP4 PUSH2 0x1AE0 JUMP JUMPDEST SWAP3 POP DUP3 DUP3 SUB SWAP1 POP PUSH1 0xFF DUP2 GT ISZERO PUSH2 0x25A0 JUMPI PUSH2 0x259F PUSH2 0x251D JUMP JUMPDEST JUMPDEST SWAP3 SWAP2 POP POP JUMP JUMPDEST PUSH32 0x5175616E746964616465206D6178696D61206465206A757261646F7300000000 PUSH0 DUP3 ADD MSTORE POP JUMP JUMPDEST PUSH0 PUSH2 0x25DA PUSH1 0x1C DUP4 PUSH2 0x1BA7 JUMP JUMPDEST SWAP2 POP PUSH2 0x25E5 DUP3 PUSH2 0x25A6 JUMP JUMPDEST PUSH1 0x20 DUP3 ADD SWAP1 POP SWAP2 SWAP1 POP JUMP JUMPDEST PUSH0 PUSH1 0x20 DUP3 ADD SWAP1 POP DUP2 DUP2 SUB PUSH0 DUP4 ADD MSTORE PUSH2 0x2607 DUP2 PUSH2 0x25CE JUMP JUMPDEST SWAP1 POP SWAP2 SWAP1 POP JUMP JUMPDEST PUSH32 0x5175616E746964616465206D6178696D61206465206573636F6C617300000000 PUSH0 DUP3 ADD MSTORE POP JUMP JUMPDEST PUSH0 PUSH2 0x2642 PUSH1 0x1C DUP4 PUSH2 0x1BA7 JUMP JUMPDEST SWAP2 POP PUSH2 0x264D DUP3 PUSH2 0x260E JUMP JUMPDEST PUSH1 0x20 DUP3 ADD SWAP1 POP SWAP2 SWAP1 POP JUMP JUMPDEST PUSH0 PUSH1 0x20 DUP3 ADD SWAP1 POP DUP2 DUP2 SUB PUSH0 DUP4 ADD MSTORE PUSH2 0x266F DUP2 PUSH2 0x2636 JUMP JUMPDEST SWAP1 POP SWAP2 SWAP1 POP JUMP JUMPDEST PUSH0 PUSH2 0x2690 PUSH2 0x268B PUSH2 0x2686 DUP5 PUSH2 0x1AE0 JUMP JUMPDEST PUSH2 0x22FE JUMP JUMPDEST PUSH2 0x1C87 JUMP JUMPDEST SWAP1 POP SWAP2 SWAP1 POP JUMP JUMPDEST PUSH2 0x26A0 DUP2 PUSH2 0x2676 JUMP JUMPDEST DUP3 MSTORE POP POP JUMP JUMPDEST PUSH0 PUSH1 0x40 DUP3 ADD SWAP1 POP PUSH2 0x26B9 PUSH0 DUP4 ADD DUP6 PUSH2 0x2697 JUMP JUMPDEST DUP2 DUP2 SUB PUSH1 0x20 DUP4 ADD MSTORE PUSH2 0x26CB DUP2 DUP5 PUSH2 0x1BD5 JUMP JUMPDEST SWAP1 POP SWAP4 SWAP3 POP POP POP JUMP JUMPDEST PUSH0 PUSH1 0x60 DUP3 ADD SWAP1 POP PUSH2 0x26E7 PUSH0 DUP4 ADD DUP7 PUSH2 0x1EF1 JUMP JUMPDEST PUSH2 0x26F4 PUSH1 0x20 DUP4 ADD DUP6 PUSH2 0x1E9E JUMP JUMPDEST PUSH2 0x2701 PUSH1 0x40 DUP4 ADD DUP5 PUSH2 0x1E9E JUMP JUMPDEST SWAP5 SWAP4 POP POP POP POP JUMP JUMPDEST PUSH0 PUSH1 0x20 DUP3 ADD SWAP1 POP PUSH2 0x271C PUSH0 DUP4 ADD DUP5 PUSH2 0x1EF1 JUMP JUMPDEST SWAP3 SWAP2 POP POP JUMP JUMPDEST PUSH0 PUSH2 0x272C DUP3 PUSH2 0x1C87 JUMP JUMPDEST SWAP2 POP PUSH2 0x2737 DUP4 PUSH2 0x1C87 JUMP JUMPDEST SWAP3 POP DUP3 DUP3 ADD SWAP1 POP DUP1 DUP3 GT ISZERO PUSH2 0x274F JUMPI PUSH2 0x274E PUSH2 0x251D JUMP JUMPDEST JUMPDEST SWAP3 SWAP2 POP POP JUMP INVALID LOG2 PUSH5 0x6970667358 0x22 SLT KECCAK256 0xA9 0xD2 0xD1 DELEGATECALL PUSH14 0xDE67CEB07EBBE5B85AFB6CF93316 STATICCALL 0xDF 0xB6 MULMOD JUMPI CALL BLOBBASEFEE MLOAD 0x2C 0xCA 0xD9 0xAF 0xD8 PUSH5 0x736F6C6343 STOP ADDMOD SHR STOP CALLER "
				},
				"gasEstimates": {
					"creation": {
						"codeDepositCost": "2024600",
						"executionCost": "infinite",
						"totalCost": "infinite"
					},
					"external": {
						"addEscola(string)": "infinite",
						"addJurado(string)": "infinite",
						"addQuesito(string)": "infinite",
						"allowance(address,address)": "infinite",
						"approve(address,uint256)": "infinite",
						"balanceOf(address)": "2873",
						"decimals()": "427",
						"escolas(uint256)": "infinite",
						"getNota(uint256,uint256)": "infinite",
						"jurados(address)": "infinite",
						"limparDados()": "infinite",
						"name()": "infinite",
						"notas(uint256)": "infinite",
						"notasPorEscolaQuesito(uint256,uint256)": "infinite",
						"quantidadeJurados(uint256)": "infinite",
						"quesitos(uint256)": "infinite",
						"registrarNota(uint8,uint8,uint16)": "infinite",
						"symbol()": "infinite",
						"totalSupply()": "2455",
						"transfer(address,uint256)": "infinite",
						"transferFrom(address,address,uint256)": "infinite"
					}
				},
				"methodIdentifiers": {
					"addEscola(string)": "bb7b3671",
					"addJurado(string)": "3bdff5ba",
					"addQuesito(string)": "140b24f5",
					"allowance(address,address)": "dd62ed3e",
					"approve(address,uint256)": "095ea7b3",
					"balanceOf(address)": "70a08231",
					"decimals()": "313ce567",
					"escolas(uint256)": "d3dea54d",
					"getNota(uint256,uint256)": "66885744",
					"jurados(address)": "1f12a015",
					"limparDados()": "e49a39dc",
					"name()": "06fdde03",
					"notas(uint256)": "162f17a9",
					"notasPorEscolaQuesito(uint256,uint256)": "a916b987",
					"quantidadeJurados(uint256)": "e2eae4db",
					"quesitos(uint256)": "eb75e0b8",
					"registrarNota(uint8,uint8,uint16)": "0350173f",
					"symbol()": "95d89b41",
					"totalSupply()": "18160ddd",
					"transfer(address,uint256)": "a9059cbb",
					"transferFrom(address,address,uint256)": "23b872dd"
				}
			},
			"storageLayout": {
				"storage": [
					{
						"astId": 159,
						"contract": "Qsito/carnaval.sol:CarnavalScores",
						"label": "_balances",
						"offset": 0,
						"slot": "0",
						"type": "t_mapping(t_address,t_uint256)"
					},
					{
						"astId": 165,
						"contract": "Qsito/carnaval.sol:CarnavalScores",
						"label": "_allowances",
						"offset": 0,
						"slot": "1",
						"type": "t_mapping(t_address,t_mapping(t_address,t_uint256))"
					},
					{
						"astId": 167,
						"contract": "Qsito/carnaval.sol:CarnavalScores",
						"label": "_totalSupply",
						"offset": 0,
						"slot": "2",
						"type": "t_uint256"
					},
					{
						"astId": 169,
						"contract": "Qsito/carnaval.sol:CarnavalScores",
						"label": "_name",
						"offset": 0,
						"slot": "3",
						"type": "t_string_storage"
					},
					{
						"astId": 171,
						"contract": "Qsito/carnaval.sol:CarnavalScores",
						"label": "_symbol",
						"offset": 0,
						"slot": "4",
						"type": "t_string_storage"
					},
					{
						"astId": 828,
						"contract": "Qsito/carnaval.sol:CarnavalScores",
						"label": "quantidadeJurados",
						"offset": 0,
						"slot": "5",
						"type": "t_array(t_struct(Jurado)795_storage)36_storage"
					},
					{
						"astId": 833,
						"contract": "Qsito/carnaval.sol:CarnavalScores",
						"label": "escolas",
						"offset": 0,
						"slot": "77",
						"type": "t_array(t_struct(Escola)800_storage)15_storage"
					},
					{
						"astId": 838,
						"contract": "Qsito/carnaval.sol:CarnavalScores",
						"label": "quesitos",
						"offset": 0,
						"slot": "107",
						"type": "t_array(t_struct(Quesito)805_storage)9_storage"
					},
					{
						"astId": 842,
						"contract": "Qsito/carnaval.sol:CarnavalScores",
						"label": "notas",
						"offset": 0,
						"slot": "125",
						"type": "t_array(t_struct(Nota)814_storage)dyn_storage"
					},
					{
						"astId": 847,
						"contract": "Qsito/carnaval.sol:CarnavalScores",
						"label": "jurados",
						"offset": 0,
						"slot": "126",
						"type": "t_mapping(t_address,t_struct(Jurado)795_storage)"
					},
					{
						"astId": 854,
						"contract": "Qsito/carnaval.sol:CarnavalScores",
						"label": "notasPorEscolaQuesito",
						"offset": 0,
						"slot": "127",
						"type": "t_mapping(t_uint256,t_mapping(t_uint256,t_struct(Nota)814_storage))"
					},
					{
						"astId": 865,
						"contract": "Qsito/carnaval.sol:CarnavalScores",
						"label": "currentJuradoIndex",
						"offset": 0,
						"slot": "128",
						"type": "t_uint8"
					},
					{
						"astId": 868,
						"contract": "Qsito/carnaval.sol:CarnavalScores",
						"label": "currentEscolaIndex",
						"offset": 1,
						"slot": "128",
						"type": "t_uint8"
					},
					{
						"astId": 871,
						"contract": "Qsito/carnaval.sol:CarnavalScores",
						"label": "currentQuesitoIndex",
						"offset": 2,
						"slot": "128",
						"type": "t_uint8"
					}
				],
				"types": {
					"t_address": {
						"encoding": "inplace",
						"label": "address",
						"numberOfBytes": "20"
					},
					"t_array(t_struct(Escola)800_storage)15_storage": {
						"base": "t_struct(Escola)800_storage",
						"encoding": "inplace",
						"label": "struct CarnavalScores.Escola[15]",
						"numberOfBytes": "960"
					},
					"t_array(t_struct(Jurado)795_storage)36_storage": {
						"base": "t_struct(Jurado)795_storage",
						"encoding": "inplace",
						"label": "struct CarnavalScores.Jurado[36]",
						"numberOfBytes": "2304"
					},
					"t_array(t_struct(Nota)814_storage)dyn_storage": {
						"base": "t_struct(Nota)814_storage",
						"encoding": "dynamic_array",
						"label": "struct CarnavalScores.Nota[]",
						"numberOfBytes": "32"
					},
					"t_array(t_struct(Quesito)805_storage)9_storage": {
						"base": "t_struct(Quesito)805_storage",
						"encoding": "inplace",
						"label": "struct CarnavalScores.Quesito[9]",
						"numberOfBytes": "576"
					},
					"t_mapping(t_address,t_mapping(t_address,t_uint256))": {
						"encoding": "mapping",
						"key": "t_address",
						"label": "mapping(address => mapping(address => uint256))",
						"numberOfBytes": "32",
						"value": "t_mapping(t_address,t_uint256)"
					},
					"t_mapping(t_address,t_struct(Jurado)795_storage)": {
						"encoding": "mapping",
						"key": "t_address",
						"label": "mapping(address => struct CarnavalScores.Jurado)",
						"numberOfBytes": "32",
						"value": "t_struct(Jurado)795_storage"
					},
					"t_mapping(t_address,t_uint256)": {
						"encoding": "mapping",
						"key": "t_address",
						"label": "mapping(address => uint256)",
						"numberOfBytes": "32",
						"value": "t_uint256"
					},
					"t_mapping(t_uint256,t_mapping(t_uint256,t_struct(Nota)814_storage))": {
						"encoding": "mapping",
						"key": "t_uint256",
						"label": "mapping(uint256 => mapping(uint256 => struct CarnavalScores.Nota))",
						"numberOfBytes": "32",
						"value": "t_mapping(t_uint256,t_struct(Nota)814_storage)"
					},
					"t_mapping(t_uint256,t_struct(Nota)814_storage)": {
						"encoding": "mapping",
						"key": "t_uint256",
						"label": "mapping(uint256 => struct CarnavalScores.Nota)",
						"numberOfBytes": "32",
						"value": "t_struct(Nota)814_storage"
					},
					"t_string_storage": {
						"encoding": "bytes",
						"label": "string",
						"numberOfBytes": "32"
					},
					"t_struct(Escola)800_storage": {
						"encoding": "inplace",
						"label": "struct CarnavalScores.Escola",
						"members": [
							{
								"astId": 797,
								"contract": "Qsito/carnaval.sol:CarnavalScores",
								"label": "id",
								"offset": 0,
								"slot": "0",
								"type": "t_uint256"
							},
							{
								"astId": 799,
								"contract": "Qsito/carnaval.sol:CarnavalScores",
								"label": "nome",
								"offset": 0,
								"slot": "1",
								"type": "t_string_storage"
							}
						],
						"numberOfBytes": "64"
					},
					"t_struct(Jurado)795_storage": {
						"encoding": "inplace",
						"label": "struct CarnavalScores.Jurado",
						"members": [
							{
								"astId": 792,
								"contract": "Qsito/carnaval.sol:CarnavalScores",
								"label": "endereco",
								"offset": 0,
								"slot": "0",
								"type": "t_address"
							},
							{
								"astId": 794,
								"contract": "Qsito/carnaval.sol:CarnavalScores",
								"label": "nome",
								"offset": 0,
								"slot": "1",
								"type": "t_string_storage"
							}
						],
						"numberOfBytes": "64"
					},
					"t_struct(Nota)814_storage": {
						"encoding": "inplace",
						"label": "struct CarnavalScores.Nota",
						"members": [
							{
								"astId": 807,
								"contract": "Qsito/carnaval.sol:CarnavalScores",
								"label": "escolaId",
								"offset": 0,
								"slot": "0",
								"type": "t_uint256"
							},
							{
								"astId": 809,
								"contract": "Qsito/carnaval.sol:CarnavalScores",
								"label": "quesitoId",
								"offset": 0,
								"slot": "1",
								"type": "t_uint256"
							},
							{
								"astId": 811,
								"contract": "Qsito/carnaval.sol:CarnavalScores",
								"label": "juradoId",
								"offset": 0,
								"slot": "2",
								"type": "t_address"
							},
							{
								"astId": 813,
								"contract": "Qsito/carnaval.sol:CarnavalScores",
								"label": "nota",
								"offset": 0,
								"slot": "3",
								"type": "t_uint256"
							}
						],
						"numberOfBytes": "128"
					},
					"t_struct(Quesito)805_storage": {
						"encoding": "inplace",
						"label": "struct CarnavalScores.Quesito",
						"members": [
							{
								"astId": 802,
								"contract": "Qsito/carnaval.sol:CarnavalScores",
								"label": "id",
								"offset": 0,
								"slot": "0",
								"type": "t_uint256"
							},
							{
								"astId": 804,
								"contract": "Qsito/carnaval.sol:CarnavalScores",
								"label": "nome",
								"offset": 0,
								"slot": "1",
								"type": "t_string_storage"
							}
						],
						"numberOfBytes": "64"
					},
					"t_uint256": {
						"encoding": "inplace",
						"label": "uint256",
						"numberOfBytes": "32"
					},
					"t_uint8": {
						"encoding": "inplace",
						"label": "uint8",
						"numberOfBytes": "1"
					}
				}
			},
			"userdoc": {
				"kind": "user",
				"methods": {},
				"version": 1
			}
		}
	}
}